:020000040800F2
:1000000050050020E9420008C1030008C3030008AE
:10001000C7030008CB030008CF030008000000005E
:10002000000000000000000000000000D3030008F2
:10003000D503000800000000D7030008D90300081A
:100040000343000803430008034300080343000878
:100050000343000803430008034300080343000868
:100060000343000803430008034300080343000858
:100070000343000803430008034300080343000848
:100080000343000803430008034300080343000838
:100090000343000803430008034300080343000828
:1000A0000343000803430008034300080343000818
:1000B000034300080142000803430008034300080B
:1000C00003430008034300080343000803430008F8
:1000D0000343000823410008034300081D420008B1
:1000E00003430008034300080343000803430008D8
:1000F00003430008034300080343000803430008C8
:1001000003430008034300080343000803430008B7
:1001100003430008034300080343000803430008A7
:100120000343000803430008034300080343000897
:100130000343000803430008034300080343000887
:100140000343000803430008034300080343000877
:100150000343000803430008034300080343000867
:100160000343000803430008034300080343000857
:100170000343000803430008034300080343000847
:100180000343000803430008DFF810D005F0C2FF66
:1001900000480047E7020008AFF300805005002048
:1001A00010B50020554908604FF4FA7003F036FF8F
:1001B00001205349C1F8A4024FF4FA7003F02EFF56
:1001C00000204E49091D08604FF4FA7003F026FF25
:1001D00001204B49C1F8A8024FF4FA7003F01EFF4A
:1001E00010BD1CB501F04DFF01F089FF01F0F5FFD6
:1001F00002F0B7F802F0E2F902F089F902F0CCFA65
:1002000002F007FB02F024FC02F058FC4FF6FF70EE
:100210004FF478433BA210210090002001F033FC02
:100220004FF47A7003F0FAFE4FF6FF704FF4784106
:10023000052340F2D242CDE900102021102001F028
:10024000CCFC4FF47A7003F0E9FE4FF6FF704FF4E8
:100250007841032304229FED2F0ACDE900103021BD
:10026000002001F07AFD4FF47A7003F0D7FE4FF6CC
:10027000FF704FF4784328A23C210090102001F039
:1002800002FC4FF47A7003F0C9FE4FF6FF704FF492
:10029000784325A25A210090002001F0F4FB4FF48E
:1002A0007A7003F0BBFE1CBD10B5A82003F054FE0D
:1002B0004FF4E13003F0DFFE1FA005F04DFF4FF4D7
:1002C000A06004F023F802F02FFD23A005F044FF06
:1002D00000F04AFA25A005F03FFF00F0F1FB28A04E
:1002E00005F03AFF10BDFFF7DFFF2AA005F034FF4D
:1002F00002E02EA005F030FFFBE70000A48242429E
:100300000080424273746D3332207673636F64658C
:1003100000000000B81EF742427920323032312D01
:1003200030312D32390000006B65696C35207673F1
:10033000636F6465000000005553415254315F43C0
:100340006F6E66696775726174696F6E0909095B22
:100350004F4B5D200D0A00004C45445F496E6974A7
:100360000909095B4F4B5D200D0A00004B45595FA1
:10037000496E69740909095B4F4B5D200D0A000045
:100380004C43445F496E69740909095B4F4B5D201A
:100390000D0A000048617265776172655F49696E98
:1003A000740909095B4F4B5D200D0A0048617265B5
:1003B000776172655F576F726B696E67200D0A0017
:1003C000704700BFFEE700BFFEE700BFFEE700BFCB
:1003D000FEE7704770477047704700000CB500207B
:1003E000019000907648006840F4803074490860BD
:1003F00000BF7348006800F4003000900198401C72
:100400000190009818B90198B0F5A04FF1D16C484F
:10041000006800F4003010B10120009001E00020DD
:1004200000900098012846D165484030006840F0AF
:1004300080506349403108606248006840F44040A1
:10044000604908605E48083000685D49083108600E
:100450000846006840F4004008600846006840F420
:10046000A05008605848091F0860081F006840F045
:100470008070091F086000BF5148006800F00070DC
:100480000028F9D040F20570504908604C48083007
:10049000006820F003004A490831086008460068F7
:1004A00040F00200086000BF45480830006800F0D6
:1004B0000C000828F8D10CBD10B54548006840F480
:1004C0007000434908603E48006840F001003C4924
:1004D000086000203A4908310860394800683D4901
:1004E0000840374908603C48091D0860081F00683B
:1004F00020F48020091F0860002031490C31086079
:10050000FFF76CFF4FF0006031498039086010BD83
:1005100070B500200022022300240221284D083556
:100520002D6805F00C0020B1042806D0082834D12D
:1005300007E02A4D2A4E356033E02A4D284E3560BB
:100540002FE01F4D2D1D2D68C5F380541C4D2D1D12
:100550002D6805F03F0154B1224DB5FBF1F5184E61
:10056000361D3668C6F3881605FB06F209E01B4DFA
:10057000B5FBF1F5124E361D3668C6F3881605FB3D
:1005800006F20F4D2D1D2D68C5F301456D1C6B0046
:10059000B2FBF3F5124E356003E0104D104E35609E
:1005A00000BF00BF064D08352D68C5F303150E4E7C
:1005B000705D0B4D2D68C540094E356070BD000063
:1005C000003802400070004008544007003C0240E0
:1005D00088ED00E0FFFFF6FE103000240024F40058
:1005E0000000002000127A000400002010B503F083
:1005F00085FB10BD70B50446002603F09EFB254622
:10060000E11704EB11610912A02202EB4101C8B20B
:1006100003F03FFC03F0D2FBE11704EB1161091278
:10062000A4EB0121C8B203F034FC03F0C7FB03F0D4
:1006300084FBA12003F02DFC03F0C0FB002003F09D
:1006400055FC064603F09BFB304670BD70B5044672
:100650000E4603F072FB2546E11704EB1161091207
:10066000A02202EB4101C8B203F013FC03F0A6FB89
:10067000E11704EB11610912A4EB0121C8B203F0E8
:1006800008FC03F09BFB304603F003FC03F096FBF1
:1006900003F075FB0A2003F0C1FC70BD2DE9F041A9
:1006A00005460E461746002409E0E20026FA02F24B
:1006B000D1B22A1990B2FFF7C9FF601CC4B2BC4284
:1006C000F3DBBDE8F0812DE9F04107460C4600263A
:1006D000002509E036023919491B491E88B2FFF787
:1006E00089FF0644681CC5B2A542F3DB3046BDE86D
:1006F000F08110B5FF20FFF77DFF0446552C01D196
:10070000002010BD5521FF20FFF7A0FFFF20FFF7BD
:1007100071FF0446552C01D10020F2E70120F0E7DB
:1007200070B506460C46154608E03046721C96B277
:10073000FFF760FF04F8010B681E85B2002DF4D1AD
:1007400070BD70B505460C46164606E02178284671
:10075000FFF77CFF681C85B2641C301EA6F1010106
:100760008EB2F3D170BD00001CB50121112004F040
:1007700061F91C20009000208DF8040003208DF802
:10078000050001208DF807006946354803F0B4FEE6
:100790000120009002208DF807006946314803F0DF
:1007A000ABFE1CBD10B5044614B101202E490870E3
:1007B0002D480078002837D01021294803F0FEFE8C
:1007C00078B10821264803F0F9FE50B104212448ED
:1007D00003F0F4FE28B10121224803F0EFFE0128C6
:1007E00022D10A2003F01AFC00201F4908701021B2
:1007F0001B4803F0E3FE08B9012010BD082118488A
:1008000003F0DCFE08B90220F7E70421144803F0E6
:10081000D5FE08B90320F0E70121124803F0CEFE0F
:1008200001281BD10420E8E710210D4803F0C6FE83
:10083000012813D108210A4803F0C0FE01280DD178
:100840000421074803F0BAFE012807D10121054819
:1008500003F0B4FE10B90120034908700020CCE772
:1008600000100240000002401400002010B50446B1
:100870000020FE490860FE49C1F8B802204602F097
:1008800033FA0120F949086010BD10B50446002074
:10089000F64908600120F649C1F8B802204602F086
:1008A00023FA0120F149086010BD70B505460C46D9
:1008B0002846FFF7DBFFE0B2FFF7E7FF70BD10B59A
:1008C000EC49087AFFF7D2FF10BD10B504460020AE
:1008D000E64908600120E649C1F8B802201202F09A
:1008E00003FAE0B202F000FA0120E049086010BD0E
:1008F0002DE9F04104460D4616461F46DD49887A2B
:10090000FFF7B4FF2012FFF7C0FFE0B2FFF7BDFF13
:100910003012FFF7BAFFF0B2FFF7B7FFD549087BF7
:10092000FFF7A4FF2812FFF7B0FFE8B2FFF7ADFF13
:100930003812FFF7AAFFF8B2FFF7A7FFFFF7BFFFD4
:10094000BDE8F08170B504460D462B462246294687
:100950002046FFF7CDFF70BD70B504460D46294611
:100960002046FFF7EFFFC4480088FFF7AEFF70BDD9
:1009700070B505460E4631462846FFF7E3FFE0B264
:10098000FFF783FF204670BD70B50646B948408822
:10099000401E83B2B7480088401E82B2002108463C
:1009A000FFF7A6FF0020B14908600120B049C1F857
:1009B000B80200240AE0002503E03046FFF785FF77
:1009C0006D1CAC480088A842F7D8641CA948408830
:1009D000A042F0D80120A549086070BD1CB50121D6
:1009E000022004F027F84FF22800009001208DF833
:1009F000040003208DF8050000208DF8060001207A
:100A00008DF8070069469D4803F076FD10200090A0
:100A100000208DF804006946984803F06DFD1CBD68
:100A200010B5002091490C390860642003F0F6FAF3
:100A300001208F49C1F8B002322003F0EFFA10BD57
:100A400010B504462A208B4948812B2088812C2010
:100A5000088134B1012C0FD0022C18D0032C2CD1DA
:100A600020E0F020834908804FF4A07048800821DE
:100A70003620FFF71AFF21E04FF4A0707D4908806F
:100A8000F020488068213620FFF70FFF16E0F020A5
:100A9000784908804FF4A0704880C8213620FFF7BD
:100AA00004FF0BE04FF4A07072490880F0204880EA
:100AB000A8213620FFF7F9FE00E000BF00BF10BDFF
:100AC00010B5FFF78BFFFFF7ABFFCF20FFF7CEFE90
:100AD0000020FFF7DAFEC920FFF7D7FE3020FFF72E
:100AE000D4FEED20FFF7C2FE6420FFF7CEFE032008
:100AF000FFF7CBFE1220FFF7C8FE8120FFF7C5FEEF
:100B0000E820FFF7B3FE8520FFF7BFFE1020FFF7B8
:100B1000BCFE7A20FFF7B9FECB20FFF7A7FE3920F5
:100B2000FFF7B3FE2C20FFF7B0FE0020FFF7ADFE6D
:100B30003420FFF7AAFE0220FFF7A7FEF720FFF7F9
:100B400095FE2020FFF7A1FEEA20FFF78FFE002090
:100B5000FFF79BFE0020FFF798FEC020FFF786FE00
:100B60001B20FFF792FEC120FFF780FE0020FFF759
:100B70008CFEC520FFF77AFE3020FFF786FE30207E
:100B8000FFF783FEC720FFF771FEB720FFF77DFE5A
:100B90003620FFF76BFE0820FFF777FE3A20FFF7BD
:100BA00065FE5520FFF771FEB120FFF75FFE0020C4
:100BB000FFF76BFE1A20FFF768FEB620FFF756FE20
:100BC0000A20FFF762FEA220FFF75FFEF220FFF788
:100BD0004DFE0020FFF759FE2620FFF747FE0120BB
:100BE000FFF753FEE020FFF741FE0F20FFF74DFE19
:100BF0002A20FFF74AFE2820FFF747FE0820FFF7CC
:100C000044FE0E20FFF741FE0820FFF73EFE542071
:100C1000FFF73BFEA920FFF738FE4320FFF735FE24
:100C20000A20FFF732FE0F20FFF72FFE0020FFF70C
:100C30002CFE0020FFF729FE0020FFF726FE0020F3
:100C4000FFF723FEE120FFF711FE0020FFF71DFE56
:100C50001520FFF71AFE1720FFF717FE0720FFF7F2
:100C600014FE1120FFF711FE062009E0BC8240426D
:100C7000008040427800002016000020000402405E
:100C8000FFF703FE2B20FFF700FE5620FFF7FDFDC8
:100C90003C20FFF7FAFD0520FFF7F7FD1020FFF7D6
:100CA000F4FD0F20FFF7F1FD3F20FFF7EEFD3F20A1
:100CB000FFF7EBFD0F20FFF7E8FD2B20FFF7D6FD38
:100CC0000020FFF7E2FD0020FFF7DFFD0120FFF726
:100CD000DCFD3F20FFF7D9FD2A20FFF7C7FD0020EC
:100CE000FFF7D3FD0020FFF7D0FD0020FFF7CDFD7B
:100CF000EF20FFF7CAFD1120FFF7B8FD782003F0C1
:100D00008DF92920FFF7B2FD0020FFF799FE0120A1
:100D1000FD4908604FF6FF70FFF736FE10BD30B595
:100D2000014601F01F04C1F34513CA0AE50205EBB1
:100D300043151544A8B230BD70B505460E4614469D
:100D400031462846FFF7FEFD2046FFF7BEFD70BD89
:100D50002DE9F05F04460D4616461F46301B401C29
:100D60001FFA80FA781B401C1FFA80FB3B46324674
:100D700029462046FFF7BCFD4FF000080FE04FF07A
:100D8000000906E00A98FFF7A0FD09F101001FFA2B
:100D900080F9D145F6DB08F101001FFA80F8D8454B
:100DA000EDDBDA484088401E83B2D8480088401EF8
:100DB00082B200210846FFF79BFDBDE8F09F2DE9B8
:100DC000FF4F85B081468A46002004900390079823
:100DD000A0EB09050898A0EB0A06CDF80890CDF81D
:100DE00004A0002D01DD012705E00DB9002702E078
:100DF0004FF0FF376D42002E02DD4FF0010806E094
:100E000016B94FF0000802E04FF0FF387642B542C5
:100E100001DD2C4600E034464FF0000B21E0019A42
:100E200091B2029A90B2FFF797FD0498284404907B
:100E30000398304403900498A04205DD0498001BF9
:100E400004900298384402900398A04205DD03986C
:100E5000001B03900198404401900BF101001FFA20
:100E600080FB601C8345DADD09B0BDE8F08F2DE919
:100E7000F04104460D4616461F462B46324629468B
:100E80002046FFF79CFF3B46224629462046FFF7B7
:100E900096FF3B46324639462046FFF790FF3B46D9
:100EA000324629463046FFF78AFFBDE8F081F8B5A3
:100EB00004460D4616461F46954800883B46324676
:100EC000294600902046FFF743FFF8BD2DE9F04189
:100ED00004460D4616461F46DDF81880EA1991B201
:100EE000A21990B24246FFF727FFEA1991B2A21B5E
:100EF00090B24246FFF720FFEA1B91B2A21990B2CE
:100F00004246FFF719FFEA1B91B2A21B90B242467C
:100F1000FFF712FFAA1991B2E21990B24246FFF709
:100F20000BFFAA1991B2E21B90B24246FFF704FFF1
:100F3000AA1B91B2E21990B24246FFF7FDFEAA1B2E
:100F400091B2E21B90B24246FFF7F6FEBDE8F08197
:100F50002DE9FF4F81B0824617469846DDF838B03C
:100F6000002445464FEA4800C0F10306BBF1000FDC
:100F70001FD01BE0A14608E04B4622460097504692
:100F80000299FFF7A3FF09F10109A945F4DD002E3D
:100F900004DA042000FB0460861D06E0601B0421C7
:100FA00001FB006000F10A066D1E641CAC42E1DD2D
:100FB00018E015E02B462246009750460299FFF7AD
:100FC00085FF002E04DA042000FB0460861D06E085
:100FD000601B042101FB006000F10A066D1E641C09
:100FE000AC42E7DD05B0BDE8F08F2DE9F0470446DF
:100FF0000D4616461F46DDE908893B46324629461E
:101000002046FFF7DCFE4B46424639463046FFF7A6
:10101000D6FE2B46224649464046FFF7D0FEBDE8A5
:10102000F08702880B8803800A8070472DE9FF4F04
:1010300085B000260027BDF81800BDF820108842B2
:1010400007DD08A906A8FFF7ECFF07A905A8FFF729
:10105000E8FFBDF82000BDF84C10884207DD08A964
:1010600013A8FFF7DEFF07A912A8FFF7DAFFBDF804
:101070001800BDF82010884207DD08A906A8FFF770
:10108000D0FF07A905A8FFF7CCFFBDF81800BDF8F1
:101090004C1088423ED1BDF8140003900490BDF876
:1010A0001C00BDF81010884203DABDF81C00049043
:1010B00008E0BDF81C00BDF80C10884202DDBDF848
:1010C0001C000390BDF84800BDF81010884203DAF8
:1010D000BDF84800049008E0BDF84800BDF80C10C9
:1010E000884202DDBDF8480003900948008800905E
:1010F000BDF81830BDF80C201946BDF81000FFF7F8
:1011000027FE09B0BDE8F08FB4824042780000208D
:1011100016000020BDF81C00BDF81410A0EB010B58
:10112000BDF82000BDF81810401A0290BDF8480024
:10113000BDF81410451ABDF84C00BDF81810A0EB0E
:101140000109BDF84800BDF81C10A0EB010ABDF86C
:101150004C00BDF82010401A0190BDF82000BDF8E9
:101160004C10884202D1BDF8208004E0BDF8200078
:10117000401E1FFA80F8BDF8184027E0029896FB41
:10118000F0F0BDF81410084480B2049097FBF9F019
:10119000BDF81410084480B203905E442F44BDF89B
:1011A0001000BDF80C10884203DD03A904A8FFF766
:1011B00038FFFE48008823460090BDF80C202146E9
:1011C000BDF81000FFF7C4FD601C84B24445D5DDB6
:1011D000BDF82000201A00FB0AF6BDF81800201AFE
:1011E00000FB05F727E0019896FBF0F0BDF81C1016
:1011F000084480B2049097FBF9F0BDF8141008443D
:1012000080B2039056442F44BDF81000BDF80C1076
:10121000884203DD03A904A8FFF703FFE348008821
:1012200023460090BDF80C202146BDF81000FFF7C2
:101230008FFD601C84B2BDF84C008442D3DD00BF3A
:101240005FE72DE9FF4F83B081468A469346DDE98B
:101250001064D64800880290A6F12000C6B204EBC4
:10126000D47009EB6000401E82B20AEB0400401EFD
:1012700083B2514648460194FFF73AFB129850BB9F
:10128000002525E00C2C07D106EB4600C84901EBF0
:10129000800010F8058004E0C64800EB061010F846
:1012A000058000270DE008F0010018B15846FFF74F
:1012B0000CFB02E00698FFF708FB4FEA6808781C71
:1012C000C7B204EBD471B7EB610FECDB681CC5B29D
:1012D000A542D7DB2DE0002529E00C2C07D106EB39
:1012E0004600B34901EB800010F8058004E0B148E6
:1012F00000EB061010F80580002711E0AB48A0F8BD
:1013000000B008F0010038B10AEB050291B209EB18
:10131000070290B2FFF720FB4FEA6808781CC7B2BB
:1013200004EBD471B7EB610FE8DB681CC5B2A542D2
:10133000D3DB9E49029808809F484088401E83B2B4
:101340009D480088401E82B200210846FFF7D0FA6F
:1013500007B0BDE8F08F2DE9FE4306460F4615465F
:101360001C46DDF828801DE093480088401EB042EE
:1013700004DB91484088401EB84201DABDE8FE8394
:1013800020788DE821018D480388884802883946F5
:101390003046FFF756FF284605EBD07106EB61019A
:1013A0008EB2641C20787E2802DC20782028DBDACC
:1013B00000BFE3E710B50246012000E050430B1EDA
:1013C000A1F10104E1B2F9D110BD2DE9FF4F83B0C5
:1013D000074691461E46109C4FF0000A002543E048
:1013E000701B401EC1B20A20FFF7E4FFB9FBF0F00A
:1013F0000A21B0FBF1F201FB1208BAF1000F1BD178
:10140000701EA84218DDB8F1000F13D10020202172
:10141000A346CDE90014029004EBDB71491001FBF7
:10142000057188B265490B8860490A880499FFF7FD
:1014300008FF17E04FF0010A002108F13000C0B2A8
:10144000A346CDE90141009004EBDB71491001FB9B
:10145000057188B259490B8854490A880499FFF7E5
:10146000F0FE00BF681CC5B2B542B9DB07B0BDE8ED
:10147000F08F2DE9FC5F0546884691469A46DDF8D7
:1014800030B000953E20019000245FE004EB041092
:101490004B4911F810009BF80010884253D104EB1F
:1014A0000410474901EB400040789BF80110884246
:1014B00049D108F10F0083B205F10F0082B2414615
:1014C0002846FFF715FA00263BE0002734E00D9888
:1014D00090B904EB04103A4901EB4000801C805D98
:1014E00080213941084018B14846FFF7EEF921E064
:1014F0005046FFF7EAF91DE02C48A0F8009004EBF5
:1015000004102F4901EB4000801C805D802139418F
:10151000084018B141462846FFF71EFA681C85B2FC
:101520000098281A102805D1009D08F101001FFA23
:1015300080F803E0781CC7B2082FC8DB00BF701C1E
:10154000C6B2202EC1DB00BF601C84B20198844269
:101550009CDB19484088401E83B217480088401E13
:1015600082B200210846FFF7C3F9BDE8FC9F2DE9D0
:10157000FC5F0546884691469A46DDF830B00095F6
:1015800007200190002477E004EB840000EB441076
:101590000C4911F810009BF80010884269D104EB47
:1015A000840000EB441007490EE000001600002004
:1015B000FB6A00086F6F0008780000201800002008
:1015C0004D770008897F000801EB400040789BF8C8
:1015D000011088424DD108F1170083B205F11700C0
:1015E00082B241462846FFF783F900263FE00027F4
:1015F00038E00D98A0B904EB840000EB4410FE49DC
:1016000001EB4000801C805D80213941084018B109
:101610004846FFF75AF923E05046FFF756F91FE016
:10162000F648A0F8009004EB840000EB4410F24967
:1016300001EB4000801C805D80213941084018B1D9
:1016400041462846FFF788F9681C85B20098281A99
:10165000182805D1009D08F101001FFA80F803E069
:10166000781CC7B2082FC4DB00BF701CC6B2482E5E
:10167000BDDB00BF601C84B20198844284DBE0487B
:101680004088401E83B2DE480088401E82B200219E
:101690000846FFF72DF9BDE8FC9F2DE9FC5F0546E4
:1016A000884691469A46DDF830B0009504200190B6
:1016B00000245FE004EB8410D24911F810009BF87D
:1016C0000010884253D104EB8410CE4901EB400056
:1016D00040789BF80110884249D108F11F0083B27D
:1016E00005F11F0082B241462846FFF701F90026A6
:1016F0003BE0002734E00D9890B904EB8410C14919
:1017000001EB4000801C805D80213941084018B108
:101710004846FFF7DAF821E05046FFF7D6F81DE01B
:10172000B648A0F8009004EB8410B64901EB4000E5
:10173000801C805D80213941084018B1414628460F
:10174000FFF70AF9681C85B20098281A202805D1ED
:10175000009D08F101001FFA80F803E0781CC7B271
:10176000082FC8DB00BF701CC6B2802EC1DB00BFD3
:10177000601C84B2019884429CDBA1484088401ED2
:1017800083B29F480088401E82B200210846FFF7BE
:10179000AFF8BDE8FC9F2DE9FF4F83B006468846B1
:1017A0009146DDE91147109DB2464FF0000B71E004
:1017B000BBF1000F40D104EBD471914A1288A2EB27
:1017C0006101B14204DB8E494988091B414502DAB7
:1017D00007B0BDE8F08F2878802802DD4FF0010BBC
:1017E00058E028780D2806D108EB04001FFA80F88D
:1017F00056466D1C1EE0102C0DDD102128788DE85A
:1018000083004A4641463046069BFFF71AFD06F123
:10181000080086B20EE028788DE891004A464146DD
:101820003046069BFFF70DFD204604EBD07106EB1A
:1018300061018EB26D1C2DE071480088001BB04222
:1018400004DB6F484088001B404500DAC0E74FF0DA
:10185000000B202C08D1CDE900574A4641463046BE
:10186000069BFFF71AFF12E0182C08D1CDE90057AC
:101870004A4641463046069BFFF779FE07E0CDE930
:1018800000574A4641463046069BFFF7F2FDAD1C25
:10189000301986B2287800288AD100BF98E72DE950
:1018A000FE4F0E4617469846DDE90D9A0C9C2046E1
:1018B00004F090FA85B252490988A1EBC50000EB0B
:1018C000D071C1F34F0B43463A46314658468DE836
:1018D0001006FFF760FFBDE8FE8F2DE9F0470646D2
:1018E0000F46154607F1270083B206F1270082B2A2
:1018F00039463046FEF7FCFF00240AE015F8149044
:1019000005EB440090F8018049EA0820FEF7DDFF6E
:10191000641CB4F5C86FF1DB39484088401E83B2BF
:1019200037480088401E82B200210846FEF7E0FFDB
:10193000BDE8F0872DE9F84F06460F4690469946D8
:101940005F200090002437E004EB04102E49085C6F
:1019500040452FD107F10F0083B2F01D82B2394606
:101960003046FEF7C5FF002521E004EB04102649B0
:101970000844401C10F805B04FF0000A12E00BF0CC
:101980008000802803D14846FEF79FFF02E00A98B6
:10199000FEF79BFF4FEA4B604FEA106B0AF1010024
:1019A00000F0FF0ABAF1080FE9DB681CC5B2102D80
:1019B000DBDB04E0601CC4B200988442C4DB00BFDF
:1019C000BDE8F88F2DE9F84F074688461646994638
:1019D00007200090002450E0307804EB04110B4AFB
:1019E00012F81110884246D1707804EB041102EB12
:1019F0004101497888420BE0897F000816000020E9
:101A0000780000208F810008AC6400085F75000832
:101A100031D108F10F0083B207F10F0082B24146C5
:101A20003846FEF765FF002522E004EB0410FE496E
:101A300001EB4000801C10F805B04FF0000A12E0E6
:101A40000BF08000802803D14846FEF73EFF02E0FD
:101A50000A98FEF73AFF4FEA4B604FEA106B0AF123
:101A6000010000F0FF0ABAF1080FE9DB681CC5B2FB
:101A7000202DDADB04E0601CC4B200988442ABDBAA
:101A800000BFBDE8F88F2DE9F843064688461446A6
:101A90009946089F00251BE0207880280CDA0097E3
:101AA000227806EBC50188B24B464146FFF742FF5C
:101AB000641C681CC5B20BE006EBC50188B24B463E
:101AC000224641460097FFF77DFFA41CA81CC5B223
:101AD00020780028E0D1BDE8F8832DE9F84F814651
:101AE0008A4616469B4601200090002445E0307847
:101AF00004EB840101EB4411CC4A12F81110884226
:101B000039D1707804EB840101EB441102EB4101FF
:101B1000497888422FD10AF1170083B209F11700E2
:101B200082B251464846FEF7E3FE002520E004EB72
:101B3000840000EB4410BD4901EB4000801C10F80C
:101B40000580002710E008F08000802803D1584667
:101B5000FEF7BBFE02E00A98FEF7B7FE4FEA4860C8
:101B60004FEA1068781CC7B2082FECDB681CC5B2BE
:101B7000482DDCDB04E0601CC4B200988442B6DB74
:101B800000BFBDE8F88F2DE9F843064688461446A5
:101B90009946089F00251BE0207880280CDA0097E2
:101BA000227806EBC50188B24B464146FFF7C2FEDC
:101BB000641C681CC5B20BE006EBC50188B24B463D
:101BC000224641460097FFF788FFA41CE81CC5B2D7
:101BD00020780028E0D1BDE8F8832DE9FE430746D0
:101BE000884614461D46DDE90A96002001900290C1
:101BF000002C09DA604204B24B462D224146384699
:101C00000096FFF797FE06E04B462B2241463846EA
:101C10000096FFF78FFE052D00DD052542F21070BE
:101C200094FBF0F00A2190FBF1F201FB120030303E
:101C3000C0B28DF804004FF47A7094FBF0F090FB82
:101C4000F1F201FB12003030C0B28DF805006420C3
:101C500094FBF0F090FBF1F201FB12003030C0B2C7
:101C60008DF806000A2094FBF0F090FBF1F201FBE6
:101C700012003030C0B28DF807000A2094FBF0F15A
:101C800000FB11403030C0B28DF8080000208DF804
:101C90000900C5F1050101ABCA1807F1080188B2B6
:101CA0004B4641460096FFF7EEFEBDE8FE832DE968
:101CB000FE4306460F4614461D46DDE90A8900200C
:101CC00001900290052D00DD052542F2107094FB75
:101CD000F0F00A2190FBF1F201FB12003030C0B2AB
:101CE0008DF804004FF47A7094FBF0F090FBF1F261
:101CF00001FB12003030C0B28DF80500642094FB67
:101D0000F0F090FBF1F201FB12003030C0B28DF820
:101D100006000A2094FBF0F090FBF1F201FB1200A8
:101D20003030C0B28DF807000A2094FBF0F100FBC0
:101D300011403030C0B28DF8080000208DF8090045
:101D4000C5F1050001A94218434639463046CDF891
:101D50000090FFF798FEBDE8FE832DE9F04F2DEDD2
:101D6000068B85B080468A46B0EE408A1446994676
:101D7000DDE914B600250027B5EEC08AF1EE10FAB1
:101D80000DD29FED2B0A30EE480AB0EE408A5B463A
:101D90002D22514640460096FFF7CCFD06E05B46FB
:101DA0002B22514640460096FFF7C4FD09E0052C62
:101DB00003DD14B1601EC4B203E0A9F1010000F01C
:101DC000FF0904EB09000728F1DCBCEEC80A10EE9D
:101DD000105A00EE105AB8EE400A38EE400ADFED15
:101DE000150A30EE200A10EE101A084604F091F899
:101DF00041EC1A0B9FED100B53EC102B03F0F1FF8D
:101E000041EC190B04F06CF8074642F21070B5FB78
:101E1000F0F00A21B0FBF1F201FB120030308DF836
:101E20000C004FF47A700BE05F7500084D760008E7
:101E300000000000ACC5A73600000000006AF840B2
:101E4000B5FBF0F0B0FBF1F201FB120030308DF881
:101E50000D006420B5FBF0F0B0FBF1F201FB1200C5
:101E600030308DF80E000A20B5FBF0F0B0FBF1F237
:101E700001FB120030308DF80F000A20B5FBF0F1A5
:101E800000FB115030308DF8100000208DF811004B
:101E900042F21070B7FBF0F00A21B0FBF1F201FB47
:101EA000120030308DF804004FF47A70B7FBF0F078
:101EB000B0FBF1F201FB120030308DF80500642018
:101EC000B7FBF0F0B0FBF1F201FB120030308DF8FF
:101ED00006000A20B7FBF0F0B0FBF1F201FB1200A4
:101EE00030308DF807000A20B7FBF0F100FB1170CD
:101EF00030308DF80800002001A901F80900C4F174
:101F0000050103ABCA1808F1080188B25B465146C7
:101F10000096FFF7B8FD611C08EBC10188B25B4673
:101F20002E2251460096FFF705FDA11C08EBC101CA
:101F300088B25B4601AA51460096FFF7A4FD05B0A2
:101F4000BDEC068BBDE8F08F2DE9F84F06468946BB
:101F500014461D46DDE90AA7A8461EE0681E0121B9
:101F600001FA00F0204038B153463122494630464C
:101F70000097FFF7DFFC06E0534630224946304623
:101F80000097FFF7D7FC4FF6FF7000EA4404B01D3E
:101F900086B2A8F1010000F0FF08B8F1000FDDDC07
:101FA000BDE8F88F2DE9F05F0746884615461E46C6
:101FB000DDF82890002408EB0600401E83B2781953
:101FC000401E82B241463846FEF792FCA24618E017
:101FD0004FF0000B0FE019F81400FEF756FC01213A
:101FE00001EB440119F80100FEF74FFC641C0BF1F2
:101FF00001001FFA80FBB345EDDB0AF101001FFA77
:1020000080FAAA45E4DBBDE8F09F00003EB5044637
:102010004FF6FF70FEF7B8FC1F200090FE480288C4
:10202000142300210846FEF793FE1F200090FA4873
:10203000438802884088143881B20020FEF788FE69
:102040004FF6FF70F5490880012010211F234FF63D
:10205000FF72CDE90041029002210020FFF71FFC32
:1020600001201021EEA2CDE900210290EA4840882B
:10207000123881B21F234FF6FF720020FFF70FFCCA
:102080003EBD0EB5ECA0FFF7C1FF01201021F0A26C
:102090001F23CDE900210290DA021E210020FFF764
:1020A000FEFB01201021E6A21F23CDE900210290B2
:1020B000DA023C210020FFF7F2FB01201021E7A209
:1020C0001F23CDE9002102904FF4FC625A21002029
:1020D000FFF7E5FB01201021E6A21F23CDE9002137
:1020E00002901A4678210020FFF7D9FB40F2DC501D
:1020F00001F094FF40F2DC5001F090FF0EBD0EB5F0
:102100004FF6FF700090C4484388028800210846BB
:10211000FEF71EFE01201021DCA24FF6E073CDE990
:10212000002102901F221E211420FFF734FB4FF4E0
:10213000487001F073FF4FF478400090B648438830
:10214000028800210846FEF703FE01201021D1A2DB
:102150004FF6E073CDE9002102901F221E211420CA
:10216000FFF719FB4FF4487001F058FF4FF4FC6083
:102170000090A9484388028800210846FEF7E8FD40
:1021800001201021C5A24FF6E073CDE90021029095
:102190001F221E211420FFF7FEFA4FF4487001F0B1
:1021A0003DFF1F2000909C4843880288002108467C
:1021B000FEF7CEFD01201021BAA24FF6E073CDE963
:1021C000002102904FF478421E211420FFF7E3FA19
:1021D0004FF4487001F022FF0EBD2DE9F8430024B2
:1021E000B2A0FFF713FF4FF6FF7000908A484088B7
:1021F000143883B28848028814210020FEF7A8FD15
:1022000000BF48E0AF4830F8140084490880DFF888
:1022100008C2BCF8025005EBD57C4FEA6C0CACF15F
:10222000500CC4EB0419CC440CF13C0C1FFA8CF399
:10223000DFF8E4C1BCF8006006EBD67C4FEA6C0C1A
:10224000ACF1500CC4EB0419CC440CF13C0C1FFA5B
:102250008CF2DFF8C4C1BCF8027007EBD77C4FEA00
:102260006C0CACF1500CC4EB0419CC441FFA8CF18B
:10227000DFF8A4C1BCF8008008EBD87C4FEA6C0CF6
:10228000ACF1500CC4EB0419CC441FFA8CF0FEF7EF
:10229000EEFD601CC4B2052CB4DB40F2DC5001F052
:1022A000BDFE4FF6FF7000905B484088143883B243
:1022B0005948028814210020FEF74AFD002448E016
:1022C000804830F8140055490880DFF84CC1BCF84C
:1022D000026006EBD67C4FEA6C0CACF1500CC4EB00
:1022E0000419CC440CF13C0C1FFA8CF3DFF828C124
:1022F000BCF8007007EBD77C4FEA6C0CACF1500CCB
:10230000C4EB0419CC440CF13C0C1FFA8CF2DFF83E
:1023100008C1BCF8028008EBD87C4FEA6C0CACF129
:10232000500CC4EB0419CC441FFA8CF1DFF8E8C060
:10233000BCF8005005EBD57C4FEA6C0CACF1500CAE
:10234000C4EB0419CC441FFA8CF0FEF7B0FD601CFE
:10235000C4B2052CB4DB40F2DC5001F05FFEBDE8F6
:10236000F883F8B5002458A0FFF750FE4FF6FF7031
:10237000009029484088143883B2274802881421E5
:102380000020FEF7E5FC00BF1FE00020224B00907C
:102390005D8805EBD5735B10323B04EBC40707EB9C
:1023A0000417D9191C4B1E8806EBD6735B10503BE3
:1023B00004EBC40707EB0417D819424B33F8142079
:1023C0001E23FEF7C5FD601CC4B2052CDDDB40F208
:1023D000DC5001F023FE4FF6FF7000900E4840885D
:1023E000143883B20C48028814210020FEF7B0FC98
:1023F000002484E00120084B00905D8805EBD57334
:102400005B10323B04EBC40707EB0417D919024BEE
:102410001E8806EBD67363E07800002016000020CB
:10242000687474703A2F2F7777772E64656C6568BF
:1024300075622E636F6D0000C8ABB6AFB5E7D7D33A
:10244000D7DBBACFB2E2CAD4B3CCD0F200000000DE
:10245000C8ABB6AFB5E7D7D300000000322E3822A4
:1024600020494C49393334312032343058333230FA
:102470000000000042792077616E677A69787561A3
:102480006E2032303232303132310000424C205432
:1024900065737400524544200000000047524545D2
:1024A0004E200000424C554520000000B2E2CAD444
:1024B000323A475549BED8D0CECCEEB3E4B2E2CAE8
:1024C000D40000001C000020B2E2CAD4333A4755C1
:1024D00049BBADD4B2CCEEB3E4B2E2CAD400000042
:1024E0005B10503B04EBC40707EB0417D819E84B0B
:1024F00033F814201E23FEF72BFD601CC4B2052CFC
:10250000FFF678AF40F2DC5001F088FDF8BD0EB563
:10251000E0A0FFF77BFD00200C21E3A24FF6E07363
:10252000CDE9002102901F221E210A20FFF733F976
:1025300001200C21E7A24FF6E073CDE900210290C3
:102540001F222D210A20FFF726F900200C21ECA2E2
:102550004FF6E073CDE9002102901F223C210A20B2
:10256000FFF719F900201021EDA24FF6E073CDE935
:10257000002102901F2250210A20FFF70CF90120B0
:102580001021F2A24FF6E073CDE9002102901F2244
:1025900064210A20FFF7FFF800201021F6A24FF671
:1025A000E073CDE9002102901F2278210A20FFF775
:1025B000F2F84FF4966001F031FD0EBD2DE9FC5F9D
:1025C0000024F5A0FFF722FD4FF6FF700090F948B8
:1025D0004088143883B2F748028814210020FEF79F
:1025E000B7FB00BF5DE0AA4830F81400F24908804C
:1025F000F048458805EBD57040101438C4EB041141
:10260000084481B2EB48068806EBD67040101538B6
:1026100004EB840200EB820080B2DFF898C3CDE9BE
:102620000001BCF8027007EBD77C4FEA6C0CACF1F0
:10263000490CC4EB041BDC441FFA8CF3DFF874C3B1
:10264000BCF8008008EBD87C4FEA6C0CACF1330C82
:1026500004EB840B0CEB8B0C1FFA8CF2DFF854C3E9
:10266000BCF8029009EBD97C4FEA6C0CACF1140C6D
:10267000C4EB041BDC441FFA8CF1DFF838C3BCF850
:1026800000A00AEBDA7C4FEA6C0CACF1500C04EBC6
:10269000840B0CEB8B0C1FFA8CF0FEF7A6FC601C75
:1026A000C4B2052C9FDB40F2DC5001F0B7FC4FF6C2
:1026B000FF700090BF484088143883B2BD4802883C
:1026C00014210020FEF744FB00245DE0704830F840
:1026D0001400B9490880B748458805EBD57040100B
:1026E0001438C4EB0411084481B2B248068806EBE2
:1026F000D6704010153804EB840200EB820080B2E3
:10270000DFF8B0C2CDE90001BCF8027007EBD77C5E
:102710004FEA6C0CACF1490CC4EB041BDC441FFA0F
:102720008CF3DFF890C2BCF8008008EBD87C4FEA4D
:102730006C0CACF1330C04EB840B0CEB8B0C1FFA20
:102740008CF2DFF870C2BCF8029009EBD97C4FEA3A
:102750006C0CACF1140CC4EB041BDC441FFA8CF1C0
:10276000DFF850C2BCF800A00AEBDA7C4FEA6C0C30
:10277000ACF1500C04EB840B0CEB8B0C1FFA8CF0BF
:10278000FEF754FC601CC4B2052C9FDB40F2DC5009
:1027900001F044FCBDE8FC9F0EB588A0FFF736FCB5
:1027A000002010218AA24FF6E073CDE900210290AB
:1027B0001F221E210A20FEF7EEFF002010218DA20D
:1027C0004FF6E073CDE9002102901F2232210A204A
:1027D000FEF7E1FF012018218CA24FF6E073CDE94E
:1027E000002102901F2246210A20FEF7D4FF01207B
:1027F00020218CA24FF6E073CDE9002102901F2228
:1028000064210A20FEF7C7FF4FF4966001F006FC32
:102810000EBD0EB587A0FFF7F9FB8B4A1E210846B7
:10282000FFF75BF80120102188A24FF6E073CDE995
:10283000002102901F224B212A20FEF7ACFF824A82
:102840001E215A20FFF749F8012010217FA24FF6E0
:10285000E073CDE9002102901F224B216620FEF794
:102860009AFF794A1E219620FFF737F801201021A0
:1028700076A24FF6E073CDE9002102901F224B2192
:10288000A220FEF788FF4FF4966001F0C7FB0EBD53
:102890001C000020B2E2CAD4353AD3A2CEC4CFD4B1
:1028A000CABEB2E2CAD40000365831323A6162631D
:1028B0006465666768696A6B6C6D6E6F7071727360
:1028C0007475767778797A303132333435363738F3
:1028D00039000000365831323A41424344454647B8
:1028E00048494A4B4C4D4E4F5051525354555657F0
:1028F00058595A30313233343536373839000000C0
:10290000365831323A7E21402324255E262A282952
:102910005F2B7B7D3A3C3E3F2F7C2D2B2E00000011
:10292000385831363A6162636465666768696A6B14
:102930006C6D6E6F707172737475767778797A30AA
:1029400031323334353637383900000038583136B3
:102950003A4142434445464748494A4B4C4D4E4F05
:10296000505152535455565758595A3031323334C6
:102970003536373839000000385831363A7E214034
:102980002324255E262A28295F2B7B7D3A3C3E3F67
:102990002F7C2D2B2E000000B2E2CAD4343A4755CA
:1029A0004920547269616E676C65CCEEB3E4B2E2A3
:1029B000CAD400007800002016000020B2E2CAD479
:1029C000363AD6D0CEC4CFD4CABEB2E2CAD4000002
:1029D00031365831363AC8ABB6AFB5E7D7D3BCBC01
:1029E000CAF5D3D0CFDEB9ABCBBEBBB6D3ADC4FA3C
:1029F0000000000031365831363A57656C636F6D10
:102A000065C8ABB6AFB5E7D7D30000003234583253
:102A1000343AC9EEDBDACAD0D6D0CEC4B2E2CAD4D8
:102A20000000000033325833323AD7D6CCE5B2E258
:102A3000CAD40000B2E2CAD4373ACDBCC6ACCFD4B7
:102A4000CABEB2E2CAD40000988300085151000007
:102A500010B588B000248F4B0FCBCDE90623CDE90C
:102A6000040100BF23E02046FDF7EAFF8AA0FFF73C
:102A7000CDFA0121102204A850F824004FF6E0738B
:102A8000CDE9012100901F221E211420FEF783FEB4
:102A9000864A32211E20FEF720FF4FF47A7001F0A3
:102AA000BDFA4FF47A7001F0B9FA601CC4B2042C7C
:102AB000D9DB0020FDF7C4FF08B010BD08B5002524
:102AC0000026002701F0ABF8FDF74EFE00F02CF9D0
:102AD00077A0FFF79BFA01207D49009009881839FB
:102AE00088B27CA310220021FEF735FC4FF4784019
:102AF000794908807649009009881E398AB274495C
:102B00000988343988B212230221FEF721F9BFE087
:102B10000120FDF747FE04467048416800208847C1
:102B20006E48007D00F08000002879D06B48008A54
:102B300067490988884276DA6848408A6449498842
:102B4000884270DA6548018A6148008818388142F5
:102B500022DD6248408A10281EDA55A0FFF756FA97
:102B600001205B4900900988183988B259A31022C6
:102B70000021FEF7F0FB5848078000885449009078
:102B800009881E398AB252490988343988B2122319
:102B90000221FEF7DDF846E05048018A4C480088E3
:102BA0003C38814234DD4D48018A494800881E384E
:102BB00081422DDA4948408A142829DA052096FBFB
:102BC000F0F100FB1160464931F810804049CDF822
:102BD000008009881E398AB23D490988343988B293
:102BE00012230221FEF7B4F83046711C8EB2052183
:102BF00090FBF1F201FB1200394931F8100036491F
:102C00000880084607880A2001F008FA0BE007E070
:102C1000324A518A108A304A128800F0F0F902E0F4
:102C20000A2001F0FBF9012C25D14FF6FF70FDF7CA
:102C3000ABFE00F0B5FB00F06EFA1DA0FFF7E6F961
:102C40000120234900900988183988B221A3102255
:102C50000021FEF780FB2048078000881C49009077
:102C600009881E398AB21A490988343988B2122370
:102C70000221FEF76DF8681C85B21E2D08D10025D3
:102C80001848006808B9012000E0002015490860D4
:102C90003EE7000018980008B2E2CAD4383AC6C12C
:102CA000C4BBD0FDD7AAB2E2CAD400009883000802
:102CB00074657374393A546F75636828B0B44B45C2
:102CC0005930D0A3D7BC292020202020200000008C
:102CD00078000020525354001600002028000020E5
:102CE0001C000020A48242420021082115E000F0CF
:102CF00080021AB101220A4B1A6002E00022084B3E
:102D00001A600022064B083B1A600122054BC3F8EB
:102D10008C224206100E4A1ED1B20029E7DC704711
:102D200094824042008040421CB50121202001F0E5
:102D300081FE4FF4C060009001208DF80400002057
:102D40008DF8060003208DF8050001208DF807009E
:102D50006946044801F0D0FB4FF4C061014801F01E
:102D600047FC1CBD0014024070B50446002500BF9E
:102D700017E004F0800018B10120FE49086002E06D
:102D80000020FC4908606006040E0020FA49086033
:102D9000012001F0FBF80120F849C1F88002681C0D
:102DA000C5B2082DE5DB70BD70B5064600250024D0
:102DB0000020F1490860F249C1F8AC02F14908600D
:102DC0003046FFF7D1FF062001F0E0F80020EB4984
:102DD000C1F88002012001F0D9F80120E64908601D
:102DE00001F0D4F80020E549C1F8800200BF15E0E9
:102DF0004FF6FF7000EA44040020DF49086001201C
:102E000001F0C4F80120DD49C1F88002DA487838C1
:102E1000006808B1601C84B2681CC5B2102DE7DBE5
:102E200024110120D7490860204670BD2DE9FE43DA
:102E300080460027002406E04046FFF7B5FF2DF846
:102E40001400601C84B2052CF6DB002416E0601C24
:102E500085B20FE03DF814003DF81510884207DDFB
:102E60003DF814603DF815002DF814002DF815609C
:102E7000681C85B2052DEDDB601C84B2042CE6DBFA
:102E80000027012405E03DF81400384487B2601C97
:102E900084B2042CF7DB032097FBF0F086B23046B7
:102EA000BDE8FE832DE9F04104460D46B6480078A2
:102EB000FFF7BCFF0646B5480078FFF7B7FF0746A7
:102EC00026802F800120BDE8F0817FB504460D46A5
:102ED00002A903A8FFF7E6FF064616B9002004B0D2
:102EE00070BD694601A8FFF7DDFF06460EB9002058
:102EF000F5E7BDF80400BDF80C10884206DCBDF80B
:102F00000C10BDF80400323081420CDBBDF80C001F
:102F1000BDF80410884236DCBDF80410BDF80C0082
:102F2000323081422FDABDF80000BDF80810884227
:102F300006DCBDF80810BDF80000323081420CDB21
:102F4000BDF80800BDF8001088421CDCBDF8001078
:102F5000BDF808003230814215DABDF80C10BDF81A
:102F60000420881800EBD071C1F34F012180BDF817
:102F70000810BDF80020881800EBD071C1F34F0194
:102F800029800120ABE70020A9E7F8B504460D46EB
:102F900016467F48068004F10D018AB2193988B2BD
:102FA0002B462946FDF70BFF05F10D0083B21938BA
:102FB00081B222462046FDF702FF6A1C91B2621CD4
:102FC00090B2FDF7C9FC6A1C91B2621E90B2FDF787
:102FD000C3FC6A1E91B2621C90B2FDF7BDFC6A1E72
:102FE00091B2621E90B2FDF7B7FC0020062300905C
:102FF0006748028829462046FDF7AAFFF8BD70B54C
:1030000004460D4616466248068029462046FDF7CE
:10301000A3FC611C88B22946FDF79EFC681C81B2A6
:103020002046FDF799FC6A1C91B2621C90B2FDF734
:1030300093FC70BD10B504464F487C3800680028EA
:103040004BD124B15349881EFFF73FFF34E051496B
:10305000881EFFF73AFF78B34E481238B0F92000C7
:1030600000EE100AB8EEC00A4A48123890ED061A6F
:10307000008A00EE900AF8EE600A01EE200ABCEE2B
:10308000C00A10EE100A4349123908820846B0F906
:10309000220000EE100AB8EEC00A084690ED071AAA
:1030A000408A00EE900AF8EE600A01EE200ABCEEBB
:1030B000C00A10EE100A488236481238007D00F02F
:1030C000800010BBC0203349123908750846008AB9
:1030D00088810846408AC88117E02E481238007D52
:1030E00000F0800040B12B481238007D20F08000B5
:1030F00028491239087508E00020264912398881CC
:10310000C8814FF6FF700882488222481238007D3D
:1031100000F0800010BD10B51E48123890ED060A70
:10312000DFED1D0A20EE200ABDEEC00A10EE104AA7
:10313000042221462820FDF7B1FA1648123890EDF6
:10314000070ADFED150A20EE200ABDEEC00A10EED8
:10315000104A042221462C20FDF7A0FA0D4812380F
:10316000B0F9201002223020FDF798FA09481238F1
:1031700014E00000AC824242808240420080404223
:103180000080424294024142500000205100002041
:10319000160000203A00002020BCBE4CB0F92210DE
:1031A00002223220FDF77AFAFB4890F824103420EE
:1031B000FDF74CFA0A2421463520FDF747FA10BDE9
:1031C00010B53520FDF716FA04460A2C46D1042125
:1031D0002820FDF778FA044600EE104AB8EEC00A3F
:1031E0005FED130A80EE201AEB4880ED061A0421E9
:1031F0002C20FDF768FA044600EE104AB8EEC00A2B
:103200005FED1B0A80EE201AE34880ED071A0221C9
:103210003020FDF758FA00B2DF490884022132203D
:10322000FDF751FA00B2DC4948843420FDF7E2F999
:10323000D94981F82400084690F8240030B1902044
:10324000D6490870D020D649087005E0D020D3496F
:1032500008709020D2490870012010BD0020FCE7C2
:103260002DE9F84F04460D4617461E46DDE90CAB26
:10327000DDE90A894FF47840CA4908800120CAA3D1
:1032800010228C2100902820FEF765F80120C7A3AA
:1032900010228C2100907820FEF75DF80120C4A355
:1032A0001022A02100902820FEF755F80120C1A38C
:1032B0001022A02100907820FEF74DF80120BEA337
:1032C0001022B42100902820FEF745F80120BBA36E
:1032D0001022B42100907820FEF73DF80120B8A319
:1032E0001022C82100902820FEF735F80120B5A350
:1032F0001022C82100907820FEF72DF80120B2A3FB
:103300001022DC2100902820FEF725F8102004234D
:1033100022468C2100904020FEF757F8102004230D
:103320002A468C2100909020FEF74FF810200423AD
:103330003A46A02100904020FEF747F810200423D1
:103340003246A02100909020FEF73FF81020042381
:103350004246B42100904020FEF737F810200423A5
:103360004A46B42100909020FEF72FF81020042345
:103370005246C82100904020FEF727F81020042371
:103380005A46C82100909020FEF71FF81020032312
:103390000090DC2160200E9AFEF717F8BDE8F88F48
:1033A0002DE9F0472DED068B8AB04FF00008C1469D
:1033B00000BF1F207B4908804FF6FF7084490880BA
:1033C000FDF7E2FA4FF47840764908804FF6FF7037
:1033D000FDF7DAFA00207349088001207DA310224E
:1033E000282100900A20FDF7B6FF012080A31022BB
:1033F000382100900A20FDF7AEFF012083A31022A0
:10340000482100900A20FDF7A6FF012086A3102284
:10341000582100900A20FDF79EFF012089A3102269
:10342000682100900A20FDF796FF4FF4784214219E
:103430000846FFF7AAFD0020574908759FED850A49
:10344000084680ED060AE6E35348416801208847B4
:103450005148007D00F0C00040286FD14FF00009B6
:103460004D48007D20F040004B4908750846008A11
:1034700006A921F828004848408A01EB88014880C5
:1034800008F1010000F0FF08B8F1010F09D0B8F110
:10349000020F16D0B8F1030F26D0B8F1040F0FD1E8
:1034A00038E04FF6FF7214210846FFF76EFD6A49B7
:1034B0000988143988B24FF478421421FFF765FD6A
:1034C0009AE365490988143988B24FF6FF721421CE
:1034D000FFF75BFD60484088143881B24FF47842B2
:1034E0001420FFF752FD87E35B484088143881B20F
:1034F0004FF6FF721420FFF748FD574A5288143ADE
:1035000091B2554A1288143A90B24FF47842FFF7BC
:103510003CFD71E3BDF81810BDF81C20881A002886
:1035200001DB014600E041420C46BDF81A20BDF81F
:103530001E10501A002802DB014601E05DE3414203
:103540000D4664436D43601902F0BDFC41EC1A0B5B
:10355000B0EE4A0AF0EE6A0A02F006FEB0EE409AB9
:10356000F0EE609A51EC190B02F0BAFC86B2BDF88D
:103570002010BDF82420881A002801DB014600E055
:1035800041420C46BDF82220BDF82610501A0028F2
:1035900064DB014663E061E0280000205000002069
:1035A000510000201600002078313A0079313A00AD
:1035B00078323A0079323A0078333A0079333A0077
:1035C00078343A0079343A006661632069733A00CE
:1035D00018000020506C6561736520757365207458
:1035E0006865207374796C757320636C69636B0014
:1035F0007468652063726F7373206F6E20746865E2
:103600002073637265656E2E0000000054686520AB
:1036100063726F73732077696C6C20616C7761796A
:1036200073206D6F76650000756E74696C20746828
:10363000652073637265656E2061646A7573746D6D
:10364000656E7400697320636F6D706C657465647A
:103650002E000000000000007800002041420D46CE
:1036600064436D43601902F02EFC41EC1A0BB0EE7E
:103670004A0AF0EE6A0A02F077FDB0EE409AF0EEE8
:10368000609A51EC190B02F02BFC87B200EE106A25
:10369000F8EE400A00EE107AB8EE400A80EE801A8A
:1036A00011EE10AA504602F034FC41EC180B9FEDCD
:1036B000FE0B53EC102B51EC180B02F03DFC0AD31F
:1036C0009FEDFB0B53EC102B51EC180B02F04CFC54
:1036D00001D306B1CFBB4FF00008F74A5288143A25
:1036E00091B2F54A1288143A90B24FF6FF72FFF782
:1036F0004CFC4FF4784214210846FFF746FC9FED3E
:10370000EF0B53EC102B51EC180B02F06AFB41EC61
:10371000190B02F0E5FB1FFA80FABDF82600BDF890
:103720002410BDF82220CDE9030ACDE90121BDF81E
:1037300020000090BDF81E30BDF81C20BDF81A1006
:10374000BDF81800FFF78CFD65E2FFE7BDF8181023
:10375000BDF82020881A002801DB014600E0414224
:103760000C46BDF81A20BDF82210501A002801DBC3
:10377000014600E041420D4664436D43601902F08A
:10378000A2FB41EC1A0BB0EE4A0AF0EE6A0A02F014
:10379000EBFCB0EE409AF0EE609A51EC190B02F09F
:1037A0009FFB86B2BDF81C10BDF82420881A0028A3
:1037B00001DB014600E041420C46BDF81E20BDF889
:1037C0002610501A002801DB014600E041420D4658
:1037D00064436D43601902F076FB41EC1A0BB0EEC6
:1037E0004A0AF0EE6A0A02F0BFFCB0EE409AF0EE30
:1037F000609A51EC190B02F073FB87B200EE106A6D
:10380000F8EE400A00EE107AB8EE400A80EE801A18
:1038100011EE10AA504602F07CFB41EC180B9FED14
:10382000A20B53EC102B51EC180B02F085FB08D3C4
:103830009FED9F0B53EC102B51EC180B02F094FBF7
:1038400039D24FF000089C4A5288143A91B29A4AF1
:103850001288143A90B24FF6FF72FFF796FB4FF4BE
:10386000784214210846FFF790FB9FED940B53EC30
:10387000102B51EC180B02F0B4FA41EC190B02F0CA
:103880002FFB1FFA80FABDF82610BDF82400BDF802
:103890002220CDE9031ACDE90120BDF820000090D7
:1038A000BDF81E30BDF81C20BDF81A10BDF8180078
:1038B000FFF7D6FCAFE1BDF81C10BDF82020881A38
:1038C000002801DB014600E041420C46BDF81E2005
:1038D000BDF82210501A002801DB014600E04142E9
:1038E0000D4664436D43601902F0EDFA41EC1A0B8A
:1038F000B0EE4A0AF0EE6A0A02F036FCB0EE409AE8
:10390000F0EE609A51EC190B02F0EAFA86B2BDF8BB
:103910001810BDF82420881A002801DB014600E0B9
:1039200041420C46BDF81A20BDF82610501A002856
:1039300001DB014600E041420D4664436D436019DE
:1039400002F0C1FA41EC1A0BB0EE4A0AF0EE6A0A34
:1039500002F00AFCB0EE409AF0EE609A51EC190BBE
:1039600002F0BEFA87B200EE106AF8EE400A00EEEE
:10397000107AB8EE400A80EE801A11EE10AA504676
:1039800002F0C7FA41EC180B9FED470B53EC102BDC
:1039900051EC180B02F0D0FA08D39FED450B53EC15
:1039A000102B51EC180B02F0DFFA39D24FF000085F
:1039B000414A5288143A91B23F4A1288143A90B25E
:1039C0004FF6FF72FFF7E1FA4FF4784214210846F0
:1039D000FFF7DBFA9FED390B53EC102B51EC180B72
:1039E00002F0FFF941EC190B02F07AFA1FFA80FAA3
:1039F000BDF82610BDF82400BDF82220CDE9031A39
:103A0000CDE90120BDF820000090BDF81E30BDF8C2
:103A10001C20BDF81A10BDF81800FFF721FCFAE0D1
:103A2000BDF81C00BDF81810401A00EE100AF8EEA0
:103A3000C00A21480088283800EE100AB8EEC00AF3
:103A400080EE201A1F4880ED061ABDF81C00BDF854
:103A50001810084400EE100AF8EEC00A1648008854
:103A600000EE100AB8EE400A164890ED061A01EE74
:103A7000600AF0EE000A80EE201ABDEEC10A10EED8
:103A8000100A00B20F490884BDF82200BDF81A10D0
:103A9000401A00EE100AF8EEC00A0748408828389D
:103AA00000EE100A10E00000666666666666EE3F8D
:103AB000CDCCCCCCCCCCF03F780000200000000076
:103AC0000000594028000020B8EEC00A80EE201AFD
:103AD000774880ED071ABDF82200BDF81A10084497
:103AE00000EE100AF8EEC00A7248408800EE100A94
:103AF000B8EE400A6E4890ED071A01EE600AF0EE4B
:103B0000000A80EE201ABDEEC10A10EE100A00B2C3
:103B1000674948840A4692ED060ABDEEC00A10EED7
:103B2000101A002901DB0A4600E04A42022A0DDC95
:103B30005F4A92ED070ABDEEC00A10EE100A002897
:103B400001DB024600E04242022A37DD4FF0000866
:103B5000584A5288143A91B2564A1288143A90B28E
:103B60004FF6FF72FFF711FA4FF47842142108461E
:103B7000FFF70BFA012050A310221A2100902820F1
:103B8000FDF7E9FB4A4890F8240008B9012000E05D
:103B90000020474981F82400084690F8240030B1FD
:103BA00090204A490870D0204949087005E0D0208B
:103BB000464908709020464908702CE01F2045496E
:103BC00008804FF6FF70FCF7DFFE012042A31022B1
:103BD0006E2100902320FDF7BEFB4FF47A7000F0B9
:103BE0001DFAFFF798FA4FF6FF70FCF7CDFE0AB00A
:103BF000BDEC068BBDE8F08700BF0A2000F00EFA8E
:103C000009F101001FFA80F9B9F57A7F02DDFFF7AB
:103C1000D7FA01E000BF17E400BF00BFE7E71CB51B
:103C20000121262000F006FF0620009000208DF8DC
:103C300004008DF8060003208DF8050001208DF8A2
:103C4000070069462A4800F057FC012000908DF8D3
:103C500004006946264800F04FFC20200090012017
:103C60008DF804006946234800F046FC4FF40060DC
:103C7000009001208DF8040069461F4800F03CFCCC
:103C80000B491231881EFFF70DF9FCF7AFFCFFF767
:103C900097FA08B100201CBD4FF6FF70FCF774FEC8
:103CA000FFF77EFBFFF737FAFFF78AFA0120F2E70A
:103CB00028000020780000205450204E65656420C4
:103CC000726561646A757374210000005000002001
:103CD0005100002016000020546F75636820536364
:103CE0007265656E2041646A757374204F4B2100C4
:103CF0000004024000080240001402401CB50121EB
:103D0000022000F097FE4FF44070009001208DF8E3
:103D1000040000208DF8060003208DF80500012026
:103D20008DF807006946894800F0E6FB01208849C4
:103D300008608849C1F8A4021CBD10B5834800681A
:103D400020F44020814908600846006840F4802043
:103D5000086001207E49091D08607E49C1F8A00263
:103D6000042000F013F900207949091D086004209F
:103D700000F00CF900207749C1F8A00210BD10B581
:103D80007248006820F440207049086008460068C6
:103D900040F48020086000206D4908606D49C1F83A
:103DA000A402042000F0F2F8012069490860694982
:103DB000C1F8A402042000F0E9F810BD10B50024F9
:103DC0006248006820F440206049086008460068A6
:103DD000086001205E49091D086000F0D7F8012045
:103DE0005C49C1F8A00200F0D1F807E0601CC4B241
:103DF000FA2C03DDFFF7C3FF012010BD54487C38C7
:103E000000680028F2D15249086000BFF5E710B5FC
:103E100000204F4908604D48006820F440204B497D
:103E200008600846006840F4802008600020494986
:103E3000C1F8A402022000F0A9F80120444908605A
:103E4000022000F0A3F800204249C1F8A00210BDF2
:103E500010B500203E4908603C48006820F440202E
:103E60003A4908600846006840F480200860012054
:103E70003849C1F8A402022000F088F80120344932
:103E80000860022000F082F800203249C1F8A00248
:103E900010BD70B504462D48006820F440202B4921
:103EA00008600846006840F4802008600020284927
:103EB0000860002517E0E0092549091D0860600633
:103EC000040E022000F062F801202249C1F8A0028D
:103ED000022000F05BF800201D490860022000F07D
:103EE00055F8681CC5B2082DE5DB70BD70B50546F8
:103EF00000241648006820F4402014490860084651
:103F000000680860002616E00020114908600220C1
:103F100000F03CF801200F49C1F8A0026006040E31
:103F20000B487C38006808B1601CC4B2012000F066
:103F30002DF8701CC6B2082EE6DB15B9FFF788FF16
:103F400001E0FFF764FF204670BD0000000402405E
:103F5000A08240420080404210B504466FF0040049
:103F600000F026FAE11704EB5171C1F3C701394A99
:103F700011701046007800EB4001C1EBC0104FF605
:103F8000FF7101EAC0003449088010BD0146314A82
:103F900012784A434FF0E0235A6100229A611A4690
:103FA000126942F001021A6100BF4FF0E02210696D
:103FB00000F001021AB100F48032002AF5D04FF06F
:103FC000E022126922F001024FF0E0231A61002280
:103FD0009A6170470146204A12884A434FF0E02315
:103FE0005A6100229A611A46126942F001021A616E
:103FF00000BF4FF0E022106900F001021AB100F496
:104000008032002AF5D04FF0E022126922F001023E
:104010004FF0E0231A6100229A61704770B50446A0
:104020004FF4077094FBF0F0C6B24FF4077094FBA6
:10403000F0F100FB114085B205E04FF40770FFF787
:10404000C9FF701EC6B2002EF7D115B12846FFF782
:10405000C1FF70BD580000205A00002000BF70470B
:1040600000BF4E4A128802F04002002AF9D0C2B2C4
:104070004A4B9A80704710B588B004460121084623
:1040800000F0D8FC0121102000F02EFD07220921AC
:10409000434800F0BCFA07220A21414800F0B7FA71
:1040A0004FF4C060069002208DF81C008DF81D00B2
:1040B00000208DF81E0001208DF81F0006A9384849
:1040C00000F01AFA02940020ADF80C00ADF80E00D2
:1040D000ADF81000ADF814000C20ADF8120002A9E4
:1040E0002E4801F0B4FC01212C4801F038FD40219C
:1040F0002A4801F01CFE012240F22551274801F018
:10410000E4FD25208DF8040003208DF805008DF8CE
:10411000060001208DF8070001A800F0FCF808B0A7
:1041200010BD10B540F225511C4801F009FE10B336
:104130001A4801F043FDC4B21A48008800F4004058
:10414000C8B91848008800F4804060B10A2C03D038
:1041500000201449088020E01248008840F4004004
:104160001049088019E00D2C06D10E48008840F453
:1041700080400C49088010E00A480088C0F30D0018
:1041800009490C5407480088401C06490880084625
:104190000088C72801DD0020088010BD0010014004
:1041A0000000024060000020860000207FB5054628
:1041B0000C460121022000F086FC0295ADF8044077
:1041C0000020ADF80600ADF80C0001A9124800F07F
:1041D00032FE01221146104801F0CEFA01210E48AC
:1041E00000F0B2FE1D208DF8000001208DF80100C6
:1041F0008DF802008DF80300684600F08CF87FBD52
:1042000010B50121044801F0CEFA012803D10121A3
:10421000014801F0D9FA10BD0004004010B540F289
:1042200025512F4801F08CFD18B12D4801F0C6FC36
:10423000C4B210BD10B588B004460121022000F0C0
:10424000F9FB0121880400F03EFC254801F098FBB1
:1042500007220B21234800F0DAF907220A2121481E
:1042600000F0D5F94FF44060059002208DF8180059
:104270008DF8190000208DF81A0001208DF81B0020
:1042800005A9184800F038F901940020ADF808009D
:10429000ADF80A00ADF80C00ADF810000C20ADF838
:1042A0000E0001A90E4801F0D2FB01210C4801F0DB
:1042B00056FC012240F22551094801F006FD272055
:1042C0008DF81C0002208DF81D0003208DF81E00C3
:1042D00001208DF81F0007A800F01DF808B010BDE0
:1042E0000048004000040240064880470648004756
:1042F000FEE7FEE7FEE7FEE7FEE7FEE7FEE7FEE796
:10430000FEE7FEE7B90400088901000832490143CD
:10431000324A1160704770B5002100230F22C47823
:104320001CB32E4C246804F4E064C4F5E064C4F3C8
:104330000721C1F10404E3B20A4144789C40E1B290
:104340008478144021430C07210E254C05786155D3
:10435000047804F01F050124AC4005786D11AD0010
:1043600005F1E025C5F8004109E0047804F01F05D7
:104370000124AC401B4D0678761145F8264070BDEF
:10438000194A0A400243154B1B1F1A60704739B186
:10439000124A121D12680243104B1B1D1A6006E0E0
:1043A0000E4A121D126882430C4B1B1D1A60704787
:1043B000042808D14FF0E021096941F004014FF0D1
:1043C000E022116107E04FF0E021096921F00401CA
:1043D0004FF0E022116170470000FA050CED00E09B
:1043E00000E400E080E100E080FFFF1F10B504461C
:1043F0009848844208D10121084600F086FB00213C
:10440000012000F082FB76E09348844208D101212C
:10441000022000F07AFB0021022000F076FB6AE027
:104420008E48844208D10121042000F06EFB002157
:10443000042000F06AFB5EE08948844208D1012133
:10444000082000F062FB0021082000F05EFB52E033
:104450008448844208D10121102000F056FB00213D
:10446000102000F052FB46E07F48844208D1012131
:10447000202000F04AFB0021202000F046FB3AE01B
:104480007A48844208D10121402000F03EFB0021FF
:10449000402000F03AFB2EE07548844208D101210B
:1044A000802000F032FB0021802000F02EFB22E073
:1044B0007048844208D10121801500F026FB0021BC
:1044C000A01500F022FB16E06B48844208D10121C0
:1044D000401500F01AFB0021601500F016FB0AE001
:1044E0006648844207D10121001500F00EFB00212F
:1044F000201500F00AFB10BDF0B50A46002100238C
:10450000002400BF3DE0012505FA01F3156805EA26
:1045100003049C4234D105684F000326BE40B543D6
:10452000056015794E00B54006683543056015797C
:10453000012D02D01579022D16D185684F00032672
:10454000BE40B543856055794E00B5408668354319
:104550008560456801268E40B5434560456896797B
:104560008E40B6B235434560C5684F000326BE4055
:10457000B543C560D5794E00B540C6683543C560C2
:10458000491C1029BFD3F0BD4FF6FF710160002117
:10459000017141718171C171704708B54FF480326A
:1045A0000092009A0A430092009AC261C161009A87
:1045B000C261C2690092C269009208BD0246002031
:1045C00013690B400BB1012000E000207047014649
:1045D000086980B270470246002053690B400BB156
:1045E000012000E0002070470146486980B2704712
:1045F00001837047418370470AB1018300E0418322
:1046000070474161704742694A4042617047F0B566
:10461000002300244D07ED0E02FA05F3CE1000F141
:10462000200555F826504E07F70E0F26BE40B5431D
:10463000CF1000F1200646F82750CE1000F12005DB
:1046400055F8265045EA0304CE1000F1200545F840
:104650002640F0BD00000240000402400008024075
:10466000000C0240001002400014024000180240FA
:10467000001C0240002002400024024000280240AA
:10468000F948006840F00100F74908600020F64949
:1046900008310860F4480068F4490840F2490860AD
:1046A000F348091D0860F348EF4984310860F04879
:1046B0001038091D0860EC48006820F48020EA49A1
:1046C00008600020E8490C310860E7498C31086037
:1046D00070470021E44A921C11701146087070471F
:1046E00010B501460022002300204A11012A02D100
:1046F000DD4C236808E0022A03D1DB4C70342368C8
:1047000002E0D94C7434236801F01F020124944064
:104710001C400CB1012000E0002010BD38B5002085
:1047200000900024002500BF3120FFF7D9FF054687
:104730000098401C00900098B0F5A04F01D0002DCB
:10474000F2D03120FFF7CCFF08B1012400E00024B3
:10475000204638BD01460020C34A106820F0F8000A
:1047600040EAC10010607047C349086070470021EB
:10477000BD4A703211701170012802D004280AD18C
:1047800004E00121B84A7032117005E00521B64AF3
:104790007032117000E000BF00BF7047B749086079
:1047A000704770B5049C41EA82150126C6EB53069A
:1047B00045EA0645054345EA0465AB4E361D3560BE
:1047C00070BDAD4908667047820142EA0172A64B8E
:1047D00084331A607047A8498866704710B5830112
:1047E00043EA016343EA02739F4C8834236010BD9F
:1047F000A14908677047A049C86470470246002075
:10480000994B0833186820F0EC6042EA0103184322
:10481000954B08331860704702460020924B0833CE
:10482000186820F0784042EA010318438E4B0833A1
:1048300018607047014600208B4A0832106820F04B
:10484000030008431060704787480830006800F094
:104850000C00704701460020834A0832106820F09F
:10486000F000084310607047014600207E4A08327D
:10487000106820F4E05008431060704701460020A3
:10488000794A0832106820F4604040EAC1001060A4
:104890007047F0B5002100220024022500260223E3
:1048A000714F08373F6807F00C0121B1042905D08A
:1048B000082937D105E0724F076036E0714F076075
:1048C00033E0694F3F1D3F68C7F38056664F3F1D79
:1048D0003F6807F03F036EB16A4FB7FBF3F7DFF8AD
:1048E00088C10CF1040CDCF800C0CCF3881C07FB79
:1048F0000CF40CE0624FB7FBF3F7DFF86CC10CF17E
:10490000040CDCF800C0CCF3881C07FB0CF4564FF9
:104910003F1D3F68C7F301477F1C7D00B4FBF5F7DF
:10492000076002E0564F076000BF00BF4E4F0837D8
:104930003F6807F0F0010909534F7A5C0768D740D8
:104940004760494F08373F6807F4E051890A4E4FE6
:104950007A5C4768D7408760434F08373F6807F461
:104960006041490B484F7A5C4768D740C760F0BD4B
:10497000002100F44072B2F5407F0AD13A4A083271
:10498000116821F4F811414A02401143364A0832B5
:104990001160354A70321268C0F30B031A43324B70
:1049A00070331A607047354944390860704733499D
:1049B000403908607047364908607047014600205A
:1049C000294A8C32106820F01F004A1E1043264AE4
:1049D0008C321060704701460020234A8C321068E8
:1049E00020F4F8504A1E40EA02201F4A8C32106020
:1049F0007047014600201C4A8C32106820F4401099
:104A000008431060704701460020174A8C32106836
:104A100020F4400008431060704701460020124A0D
:104A20008C32106820F440300843106070471949F8
:104A30000860704739B10C4A3032126802430A4BA1
:104A400030331A6006E0084A303212688243064B5F
:104A500030331A607047F9B1034A343212680243A6
:104A6000014B34331A601CE000380240FFFFF6EAC5
:104A7000103000240030002000004742800E4742E2
:104A80000024F40000127A0062000020FFFCFF0FF7
:104A90005C014742E01147428F4A126882438E4BC5
:104AA0001A60704739B18C4A121D126802438A4B52
:104AB0001B1D1A6006E0884A121D12688243864B4D
:104AC0001B1D1A60704739B1834A0C3212680243C9
:104AD000814B0C331A6006E07F4A0C321268824325
:104AE0007D4B0C331A60704739B17B4A1032126823
:104AF0000243794B10331A6006E0774A103212688D
:104B00008243754B10331A60704739B1724A243AA8
:104B100012680243704B243B1A6006E06E4A243A46
:104B2000126882436C4B243B1A60704739B16A4A61
:104B3000203A12680243684B203B1A6006E0664A3E
:104B4000203A12688243644B203B1A60704739B1A7
:104B5000614A1C3A126802435F4B1C3B1A6006E034
:104B60005D4A1C3A126882435B4B1C3B1A607047DB
:104B700039B1594A143A12680243574B143B1A6030
:104B800006E0554A143A12688243534B143B1A60AC
:104B9000704739B1504A103A126802434E4B103BED
:104BA0001A6006E04C4A103A126882434A4B103BA6
:104BB0001A60704739B1484A1C3212680243464BAA
:104BC0001C331A6006E0444A1C3212688243424B8E
:104BD0001C331A60704739B13F4A203212680243D1
:104BE0003D4B20331A6006E03B4A20321268824374
:104BF000394B20331A60704739B1374A2432126872
:104C00000243354B24331A6006E0334A24321268DB
:104C10008243314B24331A60704739B12E4A2C320B
:104C2000126802432C4B2C331A6006E02A4A2C32BD
:104C300012688243284B2C331A60704739B1264AD8
:104C4000303212680243244B30331A6006E0224AA5
:104C5000303212688243204B30331A60704701288B
:104C600008D11D493C31096841F008011A4A3C321B
:104C7000116007E018493C31096821F00801164A23
:104C80003C321160704739B1134A273A1278024317
:104C9000114B273B1A7006E00F4A273A12788243DD
:104CA0000D4B273B1A7070470B484030006840F0AE
:104CB0008070094940310860704701460020064A6B
:104CC000283A12680A400AB1012000E0002070472B
:104CD00001492639087070473438024010B504463F
:104CE000FE48844208D101210846FFF752FF002107
:104CF0000120FFF74EFF9DE0B4F1804F08D1012164
:104D00000846FFF735FF00210120FFF731FF91E052
:104D1000F348844208D101210220FFF729FF002136
:104D20000220FFF725FF85E0EE48844208D10121EB
:104D30000420FFF71DFF00210420FFF719FF79E091
:104D4000E948844208D101210820FFF711FF002122
:104D50000820FFF70DFF6DE0E448844208D10121EF
:104D60001020FFF705FF00211020FFF701FF61E091
:104D7000DF48844208D101212020FFF7F9FE0021FD
:104D80002020FFF7F5FE55E0DA48844208D10121E2
:104D90000220FFF7FEFE00210220FFF7FAFE49E0A5
:104DA000D548844209D101210804FFF7F2FE002111
:104DB0004FF48030FFF7EDFE3CE0D048844209D14B
:104DC00001214804FFF7E5FE00214FF40030FFF712
:104DD000E0FE2FE0CA48844209D101218804FFF790
:104DE000D8FE00214FF48020FFF7D3FE22E0C54813
:104DF000844208D101214020FFF7BAFE0021402063
:104E0000FFF7B6FE16E0C048844208D10121802099
:104E1000FFF7AEFE00218020FFF7AAFE0AE0BB48A4
:104E2000844207D101218015FFF7A2FE0021A015C1
:104E3000FFF79EFE10BD00220288A84B98420ED0BC
:104E4000AC4B98420BD0B0F1804F08D0A44B9842A5
:104E500005D0A44B984202D0A34B984204D14FF600
:104E60008F731A404B881A43A04B984207D0A04B2F
:104E7000984204D04FF6FF431A400B891A43028030
:104E80004B68C3620B880385944B984202D0994BC0
:104E9000984201D18B7A03860123838270474FF0B9
:104EA000FF314160002101800181418081727047A2
:104EB0000185828270470A46002101884FF68F7370
:104EC000194011430180704741627047C1627047C9
:104ED0000146486A70470146088D704721B1028833
:104EE00042F00202028004E002884FF6FD731A408D
:104EF0000280704721B1028842F00402028004E07F
:104F000002884FF6FB731A400280704721B1028875
:104F100042F08002028004E002884FF67F731A405C
:104F20000280704702884FF6F7731A4002800288A9
:104F30000A430280704702884FF6FF431A400280FE
:104F400002880A430280704721B1028842F00102C0
:104F5000028004E002884FF6FE731A400280704718
:104F600070B5002400220023058C4FF6FE763540F4
:104F70000584028C8388048B4FF68F752C40B51EF8
:104F80002C400D882C43751E2A408D892A434D885C
:104F90002A43524DA84202D0564DA84213D14FF693
:104FA000F7752A40CD892A434FF6FB752A408D8834
:104FB0002A434FF6FF652B404FF6FF552B400D8AD5
:104FC0002B434D8A2B43838004838D684563028481
:104FD00070BD70B5002400220023058C4FF6EF76DB
:104FE00035400584028C8388048B48F6FF752C407D
:104FF0004FF6FF452C400D884FF6FF7606EA052553
:105000002C434FF6DF752A408D8906EA05152A43A1
:105010004D8806EA05152A43304DA84202D0354D89
:10502000A8421DD14FF67F752A40CD894FF6FF76F5
:1050300006EA05152A434FF6BF752A408D8806EA11
:1050400005152A434FF6FF352B404FF2FF752B40D5
:105050000D8A06EA85052B434D8A06EA85052B4312
:10506000838004838D688563028470BD70B50024DD
:1050700000220023058C4FF6FF6635400584028C24
:105080008388848B4FF68F752C404FF6FC752C402F
:105090000D882C434FF6FF552A408D894FF6FF7639
:1050A00006EA05252A434D8806EA05252A430B4DC5
:1050B000A84202D00F4DA84238D14FF2FF752A40C6
:1050C000CD894FF6FF7606EA05252A434FF6FF35D0
:1050D0002A408D8806EA05252A4319E00000014090
:1050E0000004004000080040000C00400010004098
:1050F0000014004000040140004001400044014011
:105100000048014000180040001C00400020004002
:105110004EF6FF752B404DF6FF752B400D8A06EAC3
:1051200005152B434D8A06EA05152B43838084839E
:105130008D68C563028470BD70B500220023002411
:10514000058C4EF6FF7635400584038C8488828B6F
:1051500048F6FF752A404FF6FF452A400D884FF666
:10516000FF7606EA05252A434DF6FF752B408D890B
:1051700006EA05352B434D8806EA05352B43FE4DDF
:10518000A84202D0FD4DA84208D14BF6FF752C4035
:105190000D8A4FF6FF7606EA85152C4384808283BC
:1051A0008D680564038470BD002101804180818089
:1051B00081608181C18101824182704770B503465F
:1051C000002000241846183001258D40ACB21D8CFB
:1051D000A5431D8409B108290AD100EB61000568C7
:1051E0004FF68F76354005600568154305600FE082
:1051F0000D1FC5F34E052844056848F6FF76354077
:10520000056005684FF6FF7606EA0226354305601D
:1052100070BD4163704781637047C163704701642B
:1052200070470A460021018B4FF68F7319401143D6
:10523000018370470A460021018B48F6FF7319402D
:105240004FF6FF7303EA02231943018370470A46AE
:105250000021818B4FF68F73194011438183704772
:105260000A460021818B48F6FF7319404FF6FF7301
:1052700003EA02231943818370470A460021018B08
:105280004FF6F77319401143018370470A46002116
:10529000018B4FF2FF7319404FF6FF7303EA0223AD
:1052A0001943018370470A460021818B4FF6F7733B
:1052B00019401143818370470A460021818B4FF2C8
:1052C000FF7319404FF6FF7303EA022319438183EA
:1052D00070470A460021018B4FF6FB7319401143BA
:1052E000018370470A460021018B4FF6FF331940B6
:1052F0004FF6FF7303EA02231943018370470A46FE
:105300000021818B4FF6FB73194011438183704755
:105310000A460021818B4FF6FF3319404FF6FF7389
:1053200003EA02231943818370470A460021018B57
:105330004FF67F7319401143018370470A460021DD
:10534000018BC1F30E014FF6FF7303EA02231943E9
:10535000018370470A460021818B4FF67F73194005
:105360001143818370470A460021818BC1F30E01EE
:105370004FF6FF7303EA02231943818370470A46FD
:105380000021018C4FF6FD731940114301847047D1
:105390000A460021018C4FF6F7731940114301842E
:1053A00070470A460021018C4FF6DF7319404FF613
:1053B000FF7303EA02131943018470470A46002170
:1053C000018C4FF67F7319404FF6FF7303EA021307
:1053D0001943018470470A460021018C4FF6FF53A0
:1053E00019404FF6FF7303EA022319430184704703
:1053F0000A460021018C4FF2FF7319404FF6FF73EC
:1054000003EA02231943018470470A460021018CF4
:105410004DF6FF7319404FF6FF7303EA0233194349
:105420000184704730B5002301248C40A3B2048C62
:105430009C430484048C02FA01F5ADB22C4304842D
:1054400030BD30B5002304248C40A3B2048C9C43AF
:105450000484048C02FA01F5ADB22C43048430BDFF
:10546000828B4FF2FF331A408283828B4FF6FF7399
:1054700003EA01231A4382837047F0B50C461546B0
:10548000002100220026078C4EF6FF7C07EA0C075D
:105490000784818B028C4FF6FF7707EA043640F6CB
:1054A000FF4739404FF6FF7707EA052739434FF6A4
:1054B000FF7707EA0337394345F6FF773A4046F46A
:1054C00080573A4381830284F0BD828B4FF6F37399
:1054D0001A408283828B0A4382837047F0B50C4660
:1054E0001546002100220026078C4FF6FF6C07EAC4
:1054F0000C070784818B028C4FF6FF7707EA04269E
:105500004FF60C7739404FF6FF7707EA03172F4322
:1055100039434FF2FF573A4046F480773A4381834C
:105520000284F0BD028B4FF2FF331A400283028BDC
:105530004FF6FF7303EA01231A4302837047F0B565
:105540000C461546002100220026078C4FF6EF7C02
:1055500007EA0C070784018B028C4FF6FF7707EAF6
:10556000041640F6FF4739404FF6FF7707EA033746
:1055700039434FF6FF7703E000000140000401408B
:1055800007EA052739434FF65F773A4046F01007A0
:105590003A4301830284F0BD028B4FF6F3731A4045
:1055A0000283028B0A4302837047F0B50C4615460E
:1055B00000210022068C4FF6FE773E400684018BC8
:1055C000028C4FF60C7631407E1C06EA03162E4301
:1055D00031434FF6F576324044F001063243018301
:1055E0000284F0BD70B505460C46208850B9238969
:1055F000A28861882846FFF7D8FFE1882846FFF790
:10560000CBFF25E0208804280AD12389A28861885D
:105610002846FFF794FFE1882846FFF783FF17E04D
:10562000208808280AD12389A28861882846FFF7A4
:1056300055FFE1882846FFF748FF09E02389A28843
:1056400061882846FFF719FFE1882846FFF708FF21
:1056500070BD002101804180012181800021C18035
:10566000018170472DE9F04105460C4600260127CF
:10567000608808B9022600E00026A088012801D130
:10568000022700E001272088A0B92389A288618829
:105690002846FFF78AFFE1882846FFF77DFF238928
:1056A0003A4631462846FFF74AFFE1882846FFF789
:1056B00039FF13E02389A28861882846FFF73FFF5E
:1056C000E1882846FFF72EFF23893A4631462846CF
:1056D000FFF76BFFE1882846FFF75EFFBDE8F0812A
:1056E0000146486B70470146886B70470146C86B9E
:1056F00070470146086C70470A884B881A438B88AC
:105700001A43CB881A430B891A434B891A438B8956
:105710001A43A0F844207047002101804180818015
:10572000C180018141818181704731B1B0F844204D
:1057300042F40042A0F8442005E0B0F84420C2F34F
:105740000E02A0F84420704721B1828842F0040282
:10575000828004E082884FF6FB731A408280704793
:1057600021B1828842F00102828004E082884FF6F3
:10577000FE731A40828070471AB183890B4383817C
:1057800002E083898B4383817047818270470246A0
:105790000020138A0B400BB1012000E0002070476D
:1057A000CA430282704730B502460020002300241D
:1057B000158A05EA0103958905EA010413B10CB1C4
:1057C000012000E0002030BDCA430282704741EA58
:1057D0000203A0F8483070471AB183890B438381D4
:1057E00002E083898B438381704721B1828842F034
:1057F0000802828004E082884FF6F7731A408280A4
:10580000704701894FF6F8721140018170470A46CE
:10581000002101894FF68F731940114301817047B0
:1058200030B504460D4629462046FFF7F0FF208993
:1058300040F00700208130BD2DE9F04104460D46BF
:1058400016461F46602D06D13B46012231462046B2
:10585000FFF775FE05E03B46012231462046FFF783
:10586000A4FE29462046FFF7D2FF208940F007001A
:105870002081BDE8F08130B50C4600210189C9B214
:105880004FF6FF7505EA032515432543294301819A
:1058900030BD2DE9F04105460E46174698460024D6
:1058A00043463A4631462846FFF7E5FF2C894FF636
:1058B000F870044044F007044FF68F70044044F041
:1058C00070042C81BDE8F081F0B504460D46164603
:1058D0001F463B46324629462046FFF7CCFF20892B
:1058E00040F480402081F0BD82884FF68F731A40CB
:1058F000828082880A438280704702894FF6F8735B
:105900001A40028102890A430281704702894FF6D8
:105910007F731A40028102890A4302817047F0B501
:105920000C4615461E460021002200230189028BE9
:10593000038C4FF6F877394021434FF6FC473A4045
:1059400040F201173A434FF6DD773B404FF6FF77C1
:1059500007EA06172F433B43018102830384F0BD0E
:1059600021B1828842F08002828004E082884FF672
:105970007F731A4082807047A0F850107047000073
:1059800010B50446FA48844208D101211020FFF7DF
:1059900000F900211020FFF7FCF857E0F548844299
:1059A00009D101214804FFF7E3F800214FF400304A
:1059B000FFF7DEF84AE0F048844209D1012188046B
:1059C000FFF7D6F800214FF48020FFF7D1F83DE033
:1059D000EA48844209D10121C804FFF7C9F800212F
:1059E0004FF40020FFF7C4F830E0E548844209D1C5
:1059F00001210805FFF7BCF800214FF48010FFF7E4
:105A0000B7F823E0DF48844208D101212020FFF7C6
:105A1000C0F800212020FFF7BCF817E0DA488442E4
:105A200009D101218807FFF7A3F800214FF080403A
:105A3000FFF79EF80AE0D548844207D101214005CE
:105A4000FFF796F800216005FFF792F810BD2DE9E9
:105A5000FF4705460E460024A14600BFA046B08978
:105A600000B100BF2C8A24F44054F08804432C82F7
:105A7000AC8941F20C608443B08831890843718954
:105A800008430443AC81AC8A24F44074B0890443D5
:105A9000AC826846FEF7FDFEB548854202D0B948A3
:105AA000854202D1DDF80C9001E0DDF80890A8896C
:105AB00000F4004040B109EBC90000EB0910316867
:105AC0004900B0FBF1F707E009EBC90000EB091052
:105AD00031688900B0FBF1F76420B7FBF0F00401F6
:105AE0002009642101FB1078A88900F4004040B12E
:105AF000322000EBC800B0FBF1F000F007000443D7
:105B000008E0322000EB08106421B0FBF1F000F057
:105B10000F0004432C81BDE8FF874FF4165101604C
:105B200000218180C18001810C214181002181817E
:105B3000704710B502460020108A20F470600B8870
:105B40004C8823438C882343CC88234318431082FA
:105B500010BD0021018041808180C180704721B14A
:105B6000828942F40052828104E082894DF6FF73FB
:105B70001A4082817047028B02F47F420283028BBB
:105B80000A430283704721B1828942F40042828134
:105B900003E08289C2F30E028281704721B1828ABA
:105BA00042F40062828204E0828A4FF2FF731A405C
:105BB00082827047C1F3080282807047014688885C
:105BC000C0F308007047028A4FF6F0731A40028251
:105BD000028A0A430282704721B1828942F002029E
:105BE000828104E082894FF6FD731A4082817047FA
:105BF00082894FF2FF731A40828182890A4382812F
:105C00007047028A4FF6DF731A400282028A0A4303
:105C10000282704721B1028A42F48042028204E08B
:105C2000028A4BF6FF731A4002827047818941F065
:105C300001018181704721B1828A42F0080282828B
:105C400004E0828A4FF6F7731A4082827047028B13
:105C5000D2B20283028B42EA01220283704721B151
:105C6000828A42F02002828204E0828A4FF6DF7349
:105C70001A408282704721B1828A42F010028282E9
:105C800004E0828A4FF6EF731A4082827047828A5C
:105C90004FF6FB731A408282828A0A4382827047DF
:105CA00021B1828A42F00202828204E0828A4FF6A7
:105CB000FD731A40828270471AB1838A0B43838234
:105CC00002E0838A8B4383827047F0B50346002449
:105CD00000260025002040F66A17B94200D100BF17
:105CE0001846C1F3421401F01F06012707FA06F512
:105CF000012C01D10C3004E0022C01D1103000E065
:105D000014301AB107682F43076002E00768AF43F9
:105D10000760F0BD02460020B1F5007F00D100BF52
:105D200013880B400BB1012000E00020704701F404
:105D30000072B2F5007F00D100BFCA4302807047F5
:105D400070B50246002400230025002040F66A16A4
:105D5000B14200D100BFC1F3421501F01F0301267B
:105D600006FA03F3012D13D19689334017E00000A2
:105D7000001001400044004000480040004C00403A
:105D8000005000400014014000780040007C0040BA
:105D9000022D02D1168A334001E0968A33400C125C
:105DA000012606FA04F41688344013B10CB1012020
:105DB00000E0002070BD10B50022002340F66A14F8
:105DC000A14200D100BF0A1201249440A3B2DC43D7
:105DD000048010BD421C10F8011B0029FBD1801A61
:105DE00070472DE9FE4F81EA030404F0004421F0DE
:105DF000004100944FF0000B23F0004350EA0104EF
:105E00005ED052EA03045BD0C3F30A54C1F30A55CF
:105E10002C44A4F2F3340194A0FB0254C1F3130107
:105E200041F48011C3F3130343F4801301FB0244D4
:105E300000FB034E840A970A44EA815447EA8357D9
:105E4000A4FB076802958D0A05FB07854FEA932C92
:105E500004FB0C542705029D4FEA065847EA163703
:105E6000B5EB08056EEB070C870E920E47EA81171B
:105E700042EA8312A7FB0201B6EB0B0164EB0004BC
:105E80002B0D43EA0C335E1844EB1C50DA465146A6
:105E9000E7FB0201C5F313044FEA0B3343EA145343
:105EA0004FEA0432019C43EA0603A4F10C04029475
:105EB000009CCDE900B400F08EF803B0BDE8F08F8F
:105EC00000200146F9E70EB540F23341029100216E
:105ED000CDE900110A460B4600F07DF803B000BD85
:105EE000C1F30A5210B5C1F3130140F2FF3341F47C
:105EF00080119A4201DA002010BD40F233439A42E9
:105F0000A2F2334203DC524200F046F810BD90404A
:105F100010BD00F0004230F000400AD0C10D01F584
:105F20006071C0F3160042EA0151C20840071143F4
:105F3000704700200146704730B5041E71F100041F
:105F400004DB4FF00044404264EB0101141E73F186
:105F5000000405DB1C464FF00043524263EB040390
:105F60008B4208BF824230BD30B5041E71F100047F
:105F700004DB4FF00044404264EB0101141E73F156
:105F8000000405DB1C464FF00043524263EB040360
:105F9000994208BF904230BD202A04DB203A21FA02
:105FA00002F00021704721FA02F3D040C2F1200232
:105FB000914008431946704710B5141E73F1000450
:105FC00008DA401C41F1000192185B411A4301D1EB
:105FD00020F0010010BD2DE9F04D92469B4611B115
:105FE000B1FA81F202E0B0FA80F22032904600F07D
:105FF000A3F804460F4640EA0A0041EA0B01534663
:106000005A46084313D0114653EA010019D0C8F18B
:1060100040025046FFF7C0FF05460E46504659461F
:10602000424600F089F8084305D0012004E02046EC
:106030003946BDE8F08D0020054346EAE0762C4362
:1060400037430A986305E40AA0EB08000022FD0A22
:1060500044EA47540A3002D500200146E9E7010529
:1060600010196941DDE9084500196941BDE8F04DA5
:10607000A2E72DE9F04D00231A461B1A8A4103DBE3
:1060800000200146BDE8F08DC1F30A52C1F31301AF
:1060900041F480154FF0000BD10702D100186D417B
:1060A000521E0027044640F2FF11384601EB620AF7
:1060B0003E468046024600204FF48011FFF76CFFF9
:1060C000C2197141BB1846EB0100B4EB030C75EB30
:1060D000000C04D3E41A65EB000517460E4624199C
:1060E00008F101006D4180463428E3DDF91946EBE3
:1060F0000600091BA84103D24FF0FF32134601E00E
:10610000002213461BEB070046EB0A51BDE8F04D99
:10611000FFF752BF064C074D06E0E06840F0010370
:1061200094E8070098471034AC42F6D3FAF730F8F9
:10613000DC980008FC980008202A04DB203A00FACA
:1061400002F1002070479140C2F1200320FA03F3CE
:106150001943904070470000014A024900F056B8C8
:10616000614000085C00002000B52DED048BB0EE0E
:10617000409AF0EE609A83B051EC190BFFF779FF6B
:1061800041EC180B18EE100A18EE901A8DED008BEA
:10619000002818BF0120084320F00040C0F17F60B4
:1061A00000F1E040C00F14D019EE101A19EE900A59
:1061B0008DED009B002918BF0121084320F000400D
:1061C000C0F17F6000F1E040C00F04BF012000F08B
:1061D00017F8B0EE480A03B0F0EE680ABDEC048B85
:1061E00000BD02E008C8121F08C1002AFAD170479A
:1061F0007047002001E001C1121F002AFBD1704747
:106200000149086070470000740000202DE9F0414A
:1062100016460F460446002503E03946B047641C85
:106220006D1C20780028F8D12846BDE8F0810020B8
:10623000000000000000210000002F0000220000EC
:10624000070007002300147F147F142400242A7FF2
:106250002A1225006264081323260036495522506D
:10626000270000050300002800001C22410029002F
:106270000041221C002A0014083E08142B000808C4
:106280003E08082C000000A060002D000808080847
:10629000082E0000606000002F002010080402306B
:1062A000003E5149453E310000427F4000320042ED
:1062B0006151494633002141454B313400181412D5
:1062C0007F103500274545453936003C4A4949305D
:1062D000370001710905033800364949493639004C
:1062E000064949291E3A0000363600003B00005698
:1062F0003600003C0008142241003D001414141420
:10630000143E0000412214083F00020151090640DA
:1063100000324959513E41007C1211127C42007FEB
:106320004949493643003E4141412244007F4141B1
:10633000221C45007F4949494146007F090909015E
:1063400047003E4149497A48007F0808087F4900D4
:1063500000417F41004A002040413F014B007F083F
:106360001422414C007F404040404D007F020C020F
:106370007F4E007F0408107F4F003E4141413E5058
:10638000007F0909090651003E4151215E52007FFC
:106390000919294653004649494931540001017FF2
:1063A000010155003F4040403F56001F2040201F44
:1063B00057003F4038403F580063140814635900A9
:1063C00007087008075A0061514945435B00007F88
:1063D0004141005D000041417F005E000402010276
:1063E000045F004040404040600000010204006142
:1063F00000205454547862007F4844443863003885
:10640000444444206400384444487F650038545470
:1064100054186600087E090102670018A4A4A47C31
:1064200068007F08040478690000447D40006A0029
:106430004080847D006B007F102844006C00004188
:106440007F40006D007C041804786E007C08040412
:10645000786F0038444444387000FC2424241871B8
:106460000018242418FC72007C08040408730048F7
:10647000545454207400043F44402075003C404074
:10648000207C76001C2040201C77003C4030403CA3
:106490007800442810284479001CA0A0A07C7A0031
:1064A0004464544C447C141414141414200000004C
:1064B00000000000000000000000000000210000BB
:1064C000183C3C3C18181800181800000000220066
:1064D0006666662400000000000000000000002343
:1064E0000000006C6CFE6C6C6CFE6C6C00000000BC
:1064F0002418187CC6C2C07C0686C67C181800000A
:10650000002500000000C2C60C183060C6860000DE
:106510000000260000386C6C3876DCCCCCCC7600E1
:106520000000002700303030600000000000000054
:10653000000000002800000C1830303030303018D7
:106540000C0000000029000030180C0C0C0C0C0C86
:106550001830000000002A0000000000663CFF3CEC
:10656000660000000000002B000000000018187EEC
:1065700018180000000000002C00000000000000BF
:106580000000181818300000002D00000000000066
:1065900000FE00000000000000002E0000000000CF
:1065A00000000000001818000000002F000000008C
:1065B00002060C183060C080000000003000007C33
:1065C000C6C6CED6D6E6C6C67C00000000310000A6
:1065D0001838781818181818187E000000003200B3
:1065E000007CC6060C183060C0C6FE0000000033F8
:1065F00000007CC606063C060606C67C00000000BD
:106600003400000C1C3C6CCCFE0C0C0C1E0000007A
:1066100000350000FEC0C0C0FC0E0606C67C0000AF
:1066200000003600003860C0C0FCC6C6C6C67C008C
:10663000000000370000FEC606060C18303030306F
:10664000000000003800007CC6C6C67CC6C6C6C6B0
:106650007C000000003900007CC6C6C67E06060627
:106660000C78000000003A0000000018180000003C
:10667000181800000000003B00000000181800007F
:1066800000181830000000003C000000060C183014
:106690006030180C06000000003D00000000000003
:1066A000FE0000FE0000000000003E000000603020
:1066B000180C060C183060000000003F00007CC67B
:1066C000C60C181818001818000000004000000040
:1066D0007CC6C6DEDEDEDCC07C00000000410000BF
:1066E00010386CC6C6FEC6C6C6C600000000420012
:1066F00000FC6666667C66666666FC000000004319
:1067000000003C66C2C0C0C0C0C2663C00000000C1
:10671000440000F86C6666666666666CF800000009
:1067200000450000FE6662687868606266FE0000F0
:106730000000460000FE6662687868606060F000F5
:106740000000004700003C66C2C0C0DEC6C6663A14
:1067500000000000480000C6C6C6C6FEC6C6C6C6C3
:10676000C6000000004900003C1818181818181836
:10677000183C000000004A00001E0C0C0C0C0CCC55
:10678000CCCC78000000004B0000E6666C6C78789A
:106790006C6666E6000000004C0000F0606060601F
:1067A00060606266FE000000004D0000C6EEFEFE66
:1067B000D6C6C6C6C6C6000000004E0000C6E6F635
:1067C000FEDECEC6C6C6C6000000004F0000386C14
:1067D000C6C6C6C6C6C66C3800000000500000FC25
:1067E0006666667C60606060F0000000005100003A
:1067F0007CC6C6C6C6C6C6D6DE7C0C0E00005200DD
:1068000000FC6666667C6C666666E6000000005307
:1068100000007CC6C660380C06C6C67C00000000BE
:106820005400007E7E5A1818181818183C000000F2
:1068300000550000C6C6C6C6C6C6C6C6C67C000091
:106840000000560000C6C6C6C6C6C6C66C381000D4
:10685000000000570000C6C6C6C6C6D6D6FE6C6C81
:1068600000000000580000C6C66C6C38386C6CC65E
:10687000C600000000590000666666663C181818DD
:10688000183C000000005A0000FEC6860C1830605C
:10689000C2C6FE000000005B00003C3030303030EB
:1068A0003030303C000000005C00000080C0E07030
:1068B000381C0E0602000000005D00003C0C0C0CB1
:1068C0000C0C0C0C0C3C000000005E10386CC60078
:1068D00000000000000000000000005F0000000059
:1068E000000000000000000000FF000060303018D1
:1068F0000000000000000000000000000061000037
:10690000000000780C7CCCCCCC760000000062004B
:1069100000E06060786C66666666DC00000000631C
:1069200000000000007CC6C0C0C0C67C00000000A3
:106930006400001C0C0C3C6CCCCCCCCC7600000071
:10694000006500000000007CC6FEC0C0C67C0000E0
:106950000000660000386C6460F060606060F00009
:1069600000000067000000000076CCCCCCCCCC7CD2
:106970000CCC7800680000E060606C766666666645
:10698000E6000000006900001818003818181818F0
:10699000183C000000006A00000606000E0606060D
:1069A00006060666663C006B0000E06060666C7878
:1069B000786C66E6000000006C00003818181818A3
:1069C000181818183C000000006D0000000000ECD2
:1069D000FED6D6D6D6D6000000006E00000000001D
:1069E000DC666666666666000000006F00000000F8
:1069F000007CC6C6C6C6C67C000000007000000051
:106A00000000DC66666666667C6060F0007100000F
:106A100000000076CCCCCCCCCC7C0C0C1E007200E0
:106A200000000000DC7662606060F000000000732F
:106A300000000000007CC660380CC67C000000002E
:106A4000740000103030FC30303030361C00000054
:106A500000750000000000CCCCCCCCCCCC76000083
:106A6000000076000000000066666666663C18005E
:106A7000000000770000000000C6C6C6D6D6FE6C37
:106A800000000000780000000000C66C3838386C48
:106A9000C600000000790000000000C6C6C6C6C6D9
:106AA000C67E060CF8007A0000000000FECC18300C
:106AB00060C6FE000000007B00000E181818701859
:106AC0001818180E000000007C0000181818180094
:106AD0001818181818000000007D00007018181809
:106AE0000E1818181870000000007E000076DC00F8
:106AF0000000000000000000000000000000000096
:106B0000000000000000000000040404040404006D
:106B100004000000140A0A00000000000000000049
:106B20000014143F140A3F0A0A000000041E150551
:106B3000060C14150F0400000012150D0A142C2A5F
:106B40001200000000040A0A1E1515093600000094
:106B500002020100000000000000000020100808F0
:106B6000080808081020000002040808080808089F
:106B700004020000000004150E0E150400000000C1
:106B8000000404041F0404040000000000000000CE
:106B90000000000002020100000000001F000000D1
:106BA00000000000000000000000000002000000E3
:106BB000100808080404020202010000000E11116E
:106BC000111111110E000000000406040404040455
:106BD0000E000000000E1111080402011F00000049
:106BE000000E11100C1010110E00000000080C0A0D
:106BF0000A091E0818000000001F01010F101011E3
:106C00000E000000000E09010F1111110E0000000E
:106C1000001F09080404040404000000000E111100
:106C20000E1111110E000000000E1111111E101294
:106C30000E0000000000000400000000040000003E
:106C400000000000040000000404000020100804FC
:106C500002040810200000000000001F00001F00B8
:106C600000000000020408102010080402000000C8
:106C7000000E11110804040004000000000E111998
:106C800015151D011E0000000004040C0A0A1E1246
:106C900033000000000F12120E1212120F0000003B
:106CA000001E1101010101110E000000000F12125F
:106CB000121212120F000000001F120A0E0A021216
:106CC0001F000000001F120A0E0A02020700000047
:106CD000001C1201013911120C00000000331212C5
:106CE0001E12121233000000001F040404040404E6
:106CF0001F000000003E08080808080809070000F7
:106D00000037120A060A0A123700000000070202C2
:106D1000020202223F000000001B1B1B1B15151561
:106D200015000000003B1216161A1A121700000078
:106D3000000E1111111111110E000000000F12129E
:106D40000E02020207000000000E111111111719A6
:106D50000E180000000F12120E0A12123700000067
:106D6000001E1101060810110F000000001F15047D
:106D7000040404040E000000003312121212121256
:106D80000C000000003312120A0A0C040400000078
:106D9000001515150E0A0A0A0A000000001B0A0A4F
:106DA00004040A0A1B000000001B0A0A040404046D
:106DB0000E000000001F0908040402121F0000005A
:106DC0001C04040404040404041C00000202020461
:106DD00004080808100000000E0808080808080841
:106DE000080E0000040A000000000000000000007F
:106DF000000000000000000000003F000400000050
:106E00000000000000000000000000000C121C1236
:106E10003C000000000302020E1212120E000000DD
:106E2000000000001C1202021C00000000181010DC
:106E30001C1212123C000000000000000C121E0286
:106E40001C000000003804041E0404041E0000009E
:106E5000000000003C120C021E221C000003020273
:106E60000E12121237000000000400000604040491
:106E70000E000000000800000C08080808080700C1
:106E8000000302023A0A0E12370000000007040451
:106E9000040404041F000000000000000F15151575
:106EA00015000000000000000F1212123700000051
:106EB000000000000C1212120C0000000000000084
:106EC0000F1212120E020700000000001C12121214
:106ED0001C103800000000001B0602020700000022
:106EE000000000001E020C101E0000000000040440
:106EF0000E04040418000000000000001B1212120F
:106F00003C0000000000000037120A0C04000000E2
:106F10000000000015150E0A0A0000000000000025
:106F20001B0A040A1B0000000000000037120A0CB4
:106F300004040300000000001E0804041E000000FA
:106F400018080808040808080818000808080808AD
:106F500008080808080808000604040408040404D3
:106F600004060002251800000000000000000000D8
:106F70000000000000000000000000000000000011
:106F80000000080808080808080000181800000099
:106F9000486C241200000000000000000000000007
:106FA00000002424247F1212127F1212120000000B
:106FB00000081C2A2A0A0C1828282A2A1C0808005B
:106FC000000022251515152A58545454220000009B
:106FD00000000C1212120A76252911916E00000091
:106FE000060604030000000000000000000000008E
:106FF0004020101008080808080810102040000061
:1070000002040808101010101010080804020000F4
:1070100000000008086B1C1C6B0808000000000042
:10702000000000080808087F0808080800000000A1
:10703000000000000000000000000006060403003D
:1070400000000000000000FE000000000000000042
:107050000000000000000000000000060600000024
:1070600000804040202010100808040402020000A4
:1070700000001824424242424242422418000000CA
:107080000000080E08080808080808083E0000006C
:1070900000003C4242422020100804427E000000D2
:1070A00000003C4242201820404042221C000000C8
:1070B0000000203028242422227E20207800000096
:1070C00000007E0202021A26404042221C000000FC
:1070D0000000382402021A2642424224180000000E
:1070E00000007E222210100808080808080000008E
:1070F00000003C4242422418244242423C0000002C
:107100000000182442424264584040241C00000001
:10711000000000000018180000000018180000000F
:107120000000000000000800000000000808040043
:107130000000402010080402040810204000000055
:1071400000000000007F0000007F00000000000041
:107150000000020408102040201008040200000073
:1071600000003C4242464020101000181800000069
:1071700000001C225A555555552D42221C00000076
:1071800000000808181414243C224242E7000000C2
:1071900000001F2222221E22424242221F00000023
:1071A00000007C4242010101010142221C0000005A
:1071B00000001F2242424242424242221F0000007F
:1071C00000003F4212121E12120242423F00000013
:1071D00000003F4212121E121202020207000000BB
:1071E00000003C2222010101712122221C0000002A
:1071F0000000E7424242427E42424242E700000033
:1072000000003E0808080808080808083E000000BA
:1072100000007C10101010101010101010110F0032
:1072200000007722120A0E0A1212222277000000B2
:107230000000070202020202020202427F00000076
:10724000000077363636362A2A2A2A2A6B000000B2
:107250000000E346464A4A5252526262470000002A
:1072600000001C2241414141414141221C000000DB
:1072700000003F424242423E02020202070000007A
:1072800000001C2241414141414D53321C6000002D
:1072900000003F4242423E1212222242C70000003A
:1072A00000007C4242020418204042423E0000009E
:1072B00000007F4908080808080808081C000000AA
:1072C0000000E74242424242424242423C00000049
:1072D0000000E74242222424141418080800000089
:1072E00000006B49494949555536222222000000C9
:1072F0000000E7422424181818242442E700000064
:107300000000772222141408080808081C00000056
:1073100000007E2120101008040442423F000000BB
:10732000780808080808080808080808087800000D
:107330000002020404080808101020202040400029
:107340001E1010101010101010101010101E000041
:1073500038440000000000000000000000000000B1
:107360000000000000000000000000000000FF001E
:1073700006080000000000000000000000000000FF
:107380000000000000003C4278444242FC00000043
:107390000000030202021A26424242261A0000009E
:1073A00000000000000038440202024438000000DF
:1073B000000060404040784442424264D8000000EF
:1073C0000000000000003C427E0202423C0000003F
:1073D0000000F08808087E08080808083E00000041
:1073E0000000000000007C22221C023C42423C00C3
:1073F0000000030202023A4642424242E700000015
:1074000000000C0C00000E08080808083E000000F0
:1074100000003030000038202020202020221E00D4
:1074200000000302020272120A1612227700000004
:1074300000000E0808080808080808083E000000B8
:107440000000000000007F9292929292B70000002C
:107450000000000000003B4642424242E7000000BC
:107460000000000000003C42424242423C0000005A
:107470000000000000001B26424242221E020700BC
:107480000000000000007844424242447840E0009E
:10749000000000000000774C040404041F000000FA
:1074A0000000000000007C42023C40423E00000020
:1074B0000000000008083E08080808083000000026
:1074C000000000000000634242424262DC00000013
:1074D000000000000000E742242414080800000017
:1074E000000000000000EB49495555222200000031
:1074F0000000000000007624181818246E00000018
:10750000000000000000E7422424141808080700C7
:107510000000000000007E22100808447E000000E9
:10752000C0202020202010202020202020C000105B
:10753000101010101010101010101010101010005B
:107540000608080808081008080808080806000CBB
:1075500032C200000000000000000000000000D265
:10756000D100000000000000003FE0382010203073
:10757000603FE0200030011FFE07FC0038000000E3
:1075800000C1AA000000000000000000887E883DC5
:107590005024BC3C2025FE3E70E45805CC06020079
:1075A000000000BBFA000000000000000008000816
:1075B000F83E9008901C903E906990099F0B0E0831
:1075C0000000000000D4A402027FFF06302CA218A5
:1075D000FF12C67FD61BD61AD618D618D618D418BE
:1075E00038186E78C71302B3E4018000C23FFF0170
:1075F0000003A007180C0C1FFE0A340330033006EA
:107600003006320C32183F201ECDA308300DFE0C80
:107610008418FE10CC38FC3A8A5FFF1E031DFE184A
:107620003018301830183018F01020D6B90080000B
:10763000C000C000C000C008C80CFC0CC00CC00CCE
:10764000C00CC00CC00CC00CC27FFF0000CDEA0013
:107650003000001800001C0010080C1FFFFE100076
:107660001830001030006027FFF00000000000001C
:1076700000000C7FFFFE00C60000C60000C6000030
:10768000C60000C60400860401860403060602073D
:10769000FE0C03FC30000020000000000000000091
:1076A00000000000000000000000000000000000DA
:1076B00000000000000000000000000000000000CA
:1076C00000000000000000000000000000000000BA
:1076D00000000000000000000000000000000000AA
:1076E000000000000000000000000000000000009A
:1076F000000000000000000000000000000000008A
:107700000000000000000000000000000000000079
:107710000000000000000000000000000000000069
:107720000000000000000000000000000000000059
:107730000000000000000000000000000000000049
:1077400000000000000000000000000000C9EE0082
:107750000027FC140414A481104208404010401774
:10776000FC2040E0E0215022482C4620400040DB35
:10777000DA11041124112411241124FD24112411DF
:10778000241124112411241D24E124422402040480
:1077900004CAD00200010000007FFC0100010001CA
:1077A000003FF82108210821082108212821100183
:1077B000000100C8AB000000000180024004301846
:1077C0000860061FF90100010001003FF8010001F7
:1077D0000001007FFEB6AF0000000000203E200048
:1077E0007C002200227F221022102212221222224A
:1077F0004223423D82009CB5E70000010001001FCA
:10780000F0610C410441047FFC4104410441047FC8
:10781000FC01000102010201FCD7D3000000003F7F
:10782000F8001000600080010000807FFE00400032
:107830004000200020002018400780BCBC10201011
:1078400020102013FEFC201020102015FC1884307E
:1078500088D04810501020105051882606CAF501D3
:10786000000120011001107FFC0380054005400944
:10787000201110210841048102010001000100D300
:10788000D002000200FFFE040004000FF0081018F0
:10789000102FF0481088100FF0081008100850083A
:1078A00020CFDE00007BF84A08520853F8620852E5
:1078B000084BF84A444A486A3052204210428843F2
:1078C000064200B9AB0080048004800840084010E4
:1078D0002020104208820604000440082010203FA7
:1078E000F010100000CBBE00003FF8000800087F39
:1078F000E8000800081F8810881088108810881F6A
:1079000088108800280010BBB600800080FC80042E
:10791000FC050449082A401440104028A024A04532
:10792000108110020804040802D3AD000020801367
:107930003C122402240224F2241224122412B4132E
:107940002812201020282047FE0000C4FA09000950
:107950000011FC3204544899501148124414441147
:1079600040108002005104511290120FF0B4BF0079
:10797000000020102013FE202026244A247A2412FE
:1079800024222423FC7C20002204227822003CC9EB
:10799000AB0000000004000FF0102020207FFC202E
:1079A000842084208420843FF82000200220021FAD
:1079B000FECCEE00000000204023FE204079FC2297
:1079C0000423FC220423FC220423FC3A0465FA016C
:1079D000980204B3E40000010001007FFE022004CD
:1079E00010040808043FFC04420440044004420818
:1079F000421042607EBED800000000207E3E8048DB
:107A000080488048FE48827F8208820C8214FA12E5
:107A1000842280218040FED0CE000000007F84229E
:107A200008223022C0220222047FC8223022C22231
:107A3000022204220822304040BBAD000000007F3B
:107A4000FE00000FF011101110111051125FF251D1
:107A500012511251124FF240027FFCD4B2000000CA
:107A6000007FFE47E24812481247E24FF2501250A0
:107A7000125112511242924472580A3FFCCDBC007E
:107A80000000003FFE440247F24C22536240824312
:107A9000625E1A41824062430240C240223FFCC6FD
:107AA000AC000000402040204020403FFE2000204D
:107AB0000020003FE0201020102010201040104037
:107AC00010CFD4000000003FFC200420043FFC2025
:107AD0000420041FF824441448144814480C50048B
:107AE000407FFECABE000000003FFC000000000016
:107AF000007FFE0080089008881088108420842071
:107B00008240820780B2CB0000002008207FFE0068
:107B10002000783F881108089009207FFE0180032B
:107B2000400D30310C4002B5A500000010081004D3
:107B3000203FF8210421043FFC210421043FF801E7
:107B4000007FFE010001000100D6D000000100010D
:107B50000001003FFC21042104210421042104210F
:107B6000043FFC0100010001000100D3A20000005D
:107B70000008207FFE0820092001003FF82108218D
:107B80000821081FF4014002200C10700ECEC40022
:107B9000000100010000803F7C0810081004100460
:107BA00020022002400180018002601C18E006D7FC
:107BB000DB00000000102011FE2202220249FC58C6
:107BC00000300013FE2528792401240D247222029E
:107BD000A2BACF0000000001800240043018086003
:107BE000061FF800001FF8200420042004200420B1
:107BF000041FF8C1C10000010001007FFE00003F2A
:107C0000F820083FF83FF8400647C24824082008FB
:107C1000221022603EB6C80000000000803FFE44F3
:107C2000105FFC4410441043F040005FF8440842E9
:107C30003041C04360BC1EB2E20000000067C214C5
:107C40005205520552C5522552055205521552177A
:107C500052228222424442483ECAD4000000002000
:107C600014101417FE00120010601013F010901082
:107C7000901090149214EA1F0A0006B3CC00000082
:107C80000019FE7202120212027DFC18001BFE3463
:107C900020502053FE10201020102013FED0F200A0
:107CA00000000000803FFE400047FC420841304099
:107CB000C05FFE404240424044404840404440B5DE
:107CC000F70000000023FE122202FA0222E2221232
:107CD000FE1272128A128A128A16BA1A421202040A
:107CE0000EB9E20000010001041108090809100999
:107CF000207FFE0440044004400440084208421033
:107D000042607CB0E60000000048FE49004900499E
:107D1000007EFE418241447944452845284510456E
:107D20002846440382C8A800001000100013FC7D00
:107D3000041104190418843488504850501020103D
:107D400050108813041402CBF9000000003F7C207F
:107D50004020403E40227E2244224422443E842051
:107D6000842084408441044204C6C100003FF820BE
:107D70000820083FF8241022202FF8222022203F3C
:107D8000FC22204220442084200820C4BB04407FE1
:107D9000FC04401FF010101FF010101FF00400FF33
:107DA000FE11103FF8D116115011200100D0FD2016
:107DB00080108010FE0100FE0021FC20243C2424C1
:107DC000A024A024BC24A024A04560553E8A00D74E
:107DD000AA202020202020FDFC4020504093FEFCC3
:107DE00040108011FC1C04F088505010201010101E
:107DF00010BFAA00007FFC082008200820082008E7
:107E000020FFFE0820082008200820102010202035
:107E1000204020D4B4000027FE1420144085FC45E7
:107E20000445FC150415FC2524E42024A829242A53
:107E30002230A00040D2BA0080204017FE112081DD
:107E400020423C4244166412942348E248223022E5
:107E500020225022880306BEA70FE0082008200F2A
:107E6000E0082008200FE000007EFC428442847E6F
:107E7000FC428442847EFC4284CDF800007FFC40BA
:107E8000044004421452944A54442444244A544A18
:107E90005452946104400440144008D5BE10200898
:107EA0002008207E20003E04204420442025FC2978
:107EB0000429040F04F104410401FC0104B0B410CE
:107EC000401020102013FEFA02144410401BFE3014
:107ED00088D088110810D01020105050882304BC7E
:107EE000FC201020103B7C211441FE7A14A27C2738
:107EF00010F97C251025FE22102A10350028FE00DE
:107F000000D0A310401020102011FEFC001088317A
:107F1000043A02548850889050105010201050108D
:107F2000881306D7BC01404120212023FE022016E1
:107F3000201BFC1220222023FCE2202220222023CE
:107F4000FE22000200B4A520202020782049FC91C8
:107F5000247D24552455247DFC552454207C28540C
:107F60002457FE45028C00C3FE1110111017FC119E
:107F700010FC0013F8120817F81A0833F8D040174D
:107F8000FC10A0111052082406C9EE0000000000E9
:107F9000001000000800080C7FFC04401001C8A07D
:107FA00002186042301832231812C3001403000470
:107FB000030C047FF0080F80080B4078136018331F
:107FC0002018631818831C19030818030000030005
:107FD000000000DBDA00000000000004100C0418B0
:107FE0000C04108C04108C04108C04108C04D08CA5
:107FF0003F108C04108C04108C04108C04108C0422
:10800000108C04108C05F08C0E208C78208C204075
:108010008C00808C01000C02000C000000CAD00013
:1080200000000000000030000018000018080000E8
:108030001C1FFFE000180000182007FFF0041820A4
:108040000418200418200418200418200418200400
:1080500018200418200418200418E0041840001800
:1080600000001800000000D6D00000000000000052
:1080700000000000000018000018000018000018A0
:10808000003FFFFE3018063018063018063018067C
:108090003018063FFFFE30180600180000180000D8
:1080A0001800001800001800000000000000000088
:1080B00000CEC400000000000000000000380000F6
:1080C0001C00000600FFFFFF060030060030030022
:1080D000600300600180C000C18000E30000360042
:1080E000001C0000770003C1E01E003C6000070098
:1080F0000000000000000000000000B2E2000000EC
:1081000000000000000000000040000321FF3339A0
:108110008333118333019B33C19B33719B33199B91
:1081200033019B33019B33119B3319B3333030330D
:10813000306C0330C6036383032E01BE00000000D1
:108140000000000000CAD400000000000000000091
:108150000000004000D83000CE1800C21C00C00152
:10816000FFFF0000C0F800C01800C019FFC01818B9
:10817000401818601918601B18611E18311C1FB1B7
:1081800039F01910000F000000000000000000D7B7
:10819000D60000000000060000000300000000C040
:1081A000000001C0C0000107C00001FF00021FFE67
:1081B0000007F01C0007C070000F00E0000E03F085
:1081C000001C0FF0003C0F70003C00E0001800C0E5
:1081D000000000C0000000C000000060000000209F
:1081E00000000037000001FF00007FF80007F830B2
:1081F000001F8030000080300000C0300000606050
:10820000000018E000000FC00000060000000000A1
:1082100000CCE50000000000000000000000C000ED
:108220000000E0002001B800703FF80061FFC000CE
:10823000C3030001C60600038C060003080C0006F9
:10824000080C000E18183F1E101BF31F903F07006C
:10825000803C1C0190707C019060FE01A0C3F8017D
:10826000A00FD803A00818036000180340001803EB
:10827000C000180380001803000018000000180058
:10828000000010000000300000003000000000007E
:10829000000000B2E200000000000000000000004A
:1082A0000000000000020C1008071FF80403BFF0D4
:1082B0000201BC300303EC3003015C600300D860B2
:1082C0000300D860038098620361B8430771B1432B
:1082D00006313243063376C3063A64C7063EECC025
:1082E000063E78C0063C3040067C70000678E060B0
:1082F000067BFFF006F7C00006E400000640000021
:1083000006000000060000007C00008FF000007CEA
:108310000000000000CAD4000000000000000000BF
:1083200000000000003F0000007F8000000180008E
:108330000000C0000000C0000000CE038000CFFF9E
:10834000C000DD41800FFE0007FFFC000C00F000C4
:10835000180FC03E19FF40F311BC6083307FE0036B
:10836000B1FE20033380200370003003600010034F
:1083700060001807C0000C07C0000407800002015D
:1083800000000300000001000000000000000000E9
:108390000000000000000000FFFFFFFFFFFFFFFFE5
:1083A000FFFFFFFFFFFFFFFFFFFFFFFFFFFFFFFFDD
:1083B000FFFFFFFFFFFFBEF7FFFFDEFF38C6928C17
:1083C0008E6B6E6B107C96AD3CE7FFFFFFFFFFFFEF
:1083D000FFFFFFFFFFFFFFFFFFFFFFFFFFFFFFFFAD
:1083E000FFFFFFFFFFFFFFFFFFFFFFFFFFFFFFFF9D
:1083F000FFFFFFFFFFFFFFFFFFFFFFFFFFFFFFFF8D
:10840000FFFFFFFFFFFF5DEF159D4F636C420A32D8
:108410008829461925194521E8318E6B38C6FFFF9A
:10842000FFFFFFFFFFFFFFFFFFFFFFFFFFFFFFFF5C
:10843000FFFFFFFFFFFFFFFFFFFFFFFFFFFFFFFF4C
:10844000FFFFFFFFFFFFFFFFFFFFFFFFFFFFFFFF3C
:10845000FFFFFFFF36A51053104B51530F4B6C3AE3
:10846000E93167212519E410A30862008308CB5283
:108470009AD6FFFFFFFFFFFFFFFFFFFFFFFFFFFF9A
:10848000FFFFFFFFFFFFFFFFFFFFFFFFFFFFFFFFFC
:10849000FFFFFFFFFFFFFFFFFFFFFFFFFFFFFFFFEC
:1084A0003CE77063B363B87CF56311434D32EA294E
:1084B000882126190519051904110411E4108300F7
:1084C000A308728CFFFFFFFFFFFFFFFFFFFFFFFF0F
:1084D000FFFFFFFFFFFFFFFFFFFFFFFFFFFFFFFFAC
:1084E000FFFFFFFFFFFFFFFFFFFFFFFFFFFFDBDEE1
:1084F0004B3AF042356C544BB1322E2AEB21A92174
:108500006719051904110411041104110411051946
:10851000E4104200AF73FFFFFFFFFFFFFFFFFFFF0D
:10852000FFFFFFFFFFFFFFFFFFFFFFFFFFFFFFFF5B
:10853000FFFFFFFFFFFFFFFFFFFFFFFF5DEF0932C0
:108540004C32104B8F324F2A2E2ACC19891989218F
:108550004719051904110411C410C41004110411A1
:108560000411E41042003184FFFFFFFFFFFFFFFF13
:10857000FFFFFFFFFFFFFFFFFFFFFFFFFFFFFFFF0B
:10858000FFFFFFFFFFFFFFFFFFFFFFFFEC52471959
:108590004C320B2AEC21EC210C22915BEE4A0611A5
:1085A00026190419E410E410A7296621A308051967
:1085B00004110411E4108200F7BDFFFFFFFFFFFF6D
:1085C000FFFFFFFFFFFFFFFFFFFFFFFFFFFFFFFFBB
:1085D000FFFFFFFFFFFFFFFFFFFF35A58308882197
:1085E00088218921AA218A216B42718CFFFF728C1C
:1085F00083080411C4082942FBDE5DEFEC5A8308AE
:108600000411041104118308E831DFFFFFFFFFFFAD
:10861000FFFFFFFFFFFFFFFFFFFFFFFFFFFFFFFF6A
:10862000FFFFFFFFFFFFFFFFBEF7C731C410251993
:10863000261947194719A8298A52284A55ADFFFF1C
:10864000E831A30805194D6B4D6BFFFF7DEF452108
:10865000C410041104110411620076ADFFFFFFFF86
:10866000FFFFFFFFFFFFFFFFFFFFFFFFFFFFFFFF1A
:10867000FFFFFFFFFFFFFFFF96B562000411041923
:1086800005110519C4088B4AB6B55DEFF7BDFFFFAC
:108690008E6B62002942AA5A0842FFFFFFFFCC52AC
:1086A0008308041104110411A308AD52FFFFFFFF5A
:1086B000FFFFFFFFFFFFFFFFFFFFFFFFFFFF1CE7C5
:1086C000FFFFFFFFFFFFFFFF4E6362000411041175
:1086D0000411E41062008E63FFFFFFFFFFFFFFFF46
:1086E000CF730100F39C2C6396B5FFFFFFFF2D5B5A
:1086F0008300041104110411E41067213DEFFFFF12
:10870000FFFFFFFFFFFFFFFFF8BDB7B59EEFCB52A6
:10871000B394FFFFFFFFDFFFE831A308041104114A
:1087200004110411A3084942FFF7FFF7FFFFFFFF01
:108730006A4A01007284FFFFFFFFFFF7DFEF093A8B
:10874000A3080411041104110411051118BEFFFF40
:10875000FFFFFFFFFFFFFFFFF07B6200E831C73143
:10876000410035A5FFFF5DEF4621C410041104113F
:1087700004110411E410A308769DFFF7FFFFB7ADC5
:10878000A308A308C7319EE7FFF7FFF776A5A30864
:10879000E4100411041104110511051135A5FFFFA2
:1087A000FFFFFFFFFFFFFFFFDBDEA7298300C410F1
:1087B000C410C4101CE79EEF0511E410041104114D
:1087C000041104110419C408E510D16BD16BC5085C
:1087D0006400A50843002B32779DB3842519C4108B
:1087E000041104110411041125192609359DFFFFF8
:1087F000FFFFFFFFFFFFFFFFFFFFAF7362000419E2
:10880000051982000D5B8E9B621005110411041185
:108810000419E41085000511C439815A407B229C5B
:1088200043AC03A4839B82728249C218A400C50092
:10883000E41004190411051947196711EC5ABEFF19
:10884000FFFFFFFFFFFFFFFFDFFFDBDEC410E410D1
:1088500004110511A41801C08388E4000519041946
:10886000C5084421438323D542FEE4FE27FF07FFCA
:10887000A4FE64FE03FEA3FDE2FC42EC83B324628B
:10888000E510C40804192619A81987210090D3BC43
:10889000FFFFFFFFFFFFFFFFDFFFFFFF107C420036
:1088A00005190511832801D044F8A348E400C50840
:1088B000445A02EDE2FD02FE66FE74FFB8FF73FF4C
:1088C000E7F6A6F645F6A4F5C3FC62FCC2FCC2FCC2
:1088D000E3CBC449061188198701A49001F8EC9AEA
:1088E000FFFFFFFFFFFFFFFFFFFFFFFFBEF7E831C6
:1088F00083000509824001C023F885F0A348A40045
:10890000445A02FD23CCC2DC04FE28FE48F646F69B
:1089100024F6E4F564FDE3FC62FCC2FC02E402DC44
:10892000E2FCA47A48016701C47824F802F884B014
:108930007DE7FFFFFFFFFFFFFFFFFFFFFFFFDBDE26
:108940002519A300C43802E022D844F8A6F8A47878
:108950006300432183728339829B21F561FD22FDEF
:10896000E2FCA2FC42FC42FC42FC22AB8341C392EB
:10897000045226012519A49844F823F802F8A4D03B
:108980009EEFFFFFFFFFFFFFFFFFFFFFFFFFFFFF68
:108990009AD68729A50043B822F823E065F8E8F8BD
:1089A00007C983484200A30084006329A27A62B306
:1089B000A2CB62D302BB828A8339A400E500E50022
:1089C000E508C46064D844F824F823F802F88388E2
:1089D000DBC6FFFFFFFFFFFFFFFFFFFFFFFFFFFF04
:1089E000FFFF3DE7505B083123E843F844F065F8AA
:1089F00009F9ABF989D10689A3484218020042005F
:108A000061008200620062008300A320C450A58838
:108A100085D865F844F844F823F823F803D0821089
:108A2000C7295DEFFFFFFFFFFFFFFFFFFFFFFFFF16
:108A3000FFFFFFFFFFFF6C32A53802D823F865F86F
:108A400066F8A7F84AF90CFA4DFA4CEA0BD2A9B924
:108A500068B147A927B107B907D1E7E8C7F8A7F870
:108A600065F865F844F823F803F802D0A32805094F
:108A7000C408EC5AFFFFFFFFFFFFFFFFFFFFFFFFF0
:108A8000FFFFFFFFFBDE0519C400A741E6C003F8A6
:108A900086F8A7F887F886F8C7F829F98AF9ABF9B4
:108AA000ABF98BF96AF929F908F9C7F8A6F886F83D
:108AB00065F864F823F802F006B12529E400E41013
:108AC00025192519149DFFFFFFFFFFFFFFFFFFFF83
:108AD000FFFFFFFF96AD620082083595BACE8BA2EC
:108AE00044D025F887F8A7F8C7F8A7F887F886F8DC
:108AF00086F886F887F8A7F8A7F8A6F885F865F845
:108B000064F824F064B80D93BBB6CF6383080411F6
:108B1000E4106621493A5DEFFFFFFFFFFFFFFFFF13
:108B2000FFFFFFFFD3944200E410BBCEFFFFBEE780
:108B300076B5CCAA07C145E045F846F866F886F850
:108B400086F886F886F865F845F865F865E844D053
:108B500043A8018882903CD7FFEF55958308041104
:108B6000041105194619B394FFFFFFFFFFFFFFFF34
:108B7000FFFFFFFFB394410086215DDFFFFFFFFF92
:108B8000FFFFDFE77AC6D3B44EB32AC268D1E6E06E
:108B9000A6E8A5E8A5E8E6D888C906A922A802A8FB
:108BA00000A000C800D8F7E5FFE7F8ADC410E41056
:108BB0000411E41005118B4AFFFFFFFFFFFFFFFFC9
:108BC000FFFFFFFF55A54100A7295DDFFFF7FFFF6E
:108BD000FFFFFFFFFFFFFFFFFFEF7DDFDBCE59CE83
:108BE000F8CDD7CDF7C579CEFBBEABA203F045F8E3
:108BF00042D043E800F072D4FFDF39AEE410E41055
:108C00000411E41005118729FFFFFFFFFFFFFFFF9D
:108C1000FFFFFFFF59CE830846211CD7FFF7FFFF58
:108C2000FFFFFFFFFFFFFFFFFFFFFFFFFFFFFFFF54
:108C3000FFFFFFFFFFFFFFFFFFEF8BBA04F845F8D0
:108C400062E044F000F88EDBFFDFF8A5C410E4100A
:108C5000E4100411E4102519FFFFFFFFFFFFFFFFE1
:108C6000FFFFFFFFBEF78729830839B6FFF7DFF75D
:108C7000FFFFFFFFFFFFFFFFFFFFFFFFFFFFFFFF04
:108C8000FFFFFFFFFFFFFFFFBEE74ABA03F845F80B
:108C900064F844F800F86EE3FFD7F48C83080411FD
:108CA000E410E410E4100519FFFFFFFFFFFFFFFFD2
:108CB000FFFFFFFFFFFFEF7300007284FFEFBEEFC7
:108CC000DFFFFFFFFFFFFFFFFFFFFFFFFFFFFFFFD4
:108CD000FFFFFFFFFFFFFFFFDFE78BBA03F845F859
:108CE00045F823F800F8D3D4FFD74E5B2100293A8A
:108CF00055A58308C4102519FFFFFFFFFFFFFFFFE5
:108D0000FFFFFFFFFFFFFBDEA308E8319EDF9EE7CA
:108D1000BFEFFFFFFFFFFFFFFFFFFFFFFFFFFFFFB3
:108D2000FFFFFFFFFFFFFFFFFFF751BC02E003F86B
:108D300003F043E0ECC27ECFFCBE46212100D39479
:108D4000FFFF518400008729FFFFFFFFFFFFFFFFA8
:108D5000FFFFFFFFFFFFFFFF51840000F48CFFEFD8
:108D60009EE7BFEFDFFFFFFFFFFFFFFFFFFFFFFFFC
:108D7000FFFFFFFFFFFFFFFFFFFF3DDF55BD52BCC1
:108D800072BCB7B55DC7FFDFF06B0000093ABFF7F3
:108D9000FFFFFFFF149D55A5FFFFFFFFFFFFFFFF34
:108DA000FFFFFFFFFFFFFFFFFFFFAC4AA408BBBEB2
:108DB000DFE77EE7BEEFDFF7DFFFFFFFFFFFFFFF2D
:108DC000FFFFFFFFFFFFFFFFDFFFDFF7FFEFDFDF4B
:108DD000BFD79ED7DFDFD8A583082611DBD6FFFFDC
:108DE000FFFFFFFFFFFFFFFFFFFFFFFFFFFFFFFF93
:108DF000FFFFFFFFFFFFFFFF79EE8BDC2131A92191
:108E00003DCFBFDF7EDF9EE7BEEFBFEFDFF7DFF7CF
:108E1000DFF7DFF7DFF7BFEFBEEF9EE77EDF5ED75E
:108E20005ED7DFDF9AB626194208EDA3BFFFFFFF2A
:108E3000FFFFFFFFFFFFFFFFFFFFFFFFFFFFFFFF42
:108E4000FFFFFFFFFFFF74DDC0DB00FE42EE0242CA
:108E500089217BB6DFDF7ED77EDF7EDF9EE79EE760
:108E60009EE79EE79EE77EDF7EDF5DD75DD79EDFD4
:108E7000FFE7F8A50711E31802C560FDE6D3DBEEB6
:108E8000FFFFFFFFFFFFFFFFFFFFFFFFFFFFFFFFF2
:108E9000FFFFFFFF9EF784BAC1FC42FE82FEA2FEE6
:108EA0008183452174745EC7DFDF7ED75ED75DD7CF
:108EB0005ED75ED75DD75DD75ED79EDFFFE73DC744
:108EC000F1638408425226E629FF86FEE0F36AC376
:108ED000FFFFFFFFFFFFFFFFFFFFFFFFFFFFFFFFA2
:108EE000FFFFFFFF18DEC1D2A2FD22FE42FE42FEBE
:108EF00062FEE2D4416A494253743BA63EC7BFD7E3
:108F0000BFD7BFD7BFDFBFD73EC71AA6F263A72917
:108F1000824122B462FE83FEAAFE0FFF67FD63BAA0
:108F20003CEFFFFFFFFFFFFFFFFFFFFFFFFFFFFF24
:108F3000FFFFFFFF9AE680D221FDC2FDE2F5C2F5F8
:108F400082F582FD62FD61DC219B846AE96A2C6303
:108F5000AF6311746E632C63895A0452817AC2CB59
:108F6000E2FC62FD82FDC2FDC2FDE4FD24FD62CA99
:108F70001CE7FFFFFFFFFFFFFFFFFFFFFFFFFFFFFC
:108F8000FFFFFFFFFFFFB1CC81D2C0F3C1FC02FDA8
:108F900002FDE2FCC2FCC2FC81FC80FBC0C9A481D2
:108FA00035AD59CE719C218100DAA1FB82FCA2FC77
:108FB00082FCA2FC02FD22FDE2FC00FC60DA90CC07
:108FC000FFFFFFFFFFFFFFFFFFFFFFFFFFFFFFFFB1
:108FD000FFFFFFFFFFFFFFFF59DE0DC406CBE4D20A
:108FE00003DB03DBE3DAC3D2A4C209B3D2BC9EF72E
:108FF000FFFFFFFFFFFFFBE60EB4A6BA83D2E3E25A
:1090000002EB22EB22E303DBE4D26AC3B6D5FFFF17
:10901000FFFFFFFFFFFFFFFFFFFFFFFFFFFFFFFF60
:10902000FFFFFFFFFFFFFFFFFFFFFFFFFFFFFFFF50
:10903000FFFFFFDFFFDFFFFFFFFFFFFFFFFFFFFF80
:10904000FFFFFFFFFFFEFFFFFFFFFFFFFFFFFFFF31
:10905000FFFFFFFFFFFFFFFFFFFFFFFFFFFFFFFF20
:10906000FFFFFFFFFFFFFFFFFFFFFFFFFFFFFFFF10
:10907000F7FFF7FFF7FFF7FFFFFFFFFFFFFFFFFF20
:10908000FFFFFFFFFFFFFFFFFFFFFFFFFFFFFFFFF0
:10909000FFFFFFFFFFFFFFFFFFFEFFFFFFFFFFFFE1
:1090A000FFFFFFFFFFFFFFFFFFFFFFFFFFFFEFFFE0
:1090B000E7FFB75FB75FD7FFEFFFF7FFFFFFFFFFE8
:1090C000FFFFFFFFFFFFFFFFFFFFFFFFFFFFFFFFB0
:1090D000FFFFFFFFFFFFFFFFFFFEFFFFFFFFFFFFA1
:1090E000FFFFFFFFFFFFFFFFFFFEFFFFF7FFE7FFB1
:1090F0006D173C553C554C55C73FEFFFEFFFF7FF51
:10910000FFFFFFFFFFFFFFDFFFFFFFFFFFFFFFFF8F
:10911000FFFFFFFFFFFFFFFFFFFFFFFFFFFFFFFF5F
:10912000FFFFFFFFFFFFFFFFFFFFFFFFEFFF8DFAD6
:1091300044548EFFAF9F65175434D7FFE7FFEFFF0E
:10914000EFFFF7FFFFFFFFFFFFFFFFFFFFFFFFFF47
:10915000FFFFFFFFFFFFFFFFFFFFFFFFFFFFFFFF1F
:10916000FFFFFFFFFFFFFFFFFFFFF7FFE7FF6D3789
:109170005D599F9FAF7FAF5F4C55AF7FBF9F857895
:109180008557DFBFF7DFFFFFFFFFFFFFFFFFFFFF99
:10919000FFFFFFFFFFFFFFFFFFFFFFFFFFFFFFFFDF
:1091A000FFFFFFFFFFFFFFFFFFFFF7DFE7FF6D5848
:1091B000555A5D9B6558AF7F3C35A75FA73F6D371C
:1091C00074F7CF5FF7FFFFDFFFFFFFFFFFFFFFFF3A
:1091D000FFFFFFFFFFFFFFFFFFFFFFFFFFFFFFFF9F
:1091E000FFFFFFFFFFFFFFFFFFFFFFFFE7FF6D58E0
:1091F000557B557B5D59AF7F3C56A79FC7FF8E5C63
:109200009E7DDFFFF7FFFFFFFFFFFFFFFFFFFFFF79
:10921000FFFFFFFFFFFFFFFFFFFFFFFFFFFFFFFF5E
:10922000FFFFFFFFFFFFFFFFFFFFFFFFEFFF6D38B7
:10923000557B4D7C5D5BAF7F3C35AF7F9EDF4C3413
:1092400053F3CF7FF7FFFFFFFFFFFFFFFFFFFFFF9E
:10925000FFFFFFFFFFFFFFFFFFFFFFFFFFFFFFFF1E
:10926000FFFFFFFFFFFFFFFFFFFFFFFFE7FF6D397E
:10927000557C4D7C5D5BAF7F4456AF7FCFFFB75FC2
:10928000BF7FE7FFF7FFFFFFFFFFFFFFFFFFFFFFCE
:10929000FFFFFFFFFFFFFFFFFFFFFFFFFFFFFFFFDE
:1092A000FFFFFFFFFFFFFFFFFFFFF7FFE7FF65394E
:1092B000557B557C655AAF5F4435AF7F9EDF4C14BC
:1092C0005413BF1EF7FFFFFFFFFFFFFFFFFFFFFF6E
:1092D000FFFFFFFFFFFFFFFFFFFFFFFFFFFFFFFF9E
:1092E000FFFFFFFFFFFFFFFFFFFFF7FFDFFF6559F6
:1092F000557B557C655AAF7F3C36AF9FCFFFB77F1C
:10930000B77FDFFFF7FFFFFFFFFFFFFFFFFFFFFF5D
:10931000FFFFFFFFFFFFFFFFFFFFFFFFFFFFFFFF5D
:10932000FFFFFFFFFFFFFFFFFFFFF7FFE7FF6539CD
:10933000557B4D7C5D5AA77F34369F7F8EBF4C5541
:109340004413C79FF7FFFFFFFFFFFFFFFFFFFFFF74
:10935000FFFFFFFFFFFFFFFFFFFFFFFFFFFFFFFF1D
:10936000FFFFFFFFFFFFFFFFFFFFF7FFE7FF6D3985
:10937000557B4D7B5D5AA77F3C76A79FBFFF969E8E
:10938000969EDFFFF7FFFFFFFFFFFFFFFFFFFFFFDF
:10939000FFFFFFFFFFFFFFFFFFFFFFFFFFFFFFFFDD
:1093A000FFFFFFFFFFFFFFFFFFFFF7FFE7FF6D3846
:1093B0005D7B557B5D59A77F3C35A79F9F1F5476EA
:1093C0005C95CF9FFFFFFFDFFFFFFFFFFFFFFFFF6A
:1093D000FFFFFFFFFFFFFFFFFFFFFFFFFFFFFFFF9D
:1093E000FFFFFFFFFFFFFFFFFFFFF7FFE7FF6D3806
:1093F0005D5A5D5A6559AF7F3C55A77FBF9F9E3B25
:109400009E3BDFBFFFFFFFFFFFFFFFFFFFFFFFFFF1
:10941000FFFFFFFFFFFFFFFFFFFFFFFFFFFFFFFF5C
:10942000FFFFFFFFFFFFFFFFFFFFF7FFE7FF6D38C5
:10943000653A6D9B7558B77F3C35AF7FE7FFF7FF07
:10944000F7FFFFFFFFFFFFFFFFDFFFFFFFFFFFFF54
:10945000FFFFFFFFFFFFFFFFFFFFFFFFFFFFFFFF1C
:10946000FFFFFFFFFFFFFFFFFFFFF7FFDFFF54B727
:1094700075BBC7FFD7FFC75F4414B79FE7FFF7FF70
:10948000F7FFEFFFF7FFF7FFFFFFFFFFFFFFFFFF14
:10949000FFFFFFFFFFFFFFFFFFFFFFFFFFFFFFFFDC
:1094A000FFFFFFFFFFFFFFFFFFFFEFFF75DB3C56F6
:1094B000AF3FDFFFE7FFE7FFBFBFBFDFBF7FDFFFDC
:1094C000DFFFBF7FCFDFE7FFF7FFF7FFFFFFFFFF04
:1094D000FFFFFFDFFFDFFFFFFFFFFFFFFFFFFFFFDC
:1094E000FFFFFFFFFFFFFFFFEFFF85B93C557E7ECB
:1094F000C7FF963A9DD8E7FFB77F4C3464B65C54FB
:109500005C745C954C14B71FF7FFFFFFFFFFF7FF7C
:10951000FFFFFFFFFFFFFFFFFFFFFFFFFFFFFFFF5B
:10952000FFFFFFFFFFFFEFFFAF5F3C76867DA77F6A
:1095300044B744356CB5DFFF863D6D7ADFFFC71E4B
:10954000C71EE7FF757A8DFCF7FFFFFFFFFFFFFFE8
:10955000FFFFFFFFFFFFFFFFFFFFFFFFFFFFFFFF1B
:10956000FFFFFFFFFFFFEFFF65BB44F9C7FF4C752F
:1095700054F8C7FFDFFFCFDF5CD79EDFCFFFB6FE1B
:10958000DFDFDFFFA6DF5455DFBFF7FFFFDFFFFFA1
:10959000FFFFFFFFFFDFFFDFFFFFFFFFFFFFFFDF3B
:1095A000FFFFFFFFFFFFEFFF4497663FA7BF445554
:1095B000AEDEDFFFCFFF54758599DFFF5CF854D72F
:1095C0004C75D7FFDFFF8DB95475C7BFEFFFFFFFA5
:1095D000FFFFFFFFFFFFFFFFFFFFFFFFFFDFFFDFDB
:1095E000FFFFFFFFFFFFEFFF3C35769F9F7F443477
:1095F000B6FEDFFFAF7F4435D7FFBF7F3C55C7FFC7
:109600005D18B75FE7FFD7FF4C33B77FEFFFFFFF72
:10961000FFFFFFFFFFFFFFFFFFFFFFFFFFFFFFFF5A
:10962000FFFFFFFFFFFFEFFF54D8555BCFFF5475DF
:109630005D18BFFFCFFF5CF964F8C7FF5CF7549576
:109640005454D7FFD7FF5C748577EFFFF7FFFFFF18
:10965000FFFFFFFFFFFFFFFFFFFFFFFFFFFFFFFF1A
:10966000FFFFFFFFFFFFEFFF8E5D3C76B7BFA71F39
:109670004CB73C3664F98E5D655A96BFC7FFAF5F45
:10968000D7FFD7FF8E3D6D18EFFFF7FFF7FFFFFF06
:10969000FFFFFFFFFFFFFFFFFFFFFFFFFFFFFFFFDA
:1096A000FFFFFFFFFFFFF7FFD7FF4C555D39B7FF07
:1096B000B7DF965D7D59AF1F865D54F8A73F8E7F5B
:1096C000865EA75F5CF8965CF7FFFFFFFFFFFFFF7A
:1096D000FFFFFFFFFFFFFFFFFFFFFFFFFFFFFFFF9A
:1096E000FFFFFFFFFFFFF7FFEFFFC79F4C963C56C2
:1096F000861CB75FB77FB75FBFBF653854557D9B8A
:109700007DDB4C757558D7FFF7FFFFFFFFFFF7FFB5
:10971000FFFFFFFFFFFFFFFFFFFFFFFFFFFFFFFF59
:10972000FFFFFFFFFFFFFFFFFFFFF7FFD7BF85DB57
:1097300044353C353C554454A67CE7FFEFFFEFFF32
:10974000EFFFEFFFEFFFF7FFFFFFFFFFF7FFFFFF69
:10975000FFFFFFDFFFFFFFFFFFFFFFFFFFFFFFFF39
:10976000FFFFFFFFFFFFFFFFFFFFF7DFF7FFE7FF51
:10977000CFFFB77FAF7FBF9FEFFFF7FFFFFFFFFF79
:10978000FFFFFFFFFFFFFFFFFFFFFFFFFFFFFFFFE9
:10979000FFDFFFFFFFFFFFFFFFFFFFFFFFFFFFFFF9
:1097A000FFFFFFFFFFFFFFFFFFFFFFFFFFFFFFFFC9
:1097B000F7FFF7FFEFFFF7FFFFFFFFFFFFFFFFFFE1
:1097C000FFFFFFDFFFFFFFFFFFFFFFFFFFFFFFFFC9
:1097D000FFFFFFFFFFFFFFFFFFFFFFFFFFFFFFFF99
:1097E000FFFFFFFFFFFFFFDFFFDFFFFFFFFFFFFFC9
:1097F000FFFFFFFFFFFFFFFFFFFFFFFFFFFFFFFF79
:10980000FFFFFFFFFFDFFFFFFFFFFFFFFFFFFFFF88
:10981000FFFFFFFEFFFFFFFF549800084898000875
:109820003898000828980008526F746174696F6E48
:109830003A32373000000000526F746174696F6E05
:109840003A31383000000000526F746174696F6EF5
:109850003A393000526F746174696F6E3A300000AB
:10986000506C65617365207573652074686520733D
:1098700074796C757320636C69636B207468652000
:1098800063726F7373206F6E2074686520736372E8
:1098900065656E2E5468652063726F7373207769F7
:1098A0006C6C20616C77617973206D6F76652075C3
:1098B0006E74696C207468652073637265656E20D0
:1098C00061646A7573746D656E7420697320636F6B
:1098D0006D706C657465642E00000000FC980008D3
:1098E0000000002078000000E26100087499000880
:1098F00078000020D8040000F2610008007A030A12
:10990000000000000000000001020304060708092F
:1099100001000000FFFF000000F8E0071F00E0FF6B
:109920001FF800001F3C000835300008A133000874
:109930000000000000000000000000000000000027
:10994000000000000000000000000000D0900000B7
:109950006098000800000000000000000000000007
:1099600000000102030401020304060708090000C5
:0499700000000000F3
:040000050800018965
:00000001FF
