:020000040800F2
:10000000085D002019120008B5030008B7030008B6
:10001000BB030008BF030008C30300080000000082
:10002000000000000000000000000000A101000826
:10003000C703000800000000FD0100087508000863
:10004000331200083312000833120008331200087C
:10005000331200083312000833120008331200086C
:10006000331200083312000833120008331200085C
:10007000331200083312000833120008331200084C
:10008000331200083312000833120008331200083C
:10009000331200083312000833120008331200082C
:1000A000331200083312000833120008331200081C
:1000B00033120008ED0B0008331200083312000859
:1000C00033120008331200083312000833120008FC
:1000D00033120008D90A0008331200085D0D000829
:1000E00033120008331200083312000833120008DC
:1000F00033120008331200083312000833120008CC
:100100003312000833120008630C00083312000891
:1001100033120008331200083312000833120008AB
:10012000331200083312000833120008331200089B
:10013000331200083312000833120008331200088B
:10014000331200083312000833120008331200087B
:10015000331200083312000833120008331200086B
:10016000331200083312000833120008331200085B
:10017000331200083312000833120008331200084B
:100180003312000833120008DFF810D008F06CFEBC
:1001900000480047F1020008AFF30080085D00202E
:1001A0002C4B19680868B0E8F04F80F30988BFF35A
:1001B0006F8F4FF0000080F311887047000000003F
:1001C00008480068006880F308884FF0000080F35A
:1001D000148862B661B6BFF34F8FBFF36F8F00DF35
:1001E00000BF00BF08ED00E0DFF80C00016841F43B
:1001F00070010160704700BF88ED00E0EFF30980F7
:10020000BFF36F8F134B1A681EF0100F08BF20ED5D
:10021000108A20E9F04F106009B44FF0500080F3CD
:100220001188BFF34F8FBFF36F8F04F001FC4FF0C5
:10023000000080F3118809BC19680868B0E8F04F25
:100240001EF0100F08BFB0EC108A80F30988BFF3CE
:100250006F8F704744000020EFF305807047000067
:1002600010B50020294908604FF4FA7000F049FBEE
:1002700001202749C1F8A4024FF4FA7000F041FBB5
:1002800000202249091D08604FF4FA7000F039FB84
:1002900001201F49C1F8A8024FF4FA7000F031FBA9
:1002A00010BD10B5A82000F0EDFA00F079FB19A000
:1002B00008F0ECFD1FA008F0E9FD4FF4A06000F08D
:1002C000BDFF00F0B7FA23A008F0E0FD00F038FA17
:1002D00025A008F0DBFD42F2CF0142F20F7000F0E2
:1002E00059FC42F2CF0142F20F7000F08EFC10BDBB
:1002F00010B5FFF7D6FF21A008F0C8FD25A008F033
:10030000C5FD00F0C7F9002010BD0000A4824242E4
:10031000008042422D2D2D2D2D2D48617265776173
:1003200072655F49696E742D2D2D2D2D2D200D0ABE
:10033000000000005553415254315F436F6E6669AF
:100340006775726174696F6E0909095B4F4B5D20B7
:100350000D0A00004C45445F496E69740909095B48
:100360004F4B5D200D0A00004B45595F496E697483
:100370000909095B4F4B5D200D0A00004861726559
:10038000776172655F49696E740909095B4F4B5D5E
:10039000200D0A004672656552544F5320696E74F1
:1003A0006572727570745F7461736B202020200D0C
:1003B0000A000000704700BFFEE700BFFEE700BF75
:1003C000FEE700BFFEE770470CB5002001900090EB
:1003D0007648006840F480307449086000BF734874
:1003E000006800F4003000900198401C01900098D3
:1003F00018B90198B0F5A04FF1D16C48006800F42D
:10040000003010B10120009001E000200090009821
:10041000012846D165484030006840F0805063496B
:10042000403108606248006840F44040604908601C
:100430005E48083000685D49083108600846006879
:1004400040F4004008600846006840F4A05008608E
:100450005848091F0860081F006840F08070091F95
:10046000086000BF5148006800F000700028F9D013
:1004700040F20570504908604C480830006820F090
:1004800003004A49083108600846006840F002004D
:10049000086000BF45480830006800F00C000828DC
:1004A000F8D10CBD10B54548006840F470004349D0
:1004B00008603E48006840F001003C4908600020A8
:1004C0003A4908310860394800683D4908403749D1
:1004D00008603C48091D0860081F006820F480205F
:1004E000091F0860002031490C310860FFF76CFFDC
:1004F0004FF0006031498039086010BD70B50020B0
:100500000022022300240221284D08352D6805F021
:100510000C0020B1042806D0082834D107E02A4D69
:100520002A4E356033E02A4D284E35602FE01F4DAE
:100530002D1D2D68C5F380541C4D2D1D2D6805F013
:100540003F0154B1224DB5FBF1F5184E361D36680A
:10055000C6F3881605FB06F209E01B4DB5FBF1F565
:10056000124E361D3668C6F3881605FB06F20F4D8F
:100570002D1D2D68C5F301456D1C6B00B2FBF3F515
:10058000124E356003E0104D104E356000BF00BFC5
:10059000064D08352D68C5F303150E4E705D0B4DE5
:1005A0002D68C540094E356070BD0000003802401E
:1005B0000070004008544007003C024088ED00E015
:1005C000FFFFF6FE103000240024F400000000209D
:1005D00000127A00040000202AE036480068401C1F
:1005E0003449086008460068052817D132A008F091
:1005F0004DFC00BF502080F31188BFF34F8FBFF335
:100600006F8F00BF41F2883000F099F930A008F0F8
:100610003DFC002080F3118800BF00BF3248006815
:10062000C0433249C1F8A8024FF47A7004F0C6F80A
:10063000D3E70DE02EA008F029FC2B48001F00682E
:10064000C0432A49C1F8A4024FF4FA7004F0B6F886
:10065000F0E71CB5044606F0F4FA2C48022100230A
:100660003222CDE900102AA1AFF2390003F078FD63
:100670002A48032100238022CDE9001028A1AFF2EF
:10068000A70003F06DFD2A48006803F0B6FD06F0F0
:10069000FFFA1CBD1CB52648012100238022CDE9AC
:1006A000001024A1AFF2550003F05AFD04F0A1FBA5
:1006B0001CBD000020000020B9D8B1D5D6D0B6CFDF
:1006C0002E2E2E2E2E2E2E2E2E2E2E2E2E0D0A00BD
:1006D000B4F2BFAAD6D0B6CF2E2E2E2E2E2E2E2E70
:1006E0002E2E2E2E2E0D0A00A8824242008042425B
:1006F0006C6564317461736BD5FDD4DAD4CBD0D022
:10070000A3A1A3A1A3A10D0A0000000018000020CE
:100710006C6564315F7461736B0000001C00002025
:10072000696E746572727570745F7461736B0000CA
:100730001400002073746172745F7461736B000045
:100740001CB50121032001F00DF94FF44070009019
:1007500000208DF8040003208DF8050001208DF89D
:1007600007006946304800F05FFE69462E4800F0F9
:100770005BFE0120009002208DF8070069462B489F
:1007800000F052FE1CBD10B5044614B101202849EA
:1007900008702748007878B34FF40071224800F0C1
:1007A000A5FE58B14FF480711F4800F09FFE28B19C
:1007B00001211E4800F09AFE01281ED10A2000F0F7
:1007C000A0F800201A4908704FF40071164800F094
:1007D0008DFE08B9012010BD4FF48071124800F061
:1007E00085FE08B90220F6E70121104800F07EFEE0
:1007F000012817D10320EEE7FFE74FF400710A4804
:1008000000F074FE01280DD10102074800F06EFED1
:10081000012807D10121054800F068FE10B9012028
:10082000034908700020D6E700040240000002409F
:10083000240000201CB50121202001F093F84FF482
:10084000C060009001208DF8040000208DF80600A3
:1008500003208DF8050001208DF807006946044843
:1008600000F0E2FD4FF4C061014800F059FE1CBDEC
:100870000014024010B504F08CFF012801D006F0EE
:1008800023FA10BD70B50446042000F029FD32485B
:10089000047025464FF47A70454301202F490880A3
:1008A0004FF0E020006940F002004FF0E0210861C5
:1008B00008464561006940F00100086170BD70B5EF
:1008C000034600224FF0E0267569234E367803FB7D
:1008D00006F44FF0E026B16910E04FF0E026B06971
:1008E00088420BD0884202D20E1A324402E02E1AFD
:1008F0000E4432440146A24200D300E0EDE700BFBF
:1009000070BD70B5044604F044FF012810D01348B0
:100910000088844206D311480088B4FBF0F52846CD
:1009200003F04CFF0D480088B4FBF0F100FB1144CC
:100930004FF47A7104FB01F0FFF7C1FF70BD30B5D1
:100940000446002504E04FF47A70FFF7B8FF6D1CF1
:10095000A542F8D330BD000026000020280000206A
:1009600000BF704700BF874A128802F04002002A89
:10097000F9D0C2B2834B9A80704708B54FF4A0609B
:1009800000F05CFC25208DF8000001208DF80100AE
:100990008DF802008DF80300684600F054FC08BD95
:1009A00000B587B00121084600F0DCFF01211020CE
:1009B00001F032F800208DF81A0001208DF81B009C
:1009C00002208DF819008DF818000002059005A985
:1009D0006D4800F029FD02208DF8180040020590B6
:1009E00005A9694800F020FD07220A21664800F0A9
:1009F000A6FD07220921644800F0A1FD4FF4E13073
:100A000001900020ADF80800ADF80A00ADF80C0028
:100A1000ADF810000C20ADF80E0001A9594801F006
:100A2000AEFFFFF7AAFF012240F22551554802F020
:100A3000E4F80121534802F02AF8544A4FF40071B7
:100A40005348006800F034F907B000BD2DE9F041CB
:100A500004460D46174600260DE000BF40214948D8
:100A600002F0F0F80028F9D02178464802F03AF870
:100A7000641C701C86B2AE42EFDB2846BDE8F081F4
:100A80002DE9F04106460D46904600244048006896
:100A900000F04FF90446AC4213DA27460FE00A2073
:100AA000FFF72FFF3A48006800F043F90446BC42C4
:100AB00002D10020BDE8F081AC4200DB00E0EEE7AF
:100AC00000BFAC4200DD2C4622463146304800686B
:100AD00000F01BF92046EDE708B540F22551294802
:100AE00002F0C6F850B1274802F000F8C0B20090FA
:100AF000012269462648006800F0EAF808BD70B592
:100B000004460D462946204601F0ECFF00BF802137
:100B1000204602F097F80028F9D070BD70B506465F
:100B20000C46002500BF615D3046FFF7E8FF6D1CF5
:100B3000605D0028F7D100BF4021304602F082F806
:100B40000028F9D070BD2DE9F04105460C46260A73
:100B5000E7B23146284601F0C5FF00BF8021284694
:100B600002F070F80028F9D03946284601F0BAFFA3
:100B700000BF8021284602F065F80028F9D0BDE8C2
:100B8000F08100000010014000000240240100201C
:100B90002C0000207FB505460C460121022000F004
:100BA0002AFF0295ADF804400020ADF80600ADF82C
:100BB0000C0001A9324801F0D6F801221146304854
:100BC00001F072FD01212E4801F056F91D208DF82B
:100BD000000004208DF8010000208DF802000120A3
:100BE0008DF80300684600F02EFB7FBD10B5012193
:100BF000234801F070FD012802D122A008F046F937
:100C000001211F4801F078FD10BD7FB505460C4657
:100C10000121082000F0EFFE0295ADF8044000200D
:100C2000ADF80600ADF80C0001A91B4801F09BF8D7
:100C300001221146184801F037FD0121164801F044
:100C40001BF932208DF8000006208DF801000020ED
:100C50008DF8020001208DF80300684600F0F3FAD9
:100C60007FBD10B501210C4801F035FD012802D1EE
:100C70000AA008F00BF90121074801F03DFD10BD65
:100C80000004004054494D33CAE4B3F62E2E2E2EF4
:100C90002E2E2E0D0A000000000C004054494D3548
:100CA000CAE4B3F62E2E2E2E2E2E2E0D0A00000094
:100CB00081808260002343800380704702469388CE
:100CC000481C834201D100207047481C80B2FBE7DA
:100CD000F0B504460E461746002513E0705D6288A5
:100CE000A168885461882046FFF7E8FF608060882B
:100CF0002188884204D121882046FFF7DFFF208029
:100D0000681C85B2BD42E9DBF0BDF0B504460F4674
:100D1000164600250AE02188A068405C78552188A5
:100D20002046FFF7CBFF2080681C85B2B542F2DB7E
:100D3000F0BD014648880A88904204DB48880A884A
:100D4000801A80B2704708884A88801A8A88101AE8
:100D500080B2F7E7002101804180704710B540F272
:100D60002551FE4801F084FF18B1FC4801F0BEFE99
:100D7000C4B210BD10B588B004460121022000F0B5
:100D8000F1FD0121880400F036FEF44801F090FDE9
:100D900007220B21F24800F0D2FB07220A21F0487B
:100DA00000F0CDFB4FF44060059002208DF8180054
:100DB0008DF8190000208DF81A0001208DF81B0015
:100DC00005A9E74800F030FB01940020ADF80800C9
:100DD000ADF80A00ADF80C00ADF810000C20ADF82D
:100DE0000E0001A9DD4801F0CAFD0121DB4801F038
:100DF0004EFE012240F22551D84801F0FEFE272088
:100E00008DF81C0002208DF81D0003208DF81E00B7
:100E100001208DF81F0007A800F015FA08B010BDDA
:100E200000BF028802F04002002AFAD08180704799
:100E300001468888C0B2704710B504460B4604E0EE
:100E400019782046FFF7ECFF5B1C18780028F7D1D3
:100E500010BD70B506460C461546002300BF05E0E0
:100E6000E15C3046FFF7DCFF581CC3B2AB42F7DB56
:100E700070BD00B503460D211846FFF7D1FF0A21CA
:100E80001846FFF7CDFF00BD7CB506460C4615465B
:100E9000002000900190002C06DA604204B22D215F
:100EA0003046FFF7BDFF03E02B213046FFF7B8FFC8
:100EB000042D0CDD42F2107094FBF0F00A2190FB3F
:100EC000F1F201FB12003030C0B28DF80000032DAA
:100ED0000CDD4FF47A7094FBF0F00A2190FBF1F2F4
:100EE00001FB12003030C0B28DF80100022D0BDD85
:100EF000642094FBF0F00A2190FBF1F201FB120058
:100F00003030C0B28DF80200012D0BDD0A2094FBB9
:100F1000F0F00A2190FBF1F201FB12003030C0B278
:100F20008DF80300002D08DD0A2094FBF0F100FB92
:100F300011403030C0B28DF80400C5F105006A469A
:100F400081182A463046FFF784FF7CBD7CB50646F3
:100F50000D461446002000900190042C0CDD42F256
:100F6000107095FBF0F00A2190FBF1F201FB1200EA
:100F70003030C0B28DF80000032C0CDD4FF47A70D5
:100F800095FBF0F00A2190FBF1F201FB12003030EA
:100F9000C0B28DF80100022C0BDD642095FBF0F04F
:100FA0000A2190FBF1F201FB12003030C0B28DF843
:100FB0000200012C0BDD0A2095FBF0F00A2190FBCA
:100FC000F1F201FB12003030C0B28DF80300002CAA
:100FD00008DD0A2095FBF0F100FB11503030C0B263
:100FE0008DF80400C4F105006A4681182246304697
:100FF000FFF72FFF7CBD2DE9F0412DED088B84B06C
:101000008046B0EE408A0C46154600260027B5EE15
:10101000C08AF1EE10FA0AD29FED520A30EE480A69
:10102000B0EE408A2D214046FFF7FAFE03E02B2167
:101030004046FFF7F5FE07E0052C03DD14B1601E06
:10104000C4B201E0681EC5B260190728F4DCBCEE2A
:10105000C80A10EE106A00EE106AB8EE400A38EEC8
:10106000400A10EE101A084607F077FD41EC1B0B02
:101070009FED3D0B53EC102B07F03DFC41EC1A0BA0
:101080009FED3B0B53EC102B07F0DCFC41EC190BF4
:1010900007F04AFD0746042C0BDD42F21070B6FB48
:1010A000F0F00A21B0FBF1F201FB120030308DF8B4
:1010B0000800032C0BDD4FF47A70B6FBF0F00A2128
:1010C000B0FBF1F201FB120030308DF80900022C68
:1010D0000ADD6420B6FBF0F00A21B0FBF1F201FB5F
:1010E000120030308DF80A00012C0ADD0A20B6FB10
:1010F000F0F00A21B0FBF1F201FB120030308DF864
:101100000B00002C07DD0A20B6FBF0F100FB11609C
:1011100030308DF80C00002D0BDD42F21070B7FB63
:10112000F0F00A21B0FBF1F201FB120030308DF833
:101130000000012D0BDD4FF47A70B7FBF0F00A21AF
:10114000B0FBF1F201FB120030308DF80100022DEE
:1011500019DD6420B7FBF0F00A210DE000480040E3
:101160000004024000000000F168E388B5F8D43EB6
:1011700000000000006AF840B0FBF1F201FB120031
:1011800030308DF80200032D0ADD0A20B7FBF0F0A5
:101190000A21B0FBF1F201FB120030308DF80300A0
:1011A000042D07DD0A20B7FBF0F100FB1170303091
:1011B0008DF80400C4F1050002AA811822464046B9
:1011C000FFF747FE2E214046FFF72AFE2A466946D2
:1011D0004046FFF73EFE04B0BDEC088BBDE8F08151
:1011E00070B506460B4614460025254611E0601EE4
:1011F000012101FA00F0184020B131213046FFF7FB
:101200000FFE03E030213046FFF70AFE5B00681E48
:10121000C5B2002DEBDC70BD06488047064800478C
:10122000FEE7FEE7FEE7FEE7FEE7FEE7FEE7FEE796
:10123000FEE7FEE7A50400088901000832490143E2
:10124000324A1160704770B5002100230F22C47824
:101250001CB32E4C246804F4E064C4F5E064C4F3C9
:101260000721C1F10404E3B20A4144789C40E1B291
:101270008478144021430C07210E254C05786155D4
:10128000047804F01F050124AC4005786D11AD0011
:1012900005F1E025C5F8004109E0047804F01F05D8
:1012A0000124AC401B4D0678761145F8264070BDF0
:1012B000194A0A400243154B1B1F1A60704739B187
:1012C000124A121D12680243104B1B1D1A6006E0E1
:1012D0000E4A121D126882430C4B1B1D1A60704788
:1012E000042808D14FF0E021096941F004014FF0D2
:1012F000E022116107E04FF0E021096921F00401CB
:101300004FF0E022116170470000FA050CED00E09B
:1013100000E400E080E100E080FFFF1F10B504461C
:101320009848844208D10121084600F086FB00213C
:10133000012000F082FB76E09348844208D101212D
:10134000022000F07AFB0021022000F076FB6AE028
:101350008E48844208D10121042000F06EFB002158
:10136000042000F06AFB5EE08948844208D1012134
:10137000082000F062FB0021082000F05EFB52E034
:101380008448844208D10121102000F056FB00213E
:10139000102000F052FB46E07F48844208D1012132
:1013A000202000F04AFB0021202000F046FB3AE01C
:1013B0007A48844208D10121402000F03EFB002100
:1013C000402000F03AFB2EE07548844208D101210C
:1013D000802000F032FB0021802000F02EFB22E074
:1013E0007048844208D10121801500F026FB0021BD
:1013F000A01500F022FB16E06B48844208D10121C1
:10140000401500F01AFB0021601500F016FB0AE001
:101410006648844207D10121001500F00EFB00212F
:10142000201500F00AFB10BDF0B50A46002100238C
:10143000002400BF3DE0012505FA01F3156805EA27
:1014400003049C4234D105684F000326BE40B543D7
:10145000056015794E00B54006683543056015797D
:10146000012D02D01579022D16D185684F00032673
:10147000BE40B543856055794E00B540866835431A
:101480008560456801268E40B5434560456896797C
:101490008E40B6B235434560C5684F000326BE4056
:1014A000B543C560D5794E00B540C6683543C560C3
:1014B000491C1029BFD3F0BD4FF6FF710160002118
:1014C000017141718171C171704708B54FF480326B
:1014D0000092009A0A430092009AC261C161009A88
:1014E000C261C2690092C269009208BD0246002032
:1014F00013690B400BB1012000E00020704701464A
:10150000086980B270470246002053690B400BB156
:10151000012000E0002070470146486980B2704712
:1015200001837047418370470AB1018300E0418322
:1015300070474161704742694A4042617047F0B567
:10154000002300244D07ED0E02FA05F3CE1000F142
:10155000200555F826504E07F70E0F26BE40B5431E
:10156000CF1000F1200646F82750CE1000F12005DC
:1015700055F8265045EA0304CE1000F1200545F841
:101580002640F0BD00000240000402400008024076
:10159000000C0240001002400014024000180240FB
:1015A000001C0240002002400024024000280240AB
:1015B000F948006840F00100F74908600020F6494A
:1015C00008310860F4480068F4490840F2490860AE
:1015D000F348091D0860F348EF4984310860F0487A
:1015E0001038091D0860EC48006820F48020EA49A2
:1015F00008600020E8490C310860E7498C31086038
:1016000070470021E44A921C11701146087070471F
:1016100010B501460022002300204A11012A02D100
:10162000DD4C236808E0022A03D1DB4C70342368C8
:1016300002E0D94C7434236801F01F020124944065
:101640001C400CB1012000E0002010BD38B5002086
:1016500000900024002500BF3120FFF7D9FF054688
:101660000098401C00900098B0F5A04F01D0002DCC
:10167000F2D03120FFF7CCFF08B1012400E00024B4
:10168000204638BD01460020C34A106820F0F8000B
:1016900040EAC10010607047C349086070470021EC
:1016A000BD4A703211701170012802D004280AD18D
:1016B00004E00121B84A7032117005E00521B64AF4
:1016C0007032117000E000BF00BF7047B74908607A
:1016D000704770B5049C41EA82150126C6EB53069B
:1016E00045EA0645054345EA0465AB4E361D3560BF
:1016F00070BDAD4908667047820142EA0172A64B8F
:1017000084331A607047A8498866704710B5830112
:1017100043EA016343EA02739F4C8834236010BD9F
:10172000A14908677047A049C86470470246002075
:10173000994B0833186820F0EC6042EA0103184323
:10174000954B08331860704702460020924B0833CF
:10175000186820F0784042EA010318438E4B0833A2
:1017600018607047014600208B4A0832106820F04C
:10177000030008431060704787480830006800F095
:101780000C00704701460020834A0832106820F0A0
:10179000F000084310607047014600207E4A08327E
:1017A000106820F4E05008431060704701460020A4
:1017B000794A0832106820F4604040EAC1001060A5
:1017C0007047F0B5002100220024022500260223E4
:1017D000714F08373F6807F00C0121B1042905D08B
:1017E000082937D105E0724F076036E0714F076076
:1017F00033E0694F3F1D3F68C7F38056664F3F1D7A
:101800003F6807F03F036EB16A4FB7FBF3F7DFF8AD
:1018100088C10CF1040CDCF800C0CCF3881C07FB79
:101820000CF40CE0624FB7FBF3F7DFF86CC10CF17E
:10183000040CDCF800C0CCF3881C07FB0CF4564FFA
:101840003F1D3F68C7F301477F1C7D00B4FBF5F7E0
:10185000076002E0564F076000BF00BF4E4F0837D9
:101860003F6807F0F0010909534F7A5C0768D740D9
:101870004760494F08373F6807F4E051890A4E4FE7
:101880007A5C4768D7408760434F08373F6807F462
:101890006041490B484F7A5C4768D740C760F0BD4C
:1018A000002100F44072B2F5407F0AD13A4A083272
:1018B000116821F4F811414A02401143364A0832B6
:1018C0001160354A70321268C0F30B031A43324B71
:1018D00070331A607047354944390860704733499E
:1018E000403908607047364908607047014600205B
:1018F000294A8C32106820F01F004A1E1043264AE5
:101900008C321060704701460020234A8C321068E8
:1019100020F4F8504A1E40EA02201F4A8C32106020
:101920007047014600201C4A8C32106820F4401099
:1019300008431060704701460020174A8C32106837
:1019400020F4400008431060704701460020124A0E
:101950008C32106820F440300843106070471949F9
:101960000860704739B10C4A3032126802430A4BA2
:1019700030331A6006E0084A303212688243064B60
:1019800030331A607047F9B1034A343212680243A7
:10199000014B34331A601CE000380240FFFFF6EAC6
:1019A000103000240030002000004742800E4742E3
:1019B0000024F40000127A0034000020FFFCFF0F26
:1019C0005C014742E01147428F4A126882438E4BC6
:1019D0001A60704739B18C4A121D126802438A4B53
:1019E0001B1D1A6006E0884A121D12688243864B4E
:1019F0001B1D1A60704739B1834A0C3212680243CA
:101A0000814B0C331A6006E07F4A0C321268824325
:101A10007D4B0C331A60704739B17B4A1032126823
:101A20000243794B10331A6006E0774A103212688D
:101A30008243754B10331A60704739B1724A243AA9
:101A400012680243704B243B1A6006E06E4A243A47
:101A5000126882436C4B243B1A60704739B16A4A62
:101A6000203A12680243684B203B1A6006E0664A3F
:101A7000203A12688243644B203B1A60704739B1A8
:101A8000614A1C3A126802435F4B1C3B1A6006E035
:101A90005D4A1C3A126882435B4B1C3B1A607047DC
:101AA00039B1594A143A12680243574B143B1A6031
:101AB00006E0554A143A12688243534B143B1A60AD
:101AC000704739B1504A103A126802434E4B103BEE
:101AD0001A6006E04C4A103A126882434A4B103BA7
:101AE0001A60704739B1484A1C3212680243464BAB
:101AF0001C331A6006E0444A1C3212688243424B8F
:101B00001C331A60704739B13F4A203212680243D1
:101B10003D4B20331A6006E03B4A20321268824374
:101B2000394B20331A60704739B1374A2432126872
:101B30000243354B24331A6006E0334A24321268DC
:101B40008243314B24331A60704739B12E4A2C320C
:101B5000126802432C4B2C331A6006E02A4A2C32BE
:101B600012688243284B2C331A60704739B1264AD9
:101B7000303212680243244B30331A6006E0224AA6
:101B8000303212688243204B30331A60704701288C
:101B900008D11D493C31096841F008011A4A3C321C
:101BA000116007E018493C31096821F00801164A24
:101BB0003C321160704739B1134A273A1278024318
:101BC000114B273B1A7006E00F4A273A12788243DE
:101BD0000D4B273B1A7070470B484030006840F0AF
:101BE0008070094940310860704701460020064A6C
:101BF000283A12680A400AB1012000E0002070472C
:101C000001492639087070473438024010B504463F
:101C1000FE48844208D101210846FFF752FF002107
:101C20000120FFF74EFF9DE0B4F1804F08D1012164
:101C30000846FFF735FF00210120FFF731FF91E053
:101C4000F348844208D101210220FFF729FF002137
:101C50000220FFF725FF85E0EE48844208D10121EC
:101C60000420FFF71DFF00210420FFF719FF79E092
:101C7000E948844208D101210820FFF711FF002123
:101C80000820FFF70DFF6DE0E448844208D10121F0
:101C90001020FFF705FF00211020FFF701FF61E092
:101CA000DF48844208D101212020FFF7F9FE0021FE
:101CB0002020FFF7F5FE55E0DA48844208D10121E3
:101CC0000220FFF7FEFE00210220FFF7FAFE49E0A6
:101CD000D548844209D101210804FFF7F2FE002112
:101CE0004FF48030FFF7EDFE3CE0D048844209D14C
:101CF00001214804FFF7E5FE00214FF40030FFF713
:101D0000E0FE2FE0CA48844209D101218804FFF790
:101D1000D8FE00214FF48020FFF7D3FE22E0C54813
:101D2000844208D101214020FFF7BAFE0021402063
:101D3000FFF7B6FE16E0C048844208D1012180209A
:101D4000FFF7AEFE00218020FFF7AAFE0AE0BB48A5
:101D5000844207D101218015FFF7A2FE0021A015C2
:101D6000FFF79EFE10BD00220288A84B98420ED0BD
:101D7000AC4B98420BD0B0F1804F08D0A44B9842A6
:101D800005D0A44B984202D0A34B984204D14FF601
:101D90008F731A404B881A43A04B984207D0A04B30
:101DA000984204D04FF6FF431A400B891A43028031
:101DB0004B68C3620B880385944B984202D0994BC1
:101DC000984201D18B7A03860123838270474FF0BA
:101DD000FF314160002101800181418081727047A3
:101DE0000185828270470A46002101884FF68F7371
:101DF000194011430180704741627047C1627047CA
:101E00000146486A70470146088D704721B1028833
:101E100042F00202028004E002884FF6FD731A408D
:101E20000280704721B1028842F00402028004E07F
:101E300002884FF6FB731A400280704721B1028876
:101E400042F08002028004E002884FF67F731A405D
:101E50000280704702884FF6F7731A4002800288AA
:101E60000A430280704702884FF6FF431A400280FF
:101E700002880A430280704721B1028842F00102C1
:101E8000028004E002884FF6FE731A400280704719
:101E900070B5002400220023058C4FF6FE763540F5
:101EA0000584028C8388048B4FF68F752C40B51EF9
:101EB0002C400D882C43751E2A408D892A434D885D
:101EC0002A43524DA84202D0564DA84213D14FF694
:101ED000F7752A40CD892A434FF6FB752A408D8835
:101EE0002A434FF6FF652B404FF6FF552B400D8AD6
:101EF0002B434D8A2B43838004838D684563028482
:101F000070BD70B5002400220023058C4FF6EF76DB
:101F100035400584028C8388048B48F6FF752C407D
:101F20004FF6FF452C400D884FF6FF7606EA052553
:101F30002C434FF6DF752A408D8906EA05152A43A2
:101F40004D8806EA05152A43304DA84202D0354D8A
:101F5000A8421DD14FF67F752A40CD894FF6FF76F6
:101F600006EA05152A434FF6BF752A408D8806EA12
:101F700005152A434FF6FF352B404FF2FF752B40D6
:101F80000D8A06EA85052B434D8A06EA85052B4313
:101F9000838004838D688563028470BD70B50024DE
:101FA00000220023058C4FF6FF6635400584028C25
:101FB0008388848B4FF68F752C404FF6FC752C4030
:101FC0000D882C434FF6FF552A408D894FF6FF763A
:101FD00006EA05252A434D8806EA05252A430B4DC6
:101FE000A84202D00F4DA84238D14FF2FF752A40C7
:101FF000CD894FF6FF7606EA05252A434FF6FF35D1
:102000002A408D8806EA05252A4319E00000014090
:102010000004004000080040000C00400010004098
:102020000014004000040140004001400044014011
:102030000048014000180040001C00400020004003
:102040004EF6FF752B404DF6FF752B400D8A06EAC4
:1020500005152B434D8A06EA05152B43838084839F
:102060008D68C563028470BD70B500220023002412
:10207000058C4EF6FF7635400584038C8488828B70
:1020800048F6FF752A404FF6FF452A400D884FF667
:10209000FF7606EA05252A434DF6FF752B408D890C
:1020A00006EA05352B434D8806EA05352B43FE4DE0
:1020B000A84202D0FD4DA84208D14BF6FF752C4036
:1020C0000D8A4FF6FF7606EA85152C4384808283BD
:1020D0008D680564038470BD00210180418081808A
:1020E00081608181C18101824182704770B5034660
:1020F000002000241846183001258D40ACB21D8CFC
:10210000A5431D8409B108290AD100EB61000568C7
:102110004FF68F76354005600568154305600FE082
:102120000D1FC5F34E052844056848F6FF76354077
:10213000056005684FF6FF7606EA0226354305601E
:1021400070BD4163704781637047C163704701642C
:1021500070470A460021018B4FF68F7319401143D7
:10216000018370470A460021018B48F6FF7319402E
:102170004FF6FF7303EA02231943018370470A46AF
:102180000021818B4FF68F73194011438183704773
:102190000A460021818B48F6FF7319404FF6FF7302
:1021A00003EA02231943818370470A460021018B09
:1021B0004FF6F77319401143018370470A46002117
:1021C000018B4FF2FF7319404FF6FF7303EA0223AE
:1021D0001943018370470A460021818B4FF6F7733C
:1021E00019401143818370470A460021818B4FF2C9
:1021F000FF7319404FF6FF7303EA022319438183EB
:1022000070470A460021018B4FF6FB7319401143BA
:10221000018370470A460021018B4FF6FF331940B6
:102220004FF6FF7303EA02231943018370470A46FE
:102230000021818B4FF6FB73194011438183704756
:102240000A460021818B4FF6FF3319404FF6FF738A
:1022500003EA02231943818370470A460021018B58
:102260004FF67F7319401143018370470A460021DE
:10227000018BC1F30E014FF6FF7303EA02231943EA
:10228000018370470A460021818B4FF67F73194006
:102290001143818370470A460021818BC1F30E01EF
:1022A0004FF6FF7303EA02231943818370470A46FE
:1022B0000021018C4FF6FD731940114301847047D2
:1022C0000A460021018C4FF6F7731940114301842F
:1022D00070470A460021018C4FF6DF7319404FF614
:1022E000FF7303EA02131943018470470A46002171
:1022F000018C4FF67F7319404FF6FF7303EA021308
:102300001943018470470A460021018C4FF6FF53A0
:1023100019404FF6FF7303EA022319430184704703
:102320000A460021018C4FF2FF7319404FF6FF73EC
:1023300003EA02231943018470470A460021018CF5
:102340004DF6FF7319404FF6FF7303EA023319434A
:102350000184704730B5002301248C40A3B2048C63
:102360009C430484048C02FA01F5ADB22C4304842E
:1023700030BD30B5002304248C40A3B2048C9C43B0
:102380000484048C02FA01F5ADB22C43048430BD00
:10239000828B4FF2FF331A408283828B4FF6FF739A
:1023A00003EA01231A4382837047F0B50C461546B1
:1023B000002100220026078C4EF6FF7C07EA0C075E
:1023C0000784818B028C4FF6FF7707EA043640F6CC
:1023D000FF4739404FF6FF7707EA052739434FF6A5
:1023E000FF7707EA0337394345F6FF773A4046F46B
:1023F00080573A4381830284F0BD828B4FF6F3739A
:102400001A408283828B0A4382837047F0B50C4660
:102410001546002100220026078C4FF6FF6C07EAC4
:102420000C070784818B028C4FF6FF7707EA04269E
:102430004FF60C7739404FF6FF7707EA03172F4323
:1024400039434FF2FF573A4046F480773A4381834D
:102450000284F0BD028B4FF2FF331A400283028BDD
:102460004FF6FF7303EA01231A4302837047F0B566
:102470000C461546002100220026078C4FF6EF7C03
:1024800007EA0C070784018B028C4FF6FF7707EAF7
:10249000041640F6FF4739404FF6FF7707EA033747
:1024A00039434FF6FF7703E000000140000401408C
:1024B00007EA052739434FF65F773A4046F01007A1
:1024C0003A4301830284F0BD028B4FF6F3731A4046
:1024D0000283028B0A4302837047F0B50C4615460F
:1024E00000210022068C4FF6FE773E400684018BC9
:1024F000028C4FF60C7631407E1C06EA03162E4302
:1025000031434FF6F576324044F001063243018301
:102510000284F0BD70B505460C46208850B9238969
:10252000A28861882846FFF7D8FFE1882846FFF790
:10253000CBFF25E0208804280AD12389A28861885E
:102540002846FFF794FFE1882846FFF783FF17E04E
:10255000208808280AD12389A28861882846FFF7A5
:1025600055FFE1882846FFF748FF09E02389A28844
:1025700061882846FFF719FFE1882846FFF708FF22
:1025800070BD002101804180012181800021C18036
:10259000018170472DE9F04105460C4600260127D0
:1025A000608808B9022600E00026A088012801D131
:1025B000022700E001272088A0B92389A28861882A
:1025C0002846FFF78AFFE1882846FFF77DFF238929
:1025D0003A4631462846FFF74AFFE1882846FFF78A
:1025E00039FF13E02389A28861882846FFF73FFF5F
:1025F000E1882846FFF72EFF23893A4631462846D0
:10260000FFF76BFFE1882846FFF75EFFBDE8F0812A
:102610000146486B70470146886B70470146C86B9E
:1026200070470146086C70470A884B881A438B88AC
:102630001A43CB881A430B891A434B891A438B8957
:102640001A43A0F844207047002101804180818016
:10265000C180018141818181704731B1B0F844204E
:1026600042F40042A0F8442005E0B0F84420C2F350
:102670000E02A0F84420704721B1828842F0040283
:10268000828004E082884FF6FB731A408280704794
:1026900021B1828842F00102828004E082884FF6F4
:1026A000FE731A40828070471AB183890B4383817D
:1026B00002E083898B4383817047818270470246A1
:1026C0000020138A0B400BB1012000E0002070476E
:1026D000CA430282704730B502460020002300241E
:1026E000158A05EA0103958905EA010413B10CB1C5
:1026F000012000E0002030BDCA430282704741EA59
:102700000203A0F8483070471AB183890B438381D4
:1027100002E083898B438381704721B1828842F034
:102720000802828004E082884FF6F7731A408280A4
:10273000704701894FF6F8721140018170470A46CF
:10274000002101894FF68F731940114301817047B1
:1027500030B504460D4629462046FFF7F0FF208994
:1027600040F00700208130BD2DE9F04104460D46C0
:1027700016461F46602D06D13B46012231462046B3
:10278000FFF775FE05E03B46012231462046FFF784
:10279000A4FE29462046FFF7D2FF208940F007001B
:1027A0002081BDE8F08130B50C4600210189C9B215
:1027B0004FF6FF7505EA032515432543294301819B
:1027C00030BD2DE9F04105460E46174698460024D7
:1027D00043463A4631462846FFF7E5FF2C894FF637
:1027E000F870044044F007044FF68F70044044F042
:1027F00070042C81BDE8F081F0B504460D46164604
:102800001F463B46324629462046FFF7CCFF20892B
:1028100040F480402081F0BD82884FF68F731A40CB
:10282000828082880A438280704702894FF6F8735B
:102830001A40028102890A430281704702894FF6D9
:102840007F731A40028102890A4302817047F0B502
:102850000C4615461E460021002200230189028BEA
:10286000038C4FF6F877394021434FF6FC473A4046
:1028700040F201173A434FF6DD773B404FF6FF77C2
:1028800007EA06172F433B43018102830384F0BD0F
:1028900021B1828842F08002828004E082884FF673
:1028A0007F731A4082807047A0F850107047000074
:1028B00010B50446FA48844208D101211020FFF7E0
:1028C00000F900211020FFF7FCF857E0F54884429A
:1028D00009D101214804FFF7E3F800214FF400304B
:1028E000FFF7DEF84AE0F048844209D1012188046C
:1028F000FFF7D6F800214FF48020FFF7D1F83DE034
:10290000EA48844209D10121C804FFF7C9F800212F
:102910004FF40020FFF7C4F830E0E548844209D1C5
:1029200001210805FFF7BCF800214FF48010FFF7E4
:10293000B7F823E0DF48844208D101212020FFF7C7
:10294000C0F800212020FFF7BCF817E0DA488442E5
:1029500009D101218807FFF7A3F800214FF080403B
:10296000FFF79EF80AE0D548844207D101214005CF
:10297000FFF796F800216005FFF792F810BD2DE9EA
:10298000FF4705460E460024A14600BFA046B08979
:1029900000B100BF2C8A24F44054F08804432C82F8
:1029A000AC8941F20C608443B08831890843718955
:1029B00008430443AC81AC8A24F44074B0890443D6
:1029C000AC826846FEF7FDFEB548854202D0B948A4
:1029D000854202D1DDF80C9001E0DDF80890A8896D
:1029E00000F4004040B109EBC90000EB0910316868
:1029F0004900B0FBF1F707E009EBC90000EB091053
:102A000031688900B0FBF1F76420B7FBF0F00401F6
:102A10002009642101FB1078A88900F4004040B12E
:102A2000322000EBC800B0FBF1F000F007000443D7
:102A300008E0322000EB08106421B0FBF1F000F058
:102A40000F0004432C81BDE8FF874FF4165101604D
:102A500000218180C18001810C214181002181817F
:102A6000704710B502460020108A20F470600B8871
:102A70004C8823438C882343CC88234318431082FB
:102A800010BD0021018041808180C180704721B14B
:102A9000828942F40052828104E082894DF6FF73FC
:102AA0001A4082817047028B02F47F420283028BBC
:102AB0000A430283704721B1828942F40042828135
:102AC00003E08289C2F30E028281704721B1828ABB
:102AD00042F40062828204E0828A4FF2FF731A405D
:102AE00082827047C1F3080282807047014688885D
:102AF000C0F308007047028A4FF6F0731A40028252
:102B0000028A0A430282704721B1828942F002029E
:102B1000828104E082894FF6FD731A4082817047FA
:102B200082894FF2FF731A40828182890A4382812F
:102B30007047028A4FF6DF731A400282028A0A4304
:102B40000282704721B1028A42F48042028204E08C
:102B5000028A4BF6FF731A4002827047818941F066
:102B600001018181704721B1828A42F0080282828C
:102B700004E0828A4FF6F7731A4082827047028B14
:102B8000D2B20283028B42EA01220283704721B152
:102B9000828A42F02002828204E0828A4FF6DF734A
:102BA0001A408282704721B1828A42F010028282EA
:102BB00004E0828A4FF6EF731A4082827047828A5D
:102BC0004FF6FB731A408282828A0A4382827047E0
:102BD00021B1828A42F00202828204E0828A4FF6A8
:102BE000FD731A40828270471AB1838A0B43838235
:102BF00002E0838A8B4383827047F0B5034600244A
:102C000000260025002040F66A17B94200D100BF17
:102C10001846C1F3421401F01F06012707FA06F512
:102C2000012C01D10C3004E0022C01D1103000E065
:102C300014301AB107682F43076002E00768AF43FA
:102C40000760F0BD02460020B1F5007F00D100BF53
:102C500013880B400BB1012000E00020704701F405
:102C60000072B2F5007F00D100BFCA4302807047F6
:102C700070B50246002400230025002040F66A16A5
:102C8000B14200D100BFC1F3421501F01F0301267C
:102C900006FA03F3012D13D19689334017E00000A3
:102CA000001001400044004000480040004C00403B
:102CB000005000400014014000780040007C0040BB
:102CC000022D02D1168A334001E0968A33400C125D
:102CD000012606FA04F41688344013B10CB1012021
:102CE00000E0002070BD10B50022002340F66A14F9
:102CF000A14200D100BF0A1201249440A3B2DC43D8
:102D0000048010BD00F1080141604FF0FF31816087
:102D100000F10801C16001610021016070470021DC
:102D20000161704742684A6093688B60936859609C
:102D30009160086103685B1C0360704710B5024630
:102D40000B685C1C0CB9106907E002F1080000E098
:102D50004068446824689C42FAD944684C604C68D6
:102D6000A160886041600A611468641C146010BD31
:102D700001460A69D1E901309860D1E90103586040
:102D80005068884201D1886850600020086110684E
:102D9000401E1060106870472DE9F04105460E4650
:102DA00001272C4654B900BF502080F31188BFF38F
:102DB0004F8FBFF36F8F00BF00BFFEE7002C42D0E4
:102DC000E06B00283FD04FF0FF31E06BB1FBF0F03B
:102DD000216C884237D303F034FFD4E90F12206806
:102DE00001FB0200A0600020A06320686060E06B2F
:102DF000401E226C216800FB0211E160FF2084F874
:102E0000440084F845009EB9206908B9012000E01B
:102E10000020A8B904F1100002F027FB80B14FF0A8
:102E20008050FA490860BFF34F8FBFF36F8F07E000
:102E300004F11000FFF766FF04F12400FFF762FFC2
:102E400003F026FF00E000270FB1012000E0002082
:102E500050B900BF502080F31188BFF34F8FBFF3EC
:102E60006F8F00BF00BFFEE73846BDE8F0812DE957
:102E7000F04106460D4617469846069C0DB924605B
:102E800000E02760E663256401212046FFF784FF08
:102E900084F850800020A064BDE8F0812DE9F8435B
:102EA00005460E4617460024E5B1601EB0FBF5F05E
:102EB000B04217D305FB06F010F1550F12D805FBF1
:102EC00006F808F1540003F0C0FF0446B4B1A1466F
:102ED00009F154093B464A46314628460094FFF71B
:102EE000C6FF0BE054B900BF502080F31188BFF338
:102EF0004F8FBFF36F8F00BF00BFFEE72046BDE8D6
:102F0000F8832DE9F04104460F4615464FF00008BE
:102F1000A66B206C48B9206800282CD1A06802F06C
:102F2000C7FC80460020A06025E07DB93946226CB0
:102F3000606805F08FFC216C606808446060D4E92B
:102F40000101884217D32068606014E03946226C82
:102F5000E06805F07FFC216CE068411AE1602168BF
:102F6000E068884203D2216CA068411AE160022D1A
:102F700001D106B1761E701CA0634046BDE8F08109
:102F8000F1B50098846C002654B900BF502080F33E
:102F90001188BFF34F8FBFF36F8F00BF00BFFEE7F5
:102FA000A06BE16B884201D2012000E0002050B903
:102FB00000BF502080F31188BFF34F8FBFF36F8F96
:102FC00000BF00BFFEE7A06BE16B88422CD294F9F2
:102FD0004550002269462046FFF793FF0646681CCD
:102FE00060B9606A08B9012000E00020D8B904F196
:102FF000240002F03AFAB0B1012614E07F2D01D08E
:10300000012000E0002050B900BF502080F311885B
:10301000BFF34F8FBFF36F8F00BF00BFFEE7681C89
:1030200040B284F8450000BF3046F8BD70B5044694
:1030300003F007FE94F9455019E0A06C30B120462A
:10304000FFF79EFF88B102F081FB0EE0606A08B9CD
:10305000012000E0002038B904F1240002F005FA54
:1030600018B102F073FB00E003E0681E45B2002DCA
:10307000E3DC00BFFF2084F8450003F009FE03F005
:10308000E0FD94F9445010E0206908B9012000E007
:10309000002048B904F1100002F0E7F908B102F08D
:1030A00055FB681E45B200E001E0002DECDC00BFDE
:1030B000FF2084F8440003F0EBFD70BD70B50546B9
:1030C00003F0BFFDA86BE96B884201D1012400E049
:1030D000002403F0DDFD204670BD2DE9FF4782B0DE
:1030E000064688461D464FF00009344654B900BFD5
:1030F000502080F31188BFF34F8FBFF36F8F00BF55
:1031000000BFFEE7B8F1000F01D1206C08B9012023
:1031100000E0002050B900BF502080F31188BFF3B9
:103120004F8FBFF36F8F00BF00BFFEE7022D02D1AC
:10313000E06B012801D1012000E0002050B900BF60
:10314000502080F31188BFF34F8FBFF36F8F00BF04
:1031500000BFFEE702F01DFB08B9049808B9012082
:1031600000E0002050B900BF502080F31188BFF369
:103170004F8FBFF36F8F00BF00BFFEE700BF03F0AC
:1031800060FDA06BE16B884201D3022D40D1D4F8E1
:1031900038A02A4641462046FFF7B3FE0746A06CFA
:1031A00088B1022D02D1BAF1000F29D12046FFF7D4
:1031B000E7FE28B34FF0805014490860BFF34F8FEB
:1031C000BFF36F8F1CE0606A08B9012000E00020A7
:1031D00068B904F1240002F048F988B14FF080503A
:1031E0000A490860BFF34F8FBFF36F8F08E03FB10C
:1031F0004FF0805005490860BFF34F8FBFF36F8FCA
:1032000003F046FD012006B0BDE8F08704ED00E0C4
:10321000049818B903F03CFD0020F4E7B9F1000F61
:1032200004D1684602F03BFA4FF0010903F030FD8B
:1032300001F03CFA03F005FD94F94400401C10B97C
:10324000002084F8440094F94500401C10B9002087
:1032500084F8450003F01CFD04A9684602F026FA34
:10326000F8B92046FFF72AFFA8B104F1100004992D
:1032700002F057F82046FFF7D9FE01F017F90028B1
:103280007FF47DAF4FF08050FA490860BFF34F8F55
:10329000BFF36F8F73E72046FFF7C8FE01F006F912
:1032A0006DE72046FFF7C2FE01F000F90020AAE713
:1032B00010B5044654B10020A06020600021E160F8
:1032C00000231A4619462046FFF707FF10BD2DE9D7
:1032D000F041044601260027224600210120FFF785
:1032E000DDFD05462846FFF7E3FF2846BDE8F081EF
:1032F00070B505462C4654B900BF502080F31188A4
:10330000BFF34F8FBFF36F8F00BF00BFFEE702F028
:103310003DFAA16888420CD1E068401EE060E06898
:1033200028B900231A4619462046FFF7D6FE012683
:1033300000E00026304670BD01464A6A22B10A6BA1
:103340001268C2F1200000E00020704770B5054609
:1033500003F077FCA86B08B9012400E0002403F017
:1033600097FC204670BD2DE9F34182B005464FF031
:1033700000082C46002654B900BF502080F3118865
:10338000BFF34F8FBFF36F8F00BF00BFFEE7206C0E
:1033900008B9012000E0002050B900BF502080F3A0
:1033A0001188BFF34F8FBFF36F8F00BF00BFFEE7E1
:1033B00002F0EFF908B9039808B9012000E00020F5
:1033C00050B900BF502080F31188BFF34F8FBFF377
:1033D0006F8F00BF00BFFEE700BF03F032FCA76B9A
:1033E000FFB1781EA063206810B902F0DDFBA06079
:1033F000206908B9012000E0002060B904F1100044
:1034000002F033F838B14FF080509A490860BFF3AA
:103410004F8FBFF36F8F03F03BFC012004B0BDE87A
:10342000F081039898B90EB9012000E0002050B94E
:1034300000BF502080F31188BFF34F8FBFF36F8F11
:1034400000BF00BFFEE703F023FC0020E6E7B8F171
:10345000000F04D1684602F022F94FF0010803F092
:1034600017FC01F023F903F0ECFB94F94400401C35
:1034700010B9002084F8440094F94500401C10B9AC
:10348000002084F8450003F003FC03A9684602F01D
:103490000DF940BB2046FFF759FFF0B1206838B95D
:1034A00003F0CFFBA06802F080F9064603F0F0FBC2
:1034B00004F12400039901F034FF2046FFF7B6FD24
:1034C00000F0F4FF002888D14FF08050694908606F
:1034D000BFF34F8FBFF36F8F7FE72046FFF7A6FD47
:1034E00000F0E4FF79E72046FFF7A0FD00F0DEFFE3
:1034F0002046FFF72BFF0028EED05EB103F0A1FBC2
:103500002046FFF719FF07463946A06802F041FA46
:1035100003F0BEFB002081E72DE9F04106460F468F
:10352000344654B900BF502080F31188BFF34F8F49
:10353000BFF36F8F00BF00BFFEE702F027F9A1685D
:10354000884204D1E068401CE060012508E039466B
:103550002046FFF708FF054615B1E068401CE06013
:103560002846BDE8F08170B505460E46002455B1E9
:10357000AE4208D8022200212846FFF78FFC0446FD
:103580006CB1A6630BE054B900BF502080F31188E2
:10359000BFF34F8FBFF36F8F00BF00BFFEE7204622
:1035A00070BD2DE9F84F80468B4615461E464446B1
:1035B00054B900BF502080F31188BFF34F8FBFF381
:1035C0006F8F00BF00BFFEE7BBF1000F01D1206C81
:1035D00008B9012000E0002050B900BF502080F35E
:1035E0001188BFF34F8FBFF36F8F00BF00BFFEE79F
:1035F000022E02D1E06B012801D1012000E0002061
:1036000050B900BF502080F31188BFF34F8FBFF334
:103610006F8F00BF00BFFEE703F06EFB00BF5021BD
:10362000EFF3118081F31188BFF34F8FBFF36F8FDA
:1036300000BF0746A06BE16B884201D3022E44D144
:1036400094F945A0A06B0090324659462046FFF7FA
:1036500058FC0AF10100F0B9A06C68B1022E01D14A
:10366000009878BB2046FFF78BFC58B355B3012078
:10367000286027E004ED00E0606A08B9012000E05E
:103680000020F8B904F1240001F0EFFED0B1CDB173
:103690000120286016E0BAF17F0F01D0012000E080
:1036A000002050B900BF502080F31188BFF34F8F26
:1036B000BFF36F8F00BF00BFFEE70AF1010040B209
:1036C00084F845004FF0010901E04FF0000900BF08
:1036D00087F3118800BF4846BDE8F88F2DE9F04711
:1036E00007460D463C4654B900BF502080F3118870
:1036F000BFF34F8FBFF36F8F00BF00BFFEE7206C9B
:1037000008B9012000E0002050B900BF502080F32C
:103710001188BFF34F8FBFF36F8F00BF00BFFEE76D
:10372000206808B9A06808B9012000E0002050B95D
:1037300000BF502080F31188BFF34F8FBFF36F8F0E
:1037400000BF00BFFEE703F0D7FA00BF5021EFF340
:10375000118081F31188BFF34F8FBFF36F8F00BFCC
:103760000646D4F838A0E06B50453AD994F9459014
:103770000AF10100A06309F10100C0B9A06C38B1E1
:103780002046FFF7FDFB48B345B30120286025E044
:10379000606A08B9012000E00020F8B904F12400B3
:1037A00001F063FED0B1CDB10120286016E0B9F17F
:1037B0007F0F01D0012000E0002050B900BF502051
:1037C00080F31188BFF34F8FBFF36F8F00BF00BF2F
:1037D000FEE709F1010040B284F845004FF001080E
:1037E00001E04FF0000800BF86F3118800BF40469B
:1037F000BDE8F08770B504460D46206C70B1216CB1
:10380000E0680144E160D4E90210884201D32168F4
:10381000E1602846226CE16805F01CF870BD2DE9D6
:10382000F74183B005460E464FF000082C4654B9C8
:1038300000BF502080F31188BFF34F8FBFF36F8F0D
:1038400000BF00BFFEE70EB9206C08B9012000E000
:10385000002050B900BF502080F31188BFF34F8F74
:10386000BFF36F8F00BF00BFFEE701F092FF08B902
:10387000059808B9012000E0002050B900BF502091
:1038800080F31188BFF34F8FBFF36F8F00BF00BF6E
:10389000FEE700BF03F0D5F9A76BF7B1314620462C
:1038A000FFF7A8FF781EA063206908B9012000E097
:1038B000002060B904F1100001F0D7FD38B14FF0DD
:1038C0008050F9490860BFF34F8FBFF36F8F03F04B
:1038D000DFF9012006B0BDE8F081059818B903F0C2
:1038E000D7F90020F6E7B8F1000F04D101A801F0E4
:1038F000D6FE4FF0010803F0CBF900F0D7FE03F03D
:10390000A0F994F94400401C10B9002084F8440048
:1039100094F94500401C10B9002084F8450003F0DC
:10392000B7F905A901A801F0C1FEF0B92046FFF7DB
:103930000DFDA0B104F12400059901F0F2FC204630
:10394000FFF774FB00F0B2FD0028A3D14FF08050C8
:10395000D5490860BFF34F8FBFF36F8F9AE72046BA
:10396000FFF764FB00F0A2FD94E72046FFF75EFB43
:1039700000F09CFD2046FFF7E9FC00288AD00020DB
:10398000A8E72DE9F74382B005460E464FF0000840
:103990002C4654B900BF502080F31188BFF34F8FDD
:1039A000BFF36F8F00BF00BFFEE70EB9206C08B9F0
:1039B000012000E0002050B900BF502080F31188A2
:1039C000BFF34F8FBFF36F8F00BF00BFFEE701F063
:1039D000E0FE08B9049808B9012000E0002050B9C1
:1039E00000BF502080F31188BFF34F8FBFF36F8F5C
:1039F00000BF00BFFEE700BF03F023F9D4F8389002
:103A0000B9F1000F1ED0E76831462046FFF7F2FEFD
:103A1000E760606A08B9012000E0002060B904F1A5
:103A2000240001F022FD38B14FF080509E4908601B
:103A3000BFF34F8FBFF36F8F03F02AF9012005B05A
:103A4000BDE8F083049818B903F022F90020F6E7E6
:103A5000B8F1000F04D1684601F021FE4FF00108D3
:103A600003F016F900F022FE03F0EBF894F944009D
:103A7000401C10B9002084F8440094F94500401C13
:103A800010B9002084F8450003F002F904A9684643
:103A900001F00CFEF0B92046FFF758FCA0B104F18C
:103AA0002400049901F03DFC2046FFF7BFFA00F026
:103AB000FDFC0028A0D14FF080507B490860BFF387
:103AC0004F8FBFF36F8F97E72046FFF7AFFA00F0F5
:103AD000EDFC91E72046FFF7A9FA00F0E7FC20464D
:103AE000FFF734FC002887D00020A8E72DE9F05F1D
:103AF00006468A461746344654B900BF502080F324
:103B00001188BFF34F8FBFF36F8F00BF00BFFEE779
:103B1000BAF1000F01D1206C08B9012000E00020AB
:103B200050B900BF502080F31188BFF34F8FBFF30F
:103B30006F8F00BF00BFFEE703F0DEF800BF50212B
:103B4000EFF3118081F31188BFF34F8FBFF36F8FB5
:103B500000BF0546D4F838B0BBF1000F34D094F95B
:103B6000449051462046FFF745FEABF10100A063AB
:103B700009F1010070B9206908B9012000E00020B6
:103B8000F8B904F1100001F070FCD0B1CFB1012000
:103B9000386016E0B9F17F0F01D0012000E000206D
:103BA00050B900BF502080F31188BFF34F8FBFF38F
:103BB0006F8F00BF00BFFEE709F1010040B284F83B
:103BC00044004FF0010801E04FF0000800BF85F30A
:103BD000118800BF4046BDE8F09F2DE9F04706463A
:103BE0008846344654B900BF502080F31188BFF393
:103BF0004F8FBFF36F8F00BF00BFFEE7B8F1000F1C
:103C000001D1206C08B9012000E0002050B900BFAC
:103C1000502080F31188BFF34F8FBFF36F8F00BF29
:103C200000BFFEE7206C08B1012000E0002050B981
:103C300000BF502080F31188BFF34F8FBFF36F8F09
:103C400000BF00BFFEE703F057F800BF5021EFF3BD
:103C5000118081F31188BFF34F8FBFF36F8F00BFC7
:103C60000546A06B48B1D4F80C9041462046FFF7BA
:103C7000C1FDC4F80C90012700E0002700BF85F3C8
:103C8000118800BF3846BDE8F08770B504466CB9AE
:103C900000BF502080F31188BFF34F8FBFF36F8FA9
:103CA00000BF00BFFEE7000004ED00E002F0C9FF26
:103CB000A56B02F0EDFF284670BD70B504462546A1
:103CC00055B900BF502080F31188BFF34F8FBFF369
:103CD0006F8F00BF00BFFEE702F0B3FFD5E90E1003
:103CE000461A02F0D5FF304670BD10B501460A46AF
:103CF00052B900BF502383F31188BFF34F8FBFF336
:103D00006F8F00BF00BFFEE7906B10BD014651B939
:103D100000BF502282F31188BFF34F8FBFF36F8F24
:103D200000BF00BFFEE700200EE08E4A02EBC0029B
:103D300052688A4207D100228A4B43F8302003EBB5
:103D4000C0035A6002E0401C0828EED300BF704751
:103D500070B50446254655B900BF502080F3118840
:103D6000BFF34F8FBFF36F8F00BF00BFFEE7284642
:103D7000FFF7CCFF284603F011F970BD0146C86C6F
:103D80007047C1647047014691F85000704710B504
:103D900001460A4652B900BF502383F31188BFF38E
:103DA0004F8FBFF36F8F00BF00BFFEE7936B0BB960
:103DB000012000E0002010BD10B501460A4652B9AE
:103DC00000BF502383F31188BFF34F8FBFF36F8F72
:103DD00000BF00BFFEE7936BD46BA34201D101206B
:103DE00000E0002010BD30B502460B4652B900BFBE
:103DF000502484F31188BFF34F8FBFF36F8F00BF40
:103E000000BFFEE70021BBB1002012E0554C04EBDF
:103E1000C0046468944203D1524C04EBC0010AE030
:103E200031B9504C54F8304014B94E4C04EBC00139
:103E3000401C0828EAD300BF09B10B604A6030BDBE
:103E400010B50246002052B900BF502383F31188F9
:103E5000BFF34F8FBFF36F8F00BF00BFFEE700219E
:103E60000AE0404B03EBC1035B68934203D13D4B37
:103E700053F8310002E0491C0829F2D300BF10BDFD
:103E80002DE9F04105460E4617462C4602F0D9FEB4
:103E900094F94400401C10B9002084F8440094F9BF
:103EA0004500401C10B9002084F8450002F0F0FEE7
:103EB000A06B28B93A46314604F1240001F08EFA8D
:103EC0002046FFF7B3F8BDE8F08170B50446002244
:103ED00004212046FEF7E2FF0546284670BD70B576
:103EE00004460E4602F0ADFEA06C08B1002505E0C8
:103EF000A06B08B1002501E0A664012502F0C8FE10
:103F0000284670BD2DE9F04105460F462E46B06C9F
:103F1000B84201D000240AE0B06B08B1002406E0EA
:103F200002F08FFE0020B06402F0B2FE01242046B1
:103F3000BDE8F08138B505460C46002000902246C9
:103F400069462846FFF76BFC009838BD38B5044633
:103F500000200090002269462046FFF7C7FD009828
:103F600038BD00002403002010B5002407E004EB56
:103F70008401F84A02EB8100FEF7C4FE641C202C89
:103F8000F5D3F548FEF7BEFEF448FEF7BBFEF44855
:103F9000FEF7B8FEF348FEF7B5FEF348FEF7B2FEB3
:103FA000ED48F2490860ED48F149086010BD10B5D0
:103FB000044602F046FEEF480068401CED490860E8
:103FC000ED48006840B9EC480460084600680128E4
:103FD0000DD1FFF7C9FF0AE0E848006838B9E648A4
:103FE0000068C06AE16A884201D8E3480460E44896
:103FF0000068401CE249086008460068606494F864
:104000002C1001208840DF4909680843DD49086019
:10401000E16A01EB8101CF4A02EB81014868A060AF
:104020008268E260211D826851608160E16A01EB73
:104030008101C84A02EB81026261E16A01EB810100
:10404000C44A52F82110491CE26A02EB8202C14BB9
:1040500043F8221002F01CFEC848006868B1C64848
:104060000068C06AE16A884207D24FF08050C649B2
:104070000860BFF34F8FBFF36F8F10BD2DE9F05F66
:1040800082460F4690469B460A9E0C9C4FEA88014A
:10409000A522206B04F0F0FBA8F10100216B01EBDD
:1040A000800929F0070909F0070008B9012000E09C
:1040B000002050B900BF502080F31188BFF34F8F0C
:1040C000BFF36F8F00BF00BFFEE787B1002507E099
:1040D000795D04F134004155785D00B902E06D1C52
:1040E000102DF5D300BF00214320015502E0002030
:1040F00084F83400202E01D2012000E0002050B9C5
:1041000000BF502080F31188BFF34F8FBFF36F8F34
:1041100000BF00BFFEE7202E00D31F26E662E66444
:1041200000202065201DFEF7FAFD04F11800FEF7BF
:10413000F6FD2461C6F12000A06164620020606584
:1041400084F8580084F859005A465146484602F00F
:1041500099FC20600B9808B10B980460BDE8F09FB3
:104160002DE9FF4F85B0804689461746DDE912AB41
:10417000B80002F06AFE064656B15C2002F065FE09
:1041800004460CB1266304E0304602F007FF00E06D
:1041900000247CB10020CDE900ABCDE902403A46D5
:1041A00049464046089BFFF769FF2046FFF7FFFEA0
:1041B000012501E04FF0FF35284609B0BDE8F08F3A
:1041C00010B50446206B02F0E9FE204602F0E6FE40
:1041D00010BD66480068006808B9012000E00020B2
:1041E00020B14FF0FF306949086005E05F48006882
:1041F000C068006865490860704770B5054602F000
:1042000020FD15B95C48006800E028460446201DE2
:10421000FEF7AEFD78B9E06A00EB80004D4951F839
:10422000200040B994F82C100120884055490968B5
:10423000814354480160A06A18B104F11800FEF7E8
:1042400097FD4F480068401C4D4908604A48006887
:10425000844209D1211D4348FEF764FD4C480068A3
:10426000401C4B49086006E042480068401E414936
:104270000860FFF7AEFF02F00BFD3F480068844284
:1042800002D02046FFF79CFF3C480068E8B13A485E
:104290000068844219D13F48006808B9012000E055
:1042A000002050B900BF502080F31188BFF34F8F1A
:1042B000BFF36F8F00BF00BFFEE74FF08050324961
:1042C0000860BFF34F8FBFF36F8F70BD2DE9F041D2
:1042D0004FF000082F48006800287DD12E48006864
:1042E000451C2D48056015BB20480068006808B9CA
:1042F000012000E0002050B900BF502080F3118859
:10430000BFF34F8FBFF36F8F00BF00BFFEE71748AB
:1043100007681748006815490860154807601F4876
:104320000068401C1D490860FFF753FF00BF174895
:10433000006885427ED300BF0C480068006808B959
:10434000012000E0002020B14FF0FF300F4908604D
:1043500091E025E064030020E4050020F80500203A
:104360000C06002020060020340600204800002013
:104370004C00002054000020440000206000002079
:10438000700000205C00002004ED00E074000020BC
:104390005000002080000020580000206C00002009
:1043A000F8480068C068C4686668B54202D2F6483A
:1043B000066060E06069D4E902128A60D4E90221F3
:1043C0004A60211D42688A4201D1E16841600022B1
:1043D00062610168491E00E060E00160A06A98B176
:1043E000A06AD4E907128A60D4E907214A6004F17F
:1043F000180142688A4201D1216A41600022A2620A
:104400000168491E016000BF94F82C10012088400B
:10441000DE4909680843DD490860E16A01EB810172
:10442000DB4A02EB81014868A0608268E260211DDE
:10443000826800E020E051608160E16A01EB810167
:10444000D34A02EB81026261E16A01EB8101D04A49
:1044500052F82110491CE26A02EB8202CC4B43F86D
:104460002210CC49E06A0968C96A8842FFF464AF47
:104470004FF0010860E700BFC6480068C06A00EB63
:104480008000C34951F82000012801D94FF00108EC
:10449000C148006808B14FF0010804E0BF48006857
:1044A000401CBE4908604046BDE8F08170B500245C
:1044B0000026BB48006850B900BF502080F3118827
:1044C000BFF34F8FBFF36F8F00BF00BFFEE702F057
:1044D000B8FBB3480068401EB14908600846006850
:1044E00000287DD1AF480068002879D05BE0AE4855
:1044F000C068C468A06AD4E907128A60D4E90721B9
:104500004A6004F1180142688A4201D1216A41607F
:104510000022A2620168491E01606069D4E90212AA
:104520008A60D4E902214A60211D42688A4201D191
:10453000E1684160002262610168491E016094F8EF
:104540002C10012088409149096808438F49086070
:10455000E16A01EB81018E4A02EB81014868A060AB
:104560008268E260211D826851608160E16A01EB2E
:104570008101874A02EB81026261E16A01EB8101FC
:10458000834A52F82110491CE26A02EB8202804BF6
:1045900043F822107F49E06A0968C96A884202D359
:1045A00001207D4908608048006808B9012000E0CA
:1045B000002000289BD00CB1FFF70BFE7748056860
:1045C00065B100BFFFF782FE10B10120724908609B
:1045D0006D1E002DF6D10020704908606E4800E085
:1045E00009E0006838B10126300770490860BFF360
:1045F0004F8FBFF36F8F02F04BFB304670BD2DE93C
:10460000F04105460E466A4807680020614909687E
:1046100081F859005F480068001DFEF7A9FB50B9FA
:104620005C48006890F82C100120884057490968C0
:10463000814356480160681CD8B9D6B15D494868C5
:10464000544909688860534982680968CA605149B9
:104650000968091D826851604E490968091D816019
:10466000544A4C4909684A6111460968491C11605D
:104670001AE07C19474800684460BC4207D24548AC
:104680000168091D4C480068FEF758FB0CE04148E2
:104690000168091D3B480068FEF750FB3A48006876
:1046A000844201D238480460BDE8F0813C4800688B
:1046B000401C3B49086070472DE9F04704460F460F
:1046C0004FF0000954B900BF502080F31188BFF3A8
:1046D0004F8FBFF36F8F00BF00BFFEE70FB1012008
:1046E00000E0002050B900BF502080F31188BFF3D4
:1046F0004F8FBFF36F8F00BF00BFFEE728480068F1
:1047000008B9012000E0002050B900BF502080F31C
:104710001188BFF34F8FBFF36F8F00BF00BFFEE75D
:10472000FFF7C4FF224806682068C5192068B04218
:1047300007D92068A8420BD9B54209D94FF0010921
:1047400006E02068A84201D8B54201D94FF001091E
:104750002560B9F1000F03D0A81B0021FFF74FFF20
:10476000FFF7A4FE8046B8F1000F07D14FF080504C
:104770000E490860BFF34F8FBFF36F8F4846BDE807
:10478000F087000048000020740000205C0000203A
:104790006403002044000020680000206400002022
:1047A00080000020540000200C06002004ED00E0F2
:1047B00058000020340600204C00002070B504464C
:1047C0000025D4B1F848006808B9012000E00020B5
:1047D00050B900BF502080F31188BFF34F8FBFF353
:1047E0006F8F00BF00BFFEE7FFF760FF002120468C
:1047F000FFF705FFFFF75AFE05463DB94FF0805021
:10480000EA490860BFF34F8FBFF36F8F70BD2DE98A
:10481000F04707463E4656B900BF502080F3118846
:10482000BFF34F8FBFF36F8F00BF00BFFEE7E048BD
:104830000068864201D100242DE002F002FA756979
:10484000DC48D0F80080DC48D0F8009002F020FA74
:10485000454501D04D4501D102241CE0D748854291
:1048600012D1B06A70B90324002007E006F15801A4
:10487000095C012901D1022402E0401C0128F5DB7A
:1048800000BF08E0022406E0CD48854200D00DB903
:10489000042400E001242046BDE8F08770B50446FA
:1048A00002F0CFF914B9C248006800E0204606467D
:1048B000F56A02F0EDF9284670BD2DE9F041054694
:1048C00002F01AFA00BF5021EFF3118081F3118832
:1048D000BFF34F8FBFF36F8F00BF044615B9B448C5
:1048E000006800E028460746FE6A00BF84F311888E
:1048F00000BF3046BDE8F0812DE9F04780460D4607
:104900004FF00009202D01D2012000E0002050B915
:1049100000BF502080F31188BFF34F8FBFF36F8F1C
:1049200000BF00BFFEE7202D00D31F2502F089F94C
:10493000B8F1000F02D19E48006800E040460446EE
:10494000E66CAE4270D0B5420BD9994800688442FB
:104950000DD097480068C06AA84208D84FF00109F6
:1049600005E093480068844201D14FF00109E76AED
:10497000E16AE06C884200D1E562E564A06900F07C
:10498000004010B9C5F12000A06107EB87018D4AF6
:1049900002EB81016069884201D1012000E0002022
:1049A000B0B3201DFEF7E4F930B90120B8408649C4
:1049B000096881438448016094F82C1001208840E4
:1049C00081490968084380490860E16A01EB810177
:1049D0007C4A02EB81014868A0608268E260211D88
:1049E000826851608160E16A01EB8101754A02EBE6
:1049F00081026261E16A01EB8101724A52F8211081
:104A0000491CE26A02EB82026E4B43F8221000BF9F
:104A1000B9F1000F07D04FF0805064490860BFF330
:104A20004F8FBFF36F8F00BF02F032F9BDE8F08700
:104A30005D48006818B101206449086032E0002038
:104A40006249086060480068B0FA80F0C0F11F0158
:104A500001EB81005B4A52F8200008B1012000E020
:104A6000002050B900BF502080F31188BFF34F8F52
:104A7000BFF36F8F00BF00BFFEE701EB8102514B18
:104A800003EB820042685268426000F1080243680A
:104A9000934202D14268526842604268D268444BF5
:104AA0001A6000BF704770B5054602F0CAF815B924
:104AB0003F48006800E028460446201DFEF758F9EC
:104AC00078B9E06A00EB80003E4951F8200040B917
:104AD00094F82C10012088403B49096881433A48EA
:104AE0000160A06A18B104F11800FEF741F9211D18
:104AF0003248FEF717F9002009E004F15801095C7B
:104B0000012903D1002204F158010A54401C012854
:104B1000F3DB02F0BDF82E48006828B102F091F8EE
:104B2000FFF757FB02F0B4F821480068844229D10E
:104B300027480068D0B11C48006808B9012000E08F
:104B4000002050B900BF502080F31188BFF34F8F71
:104B5000BFF36F8F00BF00BFFEE74FF080501349D7
:104B60000860BFF34F8FBFF36F8F0BE013480068EF
:104B700018490968884203D100200D49086001E006
:104B8000FFF756FF70BD10B502460020114652B91E
:104B900000BF502383F31188BFF34F8FBFF36F8F94
:104BA00000BF00BFFEE717E08000002004ED00E03A
:104BB00044000020480000204C0000203406002063
:104BC00020060020640300205C0000206800002014
:104BD0006000002054000020F64C4B69A34201D134
:104BE000012300E0002373B1F34C8B6AA34201D18F
:104BF000012300E0002333B98B6A0BB9012300E0E5
:104C0000002303B1012010BD70B505462C4655B9EF
:104C100000BF502080F31188BFF34F8FBFF36F8F19
:104C200000BF00BFFEE7E5480068844245D0002C85
:104C300043D002F006F82046FFF7A5FFD8B3201DA9
:104C4000FEF796F894F82C1001208840DC4909689A
:104C50000843DB490860E16A01EB8101D94A02EBB4
:104C600081014868A0608268E260211D826851600D
:104C70008160E16A01EB8101D24A02EB810262614B
:104C8000E16A01EB8101CF4A52F82110491CE26A26
:104C900002EB8202CB4B43F82210C849E06A096854
:104CA000C96A884207D34FF08050C7490860BFF3F4
:104CB0004F8FBFF36F8F01F0EBFF70BD2DE9F04117
:104CC00006460027344656B900BF502080F31188AD
:104CD000BFF34F8FBFF36F8F00BF00BFFEE702F03F
:104CE0000BF800BF5021EFF3118081F31188BFF35F
:104CF0004F8FBFF36F8F00BF05462046FFF743FF7E
:104D0000002841D0B1480068C0BBAC49E06A0968DE
:104D1000C96A884203D301270120AD490860201DDC
:104D2000FEF726F894F82C1001208840A449096861
:104D30000843A3490860E16A01EB8101A14A02EB43
:104D400081014868A0608268E260211D826851602C
:104D50008160E16A01EB81019A4A02EB81026261A2
:104D6000E16A01EB8101974A52F82110491CE26A7D
:104D700002EB8202934B43F8221005E0FFE704F1B7
:104D800018018D48FDF7CEFF00BF85F3118800BFE5
:104D90003846BDE8F08110B516E001F052FF8D48AD
:104DA000C068C468201DFDF7E3FF8B480068401E03
:104DB0008949086089480068401E8849086001F0F8
:104DC00067FF2046FFF7FCF9844800680028E4D11B
:104DD00010BD00BFFFF7DFFF7A4800680128F9D94E
:104DE0004FF0805078490860BFF34F8FBFF36F8F4B
:104DF000F0E71CB57A4800210B468222CDE900106D
:104E000078A17A48FFF7ACF90446012C02D101F0F1
:104E100042FC0446012C15D100BF502080F31188BC
:104E2000BFF34F8FBFF36F8F00BF4FF0FF3070495C
:104E3000086001206F49086000206F49086001F098
:104E400046FE10E0601C08B1012000E0002050B9CF
:104E500000BF502080F31188BFF34F8FBFF36F8FD7
:104E600000BF00BFFEE7654800681CBD10B500BF6D
:104E7000502080F31188BFF34F8FBFF36F8F00BFB7
:104E800000205C49086001F0C7FE10BD5A4908685F
:104E9000704770B501F030FF002557480468204680
:104EA00070BD4D4800687047014611B9434800681D
:104EB00000E00846024652B900BF502080F3118836
:104EC000BFF34F8FBFF36F8F00BF00BFFEE702F14C
:104ED000340070472DE9F04302460D460027106864
:104EE00000284CD01046D0F80480D8F80480C0F8D0
:104EF000048000F10808D0F80490C14505D1D0F82D
:104F00000480D8F80480C0F80480D0F80480D8F871
:104F10000C6000BF1046D0F80480D8F80480C0F8B8
:104F2000048000F10808D0F80490C14505D1D0F8FC
:104F30000480D8F80480C0F80480D0F80480D8F841
:104F40000C104FF0000C002311E001F13400C45CA0
:104F5000E85CA04202D04FF0010C03E014B90F4608
:104F60004FF0010CBCF1000F00D002E05B1C102BD5
:104F7000EBD300BF07B101E0B142CBD100BF38464F
:104F8000BDE8F08370B506462025304603F086FC68
:104F9000102801D2012000E0002050B900BF5020AD
:104FA00080F31188BFF34F8FBFF36F8F00BF00BF37
:104FB000FEE725E0340600200C0600204400002017
:104FC0005C0000206403002004ED00E0800000206D
:104FD000680000202006002054000020500000201F
:104FE0007800002049444C4500000000D34D0008E3
:104FF0007400002060000020580000207C00002089
:10500000FFF754FB00BF6D1E05EB8501FB4A02EB69
:1050100081003146FFF75EFF044604B101E0002D38
:10502000F1D100BF2CB93146F5480068FFF752FFB7
:1050300004462CB93146F3480068FFF74BFF04469D
:1050400024B93146F048FFF745FF044624B93146FC
:10505000EE48FFF73FFF0446FFF728FA204670BDF1
:105060000246002101E0521C491C1078A528FAD004
:10507000890888B270472DE9F04107460C469046F2
:105080001E4617B9E248006800E03846054625602C
:1050900005F134006060E86A2061286BE061686CAB
:1050A000A060E86C60610020A061052E12D0D84895
:1050B0000068854202D1002020730FE02673032E82
:1050C0000CD1FFF7F3FAA86A08B102202073FFF7AA
:1050D000EDF903E02846FFF79AFB2073B8F1000FC3
:1050E00004D0286BFFF7BCFF208401E0002020845F
:1050F000BDE8F0812DE9F04707460C4690460026B2
:10510000206848B3204641684968416000F10801C1
:1051100042688A4202D14168496841604168D1F8D9
:105120000C9000BF204641684968416000F10801C9
:1051300042688A4202D14168496841604168CD684D
:1051400006EBC60007EB8001434601222846FFF725
:1051500092FF761C4D45E5D13046BDE8F0872DE93C
:10516000F04105468846164600242027FFF79EFAA0
:10517000A8480068804539D300BF7F1E07EB87022F
:105180009E4B03EB820104EBC40205EB820001227B
:10519000FFF7B0FF0444002FEFD104EBC40105EB8F
:1051A0008100022296490968FFF7A4FF044404EB3A
:1051B000C40105EB8100022292490968FFF79AFFBA
:1051C000044404EBC40105EB810004228F49FFF77E
:1051D00091FF044404EBC40105EB810003228A49DA
:1051E000FFF788FF04440EB100203060FFF75EF93E
:1051F0002046BDE8F0818848006808B1012000E041
:10520000002050B900BF502080F31188BFF34F8FAA
:10521000BFF36F8F00BF00BFFEE77F480068704795
:1052200070B504467D48006808B9012000E0002000
:1052300050B900BF502080F31188BFF34F8FBFF3E8
:105240006F8F00BF00BFFEE7FFF730FA74480068B9
:10525000204473490860FFF729F90546284670BDC8
:1052600070B505462C4654B900BF502080F3118814
:10527000BFF34F8FBFF36F8F00BF00BFFEE7FFF795
:1052800015FA2846FFF7C3FA022845D10126201D4A
:10529000FDF76EFD01F0D5FCA06A30B104F11800F5
:1052A000FDF766FD012084F8590001F0F1FC94F847
:1052B0002C10012088405B4909680843594908605F
:1052C000E16A01EB81014D4A02EB81014868A0606F
:1052D0008268E260211D826851608160E16A01EBB1
:1052E0008101464A02EB81026261E16A01EB8101C0
:1052F000424A52F82110491CE26A02EB82023F4BFB
:1053000043F822104249E06A0968C96A884204D910
:1053100001204549086000E00026FFF7C7F8304645
:1053200070BD70B504460D4654B900BF502080F3DF
:105330001188BFF34F8FBFF36F8F00BF00BFFEE731
:105340003348016818312046FDF7F8FC0121284652
:10535000FFF755F970BD70B504460D46164654B9B1
:1053600000BF502080F31188BFF34F8FBFF36F8FC2
:1053700000BF00BFFEE72948006808B1012000E037
:10538000002050B900BF502080F31188BFF34F8F29
:10539000BFF36F8F00BF00BFFEE745F000401C4920
:1053A0000968886160681A490968C8611849826893
:1053B00009680A62164909681831826851601449FF
:1053C000096818318160124909688C622168491C9A
:1053D000216001213046FFF712F970BD70B5044617
:1053E0000E46154614BB00BF502080F31188BFF352
:1053F0004F8FBFF36F8F00BF00BFFEE76403002035
:10540000480000204C000020340600202006002028
:10541000440000205400002078000020800000207C
:10542000640000205C000020680000206068FE49E5
:105430000968C861FC49826809680A62FA49096812
:10544000183182685160F849096818318160F6495D
:1054500009688C622168491C21600DB14FF0FF364C
:1054600029463046FFF7CBF870BD70B50346D868C3
:10547000C16851B900BF502080F31188BFF34F8F2E
:10548000BFF36F8F00BF00BFFEE7886AD1E9074511
:10549000A560D1E90754656001F118044568A5428B
:1054A00001D10C6A446000258D620468641E0460AA
:1054B000DE48006800283DD14869D1E90245A56071
:1054C000D1E9025465600C1D4568A54201D1CC6844
:1054D000446000254D610468641E046091F82C400E
:1054E0000120A040D24C24682043D14C2060CC6ADB
:1054F00004EB8404CF4D05EB840460688860856804
:10550000CD600C1D85686C608460CC6A04EB8404FB
:10551000C84D05EB84054D61CC6A04EB8404C54D90
:1055200055F82440641CCD6A05EB8505C14E46F84C
:10553000254010E0C04C6068C86185680D6201F1CB
:10554000180485686C608460BB4D8D622C462468AD
:10555000641C2C6000BFB44CC86A2468E46AA04292
:1055600004D901220120B54C206000E00022104641
:1055700070BD70B502460B46AC49096809B10121FE
:1055800000E0002151B900BF502181F31188BFF321
:105590004F8FBFF36F8F00BF00BFFEE743F00041A6
:1055A0001160D06850B900BF502181F31188BFF35A
:1055B0004F8FBFF36F8F00BF00BFFEE71169D2E9C5
:1055C0000154AC60D2E901456C604C68944201D151
:1055D00094684C60002414610C68641E0C6041697E
:1055E000D0E90245A560D0E902546560041D4D680C
:1055F000A54201D1C4684C60002545610C68641E59
:105600000C6090F82C400121A140894C2468214372
:10561000874C2160C46A04EB8404864D05EB840446
:10562000616881608D68C560041D8D686C608C60E8
:10563000C46A04EB84047F4D05EB84054561C46AAC
:1056400004EB84047B4D55F82440641CC56A05EBCB
:105650008505784E46F82540734CC16A2468E46A93
:10566000A14202D90121754C216070BD10B50446DC
:1056700054B900BF502080F31188BFF34F8FBFF3A0
:105680006F8F00BF00BFFEE701F0DBFA6C480068D7
:1056900020606C480068606001F0FAFA10BD68494B
:1056A00009680160674909684160704770B506463E
:1056B0000C4656B900BF502080F31188BFF34F8FBE
:1056C000BFF36F8F00BF00BFFEE754B900BF50208B
:1056D00080F31188BFF34F8FBFF36F8F00BF00BF00
:1056E000FEE701F0AEFA574802687068131A4E4898
:1056F000006890F8590030B100204B49096881F8E2
:10570000590001251EE02068401C08B9002519E059
:105710004B4930680968884206D07068904203D8C7
:105720000125002020600DE02068984207D92068FC
:10573000C01A20603046FFF7B2FF002502E00020CB
:105740002060012501F0A4FA284670BD01203B49E4
:1057500008607047014611B10A46906C00E00020D5
:10576000704708B10246916470472DE9F041044644
:1057700014B92D48006800E0204607463D6B2846D6
:10578000FFF76EFC06463046BDE8F0812649086802
:1057900070472D49096809B9012005E023490968C6
:1057A00009B9022000E00020704770B505462C467C
:1057B0000026002D7AD01C49E06A0968C96A88422F
:1057C0006DD2A06900F0004028B917480068C06A8F
:1057D000C0F12000A061E16A01EB8101154A02EBF2
:1057E00081016069884201D1012000E0002068B396
:1057F000201DFDF7BDFA40B994F82C100120884017
:105800000B49096881430A48016007480068C06A7B
:10581000E06294F82C10012088400549096808438B
:1058200003490860E16A12E0440000208000002083
:105830005C000020640300200C06002068000020AB
:105840006C000020580000206000002021E001EBE7
:105850008101FC4A02EB81014868A0608268E26035
:10586000211D826851608160E16A01EB8101F54A86
:1058700002EB81026261E16A01EB8101F14A52F8B7
:105880002110491CE26A02EB8202EE4B43F822101F
:1058900003E0ED480068C06AE062012606E0EA49DC
:1058A000E06C0968C96A884200D20126304670BDA2
:1058B00070B505462C460026002D68D0E2480068E9
:1058C000844201D1012000E0002050B900BF5020E7
:1058D00080F31188BFF34F8FBFF36F8F00BF00BFFE
:1058E000FEE7206D50B900BF502080F31188BFF350
:1058F0004F8FBFF36F8F00BF00BFFEE7206D401ECC
:105900002065E16CE06A884241D0206D00283ED1DC
:10591000201DFDF72DFA40B994F82C100120884085
:10592000CA4909688143C9480160E06CE062E06AE5
:10593000C0F12000A06194F82C1001208840C349D8
:1059400009680843C1490860E16A01EB8101BD4A69
:1059500002EB81014868A0608268E260211D8268D4
:1059600051608160E16A01EB8101B64A02EB81027C
:105970006261E16A01EB8101B24A52F82110491CCF
:10598000E26A02EB8202AF4B43F822100126304656
:1059900070BD2DE9F04706460F4634464FF0010929
:1059A000002E7AD0206D50B900BF502080F31188AE
:1059B000BFF34F8FBFF36F8F00BF00BFFEE7E06CF8
:1059C000B84201D23D4600E0E56CE06AA84264D0EE
:1059D000206D012861D19C480068844201D00120DB
:1059E00000E0002050B900BF502080F31188BFF3C1
:1059F0004F8FBFF36F8F00BF00BFFEE7D4F82C803E
:105A0000E562A06900F0004010B9C5F12000A06176
:105A100008EB88018B4A02EB81016069884201D161
:105A2000012000E00020C0B3201DFDF7A1F940B91E
:105A300094F82C10012088408449096881438348E8
:105A4000016094F82C1001208840804909680843BF
:105A50007E490860E16A01EB81017A4A02EB81012B
:105A60004868A0608268E260211D826851608160A0
:105A7000E16A01EB8101734A02EB81026261E16A32
:105A800001EB81016F4A52F82110491CE26A02EBD6
:105A900082026C4B43F8221000BFBDE8F08770B55E
:105AA00005460E463146284602F00DFF284602F014
:105AB000F5FE044602E020202855641C0F2CFAD382
:105AC00000202855281970BD2DE9FC41064600200C
:105AD00030705F4807680146096801EBC101880022
:105AE00001F0B3F90546002D50D000223946284672
:105AF000FFF735FB0746002443E004EBC40005EB49
:105B00008000007B062813D2DFE800F00306090CB2
:105B10000F134FF058080FE04FF052080CE04FF011
:105B2000420809E04FF0530806E04FF0440803E054
:105B300000BF4FF0000800BF00BF04EBC40005EB3E
:105B4000800041683046FFF7AAFF064604EBC40018
:105B500005EB8000806804EBC40105EB8101098C32
:105B6000CDE9001004EBC40005EB8000424639A1EA
:105B70000369304603F09AF9304602F08FFE06447E
:105B8000641CBC42B9D3284601F008FABDE8FC8188
:105B90002D49096888692C490968C96AC1F1200141
:105BA000294A1268916170472748006830B1264938
:105BB000096801F15000096D491C01602248006824
:105BC00070472DE9F04104460F4616460CB90120F6
:105BD00000E0002050B900BF502080F31188BFF3CF
:105BE0004F8FBFF36F8F00BF00BFFEE701F029F8B2
:105BF00015480068543050F8240080B9012112483B
:105C000000685830015556B13046FEF7F8FC4FF0A9
:105C1000805014490860BFF34F8FBFF36F8F01F0BE
:105C200037F801F00EF808480068543050F8245056
:105C300005B3CFB1002104480068543040F8241067
:105C400018E0000064030020440000205C000020F5
:105C50005400002009256309257509257509257556
:105C60000D0A000004ED00E0681EFE490968543189
:105C700041F824000021FB4800685830015501F02C
:105C800007F82846BDE8F0812DE9F04704460F46A5
:105C900090461D46DDF820900CB9012000E0002060
:105CA00050B900BF502080F31188BFF34F8FBFF36E
:105CB0006F8F00BF00BFFEE700F0C3FFE948006838
:105CC0005830005D02281AD0E6490968543101EBCA
:105CD00084000168B94301600121E248006858303E
:105CE0000155B9F1000F0AD04846FEF788FC4FF085
:105CF0008050DD490860BFF34F8FBFF36F8F00F016
:105D0000C7FF00F09EFF2DB1D6480068543050F810
:105D100024002860D34800685830005D022801D074
:105D2000002609E0CF490968543101EB840001687D
:105D300021EA0801016001260021CA4800685830A4
:105D4000015500F0A5FF3046BDE8F0872DE9F05F72
:105D500007460D4616469846DDF828A04FF0010B81
:105D60000DB9012000E0002050B900BF502080F3A1
:105D70001188BFF34F8FBFF36F8F00BF00BFFEE7E7
:105D800057B900BF502080F31188BFF34F8FBFF386
:105D90006F8F00BF00BFFEE73C4600F052FFBAF134
:105DA000000F05D004F1540050F82500CAF8000097
:105DB00004F1580010F8059002214155B8F1050F83
:105DC00029D2DFE808F027030D171C0004F1540066
:105DD00050F82500304304F1540141F825002DE02E
:105DE00004F1540050F82500401C04F1540141F81E
:105DF000250023E004F1540040F825601EE0B9F1CD
:105E0000020F04D004F1540040F8256001E04FF087
:105E1000000B13E012E09548006808B9012000E08B
:105E2000002050B900BF502080F31188BFF34F8F7E
:105E3000BFF36F8F00BF00BFFEE700BF00BFB9F127
:105E4000010F5BD16069D4E902128A60D4E90221B2
:105E50004A60211D42688A4201D1E1684160002206
:105E600062610168491E016094F82C10012088408D
:105E70007F49096808437E490860E16A01EB8101B6
:105E80007C4A02EB81014868A0608268E260211DC3
:105E9000826851608160E16A01EB8101754A02EB21
:105EA00081026261E16A01EB8101724A52F82110BC
:105EB000491CE26A02EB82026E4B43F82210A06A90
:105EC00008B9012000E0002050B900BF502080F345
:105ED0001188BFF34F8FBFF36F8F00BF00BFFEE786
:105EE0006049E06A0968C96A884207D94FF0805062
:105EF0005D490860BFF34F8FBFF36F8F00F0C8FE9E
:105F00005846BDE8F09F2DE9F84F80460D461746EC
:105F10009946DDF828B001200090B8F1000F0AD1B1
:105F200000BF502080F31188BFF34F8FBFF36F8FF6
:105F300000BF00BFFEE70DB9012000E0002050B90E
:105F400000BF502080F31188BFF34F8FBFF36F8FD6
:105F500000BF00BFFEE700F0CFFE444600BF502167
:105F6000EFF3118081F31188BFF34F8FBFF36F8F71
:105F700000BF0646BBF1000F05D004F1540050F8F5
:105F80002500CBF8000004F1580010F805A002210C
:105F90004155B9F1050F29D2DFE809F027030D17A4
:105FA0001C0004F1540050F82500384304F154015A
:105FB00041F825002DE004F1540050F82500401C64
:105FC00004F1540141F8250023E004F1540040F8A5
:105FD00025701EE0BAF1020F04D004F1540040F81D
:105FE000257001E00020009013E012E01F480068D7
:105FF00008B9012000E0002050B900BF502080F314
:106000001188BFF34F8FBFF36F8F00BF00BFFEE754
:1060100000BF00BFBAF1010F7ED1A06A08B901200C
:1060200000E0002050B900BF502080F31188BFF37A
:106030004F8FBFF36F8F00BF00BFFEE70E480068B1
:10604000F0BB6069D4E902128A60D4E902214A6097
:10605000211D42688A4201D1E168416000226261EB
:1060600001680BE04400002004ED00E0580000202F
:106070005C0000206403002080000020491E0160B5
:1060800094F82C1001208840AA4909680843A949BE
:106090000860E16A01EB8101A74A02EB81014868CF
:1060A000A0608268E260211D826851608160E16ABF
:1060B00001EB8101A04A02EB81026261E16A00E02A
:1060C0000CE001EB81019C4A52F82110491CE26A64
:1060D00002EB8202984B43F8221010E0974948687F
:1060E000E0618268226204F1180182685160816077
:1060F000924AA26211460968491C116000BF90498A
:10610000E06A0968C96A884209D90B9810B101216F
:106110000B980160012000E001E08A49086000BF9F
:1061200086F3118800BF0098BDE8F88F2DE9F0478D
:1061300005460E46904655B900BF502080F31188A1
:10614000BFF34F8FBFF36F8F00BF00BFFEE70EB9E5
:10615000012000E0002050B900BF502080F31188DA
:10616000BFF34F8FBFF36F8F00BF00BFFEE700F09C
:10617000C3FD2C4600BF5021EFF3118081F311883D
:10618000BFF34F8FBFF36F8F00BF074604F1580076
:1061900010F8069002218155001F50F82600401C7F
:1061A00004F1540141F82600B9F1010F72D1A06A3F
:1061B00008B9012000E0002050B900BF502080F352
:1061C0001188BFF34F8FBFF36F8F00BF00BFFEE793
:1061D0005D48006800283DD16069D4E902128A60F8
:1061E000D4E902214A60211D42688A4201D1E16856
:1061F0004160002262610168491E016094F82C1020
:10620000012088404B49096808434A490860E16A0F
:1062100001EB8101484A02EB81014868A060826875
:10622000E260211D826851608160E16A01EB8101B9
:10623000414A02EB81026261E16A01EB81013E4A5F
:1062400052F82110491CE26A02EB82023A4B43F8F1
:10625000221010E039494868E0618268226204F146
:106260001801826851608160344AA262114609684F
:10627000491C116000BF3249E06A0968C96A884256
:1062800008D9B8F1000F02D00120C8F800000120A1
:106290002C49086000BF87F3118800BFBDE8F08774
:1062A0002DE9F04106460C460CB9012000E0002023
:1062B00050B900BF502080F31188BFF34F8FBFF358
:1062C0006F8F00BF00BFFEE716B91D48006800E0F1
:1062D0003046074600F0B5FC07F15800005D022883
:1062E00005D1002107F158000155012500E00025E6
:1062F00000F0CEFC2846BDE8F0812DE9F0410646CD
:106300000C46174616B90E48006800E030460546B0
:1063100000F097FC05F1540050F8248050F8240058
:10632000B84305F1540141F8240000F0B1FC4046A7
:10633000BDE8F0815C000020640300200C06002012
:106340004400002068000020800000202DE9F0417A
:1063500004460D4616461F464FF00008656024614E
:10636000B5420CD8F01BA169884202D34FF0010856
:1063700011E0211DFC480068FCF7E0FC0BE0BE4288
:1063800004D2BD4202D34FF0010804E0211DF748BA
:106390000068FCF7D3FC4046BDE8F08170B50446C8
:1063A0000D46164604E0A06905442046216A884748
:1063B000A06941192B4632462046FFF7C7FF002847
:1063C000F1D170BD70B505460E46E8480068C0685A
:1063D000C468201DFCF7CCFC94F8280000F00400F1
:1063E00028B1324629462046FFF7D8FF05E094F849
:1063F000280000F0FE0084F828002046216A884723
:1064000070BD70B508E0D9480068C06804684FF0F6
:10641000FF312046FFF7D6FFD4480068006808B96E
:10642000012000E000200028EDD0D0480568CE48CB
:106430000068CE490860CC48056070BD70B5044660
:10644000FEF724FD0546CA480068854204D2FFF7DE
:10645000D8FF0120206001E000202060C4480560D2
:10646000284670BD70B586B094E00298002811DA15
:1064700003AE56B900BF502080F31188BFF34F8F91
:10648000BFF36F8F00BF00BFFEE7D6E90020B16801
:10649000904700BF029800287CDB049C606908B923
:1064A000012000E0002010B9201DFCF761FC01A8CC
:1064B000FFF7C4FF054602980A2869D2DFE800F01A
:1064C0006805072E365806082F3700BF00BF00BFEB
:1064D00094F8280040F0010084F828000398A2698D
:1064E000811803462A462046FFF730FFA8B194F8EA
:1064F000280000F0040038B10398A26981182A46E8
:106500002046FFF74BFF05E094F8280000F0FE005E
:1065100084F828002046216A88473AE000BF94F8B2
:10652000280000F0FE0084F8280032E000BF94F854
:10653000280040F0010084F828000398A061A069B9
:1065400008B1012000E0002050B900BF502080F3C6
:106550001188BFF34F8FBFF36F8F00BF00BFFEE7FF
:10656000A06941192B462A462046FFF7EFFE10E0AE
:1065700094F8280000F0020018B9204600F00EFD43
:1065800005E094F8280000F0FE0084F8280000E000
:1065900000BF00BF002202A976480068FDF73FF95E
:1065A00000287FF462AF06B070BDF8B505460C4612
:1065B000FEF77CF86846FFF741FF0646009820BBCF
:1065C00044B9B54206D8FDF771FF31462846FFF7BA
:1065D000F9FE1CE03CB164480068006808B901207D
:1065E00000E000200446A91B224662480068FDF72F
:1065F00047FCFDF75BFF50B94FF080505E490860E3
:10660000BFF34F8FBFF36F8F01E0FDF74FFFF8BD72
:106610000146564A126812680AB9012200E00022B7
:106620000A600A6822B9514A1268D268106800E00C
:106630000020704708B500BF6846FFF7E9FF044631
:1066400020460099FFF7B1FFFFF70CFFF4E710B504
:1066500000F0F7FA47480068D0B94848FCF752FB09
:106660004748FCF74FFB45484049086044483E49CD
:106670000860002210210A20FCF710FC3D49086048
:106680000846006820B13FA13A480068FDF7ABFB1F
:1066900000F0FEFA10BD1CB50024FFF7D8FF354806
:1066A000006858B139481F2100234FF48272CDE9A8
:1066B000001037A13848FDF753FD044654B900BF18
:1066C000502080F31188BFF34F8FBFF36F8F00BF4F
:1066D00000BFFEE720461CBD2DE9F04706460D46EB
:1066E00017469846DDE908940DB1012000E000202E
:1066F00050B900BF502080F31188BFF34F8FBFF314
:106700006F8F00BF00BFFEE7FFF7A1FF2660A56106
:10671000C4F81C80C4F82090201DFCF700FB2FB1AA
:1067200094F8280040F0040084F82800BDE8F087C1
:106730002DE9FC4705460E4617469846DDF8289099
:106740002C2000F082FB044654B1002084F828007D
:1067500043463A4631462846CDE90094FFF7BCFF50
:106760002046BDE8FC87000088000020840000204F
:10677000940000208C00002004ED00E0480600207A
:106780005C060020546D7251000000009000002053
:10679000546D722053766300356600082DE9FF477B
:1067A00004460D4616461F46DDF830804FF00009BE
:1067B00054B900BF502080F31188BFF34F8FBFF34F
:1067C0006F8F00BF00BFFEE79D48006810B30095C3
:1067D00001960294062D15DAFEF7DBFF022808D198
:1067E00000234246694696480068FCF776FC8146DD
:1067F00010E000231A46694691480068FCF76DFCDA
:10680000814607E000233A4669468D480068FCF758
:10681000C8FE8146484604B0BDE8F0878948006854
:1068200008B1012000E0002050B900BF502080F3E3
:106830001188BFF34F8FBFF36F8F00BF00BFFEE71C
:1068400080480068704701460A4651B900BF502091
:1068500080F31188BFF34F8FBFF36F8F00BF00BF6E
:10686000FEE79069704770B505460E462C4655B94F
:1068700000BF502080F31188BFF34F8FBFF36F8F9D
:1068800000BF00BFFEE700F0DCF936B194F8280045
:1068900040F0040084F8280005E094F8280000F097
:1068A000FB0084F8280000F0F3F970BD70B50446D1
:1068B000264654B900BF502080F31188BFF34F8F94
:1068C000BFF36F8F00BF00BFFEE700F0BAF996F884
:1068D000280000F0040008B9002500E0012500F0C0
:1068E000D7F9284670BD10B501460A4651B900BF18
:1068F000502383F31188BFF34F8FBFF36F8F00BF17
:1069000000BFFEE7506810BD01460A4651B900BFFE
:10691000502080F31188BFF34F8FBFF36F8F00BFFC
:1069200000BFFEE71068704770B50446264654B9AC
:1069300000BF502080F31188BFF34F8FBFF36F8FDC
:1069400000BF00BFFEE700F07CF996F8280000F0D9
:10695000010008B9002500E0012500F099F928465A
:1069600070BD70B50446254654B900BF502080F371
:106970001188BFF34F8FBFF36F8F00BF00BFFEE7DB
:1069800000F05FF9EE6900F083F9304670BD70B534
:1069900004460D46264654B900BF502080F31188A6
:1069A000BFF34F8FBFF36F8F00BF00BFFEE700F054
:1069B00048F9F56100F06CF970BD2DE9FF4104461E
:1069C0000D4616461F466FF0010000900194029597
:1069D000039600233A46694619480068FCF7E1FD32
:1069E0008046404604B0BDE8F0812DE9FF410446F1
:1069F0000D4616461F461248006850B900BF502089
:106A000080F31188BFF34F8FBFF36F8F00BF00BFBC
:106A1000FEE74FF0FF3000900194029503960023AB
:106A20003A46694606480068FCF757FB80464046F0
:106A300004B0BDE8F0810146486A70474162704782
:106A40008C00002090000020C6480068401C08B957
:106A5000012000E0002050B900BF502080F31188D1
:106A6000BFF34F8FBFF36F8F00BF00BFFEE700BFC4
:106A7000502080F31188BFF34F8FBFF36F8F00BF9B
:106A800000BFFEE7001F4FF080730360001F21F07E
:106A900001030360001FB44B036014380260001F41
:106AA0006FF0020303602038704700204FF0E021B0
:106AB00008618861AD4800684FF47A71B0FBF1F06D
:106AC000401E4FF0E02148610720086170471CB567
:106AD000A7480068A749884201D0012000E00020B3
:106AE00050B900BF502080F31188BFF34F8FBFF320
:106AF0006F8F00BF00BFFEE79D4800689D49491E9B
:106B0000884201D0012000E0002050B900BF502091
:106B100080F31188BFF34F8FBFF36F8F00BF00BFAB
:106B2000FEE79549084600780190FF200A4610705C
:106B30000846007800909DF8000000F0F0009DF8F5
:106B40000020904201D1012000E0002050B900BF98
:106B5000502080F31188BFF34F8FBFF36F8F00BFBA
:106B600000BFFEE79DF8000000F05000834A10705F
:106B70000720834A106009E081480068401E804A6F
:106B800010609DF800004006000E00909DF8000087
:106B900000F080008028EFD079480068C0F107003D
:106BA000042801D1012000E0002050B900BF50208E
:106BB00080F31188BFF34F8FBFF36F8F00BF00BF0B
:106BC000FEE76F48006800026D4A106010460088BA
:106BD00000F4E0601060684A01981070644820304A
:106BE000006840F47000624920310860084600687F
:106BF00040F070400860FFF758FF002059490860D6
:106C0000F9F7F2FA5F48006840F040405D490860DB
:106C1000F9F7D6FA00201CBD52480068B0F57A7F1B
:106C200001D1012000E0002050B900BF502080F3C6
:106C30001188BFF34F8FBFF36F8F00BF00BFFEE718
:106C4000704700BF502080F31188BFF34F8FBFF310
:106C50006F8F00BF43480068401C424908600846E7
:106C60000068012813D14248001D0068C0B208B96D
:106C7000012000E0002050B900BF502080F31188AF
:106C8000BFF34F8FBFF36F8F00BF00BFFEE77047AA
:106C90003448006850B900BF502080F31188BFF31A
:106CA0004F8FBFF36F8F00BF00BFFEE72D48006816
:106CB000401E2C4908600846006820B9002080F377
:106CC000118800BF00BF704710B500BF502080F38F
:106CD0001188BFF34F8FBFF36F8F00BFFDF7F6FA38
:106CE00020B14FF080502249091D086000BF0020EC
:106CF00080F3118800BF10BD70B5F9F7ADFA0446F6
:106D0000102C16D304F1E02090F8F0531B480078C3
:106D1000854201DB012000E0002050B900BF502077
:106D200080F31188BFF34F8FBFF36F8F00BF00BF99
:106D3000FEE70F480C30006800F4E0601049096875
:106D4000884201D8012000E0002050B900BF502047
:106D500080F31188BFF34F8FBFF36F8F00BF00BF69
:106D6000FEE770BD98000020496A0008000000207E
:106D700000ED00E071C20F4100E400E09C00002043
:106D8000A000002034EF00E010B50146C64800E046
:106D9000006803688B42FBD30246436813448B426E
:106DA00004D143684C682344436001460A464B685B
:106DB00013440468A34211D1BC4C03682468A34265
:106DC00008D04B680468646823444B6003681B6800
:106DD0000B6005E0B54B1B680B6001E003680B60BE
:106DE000884200D0016010BD30B54FF4A043B048D8
:106DF00000F007042CB1C01D20F00700AC4C041BB0
:106E00001B1B0246A84C22600024A74D6C60D018C2
:106E1000083820F00700A54C20600024A34D2D6801
:106E20006C60A24D2D682C601146441A4C609F4C3A
:106E300024680C609F4D4C682C609F4D4C682C6002
:106E40004FF000449D4D2C6030BD2DE9F0410446CB
:106E50004FF00008FDF72AFC9448006808B9FFF7D6
:106E6000C3FF96480068204000287DD13CB304F160
:106E70000800A04223D9083404F0070000B304F04E
:106E80000700C0F108002044A04216D904F0070012
:106E9000C0F10800044404F0070008B9012000E034
:106EA000002068B900BF502080F31188BFF34F8FD6
:106EB000BFF36F8F00BF00BFFEE7002400E0002497
:106EC000002C54D07C480068844250D8764E30461E
:106ED000056801E02E462D686868A04202D2286845
:106EE0000028F7D171480068854240D0306800F131
:106EF0000808286830606868001B102819D92F1905
:106F000007F0070008B9012000E0002050B900BFD9
:106F1000502080F31188BFF34F8FBFF36F8F00BFF6
:106F200000BFFEE76868001B78606C603846FFF7BA
:106F30002BFF614968680968081A5F4908600846BC
:106F400000685C490968884203D25B480068594977
:106F500008605A496868096808436860002028602A
:106F600057480068401C00E001E055490860FDF703
:106F70009DFA08F0070008B9012000E0002050B990
:106F800000BF502080F31188BFF34F8FBFF36F8F86
:106F900000BF00BFFEE74046BDE8F08170B5064681
:106FA0003546002E44D0083D2C46444960680968A7
:106FB000084008B1012000E0002050B900BF502077
:106FC00080F31188BFF34F8FBFF36F8F00BF00BFF7
:106FD000FEE7206808B9012000E0002050B900BF9A
:106FE000502080F31188BFF34F8FBFF36F8F00BF26
:106FF00000BFFEE73149606809680840C0B12068F9
:10700000B0B92E496068096888436060FDF74EFB9F
:107010002949606809680844274908602046FFF745
:10702000B3FE28480068401C26490860FDF73EFA78
:1070300070BD2148006870471E480068704770475F
:107040002DE9F04104464FF000080026771EFDF7B9
:107050002DFB154805687DB100BF08F1010868687F
:10706000B04200D96E686868B84200D26F682D6877
:107070000E4800688542F0D1FDF718FA6660A760F7
:10708000C4F80C80FFF7DDFD0B48006820600C4859
:10709000006860610B480068A061064800682061D4
:1070A000FFF7F6FDBDE8F081A4000020AC00002051
:1070B00070060020B4000020B0000020C0000020B6
:1070C000B8000020BC0000202DE9F04104460D4628
:1070D00000262F46A06E10B90020BDE8F08101E027
:1070E000701C86B217F8011B0029F9D131462846D9
:1070F000A26E904780B2F0E770B504460D4694F852
:10710000600000F00100D8B11DB1F7A12046FFF7E3
:10711000DBFF206841682046FFF7D6FFF3A1204639
:10712000FFF7D2FFA06808B1A06800E0F0A0014618
:107130002046FFF7C9FFEFA12046FFF7C5FF04E097
:10714000ED48016B2046FFF7BFFF70BD30B502462A
:107150000B460824002018720EE002F00F010929E6
:1071600002DD01F1570001E001F13000C5B2601EFF
:10717000C0B204461D541209002AEED1C4F1080021
:1071800040B230BD10B50446002004E03021DB4A97
:107190001154411CC8B20928F8DB607800F00F00D8
:1071A000012801DC606810BD607800F00F0007283E
:1071B00001DC6068F7E7607800F00F00082801DC68
:1071C0006068F0E7CD496068FFF7C0FFCB48EAE7A9
:1071D0000246087858B1487800F00F00082806D019
:1071E000106878B1087813681B78184050B192F88D
:1071F000600000F0010018B94878C0F3001008B131
:10720000002070474FF0FF30FBE72DE9F0470646BE
:10721000884614461F465C20805BB16D611AA0EB66
:1072200011101FFA80F9002528E004EB05104078C2
:1072300000F00F00092805D004EB05113046FFF7D8
:10724000C7FF00B118E004EB0510FFF79BFF824673
:1072500047B95146404601F028FB60B904EB0510E0
:10726000BDE8F0873A465146404601F035FB10B97B
:1072700004EB0510F4E700BF681C85B24D45D4DB74
:107280000020EDE770B504460D462560A86858B1AA
:10729000A86801F003FB38B1E08E022806DBA16983
:1072A000A86801F002FB08B9012000E0002094F872
:1072B000601060F3000184F860108F48816B2046F5
:1072C000FFF702FF94F8600000F0010020B18A4847
:1072D00001682046FFF7F8FE70BD0146002009E076
:1072E000874A52F820201AB9854A42F82010704780
:1072F000421C10B20528F3DB00BFF8E72DE9F0418E
:1073000004460D4616460020A0810021E181206040
:1073100094F8600020F00100401C84F860002561B2
:10732000062096FBF0F0A086542001535020015314
:1073300052200153002009E0A28E411C02FB0152A1
:1073400004F13C0141F82020411C08B20528F3DB80
:107350006C48A0656C486B49401AC0F30F115C2063
:1073600001532046FFF7B9FF002368A12046A26D14
:10737000FFF74BFF074639462046FFF783FF012101
:107380002046FFF7B9FEBDE8F081014600200BE082
:107390005B4A52F820208A4204D10022584B43F81D
:1073A00020207047421C10B20528F1DB00BFF8E72F
:1073B000002111E0524850F8210058B1504850F8CF
:1073C000210090F86000C0F3400018B14C4850F81C
:1073D00021007047481C01B20529EBDB0020F8E7CB
:1073E00013B50446012101A8A26E90471CBD2DE9EA
:1073F000F04104460F4600253E46A06E10B900201D
:10740000BDE8F08102E0761C681C85B2307828B1B6
:1074100030780D2802D030780A28F4D1242D08DDE8
:1074200024213846A26E904703213BA0A26E9047CC
:1074300003E029463846A26E9047242D01DD242022
:10744000DEE72720DCE70FB410B5A2B004461CB974
:1074500022B010BC5DF814FB26A801907F2102A881
:10746000019B259A01F036FD0020019002A92046DB
:10747000FFF72AFE00BFEBE730B502460B241346A8
:10748000002A00DA53420020C8720DE00A2093FB64
:10749000F0F500FB15303030C5B2601EC0B20446B6
:1074A0000D540A2093FBF0F3002BEFD1002A04DAED
:1074B0002D25601EC0B204460D5422B93025601E31
:1074C000C0B204460D54C4F10B0040B230BD0246B8
:1074D000002003E00B5C1354431C98B20B5C002BA0
:1074E000F8D11354704700000D0A00003A00000064
:1074F0002F00000024200000C4000020845600203B
:1075000070560020909B0008D09C0008436F646573
:10751000727368656C6C00002E2E2E0030B502462A
:107520000B460020002108E0545C5D5CAC4200D0BA
:1075300008E0441CA0B24C1CA1B2545C14B15C5CC9
:10754000002CF1D100BF30BD0146487800F00F009B
:10755000012801DCC8687047487800F00F00072850
:1075600001DCC868F7E7487800F00F00082801DC64
:10757000C868F0E7C868EEE72DE9F04107460C4619
:107580002046FFF7FFFD054629463846FFF79CFDDC
:10759000C0F1160006B2002E01DD304600E00420E6
:1075A000064600BF20213846FFF71AFF701E00B2C2
:1075B000061EF7D1607800F00F00012805DCFA48BC
:1075C000016C3846FFF780FD25E0607800F00F0081
:1075D000072805DCF448416C3846FFF775FD1AE0D2
:1075E000607800F00F00082805DCEF48816C384611
:1075F000FFF76AFD0FE0607800F00F00092805DC56
:10760000E948C16C3846FFF75FFD04E0E648016DCC
:107610003846FFF759FDE5A13846FFF755FD072528
:107620000DE020780122AA40104008B1782000E047
:107630002D2001463846FFF7D3FE681E45B2002DC7
:10764000EFDADAA13846FFF73FFD2046FFF77CFF6F
:10765000054629463846FFF7CAFEAFF27411384690
:10766000FFF732FDBDE8F08170B50546AE6DCE483E
:1076700081682846FFF728FD002413E006EB04107C
:10768000407800F00F0001280ADC06EB04112846C0
:10769000FFF79EFD20B906EB04112846FFF76CFFAB
:1076A000601C04B25C20405BA042E7DC70BD70B59A
:1076B0000646B56DBC48C1683046FFF705FD00249D
:1076C0001AE005EB0410407800F00F00012811DDEE
:1076D00005EB0410407800F00F0007280ADC05EBEA
:1076E00004113046FFF774FD20B905EB0411304654
:1076F000FFF742FF601C04B25C20805BA042E0DC2C
:1077000070BD70B50646B56DA74801693046FFF7F4
:10771000DBFC00241AE005EB0410407800F00F00B9
:10772000072811DD05EB0410407800F00F00082851
:107730000ADC05EB04113046FFF74AFD20B905EBE2
:1077400004113046FFF718FF601C04B25C20805B18
:10775000A042E0DC70BD70B50646B56D9248416947
:107760003046FFF7B1FC00241AE005EB0410407826
:1077700000F00F00082811DD05EB0410407800F040
:107780000F0009280ADC05EB04113046FFF720FD45
:1077900020B905EB04113046FFF7EEFE601C04B281
:1077A0005C20805BA042E0DC70BD10B50446204642
:1077B000FFF75AFF10BD70B505460C4603E07CA1EB
:1077C0002846FFF781FC201EA4F10101CCB2F6D1BE
:1077D00070BD70B50446A189E089081A05B205E0BC
:1077E00020212046FFF7FCFD681E05B2002DF7DCC6
:1077F000217B2046FFF7DFFF70BD70B504460D46C4
:10780000A189A08E401E81420DDB67484168204659
:10781000FFF75AFC01212046FFF76EFC2046216944
:10782000FFF752FC70BDE089A189884210D1A1897F
:10783000481CA081206945540021A28920698154F7
:10784000E089401CE08129462046FFF7C9FD3CE065
:10785000E089A189884238DAA289E189511A08B2FF
:107860000AE0E1890144491E2269525CE189014430
:1078700023695A54411E08B20028F2DCE189481CF1
:10788000E081206945540021A089401C80B2226912
:10789000A0811154E089401E06B206E02069815D96
:1078A0002046FFF79DFD701C06B2A089B042F5DCB2
:1078B000A189E089081A06B205E008212046FFF7F1
:1078C0008FFD701E06B2002EF7DC00BFAAE72DE97F
:1078D000F04104460D46681C08B9012000E0002074
:1078E0000746E08908B9012D05D0E089A1898842C1
:1078F00003D1681C08B9BDE8F081E089A1898842FC
:1079000010D1012D0ED1E089401EE081A089401EDA
:10791000A0810021A2892069815401212046FFF71E
:107920004AFF3FE038460AE0E18901442269525C9F
:10793000E1890144491E23695A54411C08B2A289B5
:10794000E189511A8142EFDCA089401EA08137B93C
:10795000E089401EE08108212046FFF741FD00211B
:10796000A28920698154E08906B206E02069815D20
:107970002046FFF735FD701C06B2A089B042F5DC49
:1079800020212046FFF72CFDA189E089081A401C20
:1079900006B205E008212046FFF722FD701E06B260
:1079A000002EF7DC00BFA6E7C40000202020000066
:1079B00008200800F0B500220123002106E0002580
:1079C00000F1140444F821504C1C21B20829F6DBC4
:1079D0000024C486002130E032B90469645C202CA4
:1079E00025D00469645C14B30469645C222C04D15E
:1079F0000AB9012400E000242246012B0CD1C48ED8
:107A0000082C08DA04696518C68E741CC48600F157
:107A1000140444F8265000230469645C5C2C0AD1E9
:107A20004C1C05692C5D34B14C1CA1B203E000254F
:107A30000469655401234C1CA1B284898C42CBDCBF
:107A4000F0BD70B5044600252BE004F1140050F899
:107A50002500007822280CD1002104F1140050F8F0
:107A60002500017004F1140050F82510491C40F85D
:107A7000251004F1140151F8250000F00FFF86B223
:107A800004F1140050F82510701E085C222806D15D
:107A9000002104F1140050F82520701E1154681CB8
:107AA00085B2E08EA842D0DC70BD70B506460C46AB
:107AB0000025607800F00F00801E06281BD2DFE84A
:107AC00000F003060A0D0E10A068056814E0A06817
:107AD000B0F9005010E0A06805780DE000BFA5687F
:107AE0000AE0A068406818B1A26803CA884700E0AD
:107AF0000020054600E000BF00BF284670BDFEB56F
:107B000005460C46F9A207CA8DE80700214628461B
:107B1000FFF7CBFF074628466168FFF7D5FAF6A1C5
:107B20002846FFF7D1FA607800F00F0005280CD145
:107B3000F2A12846FFF7C8FA39462846FFF7C4FAEB
:107B4000EEA12846FFF7C0FA21E069463846FFF764
:107B500093FCC0F10B006946461831462846FFF7F2
:107B6000B3FAE7A12846FFF7AFFA002004E030217E
:107B70000DF80010411C08B20B28F8DB69463846A6
:107B8000FFF7E4FA69462846FFF79EFA00BF00BFF8
:107B9000AFF2AC612846FFF797FA3846FEBD70B5E4
:107BA00006460C4615466078C0F3801028B1D648CA
:107BB000016A3046FFF788FA32E0607800F00F0083
:107BC000801E06282AD2DFE800F003060A0D1218EC
:107BD000A068056023E029B2A06801801FE0A068CA
:107BE00005701CE02946A068FFF771FC17E0C64845
:107BF000C1693046FFF768FA11E0A068806860B19B
:107C0000A068006828B1A1688A680868294690477A
:107C100003E0A06881682846884700E000BF00BFF5
:107C200021463046FFF76BFF70BD2DE9F041064657
:107C30000F46FFF7BDFB054615B90020BDE8F081F2
:107C4000002331462846AA6DFFF7DFFA044634B90F
:107C5000AD48816A2846FFF737FA0020EEE76078E2
:107C600000F00F00022804DB607800F00F00072806
:107C70000ADD31462846FFF727FAA348416A28461D
:107C8000FFF722FA0020D9E73A4621462846FFF7B7
:107C900086FFD3E7FEB505460C4694A2D2E9001054
:107CA0009268CDE90102009198A12846FFF70CFAED
:107CB00069462046FFF7E0FBC0F10B006946461815
:107CC00031462846FFF700FA8DA12846FFF7FCF958
:107CD000002004E030210DF80010411C08B20B28F0
:107CE000F8DB69462046FFF731FA69462846FFF778
:107CF000EBF9AFF60C012846FFF7E6F9FEBD70B5CB
:107D000004460D46002694F8600020F00200801C16
:107D100084F86000687800F00F0088B92046FFF70B
:107D200090FEE08E04F11401AA6890470646687838
:107D3000C0F3401040BB31462046FFF7ABFF2DE0BB
:107D4000687800F00F00012810D1E28E04F11403CE
:107D50002946204600F080FC06466878C0F34010B3
:107D600090B931462046FFF795FF17E0687800F09C
:107D70000F00022809DB687800F00F00072804DCF8
:107D800029462046FFF7BBFE08E0687800F00F00A8
:107D9000082803D129462046FFF774FA94F86000BA
:107DA00020F0020084F86000304670BD10B5044633
:107DB00022689168206900F078FD60B994F860004D
:107DC00020F00100401C84F860004F480168204604
:107DD000FFF77AF904E04C48416B2046FFF774F94D
:107DE0000020A0810021E18110BD10B504460021D2
:107DF000542001535020005B002810DD5222125BFA
:107E000021690AB9052201E05222125B521E04F1D7
:107E10003C0353F8220000F048FD00B910BD522287
:107E2000135B04F13C0252F823002169FFF74FFB7A
:107E300028B15220005B401C81B2522001535020D7
:107E4000005B401C81B250200153052901DD052152
:107E500001535220005B052802DB00215220015310
:107E600000BFDBE770B504460D46002D25DDB4F9F3
:107E700054105420005B401E02B254200253502084
:107E8000025B5220005B824202DD5020005B01E079
:107E90005220005B404281421DDC5020015B522099
:107EA000005B814202DD5020005B01E05220005B5C
:107EB000404201B2542001530DE0002D0ADA542053
:107EC000005B401C01B254200153002903DD002156
:107ED000015370BDFDE72046FFF77BFC5420005B9B
:107EE000D0B90021A181E18132E000003030303092
:107EF0003030303030303000203D20002200000093
:107F00002C20307800000000C400002052657475F9
:107F1000726E3A20000000005220005B401DB4F950
:107F200054100844052190FBF1F201FB120104F109
:107F30003C0050F8216031462069FFF7C8FAA08163
:107F400000B9C6E7A189E18120462169FFF7BCF8A5
:107F500000BFBEE770B504460D4694F8600020F0FF
:107F6000040084F8600029462046FFF746FC70BDF7
:107F700070B50446A08900B970BD0021A2892069AE
:107F8000815494F8600000F0010018B32046FFF718
:107F90002CFF2046FFF70EFD0021E181A181E08E3C
:107FA00000B9E9E7AFF6C0212046FFF78DF80023BE
:107FB0002046A26D6169FFF728F9054625B12946DB
:107FC0002046FFF79CFE04E0F94881692046FFF750
:107FD0007BF802E02046FFF7E9FE00BFCCE710B5D2
:107FE000044601212046FFF73DFF10BD10B50446B1
:107FF0004FF0FF312046FFF735FF10BD10B50446A6
:10800000E089A189884207DAE289501CE081206971
:10801000815C2046FFF7E4F910BD10B50446E08905
:10802000002806DD08212046FFF7DAF9E089401E26
:10803000E08110BD2DE9F84F0446B4F834A04FF0AC
:1080400000080025A08938B92046FFF7AEFB0121C2
:108050002046FFF751F871E0A08900286EDD00216D
:10806000A28920698154A66D002738E006EB07112C
:108070002046FFF7ADF880BB06EB0710FFF782F84C
:10808000834659462069FFF749FAA189884224D1DD
:10809000FDB1012D04D1AFF6B0312046FFF714F841
:1080A00006EB08112046FFF767FA06EB0710FFF70B
:1080B00069F8834606EB0810FFF764F8594600900C
:1080C000FFF72CFA8146CA4501DD484600E05046DC
:1080D00082461FFA87F8681C85B2781C07B25C20BC
:1080E000005BB842C2DC0DB9BDE8F88F012D02D1AA
:1080F0002046FFF76EFB4DB106EB0810FFF742F884
:10810000074639462069FFF7E2F9A081012D0ADD13
:1081100006EB08112046FFF72FFA01212046FEF753
:10812000EBFFA4F80CA00021A28920698154A18949
:10813000E18120462169FEF7C7FF00BF00BFD3E7FA
:1081400010B5044601212046FFF7C1FB10BD10B554
:1081500004464FF0FF312046FFF7B9FB10BD10B5C4
:1081600004462046FFF704FF01212046FEF7C4FF26
:1081700010BD2DE9F04104460E460023314620464D
:10818000A26DFFF742F80546FDB18948C16A204655
:10819000FEF79AFF2846FEF7F5FF074639462046C8
:1081A000FEF792FFAFF6C0412046FEF78DFF28464E
:1081B000FFF7CAF9074639462046FEF785FFAFF6B6
:1081C000D8412046FEF780FF04E0794881692046C7
:1081D000FEF77AFFBDE8F08170B504460D46FFF763
:1081E000E7F8064606B970BD012C03D13046FFF70B
:1081F000DCFA05E0012C03DD30466968FFF7B9FFC2
:1082000000BFF0E72DE9F04704468846B8F1000FBB
:1082100001D1BDE8F0872046E16E884718274FF06E
:108220000009208F00F47F4018B100276FF0FF098C
:108230000EE0A06B00F47F0018B10827DFF87491FE
:1082400006E0A06B00F07F4010B110274FF07F498F
:10825000A66D00253EE006EB0510407800F00F000B
:10826000092835D106EB05112046FEF7B1FF70BB9A
:1082700006EB0510406800EA0900A16B884227D18F
:1082800006EB05104168FF20B840084008FA07F1E6
:1082900088421DD108FA07F1A06B0843A0634FF094
:1082A000000847B106EB05104068A7F10801FF225E
:1082B0008A40104058B906EB0510806820B106EBE3
:1082C00005108168204688470021A16306E0FFE78A
:1082D000681C05B25C20005BA842BCDC00BFB8F1A2
:1082E000000F05D00021A16341462046FFF732FE72
:1082F0002046216F884700BF8BE738B504462546E6
:10830000686E50B1012168466A6E9047012804D119
:108310009DF800102846FFF775FF38BD10B5FFF730
:1083200047F8044614B12046FFF7EBF910BD10B52D
:10833000FFF73EF8044614B12046FFF795F910BD4B
:1083400010B5FFF735F8044614B12046FFF7AFF932
:1083500010BD10B5FFF72CF8044614B12046FFF706
:10836000FAF910BD10B5FFF723F8044624B1104800
:10837000816B2046FEF7A8FE10BD70B504460D4681
:1083800004B115B94FF0FF3070BD94F86000C0F330
:108390004006284600F082FAA18E491E88420BD979
:1083A000034841682046FEF78FFE4FF0FF30EBE7B1
:1083B000C40000200000FFFF29462069FFF787F86E
:1083C000A0812046FFF7D4FD94F8600066F34100D9
:1083D00084F860000020D7E710B50246114600205F
:1083E0000B78302B07D14B78782B02D04B78582B59
:1083F00001D103200EE00B78302B07D14B78622B94
:1084000002D04B78422B01D1012003E00B78302BB6
:1084100000D1022006E00B782E2B03D14B780BB154
:10842000042003E011F8014B002CF4D100BF10BD73
:108430000146302905DB392903DCA1F13000C0B247
:108440007047612905DB662903DCA1F15700C0B242
:10845000F6E7412905DB462903DCA1F13700C0B26C
:10846000EEE70020ECE70246511C00200B785C2B65
:108470001AD14B786E2B0ED004DC302B0FD0622B30
:108480000FD104E0722B04D0742B0AD105E0082030
:1084900009E00D2007E00A2005E0092003E00020A4
:1084A00001E0487800BF00E00878704770B50446E6
:1084B000254600262078222802D1601C0446054665
:1084C00013E028785C2805D1681EFFF7CCFFA05583
:1084D0006D1C07E02878222802D10020A05501E079
:1084E0002878A0556D1C701C86B228780028E8D129
:1084F000A055204670BD2DE9F84F05464FF0000A03
:108500004FF00A0B2C4600200090012600279FED1B
:10851000850A10EE109A804628782D2800D1B61EC4
:10852000711C09B9012100E000214819FFF754FF2F
:108530008246BAF1010F0FD0BAF1020F07D0BAF19B
:10854000030F0ED14FF0100B022000900AE04FF005
:10855000080B0120009005E04FF0020B0220009074
:1085600000E000BF00BF00982918701C08B9012066
:1085700000E000200C1811E020782E2803D14FF0E5
:108580000108641C0AE02078FFF752FF07FB0B0785
:1085900008EB88004FEA4008641C00BF20780028E0
:1085A000EAD1BAF1040F17D1B8F1000F14D000EEE0
:1085B000107AB8EE401A00EE108AB8EE400AC1EE0A
:1085C000000A00EE106AB8EEC00A20EE800A10EE33
:1085D000109A4846BDE8F88F07FB06F0FAE770B539
:1085E00004460D460023691C2046A26DFEF70DFED1
:1085F000064626B131462046FFF757FA70BD0020E7
:10860000FCE770B505460C462078272805D1607830
:1086100018B12046FFF727FF70BD20782D2805D020
:108620002078302806DB2078392803DC2046FFF745
:1086300062FFF1E72078242806D1607820B1214636
:108640002846FFF7CCFFE7E7207818B12046FFF770
:108650002DFFE1E70020DFE72DE9F0438BB08146F5
:108660000C4615461F46202103A800F00CF9A078FF
:1086700000F00F01681E814203DDA07800F00F00BA
:1086800000E0681E8046002609E0701C57F82010A4
:108690004846FFF7B6FF03A941F82600761C681E7E
:1086A000B042F2DCB8F1080F38D2DFE808F0040974
:1086B0000D12171C232CA06880470BB0BDE8F08377
:1086C0000398A1688847F8E7DDE90301A2689047AD
:1086D000F3E703A807C8A3689847EEE703A80FC805
:1086E000A668B047E9E70798009003A80FC8A668F6
:1086F000B047E2E7DDE90701CDE9000103A80FC8B3
:10870000A668B047D9E7DDE907120998CDE900125C
:10871000029003A80FC8A668B047CEE74FF0FF301D
:10872000CBE700000000000070B504460D460022B3
:1087300029462046F8F78AF900B270BD70B50446A4
:108740000D46002229462046F8F79AF900B270BD7E
:1087500010B5AFF22B0020498866AFF21F004866C3
:108760004FF400721D491C48FEF7C8FD10BD70B5DE
:1087700005460E4629461AA000F088FB002407E0B3
:1087800056F8242021461BA000F080FB601CC4B2D8
:10879000AC42F5DB002070BD70B505460C46022DDD
:1087A00002D01AA000F072FB60680078302806D171
:1087B00001201C4908601CA000F068FB09E060680B
:1087C0000078312805D10020164908601CA000F06F
:1087D0005DFB002070BD0000905600200457002073
:1087E0002564706172616D657465722873290D0A64
:1087F00000000000617267756D656E74202564204D
:108800002D2D2D2025730D0A00000000496E707576
:108810007420706172616D206572726F72210D0A31
:1088200000000000A48242425368656C6C205365CE
:1088300074204C454431206F66660D0A000000002C
:108840005368656C6C20536574204C454431206F2F
:108850006E0D0A0040EA01039B0703D009E008C936
:10886000121F08C0042AFAD203E011F8013B00F8F5
:10887000013B521EF9D27047D2B201E000F8012B41
:10888000491EFBD270470022F6E710B513460A4690
:1088900004461946FFF7F0FF204610BD421C10F8B1
:1088A000011B0029FBD1801A704710B5002200E09F
:1088B000521C835C8C5CA34201D1002BF8D1D8B24E
:1088C000E1B2401A10BD034611F8012B00F8012B4C
:1088D000002AF9D11846704730B5054600200346F6
:1088E00000E05B1C934205D2EC5CC85C201A01D10D
:1088F000002CF6D130BD2DE9FE4F804681EA030001
:10890000C00F0C46009021F0004123F00045B8EB69
:108910000200A94105D24046214690461C460B461E
:10892000024623F00040104347D0270DC7F30A004A
:10893000C3F30A510290401A019040286BDAC3F346
:10894000130040F4801B0098924620B10023D2EB24
:10895000030A63EB0B0B01985946C0F140025046E5
:1089600000F055F906460D4650465946019A00F06A
:108970006DF910EB08006141002487EA115284EA86
:10898000E7731A4340D0009A62B3019A012A4FEA72
:10899000075215DC001B61EB02014FF0004202EAB6
:1089A0000752CDE90042001C41F5801132462B46AA
:1089B00000F06DF903B0BDE8F08F40462146F9E7BD
:1089C000001B61EB0201001C41F5801300185B41A4
:1089D0002018A2F5001747EB030140EAD570B6193D
:1089E0006D4111E06D084FEA360645EAC0754FEA61
:1089F0000752001B61EB0201001C41F58011490880
:108A00004FEA30000019514132462B4603B0BDE811
:108A1000F04F00F02DB90098012240000023D0EB68
:108A2000020263EBE073009821464FEAE074B8EB72
:108A3000000061EB0401E9E783F000435BE781F0AC
:108A4000004158E72DE9FE4F81EA030404F0004499
:108A500021F0004100944FF0000B23F0004350EA56
:108A600001045ED052EA03045BD0C3F30A54C1F39D
:108A70000A552C44A4F2F3340194A0FB0254C1F330
:108A8000130141F48011C3F3130343F4801301FB7A
:108A9000024400FB034E840A970A44EA815447EAE1
:108AA0008357A4FB076802958D0A05FB07854FEAEB
:108AB000932C04FB0C542705029D4FEA065847EA05
:108AC0001637B5EB08056EEB070C870E920E47EADA
:108AD000811742EA8312A7FB0201B6EB0B0164EB9C
:108AE00000042B0D43EA0C335E1844EB1C50DA46AD
:108AF0005146E7FB0201C5F313044FEA0B3343EA87
:108B000014534FEA0432019C43EA0603A4F10C0417
:108B10000294009CCDE900B400F0B9F803B0BDE8C0
:108B2000F08F00200146F9E7C1F30A5210B5C1F3F6
:108B3000130140F2FF3341F480119A4201DA002020
:108B400010BD40F233439A42A2F2334203DC524258
:108B500000F06CF810BD904010BD00F0004230F005
:108B600000400AD0C10D01F56071C0F3160042EA61
:108B70000151C20840071143704700200146704769
:108B800030B50B46014600202022012409E021FADD
:108B900002F59D4205D303FA02F5491B04FA02F5DA
:108BA0002844151EA2F10102F1DC30BD2DE9F05F71
:108BB0000546002092469B4688460646814640244C
:108BC0001BE0284641464746224600F02FF8534610
:108BD0005A46C01A914110D311461846224600F059
:108BE00016F82D1A67EB01084F4622460120002196
:108BF00000F00DF817EB00094E41201EA4F101040E
:108C0000DFDC484631462A464346BDE8F09F202A2D
:108C100004DB203A00FA02F1002070479140C2F1D3
:108C2000200320FA03F3194390407047202A04DB05
:108C3000203A21FA02F00021704721FA02F3D040D5
:108C4000C2F120029140084319467047202A06DBF2
:108C5000CB17203A41FA02F043EAE07306E041FA0A
:108C600002F3D040C2F120029140084319467047F8
:108C700010B5141E73F1000408DA401C41F1000124
:108C800092185B411A4301D120F0010010BD2DE97B
:108C9000F04D92469B4611B1B1FA81F202E0B0FA72
:108CA00080F220329046FFF7B2FF04460F4640EABA
:108CB0000A0041EA0B0153465A46084313D01146B5
:108CC00053EA010019D0C8F140025046FFF7AEFF49
:108CD00005460E46504659464246FFF798FF084360
:108CE00005D0012004E020463946BDE8F08D002083
:108CF000054346EAE0762C4337430A986305E40AC5
:108D0000A0EB08000022FD0A44EA47540A3002D5CD
:108D100000200146E9E7010510196941DDE9084530
:108D200000196941BDE8F04DA2E72DE9F04D81EA57
:108D3000030404F0004B21F0004514464FF0000AF4
:108D400023F0004150EA050220D054EA01021DD070
:108D5000C5F30A570246C5F31303C1F31300C1F369
:108D60000A5640F4801543F48013A7EB0608101B45
:108D7000D64608F2FD3873EB050002D308F101086E
:108D800001E092185B41B8F1000F03DA00200146C0
:108D9000BDE8F08D00204FF48011064684460EE0B9
:108DA000171B73EB050705D3121B63EB0503064383
:108DB0004CEA010C49084FEA300092185B4150EA36
:108DC0000107EDD152EA030012D082EA040083EADF
:108DD0000501084305D0101BAB4106D20122002338
:108DE00006E000224FF0004302E06FF00102531052
:108DF0001AEB06004CEB085110EB0A0041EB0B019B
:108E0000BDE8F04DFFF734BFC1F30A52C1F31301BF
:108E100040F2FF3341F480119A4202DA0020014609
:108E2000704740F233439A42A2F2334202DC52428C
:108E3000FFF7FCBEFFF7EBBE30B5041E71F1000476
:108E400004DB4FF00044404264EB0101141E73F157
:108E5000000405DB1C464FF00043524263EB040361
:108E6000994208BF904230BD064C074D06E0E068CD
:108E700040F0010394E8070098471034AC42F6D361
:108E8000F7F786F9709B0008909B00080FB4054B1C
:108E900010B503A9044A029800F008F910BC5DF867
:108EA00014FB000065090008300000200FB4084BD7
:108EB00010B504A902AA039800F0F8F8044602A924
:108EC000002000F081FC204610BC5DF814FB00007F
:108ED000C99700087CB50C001D461646014601D016
:108EE000601E00E00020CDE90010064B6A462946CE
:108EF000304600F0DBF8002C02D0009A00211170FF
:108F00007CBD0000B397000802E008C8121F08C12A
:108F1000002AFAD170477047002001E001C1121FFA
:108F2000002AFBD1704700002DE9FF5F82B00021CD
:108F3000DDE90430020DDDF840B0034318D044F6FB
:108F40001050A2F2FF3242431514119801281FD08D
:108F5000A5EB0B00401C5FEA000A4FF000064E4FE5
:108F6000DFF83891B046504615D5CAF1000413E039
:108F7000119801244AA3012801D16FEA0B0102983C
:108F8000119AC0E90031C0E9024206B0BDE8F09F85
:108F9000CBF10000DFE704460021404A491842EBCC
:108FA0000450CDE9001012E0E00707D032463B46FE
:108FB00040464946FFF746FD8046894632463B46D5
:108FC00010461946FFF73EFD06460F466410002C7A
:108FD000EAD1DDE90401DDE90023BAF1000F06DA88
:108FE000FFF730FD42464B46FFF72CFD05E0FFF74B
:108FF0009CFE42464B46FFF798FE04460E46002272
:10900000284BFFF719FF03D84FF0FF30014607E068
:109010000022254B20463146FFF76DFCFFF7F4FE9A
:10902000102409E0002C0ADB0A220023FFF7BEFD12
:10903000039B30321A55641E50EA0102F2D1641CBF
:10904000039AC4F111031444119A012A03D0012296
:1090500008430DD10AE0084304D000204FF0110B63
:10906000119072E7A3EB0B056D1E0DE05B4504DD6F
:109070004FF0000205F1010504E003DA4FF00002B1
:10908000A5F10105002AECD002981199C0E902313E
:10909000C0E9004579E70000000014400000F03FFF
:1090A000300000000000F0430000E03F2DE9FF4FDA
:1090B00095B09A46884606460025EEE1252877D1E8
:1090C00000242746F94A0121039400E0044316F8DE
:1090D000013F203B01FA03F01042F7D130782A28F3
:1090E00011D06FF02F033078A0F13002092A16D882
:1090F000039A44F0020402EB820203EB42021044A2
:10910000761C0390EFE758F8042B0392002A03DA49
:10911000504244F40054039044F00204761C30782A
:109120002E2816D116F8010F44F004042A280DD079
:109130006FF02F023078A0F13003092B09D807EB2C
:10914000870302EB4303C718761CF3E758F8047B48
:10915000761C30786C280FD006DC4C2817D0682895
:109160000DD06A2814D104E0742810D07A280FD1C9
:109170000DE044F400140AE044F4801401E044F4E7
:1091800040147278824202D104F58014761C761C59
:10919000307866280BD013DC582877D009DC0028FB
:1091A00075D04528F6D04628F4D047281AD193E147
:1091B00018E0632835D0642879D0652812D18BE176
:1091C000702873D008DC6728F1D069286FD06E282A
:1091D0000DD06F2806D1ACE073282CD0752874D040
:1091E000782853D05246179990476D1C54E1C4F328
:1091F0000250022809D003280DD0D8F80010042806
:109200000DD00D6008F1040846E1D8F80010EA1707
:10921000C1E90052F6E7D8F800100D80F2E70D70B2
:10922000F0E718F8041B8DF8001000208DF80100FD
:10923000EB46012003E058F804BB4FF0FF30610714
:109240004FF0000102D40DE009F101018946B94255
:109250000FDA8145F8DB1BF809100029F4D108E08A
:1092600009F1010189468142FADB1BF80910002946
:10927000F6D103985346A0EB090721463846179AC2
:1092800000F080FA284400EB090507E044E008E11B
:109290000DE01BF8010B524617999047B9F10109EF
:1092A000F7D2534621463846179AF2E039E00A21B0
:1092B000C4F302524FF0000B0091022A06D058F876
:1092C000040BC117032A09D00AE023E008F10700C4
:1092D00020F00702F2E80201904605E000B2C11753
:1092E000042A01D140B2C117002906DA0A4600213A
:1092F000404261EB02012D2202E0220504D52B221F
:109300008DF80420012203E0E20701D02022F7E7D4
:10931000914657E00A2100E010214FF0000B009128
:109320000BE010214FF0000B44F0040408270091DB
:1093300003E008204FF0000B0090C4F30252022A11
:1093400005D058F8040B0021032A08D008E008F1E2
:10935000070020F00702F2E80201904603E080B225
:10936000042A00D1C0B24FF0000922072AD5327872
:10937000702A07D0DDF800C08CF0100C5CEA0B0CF2
:1093800005D00EE040228DF80420012208E050EACA
:10939000010306D030238DF804308DF80520022219
:1093A0009146009B83F0080353EA0B030AD150EA6D
:1093B000010201D1620705D530228DF804204FF05B
:1093C00001097F1E3278582A04D039A20C920CAAC7
:1093D00002920BE03BA2F9E75B46009AFFF7E6FB3F
:1093E0000C9B9B5C029A521E0292137050EA01027F
:1093F000F2D1029804A9081A00F1200B600702D5E7
:1094000024F4803400E001275F4502DDA7EB0B0068
:1094100000E0002000EB0B01009003984944401A43
:109420000390E00306D453462146179A039800F0B0
:10943000A9F90544002706E001A85246C05D179926
:1094400090476D1C7F1C4F45F6DBE0030CD553465F
:109450002146179A039800F095F9054404E030205E
:109460005246179990476D1C0099481E009000299C
:10947000F5DC08E00298029952460078491C0291F6
:10948000179990476D1CBBF10001ABF1010BF1DCAA
:109490005BE100F065F90544761C307800287FF424
:1094A0000DAE19B02846BDE8F08F00000928010074
:1094B000303132333435363738396162636465664A
:1094C000000000003031323334353637383941420C
:1094D0004344454600000000600700D4062708F119
:1094E000070020F00700F0E80223804603F0004C5C
:1094F0005FEA0C0001D097A009E0200501D596A0F5
:1095000005E0E00701D095A001E0AFF24C00139018
:10951000307823F0004365280CD006DC452809D0BC
:1095200046281DD047287FD13BE0662818D0672801
:109530007AD136E00021112F01DB112000E0781CE8
:10954000CDE9000104A90CA8FFF7EEFCDDE90D014F
:109550000C9A4FF0000B07F10109109200914EE0B8
:109560004FF000400097CDE9011004A90CA8FFF7C7
:10957000DBFCDDE90D020C9B0F994FF0000B9146CF
:109580001093009211B9791C00EB0109B7EB0900A7
:1095900003D4C0F1FF3B07F10109A9EB07000190DB
:1095A00042E0012F00DA01270021112F01DD1120F7
:1095B00000E03846CDE9000104A90CA8FFF7B4FC8F
:1095C000DDE90D010C9A00914FF0000BB9461092A5
:1095D00021070FD4009A4A4503DA914601E0A9F128
:1095E0000109B9F1010F05DD109AA9F10101515CE2
:1095F0003029F4D0B84202DA10F1040F03DA012165
:10960000CDE9011010E0002803DC8344A9EB000140
:1096100002E0411C494500DD8946A0EB0B00401CDF
:1096200001904FF000400290200705D40198484572
:1096300002DB4FF0FF30019000208DF84B000298C4
:109640000DF14B07B0F1004F25D002200C902B20DC
:109650000D90029800280CDA404202902D200D90C7
:1096600007E00A210298FFF78BFA3031029007F8E1
:10967000011D0C99481E0C900029F2DC029800286C
:10968000EFD1791E0D980870307800F0200040F07E
:10969000450007F8020D11A8C01BC01D02901398C9
:1096A000007800B1012000EB0901019801EBE071A5
:1096B000029801440398401A401E0390E00306D428
:1096C00053462146179A039800F05CF80544139816
:1096D000007818B15246179990476D1CE00323D5C6
:1096E00053462146179A039800F04CF805441BE0B6
:1096F000BBF1000F07DB0098584504DD109817995F
:1097000010F80B0001E0179930205246904701985D
:109710000BF1010B401E05F10105019004D12E2033
:109720005246179990476D1CB9F10001A9F1010942
:10973000DEDC05E017F8010B5246179990476D1CC7
:109740000299481E02900029F4DC53462146179ADC
:1097500003989EE62D0000002B0000002000000072
:109760002DE9F041044600251E461746880404D41E
:1097700005E039462020B0476D1C641EF9D5284607
:10978000BDE8F0812DE9F041044600251E469046D3
:10979000C80301D5302700E02027880404D505E060
:1097A00041463846B0476D1C641EF9D52846BDE8D1
:1097B000F0814A68002A06D00A68531C0B601070BA
:1097C0004868401E486070470A68531C0B60107060
:1097D0007047436F6465727368656C6C0000646504
:1097E0006661756C7420757365720073657456617B
:1097F00072007365742076617200757000646F7713
:109800006E007269676874006C65667400746162EA
:10981000006261636B7370616365006261636B73A7
:10982000706163650064656C65746500656E746580
:109830007200656E7465720068656C700073686FA5
:109840007720636F6D6D616E6420696E666F0D0ABF
:1098500068656C70205B636D645D00757365727321
:10986000006C69737420616C6C20757365720063A1
:109870006D6473006C69737420616C6C20636D643B
:109880000076617273006C69737420616C6C207671
:109890006172006B657973006C69737420616C6C24
:1098A000206B657900636C65617200636C65617241
:1098B00020636F6E736F6C650066756E6300746510
:1098C0007374006C65640074657374000D0A436FF3
:1098D0006D6D616E64204C6973743A0D0A0000006E
:1098E0000D0A566172204C6973743A0D0A0000002B
:1098F0000D0A55736572204C6973743A0D0A0000A5
:109900000D0A4B6579204C6973743A0D0A0000000A
:10991000436F6D6D616E64206E6F7420466F756E5F
:10992000640D0A000D0A5761726E696E673A204332
:109930006F6D6D616E6420697320746F6F206C6F42
:109940006E670D0A00000000206973206E6F74209E
:1099500061207661720D0A0063616E277420736561
:10996000742072656164206F6E6C79207661720D6F
:109970000A00000063616E27742073657420706FA5
:10998000696E7465720D0A000D0A205F2020202088
:1099900020202020205F2020205F20202020202049
:1099A0002020202020202020202020205F20202078
:1099B000202020202020205F205F200D0A7C207C9A
:1099C000202020205F5F5F7C207C5F7C207C5F20EC
:1099D0005F5F5F205F205F5F2020205F5F5F7C20F4
:1099E0007C5F5F2020205F5F5F7C207C207C0D0AF5
:1099F0007C207C2020202F205F205C205F5F7C204B
:109A00005F5F2F205F205C20275F5F7C202F205F1F
:109A10005F7C20275F205C202F205F205C207C2043
:109A20007C0D0A7C207C5F5F7C20205F5F2F207C88
:109A30005F7C207C7C20205F5F2F207C20202020EA
:109A40005C5F5F205C207C207C207C20205F5F2F7F
:109A5000207C207C0D0A7C5F5F5F5F5F5C5F5F5FE7
:109A60007C5C5F5F7C5C5F5F5C5F5F5F7C5F7C20DA
:109A70002020207C5F5F5F2F5F7C207C5F7C5C5FB1
:109A80005F5F7C5F7C5F7C0D0A0D0A4275696C64C8
:109A90003A202020202020204175672020382032C5
:109AA0003032332031373A35353A35370D0A56657D
:109AB0007273696F6E3A2020202020332E312E32AF
:109AC0000D0A436F707972696768743A2020202804
:109AD00063292032303230204C65747465720D0A6F
:109AE000000000000D0A70617373776F7264206567
:109AF00072726F720D0A0000566172206E6F7420D0
:109B0000466F756E740D0A001B5B324B0D00000032
:109B1000434D442000000000564152200000000048
:109B20004B45592000000000636F6D6D616E64202D
:109B300068656C70206F662000000000506C6561E5
:109B4000736520696E7075742070617373776F72BE
:109B5000643A00004E4F4E45000000001B5B324A45
:109B60001B5B3148000000005553455200000000C7
:109B7000D09C00080000002018010000088F000899
:109B8000E89D000818010020F05B0000188F000815
:109B900000080000D2970008DD970008DE97000853
:109BA00000210000EB9700082B7C0008F2970008CA
:109BB0000009000000415B1BDF7F0008FA970008E6
:109BC0000009000000425B1BED7F0008FD970008C4
:109BD0000019000000435B1BFD7F0008029800088D
:109BE0000019000000445B1B1B8000080898000857
:109BF0000009000000000009358000080D980008E9
:109C000000190000000000084181000811980008B8
:109C1000001900000000007F418100081B98000827
:109C2000001900007E335B1B4F8100082598000857
:109C3000001900000000000A5F8100082C9800084D
:109C4000001900000000000D5F8100083298000834
:109C50000020000038980008D98100083D980008CD
:109C6000002100005B9800081D830008619800082F
:109C7000002100006F9800082F83000874980008E6
:109C800000210000819800084183000886980008A0
:109C9000002100009398000853830008989800085A
:109CA00000210000A598000865830008AB98000813
:109CB00000000000B99800086F870008BE980008EF
:109CC00000000000C398000899870008C7980008A2
:109CD000007A030A000000000000000001020304F3
:109CE0000607080900000000000000000000000056
:109CF000000000000100000000000000180100202A
:109D0000000000000000000001020304010203043F
:109D10000607080900000000000000000000000025
:109D20000000000000000000000000000000000033
:109D30000000000000000000000000000000000023
:109D40000000000000000000000000001F000000F4
:109D50000000000000000000000000000000000003
:109D60000000000000000000AAAAAAAA000000004B
:109D700000000000000000000000000000000000E3
:109D800000000000000000000000000000000000D3
:109D9000000000008899000824990008CC98000869
:109DA000E0980008F0980008009900081099000851
:109DB000749900085899000848990008F89A000812
:109DC000289B00083C9B0008E49A00085C9B000864
:109DD000089B0008109B0008189B0008689B00085F
:089DE000209B0008549B0008C1
:040000050800018965
:00000001FF
