:020000040800F2
:10000000A0D3002049010008CD2000084F190008A6
:10001000C9200008751400083B37000800000000E4
:10002000000000000000000000000000492400085B
:1000300021160008000000007D220008C5250008E8
:100040006301000863010008630100086301000800
:100050006301000863010008251600086301000819
:1000600063010008630100086301000863010008E0
:1000700063010008630100086301000863010008D0
:1000800063010008630100086301000863010008C0
:1000900063010008630100086301000863010008B0
:1000A00063010008F92E00086301000863010008DD
:1000B000252F0008992F0008193000086301000857
:1000C0006301000863010008630100086301000880
:1000D000630100081933000825340008453500087D
:1000E0006301000863010008630100086301000860
:1000F0006301000863010008630100086301000850
:10010000630100086301000835300008630100083E
:10011000013200083D320008513000086D300008FF
:10012000630100086301000863010008630100081F
:10013000DFF810D000F00CFD00480047E56F000824
:10014000AFF30080A0D30020064880470648004750
:10015000FEE7FEE7FEE7FEE7FEE7FEE7FEE7FEE777
:10016000FEE7FEE775260008310100082DE9F041A1
:100170000024061B254671F1000605DA012400273C
:10018000D0EB070067EB0101161E73F1000605DADC
:100190000027D2EB0702012567EB030300F0B2FB57
:1001A00086460E4617469C46AC4204D00025D0EB4E
:1001B000050E65EB010624B10020D2EB000760EBD1
:1001C000030C704631463A466346BDE8F081A0F123
:1001D0004101192900D82030704740EA01039B07EC
:1001E00003D009E008C9121F08C0042AFAD203E0AC
:1001F00011F8013B00F8013B521EF9D27047D2B210
:1002000001E000F8012B491EFBD270470022F6E7FF
:1002100010B513460A4604461946FFF7F0FF20467C
:1002200010BD30B505462A460B4612F8010B13F8EF
:10023000014B08B1A042F8D01CB1002802D06D1CBF
:10024000F1E7284630BD421C10F8011B0029FBD104
:10025000801A704730B505460020034600E05B1C5D
:10026000934205D2EC5CC85C201A01D1002CF6D177
:1002700030BDF0B480EA0102D40F4200B2EB410F6E
:1002800002D20246084611464A0042D0C30DDDB2F2
:10029000C1F3C752AD1A202D35DAC1F3160141F46E
:1002A000000204B15242C5F1200602FA06F12A41C9
:1002B0001044B3EBD05F23D0C4B1012DA0EBC350E9
:1002C00009DCF0BC4FF0004202EAC352DBB200F599
:1002D000000000F082BB400000F1807000EBC350D2
:1002E000A0F1807040EAD170490009E0490841EA74
:1002F000C071A0EBC35000F50000400800EBC350F4
:10030000F0BC00F061BB6142012202EB4101001B25
:10031000F6E7F0BC704781F00041AAE780F00040AA
:10032000A7E780EA010210B502F00043400022D0A6
:100330004A001FD0010E01EB1261C0F35600C2F358
:10034000560240F4000042F40002A0FB0220000428
:100350007F39140400D0401C50EA124001D4400000
:10036000491EC2B20C0604EBD010401C4008802A83
:1003700002D003E0002010BD20F00100002900DAC7
:100380000020184310BD30B480EA010202F000459D
:1003900030F0004221F0004013D090B1C30DD40DD5
:1003A000C2F31601C0F31600E41A41F4000140F450
:1003B00000027D34914201D3641C00E04900002C0E
:1003C00002DA30BC002070474FF400000023914255
:1003D00001D3891A034340084FEA4101F7D151B1D3
:1003E000914202D14FF0004105E002D24FF00101ED
:1003F00001E06FF0010103EBC450284430BC00F071
:10040000E3BA2DE9FE4F804681EA0300C00F0C4697
:10041000009021F0004123F00045B8EB0200A94113
:1004200005D24046214690461C460B46024623F024
:100430000040104347D0270DC7F30A00C3F30A5109
:100440000290401A019040286BDAC3F3130040F485
:10045000801B0098924620B10023D2EB030A63EB85
:100460000B0B01985946C0F14002504600F07BFA50
:1004700006460D4650465946019A00F093FA10EB95
:1004800008006141002487EA115284EAE7731A43A5
:1004900040D0009A62B3019A012A4FEA075215DC54
:1004A000001B61EB02014FF0004202EA0752CDE966
:1004B0000042001C41F5801132462B4600F0CAFA7A
:1004C00003B0BDE8F08F40462146F9E7001B61EB21
:1004D0000201001C41F5801300185B412018A2F5B1
:1004E000001747EB030140EAD570B6196D4111E0E2
:1004F0006D084FEA360645EAC0754FEA0752001B01
:1005000061EB0201001C41F5801149084FEA3000FF
:100510000019514132462B4603B0BDE8F04F00F0C0
:100520008ABA0098012240000023D0EB020263EB5C
:10053000E073009821464FEAE074B8EB000061EBED
:100540000401E9E783F000435BE781F0004158E7ED
:100550002DE9FE4F81EA030404F0004421F000413C
:1005600000944FF0000B23F0004350EA01045ED0EA
:1005700052EA03045BD0C3F30A54C1F30A552C4476
:10058000A4F2F3340194A0FB0254C1F3130141F42B
:100590008011C3F3130343F4801301FB024400FBF7
:1005A000034E840A970A44EA815447EA8357A4FB1E
:1005B000076802958D0A05FB07854FEA932C04FB1B
:1005C0000C542705029D4FEA065847EA1637B5EB4B
:1005D00008056EEB070C870E920E47EA811742EA78
:1005E0008312A7FB0201B6EB0B0164EB00042B0D99
:1005F00043EA0C335E1844EB1C50DA465146E7FBE5
:100600000201C5F313044FEA0B3343EA14534FEAD4
:100610000432019C43EA0603A4F10C040294009CFA
:10062000CDE900B400F016FA03B0BDE8F08F002069
:100630000146F9E72DE9F04D81EA030404F0004B8F
:1006400021F0004514464FF0000A23F0004150EA23
:10065000050220D054EA01021DD0C5F30A57024614
:10066000C5F31303C1F31300C1F30A5640F4801518
:1006700043F48013A7EB0608101BD64608F2FD389A
:1006800073EB050002D308F1010801E092185B4109
:10069000B8F1000F03DA00200146BDE8F08D00201C
:1006A0004FF48011064684460EE0171B73EB0507D6
:1006B00005D3121B63EB050306434CEA010C490802
:1006C0004FEA300092185B4150EA0107EDD152EA3F
:1006D000030012D082EA040083EA0501084305D032
:1006E000101BAB4106D20122002306E000224FF08E
:1006F000004302E06FF0010253101AEB06004CEBCE
:10070000085110EB0A0041EB0B01BDE8F04D00F081
:1007100092B996230022114600F05FB90EB5C10FC1
:1007200080EAE0700844CA07002140F233438DE8B4
:100730000E000A460B4600F08DF903B000BD0EB561
:1007400040F2334102910021CDE900110A460B46E7
:1007500000F080F903B000BD20F00040C10DC0F3EF
:10076000160040F400007F2901DA00207047962926
:1007700003DCC1F19601C840704796398840704744
:1007800070B5C1F30A5201F000450024C1F3130112
:1007900040F2FF3341F480119A4201DA002070BD2B
:1007A00040F233439A42A2F2334203DC524200F059
:1007B000E9F800E090402C43F1D0404270BDC1F315
:1007C0000A5210B5C1F3130140F2FF3341F4801116
:1007D0009A4201DA002010BD40F233439A42A2F25D
:1007E000334203DC524200F0CDF810BD904010BD02
:1007F00000F0004230F000400AD0C10D01F56071F8
:10080000C0F3160042EA0151C20840071143704785
:10081000002001467047000030B5041E71F100044D
:1008200004DB4FF00044404264EB0101141E73F1FD
:10083000000405DB1C464FF00043524263EB040307
:100840008B4208BF824230BD30B5041E71F10004F6
:1008500004DB4FF00044404264EB0101141E73F1CD
:10086000000405DB1C464FF00043524263EB0403D7
:10087000994208BF904230BD01F0004330B421F0EE
:10088000004150EA010206D00A0DA2F56072C1F3E0
:100890001301002A02DC30BC00207047440F44EAF8
:1008A000C104C100E01830BC00EBC25000F08CB8AD
:1008B000002801DBC0F10040002901DBC1F100414B
:1008C00081427047002801DBC0F10040002901DBB4
:1008D000C1F100418842704730B50B460146002007
:1008E0002022012409E021FA02F59D4205D303FAF2
:1008F00002F5491B04FA02F52844151EA2F1010273
:10090000F1DC30BD2DE9F05F0546002092469B46A4
:1009100088460646814640241BE028464146474615
:10092000224600F02FF853465A46C01A914110D380
:1009300011461846224600F016F82D1A67EB0108FA
:100940004F4622460120002100F00DF817EB000968
:100950004E41201EA4F10104DFDC484631462A4600
:100960004346BDE8F09F202A04DB203A00FA02F15A
:10097000002070479140C2F1200320FA03F319438D
:1009800090407047202A04DB203A21FA02F000212F
:10099000704721FA02F3D040C2F12002914008438F
:1009A00019467047202A06DBCB17203A41FA02F09D
:1009B00043EAE07306E041FA02F3D040C2F12002BC
:1009C00091400843194670470029A8BF7047401C52
:1009D000490008BF20F00100704710B4B0FA80FC55
:1009E00000FA0CF050EA010404BF10BC704749B192
:1009F000CCF1200421FA04F411FA0CF118BF012102
:100A000021430843A3EB0C01CB1D4FEA00614FEAE1
:100A1000102042BF002010BC704700EBC3501044B0
:100A20000029A4BF10BC7047401C490008BF20F03B
:100A3000010010BC704710B5141E73F1000408DAF1
:100A4000401C41F1000192185B411A4301D120F092
:100A5000010010BD2DE9F04D92469B4611B1B1FA4F
:100A600081F202E0B0FA80F220329046FFF77BFF7D
:100A700004460F4640EA0A0041EA0B0153465A4633
:100A8000084313D0114653EA010019D0C8F14002BF
:100A90005046FFF777FF05460E46504659464246F8
:100AA000FFF761FF084305D0012004E020463946E6
:100AB000BDE8F08D0020054346EAE0762C4337433D
:100AC0000A986305E40AA0EB08000022FD0A44EA44
:100AD00047540A3002D500200146E9E70105101904
:100AE0006941DDE9084500196941BDE8F04DA2E71B
:100AF00070B521F0004303430CD0C1F30A55002424
:100B0000D5EB040564EB0403D617AD1AB34102DB41
:100B10000020014670BD201841EB025170BDC1F3A9
:100B20000A52C1F3130140F2FF3341F480119A429B
:100B300002DA00200146704740F233439A42A2F2A3
:100B4000334202DC5242FFF71DBFFFF70CBF00002B
:100B5000064C074D06E0E06840F0010394E807000A
:100B600098471034AC42F6D3FFF7E6FACC270108D9
:100B7000EC2701082DE9F04D00231A461B1A8A4183
:100B800003DB00200146BDE8F08DC1F30A52C1F33A
:100B9000130141F480154FF0000BD10702D100186A
:100BA0006D41521E0027044640F2FF11384601EB0A
:100BB000620A3E468046024600204FF48011FFF74D
:100BC000E1FEC2197141BB1846EB0100B4EB030C06
:100BD00075EB000C04D3E41A65EB000517460E46CE
:100BE000241908F101006D4180463428E3DDF9192C
:100BF00046EB0600091BA84103D24FF0FF32134613
:100C000001E0002213461BEB070046EB0A51BDE84A
:100C1000F04DFFF710BF00002DE9F04F8BB00446F8
:100C2000894600200990089000F058F9702000F0E3
:100C3000CBF900F0A1F9AC2000F0C6F900F09CF966
:100C4000332000F0C1F900F097F9002000F0BCF962
:100C500000F092F900F060F9502003F031FF00F04D
:100C60003DF9712000F0B0F900F086F900F0D0F8FD
:100C700047490870002000F011F94548007800F05D
:100C8000080008B900F094F84148007800F08000AE
:100C9000002878D100250EE000F0BAF83D4948550B
:100CA000042D03D1012000F0F9F802E0002000F04B
:100CB000F5F8681CC5B2052DEEDB00F02DF93548BE
:100CC000007800033349497840EA011031498978B6
:100CD00040EA211009902F4880780007000B2D4929
:100CE000C97840EA01202B490979084308900998FE
:100CF000FFF725FD05460022274BFFF729FC82461A
:100D00000022264BFFF796FC07460022234BFFF7F5
:100D100091FC0022224BCDE90401FFF772FBCDE9E3
:100D20000601FFF7A9FD20600898FFF708FD0746B8
:100D300000221C4BFFF70CFC05460022174BFFF767
:100D400079FC0022154BCDE90001FFF773FC00226E
:100D5000134BCDE90201FFF754FB0022124BCDE902
:100D60000401FFF767FC0022104BCDE90601FFF7F5
:100D7000E9FB8246FFF780FDC9F8000000200BB0B8
:100D8000BDE8F08FFFE700F0C7F80120F7E70000AB
:100D90003C0000203D000020000059400000904031
:100DA0000000E03F00409F40000024400000494018
:100DB00010B500F093F8702000F006F900F0DCF8B0
:100DC000E12000F001F900F0D7F8082000F0FCF86D
:100DD00000F0D2F8002000F0F7F800F0CDF800F0B5
:100DE0009BF8282003F06CFE10BD10B500F076F8DB
:100DF000702000F0E9F800F0BFF8BA2000F0E4F845
:100E000000F0BAF800F088F8142003F059FE10BD85
:100E100070B5002400251CE0002000F021F802211C
:100E20000E4800F083FD022003F070FE6006040E01
:100E300001210A4800F06FFD012801D144F00104AE
:100E40000221064800F070FD022003F05FFE681CDE
:100E5000C5B2082DE0DB204670BD00000014014043
:100E600038B504466CB10120ADF8000003208DF8C0
:100E7000020010208DF803006946074800F0C0FC0E
:100E800009E00120ADF8000048208DF80300694614
:100E9000014800F0B5FC38BD0014014010B504460F
:100EA0000120FFF7DDFF24B101210B4800F03EFDDA
:100EB00003E00121084800F037FD0221064800F058
:100EC00035FD022003F022FE0221034800F02CFD34
:100ED000022003F01BFE10BD0014014010B50120DC
:100EE000FFF7BEFF02210B4800F020FD0121094859
:100EF00000F01CFD052003F009FE0121054800F06B
:100F000013FD052003F002FE0221024800F00CFD53
:100F100010BD00000014014010B50120FFF7A0FF34
:100F200001210A4800F000FD052003F0EFFD022139
:100F3000064800F0FBFC052003F0E8FD0121034812
:100F400000F0F4FC052003F0E1FD10BD00140140A9
:100F500008B50121202001F0A3F90320ADF800001D
:100F60008DF8020010208DF803006946014800F05A
:100F700047FC08BD0014014010B500240020FFF715
:100F80006FFF02210F4800F0D1FC022003F0BEFDEC
:100F900008E0601CC0B20446FA2803DDFFF7BCFF7E
:100FA000012010BD0121074800F0B5FC0028F0D158
:100FB0000221044800F0B8FC022003F0A7FD002045
:100FC000EFE700000014014070B505460221164805
:100FD00000F0AAFC022003F099FD002420E001208B
:100FE000FFF73EFF05FA04F000F0800020B1012178
:100FF0000D4800F09BFC03E001210B4800F094FC3D
:101000000221094800F092FC022003F07FFD02213A
:10101000054800F089FC022003F078FD601CC4B292
:10102000082CDCDB70BD00000014014008B5012174
:10103000102001F035F94020ADF8000010208DF8A7
:10104000030003208DF802006946054800F0D8FB34
:101050004021034800F068FC01200249086008BDF7
:10106000001001409801224210B5044605F074FFBB
:10107000462005F047FF05F097FF012800D110BD7D
:10108000204605F03FFF05F08FFF012801D1022027
:10109000F5E705F079FF0020F1E710B500F018FD45
:1010A00000F004F81020FFF7DFFF10BD10B501209D
:1010B000FFF7DAFF10BD10B5002405F04DFF472003
:1010C00005F020FF05F070FF012801D1002010BDC0
:1010D00005F0F6FE044605F0B1FE05F0F1FE00EB6A
:1010E000042084B205F0D8FE05F04EFF2046EEE75E
:1010F00010B500200F4908600F48406820F4704088
:101100000D4948600846406840F44050486000205F
:101110000A49C1F8AC01022003F0F8FC012005499E
:101120000860022003F0F2FC00200449C1F8B0017D
:1011300010BD0000B0012242001001400000224218
:1011400008B50121102001F0ABF84FF4C050ADF804
:10115000000010208DF8030003208DF8020069467E
:10116000044800F04DFB0120034908600349C1F821
:10117000AC0108BD00100140B00122420000224233
:1011800010B500200F4908600F48406820F47040F7
:101190000D4948600846406840F4405048600120CE
:1011A0000A49C1F8AC01022003F0B0FC0120054956
:1011B0000860022003F0AAFC00200449C1F8B00135
:1011C00010BD0000B0012242001001400000224288
:1011D00070B5054600241748406820F47040154952
:1011E00048600846406840F400404860002616E029
:1011F000002011490860022003F088FC01200F49FB
:10120000C1F8B0016006040E0B488438006808B1CC
:10121000601CC4B2012003F079FC701CC6B2082E19
:10122000E6DB15B9FFF7ACFF01E0FFF761FF2046F1
:1012300070BD000000100140B001224200002242B7
:1012400070B504461548406820F470401349486062
:101250000846406840F4405048600020104908604B
:10126000002517E0E0090E49091F08606006040E1A
:10127000022003F04BFC01200A49C1F8B001022012
:1012800003F044FC002006490860022003F03EFC05
:10129000681CC5B2082DE5DB70BD000000100140E0
:1012A000B00122420000224210B50F48406820F4ED
:1012B00070400D4948600846406840F4405048601E
:1012C00001200A4908600A49C1F8B001042003F06E
:1012D0001DFC002005490860042003F017FC0020D5
:1012E0000349C1F8B00110BD00100140AC01224219
:1012F0000000224210B50F48406820F470400D49AC
:1013000048600846406840F44050486000200A4960
:1013100008600A49C1F8AC01042003F0F7FB012082
:10132000054908600549C1F8AC01042003F0EEFB53
:1013300010BD000000100140B00122420000224216
:1013400010B500241448406820F4704012494860E9
:101350000846406840F40040486001200F4908609A
:1013600003F0D4FB01200E49C1F8B00103F0CEFB1D
:1013700007E0601CC4B2FA2C03DDFFF7BBFF0120BD
:1013800010BD0648803800680028F2D10349091DC5
:10139000086000BFF4E7000000100140AC012242E9
:1013A000000022422DE9F0410746884615461E46B8
:1013B0000024FFF779FF3846FFF742FFFFF7C0FF31
:1013C0004046FFF73DFFFFF7BBFFFFF76DFF47F01C
:1013D0000100FFF735FFFFF7B3FF00BF0CE0681E09
:1013E000A04204D10020FFF7F3FE305503E00120B6
:1013F000FFF7EEFE3055641CAC42F0DBFFF77AFFDE
:10140000BDE8F08170B504460D460026FFF74CFF9D
:101410002046FFF715FFFFF793FF2846FFF710FF61
:10142000FFF78EFFFFF740FF44F00100FFF708FFD2
:10143000FFF786FF0020FFF7CBFE0646FFF75AFFB7
:10144000304670BD70B506460C461546FFF72CFFBA
:101450003046FFF7F5FEFFF773FF2046FFF7F0FE7B
:10146000FFF76EFF2846FFF7EBFEFFF769FFFFF778
:1014700041FF70BD00BFFEE710B5002415480068AD
:1014800020F07060134908600846006840F0006072
:10149000086004E0601CC4B2012003F037FB0E4872
:1014A000006808B1642CF5DB642C01DB012010BD61
:1014B000002404E0601CC4B2012003F027FB0648AE
:1014C000006808B9642CF5DB642C01DB0120EEE731
:1014D0000020ECE7040C01403881214208B50121CD
:1014E000082000F0DDFE4FF48040ADF80000102031
:1014F0008DF8030003208DF802006946064800F0CD
:101500007FF94FF48041044800F010FA00F068F8C9
:10151000FFF7B2FF08BD0000000C014010B5002429
:1015200004E0601CC4B2012003F0F0FA0D4800682A
:1015300008B1642CF5DB002404E0601CC4B2012077
:1015400003F0E4FA0748006808B9642CF5DB2820AA
:1015500003F0DCFA0348006808B1012010BD002048
:10156000FCE700003881214270B50024002506E028
:101570006006040EFFF7D2FF0443681CC5B2082DB5
:10158000F6DB204670BD7CB505460E4600F028F817
:10159000FFF772FFF8B9002405E0FFF7E5FF0DF84B
:1015A0000400601CC4B2052CF7DB9DF800009DF818
:1015B000011008449DF8021008449DF803100844E7
:1015C0009DF80410884208D19DF8000030709DF805
:1015D0000200287001E001207CBD0020FCE7000033
:1015E00010B50C48006820F070600A490860084691
:1015F000006840F04070086000200749086014202F
:1016000003F05EFA01200549C1F8B8011E2003F07D
:101610007DFA10BD040C0140B881214200802142B6
:101620007047000010B5642003F04AFA0121054814
:1016300000F071F9012801D103490870012000F080
:101640006FF810BD00080140210000200EB50121F7
:10165000084600F025FE00F053FA0521022000F0B4
:10166000AFF82020019000208DF808000C208DF8A4
:10167000090001208DF80A0001A800F057F80F2199
:10168000002000F09DF84FF40040019000208DF8FC
:1016900008000C208DF8090001208DF80A0001A82F
:1016A00000F044F80021084600F08AF8012001907B
:1016B00000208DF8080008208DF8090001208DF821
:1016C0000A0001A800F032F806208DF80000022080
:1016D0008DF801008DF8020001208DF803006846A6
:1016E00000F0F6FC17208DF8000002208DF80100B4
:1016F00001208DF802008DF80300684600F0E8FC38
:1017000028208DF8000002208DF8010000208DF8BF
:10171000020001208DF80300684600F0D9FC0EBDE0
:10172000014908607047000014040140002123496A
:101730008279002A3AD00A46126803689A430B4617
:101740001A600A1D126803689A430B1D1A60027919
:1017500011440A6803681A430A60184A083212687A
:1017600003689A43154B08331A601A1D1268036800
:101770009A43124B0C331A604279102A0ED11A1F69
:10178000126803681A430D4B08331A601A1D126859
:1017900003681A43094B0C331A600DE0074942797C
:1017A00011440A6803681A430A6005E0027911448B
:1017B0000A6803689A430A60704700000004014009
:1017C00030B500228B071C0F0F2303FA04F20B4BDA
:1017D0008C1053F824309343084C8D1044F8253076
:1017E00023468C1053F824308C07240F00FA04F49D
:1017F0002343024C8D1044F8253030BD08000140D1
:101800002DE9F04102460025002600200023002497
:10181000002791F803C00CF00F0591F803C00CF0FD
:10182000100CBCF1000F03D091F802C04CEA050582
:1018300091F800C0BCF1000F31D0146800202BE0FB
:101840004FF0010C0CFA00F3B1F800C00CEA0306EB
:101850009E4220D183004FF00F0C0CFA03F7BC43DB
:1018600005FA03FC4CEA040491F803C0BCF1280F0C
:1018700006D14FF0010C0CFA00FCC2F814C00AE0CB
:1018800091F803C0BCF1480F05D14FF0010C0CFAE0
:1018900000FCC2F810C0401C0828D1D31460B1F875
:1018A00000C0BCF1FF0F34DD546800202EE000F1D1
:1018B000080C4FF0010808FA0CF3B1F800C00CEA6C
:1018C00003069E4221D183004FF00F0C0CFA03F760
:1018D000BC4305FA03FC4CEA040491F803C0BCF1D4
:1018E000280F05D100F1080C08FA0CF8C2F8148092
:1018F00091F803C0BCF1480F07D100F1080C4FF07C
:10190000010808FA0CF8C2F81080401C0828CED351
:101910005460BDE8F0810246002093680B400BB193
:10192000012000E00020704741617047016170476D
:1019300010B541F61F41092001F03EFB4FF416504F
:1019400001F0A8FD07F0C0F805F002F910BD00BFD6
:10195000FEE7000010B503F091F84FF4A06000F02E
:10196000EFFB4FF4E13001F087FC4FF4E13001F080
:10197000F1FCFFF76BFE21A001F0E2FE48F69F416B
:1019800040F2CF7001F086FA48F69F4140F69F7012
:1019900001F0D3FA00F0B8F900F0FCFC1CA001F053
:1019A000CFFE00F0ADF821A001F0CAFEFFF796FDD2
:1019B000FFF7CEFA23A001F0C3FE00F00FFA29A032
:1019C00001F0BEFE02202E4908604FF6FF7000F0C5
:1019D000D3F9FFF72BFBFFF760FB2AA001F0B0FE65
:1019E000FFF7AEFB02F068FD2DA001F0A9FEFFF7A6
:1019F0009FFF31A001F0A4FE10BD0000B4AEBFDA1D
:101A000031C5E4D6C30909095B4F4B5D200D0A00BF
:101A10004C4544C5E4D6C3090909202020202020D4
:101A200020205B4F4B5D200D0A000000B6C0C1A214
:101A3000B0B4BCFCC5E4D6C30909095B4F4B5D20BB
:101A40000D0A00004148543130CEC2CAAAB6C8B40B
:101A5000ABB8D0C6F7C5E4D6C309095B4F4B5D20D0
:101A60000D0A0000535437373335204C4344C5E446
:101A7000D6C30909095B4F4B5D200D0A0000000029
:101A800010080140B9E2D5D5B4ABB8D0C6F7C5E46B
:101A9000D6C30909095B4F4B5D200D0A0000000009
:101AA000424D50323830C5E4D6C30909095B4F4B6B
:101AB0005D200D0A00000000BBFAD6C7D4C6C5E4FD
:101AC000D6C30909095B4F4B5D200D0A00000000D9
:101AD00008B50121202000F0E3FB0C20ADF8000048
:101AE00003208DF8020014208DF803006946034896
:101AF000FFF786FE05F048FA08BD0000001401401B
:101B000008B50121442000F0CBFB4FF46670ADF81E
:101B1000000048208DF8030069460748FFF770FE73
:101B20000120ADF8000028208DF803006946034825
:101B3000FFF766FE08BD00000018014000080140E4
:101B400010B5044614B101201A49087019480078EC
:101B5000F8B108211848FFF7DEFE28B10121174827
:101B6000FFF7D9FE012814D10A2002F0A9FF0020B6
:101B70001049087008211048FFF7CDFE08B902206F
:101B800010BD01210D48FFF7C6FE01280FD103202B
:101B9000F6E708210848FFF7BEFE012807D101211A
:101BA0000648FFF7B8FE10B901200249087000206E
:101BB000E6E700003800002000180140000801405E
:101BC00010B5044614B101202D4908702C48007846
:101BD000002839D080212B48FFF79DFE80B14FF4BB
:101BE00080712848FFF797FE50B14FF400712548E7
:101BF000FFF791FE20B110212248FFF78CFE18BBA1
:101C00000A2002F05DFF00201D49087080211D4858
:101C1000FFF781FE08B9072010BD4FF48071194805
:101C2000FFF779FE08B90820F6E74FF40071154870
:101C3000FFF771FE08B90920EEE710211148FFF700
:101C40006AFED8B90A20E7E780210E48FFF763FE55
:101C5000012813D101020B48FFF75DFE01280DD1C9
:101C600041020848FFF757FE012807D11021054817
:101C7000FFF751FE012801D1014908700020CBE790
:101C8000390000200018014008B50121082000F0AB
:101C900007FB0320ADF800008DF8020010208DF83E
:101CA000030069460A48FFF7ABFD0121042000F05C
:101CB000F7FAB220ADF8000003208DF802001020E2
:101CC0008DF8030069460348FFF79AFD08BD000040
:101CD000000C01400008014010B5044610200849DE
:101CE0000860022007490860201200F08FFBE0B274
:101CF00000F08CFB10200249091F086010BD000095
:101D000014080140100C014008B50121482000F0E2
:101D1000C7FA3020ADF8000010208DF80300032032
:101D20008DF8020069460948FFF76AFD302107482F
:101D3000FFF7FCFD2020ADF8000069460448FFF7DE
:101D40005FFD20210248FFF7F1FD08BD000C0140B6
:101D50000018014070B5FFF7AEF90646FEF7D9FC52
:101D600005460449FEF70FFB04464FF07E51FEF78F
:101D7000D8FA70BDCDCC8C3F70B506469F237F222C
:101D80000021084600F04EF92C2000F089F90024CB
:101D900008E0002503E03046FFF79EFF6D1CA02DF4
:101DA000F9D3641C802CF4D370BD70B506467F2334
:101DB0009F220021084600F035F92C2000F070F930
:101DC000002408E0002503E03046FFF785FF6D1C86
:101DD000802DF9D3641CA02CF4D370BD10B5FFF78F
:101DE00053FF00F00DF9112000F05AF9782002F0AD
:101DF00067FEB12000F054F9012000F03DF92C20DD
:101E000000F03AF92D2000F037F9B22000F048F93F
:101E1000012000F031F92C2000F02EF92D2000F0E7
:101E20002BF9B32000F03CF9012000F025F92C201B
:101E300000F022F92D2000F01FF9012000F01CF91C
:101E40002C2000F019F92D2000F016F9B42000F034
:101E500027F9072000F010F9C02000F021F9A22096
:101E600000F00AF9022000F007F9842000F004F9DC
:101E7000C12000F015F9C52000F0FEF8C22000F0E6
:101E80000FF90A2000F0F8F8002000F0F5F8C32060
:101E900000F006F98A2000F0EFF82A2000F0ECF8B4
:101EA000C42000F0FDF88A2000F0E6F8EE2000F0F3
:101EB000E3F8C52000F0F4F80E2000F0DDF836203D
:101EC00000F0EEF8C02000F0D7F8E02000F0E8F8CD
:101ED0000F2000F0D1F81A2000F0CEF80F2000F00B
:101EE000CBF8182000F0C8F82F2000F0C5F8282003
:101EF00000F0C2F8202000F0BFF8222000F0BCF86B
:101F00001F2000F0B9F81B2000F0B6F8232000F0E5
:101F1000B3F8372000F0B0F8002000F0ADF807204B
:101F200000F0AAF8022000F0A7F8102000F0A4F8B2
:101F3000E12000F0B5F80F2000F09EF81B2000F023
:101F40009BF80F2000F098F8172000F095F8332048
:101F500000F092F82C2000F08FF8292000F08CF887
:101F60002E2000F089F8302000F086F8302000F0B4
:101F700083F8392000F080F83F2000F07DF8002041
:101F800000F07AF8072000F077F8032000F074F8EA
:101F9000102000F071F82A2000F082F8002000F0F4
:101FA0006BF8002000F068F8002000F065F87F2052
:101FB00000F062F82B2000F073F8002000F05CF8CD
:101FC000002000F059F8002000F056F89F2000F0A3
:101FD00053F8F02000F064F8012000F04DF8F620EE
:101FE00000F05EF8002000F047F83A2000F058F8C2
:101FF000052000F041F8292000F052F810BD000043
:1020000010B5012006490860642002F059FD012046
:102010000349091F0860322002F052FD10BD000084
:10202000140C0140F0B505460C4616461F462A2002
:1020300000F036F8002000F01FF8E8B200F01CF8BD
:10204000002000F019F8B11CC8B200F015F82B20E0
:1020500000F026F8002000F00FF8E0B200F00CF8D5
:10206000002000F009F8791CC8B200F005F82C2017
:1020700000F016F8F0BD000010B504461020064927
:102080000860022005490860204600F0BFF91020D2
:102090000149091F086010BD14080140100C0140DF
:1020A00010B5044610200649086002200549086062
:1020B000204600F0ABF910200149091F086010BD4F
:1020C00014080140140C014000BFFEE770470000F7
:1020D00070B5002100230F22C47804B3154C246886
:1020E00004F4E064C4F5E064210AC1F10403CA40C9
:1020F000447804FA03F184781440214309010E4C1A
:102100000678A155047804F01F050124AC40057839
:102110006D11AD0005F1E025C5F8004109E0047836
:1021200004F01F050124AC40044D0678761145F8F3
:10213000264070BD0CED00E000E400E080E100E02E
:1021400002490143024A1160704700000000FA058D
:102150000CED00E008B54FF6FF701F232DA2002103
:102160000090084600F084FD4FF6FF704FF478436E
:102170002EA214210090002000F07AFD4FF6FF708F
:102180004FF478432EA228210090002000F070FD2B
:102190004FF6FF704FF478432EA23C2100900020B0
:1021A00000F034FB4FF6FF704FF478432AA23C2135
:1021B0000090142000F02AFB4FF6FF704FF4784394
:1021C00026A23C210090282000F052FD4FF6FF701F
:1021D0001F23234A3C210090462000F049FD4FF682
:1021E000FF704FF478431FA250210090002000F0B0
:1021F0003FFD4FF6FF7000901E48007810B94FF475
:10220000784000E01F2003461BA25021782000F0F8
:10221000FDFA08BD2D2D3E4E6574776F726B204D13
:102220006573736167653C2D2D0000004553503880
:1022300032363620574946494D6F64756C6500004B
:1022400047697A776974732041496F54436C6F759D
:1022500064200000CCEC3A00C6F800003A00000010
:10226000F10800204E6574776F726B53746174656A
:102270003A0000007C000020A1F10000704700003F
:1022800029B1064AD2690243044BDA6104E0034AE9
:10229000D2698243014BDA617047000000100240AE
:1022A00029B1064A92690243044B9A6104E0034A49
:1022B00092698243014B9A6170470000001002400E
:1022C00030B500210022002400232D4D6D6805F05B
:1022D0000C0121B1042905D0082923D105E0294D9D
:1022E000056022E0274D05601FE0254D6D6805F46F
:1022F0007012234D6D6805F48034022505EB92427F
:102300001CB9214D554305600BE01D4D6D6805F46A
:1023100000351DB11C4D5543056002E0194D554374
:10232000056002E0174D056000BF00BF144D6D68E9
:1023300005F0F0010909154D6B5C0568DD4045604D
:102340000F4D6D6805F4E061090A104D6B5C45683E
:10235000DD4085600A4D6D6805F46051C90A0B4D7A
:102360006B5C4568DD40C560054D6D6805F4404116
:10237000890B074D6B5CC568B5FBF3F5056130BD96
:102380000010024000127A0000093D0064000020A5
:102390007400002008B501210802FFF781FF20200A
:1023A000ADF8000010208DF8030003208DF8020026
:1023B00069461348FFF724FA4020ADF8000069464B
:1023C0000F48FFF71DFA8020ADF8000069460C4861
:1023D000FFF716FA20210A48FFF7A8FA402108481B
:1023E000FFF7A4FA80210648FFF7A0FA002005496C
:1023F00008600549C1F89C010249091F086008BD31
:1024000000200140980124420000244200210821BC
:1024100014E000F080021AB180220A4B1A6003E037
:102420008022084B1B1D1A602022064B1B1D1A60C0
:102430001B1F1A604206100E4A1ED1B20029E8DCAA
:1024400070470000100801407047000010B51049A7
:102450001048FEF7E1FB462004F008FD18B9FFF72D
:1024600079FC0D4908600D4A0D490E4801F0BAFF8C
:102470004FF4FA7002F024FB0A480068FEF76CF98A
:102480000949088009490A48FFF77DF810BD000096
:102490000000002004000020140000201000002094
:1024A0000C00002008000020180000203B00002045
:1024B0003A00002010B500F001F810BD0CB5002066
:1024C000019000903348006840F480303149086042
:1024D00000BF3048006800F4003000900198401CB4
:1024E0000190009818B90198B0F5A06FF1D1294872
:1024F000006800F4003010B10120009001E00020DD
:1025000000900098012843D12348006840F0100053
:10251000214908600846006820F00300086008466A
:10252000006840F0020008601A4840681949486095
:102530000846406848600846406840F4806048604B
:102540000846406820F47C1048600846406840F423
:10255000E81048600846006840F08070086000BFDE
:102560000C48006800F000700028F9D00948406865
:1025700020F00300074948600846406840F0020028
:10258000486000BF0348406800F00C000828F9D1FB
:102590000CBD00000010024000200240042808D1B9
:1025A0004FF0E021096941F004014FF0E022116190
:1025B00007E04FF0E021096921F004014FF0E0222B
:1025C000116170477047000008B54FF6FF701F2378
:1025D00012A200210090084600F04AFB4FF6FF705F
:1025E0004FF4784313A214210090002000F040FB28
:1025F0004FF6FF704FF4784313A22821009000207B
:1026000000F036FB4FF6FF704FF4784313A23C21E5
:102610000090002000F02CFB08BD00002D2D3E5343
:10262000797374656D204D6573736167653C2D2DFD
:102630000000000053544D33322041496F54205361
:10264000797374656D0000004E756D3A353138331D
:102650003630313130343520000000004242552000
:1026600057616E675A695875616E323032322E3456
:102670000000000010B51348006840F00100114947
:10268000086008464068104908400E4948600846FE
:1026900000680E4908400B4908600846006820F4AD
:1026A000802008600846406820F4FE0048604FF42F
:1026B0001F008860FFF7FEFE4FF0006004490860CD
:1026C00010BD0000001002400000FFF8FFFFF6FE02
:1026D00008ED00E02DE9F04F0746884615461E46F6
:1026E000DDF8249008EB0600401E83B27819401EE6
:1026F00082B24146384600F013F800240AE019F887
:1027000014B009EB440090F801A04BEA0A20FFF74F
:10271000E3FA641C05FB06F0A042F0DCBDE8F08F94
:10272000F0B504460D4616461F462A20FFF7B8FCB2
:102730000220FFF7A1FCA11CC8B2FFF79DFC0220FC
:10274000FFF79AFCB11CC8B2FFF796FC2B20FFF7ED
:10275000A7FC0120FFF790FC691CC8B2FFF78CFCB6
:102760000120FFF789FC791CC8B2FFF785FC2C20FB
:10277000FFF796FCF0BD00002DE9F84F06460F4626
:10278000904699465F200090002437E004EB041047
:102790001D49085C40452FD107F10F0083B2F01DA1
:1027A00082B239463046FFF7BBFF002521E004EB3B
:1027B000041015490844401C10F805B04FF0000AF9
:1027C00012E00BF08000802803D14846FFF784FA1E
:1027D00002E00A98FFF780FA4FEA4B604FEA106B6D
:1027E0000AF1010000F0FF0ABAF1080FE9DB681CEA
:1027F000C5B2102DDBDB04E0601CC4B2009884423B
:10280000C4DB00BFBDE8F88F558D00082DE9F84FF7
:1028100007468846164699460A200090002443E061
:10282000307804EB0411234A12F81110884239D190
:10283000707804EB041102EB41014978884231D1F0
:1028400008F10F0083B207F10F0082B2414638460B
:10285000FFF766FF002522E004EB0410154901EBA9
:102860004000801C10F805B04FF0000A12E00BF099
:102870008000802803D14846FFF72EFA02E00A982C
:10288000FFF72AFA4FEA4B604FEA106B0AF101009A
:1028900000F0FF0ABAF1080FE9DB681CC5B2202D71
:1028A000DADB04E0601CC4B200988442B8DB00BFED
:1028B000BDE8F88FA49300082DE9F04F074688463D
:1028C00015461E46DDF82490002408EB0600401E45
:1028D00083B27819401E82B241463846FFF720FF86
:1028E000A24618E04FF0000B0FE019F81400FFF7B4
:1028F000C3FB012101EB440119F80100FFF7BCFB08
:10290000641C0BF101001FFA80FBB345EDDB0AF1FB
:1029100001001FFA80FAAA45E4DBBDE8F08F000051
:102920002DE9FF4F8DB0804691461C46DDF868A02A
:102930001C9E0025002700214846FDF7B9FF0CD258
:1029400049460020FDF7E7FC814600962D224046CF
:102950001B9B0E99FFF710FF06E000962B224046C6
:102960001B9B0E99FFF708FF09E0052C03DD14B14E
:10297000601EC4B203E0AAF1010000F0FF0A04EBFC
:102980000A000728F1DC4846FDF7E6FE0546284622
:10299000FDF7BFFE49460190FDF7C0FC8346FDF7F9
:1029A00027FF504A504BCDE90201FDF72AFD0022D6
:1029B0004E4BCDE90401FDF7CBFDCDE90601FDF756
:1029C000FEFE074642F21070B5FBF0F00A21B0FBA4
:1029D000F1F201FB120030308DF828004FF47A70CC
:1029E000B5FBF0F0B0FBF1F201FB120030308DF8D6
:1029F00029006420B5FBF0F0B0FBF1F201FB1200FE
:102A000030308DF82A000A20B5FBF0F0B0FBF1F26F
:102A100001FB120030308DF82B000A20B5FBF0F1DD
:102A200000FB115030308DF82C0000208DF82D0067
:102A300042F21070B7FBF0F00A21B0FBF1F201FB9B
:102A4000120030308DF820004FF47A70B7FBF0F0B0
:102A5000B0FBF1F201FB120030308DF82100642050
:102A6000B7FBF0F0B0FBF1F201FB120030308DF853
:102A700022000A20B7FBF0F0B0FBF1F201FB1200DC
:102A800030308DF823000A20B7FBF0F100FB117005
:102A900030308DF82400002008A901F80A00C4F1A4
:102AA00005010AABCA1808F1080188B200961B9B01
:102AB0000E9900F0DDF8611C08EBC10188B20096A8
:102AC0002E221B9B0E99FFF757FEA11C08EBC1019C
:102AD00088B2009608AA1B9B0E9900F0C9F811B0A5
:102AE000BDE8F08FF168E388B5F8D43E006AF8409D
:102AF0002DE9FE430746884614461D46DDE90A9641
:102B0000002001900290002C09DA604204B24B468A
:102B10002D22414638460096FFF72EFE06E04B4632
:102B20002B22414638460096FFF726FE052D00DD94
:102B3000052542F2107094FBF0F00A2190FBF1F2AF
:102B400001FB12003030C0B28DF804004FF47A70EF
:102B500094FBF0F090FBF1F201FB12003030C0B2B8
:102B60008DF80500642094FBF0F090FBF1F201FB7E
:102B700012003030C0B28DF806000A2094FBF0F04D
:102B800090FBF1F201FB12003030C0B28DF807006B
:102B90000A2094FBF0F100FB11403030C0B28DF8F8
:102BA000080000208DF80900C5F1050101ABCA1825
:102BB00007F1080188B24B464146009600F058F8EC
:102BC000BDE8FE832DE9FE4306460F4614461D462A
:102BD000DDE90A89002001900290052D00DD052520
:102BE00042F2107094FBF0F00A2190FBF1F201FB2D
:102BF00012003030C0B28DF804004FF47A7094FBAC
:102C0000F0F090FBF1F201FB12003030C0B28DF811
:102C10000500642094FBF0F090FBF1F201FB120040
:102C20003030C0B28DF806000A2094FBF0F090FB23
:102C3000F1F201FB12003030C0B28DF807000A201B
:102C400094FBF0F100FB11403030C0B28DF8080069
:102C500000208DF80900C5F1050001A9421843467E
:102C600039463046CDF8009000F002F8BDE8FE830A
:102C70002DE9F8430646884614469946089F0025E4
:102C80001BE0207880280CDA0097227806EBC5013B
:102C900088B24B464146FFF76FFD641C681CC5B205
:102CA0000BE006EBC50188B24B4622464146009731
:102CB000FFF7ACFDA41CA81CC5B220780028E0D109
:102CC000BDE8F8830EB5584820231A46002100902D
:102CD0000846FFF7F1FD4FF6FF701F2353A20021B6
:102CE00000901E20FFF7C4FF4FF6FF704FF47841AD
:102CF00001220223CDE9002102904E4810210268F2
:102D00001E20FFF70DFE4FF6FF704FF61F034AA27D
:102D1000002100904020FFF779FD484820231A4603
:102D2000002100904E20FFF7C7FD4FF6FF701F23D4
:102D300043A2002100907020FFF79AFF4FF6FF702A
:102D40004FF4784101220223CDE9002102903E4850
:102D5000102102686C20FFF7E3FD4FF6FF704FF67D
:102D60001F033AA2102100909620FFF781FF3848F8
:102D700020231A46232100900020FFF79DFD4FF6E7
:102D8000FF701F2333A21E2100902820FFF770FF41
:102D90004FF6FF704FF4784101220523CDE9002161
:102DA00002902F48302102681E20FFF7B9FD4FF630
:102DB000FF704FF61F032BA2302100905F20FFF71A
:102DC00057FF294820231A46462100900020FFF78C
:102DD00073FD4FF6FF701F2324A23C210090282092
:102DE000FFF746FF4FF6FF704FF478410423CDE91B
:102DF00000102148008802B24C212820FFF778FEFD
:102E00004FF6FF701F231DA24C2100905A20FFF7A0
:102E10002FFF4FF6FF701F2319A2602100900020A2
:102E2000FFF726FF0EBD0000F895000854656D7091
:102E30000000000000000020A1E60000F89D00084E
:102E400048756D6900000000040000202525000081
:102E500000A600084C696768745F446174610000F3
:102E6000140000204C75780000AE000850726573A5
:102E70007375726500000000180000204870610042
:102E80002D2D3E53656E736F724D6573736167656B
:102E90003C2D2D007FB505460C460121C802FFF7E9
:102EA000FFF9ADF80850ADF804400020ADF80A0075
:102EB000ADF806008DF80C0001A90E4800F04EF99F
:102EC000012211460B4800F03EF919208DF8000050
:102ED00000208DF8010003208DF8020001208DF8FC
:102EE00003006846FFF7F4F80121024800F00EF9EC
:102EF0007FBD0000002C014010B50121074800F003
:102F000011F928B106480078012801D103F052FCDC
:102F10000121024800F0F4F810BD0000002C01402F
:102F20007C00002010B50121880700F0FBF818B1E3
:102F30000121880700F0E7F810BD7FB505460C4673
:102F400001210846FFF79CF9ADF80850ADF80440A0
:102F50000020ADF80A00ADF8060001A94FF080404E
:102F600000F0FCF801221146900700F0ECF81C205C
:102F70008DF8000000208DF8010003208DF802007C
:102F800001208DF803006846FFF7A2F801218807A9
:102F900000F0BCF87FBD000010B50121054800F02D
:102FA000C1F828B10121034800F0ADF803F0B6FAEA
:102FB00010BD0000000400407FB505460C4601210D
:102FC0000220FFF75DF9ADF80850ADF8044000208D
:102FD000ADF80A00ADF8060001A90E4800F0BEF8F1
:102FE000012211460B4800F0AEF81D208DF80000BC
:102FF00000208DF8010003208DF8020001208DF8DB
:1030000003006846FFF764F80121024800F07EF8EB
:103010007FBD00000004004010B50121044800F00D
:1030200081F818B10121024800F06DF810BD0000D0
:103030000008004010B50121044800F073F818B1F1
:103040000121024800F05FF810BD0000000C0040B4
:1030500010B50121044800F065F818B101210248BB
:1030600000F051F810BD00000010004010B5012123
:10307000094800F057F868B10848008840F400405B
:10308000064908800121044800F03DF8002102486B
:1030900000F03CF810BD0000001400406200002069
:1030A0007FB505460C4601212020FFF7E9F8ADF871
:1030B0000450ADF800400020ADF80600ADF8020065
:1030C00069460E4800F04AF8012211460B4800F00C
:1030D0003AF80121094800F019F837208DF80C0062
:1030E00000208DF80D0002208DF80E0001208DF8D3
:1030F0000F0003A8FEF7ECFF7FBD000000140040A6
:10310000CA4302827047CA430282704721B10288D3
:1031100042F00102028004E002884FF6FE731A407A
:103120000280704730B50246002000230024158A33
:1031300005EA0103958905EA010413B10CB10120E8
:1031400000E0002030BD1AB183890B43838102E087
:1031500083898B4383817047818470470022028872
:103160001D4B98420ED01D4B98420BD0B0F1804FB2
:1031700008D01B4B984205D01A4B984202D01A4BEC
:10318000984204D14FF68F731A404B881A43174B5D
:10319000984207D0164B984204D04FF6FF431A408E
:1031A000CB881A4302808B8883850B8803850A4B62
:1031B00098420BD0094B984208D00E4B984205D04C
:1031C0000D4B984202D00D4B984201D10B7A0386E9
:1031D0000123838270470000002C0140003401402D
:1031E0000004004000080040000C004000100040B7
:1031F00000140040004001400044014000480140EC
:1032000010B540F225510C4800F0D2F970B10A48CF
:1032100000F08AFAC4B22146074800F08AFA00BFDB
:103220004021054800F0B7F90128F9D140210248B2
:1032300000F09CF910BD0000004C004010B540F2B9
:1032400025510C4800F0B4F970B10A4800F06CFA4E
:10325000C4B22146074800F06CFA00BF402105487F
:1032600000F099F90128F9D14021024800F07EF9D7
:1032700010BD00000050004010B586B0044601218A
:1032800044F20400FFF70CF84FF40070ADF814009E
:1032900003208DF8160018208DF8170005A91C488A
:1032A000FEF7AEFA4FF48060ADF8140004208DF8FC
:1032B000170005A91648FEF7A3FA25208DF800008F
:1032C00003208DF801008DF8020001208DF8030025
:1032D0006846FEF7FDFE01940020ADF80800ADF849
:1032E0000A00ADF80C00ADF810000C20ADF80E008F
:1032F00001A9084800F0ACF9012240F22551054827
:1033000000F080F90121034800F039F906B010BD42
:10331000000801400038014010B540F225510C482A
:1033200000F046F970B10A4800F0FEF9C4B2214637
:10333000074800F0FEF900BF4021054800F02BF9D6
:103340000128F9D14021024800F010F910BD000019
:103350000038014010B586B0044601210420FEF774
:103360009FFF01214804FEF78BFF0420ADF81400F5
:1033700018208DF8170003208DF8160005A92548A0
:10338000FEF73EFA0820ADF8140004208DF817006F
:1033900005A92048FEF734FA01940020ADF8080092
:1033A000ADF80A00ADF80C00ADF810000C20ADF837
:1033B0000E0001A9184800F04BF94FF4A060FEF789
:1033C000BFFE26208DF8000002208DF801000320AA
:1033D0008DF8020001208DF803006846FEF778FEA4
:1033E000012240F225510C4800F00CF901210A4855
:1033F00000F0C5F841F61F4140F2E730FFF750FEFC
:1034000000200649088000210548FFF77FFE06B02E
:1034100010BD000000080140004400406200002090
:103420000014004010B540F22551164800F0C0F8D5
:10343000F8B1144800F078F9C4B21348008800F4D9
:103440000040B0B910480088B0F5167F12DA0021AC
:103450000E48FFF781FE0C48008818B901210B487F
:10346000FFF754FE08490888411C074A11800849A3
:103470000C5405E00448008840F4004002490880EC
:1034800010BD000000440040620000200014004015
:10349000C401002010B586B0044601210820FEF7C3
:1034A000FFFE01218804FEF7EBFE4FF48060ADF8CB
:1034B000140018208DF8170003208DF8160005A9B8
:1034C0001E48FEF79DF94FF40060ADF8140004208B
:1034D0008DF8170005A91948FEF792F9019400200C
:1034E000ADF80800ADF80A00ADF80C00ADF810001A
:1034F0000C20ADF80E0001A9114800F0A9F84FF416
:10350000A060FEF71DFE27208DF8000002208DF838
:10351000010003208DF8020001208DF803006846A9
:10352000FEF7D6FD012240F22551054800F06AF869
:103530000121034800F023F806B010BD000C014043
:103540000048004008B540F22551074800F030F827
:1035500040B1054800F0E8F8C0B20090012168468B
:1035600002F096FE08BD00000048004001F4007221
:10357000B2F5007F00D100BFCA430280704721B17D
:10358000828942F40052828104E082894DF6FF7301
:103590001A408281704702460020B1F5007F00D1B9
:1035A00000BF13880B400BB1012000E000207047E2
:1035B00070B50246002400230025002040F66A165C
:1035C000B14200D100BFC1F3421501F01F03012633
:1035D00006FA03F3012D02D19689334006E0022D4D
:1035E00002D1168A334001E0968A33400C1201263C
:1035F00006FA04F41688344013B10CB1012000E03F
:10360000002070BDF0B503460024002600250020F0
:1036100040F66A17B94200D100BF1846C1F3421400
:1036200001F01F06012707FA06F5012C01D10C3025
:1036300004E0022C01D1103000E014301AB1076808
:103640002F43076002E00768AF430760F0BD00004A
:103650002DE9F04786B005460E460024A24600BF7D
:10366000A1460027B08900B100BF2F462C8A4CF636
:10367000FF700440F08804432C82AC894EF6F310AE
:103680000440B08831890843718908430443AC8100
:10369000AC8A4FF6FF400440B0890443AC8201A8D5
:1036A000FEF70EFE1F48874202D1DDF810A001E0B0
:1036B000DDF80CA0A88900F4004040B10AEBCA0074
:1036C00000EB0A1031684900B0FBF1F807E00AEBA3
:1036D000CA0000EB0A1031688900B0FBF1F86420E1
:1036E000B8FBF0F004012009642101FB1089A889CE
:1036F00000F4004040B1322000EBC900B0FBF1F013
:1037000000F00700044308E0322000EB09106421B8
:10371000B0FBF1F000F00F0004432C8106B0BDE8CF
:10372000F08700000038014001468888C0F3080097
:103730007047C1F308028280704700BFFEE70000B7
:103740000FB4054B10B503A9044A029800F090F994
:1037500010BC5DF814FB00008D4D0008C400002073
:103760000FB4084B10B504A902AA039800F080F921
:10377000044602A9002000F0FEFC204610BC5DF8C3
:1037800014FB00007741000837B514460846064B85
:103790006A46214600F06CF904466946002000F0B4
:1037A000EAFC20463EBD000077410008490050EA8F
:1037B000C12018BF04204A0D18BF40F0010040F29C
:1037C000FF72B2EB515F08BF40F00200012808BF52
:1037D000052070472DE9F0414F1E00EBC70104465C
:1037E000D1E9000115461E4637F006020DD02A46E3
:1037F0003346FCF7ADFE7F1E04EBC703D3E900237D
:10380000FCF7FFFD37F00602F1D1022F25D0042F7F
:1038100013D0062F18BFBDE8F0812A463346FCF7C7
:1038200097FED4E90A23FCF7ECFD2A463346FCF761
:103830008FFED4E90823FCF7E4FD2A463346FCF763
:1038400087FED4E90623FCF7DCFD2A463346FCF765
:103850007FFED4E90423FCF7D4FD2A463346FCF767
:1038600077FED4E90223FCF7CCFD2A463346FCF769
:103870006FFED4E90023BDE8F041FCF7C2BD0000B3
:103880000022134610460149FCF7D4BE0000F03F69
:10389000FCF7B7BD0022134610461146FCF7CABE1E
:1038A00040F2013200204FF0E041FDF721B9000065
:1038B000024A00201107FDF71BB9000001FDFFFFC0
:1038C00002E008C8121F08C1002AFAD170477047E9
:1038D000002001E001C1121F002AFBD17047000047
:1038E0000149086070470000C80000202DE9FF5F13
:1038F00082B00021DDE90430020DDDF840B0034361
:1039000018D044F61050A2F2FF3242431514119819
:1039100001281FD0A5EB0B00401C5FEA000A4FF006
:1039200000064E4FDFF83891B046504615D5CAF123
:10393000000413E0119801244AA3012801D16FEA81
:103940000B010298119AC0E90031C0E9024206B0A9
:10395000BDE8F09FCBF10000DFE704460021404ABC
:10396000491842EB0450CDE9001012E0E00707D0FF
:1039700032463B4640464946FCF7EAFD80468946CA
:1039800032463B4610461946FCF7E2FD06460F4616
:103990006410002CEAD1DDE90401DDE90023BAF16D
:1039A000000F06DAFCF7D4FD42464B46FCF7D0FD8B
:1039B00005E0FCF73FFE42464B46FCF73BFE044663
:1039C0000E460022284BFCF73FFF03D84FF0FF3094
:1039D000014607E00022254B20463146FCF711FD49
:1039E000FDF79DF8102409E0002C0ADB0A220023D1
:1039F000FCF788FF039B30321A55641E50EA01021F
:103A0000F2D1641C039AC4F111031444119A012ADF
:103A100003D0012208430DD10AE0084304D000205E
:103A20004FF0110B119072E7A3EB0B056D1E0DE02B
:103A30005B4504DD4FF0000205F1010504E003DA07
:103A40004FF00002A5F10105002AECD0029811996F
:103A5000C0E90231C0E9004579E7000000001440E8
:103A60000000F03F300000000000F0430000E03FA5
:103A70002DE9FF4F95B09A46884606460025EEE1AF
:103A8000252877D100242746F94A0121039400E034
:103A9000044316F8013F203B01FA03F01042F7D12E
:103AA00030782A2811D06FF02F033078A0F130023F
:103AB000092A16D8039A44F0020402EB820203EBAF
:103AC00042021044761C0390EFE758F8042B03924F
:103AD000002A03DA504244F40054039044F00204F4
:103AE000761C30782E2816D116F8010F44F0040405
:103AF0002A280DD06FF02F023078A0F13003092B67
:103B000009D807EB870302EB4303C718761CF3E7DA
:103B100058F8047B761C30786C280FD006DC4C28D3
:103B200017D068280DD06A2814D104E0742810D06A
:103B30007A280FD10DE044F400140AE044F4801414
:103B400001E044F440147278824202D104F58014FA
:103B5000761C761C307866280BD013DC582877D07A
:103B600009DC002875D04528F6D04628F4D047282F
:103B70001AD193E118E0632835D0642879D06528FC
:103B800012D18BE1702873D008DC6728F1D0692846
:103B90006FD06E280DD06F2806D1ACE073282CD0E2
:103BA000752874D0782853D05246179990476D1CC9
:103BB00054E1C4F30250022809D003280DD0D8F8EC
:103BC000001004280DD00D6008F1040846E1D8F873
:103BD0000010EA17C1E90052F6E7D8F800100D808E
:103BE000F2E70D70F0E718F8041B8DF800100020C4
:103BF0008DF80100EB46012003E058F804BB4FF0BC
:103C0000FF3061074FF0000102D40DE009F101011E
:103C10008946B9420FDA8145F8DB1BF80910002903
:103C2000F4D108E009F1010189468142FADB1BF871
:103C300009100029F6D103985346A0EB0907214645
:103C40003846179A00F080FA284400EB090507E08F
:103C500044E008E10DE01BF8010B5246179990472C
:103C6000B9F10109F7D2534621463846179AF2E0D6
:103C700039E00A21C4F302524FF0000B0091022AEE
:103C800006D058F8040BC117032A09D00AE023E034
:103C900008F1070020F00702F2E80201904605E073
:103CA00000B2C117042A01D140B2C117002906DAB7
:103CB0000A460021404261EB02012D2202E022056A
:103CC00004D52B228DF80420012203E0E20701D065
:103CD0002022F7E7914657E00A2100E010214FF03B
:103CE000000B00910BE010214FF0000B44F0040496
:103CF0000827009103E008204FF0000B0090C4F368
:103D00000252022A05D058F8040B0021032A08D0D9
:103D100008E008F1070020F00702F2E802019046EF
:103D200003E080B2042A00D1C0B24FF0000922079C
:103D30002AD53278702A07D0DDF800C08CF0100C3C
:103D40005CEA0B0C05D00EE040228DF80420012225
:103D500008E050EA010306D030238DF804308DF8D6
:103D6000052002229146009B83F0080353EA0B03CF
:103D70000AD150EA010201D1620705D530228DF83F
:103D800004204FF001097F1E3278582A04D039A24E
:103D90000C920CAA02920BE03BA2F9E75B46009A58
:103DA000FCF7B0FD0C9B9B5C029A521E02921370B2
:103DB00050EA0102F2D1029804A9081A00F1200B7E
:103DC000600702D524F4803400E001275F4502DD5E
:103DD000A7EB0B0000E0002000EB0B010090039824
:103DE0004944401A0390E00306D453462146179AEB
:103DF000039800F0A9F90544002706E001A85246FF
:103E0000C05D179990476D1C7F1C4F45F6DBE003A2
:103E10000CD553462146179A039800F095F90544AE
:103E200004E030205246179990476D1C0099481EB7
:103E300000900029F5DC08E00298029952460078CB
:103E4000491C0291179990476D1CBBF10001ABF121
:103E5000010BF1DC5BE100F065F90544761C30787C
:103E600000287FF40DAE19B02846BDE8F08F0000A1
:103E70000928010030313233343536373839616240
:103E80006364656600000000303132333435363704
:103E9000383941424344454600000000600700D4E1
:103EA000062708F1070020F00700F0E8022380460B
:103EB00003F0004C5FEA0C0001D097A009E0200558
:103EC00001D596A005E0E00701D095A001E0AFF292
:103ED0004C001390307823F0004365280CD006DCAA
:103EE000452809D046281DD047287FD13BE06628C9
:103EF00018D067287AD136E00021112F01DB11207C
:103F000000E0781CCDE9000104A90CA8FFF7EEFC45
:103F1000DDE90D010C9A4FF0000B07F10109109239
:103F200000914EE04FF000400097CDE9011004A948
:103F30000CA8FFF7DBFCDDE90D020C9B0F994FF09D
:103F4000000B91461093009211B9791C00EB010906
:103F5000B7EB090003D4C0F1FF3B07F10109A9EB5E
:103F60000700019042E0012F00DA01270021112F04
:103F700001DD112000E03846CDE9000104A90CA8BC
:103F8000FFF7B4FCDDE90D010C9A00914FF0000B36
:103F9000B946109221070FD4009A4A4503DA914698
:103FA00001E0A9F10109B9F1010F05DD109AA9F1AC
:103FB0000101515C3029F4D0B84202DA10F1040F4B
:103FC00003DA0121CDE9011010E0002803DC83446D
:103FD000A9EB000102E0411C494500DD8946A0EB48
:103FE0000B00401C01904FF000400290200705D4C8
:103FF0000198484502DB4FF0FF30019000208DF81A
:104000004B0002980DF14B07B0F1004F25D0022074
:104010000C902B200D90029800280CDA4042029060
:104020002D200D9007E00A210298FCF755FC303155
:10403000029007F8011D0C99481E0C900029F2DC33
:1040400002980028EFD1791E0D980870307800F0A2
:10405000200040F0450007F8020D11A8C01BC01D4C
:1040600002901398007800B1012000EB090101983B
:1040700001EBE071029801440398401A401E03903E
:10408000E00306D453462146179A039800F05CF8E3
:1040900005441398007818B15246179990476D1C43
:1040A000E00323D553462146179A039800F04CF8B5
:1040B00005441BE0BBF1000F07DB0098584504DD09
:1040C0001098179910F80B0001E01799302052460C
:1040D000904701980BF1010B401E05F1010501907D
:1040E00004D12E205246179990476D1CB9F100015A
:1040F000A9F10109DEDC05E017F8010B524617991A
:1041000090476D1C0299481E02900029F4DC53462A
:104110002146179A03989EE62D0000002B00000010
:10412000200000002DE9F041044600251E461746F8
:10413000880404D405E039462020B0476D1C641E75
:10414000F9D52846BDE8F0812DE9F0410446002567
:104150001E469046C80301D5302700E0202788047A
:1041600004D505E041463846B0476D1C641EF9D5BC
:104170002846BDE8F0810A68531C0B601070704738
:1041800010B500BF1748008800F040000028F9D0A3
:104190002B201449091D08800F2000F091FC00BF5E
:1041A0001048008800F040000028F9D02B200D496D
:1041B000091D08800F2000F083FC00BF094800881B
:1041C00000F040000028F9D02B200649091D088086
:1041D0004FF4FA7000F074FC142203A103A000F065
:1041E000D5FC10BD004400404F4B0000415400007E
:1041F0002DE9F14F82B068488069C1174FF4FA3356
:10420000C41A61F10005A4FB041005FB040004FBC3
:1042100005026148B0F910004FEAE07CA1FB008A7A
:1042200002FB00A001FB0C095B48B0F90E00C117AE
:10423000A0FB042301FB043100FB0510400440EA0D
:10424000D230510411EB080840EB09095248B0F98B
:104250000C0018F1000849EBC009A4FB041005FB91
:10426000040004FB05024C48B0F90A004FEAE07C68
:10427000A1FB003A02FB00A001FB0C004FEA132156
:1042800041EA00614FEA20224348B0F908004FEAB2
:10429000E073A446A0FB0CBE03FB04E300FB053067
:1042A0004FEA003040EA1B504FEA0B33CC1842EB88
:1042B0000005231C45F5004C3749C8880022A3FBA4
:1042C00000A10CFB001003FB02014C10CD170021D4
:1042D00084EA01006940084301D1BDE8FE8F0298DD
:1042E000C0F58010C7170646F80740EA5600F207E7
:1042F000B2EB080160EB090240F635400023A1FB58
:1043000000CA02FB00A001FB030022462B46CDE9B8
:1043100000C060460199FBF729FF06460F461E487C
:10432000B0F91600C217710B41EAC74C7B13A0FB12
:104330000C1A02FB0CA200FB0322700B40EAC74CD4
:104340007B13A1FB0C0A02FB0CA201FB0321400E14
:1043500040EAC1144D161048B0F91400C117A0FB73
:10436000062301FB063100FB0711D00C40EA41385F
:104370004FEAE149311947EB050011EB080140EB29
:104380000900090A41EA00610348B0F9120000017E
:104390000E183046A1E70000CC00002030B50146E1
:1043A000CC100F4D2D88A4EB45040D4DB5F90250EE
:1043B0006C43E2120A4C2488C4EB21146443241396
:1043C000074DB5F904506C43A313D418044DAC61E8
:1043D0002C46A46904EB84048034201230BD000014
:1043E000CC0000202DE9F05F04468946924600F09B
:1043F0003DF818480068FFF7D1FF8346FCF78EF9B7
:1044000007460022144BFCF715F90546FCF734FA71
:104410001249086012480068FFF7EAFE8346FCF77D
:104420008EF9054600220F4BFCF704F90746FCF70E
:1044300023FA0D49086021460B4804F0C1F80748EB
:104440000068C9F80000204600F078F8CAF80000BB
:10445000BDE8F09F4C0000200000594054000020AF
:10446000480000200000D940580000201CB56B46D1
:104470000622F721EC20FCF795FF9DF800000003D1
:104480009DF8011040EA01109DF8021040EA111059
:10449000074908609DF8030000039DF8041040EAF6
:1044A00001109DF8051040EA1110024908601CBD7A
:1044B000480000204C00002010B51848007808B1D2
:1044C000012010BDFCF73CFE142000F0F9FAD021C9
:1044D000EC20FCF797FF124908700846007858282E
:1044E00005D1084601780FA0FFF72AF901E0002066
:1044F000E7E7114B18228821EC20FCF753FFB32289
:10450000F421EC20FCF79EFF1422F521EC20FCF7AF
:1045100099FF01200149087000BFD2E74500002043
:1045200044000020424D5032383020494420495345
:104530003A20307825580A00CC0000202DE9FF5F92
:1045400082460021DAF80000FCF7BCF925D21448B5
:10455000DAF80010FBF717FF8346FCF749F9114A18
:10456000114BCDE9000103F03FFB064600220F4B43
:10457000FBF7E8FF4FF0C0420D4BCDE90201FBF71E
:10458000E7FF80464FF000420A4BFCF753F8044621
:10459000FCF772F904B0BDE8F09F0020FAE70000D4
:1045A000CDEC7D4428610C878A5AC83F0000F03F5B
:1045B00066A27240BE9F7A3F70B5044622E025682D
:1045C000A08900F4807020B9A06810B1A068FFF73E
:1045D000F3FFA08900F4807028B9206918B10B4955
:1045E000206909688847A08900F4007028B9206A0A
:1045F00018B10649206A09688847204603490968B6
:1046000088472C46002CDAD170BD000098000020AD
:104610000246906801E0491E006808B10029FADCF2
:10462000704701468A68002001E0401C1268002A99
:10463000FBD17047014800687047000090000020DF
:1046400070B505460E46AC6800E024682CB13146D2
:10465000206A00F0EDF90028F7D1204670BD000077
:1046600010B5282005490968884704461CB128214F
:104670002046FBF7CBFD204610BD00009400002033
:1046800010B5044600221146204600F001F810BD86
:104690002DE9F04780460D4616460024FFF7E0FF5F
:1046A00007460020124908600FB9BDE8F087404670
:1046B00004F0E1F881464946384603F037FA0446EB
:1046C00024B93846FFF778FF0020EEE766B12046B0
:1046D00004F0D1F80446207830B13846FFF76CFF7B
:1046E000034804600020E0E705B12C603846DCE7B1
:1046F000900000202DE9F84F80460D464046FFF718
:10470000BFFF07464FB9FFF795FF8346594689A07B
:10471000FFF716F80120BDE8F88F8CA13846FFF7A7
:104720008FFF81464846FFF77CFF009089A00099E3
:10473000FFF706F800214846FFF76AFFB0F1000ACC
:104740007DD08CA15046FFF77BFF061E78D08C48A9
:10475000FEF7F6FF8BA13046FFF772FF041E0ED066
:1047600089A0D4E90313226AFEF7EAFF2069FBF768
:104770006AFD83465A4628462169FBF72EFD92A121
:104780003046FFF75DFF041E0FD07FA0D4E903136E
:10479000226AFEF7D5FF2069FBF755FD83465A468E
:1047A00005F120002169FBF718FD89A13046FFF7CC
:1047B00047FF041E0FD074A0D4E90313226AFEF74A
:1047C000BFFF2069FBF73FFD83465A4605F14000D5
:1047D0002169FBF702FD80A13046FFF731FF041E7F
:1047E0000FD069A0D4E90313226AFEF7A9FF20695C
:1047F000FBF729FD83465A4605F160002169FBF766
:10480000ECFC77A13046FFF71BFF041E0FD05EA023
:10481000D4E90313226AFEF793FF2069FBF713FD27
:1048200083465A4605F1A0002169FBF7D6FC6FA12B
:104830003046FFF705FF041E12D053A001E073E0DD
:104840000EE0D4E90313226AFEF77AFF2069FBF732
:10485000FAFC83465A4605F1C0002169FBF7BDFC0E
:1048600066A15046FFF7ECFE061E44D06448FEF7F2
:1048700067FF64A13046FFF7E3FE041E0FD042A09D
:10488000D4E90313226AFEF75BFF2069FBF7DBFC28
:1048900083465A4605F1E0002169FBF79EFC5BA1C7
:1048A0003046FFF7CDFE041E0FD037A0D4E9031326
:1048B000226AFEF745FF2069FBF7C5FC83465A468E
:1048C00005F580702169FBF788FC52A13046FFF79F
:1048D000B7FE041E0FD02CA0D4E90313226AFEF702
:1048E0002FFF2069FBF7AFFC83465A4605F5907011
:1048F0002169FBF772FC4AA15046FFF7A1FE061E94
:1049000012D04A48FEF71CFF1FA0D6E90313326AF3
:10491000FEF716FF3069FBF796FC83465A4605F50D
:10492000A0702169FBF759FC00BF3846FFF744FE31
:104930000020F0E64572726F72206265666F7265E4
:104940003A205B25735D200D0A00000072657375C7
:104950006C747300634A534F4E5F476574417272C3
:10496000617953697A653A2073697A653D256420D7
:104970000D0A00006C6F636174696F6E00000000C7
:10498000C026010869640000634A534F4E5F4765C3
:10499000744F626A6563744974656D3A2074797006
:1049A000653D25642C20737472696E6720697320DD
:1049B00025732C76616C7565737472696E673D251D
:1049C00073200D0A000000006E616D65000000009C
:1049D000636F756E74727900706174680000000016
:1049E00074696D657A6F6E650000000074696D65AD
:1049F0007A6F6E655F6F6666736574006E6F7700C1
:104A0000102701087465787400000000636F646506
:104A10000000000074656D706572617475726500E8
:104A20006C6173745F757064617465006027010860
:104A300070B504460D462CB9AC4201D0012070BDC2
:104A40000020FCE70DB90120F9E705E0207808B95E
:104A50000020F4E7641C6D1C2078FBF7B8FB0646C9
:104A60002878FBF7B4FB8642F0D02078FBF7AFFB49
:104A700006462878FBF7ABFB301AE0E710B56FF07D
:104A80000400FDF78BFD0A4800680A49B0FBF1F00D
:104A9000094908700846007800EB4001C1EBC010DE
:104AA0004FF6FF7101EAC0000449088010BD000004
:104AB0002400002000127A005C0000205E0000202C
:104AC0000146114A12884A434FF0E0235A610022FE
:104AD0009A611A46126942F001021A6100BF4FF052
:104AE000E022106900F001021AB100F48032002ABD
:104AF000F5D04FF0E022126922F001024FF0E023DE
:104B00001A6100229A6170475E0000200146114A36
:104B100012784A434FF0E0235A6100229A611A4604
:104B2000126942F001021A6100BF4FF0E0221069E1
:104B300000F001021AB100F48032002AF5D04FF0E3
:104B4000E022126922F001024FF0E0231A610022F4
:104B50009A6170475C00002070B504460025094842
:104B6000008800F4004058B1002006490988C1F3CC
:104B70000E01054A505421461046FBF752FB0546EC
:104B8000284670BD62000020C40100202DE9F041DC
:104B900006460D461446002700201349088031467A
:104BA00012A003F015FFE5B1DCB113E00A20FFF716
:104BB00087FF0D48008800F4004058B12846FFF7F1
:104BC000CBFF20B129460BA0FEF7BAFD06E000207E
:104BD00005490880601E80B2041EE7D100BF04B9F9
:104BE00001273846BDE8F0816200002025730D0AD8
:104BF00000000000726563656976653A25730D0AE9
:104C00000000000010B53221002002F043FC0446F1
:104C100025A0FEF795FD00BF142226A126A0FFF7D0
:104C2000B5FF0028F8D125A0FEF78AFD322221A188
:104C300027A0FFF7ABFF29A0FEF782FD14221DA1DC
:104C40002AA0FFF7A3FF4FF47A70FFF739FF4FF464
:104C50007A70FFF735FF4FF47A70FFF731FF25A028
:104C6000FEF76EFD142213A127A0FFF78FFF29483E
:104C70000368294829A102682046FEF771FD2548EE
:104C80000268254801682AA0FEF75AFD00BF4FF4CC
:104C900096722EA12046FFF779FF0028F7D1214612
:104CA00002F0E6FB10BD000073656E643A41540DDE
:104CB0000A0000004F4B00004154000073656E6411
:104CC0003A41542B43574D4F44453D310D0A0000A6
:104CD00041542B43574D4F44453D310073656E643D
:104CE0003A41542B5253540D0A00000041542B52A8
:104CF0005354000073656E643A41542B4349504D40
:104D000055583D300D0A000041542B4349504D5534
:104D1000583D3000A00000209C00002041542B434F
:104D2000574A41503D222573222C22257322000030
:104D300073656E643A41542B43574A41503D2225D6
:104D400073222C222573220D0A0000005749464980
:104D500020474F542049500001B581B000200090F9
:104D6000694601AA5078087010784870BDF80000B4
:104D70000CBD0146080601F47F4240EA022001F41E
:104D80007F0240EA122040EA1160704770B5044685
:104D90000D46E1B20548FEF7CCFC00BF8021034878
:104DA000FEF7F9FB0028F9D0204670BD003801401D
:104DB00010B52821002002F06DFB3B4908603BA3A1
:104DC0003BA240A138480068FEF7CAFC37A238A1D0
:104DD00043A0FEF7B5FCC8224AA133480068FFF79C
:104DE000D5FE0446012C06D12F480168002002F0B0
:104DF0003FFB012010BD4FF49670FFF761FE42A00B
:104E0000FEF79EFC64223FA144A0FFF7BFFE0020F6
:104E10004649088046A0FEF793FC642239A149A0C8
:104E2000FFF7B4FE4AA0FEF78BFC4E4803F0D0FD1E
:104E30001420FFF745FE00203C4908804FF47A70AB
:104E4000FFF73EFE3948008800F4004030B10020F2
:104E500036490988C1F30E01434A5054424943A0E0
:104E6000FEF76EFC46494048FFF744FC45A0FEF7BC
:104E700067FC4349E0314AA0FEF762FC4A4948A07A
:104E8000FEF75EFCFFF77CF948A0FEF759FC3222E2
:104E90001CA14BA0FFF77AFE03480168002002F036
:104EA000E7FA0020A6E70000A40000203830000048
:104EB0006170692E73656E6976657273652E636FB6
:104EC0006D00000041542B43495053544152543D0E
:104ED00022544350222C222573222C2573000000DB
:104EE00073656E643A41542B4349505354415254B4
:104EF0003D22544350222C222573222C25730D0A67
:104F0000000000004F4B000073656E643A41542B63
:104F10004349504D4F44453D310D0A0041542B4308
:104F200049504D4F44453D310000000062000020D3
:104F300073656E643A41542B43495053454E440DBA
:104F40000A00000041542B43495053454E44000091
:104F50007374617274207472616E732E2E2E0D0A3A
:104F60000000000050260108C401002055534152A2
:104F700054325F52585F4255463D25730D0A00007A
:104F800011080020B4F2D3A1BDE1B9B9CCE5C4DA6F
:104F9000C4DAC8DDC8E7CFC2A3BA200D0A000000FA
:104FA0002573200D0A0000003109002073656E642E
:104FB0003A41542B434950434C4F53450D0A00008E
:104FC00041542B434950434C4F534500024612B1C4
:104FD00002F0070028B9082901D8002070470120F5
:104FE000FCE702F00700C0F10800884201D300206E
:104FF000F4E70120F2E730B502460B460021002419
:1050000000250AB9481E30BD002108E0545C581A3A
:10501000401E155C5554581A401E1454491CB1EBDF
:10502000530FF3D30020EEE72DE9F04104460D467F
:105030000027002604B135B930A0FEF781FB4FF000
:10504000FF30BDE8F08100F0A5F906462878217808
:10505000884203D033A0FEF773FB0127D4F8011078
:10506000D5F80100FBF724FC0AD033480068301A59
:1050700041F27071884203D330A0FEF761FB012733
:10508000D4F80510D5F80500FBF712FC0AD02A4821
:105090000068301A41F27071884203D32CA0FEF7E9
:1050A0004FFB0127D5F80900D4F8091088420AD02F
:1050B00021480068301A41F27071884203D329A058
:1050C000FEF73EFB0127D4F80D10D5F80D00FBF7D5
:1050D000EFFB0AD018480068301A41F2707188421C
:1050E00003D325A0FEF72CFB0127012F03D100F0ED
:1050F00051F9114908603846A3E7000067697A430F
:105100006865636B5265706F7274204572726F725E
:10511000202C20496C6C6567616C20506172616D58
:105120000A00000076616C75654C45442043686157
:105130006E6765640A0000008000002076616C756F
:105140006554656D70204368616E6765640A000090
:1051500076616C756548756D204368616E6765643E
:105160000A00000076616C756550726573732043A8
:1051700068616E6765640A0076616C75654C696785
:1051800068745F496E74656E7369747920436861F1
:105190006E6765640A000000F8B505460C461646C1
:1051A0000DB104B12EB910A0FEF7CAFA4FF0FF30CE
:1051B000F8BD287800F0010098B111212278601C18
:1051C00081542078401C207001206B1C0246002175
:1051D0000090084601F040F908B1012000E00020ED
:1051E00030700020E4E7000067697A446174615020
:1051F0006F696E74324576656E74204572726F7297
:10520000202C20496C6C6567616C20506172616D67
:105210000A000000F8B505460C4605B12CB921A0DE
:10522000FEF78EFA4FF0FF30F8BD002020706D1CA5
:1052300015F8010C2346012200210090084601F0D8
:10524000CBF801212046FFF7D6FE2A68002121482D
:1052500001F073F986B23046FFF77EFD24F8010FA6
:105260006A6800211B4801F068F986B23046FFF7F2
:1052700073FD6080AA680021012001F057F986B211
:105280003046FFF769FDA080EA686D1E00211148D5
:1052900001F053F90646FFF76CFDC4F80600641EE2
:1052A0000020C1E767697A44617461506F696E7468
:1052B00073325265706F727444617461204572720A
:1052C0006F72202C20496C6C6567616C2050617294
:1052D000616D0A00CDCCCC3D70B5054600F05AF8A2
:1052E00004461D492846FFF79FFE012813D11BA045
:1052F000FEF726FA18491C392846FFF78BFF28B914
:105300000B2215491C39042000F0FCFF112229460C
:105310001148FAF762FF1748B4FBF0F100FB1140A7
:10532000C8B915480068A04215D014A0FEF708FAC5
:1053300009491C392846FFF76DFF28B90B22064999
:105340001C39042000F0DEFF112229460248FAF73A
:1053500044FF0948046070BD620700206368616E05
:105360006765642C207265706F727420646174616B
:105370000A000000C027090084000020496E666F03
:105380003A2036303053207265706F727420646139
:1053900074610A000148006870470000780000202E
:1053A00010B5174890F84E00012827D1144890F8FE
:1053B0004D0002281DDAFFF7EDFF1149D1F87110F9
:1053C000401AC8281AD9FFF7E5FF04460C4890F8A0
:1053D0004D30D0F8712021460AA0FEF7B1F900F057
:1053E000AFFE074890F84D00401C054981F84D007C
:1053F00004E0282102484D30FAF708FF10BD0000F4
:10540000850600205761726E696E673A67697A5047
:10541000726F746F636F6C526573656E6444617410
:10542000612025642025642025640A003EB50446D9
:10543000002524B913A0FEF783F9681E3EBD20683D
:105440000090606801909DF80400401CC0B28DF887
:1054500004000520FFF780FCADF802000921684632
:1054600000F0ACFE8DF808000921684603F0D8FA78
:105470000546002D03DA29460DA0FEF761F92846FE
:10548000DCE700004552523A2067697A50726F7427
:105490006F636F6C436F6D6D6F6E41636B20646102
:1054A000746120697320656D707479200A000000B2
:1054B0004552523A20756172742077726974652082
:1054C0006572726F72202564200A0000FEB50446E2
:1054D0000E46002524B914A0FEF732F9681EFEBD61
:1054E000684600F0D7F912208DF8040060798DF835
:1054F00005000620FFF730FCADF802008DF80860CB
:105500000A21684600F05AFE8DF809000A21684613
:1055100003F086FA0546002D03DA29460DA0FEF7B2
:105520000FF92846DBE7000067697A50726F746FE5
:10553000636F6C4572726F72436D64204572726F57
:1055400072202C20496C6C6567616C20506172611F
:105550006D0A00004552523A2075617274207772CC
:10556000697465206572726F72202564200A0000DC
:1055700030B59DB0044600252CB92BA0FEF7E0F80D
:10558000681E1DB030BD684600F084F902208DF819
:10559000040060798DF805002FA103C9CDE902014F
:1055A00030A103C9CDE9040131A103C9CDE9080146
:1055B00032A103C9CDE90601202233A10AA8FAF7D6
:1055C0000CFE202239A10DF15200FAF706FE002050
:1055D000CDF84A00CDF84E009DF851008DF85100ED
:1055E0009DF8510040F002018DF851100020FFF7A6
:1055F000B3FBADF848006F20FFF7AEFBADF802003B
:105600007321684600F0DAFD8DF872007321684658
:1056100003F006FA0546002D03DA29462CA0FEF712
:105620008FF82846ADE7000067697A50726F746F93
:10563000636F6C476574446576696365496E666F30
:10564000204572726F72202C20496C6C6567616C0A
:1056500020506172616D0A003030303030303034AB
:1056600000000000303030303030303200000000B8
:1056700030333033303030300000000030333031E0
:105680003031303000000000663235366539336421
:10569000326662313433376462636662633437334F
:1056A0003934366636633961000000006462323393
:1056B000323666316461323234326137616332636B
:1056C00035376636333137343164643100000000D9
:1056D0004552523A20756172742077726974652060
:1056E0006572726F72202564200A00002DE9FE4F5A
:1056F00080460E4617464FF0000B00200290814670
:105700008246002534460090B8F1000F01D006B162
:1057100037B950A0FEF714F84FF0FF30BDE8FE8F08
:10572000404602F0CDFF00F0FF0ABAF1000F02D1AF
:105730004FF0FF30F2E74FF000095DE0012201A9D0
:10574000404602F0FAFF8346BBF1000F52D04D48AD
:105750000078FF281FD19DF80400FF281BD14A487C
:10576000007848B9FF202070607002204749088007
:1057700001204549087034E044480088042830DDA1
:1057800042480088A8422CD0FF2020706070022080
:105790003E49088025E03B480078FF2803D19DF86A
:1057A000040055281DD038480078012819D19DF8EB
:1057B000040036490988605434480088401C334945
:1057C00008800846008804280BDD0094009C60884F
:1057D000FFF7C2FA001D85B22C480088A84200D10C
:1057E0000CE09DF804002749087029480078401C07
:1057F0002749087009F10109D1459FDB00BF234803
:105800000088042823DD21480088A8421FD11F48B2
:105810000188204600F0D2FC02901C480088401EFF
:10582000215C029881420FD12A4621463046FAF780
:10583000D4FC3D80002014490870144908801449A4
:1058400008701049087069E76FF0010066E70120F1
:1058500064E7000067697A50726F746F636F6C471A
:1058600065744F6E655061636B6574204572726F2D
:1058700072202C20496C6C6567616C2050617261EC
:105880006D0A00008C000020880000208A000020A3
:105890008D00002010B504462CB907A0FDF750FF7D
:1058A0004FF0FF3010BD002020606060FF202070AE
:1058B00060700020F6E700004552523A2067697A8E
:1058C00050726F746F636F6C48656164496E697480
:1058D000206865616420697320656D707479200AA1
:1058E000000000002DE9F04F91B006468B461746A8
:1058F0009946002010908246804600256C46BBF1F8
:10590000000F06D130A0FDF71BFF681E11B0BDE8E7
:10591000F08FB9F1010F06D196F8088008F1060062
:10592000384485B201E0781D85B22B46424639469F
:105930002BA0FDF705FFFF2004F8010B04F8010B75
:10594000281204F8010B04F8015B3079401C04F8BC
:10595000010B707904F8010B002004F8010B04F826
:10596000019B4FF0080AB9F1010F0CD104F8018B2B
:105970000AF1010A0DEB0A00424606F10901FAF7A5
:105980002CFCC24444442FB10DEB0A003A46594660
:10599000FAF723FC291D684600F010FC0146E81CBC
:1059A0000DF80010291D684603F03AF81090109881
:1059B000002806DA14A01099FDF7C2FE6FF001006E
:1059C000A4E70020A2E700005B4552525D2020645E
:1059D000617461204973204E756C6C200A000000D0
:1059E0006C656E203D202564202C20734469644C36
:1059F000656E203D202564202C646174615F6C65B8
:105A00006E203D2025640A007561727420777269EA
:105A10007465206572726F72202564200A00000090
:105A20002DE9F04780460C4617461D46089E94F81F
:105A300000900CB105B136B933A0FDF781FE4FF0EF
:105A4000FF30BDE8F087B8F1000F5AD113213A4872
:105A5000FAF7DCFBB9F1010F06D0B9F1020F11D052
:105A6000B9F1050F4BD12AE0334A57323249601C55
:105A7000FFF792FB0120304975390870002500209E
:105A800030603DE02C494C3101F11C00FFF7C2FBB6
:105A900088B929484C300168C5F801104168C5F83B
:105AA00005100189A5F80910807AE8720320287092
:105AB0000C20306002E04FF0FF30C2E720E07A1E99
:105AC000611C1D485438FAF788FB781E1A4975394D
:105AD000C1F8410010211848753890F875207630CB
:105AE0008154763890F87500401C1349753981F857
:105AF00075000320087000250020306000E000BF22
:105B000000BF00209DE7000067697A50726F746FD4
:105B1000636F6C49737375656450726F63657373FB
:105B2000204572726F72202C20496C6C6567616C25
:105B300020506172616D0A00FA06002070B50446BB
:105B400025462CB90FA0FDF7FBFD4FF0FF3070BDCF
:105B5000412205F108010F48FAF73FFB0F210D48DC
:105B6000FB3890F8AE20AF308154AF3890F8AE00DB
:105B7000401C0849FB3981F8AE0005200870002060
:105B8000E5E700004E545020697320656D7074790C
:105B9000200A00008007002010B504462CB9CAA0D6
:105BA000FDF7CEFD4FF0FF3010BD2089FFF7D4F890
:105BB0002081D1480078C0F38000217AC1F38001B0
:105BC000884256D0207AC0F38000002829D0207A5D
:105BD00000F0010078B10021C84890F88820893091
:105BE0008154893890F88800401CC44981F88800A5
:105BF000C3A0FDF7A5FD207AC0F34000002838D0EF
:105C00000121BE4890F8882089308154893890F865
:105C10008800401CB94981F88800C1A0FDF790FDBB
:105C200027E0207A00F0010078B10021B34890F815
:105C3000882089308154893890F88800401CAF4909
:105C400081F88800AEA0FDF77BFD207AC0F340000C
:105C500078B10221A94890F8882089308154893888
:105C600090F88800401CA54981F88800B3A0FDF792
:105C700067FDA1480078C0F3C000217AC1F3C001DC
:105C800088422CD0207AC1089B48007861F3C30079
:105C900099490870207AC0F3C00080B10321974869
:105CA00090F8882089308154893890F88800401C09
:105CB000924981F88800A8A0FDF742FD0FE0042179
:105CC0008E4890F8882089308154893890F888006F
:105CD000401C8A4981F88800A7A0FDF731FD86485D
:105CE0000078C0F30010217AC1F3001188422CD053
:105CF000207A01098048007861F304107E49087019
:105D0000207AC0F3001080B105217C4890F88820EB
:105D100089308154893890F88800401C774981F88F
:105D200088009DA0FDF70CFD0FE00621734890F858
:105D3000882089308154893890F88800401C6F4948
:105D400081F888009CA0FDF7FBFC6B480078C0F34D
:105D50004010217AC1F3401188422CD0207A4109A9
:105D60006548007861F3451063490870207AC0F3F4
:105D7000401080B10721614890F888208930815413
:105D8000893890F88800401C5C4981F8880093A00D
:105D9000FDF7D6FC0FE00821584890F8882089309C
:105DA0008154893890F88800401C544981F8880053
:105DB00091A0FDF7C5FC50484078C0F3C001607A5F
:105DC000C0F3C00081422CD0607AC1084A484078B4
:105DD00061F3C30048494870607AC0F3C00080B1E5
:105DE0000B21464890F8882089308154893890F8F2
:105DF0008800401C414981F8880087A0FDF7A0FC7D
:105E00000FE00C213D4890F8882089308154893872
:105E100090F88800401C394981F8880085A0FDF77A
:105E20008FFC35484078C0F30011607AC0F3001051
:105E300081422CD0607A01092F48407861F3041028
:105E40002D494870607AC0F3001080B109212B48B9
:105E500090F8882089308154893890F88800401C57
:105E6000264981F888007BA0FDF76AFC0FE00A2133
:105E7000224890F8882089308154893890F8880029
:105E8000401C1E4981F8880079A0FDF759FC0D21BE
:105E90001A4890F8882089308154893890F8880011
:105EA000401C164981F88800607A00F0070081F8EC
:105EB000EE00084690F8EE1074A0FDF741FC0220B9
:105EC0000E49087000206FE667697A50726F746F30
:105ED000636F6C4D6F64756C65537461747573207A
:105EE0004572726F72202C20496C6C6567616C2062
:105EF000506172616D0A00008E000020850600204E
:105F00004F6E426F617264696E673A20536F6674B8
:105F10004150206F7220576562206D6F64650A00E2
:105F20004F6E426F617264696E673A204169724CCC
:105F3000696E6B206D6F64650A0000004F6E426FE2
:105F4000617264696E673A2053746174696F6E2080
:105F50006D6F64650A0000005769466920737461BB
:105F60007475733A20696E2062696E64696E672089
:105F70006D6F64650A00000057694669207374619B
:105F80007475733A206F75742062696E64696E6708
:105F9000206D6F64650A000057694669207374615B
:105FA0007475733A20636F6E6E65637465642072F6
:105FB0006F757465720A00005769466920737461D1
:105FC0007475733A20646973636F6E6E656374658C
:105FD0006420726F757465720A0000005769466923
:105FE000207374617475733A20636F6E6E656374A9
:105FF0006564206D326D0A005769466920737461CB
:106000007475733A20646973636F6E6E656374654B
:1060100064206D326D0A000057694669207374610F
:106020007475733A2061707020636F6E6E6563746F
:106030000A00000057694669207374617475733AE9
:10604000206E6F2061707020636F6E6E6563740ADE
:106050000000000057694669207374617475733AD3
:1060600020696E2074657374206D6F64650A00008A
:1060700057694669207374617475733A206F75743B
:106080002074657374206D6F64650A005253534920
:10609000206973202564200A0000000070B50446C2
:1060A00025462CB919A0FDF74BFB4FF0FF3070BD12
:1060B0001B48A9680160E9684160298A0181A97CBF
:1060C0008172A0F1EF01B1F8EF00FEF745FE14492F
:1060D000EF39A1F8EF00D1F8F700FEF74AFE1049BA
:1060E000EF39C1F8F7000E210D48EF3890F89B20EA
:1060F0009C3081549C3890F89B00401C0849EF3933
:1061000081F89B00042008700020D0E74552523AE5
:10611000204E545020697320656D707479200A00F8
:106120007407002010B5FFF735F9044600BFFFF7EC
:1061300031F9001BB0F5167FF9D901F093F810BDC5
:1061400010B500240E4890F84E0000B910BD0DA007
:10615000FDF7F6FA0A48B0F86F104F3002F060FC15
:1061600004460748B0F86F00A04202D00DA0FDF72A
:10617000E7FAFFF70FF90249C1F8710000BFE5E740
:10618000850600205761726E696E673A2074696DEA
:10619000656F75742C20726573656E64206461741C
:1061A00061200A004552523A20726573656E642080
:1061B00064617461206572726F720A0010B50246E4
:1061C0000024002302B109B9002010BD022303E01E
:1061D000D05C2044C4B25B1C481E9842F8D82046CC
:1061E000F3E7000070B504460D462CB90FA0FDF78B
:1061F000A7FA4FF0FF3070BD28211248FAF706F8D1
:106200002A4621460F48801CF9F7E7FF0D484D3814
:10621000A0F86F50012180F84E10FFF7BBF8094934
:106220004D39C1F871000020E5E700004552523AAF
:10623000206461746120697320656D707479200A2F
:1062400000000000D206002070B50446094D2CB9AC
:1062500009A0FDF775FA4FF0FF3070BD2879401C9A
:106260002179884204D128210248801EF9F7CEFF07
:106270000020F2E7D40600204552523A20646174AF
:106280006120697320656D707479200A0000000038
:1062900070B504460D46002624B90AA0FDF750FA51
:1062A000701E70BD2A4621460E4802F097FA064637
:1062B000AE4205D00CA0FDF743FA4FF0FF30F0E7F7
:1062C0003046EEE74552523A2067697A5075744479
:1062D0006174612062756620697320656D707479E0
:1062E000200A0000C10700204552523A2046616949
:1062F0006C656420746F2072625772697465200A3D
:1063000000000000F0B587B005460E461746002491
:106310002EB91FA0FDF714FA601E07B0F0BD01A84A
:10632000FFF7B8FA05208DF80800234890F84510CB
:10633000D0F84500401C204AC2F84500C8B28DF88C
:1063400009008DF80C501120FEF706FDADF806008F
:106350003A4631460DF10D00F9F73FFF152101A82E
:10636000FFF72CFF8DF81800152101A802F058FB4B
:106370000446002C06DA214610A0FDF7E1F96FF083
:106380000100CAE7152101A8FFF72CFF2046C4E74A
:1063900067697A5265706F727444617461204572E6
:1063A000726F72202C20496C6C6567616C205061A3
:1063B00072616D0A00000000850600204552523AC5
:1063C0002075617274207772697465206572726FCE
:1063D00072202564200A00002DE9F04704460D468E
:1063E0001746089E4FF00009CA46C8461BB94FF031
:1063F000FF30BDE8F08739462846FEF7E7FD8046C6
:10640000B8F1000F07D1185D05F0070106FA01F198
:10641000084318551EE0B8F1010F1BD1F0B205F08A
:106420000701C1F1080140FA01F905F00700C0F1C8
:106430000801FF20084100EA060A601C185C40EAD7
:106440000900611C5854185D05F007010AFA01F1B2
:10645000084318550020CCE72DE9F04F8FB00546D2
:106460000C4616469946189F4FF0000AD346002066
:106470000E908046B9F1000F00D027B94FF0FF30E1
:106480000FB0BDE8F08F3A46494601A8F9F7A5FEDE
:10649000012F09D9394601A8FEF7ADFDB0F1FF3F44
:1064A00002D14FF0FF30EBE731462046FEF78EFD7C
:1064B0008246BAF1000F0CD101A8405D04F007013B
:1064C0000841C6F10802FF211141084040EA0808CE
:1064D00021E0BAF1010F1ED101A9681C085C04F08B
:1064E0000701C1F10801711AC1F10802FF21114130
:1064F00000EA010B01A8405D04F0070108410E907D
:1065000004F00700C0F108010BFA01F040EA0808A6
:106510000E9848EA00084046B2E7000002480068CA
:10652000401C0149086070477800002010B5034600
:106530000020541AB4FBF3F010BD2DE9F0470446D7
:106540000E461546002731462846F9F7E4FE8146F7
:106550002146F9F718FF8046FAF7FEF80746384655
:10656000BDE8F0872DE9FC5F06460D4693464FF0E7
:1065700000082F46A9462C46AA4606B11DB94FF081
:10658000FF30BDE8FC9F4FF00008C8E0701C10F819
:10659000080012287ED2DFE800F01C1D1EBCBC1FC4
:1065A000202125BCBCBCBC2933B02F0938785F49F9
:1065B0000870084601785EA0FDF7C2F85B480078D5
:1065C000012802D15F49086002E000205D490860AF
:1065D000A0E09FE09EE09DE09CE09BE001205A4906
:1065E000087097E000205849087093E099F800106F
:1065F00056A0FDF7A5F88DE057A0FDF7A1F889E0BA
:1066000001205A4908704FF6FF700021CDE90010B3
:106610002288042370210020FCF7D4FA4FF6FF7083
:106620004FF4784352A2702100902020FCF720FB09
:106630004FF6FF700021CDE90010A27802237021EF
:106640002820FCF7BFFA4FF6FF704FF4784348A2BA
:10665000702100903620FCF70BFB4FF6FF700021F5
:10666000CDE90010E278022370213E20FCF7AAFA5F
:106670004FF6FF704FF478433EA2702100904E20F9
:10668000FCF7F6FA4FF6FF704FF61F01CDE9001048
:10669000227900E03DE0022370215620FCF792FAB7
:1066A0004FF6FF704FF4784333A2702100906620BC
:1066B000FCF7DEFA4FF6FF704FF61F01CDE9001030
:1066C0006279022370216E20FCF77CFA4FF6FF708E
:1066D0004FF4784328A2702100907E20FCF7C8FA7E
:1066E0004FF6FF704FF61F01CDE90010A27902238B
:1066F00070218620FCF766FA0CE020A0FDF720F858
:1067000023A0FDF71DF89AF8001025A0FDF718F852
:1067100000E000BF00BF08F1010000F0FF08307882
:1067200040453FF733AF00202BE700007406002000
:106730004576743A204556454E545F4C45442025D5
:1067400064200A00940124427C00002052535349E3
:106750002025640A000000005452414E535041521B
:10676000454E545F44415441200A00007D00002002
:106770002D000000200000003A0000004D4F44555D
:106780004C4520494E464F202E2E2E0A0000000078
:10679000574946204D4F44554C45202E2E2E0A0079
:1067A0006D6F64756C6554797065203A205B256463
:1067B0005D200A003EB500246846FFF76BF81720FD
:1067C0008DF80400134890F84510D0F84500401C9F
:1067D000104AC2F84500C8B28DF805000520FEF742
:1067E000BBFAADF8020009216846FFF7E7FC8DF817
:1067F00008000921684602F013F90446002C03DA68
:10680000214605A0FCF79CFF09216846FFF7EAFC3A
:106810003EBD0000850600204552525B4E54505D3F
:106820003A2075617274207772697465206572729E
:106830006F72202564200A002DE9F04194B00546CE
:10684000002600200390029000248046002735B9DE
:1068500081A0FCF775FF601E14B0BDE8F081FEF763
:106860009FFD03AA86498748FEF740FF0646002E93
:1068700071D185A0FCF764FF814C20790F284FD09F
:106880000ADC0E2873D2DFE800F07216721A7272F8
:10689000433872724472453C182852D006DC1128E5
:1068A00047D0142846D0162861D134E0222854D08D
:1068B0002A285CD130E02046FEF75AFE5FE0E279FC
:1068C000A17976A0FCF73CFF02A8009007F109002F
:1068D000BDF80C301A1A6A480830C11904AB40469A
:1068E000FFF79EF840B9E37904A92046029AFEF723
:1068F000F9FF6EA0FCF724FF41E02046FEF796FD6D
:106900003DE02046FEF792FD2046FFF745F936E0D0
:1069100000BF00BF00BF00BF2046FFF795FC2EE080
:106920002046FEF783FD64A0FCF70AFFFFF7FAFBA1
:1069300025E024E02046FFF787FC64A0FCF700FF79
:106940001DE02046FFF780FC2046FFF7A7FB67A06D
:10695000FCF7F6FE13E013E009E02046FFF774FCB5
:106960002046FFF7EBF867A0FCF7EAFE07E00221FC
:106970002046FEF7ABFD6AA0FCF7E2FE00BF0DE08B
:1069800016F1020F0AD13E4C01212046FEF79EFD72
:1069900069A0FCF7D5FE6FF001005DE73848401EA6
:1069A0000078062850D2DFE800F04F0313232F3F72
:1069B00000203349491E08701122CC31A1F1570043
:1069C000FFF7D0FD13212E487430F9F71FFC3CE08F
:1069D00000202B49491E08700122EE31A1F166000A
:1069E000FFF7C0FD132126488730F9F70FFC2CE094
:1069F00000202349491E08700846D0F84120213163
:106A00007530FFF7AFFD20E000201D49491E0870DA
:106A10000C22EF31A1F15400FFF7A4FD1321184817
:106A20009A30F9F7F3FB10E000201549491E087071
:106A30004122FB31A1F14D00FFF794FD41211048A7
:106A4000AD30F9F7E3FB00E000BF00BF2846FEF7DA
:106A500043FC002000E7000047697A7769747348B7
:106A6000616E646C65204572726F72202C20496CD7
:106A70006C6567616C20506172616D0A00000000F6
:106A800086060020C1070020476574204F6E6520F0
:106A90005061636B6574210A00000000666C6167D9
:106AA000202578202578200A0000000041636B44EF
:106AB000617461203A200A007265706F72743A4DF9
:106AC0004355207265626F6F74210A0041636B2029
:106AD00050524F44554354494F4E5F4D4F4445200B
:106AE00073756363657373200A00000041636B2054
:106AF0004745545F55545420737563636573732021
:106B00000A00000041636B204745545F4D6F647578
:106B10006C652073756363657373200A0000000061
:106B20004552523A20636D6420636F64652065723C
:106B3000726F72210A0000004552523A2063686564
:106B4000636B2073756D206572726F72210A00008D
:106B500010B540200A4908600A48C860084601F09C
:106B6000E1FD18B908A0FCF7EBFD02E00BA0FCF773
:106B7000E7FD4FF49E710E48F9F748FB10BD000089
:106B8000C1070020D10700207262437265617465FD
:106B90002053756363657373200A00007262437249
:106BA00065617465204661696C64200A000000001C
:106BB0008506002030B587B005460024062D7CD21E
:106BC000DFE805F003305F90BDEA01A8FEF762FE42
:106BD0000B208DF808008B4890F84510D0F8450040
:106BE000401C884AC2F84500C8B28DF8090005204B
:106BF000FEF7B2F8ADF80600092101A8FFF7DEFAAA
:106C00008DF80C00092101A801F00AFF0446002CB0
:106C100003DA21467CA0FCF793FD092101A8FFF7C8
:106C2000E1FAEAE004A8FEF735FE09208DF8140029
:106C3000744890F84510D0F84500401C714AC2F8DD
:106C40004500C8B28DF815008DF818500620FEF7E3
:106C500083F8ADF812000A2104A8FFF7AFFA8DF807
:106C600019000A2104A801F0DBFE0446002C03DA17
:106C7000214665A0FCF764FD0A2104A8FFF7B2FADB
:106C8000BBE004A8FEF706FE09208DF814005D485D
:106C900090F84510D0F84500401C5A4AC2F845000B
:106CA000C8B28DF815008DF818500620FEF754F87C
:106CB000ADF812000A2104A800E09AE0FFF77EFA7E
:106CC0008DF819000A2104A801F0AAFE0446002C40
:106CD00003DA21464CA0FCF733FD0A2104A8FFF794
:106CE00081FA8AE001A8FEF7D5FD13208DF808008F
:106CF000444890F84510D0F84500401C414AC2F87D
:106D00004500C8B28DF809000520FEF725F8ADF85A
:106D10000600092101A8FFF751FA8DF80C0009219E
:106D200001A801F07DFE0446002C03DA214636A0BE
:106D3000FCF706FD092101A8FFF754FA5DE001A860
:106D4000FEF7A8FD15208DF808002E4890F8451094
:106D5000D0F84500401C2B4AC2F84500C8B28DF857
:106D600009000520FDF7F8FFADF80600092101A88C
:106D7000FFF724FA8DF80C00092101A801F050FE5C
:106D80000446002C03DA21461FA0FCF7D9FC092198
:106D900001A8FFF727FA30E001A8FEF77BFD2920C4
:106DA0008DF80800174890F84510D0F84500401CB1
:106DB000144AC2F84500C8B28DF809000520FDF755
:106DC000CBFFADF80600092101A8FFF7F7F98DF810
:106DD0000C00092101A801F023FE0446002C03DA6F
:106DE000214609A0FCF7ACFC092101A8FFF7FAF93C
:106DF00003E00CA0FCF7A4FC00BF00BF204607B0D6
:106E000030BD0000850600204552523A207561725F
:106E100074207772697465206572726F72202564C0
:106E2000200A00004552523A204366674D6F646560
:106E3000206572726F72210A0000000010B50820F0
:106E40000949086000F020F804200749091F08607C
:106E500000F01AF804200449086000F015F8082032
:106E60000149091F086010BD1414014070B50446A3
:106E700000F072F8204600F045F800F095F805465D
:106E800000F082F8284670BD002001E0411CC8B225
:106E90000A28FBDB7047000010B50820074908608E
:106EA000FFF7F2FF042005490860FFF7EDFF04201B
:106EB0000249091D0860FFF7E7FF10BD10140140EB
:106EC00070B50024002516E06006040E04200C496D
:106ED0000860FFF7D9FF0A480838006800F008008A
:106EE00008B1601CC4B204200549091D0860FFF701
:106EF000CBFF681CC5B2082DE6DB204670BD000044
:106F00001014014070B50446002520E004F0800014
:106F100018B108200F49086003E008200D49091D39
:106F20000860FFF7B1FF04200A490860FFF7ACFFD3
:106F300004200849091D0860072D02D10820091FF7
:106F400008606006040EFFF79FFF681CC5B2082D9D
:106F5000DCDB70BD1014014010B508200949086041
:106F600004200860FFF790FF08200649091D08600B
:106F7000FFF78AFF04200349091D0860FFF784FF1B
:106F800010BD00001014014010B50820054908602C
:106F90000420091F0860FFF777FF08200149091F37
:106FA000086010BD1414014010B508200C49086099
:106FB000FFF76AFF04200A490860FFF765FF0848E9
:106FC0000838006800F0080008B1012400E000243F
:106FD00004200349091D0860FFF756FF204610BD35
:106FE0001014014008B5FAF7B5FC7AA0FCF7A8FB2D
:106FF000F9F7FBFE7DA0FCF7A3FB834878231A4634
:10700000002100900846FBF765FB4FF6FF704FF438
:1070100078437EA2782100902020FBF7F7FB4FF603
:10702000FF704FF478437AA2782100903020FBF76C
:10703000EDFB4FF6FF704FF4784376A27821009075
:107040004020FBF7E3FB4FF6FF704FF4784372A24A
:10705000782100905020FBF7D9FB4FF6FF704FF6D8
:107060001F036EA28C2100900020FBF701FE49F661
:107070004040FDF725FD4FF6FF70FAF77DFE362004
:10708000FBF70EF8A820FAF7F7FF01F023FCFDF755
:10709000B9FD9EE0FBF7DAF901F0EEFC6348FFF77B
:1070A000CBFB0020FAF74CFD05460120FAF788FDDE
:1070B0000446022D05D15EA0FCF742FB0220FFF73B
:1070C00079FD072C06D0082C08D0092C0AD00A2CF0
:1070D00010D10BE001205D4908700BE001205C49F4
:1070E000087007E001205B49087003E001205A495D
:1070F000087000BF00BF55480078012812D15448DD
:10710000007878B95348007860B95348007848B996
:107110004FF6FF70FAF749FE012050490870002031
:107120004A4908704D480078012801D1FBF7CAFD93
:1071300046480078A0B946480078012810D1454853
:10714000007868B94448007850B94FF6FF70FAF7F4
:107150002CFEFAF7FFFF0020404908703C490870F8
:107160003A480078A0B93A48007888B93948007898
:1071700001280DD13848007850B94FF6FF70FAF762
:1071800014FEFBF721FA00203449087031490870D9
:107190002E480078A0B92E48007888B92D4800788C
:1071A00070B92D48007801280AD14FF6FF70FAF720
:1071B000FCFD01F08FFB002028490870264908706B
:1071C00027480078012804D1FDF7F2FD002024496A
:1071D00008705FE7D3B2BCFEB3F5CABCBBAF090908
:1071E000095B4F4B5D200D0A00000000544654CF50
:1071F000D4CABEB0F6B2BAD1A7D4BA0909095B4F56
:107200004B5D200D0A00000008B60008B0F6000033
:10721000B2BA0000D1A70000D4BA00003230323236
:107220002D42792D575A58204242550074060020AD
:1072300057494649BDF8C8EB4169724C696E6BC14C
:10724000ACBDD3C4A3CABD0D0A0000001B000020C2
:107250001C0000201D0000201E0000201F00002038
:1072600021000020012080F3138800BF00BF0748E1
:10727000006800F4E06006490843001D0349086007
:10728000BFF34F8F00BF00BFFEE700000CED00E032
:107290000000FA0570B5044604B970BD0448806862
:1072A000251A2946002000F017F800BFF5E7000076
:1072B000A800002070B504462146002000F064F8C4
:1072C0000546681C08B9002070BD02488068284443
:1072D000FAE70000A80000202DE9F04104460E4620
:1072E0001548005D38B914481838016820468847A9
:1072F0000120BDE8F081114850F82400B04219D9AE
:107300000F4850F82400B6FBF0F10B48083850F84D
:10731000240030F81120002508E000230648083832
:1073200050F824004F1920F817306D1C9542F4DBFB
:107330000020DEE70220DCE7C0000020B8250108BD
:10734000B025010810B504460C4951F824104A0034
:107350000B4951F82400002100F0B0F8094951F818
:1073600024200749083951F82400002100F0A6F82C
:10737000012103480830015510BD0000A82501086F
:10738000B8000020B82501082DE9F04704460F4653
:107390000025A9462348005D20B922481838016815
:1073A000204688471FB94FF0FF30BDE8F0871E48E0
:1073B00050F82400B7FBF0F61B4850F82400B7FB48
:1073C000F0F100FB117000B1761C184850F8240051
:1073D000451E22E01348083850F8240030F8150004
:1073E00010B909F1010901E04FF00009B14513D1CD
:1073F0004FF0000809E00B48083850F8240005EB6E
:10740000080220F8126008F10108B045F3D30648DD
:1074100050F824006843C8E76D1E002DDADA4FF0FB
:10742000FF30C2E7C0000020B0250108A8250108F0
:1074300010B501460023002207E00B4850F8210058
:1074400030F8120000B15B1C521C084850F82100B3
:107450009042F2D864205843044C54F82140B0FBC9
:10746000F4F0C0B210BD0000B8000020A82501084B
:1074700070B505460C4604B970BD054850F82500A6
:10748000261A31462846FFF727FF00BFF4E7000021
:10749000B000002070B504460E4631462046FFF786
:1074A00073FF0546681C08B9002070BD024850F8FB
:1074B00024002844F9E70000B000002030B503465E
:1074C00001E003F8011B141EA2F10102F9D130BD45
:1074D0002DE9F04705460C4620785B2804D0264865
:1074E00004600020BDE8F0870520E860601C01F022
:1074F000C2F9044620785D2801D1601CF2E7FDF74F
:10750000AFF80646A860A86808B90020EAE7204658
:1075100001F0B1F980464146304600F007FB0746CE
:1075200001F0A9F904460CB90020DBE717E0FDF7EC
:1075300097F8071E00D1D5E737607E603E46601C95
:1075400001F099F981464946304600F0EFFA80464D
:1075500001F091F904460CB90020C3E700BF207880
:107560002C28E4D020785D2801D1601CBAE70248BD
:1075700004600020B6E700009000002001460022D1
:107580000878302806DB0878392803DC087830389A
:10759000024415E00878412806DB0878462803DC19
:1075A0000878373802440BE00878612806DB087851
:1075B000662803DC08785738024401E00020704751
:1075C0001201491C0878302806DB0878392803DCCA
:1075D00008783038024415E00878412806DB08783E
:1075E000462803DC0878373802440BE00878612825
:1075F00006DB0878662803DC08785738024401E087
:107600000020DCE71201491C0878302806DB0878E6
:10761000392803DC08783038024415E0087841281E
:1076200006DB0878462803DC0878373802440BE08C
:107630000878612806DB0878662803DC0878573864
:10764000024401E00020BAE71201491C0878302802
:1076500006DB0878392803DC08783038024415E066
:107660000878412806DB0878462803DC0878373894
:1076700002440BE00878612806DB0878662803DC02
:1076800008785738024401E0002098E7104696E752
:107690002DE9F04F8BB083468A460020044605460C
:1076A0000026674F002188468946099001200890EE
:1076B0009AF800002D2802D1624F0AF1010A9AF8C7
:1076C0000000302801D10AF1010A9AF8000031289F
:1076D00022DB9AF8000039281EDC00BF1AF8011BD3
:1076E000A1F13000F9F71AF80022574BCDE9060155
:1076F00020462946F8F72CFFCDE90401DDE90623F1
:10770000F8F77FFE04460D469AF80000302803DBA8
:107710009AF800003928E1DD9AF800002E2830D1CF
:107720009AF8010030282CDB9AF80100392828DC6F
:107730000AF1010A00BF1AF8011BA1F13000F8F7A5
:10774000EDFF0022404BCDE9060120462946F8F71F
:10775000FFFECDE90401DDE90623F8F752FE0446F9
:107760000D460022364B40464946F8F7EBFE804670
:1077700089469AF80000302803DB9AF8000039287F
:10778000D9DD9AF80000652803D09AF80000452852
:1077900023D10AF1010A9AF800002B2802D10AF13C
:1077A000010A08E09AF800002D2804D14FF0FF30BC
:1077B00008900AF1010A08E01AF8010B303809991B
:1077C00001EB810100EB410009909AF8000030289C
:1077D00003DB9AF800003928EEDDDDE9082101FB22
:1077E00002F0F8F79BFF42464B46CDE90001F8F75F
:1077F00008FE02460B46CDE902010020124900F0C6
:10780000F3F922462B46CDE9060130463946F8F712
:107810009FFECDE90401DDE90623F8F799FE044651
:107820000D46CBE9064520462946F8F7A9FFCBF8D7
:1078300014000320CBF80C0050460BB0BDE8F08FCD
:107840000000F03F0000F0BF000024402DE9F047A9
:1078500006460C4620787B2804D04048046000206F
:10786000BDE8F0870620F060601C01F004F80446D3
:1078700020787D2801D1601CF2E7FCF7F1FE054677
:10788000B060B06808B90020EAE7204600F0F3FFD6
:1078900080464146284600F063F8074600F0EBFFBB
:1078A00004460CB90020DBE7286928620020286123
:1078B00020783A2803D0294804600020D0E7601CD3
:1078C00000F0D9FF80464146284600F02FF90746D0
:1078D00000F0D1FF04460CB90020C1E731E0FCF70D
:1078E000BFFE071E00D1BBE72F607D603D46601CD8
:1078F00000F0C1FF81464946284600F031F8804635
:1079000000F0B9FF04460CB90020A9E728692862F5
:107910000020286120783A2803D010480460002015
:107920009EE7601C00F0A7FF81464946284600F00C
:10793000FDF8804600F09FFF04460CB900208FE759
:1079400000BF20782C28CAD020787D2801D1601C67
:1079500086E702480460002082E7000090000020D3
:107960002DE9F05F8346884608F10104002798F866
:107970000000222805D06A48C0F800800020BDE839
:10798000F09F04E014F8011B5C2900D1641C2078EE
:10799000222804D0207810B1781C071EF2D1781C60
:1079A0006049096888478146B9F1000F01D100207C
:1079B000E5E708F101044D469EE020785C2804D0FC
:1079C00014F8010B05F8010B96E0641C207872286E
:1079D00018D006DC622809D066280BD06E287DD12D
:1079E0000CE0742812D07528F9D113E0082005F8AE
:1079F000010B7FE00C2005F8010B7BE00A2005F865
:107A0000010B77E00D2005F8010B73E0092005F864
:107A1000010B6FE0601CFFF7B1FD0646241DB6F5B3
:107A20005C4F02D3B6F5604F00D306B962E0B6F5FD
:107A3000584F1CD3B6F55C4F19D260785C2802D140
:107A4000A078752800D055E0E01CFFF797FD82462E
:107A5000A41DBAF55C4F02D3BAF5604F00D349E0DC
:107A6000C6F30901504661F39F2000F580360427D4
:107A7000802E01D2012708E0B6F5006F01D202275F
:107A800003E0B6F5803F00D203273D44012F20D00C
:107A9000022F15D0032F0AD0042F24D106F0BF00E7
:107AA00040F08001681E05460170B60900BF06F06F
:107AB000BF0040F08001681E05460170B60900BF96
:107AC00006F0BF0040F08001681E05460170B6094F
:107AD00000BF1548C05D3043C1B200E006E0681E3B
:107AE0000546017000BF00BF3D4403E0207805F863
:107AF000010B00BF00BF641C2078222803D020782F
:107B000000287FF45AAF002028702078222800D166
:107B1000641CCBF810900420CBF80C0020462EE714
:107B20009000002094000020A025010870B50546B3
:107B30000C460CB9002070BD042224A12046F8F7A1
:107B400089FB18B90220E860201DF4E7052221A175
:107B50002046F8F77FFB18B90020E860601DEAE7CF
:107B600004221EA12046F8F775FB20B90120E86029
:107B70006861201DDFE72078222804D121462846AD
:107B8000FFF7EEFED7E720782D2805D020783028A3
:107B900007DB2078392804DC21462846FFF778FDEA
:107BA000C9E720785B2804D121462846FFF790FCDE
:107BB000C1E720787B2804D121462846FFF746FEFE
:107BC000B9E7084804600020B5E700006E756C6CEA
:107BD0000000000066616C736500000074727565DA
:107BE00000000000900000202DE9F04D1D460C46DD
:107BF00098B0174621F0004123F00043002814BF3D
:107C00004FF0010C4FF0000C0CEB440CFE4A0CEB57
:107C100002064FEA620C66452BD33E0018BF0126D0
:107C200006EB45061644F94A964222D3F84A53EA2F
:107C3000070C02D0944205D148B918B00020114673
:107C4000BDE8F08D002808BF4FF0000C01D04FF0C8
:107C5000010C0CEB440212F5001F0AD8002F14BFD0
:107C60004FF0010C4FF0000C0CEB450212F5001F19
:107C700007D918B03A462B462146BDE8F04DFBF730
:107C800007BE0022DFF88CA3002CB8BF534526DACC
:107C9000DFF884C36345A8BF022220DADFF870C38F
:107CA0009C451CDCDFF874C30CEB235CBCF1140FA7
:107CB00008DDCCF1340627FA06FC0CFA06F6BE42C3
:107CC0000DD108E05FB9CCF1140623FA06FC0CFADA
:107CD00006F69E4203D10CF00102C2F1020251EA03
:107CE000000C19D1002D17DA002C18BF022A01D080
:107CF000012A07D00220FBF7F3FD18B0BDE8F04DD4
:107D0000FBF7BEBD0220FBF7EBFDFBF7B9FD18B09A
:107D100081F00041BDE8F08DB7F1000C6CD1534506
:107D200025D104F1804212F5801201BF0028002005
:107D3000B74918B008BFBDE8F08DB548884207DCE8
:107D4000002DA1BF6046294618B0BDE8F08D07E0C0
:107D5000281E05DA80F0004118B06046BDE8F08DBD
:107D6000AF497944D1E9000118B0BDE8F08DDFF8E2
:107D7000A0C2634525D1002D1FDA19B1514512D19A
:107D8000D8B909E0002840F0EC82A24A214618B098
:107D900062F31E01BDE8F08D0020214618B060F3AB
:107DA0001E01BDE8F08D08DA18B02346BDE8F04D9D
:107DB000024600206146F8F73DBC18B02146BDE8F8
:107DC000F08D514518DAB5F1804F0DD0A5F1005C6A
:107DD000BCF1FF5C10D1B4F1000C0DDB18B06146B2
:107DE000BDE8F04D00F050BD234618B00246BDE896
:107DF000F04D1946F8F7ACBB060024F0004C3BD11F
:107E0000D9B1514533D1002C06DD002DA1BF002092
:107E1000514618B0BDE8F08D002C01DD002D1BDBB4
:107E2000002C13DA002D11DB012A4FF0000014BFE3
:107E300078497C4918B0BDE8F08D022A18BF002CA3
:107E40000AD0012A08D1002C06DA0AE0002CB8BFBB
:107E5000002D11DA012A04D0002018B00146BDE837
:107E6000F08D18B000204FF00041BDE8F08DA1F179
:107E70004050B0F17F601AD0012000EBE47050EA6E
:107E8000020421D0624C521E4FF0000B104304BF7D
:107E90004FF0000B644C654883427CDD644A6548C2
:107EA00093421FDD884217DB002D25DB37E0002CD5
:107EB00000DA4AB1022A0CBF01204FF0FF3018B09F
:107EC000BDE8F04DF8F72ABC0120FBF709FD18B01A
:107ED000BDE8F04DFBF7DEBC4D4A8A4202DC002DC6
:107EE0000ADC1CE0814202DA002D18DA04E0484B7B
:107EF000994220DD002D12DD0220FBF7F1FCFBF79B
:107F0000CFFC05460E460022534658462146F8F758
:107F10001FFB18B066F31E012846BDE8F08D022055
:107F2000FBF7DEFCFBF7C4FC0A46214618B062F3FF
:107F30001E01BDE8F08D002230466146F8F702FBD5
:107F400080460E466FF00102F8F7D2FD4FF0553231
:107F5000394BF8F7FAFA42463346F8F7F9FA0022B5
:107F6000364BF8F7F2FA8246424633460491104601
:107F70001946F8F7EDFA5246049BF8F7E9FA8A46F3
:107F800000904FF0C0422E4B40463146F8F7E0FAE1
:107F90002C4A2B4B00E027E0CDE906015146009822
:107FA000F8F7D6FA82460191274A284B40463146D7
:107FB000F8F7CEFA5246019BF8F7C4FA82460B4610
:107FC00002460591DDE90601F8F71BFADDE9062313
:107FD000002688463046F8F7B5FA5246059BF8F772
:107FE000B4FA024600F07EB90020B1F5801F07DA2E
:107FF000352230466146F8F77BFD06466FF03400C7
:1080000000EB215024E00000FFFF1F00FFFF0F00E6
:108010000000F03F0000F07F0000404301FCFFFF44
:10802000E2A800000000F0FF0000F0BF0000E04107
:108030000000F043FFFFEF3F5555D53F0000E03F04
:108040004715F73FFE822B6544DF5DF80BAE543ECB
:10805000A0F2FF300190C1F3130040F07F6141F0C6
:1080600040510291FE498842D8BF002004DDFD49FD
:108070008142C8BF012001DD0D9008E000200D9075
:108080000198401C01900298A0F58010029002997E
:10809000F54878440B910D9900EBC100D0E900231D
:1080A0000F9330460A920B99F8F74CFACDE9060186
:1080B000DDE90A2130460F9BF8F7A3F902460B468B
:1080C0000020EA49F8F7B6FA059102460B460090FF
:1080D000DDE90601F8F73CFA1490E5488A464FF0CE
:1080E000000878440299006812904FF0005040EA6E
:1080F00061010D980F9B01EB804000F50021099173
:108100000A9A1298F8F71EFA32460B9BF8F71DFAF6
:1081100042465346F8F71CFA06460291404651463D
:10812000099B129AF8F714FADDE90623F8F70DFA1D
:108130003246029BF8F706FA059B009AF8F708FA10
:108140000091149A0490534610461946F8F700FA25
:1081500006460246C7480B46029106217844FBF7C3
:1081600039FBCDE90510029B324610461946F8F757
:10817000EFF9DDE90532F8F7EBF9059106465346CC
:1081800040461946149AF8F73CF9009B049AF8F710
:10819000DFF93246059BF8F734F9CDE90510424680
:1081A000534610461946F8F7D3F90022B24B029114
:1081B0000A90F8F726F9DDE90532F8F722F90E46BC
:1081C0004246AD4B4046F8F7BDF9029B0A9AF8F7D4
:1081D000B9F9DDE90532F8F7B8F9424602910A909B
:1081E000334610465146F8F7B3F9CDE90601534638
:1081F000149A02990A98F8F7ABF98A460290334626
:10820000424600990498F8F7A3F95346029AF8F702
:10821000F8F882460B4602460591DDE90601F8F7BB
:10822000F0F8DDE90623002088460646F8F78AF9CB
:108230005246059BF8F789F9824609914FF0604252
:108240008E4B30464146F8F783F9049006918C4AEC
:108250008A4B50460999F8F77BF982460291894A80
:10826000894B30464146F8F773F95246029BF8F7BE
:10827000C8F8864B7B440D9A03EBC203D3E9002375
:10828000F8F7BFF80E9007910198F8F747FA0591B3
:10829000DDE9061382460E9A0498F8F7B2F87C4A94
:1082A0007A440D9B02EBC303D3E9002300930292AF
:1082B000F8F7A7F85246059BF8F7A3F8002688467A
:1082C00052463046059BF8F73DF9009B029AF8F7B5
:1082D00039F9069B049AF8F735F9079B0E9AF8F7D7
:1082E00034F9024600200B46029038462946F8F73A
:1082F0002FF9824601912B4638461946029AF8F723
:1083000021F932464346F8F723F95246019BF8F724
:1083100078F807468A463246434629460298F8F7D7
:1083200017F905460E463A465346F8F76AF8594A91
:108330008846914221DBA8EB020353EA000210D1E8
:108340002A463346F8F7FEF8CDE90401524A534B6A
:1083500038465146F8F755F8DDE90423F8F774FA82
:1083600021D20220FBF7BCFAFBF79AFA0A46214613
:1083700018B062F31E01BDE8F08D494B28F00042B1
:108380009A4210D3474A08EB020353EA00027FF4F3
:10839000C6AD2A463346F8F7D5F83A465346F8F7BD
:1083A00053FA7FF6BCAD0022019228F000403E490E
:1083B0003E4A01EB2051824223DA481C4FF48011DF
:1083C00021FA00F040443A4AC0F30A517A44394B4A
:1083D000A1F2FF31CB4020EA0303C0F3130040F4C5
:1083E0008010C1F11401C84012680190B8F1000F6B
:1083F000BCBF4042019028463146F8F7A3F8054635
:108400000E462A46334638465146F7F7FAFF4FF0F4
:1084100000084246284B40460591F8F799F8CDE907
:108420000601264A264B40460599F8F791F8009137
:1084300002902A46334640460599F8F783F83A46B3
:108440005346F8F782F81F4A1F4BF8F781F8009B54
:10845000029AF7F7D6FF0746884602460B4635E0F4
:108460008E9803007AB60B002AA500000000F03FAA
:1084700062A5000090A400000000084009C7EE3F7C
:10848000FD033ADCF5015B14E02F3EBE68A300005B
:108490002CA3000000009040FE822B654715973CFE
:1084A00000CC904000346F3F01FCFFFF0000E03F34
:1084B00078A20000FFFF0F00432EE63F396CA80CA6
:1084C000615C20BEEF39FAFE422EE63FDDE906018F
:1084D000F7F797FFDDE9062305460E46F8F732F871
:1084E0003A464346F8F731F80F462A46334600909D
:1084F00010461946F8F72CF8824602462E48884660
:108500000B4605217844FBF765F952464346F8F7D8
:108510001FF82A463346F8F718F880468A463B4645
:1085200028463146009AF8F713F83B46009AF7F7C9
:1085300068FF0691009000224FF08043404651466C
:10854000F8F700F80F460C9042465346284631464D
:10855000F7F7FEFF3B460C9AF8F76CF8069B009A7B
:10856000F7F7F0FF2A463346F7F7ECFF0022134BEC
:10857000F7F7EBFF054601980E4601EB0051081591
:10858000002810DC28463146019AF8F7B1FAFBF7CB
:108590000DF9042808BFFBF78BF928463146019AEC
:1085A000F8F7A6FA05460B4618B02A465846214663
:1085B000BDE8F04DF7F7CCBF18A100000000F03F78
:1085C0002DE9F05F0446894600210D460E468A4695
:1085D0003749384A127851F822000021F8F768F933
:1085E00013D13349334A1278206841F822002068B9
:1085F000C9F800002F480078401CC0B22D4908700F
:10860000052853DB0020087050E02A48007850B15C
:10861000284A1278521E264B53F822102068F7F78A
:108620007AFE834605E0224A11692068F7F773FE57
:1086300083465846F8F7DCF821F0004107464FF032
:1086400020421D4BF8F7E8F80FD21949194A127861
:10865000206841F8220017480078401CC0B2154934
:108660000870052801DB002008704FF0000A0FE0B9
:108670000F4951F82A00F8F7BBF807462A46334657
:10868000F7F7BFFE05460E460AF1010000F0FF0AAB
:10869000BAF1050FECDB0022084B28463146F7F70C
:1086A000C9FF0746F8F7E8F8C9F80000BDE8F09FF1
:1086B000E8000020500000209999B93F00001440C4
:1086C00000B5024612B94FF0FF3000BD5068916806
:1086D000884201D10020F8E750689168884203D2AF
:1086E00090685168401AF0E7104600F014F851689D
:1086F0009368C91A401AE8E730B5044614B94FF038
:10870000FF3030BD204600F006F805462046FFF752
:10871000D7FF281AF5E7014611B94FF0FF3070472F
:108720000868FCE7014611B94FF0FF307047C86890
:108730004860C86888600020F8E72DE9F0410446E9
:108740000F461646002514B9681EBDE8F08117B91A
:108750004FF0FF30F9E76068A168884214D22046E4
:10876000FFF7AEFFB04201D9304602E02046FFF7E6
:10877000A7FF054661682A463846F7F72EFD606870
:10878000284460602846E0E72046FFF7C4FF6168A0
:10879000E268891A401AB0420AD9354661682A4609
:1087A0003846F7F71AFD6068284460602846CCE731
:1087B0002046FFF7B0FF6168E268891A451A6168D0
:1087C0002A463846F7F709FDE0686060721B7919A0
:1087D0002046FFF7B2FF05442846B6E72DE9F041F1
:1087E00004460F461546002604B11FB94FF0FF306E
:1087F000BDE8F0812046FFF77FFFA84202D86FF066
:108800000100F5E76068A16888422AD82046FFF792
:1088100082FFA168E268891A461AB54213D8A06897
:108820002A463946F7F7D9FCA0682844A0602046BC
:10883000FFF771FFE1680844A168884201D1E06850
:10884000A0602846D4E7A06832463946F7F7C5FC51
:10885000E068A060AA1BB9192046FFF7BFFF3044AB
:10886000C6E7A0682A463946F7F7B7FCA06828444F
:10887000A0602846BCE700E0401C20B1017811B19F
:1088800001782029F8DD70472DE9F04106460F46B2
:10889000F8F770F9041E0D4618BF0120284320F098
:1088A0000040C0F17F6000F1E040C00F0ED0301CEE
:1088B00018BF0120384320F00040C0F17F6000F174
:1088C000E040C00F04BF0120FBF70AF8204629460C
:1088D000BDE8F08108B54FF6FF701F2316A20021F6
:1088E00000900820FAF7C4F94FF6FF704FF4784370
:1088F00016A2142100900846FAF7BAF94FF6FF7055
:108900004FF4784316A2282100901420FAF7B0F90A
:108910004FF6FF704FF4784316A23C2100901420CC
:10892000FAF7A6F918A0FAF70BFF1DA0FAF708FF4F
:1089300021A0FAF705FF08BD2D3E53797374656DCC
:108940005F446973706C61793C2D0000312E5B537C
:10895000656E736F724D6573736167655D000000CE
:10896000322E5B4E6574776F726B4D657373616702
:10897000655D0000332E5B53797374656D4D6573CF
:10898000736167655D0000002D2D2DA1B7312EBBF1
:10899000B7BEB3BCE0B2E2D0C5CFA220200D0A0022
:1089A0002D2D2DA1B7322ECDF8C2E7D7B4CCACD047
:1089B000C5CFA220200D0A002D2D2DA1B7332ECF1B
:1089C000B5CDB3CFE0B9D8D0C5CFA220200D0A00D5
:1089D0000FB438B505A800900F48009A0499FAF72B
:1089E000D3FE002000900C48F7F72DFC85B2002440
:1089F0000DE000BF40210948FAF7CDFD0028F9D06D
:108A00000548015D0548FAF794FE601C84B2AC424B
:108A1000EFDB38BC5DF814FB1C0400200044004070
:108A200070B505460E4600240DB9601E70BD0024C9
:108A30001BE0295D0F48FAF77CFE00BF40210D487E
:108A4000FAF7A9FD0028F9D0022C0DD3285DFF28E4
:108A50000AD155210748FAF76CFE00BF40210548AE
:108A6000FAF799FD0028F9D0641CB442E1D33046EE
:108A7000DCE70000004800400D4800680D49C1F8DF
:108A800001000D480068C1F805000C480088C1F8D5
:108A900009000B480068C1F80D000A48006810B9C9
:108AA0000020087002E001200249087070470000B1
:108AB00000000020740600200400002018000020A0
:108AC000140000209401244210B511210148F7F749
:108AD0009DFB10BD74060020200000000000002156
:108AE0000000002F000022000007000700230014F0
:108AF0007F147F142400242A7F2A12250062640830
:108B00001323260036495522502700000503000094
:108B10002800001C22410029000041221C002A00DC
:108B200014083E08142B0008083E08082C0000001A
:108B3000A060002D0008080808082E0000606000F2
:108B4000002F00201008040230003E5149453E31FC
:108B50000000427F4000320042615149463300210B
:108B600041454B3134001814127F1035002745451C
:108B7000453936003C4A494930370001710905033F
:108B8000380036494949363900064949291E3A0014
:108B900000363600003B0000563600003C0008144A
:108BA0002241003D0014141414143E00004122140C
:108BB000083F0002015109064000324959513E4127
:108BC000007C1211127C42007F4949493643003E25
:108BD0004141412244007F4141221C45007F4949D7
:108BE000494146007F0909090147003E4149497A48
:108BF00048007F0808087F490000417F41004A0083
:108C00002040413F014B007F081422414C007F402F
:108C10004040404D007F020C027F4E007F04081050
:108C20007F4F003E4141413E50007F0909090651F6
:108C3000003E4151215E52007F09192946530046EA
:108C400049494931540001017F010155003F40402D
:108C5000403F56001F2040201F57003F4038403FF4
:108C600058006314081463590007087008075A0075
:108C700061514945435B00007F4141005D00004177
:108C8000417F005E0004020102045F00404040405A
:108C900040600000010204006100205454547862D6
:108CA000007F48444438630038444444206400381A
:108CB0004444487F650038545454186600087E09BF
:108CC0000102670018A4A4A47C68007F080404784B
:108CD000690000447D40006A004080847D006B0094
:108CE0007F102844006C0000417F40006D007C0430
:108CF0001804786E007C080404786F0038444444FB
:108D0000387000FC24242418710018242418FC72E4
:108D1000007C080404087300485454542074000470
:108D20003F44402075003C4040207C76001C2040A1
:108D3000201C77003C4030403C78004428102844F8
:108D400079001CA0A0A07C7A004464544C447C149C
:108D5000141414141420000000000000000000008F
:108D6000000000000000210000183C3C3C181818CE
:108D7000001818000000002200666666240000004B
:108D80000000000000000000230000006C6CFE6C7E
:108D90006C6CFE6C6C000000002418187CC6C2C00D
:108DA0007C0686C67C18180000002500000000C262
:108DB000C60C183060C68600000000260000386C23
:108DC0006C3876DCCCCCCC7600000000270030304C
:108DD00030600000000000000000000000280000DB
:108DE0000C18303030303030180C000000002900F2
:108DF0000030180C0C0C0C0C0C1830000000002A71
:108E00000000000000663CFF3C660000000000001F
:108E10002B000000000018187E1818000000000049
:108E2000002C00000000000000000018181830009E
:108E300000002D00000000000000FE000000000007
:108E40000000002E000000000000000000001818C4
:108E5000000000002F0000000002060C183060C067
:108E600080000000003000007CC6C6CED6D6E6C624
:108E7000C67C000000003100001838781818181857
:108E800018187E000000003200007CC6060C183066
:108E900060C0C6FE000000003300007CC606063C31
:108EA000060606C67C000000003400000C1C3C6C6A
:108EB000CCFE0C0C0C1E00000000350000FEC0C0F3
:108EC000C0FC0E0606C67C000000003600003860BC
:108ED000C0C0FCC6C6C6C67C00000000370000FE4D
:108EE000C606060C18303030300000000038000094
:108EF0007CC6C6C67CC6C6C6C67C0000000039005B
:108F0000007CC6C6C67E0606060C78000000003A45
:108F100000000000181800000018180000000000F1
:108F20003B00000000181800000018183000000076
:108F3000003C000000060C18306030180C060000E1
:108F400000003D000000000000FE0000FE000000E8
:108F50000000003E0000006030180C060C18306065
:108F6000000000003F00007CC6C60C18181800184E
:108F70001800000000400000007CC6C6DEDEDEDC1B
:108F8000C07C0000000041000010386CC6C6FEC660
:108F9000C6C6C600000000420000FC6666667C662D
:108FA000666666FC000000004300003C66C2C0C06C
:108FB000C0C0C2663C00000000440000F86C666659
:108FC000666666666CF800000000450000FE66629A
:108FD000687868606266FE00000000460000FE6679
:108FE00062687868606060F0000000004700003C44
:108FF00066C2C0C0DEC6C6663A0000000048000077
:10900000C6C6C6C6FEC6C6C6C6C600000000490023
:10901000003C18181818181818183C000000004ACE
:1090200000001E0C0C0C0C0CCCCCCC78000000000A
:109030004B0000E6666C6C78786C6666E6000000B3
:10904000004C0000F06060606060606266FE0000DE
:1090500000004D0000C6EEFEFED6C6C6C6C6C6005F
:109060000000004E0000C6E6F6FEDECEC6C6C6C64E
:10907000000000004F0000386CC6C6C6C6C6C66CED
:109080003800000000500000FC6666667C6060608E
:1090900060F0000000005100007CC6C6C6C6C6C60F
:1090A000D6DE7C0C0E0000520000FC6666667C6C0E
:1090B000666666E6000000005300007CC6C66038A5
:1090C0000C06C6C67C000000005400007E7E5A18C4
:1090D00018181818183C00000000550000C6C6C635
:1090E000C6C6C6C6C6C67C00000000560000C6C67E
:1090F000C6C6C6C6C66C381000000000570000C6C1
:10910000C6C6C6C6D6D6FE6C6C000000005800006D
:10911000C6C66C6C38386C6CC6C6000000005900BE
:1091200000666666663C181818183C000000005A75
:109130000000FEC6860C183060C2C6FE00000000AB
:109140005B00003C30303030303030303C000000CC
:10915000005C00000080C0E070381C0E06020000B9
:1091600000005D00003C0C0C0C0C0C0C0C0C3C00CA
:109170000000005E10386CC6000000000000000017
:10918000000000005F000000000000000000000080
:109190000000FF00006030301800000000000000F8
:1091A000000000000000610000000000780C7CCC92
:1091B000CCCC7600000000620000E06060786C6655
:1091C000666666DC000000006300000000007CC6EC
:1091D000C0C0C0C67C000000006400001C0C0C3C39
:1091E0006CCCCCCCCC760000000065000000000008
:1091F0007CC6FEC0C0C67C00000000660000386C63
:109200006460F060606060F00000000067000000D3
:10921000000076CCCCCCCCCC7C0CCC7800680000A8
:10922000E060606C7666666666E6000000006900D5
:10923000001818003818181818183C000000006AA8
:1092400000000606000E06060606060666663C00D8
:109250006B0000E06060666C78786C66E600000089
:10926000006C00003818181818181818183C00005E
:1092700000006D0000000000ECFED6D6D6D6D60069
:109280000000006E0000000000DC66666666666630
:10929000000000006F00000000007CC6C6C6C6C605
:1092A0007C00000000700000000000DC666666665E
:1092B000667C6060F00071000000000076CCCCCCD1
:1092C000CCCC7C0C0C1E00720000000000DC76622E
:1092D000606060F0000000007300000000007CC6C9
:1092E00060380CC67C00000000740000103030FCB8
:1092F00030303030361C00000000750000000000E7
:10930000CCCCCCCCCCCC76000000007600000000A9
:109310000066666666663C18000000007700000084
:109320000000C6C6C6D6D6FE6C000000007800005D
:10933000000000C66C3838386CC6000000007900A8
:1093400000000000C6C6C6C6C6C67E060CF8007A77
:109350000000000000FECC183060C6FE00000000D7
:109360007B00000E18181870181818180E0000004E
:10937000007C000018181818001818181818000099
:1093800000007D0000701818180E181818187000CA
:109390000000007E000076DC0000000000000000FD
:1093A00000000000A1F1000007C00FF01FF83FFC13
:1093B0007FFE7FFE7FFE7FFE7FFE7FFE3FFC3FFC49
:1093C0001FF807E00000A1E6600091F4960C6C0421
:1093D00008041800180018001800180018000800E9
:1093E0000C04060801F00000B0F610201020102038
:1093F0007DFC54205420542055FC7C20502010200B
:1094000017FE1C20E42040200020B2BA102010409B
:1094100011FC110411FCFD0011FC110411FC1020C1
:109420001C20E3FE4020002000200020D1A72208BD
:109430001108111000207FFE400280041FE0004050
:109440000180FFFE01000100010005000200D4BA06
:10945000004078204BFE5202540461F8500048004E
:109460004BFE48906890509041124112420E4400C9
:10947000B5E70200020002007FF0421042107FF0C8
:10948000421042107FF042000208020801F800007A
:109490000000D7D37FF000200040008001000200D0
:1094A000FFF80200020002000200020002000E00AB
:1094B00000000000CCEC00003FF8010001000100BA
:1094C0000100FFFE010002800280044004400820E9
:1094D00010102008C006C6F8100010003FFC200045
:1094E0004FF080003FF0001000100010001000103E
:1094F000000A000A00060002CDEA00300000180051
:10950000001C0010080C1FFFFE1000183000103067
:10951000006027FFF000000000000000000C7FFF4B
:10952000FE00C60000C60000C60000C60000C6045B
:109530000086040186040306060207FE0C03FC30C5
:1095400000002000000000000000000000000000FB
:10955000000000000000000000000000000000000B
:1095600000000000000000000000000000000000FB
:1095700000000000000000000000000000000000EB
:1095800000000000000000000000000000000000DB
:1095900000000000000000000000000000000000CB
:1095A00000000000000000000000000000000000BB
:1095B00000000000000000000000000000000000AB
:1095C000000000000000000000000000000000009B
:1095D000000000000000000000000000000000008B
:1095E000000000000000000000000000000000007B
:1095F0000000000000000000FFFFFFFFFFFFFFFF73
:10960000FFFFFFFFFFFFFFFFFFFFFFFFFFFFFFFF6A
:10961000FFFFFFDFFFDFFFFFFFFFFFFFFFFFFFFF9A
:10962000FFFFFFFFFFFEFFFFFFFFFFFFFFFFFFFF4B
:10963000FFFFFFFFFFFFFFFFFFFFFFFFFFFFFFFF3A
:10964000FFFFFFFFFFFFFFFFFFFFFFFFFFFFFFFF2A
:10965000F7FFF7FFF7FFF7FFFFFFFFFFFFFFFFFF3A
:10966000FFFFFFFFFFFFFFFFFFFFFFFFFFFFFFFF0A
:10967000FFFFFFFFFFFFFFFFFFFEFFFFFFFFFFFFFB
:10968000FFFFFFFFFFFFFFFFFFFFFFFFFFFFEFFFFA
:10969000E7FFB75FB75FD7FFEFFFF7FFFFFFFFFF02
:1096A000FFFFFFFFFFFFFFFFFFFFFFFFFFFFFFFFCA
:1096B000FFFFFFFFFFFFFFFFFFFEFFFFFFFFFFFFBB
:1096C000FFFFFFFFFFFFFFFFFFFEFFFFF7FFE7FFCB
:1096D0006D173C553C554C55C73FEFFFEFFFF7FF6B
:1096E000FFFFFFFFFFFFFFDFFFFFFFFFFFFFFFFFAA
:1096F000FFFFFFFFFFFFFFFFFFFFFFFFFFFFFFFF7A
:10970000FFFFFFFFFFFFFFFFFFFFFFFFEFFF8DFAF0
:1097100044548EFFAF9F65175434D7FFE7FFEFFF28
:10972000EFFFF7FFFFFFFFFFFFFFFFFFFFFFFFFF61
:10973000FFFFFFFFFFFFFFFFFFFFFFFFFFFFFFFF39
:10974000FFFFFFFFFFFFFFFFFFFFF7FFE7FF6D37A3
:109750005D599F9FAF7FAF5F4C55AF7FBF9F8578AF
:109760008557DFBFF7DFFFFFFFFFFFFFFFFFFFFFB3
:10977000FFFFFFFFFFFFFFFFFFFFFFFFFFFFFFFFF9
:10978000FFFFFFFFFFFFFFFFFFFFF7DFE7FF6D5862
:10979000555A5D9B6558AF7F3C35A75FA73F6D3736
:1097A00074F7CF5FF7FFFFDFFFFFFFFFFFFFFFFF54
:1097B000FFFFFFFFFFFFFFFFFFFFFFFFFFFFFFFFB9
:1097C000FFFFFFFFFFFFFFFFFFFFFFFFE7FF6D58FA
:1097D000557B557B5D59AF7F3C56A79FC7FF8E5C7D
:1097E0009E7DDFFFF7FFFFFFFFFFFFFFFFFFFFFF94
:1097F000FFFFFFFFFFFFFFFFFFFFFFFFFFFFFFFF79
:10980000FFFFFFFFFFFFFFFFFFFFFFFFEFFF6D38D1
:10981000557B4D7C5D5BAF7F3C35AF7F9EDF4C342D
:1098200053F3CF7FF7FFFFFFFFFFFFFFFFFFFFFFB8
:10983000FFFFFFFFFFFFFFFFFFFFFFFFFFFFFFFF38
:10984000FFFFFFFFFFFFFFFFFFFFFFFFE7FF6D3998
:10985000557C4D7C5D5BAF7F4456AF7FCFFFB75FDC
:10986000BF7FE7FFF7FFFFFFFFFFFFFFFFFFFFFFE8
:10987000FFFFFFFFFFFFFFFFFFFFFFFFFFFFFFFFF8
:10988000FFFFFFFFFFFFFFFFFFFFF7FFE7FF653968
:10989000557B557C655AAF5F4435AF7F9EDF4C14D6
:1098A0005413BF1EF7FFFFFFFFFFFFFFFFFFFFFF88
:1098B000FFFFFFFFFFFFFFFFFFFFFFFFFFFFFFFFB8
:1098C000FFFFFFFFFFFFFFFFFFFFF7FFDFFF655910
:1098D000557B557C655AAF7F3C36AF9FCFFFB77F36
:1098E000B77FDFFFF7FFFFFFFFFFFFFFFFFFFFFF78
:1098F000FFFFFFFFFFFFFFFFFFFFFFFFFFFFFFFF78
:10990000FFFFFFFFFFFFFFFFFFFFF7FFE7FF6539E7
:10991000557B4D7C5D5AA77F34369F7F8EBF4C555B
:109920004413C79FF7FFFFFFFFFFFFFFFFFFFFFF8E
:10993000FFFFFFFFFFFFFFFFFFFFFFFFFFFFFFFF37
:10994000FFFFFFFFFFFFFFFFFFFFF7FFE7FF6D399F
:10995000557B4D7B5D5AA77F3C76A79FBFFF969EA8
:10996000969EDFFFF7FFFFFFFFFFFFFFFFFFFFFFF9
:10997000FFFFFFFFFFFFFFFFFFFFFFFFFFFFFFFFF7
:10998000FFFFFFFFFFFFFFFFFFFFF7FFE7FF6D3860
:109990005D7B557B5D59A77F3C35A79F9F1F547604
:1099A0005C95CF9FFFFFFFDFFFFFFFFFFFFFFFFF84
:1099B000FFFFFFFFFFFFFFFFFFFFFFFFFFFFFFFFB7
:1099C000FFFFFFFFFFFFFFFFFFFFF7FFE7FF6D3820
:1099D0005D5A5D5A6559AF7F3C55A77FBF9F9E3B3F
:1099E0009E3BDFBFFFFFFFFFFFFFFFFFFFFFFFFF0C
:1099F000FFFFFFFFFFFFFFFFFFFFFFFFFFFFFFFF77
:109A0000FFFFFFFFFFFFFFFFFFFFF7FFE7FF6D38DF
:109A1000653A6D9B7558B77F3C35AF7FE7FFF7FF21
:109A2000F7FFFFFFFFFFFFFFFFDFFFFFFFFFFFFF6E
:109A3000FFFFFFFFFFFFFFFFFFFFFFFFFFFFFFFF36
:109A4000FFFFFFFFFFFFFFFFFFFFF7FFDFFF54B741
:109A500075BBC7FFD7FFC75F4414B79FE7FFF7FF8A
:109A6000F7FFEFFFF7FFF7FFFFFFFFFFFFFFFFFF2E
:109A7000FFFFFFFFFFFFFFFFFFFFFFFFFFFFFFFFF6
:109A8000FFFFFFFFFFFFFFFFFFFFEFFF75DB3C5610
:109A9000AF3FDFFFE7FFE7FFBFBFBFDFBF7FDFFFF6
:109AA000DFFFBF7FCFDFE7FFF7FFF7FFFFFFFFFF1E
:109AB000FFFFFFDFFFDFFFFFFFFFFFFFFFFFFFFFF6
:109AC000FFFFFFFFFFFFFFFFEFFF85B93C557E7EE5
:109AD000C7FF963A9DD8E7FFB77F4C3464B65C5415
:109AE0005C745C954C14B71FF7FFFFFFFFFFF7FF97
:109AF000FFFFFFFFFFFFFFFFFFFFFFFFFFFFFFFF76
:109B0000FFFFFFFFFFFFEFFFAF5F3C76867DA77F84
:109B100044B744356CB5DFFF863D6D7ADFFFC71E65
:109B2000C71EE7FF757A8DFCF7FFFFFFFFFFFFFF02
:109B3000FFFFFFFFFFFFFFFFFFFFFFFFFFFFFFFF35
:109B4000FFFFFFFFFFFFEFFF65BB44F9C7FF4C7549
:109B500054F8C7FFDFFFCFDF5CD79EDFCFFFB6FE35
:109B6000DFDFDFFFA6DF5455DFBFF7FFFFDFFFFFBB
:109B7000FFFFFFFFFFDFFFDFFFFFFFFFFFFFFFDF55
:109B8000FFFFFFFFFFFFEFFF4497663FA7BF44556E
:109B9000AEDEDFFFCFFF54758599DFFF5CF854D749
:109BA0004C75D7FFDFFF8DB95475C7BFEFFFFFFFBF
:109BB000FFFFFFFFFFFFFFFFFFFFFFFFFFDFFFDFF5
:109BC000FFFFFFFFFFFFEFFF3C35769F9F7F443491
:109BD000B6FEDFFFAF7F4435D7FFBF7F3C55C7FFE1
:109BE0005D18B75FE7FFD7FF4C33B77FEFFFFFFF8D
:109BF000FFFFFFFFFFFFFFFFFFFFFFFFFFFFFFFF75
:109C0000FFFFFFFFFFFFEFFF54D8555BCFFF5475F9
:109C10005D18BFFFCFFF5CF964F8C7FF5CF7549590
:109C20005454D7FFD7FF5C748577EFFFF7FFFFFF32
:109C3000FFFFFFFFFFFFFFFFFFFFFFFFFFFFFFFF34
:109C4000FFFFFFFFFFFFEFFF8E5D3C76B7BFA71F53
:109C50004CB73C3664F98E5D655A96BFC7FFAF5F5F
:109C6000D7FFD7FF8E3D6D18EFFFF7FFF7FFFFFF20
:109C7000FFFFFFFFFFFFFFFFFFFFFFFFFFFFFFFFF4
:109C8000FFFFFFFFFFFFF7FFD7FF4C555D39B7FF21
:109C9000B7DF965D7D59AF1F865D54F8A73F8E7F75
:109CA000865EA75F5CF8965CF7FFFFFFFFFFFFFF94
:109CB000FFFFFFFFFFFFFFFFFFFFFFFFFFFFFFFFB4
:109CC000FFFFFFFFFFFFF7FFEFFFC79F4C963C56DC
:109CD000861CB75FB77FB75FBFBF653854557D9BA4
:109CE0007DDB4C757558D7FFF7FFFFFFFFFFF7FFD0
:109CF000FFFFFFFFFFFFFFFFFFFFFFFFFFFFFFFF74
:109D0000FFFFFFFFFFFFFFFFFFFFF7FFD7BF85DB71
:109D100044353C353C554454A67CE7FFEFFFEFFF4C
:109D2000EFFFEFFFEFFFF7FFFFFFFFFFF7FFFFFF83
:109D3000FFFFFFDFFFFFFFFFFFFFFFFFFFFFFFFF53
:109D4000FFFFFFFFFFFFFFFFFFFFF7DFF7FFE7FF6B
:109D5000CFFFB77FAF7FBF9FEFFFF7FFFFFFFFFF93
:109D6000FFFFFFFFFFFFFFFFFFFFFFFFFFFFFFFF03
:109D7000FFDFFFFFFFFFFFFFFFFFFFFFFFFFFFFF13
:109D8000FFFFFFFFFFFFFFFFFFFFFFFFFFFFFFFFE3
:109D9000F7FFF7FFEFFFF7FFFFFFFFFFFFFFFFFFFB
:109DA000FFFFFFDFFFFFFFFFFFFFFFFFFFFFFFFFE3
:109DB000FFFFFFFFFFFFFFFFFFFFFFFFFFFFFFFFB3
:109DC000FFFFFFFFFFFFFFDFFFDFFFFFFFFFFFFFE3
:109DD000FFFFFFFFFFFFFFFFFFFFFFFFFFFFFFFF93
:109DE000FFFFFFFFFFDFFFFFFFFFFFFFFFFFFFFFA3
:109DF000FFFFFFFEFFFFFFFF001020002000011B00
:109E0000FFFFFFFFFFFFFFFFFFFFFFFFFFFFFFFF62
:109E1000FFFFFFFF00000000000000000000000046
:109E20000000FFFFFFFFFFFFFFFFFFFFFFFFFFFF40
:109E3000FFFFFFFFFFFFFFFFFFFFFFFFFFFFFFFF32
:109E4000FFFFFFFFFFFFFFFFFFFFFFFFFFFFFFFF22
:109E5000FFFFFFFF000028422842284228422842F4
:109E60000000FFFFFFFFFFFFFFFFFFFFFFFFFFFF00
:109E7000FFFFFFFFFFFFFFFFFFFFFFFFFFFFFFFFF2
:109E8000FFFFFFFFFFFFFFFFFFFFFFFFFFFFFFFFE2
:109E9000FFFFFFFF0000FFFFFFFFFFFFFFFFFFFFD0
:109EA0000000FFFFFFFFFFFFFFFFFFFFFFFFFFFFC0
:109EB000FFFFFFFFFFFFFFFFFFFFFFFFFFFFFFFFB2
:109EC000FFFFFFFFFFFFFFFFFFFFFFFFFFFF0000A0
:109ED000FFFFFFFF0000FFFFFFFFFFFFFFFFFFFF90
:109EE0000000FFFFFFFFFFFFFFFFFFFFFFFFFFFF80
:109EF000FFFFFFFFFFFFFFFFFFFFFFFFFFFFFFFF72
:109F0000FFFFFFFFFFFFFFFFFFFFFFFFFFFF00005F
:109F1000FFFFFFFF0000FFFF8DFA8DFA6DFAFFFFD4
:109F20000000FFFFFFFFFFFFFFFFFFFFFFFFFFFF3F
:109F3000FFFFFFFFFFFFFFFFFFFFFFFFFFFFFFFF31
:109F4000FFFFFFFFFFFFFFFFFFFFFFFFFFFFFFFF21
:109F5000FFFFFFFF0000FFFF8DFA8DFA6DFAFFFF94
:109F60000000FFFFFFFFFFFFFFFFFBDE0000FFFF22
:109F7000FFFFFFFFFFFFFFFFFFFFFFFFFFFFFFFFF1
:109F8000FFFFFFFFFFFFFFFFFFFFFFFFFFFF0000DF
:109F9000FFFFFFFF0000FFFF8DFA8DFA6DFAFFFF54
:109FA0000000FFFFFFFFFFFFFFFF000000000000B9
:109FB000FFFFFFFFFFFFFFFFFFFFFFFFFFFFFFFFB1
:109FC000FFFFFFFFFFFFFFFFFFFFFFFFAA520000A1
:109FD000F7BDFFFF0000FFFF8DFA8DFA6DFAFFFF5E
:109FE0000000FFFFFFFFFFFF00000000FFFF000079
:109FF0000000FFFFFFFFFFFFFFFFFFFFFFFFFFFF6F
:10A00000FFFFFFFFFFFFFFFFFFFFFFFFFFFFFFFF60
:10A01000FFFFFFFF0000FFFF8DFA8DFA6DFAFFFFD3
:10A020000000FFFFFFFFFFFF0000FFFFFF1F392EB3
:10A030000000FFFFFFFFFFFFFFFFFFFFFFFFFFFF2E
:10A04000FFFFFFFFFFFFFFFFFFFFFFFFFFFFFFFF20
:10A05000FFFFFFFF0000FFFF8DFA8DFA6DFAFFFF93
:10A060000000FFFFFFFF00000000FF2FFF27FF1F82
:10A0700000000000FFFFFFFFFFFFFFFFFFFFFFFFEC
:10A08000FFFFFFFFFFFFFFFFFFFFFFFF38C60000DE
:10A09000FFFFFFFF0000FFFF8DFA8DFA6DFAFFFF53
:10A0A0000000FFFFFFFF00000000FF1FFF27FF274A
:10A0B00000000000FFFFFFFFFFFFFFFFFFFFFFFFAC
:10A0C000FFFFFFFFFFFFFFFFFFFFFFFFFFFF00009E
:10A0D000FFFFFFFF0000FFFF8DFA8DFA6DFAFFFF13
:10A0E0000000FFFFFFFF00000000FF0FFF27FF1F22
:10A0F00000000000FFFFFFFFFFFFFFFFFFFFFFFF6C
:10A10000FFFFFFFFFFFFFFFFFFFFFFFFFFFFFFFF5F
:10A11000FFFFFFFF0000FFFF8DFA8DFA6DFAFFFFD2
:10A120000000FFFFFFFFFFFF000000000000000035
:10A130000000FF1FFFFFFFFFFFFFFFFFFFFFFFFF0D
:10A14000FFFFFFFFFFFFFFFFFFFFFFFFFFFF00001D
:10A15000FFFFFFFF0000FFFF8DFA8DFA6DFAFFFF92
:10A160000000FFFFFFFFFFFFFFFF0000000076057C
:10A17000FF3FFFFFFFFFFFFFFFFFFFFFFFFFFFFFAF
:10A18000FFFFFFFFFFFFFFFFFFFFFFFFFFFF0000DD
:10A19000FFFFFFFF0000FFFF8DFA8DFA6DFAFFFF52
:10A1A0000000FFFFFFFFFFFFFFFFFFFFFFFFFFFFBD
:10A1B000FFFFFFFFFFFFFFFFFFFFFFFFFFFFFFFFAF
:10A1C000FFFFFFFFFFFFFFFFFFFFFFFFFFFFFFFF9F
:10A1D000FFFFFFFF0000FFFF8DFA8DFA6DFAFFFF12
:10A1E0000000FFFFFFFFFFFFFFFFFFFFFFFFFFFF7D
:10A1F000FFFFFFFFFFFFFFFFFFFFFFFFFFFFFFFF6F
:10A20000FFFFFFFFFFFFFFFFFFFFFFFFFFFFFFFF5E
:10A21000FFFFFFFF0000FFFF8DFA8DFA6DFAFFFFD1
:10A220000000FFFFFFFFFFFFFFFFFFFFFFFFFFFF3C
:10A23000FFFFFFFFFFFFFFFFFFFFFFFFFFFFFFFF2E
:10A24000FFFFFFFFFFFFFFFFFFFFFFFFFFFFFFFF1E
:10A25000FFFFFFFF0000FFFF8DFA8DFA6DFAFFFF91
:10A260000000FFFFFFFFFFFFFFFFFFFFFFFFFFFFFC
:10A27000FFFFFFFFFFFFFFFFFFFFFFFFFFFFFFFFEE
:10A28000FFFFFFFFFFFFFFFFFFFFFFFFFFFFFFFFDE
:10A29000000000000000FFFF8DFA8DFA6DFAFFFF4D
:10A2A00000000000FFFFFFFFFFFFFFFFFFFFFFFFBA
:10A2B000FFFFFFFFFFFFFFFFFFFFFFFFFFFFFFFFAE
:10A2C000FFFFFFFFFFFFFFFFFFFFFFFFFFFF00009C
:10A2D00000000000FFFFFFFF8DFA8DFA6DFAFFFF0F
:10A2E000FFFF0000000079CEFFFFFFFFFFFFFFFF31
:10A2F000FFFFFFFFFFFFFFFFFFFFFFFFFFFFFFFF6E
:10A30000FFFFFFFFFFFFFFFFFFFFFFFFFFFF00005B
:10A310000000FFFFFFFFFFFF0CFA8DFA6CFAFFFF52
:10A32000FFFFFFFF00000000FFFFFFFFFFFFFFFF39
:10A33000FFFFFFFFFFFFFFFFFFFFFFFFFFFFFFFF2D
:10A34000FFFFFFFFFFFFFFFFFFFFFFFF0000000019
:10A35000FFFFFFFFFFFF6DFA8DFA8DFA8DFA6DFAA0
:10A36000FFFFFFFFFFFF00000000FFFFFFFFFFFFF9
:10A37000FFFFFFFFFFFFFFFFFFFFFFFFFFFFFFFFED
:10A38000FFFFFFFFFFFFFFFFFFFFFFFF00000000D9
:10A39000FFFFFFFF6DFA8DFA8DFA8DFA8DFA8DFAB7
:10A3A0008DFAFFFFFFFF00000000FFFFFFFFFFFF30
:10A3B000FFFFFFFFFFFFFFFFFFFFFFFFFFFFFFFFAD
:10A3C000FFFFFFFFFFFFFFFFFFFFFFFF0000000099
:10A3D000FFFFFFFF8DFA8DFA8DFA8DFA8DFA8DFA57
:10A3E0008DFAAEFAFFFF694A0000FFFFFFFFFFFF93
:10A3F000FFFFFFFFFFFFFFFFFFFFFFFFFFFFFFFF6D
:10A40000FFFFFFFFFFFFFFFFFFFFFFFF0000000058
:10A41000FFFF5AFE8DFA8DFA8DFA8DFA8DFA8DFABC
:10A420008DFA6DFAFFFFDBDE0000FFFFFFFFFFFF8D
:10A43000FFFFFFFFFFFFFFFFFFFFFFFFFFFFFFFF2C
:10A44000FFFFFFFFFFFFFFFFFFFFFFFF0000000018
:10A45000FFFFFFFF8DFA8DFA8DFA8DFA8DFA8DFAD6
:10A460008DFAEDFAFFFF00000000FFFFFFFFFFFF86
:10A47000FFFFFFFFFFFFFFFFFFFFFFFFFFFFFFFFEC
:10A48000FFFFFFFFFFFFFFFFFFFFFFFF00000000D8
:10A49000FFFFFFFF8DFA8DFA8DFA8DFA8DFA8DFA96
:10A4A0008DFA90FBFFFF00000000FFFFFFFFFFFFA2
:10A4B000FFFFFFFFFFFFFFFFFFFFFFFFFFFFFFFFAC
:10A4C000FFFFFFFFFFFFFFFFFFFFFFFFFFFF00009A
:10A4D000FBDEFFFFD9FD8DFA8DFA8DFA8DFA8DFA2C
:10A4E0002EFAFFFFFFFF0000FFFFFFFFFFFFFFFF50
:10A4F000FFFFFFFFFFFFFFFFFFFFFFFFFFFFFFFF6C
:10A50000FFFFFFFFFFFFFFFFFFFFFFFFFFFF000059
:10A510000000FFFFFFFFFFFF2BFA6DFA8DFA4DFAE7
:10A52000FFFFFFFF00000000FFFFFFFFFFFFFFFF37
:10A53000FFFFFFFFFFFFFFFFFFFFFFFFFFFFFFFF2B
:10A54000FFFFFFFFFFFFFFFFFFFFFFFFFFFFFFFF1B
:10A5500000000000FFFFFFFFFFFFFFFFFFFFFFFF07
:10A56000FFFF00000000FFFFFFFFFFFFFFFFFFFFF7
:10A57000FFFFFFFFFFFFFFFFFFFFFFFFFFFFFFFFEB
:10A58000FFFFFFFFFFFFFFFFFFFFFFFFFFFFFFFFDB
:10A59000FFFF00000000000000006529000000002F
:10A5A00000000000FFFFFFFFFFFFFFFFFFFFFFFFB7
:10A5B000FFFFFFFFFFFFFFFFFFFFFFFFFFFFFFFFAB
:10A5C000FFFFFFFFFFFFFFFFFFFFFFFFFFFFFFFF9B
:10A5D000FFFFFFFFFFFF0000000000000000000081
:10A5E000FFFFFFFFFFFFFFFFFFFFFFFFFFFFFFFF7B
:10A5F000FFFFFFFFFFFFFFFFFFFFFFFFFFFFFFFF6B
:10A60000FFFFFFFFFFFFFFFFFFDFFFFFFFFFFFFF7A
:10A61000FFFFFFFFFFFFFFFFFFFFFFFFFFFFFFFF4A
:10A62000FFFFFFDFFFFFFFFFF7DFFFFFFFFFFFFF82
:10A63000FFDFFFFFFFFFFFFEFFFFFFFFFFFFFFFF4B
:10A64000FFFFFFFFFFFFFFFFFFFFFFFFFFFFFFFF1A
:10A65000FFFFFFFFFFDEFFFFFFDFFFFFFFFF6B8E50
:10A660006B4EFFFFFFFFFFFFFFFFFFDFFFFFFFFF5F
:10A67000FFFFFFFFFFDEFFFEFFFFFFFFFFFFFFFF0C
:10A68000FFFFFFFFFFFFFFFFFFFFFFFFFFFFFFFFDA
:10A69000FFFFFFFFFFFFFFFFFFFFFFFFFFFF39E8A7
:10A6A00039C8FFFFFFDFFFFFFFFFFFFFFFFFFFFFD7
:10A6B000FFDFFFFFFFFFFFFFFFFFFFFFFFFFFFFFCA
:10A6C000FFFFFFFFFFDEFFFFFFFFFFFFFFFFFFFFBB
:10A6D000FFFFFFFFFFFFFFDFFFFFFFFFFFFF31C7B0
:10A6E00039C7FFFFFFFFFFFFFFDFFFFFFFFFFFFF98
:10A6F000FFFFFFFFFFFFFFFFFFFFFFFFFFFFFFFF6A
:10A70000FFFFFFFFFFFFFFDFFFFFFFFFBE19ADB73A
:10A71000FFFFFFFFFFFFFFFFFFFFFFFFFFFFAD9604
:10A72000BDF8FFFFF7FFF7FFFFFFFFFFFFFFFFFF92
:10A73000A536C65AFFDFFFFFFFFFFFDFFFFFFFFF6A
:10A74000FFFFFFDFFFFFFFFFFFFFFFFF39E831C81B
:10A750008C92FFFFFFDFFFDFFFFFFFFFFFFFFFFF29
:10A76000FFFFFFFFFFFFFFFFFFFFFFFFFFFF8C5219
:10A7700039E931A7FFFFFFFFFFDFFFFFFFFFFFFF0B
:10A78000FFFFFFFFFFFFFFFFFFFFFFFFB5D832080E
:10A7900031E8D6DBFFDFFFDFFFFFFFFFFFFFFFFF3B
:10A7A000FFFFFFFFFFFFFFFFFFDFFFDFE6DC39C832
:10A7B00031C8B5F8FFFFFFDFFFFFFFFFFFFFFFFF1F
:10A7C000FFFFFFFFFFFFFFFFFFFFFFFFF7FF9514F6
:10A7D0008492E75DFFDFFFDFF7BFB5F894F473CF36
:10A7E0007BF094D3B5D7F7DFFFFFFFDFF77F73AFC1
:10A7F0009CF4FFFFFFFFFFFFFFFFFFFFFFFFFFFFD7
:10A80000FFFFFFFFFFFFFFFFFFFFFFFFFFFFFFFF58
:10A81000FFFFFFDFFFFFDEDC634E3209320931C884
:10A8200031E831E831E9636EDEDCFFFFFFFFFFFF57
:10A83000FFFFFFFFFFFFFFFFFFFFFFFFFFDFFFFF48
:10A84000FFFFFFFFFFFFFFFFFFFFFFFFFFFFFFFF18
:10A85000FFFFFFFFA4F431C732294B2C7CB3AE18A5
:10A86000AE1884B3530D320931C89CF4FFFFFFFFCB
:10A87000FFFFFFFFFFFFFFFFFFFFFFDFFFFFFFFF08
:10A88000FFFFFFFFFFDFFFFFFFFFFFFFFFFFFFFFF8
:10A89000FFFFCE9A31A731E86C71CFFEB71B95D67A
:10A8A000A679CF3DDFBF743131E831E8CE7AFFFFC2
:10A8B000FFFFFFFFFFFFFFFFFFFFFFFFFFFFFFDFC8
:10A8C000FFFFFFFFFFFFFFFFFFFFFFFFFFDFFFFFB8
:10A8D000FFFF632D39E86C30CFFF8E9765120A6752
:10A8E0001A6832EB7492E7FF741031E8632DFFFFB2
:10A8F000FFFFFFFFFFFFFFFFFFFFFFFFFFFFFFFF68
:10A90000FFFFFFFFFFFFFFFFFFFFFFFFFFFFFFFF57
:10A91000D6DB31E831E8B6FA8EF77F175DB22BCB84
:10A920000A871A681A088D35C6FB2A0831C8D6DB93
:10A93000FFFFFFFFFFFFFFFFFFFFFFFFFFFFFFFF27
:10A94000FFFFFFFFFFFFAD769CF4B5B6FFFFFFFFF3
:10A95000A57731E8536DC7DD76F66F5677157EF62D
:10A960006DF4338B2269430CCF5D4B4D3208AD76CD
:10A97000FFDFFFFFA5569CF5B5D8F7BFFFFFFFFF30
:10A98000FFFFFFFFC65A31A83A0931C79CF4FFDF29
:10A9900073D1320A74B2A739773667756F75773518
:10A9A0007EF655101A682A89BEFB7CD32A0873D01C
:10A9B000FFFF9CB331C831C931C8CE7AFFFFFFFF1A
:10A9C000FFFFFFFFF7DFA53594F4B5B7FFFFFFFFEB
:10A9D000843229C86450AF9A773667755F546F75B3
:10A9E00077567ED6236A3B6CBF5C6C712A0994D47F
:10A9F000FFFFFFFFA5369CF5B5B7F79EFFFFFFFFF2
:10AA0000FFFFFFFFFFFFFFFFFFFFFFFFFFFFFFFF56
:10AA10009CF429C84B4CC7DC7ED66F3667755F75D2
:10AA20005F566F577F168EB7CFFE4B2C31C8CE5A6C
:10AA3000FFFFFFFFFFFFFFFFFFFFFFFFFFFFFFFF26
:10AA4000FFFFFFFFFFFFFFFFFFFFFFFFFFFFFFFF16
:10AA5000E73D3A092A07A698A75A87176EF5777631
:10AA60006F776F367F16A759BF3B29E83A09F7BFC2
:10AA7000FFFFFFFFFFFFFFFFFFFFFFFFFFFFFFFFE6
:10AA8000FFFFFFFFFFFFFFFFFFFFFFFFFFFFFFFFD6
:10AA9000FFFF843132083AAABF3BB75AB77A9F18F2
:10AAA00096F796F7AF39C79C4AEB39E87BD0FFDFC2
:10AAB000FFFFFFFFFFFFFFFFFFFFFFFFFFFFFFFFA6
:10AAC000FFFFFFFFFFFFFFFFFFFFFFFFFFFFFFFF96
:10AAD000FFFFD6DC31C731E75B6DF7FFEFFFEFFF1C
:10AAE000E7FFE7FFBEFA4B0B31E86B6EFFBFFFDFFE
:10AAF000FFFFFFFFFFFFFFFFFFFFFFFFFFFFFFFF66
:10AB0000FFFFFFFFFFFFFFFFFFFFFFFFFFFFFFFF55
:10AB1000FFFFFFFFC63931C7634DF7FFFFFFF7FFA8
:10AB2000F7FFF7FF428A31E8632DEF5DFFFFFFFF7C
:10AB3000FFFFFFFFFFFFFFFFFFFFFFFFFFFFFFFF25
:10AB4000FFFFFFFFFFFFFFFFFFFFFFFFFFFFFFFF15
:10AB5000FFFFFFFFF7DFEF9FCEBBEFBFFFFFFFFF62
:10AB6000FFFFFFFF31E831C8CE9BFFFFFFFFFFFF74
:10AB7000FFFFFFFFFFFFFFFFFFFFFFFFFFFFFFFFE5
:10AB8000FFFFFFFFFFFFFFFFFFFFFFFFFFFFFFFFD5
:10AB9000FFDFFFFFFFFF741031E832085B0D8472A6
:10ABA000AD97D6DC31C931E9DF3DF7FFFFFFFFFF8D
:10ABB000FFFFFFFFFFFFFFFFFFFFFFFFFFFFFFFFA5
:10ABC000FFFFFFFFFFFFFFFFFFFFFFFFFFFFFFFF95
:10ABD000FFFFFFFFFFFF9D1531E831E831E831E964
:10ABE000320931C831E929A8F7FFFFFFFFFFFFFF56
:10ABF000FFFFFFFFFFFFFFFFFFFFFFFFFFFFFFFF65
:10AC0000FFFFFFFFFFFFFFFFFFFFFFFFFFFFFFFF54
:10AC1000FFFFFFFFFFFFFFFFFFFFCE9B9CF56B9049
:10AC20003A0929A839C939E9FFFFFFFFFFFFFFFFF4
:10AC3000FFFFFFFFFFFFFFFFFFFFFFFFFFFFFFFF24
:10AC4000FFFFFFFFFFFFFFFFFFFFFFFFFFFFFFFF14
:10AC5000FFFFFFFFFFFF6B6E31C85ACD7C129CF5E2
:10AC6000BE19DF1DA537AD77FFDFFFFFFFFFFFFF39
:10AC7000FFFFFFFFFFFFFFFFFFFFFFFFFFFFFFFFE4
:10AC8000FFFFFFFFFFFFFFFFFFFFFFFFFFFFFFFFD4
:10AC9000FFFFFFFFFFFF843139E939C931A931C90D
:10ACA00031E9424A7390FFDFFFFFFFFFFFFFFFFF25
:10ACB000FFFFFFFFFFFFFFFFFFFFFFFFFFFFFFFFA4
:10ACC000FFFFFFFFFFFFFFFFFFFFFFFFFFFFFFFF94
:10ACD000FFFFFFDFFFFFFFFFDEFCA5567C1252CD1A
:10ACE00031C831E931C8D69BFFFFFFFFFFFFFFFFEF
:10ACF000FFFFFFFFFFFFFFFFFFFFFFFFFFFFFFFF64
:10AD0000FFFFFFFFFFFFFFFFFFFFFFFFFFFFFFFF53
:10AD1000FFFFFFFFFFFFDEFC5B2D4AAB7411A57741
:10AD2000CEDCB5F8AD96FFFFFFFFF7DFFFFFFFFFBB
:10AD3000FFFFFFFFFFFFFFFFFFFFFFFFFFFFFFFF23
:10AD4000FFFFFFFFFFFFFFFFFFFFFFFFFFFFFFFF13
:10AD5000FFFFFFFFFFFFEF9E31C831E831E829C850
:10AD600031E8636EFFFFFFFFFFFFFFFFFFFFFFFF05
:10AD7000FFFFFFFFFFFFFFFFFFFFFFFFFFFFFFFFE3
:10AD8000FFFFFFFFFFFFFFFFFFFFFFFFFFFFFFFFD3
:10AD9000FFFFFFFFFFFFFFFFF7BFC639A5156B8F52
:10ADA000424A31E8FFFFFFFFFFFFFFFFFFDFFFFF2A
:10ADB000FFFFFFFFFFFFFFFFFFFFFFFFFFFFFFFFA3
:10ADC000FFFFFFFFFFFFFFFFFFFFFFFFFFFFFFFF93
:10ADD000FFFFFFFFFFFFFFFFFFFFFFDFFFFFFFFFA3
:10ADE000FFFFFFFFFFFFFFFFFFFFFFFFFFFFFFFF73
:10ADF000FFFFFFFFFFFFFFFFFFFFFFFFFFFFFFFF63
:10AE0000101000200020011BFFFFFFFFFFFFFFFFCE
:10AE1000FFFEFFFEFFFFFFFFFFDFFFDFFFFFFFFF84
:10AE2000FFFFFFFFFFFFFFFFFFFFFFFFFFFFFFFF32
:10AE3000FFFEFFFEFFFFFFFFFFFFFFFFF7FFFFFF2C
:10AE4000FFDFFFFFFFFFFFFEFFFFFFFFFFDFFFFF53
:10AE5000FFFFFFFEFFFFFFFFFFFFFFDFF7FFF7FF33
:10AE6000EFFFEFFFEFFFE7FFE7FFEFFFE7FFE7FF92
:10AE7000F7FFFFFFFFFFFFFFFFDFFFFFF7FFFFFF12
:10AE8000FFFFFFDFFFFFFFFEFFFFFFDFFFFFFFFF13
:10AE9000FFFFFFFFFFFFFFFFFFFFF7FFE7FFD7FF0A
:10AEA000A75F6E1B4D593CF944F84D596E1C9F5FCE
:10AEB000D7FFE7FFF7FFFFFFFFFFFFFFFFFFFFFFEA
:10AEC000FFFFFFFFFFDFFFFFFFFFFFFFFFFFFFFFB2
:10AED000FFFFFFFFF7FFEFFFEFFFD7FF6D772C11AD
:10AEE000241324141C151C361C361C15241523F49D
:10AEF0002BF36578D7FFEFFFEFFFF7FFFFFFFFFFB3
:10AF0000FFFFFFFFFFFFFFFFFFFFFFFFFFFFFFDF71
:10AF1000FFFFF7FFEFFFE7FF75DA241424132C334C
:10AF20003C3475B99EBDAEFEAF1E9EBD75BA3C34B5
:10AF30002C141C141C3565FBDFFFEFFFF7FFFFFF30
:10AF4000FFDFFFFFFFFFFFFFFFFFFFFFFFFFFFFF31
:10AF5000F7FFEFFFD7FF44542C1423F45558AFDF0D
:10AF6000CFFFD7FFDFFFD7FFD7FFDFFFCFFFCFFF39
:10AF7000AFDF4D5914351C354454DFFFF7FFFFFF99
:10AF8000FFFFFFFFFFFFFFFFFFFFFFFFFFFFF7FFD9
:10AF9000EFFFDFFF2C54245433F3B71FE7FFDFFF2D
:10AFA000CFFFC7FF975F5D795D799F5FCFFFD7FFC9
:10AFB000E7FFE7FFAF3F33F324542C34DFFFF7FF05
:10AFC000F7FFFFFFFFFFFFFFFFFFFFFFFFFFF7FFA1
:10AFD000E7FF445424342455D7FFE7FFE7FFBF3D84
:10AFE00054732BB133F34CB64CB633F233905473E5
:10AFF000BF3EE7FFE7FFD7FF245424344474E7FF44
:10B00000F7FFFFFFFFFFFFFFFFDFFFFFFFFFEFFF88
:10B0100075BB2C1633D3D7FFBF9FD7FF5D37339057
:10B0200085B8DFFFEFFFEFFFEFFFEFFFDFFF7D985A
:10B030002B916538DFFFBF9FCFFF2BF3245565DBD6
:10B04000EFFFFFFFFFFFFFFFFFBFFFFFF7FFD7FF90
:10B0500023D423F5BF5FE7FFAF3F33D23C13D7FFC5
:10B06000E7FFF7FFFFFFFFFFFFFFFFFFEFFFE7FF38
:10B07000CFFF3C343391AF3EDFFFB77F14151C3553
:10B08000D7FFF7FFFFFFFFDEFFFFF7FFDFFF6D9743
:10B0900024145559DFFFE7FF65583C13E7FFEFFF26
:10B0A000F7FFFFFFFFFFFFFFFFFFFFFFFFFFF7FFC0
:10B0B000EFFFE7FF3C346D58E7FFE7FF4D1824141E
:10B0C0006D98DFFFF7FFFFFFFFFFEFFFD7FF2C12A9
:10B0D0002C33AFDFDFFFBF1D3390D7FFEFFFFFFF44
:10B0E000FFFFFFFFFFDEFFFFFFFEFFFFF7FFF7FFA2
:10B0F000EF7EEFFFCFFF3391C73EE7FFB7DF2C3482
:10B1000023F2CFFFEFFFFFFFFFDEEFFF9F3F23F3B1
:10B110003C54CFFFCFFF54748DD9EFFFF7FFFFFFF3
:10B12000FFDFFFFFFFFFFFFFFFFEFFFFEFFFAE3B75
:10B13000F7DFF7FFE7FF85D85C73D7FFCFFF3C341D
:10B1400023F49F5FEFFFFFFFFFFFE7FF6DFC243558
:10B1500075D9D7FFC7FF2B91E7FFF7FFFFFFFFFF71
:10B16000FFFFFFFFF7FFF7FFF7FFEFFF74B4E7FF05
:10B17000F7FFF7FFF7FFD7FF3390C7FFD7FF75B98A
:10B180002C356DFCE7FFFFFFFFFFEFFF557A1C1525
:10B190009E9CDFFF973F33F2EFFFFFFFFFFFFFDFD4
:10B1A000FFFFF7FFE7FFBF5FAF5F4C33EFFFFFFF2E
:10B1B000FFFFFFFFF7FFEFFF33D1A77FDFFF967C95
:10B1C00024355559EFFFFFFFFFFFE7FF3CD81C1563
:10B1D000B73EDFFF86DE44B6EFFFFFFFFFFFFFFF56
:10B1E000F7FFEFFFB75F33B22BD3A71FEFFFFFFFD0
:10B1F000FFFFFFFFFFFFEFFF4CB58EDEDFFFAF1E4F
:10B200001C354518E7FFFFFFFFFFE7FF3CF81C3543
:10B21000AF3FBF7F347544D6EFFFFFFFFFFFFFFF57
:10B22000F7FFE7FF863C2BF333B2B73FEFFFFFFF9B
:10B23000FFFFFFDFFFFFEFFF44D53475BF5FAF1E99
:10B240001C353D18E7FFFFFFFFFFE7FF45381C35C2
:10B250009EBDD7FF975F2BF3EFFFF7DFFFFFFFFFE9
:10B26000F7FF9DF833918E9DBF5FE7FFF7FFFFFF6C
:10B27000FFFFFFFFFFFFEFFF33F29F7FDFFF9EBD6A
:10B280001C154518E7FFFFFFFFFFEFFF763C241476
:10B2900075B9D7FFCFFF3371DFFFF7FFF7FFFFFF70
:10B2A000EFFFE7DEBEBCE7FFF7FFFFFFFFFFFFFF9B
:10B2B000FFFFF7FFF7FFDFFF3390CFFFD7FF759951
:10B2C0002414763CEFFFFFFFFFFFEFFF9F1F2413C7
:10B2D0003C74CFFFD7FF5C548DB9E7FFEFFFF7FF5A
:10B2E000FFFFFFFFF7FFFFFFFFFFFFFFFFFFFFFF76
:10B2F000FFFFF7FFDFFF85D85C53D7FFCFFF3C543C
:10B300002BF49F1FEFFFFFFFFFFFF7FFD7FF341264
:10B310002433AFFFDFFFC71E3370D7FFF7FFFFFFF8
:10B32000FFFFFFFFFFFFFFFFFFFFFFFFFFFFFFDF4D
:10B33000FFFFEFFFCFFF2BB1C73EDFFFAFFF2413AF
:10B3400033F3DFFFF7FFFFFFFFFFF7FFDFFF6D774F
:10B350001C344D58E7FFE7FF65174412EFFFFFFF6E
:10B36000FFFFFFFFFFFFFFFFFFFFFFFFFFFFFFFFED
:10B37000FFFFEFFF3C125D57E7FFDFFF4D581C3426
:10B380006D78E7FFF7FFFFFFFFFFF7FFF7FFCFDF66
:10B3900024352435AF3FDFFFD7FF43B0CEFCFFFF9E
:10B3A000FFFFFFFFFFFFFFFFFFFFF7FFFFFFFFFFB5
:10B3B000F7FFCF1C3B8FD7FFDFFFAF3F1C152415D6
:10B3C000CFFFF7FFFFFFFFFFFFFFFFFFFFFFEFFFD5
:10B3D0006DDB24153413CFFFAF3FC77FF7FFFFFFAF
:10B3E000FFFFFFFFFFFFFFFFFFFFFFFFFFFFFFFF6D
:10B3F000FFFFF7FFC77FAF3FCFFF341424356DFB4E
:10B40000EFFFFFFFFFFFFFFFFFFFFFFFFFFFF7FF64
:10B41000E7FF44541C562456CFFFE7FFF7FFFFFF1A
:10B42000FFFFFFFFFFFFFFFFFFFFFFFFFFFFFFFF2C
:10B43000FFFFF7FFE7FFD7FF24561C554474DFFFDB
:10B44000F7FFFFFFFFFFFFFFFFFFFFFFFFFFFFDF34
:10B45000EFFFDFFF24341C562BF3B75FE7FFEFFF4E
:10B46000F7FFFFFFFFFFFFFFFFFFFFFFFFFFF7FFFC
:10B47000EFFFE7FFB73F33F31C562455D7FFEFFF2D
:10B48000FFFFFFFFFFFFFFFFFFFFFFFFFFDFFFFFEC
:10B49000FFFFEFFFDFFF3C5424341C355539B7BFA5
:10B4A000DFFFE7FFEFFFF7FFF7FFEFFFE7FFDFFF4C
:10B4B000B7BF5559243524344474D7FFF7FFFFFF35
:10B4C000FFFFFFFFFFFFFFFFFFFFFFFFFFFFFFDFAC
:10B4D000FFFFFFFFF7FFDFFF6DDA241424352C1583
:10B4E0003C3475B99EBCB71EAEFE9EBD7DDA3C54A1
:10B4F0002BF424141C146DFADFFFEFFFFFFFFFFE97
:10B50000FFDEFFFFFFFFFFFFFFFFFFFFFFFFFFFF6C
:10B51000FFFFFFFFF7FFEFFFEFFFD7FF6D572BF2A6
:10B520002C341C141C141C351C351C141BF32C341B
:10B530002BF26D77D7FFEFFFEFFFF7FFFFFFFFFF66
:10B54000FFFFFFFFFFFFFFFFFFFFFFFFFFFFFFFF0B
:10B55000FFFFFFFFFFFFFFFFFFFFFFFFE7FFD7FF3B
:10B560009F3F65FB4D793CF83CF84D796DFB9F3F63
:10B57000D7FFE7FFF7FFFFFFFFFFFFFFFFFFFFDF43
:10B58000FFFFFFFFFFFFFFFFFFFFFFFFFFFFFFFFCB
:10B59000FFFFFFFFFFFFFFFFFFFFFFFFF7FFF7FFCB
:10B5A000EFFFEFFFE7FFE7FFEFFFEFFFEFFFE7FF43
:10B5B000EFFFF7FFF7FFFFFFFFDFFFFFFFFFFFFFDB
:10B5C000FFFFFFDFFFFFFFFFFFFFFFFFFFFFFFFFAB
:10B5D000FFFFF7FFFFFFFFFFFFFFFFFFFFFFFFFF83
:10B5E000FFFFFFFFFFFFFFFFFFFFFFFFFFFFFFFF6B
:10B5F000FFFFFFFFFFFFFFFFFFFFFFFFFFFFFFFF5B
:10B60000FFFFFFFFFFFFFFFF001078007700011B27
:10B61000FFFFFFFFFFFFFFFFFFFFFFFFFFFFFFFF3A
:10B62000FFFFFFFFFFFFFFFFFFFFFFFFFFFFFFFF2A
:10B63000FFFFFFFFFFFFFFFFFFFFFFFFFFFFFFFF1A
:10B64000FFFFFFFFFFFFFFFFFFFFFFFFFFFFFFFF0A
:10B65000FFFFFFFFFFFFFFFFFFFFFFFFFFFFFFFFFA
:10B66000FFFFFFFFFFFFFFFFFFFFDFFFFFFFFFFF0A
:10B67000FFFFFFFFDFFFFFFFFFFFDFFFDFFFFFFF3A
:10B68000FFFFFFFFFFFFDFFFDFFFDFFFDFFFFFFF4A
:10B69000FFFFFFFFDFFFDFFFDFFFFFFFFFFFFFFF1A
:10B6A000DFFFFFFFFFFFFFFFFFFFFFFFFFFFFFFFCA
:10B6B000FFFFFFFFFFFFFFFFFFFFFFFFFFFFFFFF9A
:10B6C000FFFFFFFFFFFFFFFFFFFFFFFFFFFFFFFF8A
:10B6D000FFFFFFFFFFFFFFFFFFFFFFFFFFFFFFFF7A
:10B6E000FFFFFFFFFFFFFFFFFFFFFFFFFFFFFFFF6A
:10B6F000FFFFFFFFFFFFFFFFFFFFFFFFFFFFFFFF5A
:10B70000FFFFFFFFFFFFFFFFFFFFFFFFFFFFFFFF49
:10B71000FFFFFFFFFFFFFFFFFFFFFFFFFFFFFFFF39
:10B72000FFFFFFFFFFFFFFFFFFFFFFFFFFFFFFFF29
:10B73000FFFFFFFFFFFFFFFFFFFFFFFFFFFFFFFF19
:10B74000FFFFFFFFFFFFFFFFFFFFFFFFFFFFFFFF09
:10B75000FFFFFFFFFFFFBEF7FFFFFFFFFFFFFFFF42
:10B76000FFFFDFFF79CE718C694A0421A21082109D
:10B7700082104108200020002000200041086108BC
:10B780006108C318242128423084BAD6DFFFFFFFA6
:10B79000DFFFBEF7FFFFFFFFFFFFFFFFFFFFFFFF22
:10B7A000FFFFFFFFFFFFFFFFFFFFFFFFFFFFFFFFA9
:10B7B000FFFFFFFFFFFFFFFFFFFFFFFFFFFFFFFF99
:10B7C000FFFFFFFFFFFFFFFFFFFFFFFFFFFFFFFF89
:10B7D000FFFFFFFFFFFFFFFFFFFFFFFFFFFFFFFF79
:10B7E000FFFFFFFFFFFFFFFFFFFFFFFFFFFFFFFF69
:10B7F000FFFFFFFFFFFFFFFFFFFFFFFFFFFFFFFF59
:10B80000FFFFFFFFFFFFFFFFFFFFFFFFFFFFFFFF48
:10B81000FFFFFFFFFFFFFFFFFFFFFFFFFFFFFFFF38
:10B82000FFFFFFFFFFFFFFFFFFFFFFFFFFFFFFFF28
:10B83000FFFFFFFFFFFFFFFFFFFFFFFFFFFFFFFF18
:10B84000FFFFFFFFFFFFDFFFBEF7DBDE92948631D5
:10B85000000000000000200020004108200000003F
:10B860004108410861086108610861084108200039
:10B87000000000000000000041082000000000005F
:10B88000242130841CE7BEF7DFFFDFFFFFFFFFFF4F
:10B89000FFFFFFFFFFFFFFFFFFFFFFFFFFFFFFFFB8
:10B8A000FFFFFFFFFFFFFFFFFFFFFFFFFFFFFFFFA8
:10B8B000FFFFFFFFFFFFFFFFFFFFFFFFFFFFFFFF98
:10B8C000FFFFFFFFFFFFFFFFFFFFFFFFFFFFFFFF88
:10B8D000FFFFFFFFFFFFFFFFFFFFFFFFFFFFFFFF78
:10B8E000FFFFFFFFFFFFFFFFFFFFFFFFFFFFFFFF68
:10B8F000FFFFFFFFFFFFFFFFFFFFFFFFFFFFFFFF58
:10B90000FFFFFFFFFFFFFFFFFFFFFFFFFFFFFFFF47
:10B91000FFFFFFFFFFFFFFFFFFFFFFFFFFFFFFFF37
:10B92000FFFFFFFFFFFFFFFFFFFFFFFFFFFFFFFF27
:10B93000FFFF5DEF34A5284200002000200020001A
:10B940002000E318E7390C639294D7BDDBDEBEF725
:10B95000FFFFFFFFFFFFFFFFFFFFFFFFFFFFFFFFF7
:10B96000DFFFDBDEB6B592942C63C739A21000006E
:10B970002000000020002000494A34A55DEFFFFFB1
:10B98000FFFFDFFFFFFFFFFFFFFFFFFFFFFFFFFFE7
:10B99000FFFFFFFFFFFFFFFFFFFFFFFFFFFFFFFFB7
:10B9A000FFFFFFFFFFFFFFFFFFFFFFFFFFFFFFFFA7
:10B9B000FFFFFFFFFFFFFFFFFFFFFFFFFFFFFFFF97
:10B9C000FFFFFFFFFFFFFFFFFFFFFFFFFFFFFFFF87
:10B9D000FFFFFFFFFFFFFFFFFFFFFFFFFFFFFFFF77
:10B9E000FFFFFFFFFFFFFFFFFFFFFFFFFFFFFFFF67
:10B9F000FFFFFFFFFFFFFFFFFFFFFFFFFFFFFFFF57
:10BA0000FFFFFFFFFFFFFFFFFFFFFFFFFFFFFFFF46
:10BA1000DFFFDFFFDFFFDFFFFFFFDFFFBEF7D39CAE
:10BA2000C73941084108200000004529AE73D7BD41
:10BA30003CE7DFFFFFFFFFFFFFFFFFFFFFFFFFFF11
:10BA4000FFFFFFFFFFFFFFFFFFFFFFFFFFFFFFFF06
:10BA5000FFFFFFFFFFFFFFFFDFFFFFFFDFFF3CE711
:10BA6000D7BD8E7324210000200020000000C739BC
:10BA700014A5BEF7FFFFDFFFDFFFDFFFBEF7FFFF0D
:10BA8000DFFFFFFFFFFFFFFFFFFFFFFFFFFFFFFFE6
:10BA9000FFFFFFFFFFFFFFFFFFFFFFFFFFFFFFFFB6
:10BAA000FFFFFFFFFFFFFFFFFFFFFFFFFFFFFFFFA6
:10BAB000FFFFFFFFFFFFFFFFFFFFFFFFFFFFFFFF96
:10BAC000FFFFFFFFFFFFFFFFFFFFFFFFFFFFFFFF86
:10BAD000FFFFFFFFFFFFFFFFFFFFFFFFFFFFFFFF76
:10BAE000FFFFFFFFFFFFFFFFFFFFFFFFFFFFFFFF66
:10BAF000FFFFFFFFFFFFFFFFFFFFFFFFFFFFFFFF56
:10BB0000FFFFFFFFDFFFFFFF9EF7AA524108200063
:10BB1000000000002421B6B59EF7DFFF5DEF7DEF4A
:10BB2000DFFFFFFFFFFFFFFFDFFFFFFFFFFFFFFF65
:10BB3000FFFFFFFFFFFFFFFFFFFFFFFFFFFFFFFF15
:10BB4000FFFFFFFFFFFFDFFFBEF7FFFFFFFF9EF7D7
:10BB5000FFFFFFFFFFFF7DEFD7BDC73900000000EB
:10BB600020004108CB5A7DEFFFFF9EF7FFFFDFFF6C
:10BB7000FFFFFFFFFFFFFFFFFFFFFFFFFFFFFFFFD5
:10BB8000FFFFFFFFFFFFFFFFFFFFFFFFFFFFFFFFC5
:10BB9000FFFFFFFFFFFFFFFFFFFFFFFFFFFFFFFFB5
:10BBA000FFFFFFFFFFFFFFFFFFFFFFFFFFFFFFFFA5
:10BBB000FFFFFFFFFFFFFFFFFFFFFFFFFFFFFFFF95
:10BBC000FFFFFFFFFFFFFFFFFFFFFFFFFFFFFFFF85
:10BBD000FFFFFFFFFFFFFFFFFFFFFFFFFFFFFFFF75
:10BBE000FFFFFFFFFFFFFFFFFFFFFFFFFFFFFFFF65
:10BBF000FFFF9EF7BAD6C7390000000020002421BD
:10BC000034A5FFFFFFFFFFFFFFFFFFFFDBDE20008C
:10BC1000C3183CE7DFFF5DEFFFFFFFFFFFFFFFFF04
:10BC2000FFFFFFFFFFFFFFFFFFFFFFFFFFFFFFFF24
:10BC3000FFFFFFFFFFFFFFFFFFFFFFFFFFFFDFFF34
:10BC4000FFFFFFFFFFFFFFFFDFFFFFFFFFFF55AD20
:10BC500004214108410800000842BAD6FFFFDFFF77
:10BC60009EF7FFFFFFFFFFFFFFFFFFFFFFFFFFFF4D
:10BC7000FFFFFFFFFFFFFFFFFFFFFFFFFFFFFFFFD4
:10BC8000FFFFFFFFFFFFFFFFFFFFFFFFFFFFFFFFC4
:10BC9000FFFFFFFFFFFFFFFFFFFFFFFFFFFFFFFFB4
:10BCA000FFFFFFFFFFFFFFFFFFFFFFFFFFFFFFFFA4
:10BCB000FFFFFFFFFFFFFFFFFFFFFFFFFFFFFFFF94
:10BCC000FFFFFFFFFFFFFFFFFFFFFFFFFFFFFFFF84
:10BCD000FFFFFFFFFFFFFFFFDFFF9EF7FFFFDFFF1D
:10BCE00079CEC739000000006108EB5A1CE7FFFF5E
:10BCF000DFFFFFFFFFFFFFFFFFFFFFFF242120000B
:10BD0000A2103CE7452920001CE7FFFFFFFFFFFFD3
:10BD1000FFFFFFFFFFFFFFFFFFFFFFFFFFFFFFFF33
:10BD2000FFFFFFFFFFFFFFFFFFFFFFFFFFFFDFFF43
:10BD3000DFFFDFFFDFFFDFFFFFFFFFFFDFFFDFFFD3
:10BD4000DFFF1CE7CB5A610820000000E73979CEFD
:10BD5000FFFFFFFFDFFFFFFFFFFFFFFFFFFFFFFF13
:10BD6000FFFFFFFFFFFFFFFFFFFFFFFFFFFFFFFFE3
:10BD7000FFFFFFFFFFFFFFFFFFFFFFFFFFFFFFFFD3
:10BD8000FFFFFFFFFFFFFFFFFFFFFFFFFFFFFFFFC3
:10BD9000FFFFFFFFFFFFFFFFFFFFFFFFFFFFFFFFB3
:10BDA000FFFFFFFFFFFFFFFFFFFFFFFFFFFFFFFFA3
:10BDB000FFFFFFFFFFFFFFFFFFFFFFFFFFFFFFFF93
:10BDC000FFFFFFFFDFFFFFFF9EF7FFFF1CE7494A72
:10BDD00000002000410810847DEFDFFFDFFFFFFF40
:10BDE000FFFFDFFFFFFFDFFFFFFFFFFF000082100D
:10BDF00079CEE73961088210BEF7FFFFFFFFFFFF32
:10BE0000FFFFFFFFFFFFFFFFFFFFFFFFFFFFFFFF42
:10BE1000FFFFFFFFFFFFFFFFFFFFFFFFFFFFDFFF52
:10BE2000DFFFDFFF2C63FFFF5DEFFFFFDFFFBEF7EC
:10BE3000DFFF0421FFFF5DEF718C6108000000004F
:10BE400028421CE7DFFFFFFFFFFFFFFFFFFFFFFFB1
:10BE5000FFFFFFFFFFFFFFFFFFFFFFFFFFFFFFFFF2
:10BE6000FFFFFFFFFFFFFFFFFFFFFFFFFFFFFFFFE2
:10BE7000FFFFFFFFFFFFFFFFFFFFFFFFFFFFFFFFD2
:10BE8000FFFFFFFFFFFFFFFFFFFFFFFFFFFFFFFFC2
:10BE9000FFFFFFFFFFFFFFFFFFFFFFFFFFFFFFFFB2
:10BEA000FFFFFFFFFFFFFFFFFFFFFFFFFFFFFFFFA2
:10BEB000FFFFFFFFFFFFBEF7FFFFEF7B200020002B
:10BEC0000000518CBEF7FFFFFFFFBEF7FFFFDFFF53
:10BED000DFFFBEF7518CFFFFFFFFDFFF00008E7317
:10BEE000D39CD7BD00003084FFFFFFFFFFFFFFFFA3
:10BEF000FFFFFFFFFFFFFFFFFFFFFFFFFFFFFFFF52
:10BF0000FFFFFFFFFFFFFFFFFFFFFFFFFFFFFFFF41
:10BF1000DFFFDFFF20009AD64108FFFFFFFF3CE76D
:10BF2000694AAE73FFFFDFFF7DEFBEF7AE732000FF
:10BF300041082000AE73DFFFFFFFFFFFFFFFFFFFA1
:10BF4000FFFFFFFFFFFFFFFFFFFFFFFFFFFFFFFF01
:10BF5000FFFFFFFFFFFFFFFFFFFFFFFFFFFFFFFFF1
:10BF6000FFFFFFFFFFFFFFFFFFFFFFFFFFFFFFFFE1
:10BF7000FFFFFFFFFFFFFFFFFFFFFFFFFFFFFFFFD1
:10BF8000FFFFFFFFFFFFFFFFFFFFFFFFFFFFFFFFC1
:10BF9000FFFFFFFFFFFFFFFFFFFFFFFFFFFFFFFFB1
:10BFA000FFFFFFFFBEF759CEC318821020008A5250
:10BFB0009EF7FFFFDFFFDFFFFFFFDFFFFFFFDFFF7A
:10BFC000BEF7DFFFC318DFFFDFFFFFFFDFFFCB5A46
:10BFD000BEF7CB5A8210FFFFDFFFFFFFFFFFFFFF1F
:10BFE000FFFFFFFFFFFFFFFFFFFFFFFFFFFFFFFF61
:10BFF000FFFFFFFFFFFFFFFFFFFFFFFFFFFFFFFF51
:10C00000FFFFDFFF20006D6B41080842A6314108A9
:10C01000718CDFFF9294610820007DEFBEF7DFFF97
:10C02000694A00004108C3189AD6FFFFFFFFFFFFCF
:10C03000FFFFFFFFFFFFFFFFFFFFFFFFFFFFFFFF10
:10C04000FFFFFFFFFFFFFFFFFFFFFFFFFFFFFFFF00
:10C05000FFFFFFFFFFFFFFFFFFFFFFFFFFFFFFFFF0
:10C06000FFFFFFFFFFFFFFFFFFFFFFFFFFFFFFFFE0
:10C07000FFFFFFFFFFFFFFFFFFFFFFFFFFFFFFFFD0
:10C08000FFFFFFFFFFFFFFFFFFFFFFFFDFFFBEF729
:10C09000FFFFFFFF4D6B20002000242118C6BEF7D4
:10C0A000FFFFFFFFFFFFFFFFFFFFFFFFFFFFDFFFC0
:10C0B000DFFF7DEF00004D6BDFFFFFFFDFFF38C6C6
:10C0C000DFFF8210B294308475ADFFFFFFFFFFFFEA
:10C0D000FFFFFFFFFFFFFFFFFFFFFFFFFFFFFFFF70
:10C0E000FFFFFFFFFFFFFFFFDFFFDFFFFFFFDFFFC0
:10C0F0009EF7DBDEA631CB5A8210718C8A5220006B
:10C10000F39C5DEFFBDE41082C63FFFFDFFFFFFFC9
:10C11000BEF759CE2421200000008E73DFFFDFFF21
:10C12000DFFFFFFFBEF7FFFFFFFFFFFFFFFFFFFF88
:10C13000FFFFFFFFFFFFFFFFFFFFFFFFFFFFFFFF0F
:10C14000FFFFFFFFFFFFFFFFFFFFFFFFFFFFFFFFFF
:10C15000FFFFFFFFFFFFFFFFFFFFFFFFFFFFFFFFEF
:10C16000FFFFFFFFFFFFFFFFFFFFFFFFFFFFFFFFDF
:10C17000FFFFFFFFFFFFFFFFFFFFFFFFBEF7FFFF18
:10C18000BAD68631200020001084BEF7BEF7DFFF4C
:10C19000FFFFFFFFFFFFFFFFFFFFFFFFFFFFDFFFCF
:10C1A000DFFF652941080421FFFFDFFF9EF779CEFD
:10C1B0003CE77DEF042100004108FFFFFFFFFFFF88
:10C1C000FFFFFFFFFFFFFFFFFFFFFFFFFFFFFFFF7F
:10C1D000FFFFFFFFFFFFFFFF9EF7FFFFDFFFDFFF18
:10C1E000BEF7494AFBDE6529F39C494AEF7BE31819
:10C1F00014A53084C318EF7BDFFFFFFFFFFFFFFFB5
:10C20000FFFFDFFFDFFF3084200020000421FBDE82
:10C21000DFFFDFFFDFFFFFFFFFFFFFFFFFFFFFFF8E
:10C22000FFFFFFFFFFFFFFFFFFFFFFFFFFFFFFFF1E
:10C23000FFFFFFFFFFFFFFFFFFFFFFFFFFFFFFFF0E
:10C24000FFFFFFFFFFFFFFFFFFFFFFFFFFFFFFFFFE
:10C25000FFFFFFFFFFFFFFFFFFFFFFFFFFFFFFFFEE
:10C26000FFFFFFFFFFFFFFFFFFFFFFFFBEF775AD03
:10C27000410841086108BAD6BEF7FFFFFFFFBEF7CD
:10C28000FFFFFFFFFFFFFFFFFFFFFFFFFFFF7DEF50
:10C290008A522000200028429EF7BEF7DFFF38C6F2
:10C2A00018C64529A21041086529DFFFFFFFFFFFDF
:10C2B000FFFFFFFFFFFFFFFFFFFFFFFFFFFFFFFF8E
:10C2C000FFFFFFFFFFFFDFFFFFFFBEF7B6B5B29432
:10C2D000BEF7E3185DEF4529F39C0000694A9EF71D
:10C2E000B6B54108CF7BFFFF3CE7FFFFFFFFFFFF35
:10C2F000FFFF9EF7FFFFDFFFDBDE610861084108FB
:10C3000096B5DFFFFFFFBEF7FFFFFFFFFFFFFFFF59
:10C31000FFFFFFFFFFFFFFFFFFFFFFFFFFFFFFFF2D
:10C32000FFFFFFFFFFFFFFFFFFFFFFFFFFFFFFFF1D
:10C33000FFFFFFFFFFFFFFFFFFFFFFFFFFFFFFFF0D
:10C34000FFFFFFFFFFFFFFFFFFFFFFFFFFFFFFFFFD
:10C35000FFFFFFFFFFFFDFFFFFFFBEF7108420009E
:10C360000000AA52FFFFDFFFFFFFFFFFFFFFFFFFFD
:10C37000FFFFFFFFFFFFFFFFFFFFFFFFFFFF9AD65B
:10C38000410820006108CB5ABEF77DEFDFFF38C6B9
:10C39000718CBEF782102000D39CDFFFFFFFBEF739
:10C3A000FFFFFFFFFFFFFFFFFFFFFFFFFFFFFFFF9D
:10C3B000FFFFFFFFFFFFFFFFFFFF9AD600004529A9
:10C3C00061086108863186319AD6F7BD718CA63135
:10C3D0006108AA52FFFFDFFFFFFFFFFFFFFFFFFF24
:10C3E000FFFFFFFFFFFFFFFFDFFFFFFF8A5220007D
:10C3F00020001084BEF7FFFFDFFFFFFFFFFFFFFFFE
:10C40000FFFFFFFFFFFFFFFFFFFFFFFFFFFFFFFF3C
:10C41000FFFFFFFFFFFFFFFFFFFFFFFFFFFFFFFF2C
:10C42000FFFFFFFFFFFFFFFFFFFFFFFFFFFFFFFF1C
:10C43000FFFFFFFFFFFFFFFFFFFFFFFFFFFFFFFF0C
:10C44000FFFFFFFFFFFFFFFF5DEF694A200041088C
:10C45000B294DFFFDFFFDFFFFFFFFFFFFFFFFFFF04
:10C46000FFFFFFFFFFFFFFFFFFFFFFFFFFFFBEF725
:10C470003CE7AA522421F39CDFFFDFFFFFFF59CEE8
:10C480000421A2108210200038C6518C6529D7BD26
:10C49000DFFFFFFFFFFFFFFFFFFFFFFFFFFFFFFFCC
:10C4A000FFFFFFFFFFFFFFFFBEF7C3186108C7399B
:10C4B0002C6334A5FBDEBEF77DEF7DEFB6B56D6B6B
:10C4C00086318210F39CBEF7DFFFFFFFFFFFFFFF07
:10C4D000FFFFFFFFFFFFFFFFDFFFFFFFDFFF929484
:10C4E00061080000EB5ADFFFFFFFFFFFBEF7FFFF11
:10C4F000FFFFFFFFFFFFFFFFFFFFFFFFFFFFFFFF4C
:10C50000FFFFFFFFFFFFFFFFFFFFFFFFFFFFFFFF3B
:10C51000FFFFFFFFFFFFFFFFFFFFFFFFFFFFFFFF2B
:10C52000FFFFFFFFFFFFFFFFFFFFFFFFFFFFFFFF1B
:10C53000FFFFFFFFFFFFDFFFC7394108200018C6DC
:10C54000BEF7FFFFFFFFFFFFFFFFFFFFFFFFFFFF44
:10C55000FFFFFFFFFFFFFFFFFFFFFFFFFFFFDFFF0B
:10C56000DFFFDFFF5DEF4D6BFFFFDFFF9EF79EF705
:10C57000EB5AD7BD0421000061086108D39CFFFF7E
:10C580009EF7FFFFFFFFFFFFFFFFFFFFFFFFFFFF24
:10C59000FFFFFFFFFFFFFFFFDFFF79CE7DEFBEF75D
:10C5A000FFFFF39C2C634529AA529AD6FFFFFFFF99
:10C5B000BEF759CEA631042179CEFFFFFFFFFFFF62
:10C5C000FFFFFFFFFFFFFFFFDFFFFFFFBEF7DFFF04
:10C5D000D7BD41080000E7399EF79EF7FFFFFFFF38
:10C5E000FFFFFFFFFFFFFFFFFFFFFFFFFFFFFFFF5B
:10C5F000FFFFFFFFFFFFFFFFFFFFFFFFFFFFFFFF4B
:10C60000FFFFFFFFFFFFFFFFFFFFFFFFFFFFFFFF3A
:10C61000FFFFFFFFFFFFFFFFFFFFFFFFFFFFFFFF2A
:10C62000FFFFFFFFBEF78631000000003CE7BEF7CA
:10C63000FFFFFFFFFFFFFFFFFFFFFFFFFFFFFFFF0A
:10C64000FFFFFFFFFFFFFFFFFFFFFFFFFFFFFFFFFA
:10C65000DFFFFFFFBEF7200079CEDFFFDFFFFFFF28
:10C66000DFFFFFFF4D6B410855ADDFFFFFFFBEF75A
:10C67000DFFFFFFFFFFFFFFFFFFFFFFFFFFFFFFFEA
:10C68000FFFFFFFFFFFFFFFFBEF79EF7FFFFFFFF6C
:10C69000FFFFDFFF4108000024212000D39CDFFFC3
:10C6A000DFFFB294A2106108EF7BFFFFFFFFFFFFE7
:10C6B000FFFFFFFFFFFFFFFFFFFFFFFFDFFFFFFFAA
:10C6C000DFFF5DEF000020004529DFFFBEF7FFFF21
:10C6D000FFFFFFFFFFFFFFFFFFFFFFFFFFFFFFFF6A
:10C6E000FFFFFFFFFFFFFFFFFFFFFFFFFFFFFFFF5A
:10C6F000FFFFFFFFFFFFFFFFFFFFFFFFFFFFFFFF4A
:10C70000FFFFFFFFFFFFFFFFFFFFFFFFFFFFDFFF59
:10C71000FFFFBEF76529410882101CE7FFFFDFFF1E
:10C72000FFFFFFFFFFFFFFFFFFFFFFFFFFFFFFFF19
:10C73000FFFFFFFFFFFFFFFFFFFFFFFFFFFFFFFF09
:10C74000FFFFDFFF9EF74108A631FFFFDFFFBEF7C7
:10C75000FBDEA210AA5220009AD6FFFFFFFFFFFFC8
:10C76000FFFFFFFFFFFFFFFFFFFFFFFFFFFFFFFFD9
:10C77000FFFFFFFFFFFFFFFFFFFFBEF7FFFF7DEFA4
:10C78000FFFFBEF7BEF7B6B5CB5A34A59AD6DFFF8A
:10C79000FFFFBEF7DFFF9EF7FFFFFFFFFFFFFFFF7B
:10C7A000FFFFFFFFFFFFFFFFFFFFFFFFFFFFFFFF99
:10C7B000DFFF9EF75DEFE31882106108BEF7FFFF11
:10C7C000BEF7FFFFDFFFFFFFFFFFFFFFFFFFFFFFE2
:10C7D000FFFFFFFFFFFFFFFFFFFFFFFFFFFFFFFF69
:10C7E000FFFFFFFFFFFFFFFFFFFFFFFFFFFFFFFF59
:10C7F000FFFFFFFFFFFFFFFFFFFFFFFFDFFFDFFF89
:10C80000BEF745292000E3183CE7DFFFBEF7FFFF36
:10C81000DFFFFFFFFFFFFFFFFFFFFFFFFFFFFFFF48
:10C82000FFFFFFFFFFFFFFFFFFFFFFFFFFFFDFFF38
:10C83000DFFFDFFF14A52000F7BDDFFF5DEF8E7384
:10C84000718CDFFF9EF741088E73FFFFFFFFFFFF34
:10C85000FFFFFFFFFFFFFFFFFFFFFFFFFFFFFFFFE8
:10C86000FFFFFFFFFFFFFFFFDFFFDFFF2C63AA5289
:10C8700010840C63A210042138C638C69EF7FFFF4F
:10C88000DFFFFFFFFFFFDFFFFFFFFFFFFFFFFFFFF8
:10C89000FFFFFFFFFFFFFFFFFFFFFFFFFFFFFFFFA8
:10C8A000BEF7FFFFDFFF1CE7E31841080421BEF7D6
:10C8B000DFFFDFFFFFFFFFFFFFFFFFFFFFFFFFFFC8
:10C8C000FFFFFFFFFFFFFFFFFFFFFFFFFFFFFFFF78
:10C8D000FFFFFFFFFFFFFFFFFFFFFFFFFFFFFFFF68
:10C8E000FFFFFFFFFFFFFFFFFFFFFFFFFFFF9EF7C1
:10C8F0002842410882103CE7DFFFBEF7DFFFFFFF61
:10C90000FFFFFFFFFFFFFFFFFFFFFFFFFFFFFFFF37
:10C91000FFFFFFFFFFFFFFFFFFFFFFFFFFFFDFFF47
:10C92000FFFF9EF7000024219EF7DFFF59CEFBDEBC
:10C93000DFFFBEF7DFFFE3188631FFFFFFFFFFFFDA
:10C94000FFFFFFFFFFFFFFFFFFFFFFFFFFFFFFFFF7
:10C95000FFFFFFFFFFFFFFFFFFFFFFFF7DEFF7BDC3
:10C9600014A5A6312000200020004108EF7BFFFF26
:10C97000DFFFFFFFFFFFDFFFFFFFFFFFFFFFFFFF07
:10C98000FFFFFFFFFFFFFFFFFFFFFFFFFFFFFFFFB7
:10C99000FFFFFFFF9EF7DFFF1CE7821041082842E0
:10C9A0009EF7DFFFFFFFFFFFFFFFFFFFFFFFFFFF20
:10C9B000FFFFFFFFFFFFFFFFFFFFFFFFFFFFFFFF87
:10C9C000FFFFFFFFFFFFFFFFFFFFFFFFFFFFFFFF77
:10C9D000FFFFFFFFFFFFFFFFDFFFFFFFFFFFCB5A60
:10C9E000000000009EF7FFFFFFFFBEF75DEFFFFFB7
:10C9F000DFFFFFFFFFFFFFFFFFFFFFFFFFFFFFFF67
:10CA0000FFFFFFFFFFFFFFFFFFFFFFFFFFFFBEF77F
:10CA1000FFFF8A520000F7BDFFFFBFF7FFFFFFFFD8
:10CA2000FFFFFFFF9FEFED524200DFF7FFFFFFFF29
:10CA3000FFFFFFFFFFFFDFFFFFFFFFFFFFFFFFFF26
:10CA4000FEFFFFFFFFFFFFFFDFFFDFFFDFFFFFFF57
:10CA5000FFFF76AD200079CEDEFF9DF7DEFFFFFF02
:10CA6000FFFFFFFFFFFFFFFFFFFFFFFFFFFFFFFFD6
:10CA7000FFFFFFFFFFFFFFFFFFFFFFFFFFFFFFFFC6
:10CA8000FFFFFFFFFFFFDFFFDFFF7DEF410820001B
:10CA9000EB5ADFFFDFFFDFFFFFFF7DEFFFFFFFFF51
:10CAA000FFFFFFFFFFFFFFFFFFFFFFFFFFFFFFFF96
:10CAB000FFFFFFFFFFFFFFFFFFFFFFFFFFFFFFFF86
:10CAC000FFFFFFFFFFFFBEF7BEF7BEF7518C000070
:10CAD0004108FBDE9EF70C634108000020007DEF5B
:10CAE000BEF7FFFFFFFFFFFFFFFFFFFFFFFFFFFF9F
:10CAF000FFFFFFFFFFFFFFFFFFFFFFFFFFFFDFFF66
:10CB0000BEF741082C63FFFFBFFFDFFFFFFFFFFF02
:10CB1000FFFFFFFFFFFFB29420009DF7FFFFDEFF46
:10CB2000DEFFDFFFFFFFFFFFFFFFDFFFFFFFFFFF76
:10CB3000FEFFFEFFFEFFFFFFBEF7FFFF3CEFFFFF24
:10CB40007DEFA310E739FFFFFFFFFFFFFFFFFFFFB0
:10CB5000FFFFFFFFFFFFFFFFFFFFFFFFFFFFFFFFE5
:10CB6000FFFFFFFFFFFFFFFFFFFFFFFFFFFFFFFFD5
:10CB7000FFFFDFFFDFFFFFFFFFFF9EF7DBDE610848
:10CB80000000F39CFFFFDFFFDFFFFFFFFFFFFFFF62
:10CB9000FFFFFFFFFFFFFFFFFFFFFFFFFFFFFFFFA5
:10CBA000FFFFFFFFFFFFFFFFFFFFFFFFFFFFFFFF95
:10CBB000FFFFFFFFFFFFDFFFDFFF18C62000610858
:10CBC00096B5DFFFFFFF10844108000020005DEFF5
:10CBD000FFFFFFFFFFFFFFFFFFFFFFFFFFFFFFFF65
:10CBE000FFFFFFFFFFFFFFFFFFFFFFFFFFFFDFFF75
:10CBF0009EF714A5FFFFFFFFFFFFFFFFFFFFFFFFF3
:10CC0000FFFFFEFFDDFFF9DE40087CEFFFFFFFFFC7
:10CC1000DFF7FFFFFFFFFFFFFFFFFFFFFFFFDFF774
:10CC2000FFF7FFF7FFFFFFFFFEFFFEFFA531C31871
:10CC3000200021001CE7BFF7FFFFFFFFFFFFFFFF02
:10CC4000FFFFFFFFFFFFFFFFFFFFFFFFFFFFFFFFF4
:10CC5000FFFFFFFFFFFFFFFFFFFFFFFFFFFFFFFFE4
:10CC6000DFFFDFFFFFFFBEF79EF7FFFFBEF7B6B5A2
:10CC70002000410879CEDFFFFFFFFFFFFFFFFFFF2E
:10CC8000FFFFFFFFFFFFFFFFFFFFFFFFFFFFFFFFB4
:10CC9000FFFFFFFFFFFFFFFFFFFFFFFFFFFFFFFFA4
:10CCA000FFFFFFFFFFFFDFFF5DEF4108410830841A
:10CCB000DFFFFFFFBEF7DFFFE739000020001CE7C2
:10CCC000FFFFFFFFFFFFFFFFFFFFFFFFFFFFFFFF74
:10CCD000FFFFFFFFFFFFFFFFFFFFFFFFFFFFDFFF84
:10CCE000BEF7DFFFDFFFFFFFDFFFFFFFFEFFFFFFFE
:10CCF000FFFFFFFFBEF7DFF7B7B5BFEF5FE73CBE53
:10CD00003895767CD46B93639363F573567C399531
:10CD10003DB65FDFFFEFDFEFDFF7DFFF10842100BD
:10CD20006108CE7BDEFFFFFFDFFFDFFFFFFFFFFFBE
:10CD3000FFFFFFFFFFFFFFFFFFFFFFFFFFFFFFFF03
:10CD4000FFFFFFFFFFFFFFFFFFFFFFFFFFFFFFFFF3
:10CD5000DFFFC739DFFFDFFFDFFFFFFFFFFFDFFF81
:10CD60001084200061085DEFFFFFFFFFFFFFFFFF62
:10CD7000FFFFFFFFFFFFFFFFFFFFFFFFFFFFFFFFC3
:10CD8000FFFFFFFFFFFFFFFFFFFFFFFFFFFFDFFFD3
:10CD9000DFFFDFFFDFFFFFFFC7392000E739FFFFBD
:10CDA000DFFFDFFF5DEFDFFFE73900004108A21082
:10CDB000E3183CE7FFFFDFFFFFFFDFFFFFFFFFFFA1
:10CDC000FFFFFFFFFFFFFFFFFFFFFFFFFFFFFFFF73
:10CDD000FFFFFFFFFFFFFFFFFFFFFEFFBEF7FFFFAD
:10CDE000DFF7FFF71FD7F56BCE21CF216F116F094A
:10CDF000B111700991099111911191119111711154
:10CE000090192E114D11CE29F5733FDFBFEF9BCE48
:10CE10001DDFBEF7BDF7FEFFFEFFFFFFFFFFFFFFB9
:10CE2000FFFFFFFFFFFFFFFFFFFFFFFFFFFFFFFF12
:10CE3000FFFFFFFFFFFFFFFF7DEFFFFFDFFFFFFFB4
:10CE40008A528210C318C31838C6FFFFFFFFBEF70F
:10CE5000BEF7084220002842BEF7FFFFFFFFFFFF9A
:10CE6000FFFFFFFFFFFFFFFFFFFFFFFFFFFFFFFFD2
:10CE7000FFFFFFFFFFFFFFFFFFFFFFFFFFFFDFFFE2
:10CE8000FFFFFFFFFFFFB29441086108DFFFFFFFD4
:10CE9000FFFFFFFF7DEFFBDE61080000000041089F
:10CEA00020009294BEF71084494AFFFFFFFFFFFF66
:10CEB000FFFFFFFFFFFFFFFFFFFFFFFFFFFFFFFF82
:10CEC000FFFFFFFFFFFFFFFFFFFFFEFF9EF7BDCE4F
:10CED000745B0C097009B11191119209B311930996
:10CEE0005201B409930993099309930993097309AA
:10CEF00092119211B219701170114E116F11745B71
:10CF00009DC6BFE7FFF7FEF7FEFFDEFFFFFFFFFF57
:10CF1000FFFFFFFFFFFFFFFFFFFFFFFFFFFFFFFF21
:10CF2000FFFFFFFFFFFFFFFFDFFF7DEF3CE7694AE9
:10CF3000BAD6C318000061088631BEF79EF7DFFF3E
:10CF4000FFFFBEF761080000718CBEF7FFFFFFFF17
:10CF5000FFFFFFFFFFFFFFFFFFFFFFFFFFFFFFFFE1
:10CF6000FFFFFFFFFFFFFFFFFFFFFFFFFFFFFFFFD1
:10CF7000DFFFFFFFFBDE2000200059CE9EF7FFFF02
:10CF8000DFFFFFFFBEF75DEFCF7B5DEF45292000A0
:10CF900000002C6392940000F7BDDFFFFFFFFFFF4E
:10CFA000FFFFFFFFFFFFFFFFFFFFFFFFFFFFFFFF91
:10CFB000FFFFFFFFFFFFFFFFFFFFFFFFBFF7ED29B1
:10CFC000B0197209B211920992099209931192094A
:10CFD00093119211721172097209921192119211A8
:10CFE0009311720992099209920992099209921178
:10CFF0006F11AD2138955EE7FFFFDFFFFFFFFFFFF9
:10D00000FFFFFFFFFFFFFFFFFFFFFFFFFFFFFFFF30
:10D01000FFFFFFFFFFFFFFFFDFFFF7BDE3185DEF3F
:10D020006D6BA631EF7B30841CE7FFFFFFFFDFFF56
:10D03000FFFFFFFF18C6200041083CE7FFFFFFFF8E
:10D04000FFFFFFFFFFFFFFFFFFFFFFFFFFFFFFFFF0
:10D05000FFFFFFFFFFFFFFFFFFFFFFFFFFFFBEF729
:10D06000FFFFFFFF652941082C63FFFFDFFFFFFF84
:10D07000FFFFFFFFDFFFBEF7FFFFFFFF200061089C
:10D080000000200020004D6BDEF7FFFFFFFFDFFFF9
:10D09000FFFFFFFFFFFFFFFFDFFFFFFFFEFFFEFFC2
:10D0A000DFFFDFF7DFF7BFF7FDFFFEFFFFFF703A9F
:10D0B00053117309921192099209B21192099209BE
:10D0C00052091109B319710972097311731172119F
:10D0D0009209B21192099209920992099209B01922
:10D0E0007A9D5CBE0D32AD2978849FEFDFF7FFFF9C
:10D0F000FEFFDEFFFFFFFFFFFFFFFFFFBEF7FFFFAB
:10D10000FFFFFFFFDFFFDFFFAE73E7395DEFAA52DE
:10D1100034A5DFFFFFFFBAD6EB5A7DEFFFFFCB5AF6
:10D120007DEFDFFFDFFF2C6320004529FFFFDFFFDE
:10D13000FFFFDFFFFFFFFFFFFFFFFFFFFFFFFFFF1F
:10D14000FFFFFFFFFFFFFFFFFFFFFFFFFFFFFFFFEF
:10D15000DFFF34A520008210DFFFFFFFDFFFDFFFCE
:10D16000DFFFBEF7CB5AF39CBEF7B6B5410800000F
:10D17000000000000000BAD6DEF7FFFFFFFFDFFF70
:10D18000FFFFFFFFFFFFDFFFFFFFFFFFDEFFDFFF10
:10D19000DFF7DBAD8C21BED6FDFFBEFFFFFF703297
:10D1A0005311710992119211B2099109B1099111AA
:10D1B00092119121CD002F01D311740973097211BD
:10D1C0009211921192119209921192119211567428
:10D1D000DFF7DFF77FE74E114F090F221BB6FFF78E
:10D1E000DEF7BEFFFFFFDFFFFFFFFFFFBEF7FFFF22
:10D1F000BEF7FFFFEF7BE318F7BD652965299AD6D7
:10D20000BEF718C6C3180000B6B58210AE73410849
:10D21000EF7BFFFFFFFFBEF7C318000034A5FFFF41
:10D22000BEF7DFFFFFFFFFFFFFFFFFFFFFFFFFFF77
:10D23000FFFFFFFFFFFFFFFFFFFFFFFFFFFFFFFFFE
:10D240009EF76108000055ADDFFFFFFFA210EF7BE6
:10D25000FBDE410841084529FFFFBEF7DFFFCB5A3F
:10D26000000041082000E318DEF7DEF7DEFFFFFFD5
:10D27000FFFFFFFFFFFFFEFFFEFFFFFFBFF77FEF98
:10D28000335B6E196E19DFD6FFFFBFFFFFF77032F9
:10D29000711170099111B109B10991097009B119A0
:10D2A0006F199ECE7FE7B77C8F1192119209910979
:10D2B0009211921192119209921192117109F78CA7
:10D2C000FFFFFFFF9FEF6F117109F0192D1112532E
:10D2D0009FE7BFEFFFFFFFFFFFFF9DF7FFFFFBDEB5
:10D2E00034A5E3184D6BFFFFFFFF410814A5DFFFD6
:10D2F000DFFF9294BAD6BEF7DFFFF39C0000000078
:10D30000A631BEF7DFFFDFFF34A5610861085DEFDE
:10D31000BEF7FFFFFFFFFFFFFFFFFFFFFFFFFFFF66
:10D32000FFFFFFFFFFFFFFFFFFFFFFFFFFFFFFFF0D
:10D330006D6B41086529FFFFDFFF7DEFE318E31800
:10D34000A21061080000E318BEF7FFFFDFFFA6315F
:10D350000000200000002000CF7BFFFFFEFFFEFF4B
:10D36000FEFFFEFFFFFFFDFFFDFFBFF7FCBD8F21AE
:10D3700070117109D119BEC6DEF7FFFFFFF77132D8
:10D38000720970099209B209B2097109711170111B
:10D39000765BFFFFBEF7DFEF913A7011B209B20979
:10D3A0009211921192119211921172097109379D85
:10D3B000DEF7FEFF9FE77011B31150099211D021E3
:10D3C000AC215ABEFFF7FFFFFFFFFFFFAA52410843
:10D3D000E31838C6FFFFDFFF7DEF79CE9EF7FFFF32
:10D3E000FFFFDFFFBEF7F7BDDFFFBEF7AE73200024
:10D3F00034A5DFFFDFFFBEF7FFFF863120008E730D
:10D40000DFFFDFFFFFFFFFFFFFFFFFFFFFFFFFFF6C
:10D41000FFFFFFFFFFFFFFFFFFFFFFFFBEF73CE740
:10D42000610820001CE7DFFFFFFFDFFFBEF7EB5ABC
:10D43000000020002000C318DFFFFFFF3CE7A21020
:10D4400020000C63E3184108200055ADDEFFBDF756
:10D45000FEFFFFFFBEF7DEF7FFF7B78CAF217211BB
:10D4600073119309B011FDCEFDFFFFFFFFF7923A54
:10D47000531171097209B3119311B4115209511169
:10D48000743ABFF7BEF7DFF71CBE4E11B211B309F5
:10D490009211921192119211920992117109179D94
:10D4A000FFFFFDFFBFEF4F09730992097211B11918
:10D4B00077749063F594FFF7FFF7D6B52000EB5A29
:10D4C0009EF7BEF7FFFFFFFFBEF7FFFFDFFFFFFF87
:10D4D000DFFFFFFFF7BD41086D6BDFFF8E73EB5A77
:10D4E00082101084FFFFDFFFDFFF9AD6200082103A
:10D4F0003CE7FFFFFFFFFFFFFFFFFFFFFFFFFFFF17
:10D50000FFFFFFFFFFFFFFFFFFFFDFFFFFFF4D6B91
:10D5100000002842FFFFFFFFFFFFFFFFFFFFDBDEF2
:10D520002000E318410820005DEFBEF73CE741080A
:10D530004108BEF77DEF821000002108DEFFDEFF0C
:10D54000DEFFDFFFFFFFBFEFF463CF21B1117309EF
:10D55000930993119011FDCEFDFFFFFFFFF7513AA4
:10D560005211B119501111099311530993119319C3
:10D570002F09FED6FFF7FFFFDFF7EF3171117209B8
:10D5800092119211921192119209921171091895AA
:10D59000FFFFFEFFBFEF4E097309910950117FBED7
:10D5A000BFE7FFF77EEF8F6BDFF7FFFFDFFFFFFFC8
:10D5B000DFFFFFFFFFFFBEF7BEF7FFFFFFFF929405
:10D5C0008631DBDE7DEFAA5204219AD6BEF779CEF2
:10D5D000200061089EF7FFFFDFFFFFFF08422000E9
:10D5E0008E73FFFFFFFFFFFFFFFFFFFFFFFFFFFF48
:10D5F000FFFFFFFFFFFFFFFFFFFFDFFF5DEF00000B
:10D6000020005DEFDFFFFFFFBEF7FFFFDFFFEB5AFC
:10D610002000200000002000B6B55DEF7DEF6529F9
:10D62000F39C7DEFBEF77DEFE4200000484ABDF794
:10D63000DFFFBFF7DFFF735B4E09121A92099209F1
:10D64000920991119019FFCEFFFFDFFFFFF76E3AAD
:10D650004E116C196E194F117111921192099109A5
:10D66000B111302A7FDFFEF7FEFFDFF72D117109C0
:10D6700092119211921192119209921171091895B9
:10D68000FFFFFEFFBFEF4E1172117111CF299FEF07
:10D69000DFF7FEF7DFF79EF77ACEBFF7BEF7DFFFC3
:10D6A000DFFF5DEF61082000694A6D6BAA524529D2
:10D6B00082100000C31838C6DFFF5DEF7DEFFFFF6B
:10D6C000DBDE452914A5FFFFFFFFBEF77DEF00005D
:10D6D00000007DEFFFFFFFFFFFFFFFFFFFFFFFFFEA
:10D6E000FFFFFFFFFFFFFFFFBEF7FFFF8E7320006E
:10D6F000CB5ABEF7FFFFFFFFFFFFBAD6E739200086
:10D70000A210B29400002000108479CEFBDEDFFF6F
:10D71000FFFF7DEFFFFFFFFF5DE725212008D6BD5E
:10D72000DFFFFFF7535BAF1991099201D30992090B
:10D73000B11190114D19BECEDFFFBFFFBFF77FE7DC
:10D74000DFF7BFEF5FE7FBB5B56BAF21901191112C
:10D750009209B0115CB6DEF7FEFFBFF7D88CB019A6
:10D7600072099311931192099209921191091895D6
:10D77000FFFFFFFFBFEF4E11911171119019B563BB
:10D780007FE7FFF7DFF7DFFFFFFFFFFF9EF7DFFF1A
:10D79000DEFFFEFFBDF759CEB6B555AD38C6F39CDA
:10D7A000C7399EF7DFFFFFFFFFFFFFFFFFFFFFFF10
:10D7B000DFFFBEF7DFFFFFFFFFFFFFFFBEF7694A96
:10D7C0002000CF7BBEF7FFFFFFFFFFFFFFFFFFFF44
:10D7D000FFFFFFFFFFFFFFFFFFFFDFFF2000200035
:10D7E0009AD6FFFFDFFFFFFFFFFF3CE7200020008E
:10D7F00020004529A2102000BAD60421A21018C684
:10D80000DFFFFFFFFFFFFFFFDFF79EEF2421294A25
:10D81000DFFFB463B0197109B3115201B209B1113C
:10D820008E1153533BB6DFF7FFFFBEFFFFFFBFFF75
:10D83000DFFFBCF7FEFFBFFFBFFF9FF7D56B701187
:10D8400072094F01CF219FEFDFFFFFFFDFEFB142F2
:10D85000B2195109930993099209B11190091795C9
:10D86000FFFFFFFFBFEF4E0992097211941150099B
:10D870000F2A1BB6DFF7DFF7FEFFDEFFFFFFFFFF1C
:10D88000FFFFFEFFFEFFFFFFDFFF3CE7494A4529A0
:10D890007DEFDFFFFFFFDFFFFFFFFFFFFFFFFFFF6A
:10D8A000FFFFFFFFFFFFFFFFFFFFFFFFFFFFBAD6F6
:10D8B00020000000FFFFDFFFDFFFFFFFFFFFFFFF94
:10D8C000FFFFFFFFFFFFFFFFFFFF34A54108A63169
:10D8D000DFFFFFFFFFFFFFFFDFFFFFFF9AD6000024
:10D8E00020000000000000004D6B452900000842A8
:10D8F000FFFFFFFFFFFFFFFFFFFFBDF7BFF716A50D
:10D90000F894D021B21174093309B3190E09124BDE
:10D910009FE7DFEFFFFFFFFFFDFFFEFFDFFFDFFF02
:10D92000BFEFFFF7BEEFDFF7FFFF7EEFDFEFDBAD0F
:10D930008F19F2114F09335BFFFF9DF7DFF75FE7A8
:10D94000AE19D111921152019309920990091795BC
:10D95000FFFFFFFFBFEF4E09920972117309921189
:10D96000B0196D19B463FFF7DFF7FFFFFFFFFFFF8B
:10D97000FFFFFFFFFFFFFFFFFFFF8A526108FBDE93
:10D98000DFFFFFFFBEF7FFFFFFFFFFFFFFFFFFFF10
:10D99000FFFFFFFFFFFFFFFFFFFFFFFFFFFFBEF7E0
:10D9A00086312000D39CDFFFFFFFFFFFFFFFFFFF5B
:10D9B000FFFFFFFFFFFFFFFFFFFFA210000075AD9D
:10D9C000FFFFFFFFFFFF9EF7FFFFFFFFBEF7D7BD83
:10D9D0008210200000006529200000008210042130
:10D9E0007DEFFFFFFFFFFFFFBDF7BDF7FFFF7EC627
:10D9F000AF19500193099311711951327DBEDFEFB8
:10DA0000FFFFFEFF9EF7FFFFDDFFFDFFFFFF3CBEB8
:10DA1000BBA5BB9D7DBE7FE7FFF7DEF7FEF7DFF717
:10DA200015749101F2196E19FBB5FFF7FFFFBEF7F0
:10DA30005CB68D1190119311940993099109179572
:10DA4000FFFFFFFFBFEF4E09920972119311921170
:10DA5000710950099019134B9FDFDFF7FFFFFEFF9D
:10DA60009EEFFFFFFFFFFFFFBEF7242182101CE7A0
:10DA7000FFFFDFFFFFFFFFFFFFFFFFFFFFFFFFFFD6
:10DA8000FFFFFFFFFFFFFFFFFFFFFFFFBEF7DFFF0F
:10DA900034A50000C318FFFFFFFFFFFFFFFFFFFFDC
:10DAA000FFFFFFFFFFFFFFFFFBDE20006108FFFF1E
:10DAB000FFFFFFFFFFFFFFFFFFFFFFFFFFFFFFFF76
:10DAC0003CE755AD1CE79294000041080C63DFFF72
:10DAD000DFFFFFFFFFFFFFFFFEFFFFFFDFEF0F2A6C
:10DAE0009111B211B2116E11967CBFE7FFF7FEFFE4
:10DAF000DEFFFFFFBFFFDFFFDEFFFEFFDFFF704245
:10DB00006F1190116E118E19B784DFF7BEF7DFFF2A
:10DB1000BFF74F115001B111AE199FE7BEF7DEFFFD
:10DB2000DFEFB99D6D11911172095209B21118956B
:10DB3000FFFFFFFFBFEF4E09920972119311920987
:10DB40009209930993116F11B45BFFF7FEFFDEF7A3
:10DB500076A55FE79FF7FFFFFEFF38C62000452947
:10DB6000FBDEDFFFFFFFFFFFDFFF7DEF9EF7FFFF25
:10DB7000FFFFFFFFFFFFFFFFFFFFFFFFFFFFDFFFD5
:10DB8000DFFF61080000DBDEDFFFFFFFFFFFFFFFBD
:10DB9000FFFFFFFFFFFFFFFF4D6B0000EB5AFFFF92
:10DBA000FFFFFFFFFFFFFFFFFFFFFFFFDFFFFFFFA5
:10DBB000FFFFBEF7DFFF108400004108DBDEDFFF60
:10DBC000FFFFFFFFFFFFFFFFFFFFFFF7F56B901168
:10DBD0007109B0116D117CBEDEEFFFF7DEEFDFF7EC
:10DBE000FFF7399DEE317DCEDFFFDFFFDFFF713ABA
:10DBF00071119209D3113009B0211574FFFFDFFFB5
:10DC0000DFFF987CD119520991110E2ADFEFDFFF57
:10DC1000DFF7FFF7BAA56D11B11951097211189507
:10DC2000FFFFFFFFBFEF4E0992097211931192118E
:10DC3000B209B309720191112D097EEFFFFFFEF7C2
:10DC4000FDD6F5739FF7DFFFDEFF9EF714A52000DA
:10DC5000A210DBDEBEF7DFFF8E730C63BEF7FFFFA3
:10DC6000FFFFFFFFFFFFFFFFFFFFFFFFFFFFDFFFE4
:10DC7000DFFFCB5A00004D6BFFFFFFFFFFFFFFFFF1
:10DC8000FFFFFFFFFFFFFFFFC31820001CE7FFFFA0
:10DC9000FFFFFFFFFFFFFFFFFFFFFFFFFFFFFFFF94
:10DCA000BEF7BEF7FFFF308400000000FFFFDFFF7C
:10DCB000DFFFFFFFFFFFFFFFFFFFDFCE4E11B209C7
:10DCC000B211CE217FE7DFF7FFFFFFF7DFF79EC638
:10DCD000AE218F116F11BECE9FEFFFFFFFF7703A9D
:10DCE000700992097101D41911090C099FEFFFFF06
:10DCF000DFFF3FDF6E1993097309D111D142DFF7BE
:10DD0000DFFFFFFFFFF75CB64D1191195211189517
:10DD1000FFFFFFFFBFEF4E099209721173119211BD
:10DD2000B109B2099201B311B119BDD6BEF7FFF71F
:10DD30007FE70B19FFDEDFFFBDF7FFFFFFFFCB5AC9
:10DD40000000410841084108C739FFFFFFFFFFFFFE
:10DD5000FFFFFFFFFFFFFFFFFFFFFFFFFFFFDFFFF3
:10DD6000FFFF5DEF2000E318BEF7FFFFFFFFFFFF9F
:10DD7000FFFFFFFFFFFF9AD620002000FFFFFFFFFD
:10DD8000FFFFFFFFFFFFFFFFFFFFFFFFFFFFDFFFC3
:10DD9000FFFFFFFFFFFF92940000718CDFFFDFFFAA
:10DDA000FFFFFFFFFFFFFFFFBFEF0F2AB111920937
:10DDB000522ABFE7DFFFFFFFFFFFBFEF377C2D09D0
:10DDC00091119209B111DECEFFFFFEFFFFF7703A0D
:10DDD00090099109700193097309B1193DB6FFFFCC
:10DDE000DEFFBFEF0C1173119409D311D019B56385
:10DDF000BFF7FFFFFFFFDFEF1FD711327019179535
:10DE0000FFFFFFF7BFEF4D119109730993119211B5
:10DE1000B209B209B20991112E093FE7BEF7FFF727
:10DE20009DBE6E21AF31DFF7DFFFBEF7DEFFDFFF04
:10DE3000E8390000000082103CE7DFFFDFFFFFFF52
:10DE4000FFFFFFFFFFFFFFFFFFFFFFFFFFFFFFFFE2
:10DE5000DFFFBEF70000000079CEFFFFFFFFFFFFEE
:10DE6000DFFFFFFFDFFF308400002C63FFFFFFFFB9
:10DE7000FFFFFFFFFFFFFFFFFFFFFFFFFFFFFFFFB2
:10DE8000FFFFFFFFDFFF9AD665293CE7FFFFDFFFBB
:10DE9000FFFFFEFFFEF7FFF7DBA59011700972325E
:10DEA0009FDFDEEFFFFFBFFF1EDF703AB011910969
:10DEB000920992099111FFCEFEFFDFFFFFFF523260
:10DEC00091099109B10993099409B1113995FFFF9D
:10DED000DEFFBFF72C1192119309D3119111711923
:10DEE00074639FE7FEFFFEFFDFF7DFF7399D97AD15
:10DEF000DFF7DFF7BFE74B11B11974099209710918
:10DF00009309B311B2118E19535BBFFFFFFFFFEFEF
:10DF1000967491192F11DBADFFFFDFFFFFFFFFFFAD
:10DF20001DE70D63AA5258CEDFFFFFFFBEF7FFFFCC
:10DF3000FFFFFFFFFFFFFFFFFFFFFFFFFFFFFFFFF1
:10DF4000FFFFFFFF2C630000518CFFFFFFFFFFFF6F
:10DF5000FFFFDFFFFFFF65292000BAD6BEF7FFFFF6
:10DF6000FFFFFFFFFFFFFFFFFFFFFFFFFFFFFFFFC1
:10DF7000FFFFFFFFFFFFDFFFDFFFFFFFFFFFFFFFF1
:10DF8000FFFFDEFFDFF7DFF70F2A6F094D113EDFDE
:10DF9000DFEFFFFF9FEFFDD6CE298F19B111920958
:10DFA000920992119011FFCEFEFFDFFFFFFF523268
:10DFB000910991099209930993119019BBA5FFFF4B
:10DFC000FFFFFFF74D11921173019209B211721107
:10DFD0007119713ADFEFDFEFFFFFFFFFFEF7DEF7AA
:10DFE000FFFFDFF79FEF6C212E1930116F11901199
:10DFF00070094F094E11F14ABFE7FFFFFFFFDFEF46
:10E00000302A721192192F32DFF7FFFFFEFFFFFF58
:10E01000DFFF5EEFDFFFFEFFDFFFDFFFFFFFFFFF42
:10E02000FFFFFFFFFFFFFFFFFFFFFFFFFFFFFFFF00
:10E03000FFFFFFFFDBDE00004529FFFFFFFFFFFFC3
:10E04000FFFFFFFF9EF7000000009EF7FFFFFFFFAE
:10E05000FFFFFFFFFFFFFFFFFFFFFFFFFFFFFFFFD0
:10E06000FFFFFFFFBEF7FFFFDFFFFEFFFFFFFFFF2A
:10E07000FFFF9EEFFFF71BBE4E11F0219FE7BFF79A
:10E08000BDF77EE77EDF6D11F219D21151019309C0
:10E09000920992119011FFCEFEFFDFFFFFFF523277
:10E0A000910972099209930993116E115FDFDFF7ED
:10E0B000FFFF9FE74D117109B309920972115211C7
:10E0C00072092F096D11FFCE7FE7DFF7BBF7DDF790
:10E0D000FEFFFFFFFFFFBFF79FEF9FEFBFCE3DB6F5
:10E0E0005EBE1FD75FE7FFF7DFF7FEFFFFFFDBA591
:10E0F0006F11941152096E113BB6FFFFFEFFFEFF38
:10E10000FFFFDFFFDFFFFFFFBEF7DFFFFFFFFFFFC8
:10E11000FFFFFFFFFFFFFFFFFFFFFFFFFFFFFFFF0F
:10E12000FFFFFFFF9EF7200020009EF7FFFFFFFF8D
:10E13000FFFFDFFFDBDE20008631BEF7FFFFFFFFC2
:10E14000FFFFFFFFFFFFFFFFFFFFFFFFFFFFFFFFDF
:10E15000FFFFFFFFFFFFFFFFFFFFFEFFFFFFFFFFD0
:10E16000FFFFFFFFFFF7F3526E197B9DBFF7DDFF47
:10E17000BDF77FE72C09D1119209930993099309FF
:10E18000920991119011FFCEFEFFDFFFFFFF523287
:10E19000910972097209931191114C11DFEFFFFF80
:10E1A000BFF7BBA58F1972099309930993117311D6
:10E1B000B209B10990116F1134535FE77DEFFFFF92
:10E1C000FFFFDFFFFFFFFFFFFEFFDDF7FFFFFFFFAA
:10E1D000FFFFFFFFFEFFFDFFFDFFDEF73EDFCE216D
:10E1E000921154099309B009114BFFF7DEF7FEFFB6
:10E1F000FFFFFFFFFFFFFFFFFFFFFFFFFFFFFFFF2F
:10E20000FFFFFFFFFFFFFFFFFFFFFFFFFFFFFFFF1E
:10E21000FFFFFFFFDFFF86316108FBDE7DEFFFFFC1
:10E22000FFFFBEF7108400006D6BDFFFFFFFFFFFF5
:10E23000FFFFFFFFFFFFFFFFFFFFFFFFFFFFFFFFEE
:10E24000FFFFFFFFFFFFFFFFFFFFFFFFFFFFFFFFDE
:10E25000FFFFDFF77FE72C11B24ADFEFDFF7FEFFAA
:10E260007FEFEF2991117101B209930993097309A5
:10E27000921192119011FFCEFEFFDFFFFFFF52328D
:10E2800091097209930992118F11735BDFEFFFFF00
:10E29000FFFF334B90117209730992099211921189
:10E2A000B109B109B109921130116E195FDFDFFFB9
:10E2B000DFFFFFFFDEFFDDF7FDF7FDF7FEFFFFFFEE
:10E2C000DEFFFFFFBEF7DEFFDFF77CBEEE29901911
:10E2D00093117309930991092D091FD7FFFFFEFFC1
:10E2E000FFFFFFFFFFFFFFFFFFFFFFFFFFFFFFFF3E
:10E2F000FFFFFFFFFFFFFFFFFFFFFFFFFFFFFFFF2E
:10E30000FFFFFFFFFFFFCF7B0000718CDFFFFFFFF0
:10E31000FFFFBEF7A631200096B5FFFFFFFFFFFF0E
:10E32000FFFFFFFFFFFFFFFFFFFFFFFFFFFFFFFFFD
:10E33000FFFFFFFFFFFFFFFFFFFFFFFFFFFFFFFFED
:10E34000FFFFFFF7DBAD6E19BECEFFFFFFFF9EEFB5
:10E350007463721972099209B109921192117211C2
:10E36000721192119111FFCEFEFFDFFFFFFF5232BB
:10E3700091097209B30991118E191ED7FFF7DFF7C2
:10E38000DFF78E11B211530993119211921192116C
:10E3900092119211B20993097209D119302ADFF74B
:10E3A000FFFFFFFFDEF7DFF79FE77FDFBFE7FFF746
:10E3B000FFF7BFEF3FDF3995B1426F119111B311F4
:10E3C000B311920992097209B1199CA5BFF7DEFF3A
:10E3D000FFFFFFFFFFFFFFFFFFFFFFFFFFFFFFFF4D
:10E3E000FFFFFFFFFFFFFFFFFFFFFFFFFFFFFFFF3D
:10E3F000FFFFFFFFFFFFD7BD0000A631FFFFFFFFBC
:10E40000FFFFFFFF00002000DBDEFFFFFFFFFFFF3D
:10E41000FFFFFFFFFFFFFFFFFFFFFFFFFFFFFFFF0C
:10E42000FFFFFFFFFFFFFFFFFFFFFFFFDFFFDFFF3C
:10E43000FFFFFFF74A191353DFF7DDF7FFF75BBE66
:10E440009019530973019109911191119111721150
:10E45000721192119111FFCEFEFFDFFFFFFF7232AA
:10E4600071099209B309B011D142FFF7DEF7FFF746
:10E4700078A5F219D319B41173099211911192115F
:10E4800074119311920993097201D211F019DED619
:10E49000FFFFFFFFFFFF1BB64C1170194E094D091E
:10E4A0004D112D116F117111B3115209D41193092E
:10E4B00092099109B211720951118E19FFF7DFFF0C
:10E4C000FFFFFFFFFFFFFFFFFFFFFFFFFFFFFFFF5C
:10E4D000FFFFFFFFFFFFFFFFFFFFFFFFFFFFFFFF4C
:10E4E000FFFFFFFFFFFFDBDE000000009EF7FFFFE6
:10E4F000FFFFFFFF20006108BEF7FFFFFFFFFFFFE8
:10E50000FFFFFFFFFFFFFFFFFFFFFFFFFFFFFFFF1B
:10E51000FFFFFFFFFFFFFFFFFFFFFFFFDFFFDFFF4B
:10E52000FFFFBFE74D19DED6FEFFDDF7BFEF102A74
:10E5300092119411921192119211921192119209C9
:10E54000920992119111FFCEFEFFDEFFFFFF703A9C
:10E550007211910911014D091EDFFFFFDFF7DFEF97
:10E5600050329211921192119211921192119211B4
:10E57000741193119209920993117211501178A597
:10E58000DFFFFFFFDFF7903A8F09D211921192114E
:10E590009211921192119211921192119211921163
:10E5A000921192119211921191092D01FFEFFFFF2B
:10E5B000DFFFDFFFFFFFFEFFFFFFFFFFFFFFFFFFAC
:10E5C000FFFFFFFFFFFFFFFFFFFFFFFFFFFFFFFF5B
:10E5D000FFFFFFFFFFFFBEF761080000DFFFFFFF47
:10E5E000FFFFBEF700004529FFFFFFFFFFFFFFFF12
:10E5F000FFFFFFFFFFFFFFFFFFFFFFFFFFFFFFFF2B
:10E60000FFFFFFFFFFFFFFFFFFFFFFFFFFFFFFFF1A
:10E61000FFFF5CBEAD29BFF7FEFFFFFFFBB58F1903
:10E6200092119311921192119211921192119209D9
:10E63000920992119111FFCEFEFFDFFFFFFF7132B1
:10E6400073099109D119198DFFF7FEFFFFFF9AA5F4
:10E650006F119211921192119211921192119211C5
:10E6600093119109B109B109921191117011D684D8
:10E67000FFFFFFFFBFF72B0990097209921192115A
:10E680009211921192119211921192119211921172
:10E69000921192119211921192096F099EBEFFFF81
:10E6A000FFFFDFFFFFFFFFFFFFFFFFFFFFFFFFFF9A
:10E6B000FFFFFFFFFFFFFFFFFFFFFFFFFFFFFFFF6A
:10E6C000FFFFFFFFFFFFFFFF45290000BEF7DFFF51
:10E6D000FFFF38C620002842DFFFDFFFDFFFFFFF1C
:10E6E000FFFFFFFFFFFFFFFFFFFFFFFFFFFFFFFF3A
:10E6F000FFFFFFFFFFFFFFFFFFFFFFFFFFFFFFFF2A
:10E70000FFFFD26B7A9DFFF7BEF7DFF7EE2991117D
:10E7100092119209920992119211921192119209F9
:10E72000920992119011FECEFEFFDFFFFFF77132CA
:10E7300073098F09D04AFFF7DEF7FEFFFED6D0211E
:10E7400093119211921192119211921192119211B0
:10E750009209B109B109B109930992119011B584D7
:10E76000FFFFFFFF9FEF6D11B20973099311921123
:10E770009211921192119211921192119211921181
:10E78000921192119211921173099111B45BDFF7FA
:10E79000FFFFFFFFFFFFFFFFFFFFFFFFFFFFFFFF89
:10E7A000FFFFFFFFFFFFFFFFFFFFFFFFFFFFFFFF79
:10E7B000FFFFFFFFFFFFDFFF2842200018C6DFFF3B
:10E7C000FFFF518C20004D6BDFFFFFFFFFFFFFFFBE
:10E7D000FFFFFFFFFFFFFFFFFFFFFFFFFFFFFFFF49
:10E7E000FFFFFFFFFFFFFFFFFFFFDFF7FEFFFEFF63
:10E7F000DFF7AB299FE7FFFFFFFF7FE7B02131097C
:10E800009209B209920992119211921192119209F0
:10E81000920992119011FFD6FEFFDFFFBFEF503239
:10E82000D2198D11FFFFDFF7BDF7FFF7735B911969
:10E830005309921192097209720992099209920977
:10E84000920991099109B30973095209B119F68C1A
:10E85000FFFFBFF75FE74D11B2115309730992092A
:10E8600092099209920992099209920992099209D0
:10E870009209920992099209730951093032DFF71E
:10E88000FFFFFEFFFFFFFFFFFFFFFFFFFFFFFFFF99
:10E89000FFFFFFFFFFFFFFFFFFFFFFFFFFFFFFFF88
:10E8A000FFFFFFFFBEF7DFFF4D6B2000518CDFFF46
:10E8B000FFFF4D6B20003084FFFFFFFFFFFFFFFFD6
:10E8C000FFFFFFFFFFFFFFFFFFFFFFFFFFFFFFFF58
:10E8D000FFFFFFFFFFFFFFFFFFFFFFFFFEFFFDFF4B
:10E8E000DFF7AB21FFF7FFFFFFFF7A9D7011931158
:10E8F000B209B109920993119211921192119209E0
:10E90000920992119011FFD6FFFFFFFFFFFF8E3A91
:10E91000EF295FDFFFFFBFF7FFF759952D09720958
:10E920009409720972099211921192119209720955
:10E930009311921192119309941192116F11BCC607
:10E94000DFFFBFFFBFF7AD217009D3119211921104
:10E95000921192119211921192119211921192119F
:10E9600092119211921192117209B2116E19DFEF88
:10E97000FFFFFEFFFFFFFFFFFFFFFFFFFFFFFFFFA8
:10E98000FFFFFFFFFFFFFFFFFFFFFFFFFFFFFFFF97
:10E99000FFFFFFFFDFFFFFFF308441082C63DFFF35
:10E9A000FFFF28422000F39CFFFFFFFFFFFFFFFF58
:10E9B000FFFFFFFFFFFFFFFFFFFFFFFFFFFFFFFF67
:10E9C000FFFFFFFFFFFFFFFFFFFFFFF7FDF7FEFF6A
:10E9D000BFF76C21FFF7FFFFFFFF725B911973090F
:10E9E000B209B009B20993099211921192119209D8
:10E9F000920992119111FFD6FFFFDFFFBDF74F6320
:10EA00005EE7FFFF9DF7FFF75DBE6E119111920962
:10EA1000B2099209920992099211921192099211E6
:10EA2000721171119111921192196F11B13AFFF790
:10EA3000DFFFDEFFFFFFB7844D094F099109910900
:10EA400091099109910991099109910991099109F6
:10EA50009109910991099109710950094E11BFE776
:10EA6000FFF7FDFFFFFFFFFFFFFFFFFFFFFFFFFFC0
:10EA7000FFFFFFFFFFFFFFFFFFFFFFFFFFFFFFFFA6
:10EA8000FFFFFFFFFFFFDFFFD39C20000842FFFFD7
:10EA9000FFFF24212000B6B5FFFFFFFFFFFFFFFFB0
:10EAA000FFFFFFFFFFFFFFFFFFFFFFFFFFFFFFFF76
:10EAB000FFFFFFFFFFFFFFFFFFFFFFF7FEFFFEFF70
:10EAC0005FE74C21DFEFBEFFFFF76D327111930955
:10EAD000B209D009920993119211921192117209FF
:10EAE000921192119111FFD6FFFFFFFFDDFFBEF7DC
:10EAF000BFF7FDFFDEFFFED64D197111B31192096C
:10EB0000B209B31191097009701190119119B119DD
:10EB100090198F198F19AF19AF1933537EDFDFF7B3
:10EB2000FFFFFEFFDFFFDFEF977CCE21AF19AF11B4
:10EB3000AF11AF11AF11AF11AF11AF11AF11AF11D5
:10EB4000AF11AF11AF11AF118F118F194D197FDFB9
:10EB5000FFF7FEFFFFFFFFFFFFFFFFFFFFFFFFFFCE
:10EB6000FFFFFFFFFFFFFFFFFFFFFFFFFFFFFFFFB5
:10EB7000FFFFFFFFDFFFDFFF96B520002421DFFF4F
:10EB8000FFFF0421200038C6FFFFFFFFFFFFFFFF4C
:10EB9000FFFFFFFFFFFFFFFFFFFFFFFFFFFFFFFF85
:10EBA000FFFFFFFFFFFFFFFFFFFFDFFFBFFFFFFFD5
:10EBB000FCCE8C19DFEFDEFFDFFFF36B7011B411B9
:10EBC000B309B1099111911191119211731194111D
:10EBD000731132097019FFCEDFF7FEFFFEFFFFFF52
:10EBE000DFFFFFFF1EDF4B21AC0870199211720985
:10EBF00074099409CF19FDC6DFF7BFF7BFFFBFFF48
:10EC0000DFF7DFF7DFF7DFF7DFFFDFFFDFFFFFFF14
:10EC1000FFFFFFFFFFFFFFFFFFFFDEFFFFFFFFFF25
:10EC2000FFFFFFFFFFFFFFFFFFFFFFFFFFFFFFFFF4
:10EC3000FFFFFFFFFFFFFFFFDFFFBFFFBFFFDFFFA4
:10EC4000FFFFFFFFFEFFFFFFFFFFFFFFFFFFFFFFD5
:10EC5000FFFFFFFFFFFFFFFFFFFFFFFFFFFFFFFFC4
:10EC6000FFFFFFFFFFFFFFFF38C600002421FFFF6B
:10EC7000FFFFE31820009AD6FFFFFFFFFFFFFFFF13
:10EC8000FFFFFFFFFFFFFFFFFFFFFFFFFFFFFFFF94
:10EC9000FFFFFFFFFFFFFFFFFFFFFEFFDFFFDFFFC5
:10ECA0009CC62C11DFEFFEFFDFFF5CBE6F1952091F
:10ECB0009309B20993099309B30993099309B3110D
:10ECC0007109B1116D11FDD6FFF7FEFFFFFFFFFFC8
:10ECD000FFFFFFFFFFFFDFF79FE79EC652538E192E
:10ECE0007011B4213032DFEFDFF7FFFFFEFFDDFFF1
:10ECF000FEFFFEFFFEFFFFFFFFFFFFFFDFFFFFFF47
:10ED0000FFFFFFFFFFFFFFFFFFFFFFFFFFFFFFFF13
:10ED1000FFFFFFFFFFFFFFFFFFFFFFFFFFFFFFFF03
:10ED2000FFFFFFFFFFFFFFFFFEFFFEFFFEFFFEFFF7
:10ED3000FFFFFFFFFFFFFFFFFFFFFFFFFFFFFFFFE3
:10ED4000FFFFFFFFFFFFFFFFFFFFFFFFFFFFFFFFD3
:10ED5000FFFFFFFFFFFFFFFF59CE2000E318FFFF7B
:10ED6000FFFFC3180000BAD6FFFFFFFFFFFFFFFF42
:10ED7000FFFFFFFFFFFFFFFFFFFFFFFFFFFFFFFFA3
:10ED8000FFFFFFFFFFFFFFFFFFFFFDFFDFFFDFFFD5
:10ED90007CBE8F219DBEFEF7FFFFDFFFB24A4F1101
:10EDA0009211920993099409930993099111B01151
:10EDB0006D119032DAA5FFF7FEF7DEFFFFFFFFFFD0
:10EDC000FFFFFEFFFEFFDEFFFFF7FFF7DFEF1ED7BF
:10EDD0000F325119AF21BFE7FFF7FFFFFFFFFEFF23
:10EDE000FEFFFFFFFFFFFFFFFFFFFFFFDFFFFFFF54
:10EDF000FFFFFFFFFFFFFFFFFFFFFFF7FFFFFFFF2B
:10EE0000FFFFFFFFFFFFFFFFFFFFFFFFFFFFFFFF12
:10EE1000FFFFFFFFFFFFFFFFFFFFFFF7FEF7FEFF14
:10EE2000FFFFFFFFFFFFFFFFFFFFFFFFFFFFFFFFF2
:10EE3000FFFFFFFFFFFFFFFFFFFFFFFFFFFFFFFFE2
:10EE4000FFFFFFFFFFFFFFFF59CE4108C318FFFF81
:10EE5000FFFFC3182000BAD6FFFFFFFFFFFFFFFF31
:10EE6000FFFFFFFFFFFFFFFFFFFFFFFFFFFFFFFFB2
:10EE7000FFFFFFFFFFFFFFFFFFFFFDFFFFFFDFFFC4
:10EE80005DC69119F242FFF7DFFFDFFF9FEF535B93
:10EE90006D116F11D119901190192D116D19936386
:10EEA000BCCEDFEFFFF7DEF7FEFFBEF79FF7FFFFF9
:10EEB000FFF7FFF7FFFFDFF7DFF7FEF7FEFFDFFFEC
:10EEC0003FE72E096F11302A5774198DF88CD88CB2
:10EED000F994F994F994F894389DBCC6FFF7FFFFB4
:10EEE000FFFFFEFFFFFF7EEF9FE7789DF88CF88C19
:10EEF000F88CF88CF88CF88CF88CF88CF88CF88CF2
:10EF0000F88CF88CF88CF88CD88C188D379D7EE7AF
:10EF1000FFFFFFFFFFFFFFFFFFFFFFFFFFFFFFFF01
:10EF2000DFFFFFFFFFFFFFFFFFFFFFFFFFFFFFFF11
:10EF3000FFFFFFFFFFFFFFFF79CE2000C318FFFF99
:10EF4000FFFFE318410859CEFFFFFFFFFFFFFFFF60
:10EF5000FFFFFFFFFFFFFFFFFFFFFFFFFFFFFFFFC1
:10EF6000DFFFDFFFFFFFFFFFFFFFFDFFDFFFFFFF13
:10EF70009DCE71192D091AAEFFFFDFFFFFF7FFF7D6
:10EF8000DFEF3DB67A9D3A9D3EC69FEFFFFFFFFF44
:10EF9000DFF7FFFFBEF7FFFFDDFFFFFFBFF7D37314
:10EFA0008F4290427042D66B9EC6FFF7FFFFDFFF95
:10EFB000FFFF1664B0117109D311D2117211B31988
:10EFC000931193119211B1116E112B01B774DFF7E8
:10EFD000FFFFDEFFFFFFBFEF0D2A2C09B011B111BB
:10EFE000B111B111B111B111B111B111B111B11111
:10EFF000B111B111B111B111921171118E21BDCEAA
:10F00000FFFFFFFFFFFFFFFFFFFFFFFFFFFF9EF779
:10F01000FFFFFFFFFFFFFFFFFFFFFFFFFFFFFFFF00
:10F02000FFFFFFFFFFFFFFFF59CE2000E318FFFFA8
:10F03000FFFF45294108F7BDFFFFFFFFFFFFFFFF6F
:10F04000FFFFFFFFFFFFFFFFFFFFFFFFDFFFBEF739
:10F05000FFFFFFFFFFFFFFFFFFFFFEFFDFFFFFFFE1
:10F060003FDF5111B2196E119EC6BFEFFFFFFEFFC9
:10F07000FFFFBFF7FFFFFFFFDFFFDFFFFFFFFFFF28
:10F08000DFF7BFF7DFF7DFFFFFFFFEFFBFEF503A0D
:10F09000B1197111701191196F19CC29DFEFFFFFB0
:10F0A000BFEF7EB68F1193115309B31193117309FA
:10F0B000B311B409941194115109D119D011BFEFB2
:10F0C000DEF7DFFFDFF7589D4E115109B311B31181
:10F0D000B311B309B309B311B311B311B311B31120
:10F0E000B311B309B309B311940973094E113FDF8A
:10F0F000FFFFFFFFFFFFFFFFFFFFFFFFDFFFDFFF60
:10F10000FFFFFFFFDFFFFFFFFFFFFFFFFFFFFFFF2F
:10F11000FFFFFFFFFFFFDFFFD7BD20002421DFFF40
:10F12000FFFFC739410855ADFFFFFFFFFFFFFFFF9E
:10F13000FFFFFFFFFFFFFFFFFFFFFFFFFFFFFFFFDF
:10F14000BBD61CE7FFFFFFFFFFFFDEFFBFFFFFFF98
:10F15000BFEF9119931191116F193895BEEFFEF71A
:10F16000FFFFFFFFFFFFFEFFFFFFFEFFFFF7FFF7C1
:10F17000BFEFFAADCF4ADDD6DEF7DEF7FFEF513253
:10F1800032097409B209720971114C11DFEFDEEF17
:10F19000FEF75DBE8F19731193119109B111911191
:10F1A000B10991099211730973115109B119FAB595
:10F1B000FFFFBEF7DFF7B14291115301930992119E
:10F1C0009209920992099209921192119211921147
:10F1D00092099209920992099309B209AE199FE71F
:10F1E000FFFFFFFFFFFFFFFFFFFFFFFFBFF7AF7353
:10F1F000FFFFDFFFDFFFFFFFFFFFFFFFFFFFFFFF5F
:10F20000FFFFFFFFFFFFDFFF34A52000A631FFFF58
:10F21000DFFF8A520000718CDFFFFFFFFFFFBFFF9F
:10F220009FF7117CFFEFFFF7FFF7BFEFDFE7DFE7A7
:10F2300017951795DFF7FFFFFFFFDFFFDFFFFEFFEB
:10F24000FFEF4E117311920992119111312A7674C8
:10F25000FECEBFEFDFF7DFF7FFF73FDF3995F24272
:10F260008E116F09B019FFD6DEFFBFFFFFFF7132AD
:10F2700073099101B2097109B0193774DFF79EF76C
:10F28000DEF7D563901972119211921192117211D9
:10F2900074119211B1099209921192117011D894BE
:10F2A000FFFFFDFFDFF7AF19920990019211931153
:10F2B000931193119311931193119311931193112E
:10F2C0009311931193119311930991096B11FFEF0E
:10F2D000FFFFFFFFFFFFFEFFDEFFBFEFBFE7691984
:10F2E0009BC6BFFFBFFFDFFFDFFFBEFFFFFFFFFFCC
:10F2F000FFFFFFFFFFFFFFFF92944108694ADFFF16
:10F30000DFFFCF7B2000AE73FFFFFFFFFFFFDFF7C4
:10F31000FFF70F533995777CD1428C21AB00D1296F
:10F32000D1292F3AFFFFFFFFFEFFDFFFDFFFFEFFC8
:10F33000FFF76E11B319B31193097209D219AF19FE
:10F340004C094C110B092C112C114D11B0219019A5
:10F350009111B2115011FFD6DEFFBFFFFFFF713ACE
:10F3600072099109D3196F11F24ABFF7DFF7FFFF56
:10F37000FFF7312AD2195209920992119211931171
:10F380009311B209B109B109920992117011D78C88
:10F39000FFFFFDFFBFEF4E119309910992099211F2
:10F3A0009211921192119211921192119211921145
:10F3B000921192119211921173097111AD21DFF71F
:10F3C000FFFFFFFFFFFFFFFFFFFFBFF7FDCE527CF8
:10F3D0006B42D8ADFFFFFFFFFFFFFFFFFFFFFFFF07
:10F3E000FFFFDFFFDFFFFFFF8E732000EF7BDFFFFC
:10F3F000FFFF96B520008A52FFFFFFFFDFFFFFF7F8
:10F40000BFEF967C6C196E198E19B142ED29166CFE
:10F41000FEB5B04AFFFFFFFFFFFFDFFFFFFFFEFF6C
:10F42000FFF73353D2199209B31152099209910986
:10F4300050019109B211B319921951117211931916
:10F44000931192119111FFCEDEFFBFFFDFF7703AEB
:10F4500071118F11D121D88C7EEFFFFFDEF7FFEF06
:10F46000B57C6E119211B311930992099211931107
:10F470009311B109B109B209930992117011F78C76
:10F48000FFFFFEFFBFEF4E0993099309B2099209EE
:10F490009209920992099209920992099209920994
:10F4A00092099209920992099311B2191253FFF726
:10F4B000FFFFFFFFFFFFFFFFDFF7FFFFFFFF9EEFF5
:10F4C000FFEFF063D163BFE7DFE7FFF7B48CFFF72F
:10F4D000FFFFBFF7FFFFFFFF694A0000B6B5FFFF60
:10F4E000FFFFFBDE2000C739DFFFFFFFDEFFDEF797
:10F4F000FFFF7DC6D56B1FD7DFE7DFE72D4BFFE7AB
:10F50000DFEF2E53FFF7DEF7FFFFFFFFFFFFFEFFEA
:10F51000FFF77A9DB01972099209B3119109920906
:10F52000B2099309B409B409930993099309921193
:10F53000921172117011FFCEFFFFDFFFFFFF8F42AC
:10F540004E1932533FDFDFFFBDFFFEFFFFFFBCA5BB
:10F550008F119009920993099309B20992117209C6
:10F5600073119209920993097409731171115895D5
:10F57000FFF7FFFFBFEF6E11720993119309920914
:10F5800092099209920992099209920992099209A3
:10F590009209920992099209B311B119F98CFFF7F6
:10F5A000FFFFFFFFFFFFFEF7FFFFDFFF3EEFBFF7AD
:10F5B000DFEF5CB6EF21EF21335336744D42FFF796
:10F5C000FFFFFEFFFFFFFFFFC7390000FBDEFFFF6D
:10F5D000FFFFFFFF4108C318DFFFFFFFDFFFBEFF94
:10F5E0009EFF7FEF5584DFEFDFEF5DDF6A199FBE7F
:10F5F000DCADE910DFF7FFFFFFFFFFFFFFFFFEFFBE
:10F60000FFFF7FE76D11B3199209B109B109B20982
:10F61000B209B309B30993099209920992099211A7
:10F620009109B1117011DECEFFFFDFFFDFFF137410
:10F630007DC6FFF7FFFFDEFFFFFFDFF73A9D5011AA
:10F64000931191119211930992099109B211B31971
:10F650007311721192119311731172196F111ED7D8
:10F66000BEF7FFFFDFF7ED21F11951097211721199
:10F6700092119211921192117211721172117211F2
:10F68000921192119211921171116E117FDFDFF7B9
:10F69000FFFFFFFFFFFFFEFFDDF7DFF7EF5ADCB5EF
:10F6A000CF296F194E11D0216E190B11F473FFF78A
:10F6B000FFFFFEFFFFFFFFFFC3180000BEF7DFFFE5
:10F6C000FFFFDFFF000000007DEFDFFFFFFFDEFF39
:10F6D000DFFFFFFFE710BBA59FC60D32F0294F19D2
:10F6E00012320F3AFFFFDFF7FFFFFFFFFFFFFFFFC1
:10F6F000FFFFFFF70A0992119209B10992099211CD
:10F700009209921192119211911191119111B211CC
:10F710009109B2119011FFCEDFF7DFFFDEFFFFFF8F
:10F72000BFF7FEFFFFFFBFF79FE754536F1171094B
:10F7300072099111921192119109B111D221D32123
:10F7400091199019B011B119D2218F19D142FFF737
:10F75000DFFFDEFFFFFFD78C4C1133329111911187
:10F760009111911191119111911191119111911189
:10F770009111911191119111B0196C11FFEFFEF7D8
:10F78000FFFFFFFFFFFFFFFFFFFFDFEF29118D21CD
:10F79000EB1094639FE7DFEF9FE7FBB5FBBDDFFF57
:10F7A000FFFFFEFFDFFF7DEF00000000FFFFDFFF38
:10F7B000FFFFDFFF8210000038C6FFFFFFFFFFFFE3
:10F7C000FFFFFFF738954C116F190F091FCFFAADE6
:10F7D0009584DFEFDFF7FFFFDFFFFFFFFFFFFFFF96
:10F7E000FEFFFFF7B46392119311931193117311FC
:10F7F000931192117211911191119111921172093B
:10F80000B3117209B1197DBEFFF7BFFFFEFFDEF72E
:10F81000DFFFFDFF7FF7BAAD8E11B2119209B11172
:10F8200090119111921192117011D019733A944262
:10F83000B342D242D242D342D242F46B7FDFFFF7CF
:10F84000FFFFDEFFDFFFDFEFF88C9242D342D342AF
:10F85000D33AD33AD33AD33AD342D342D342D34220
:10F86000D33AD33AD33AD33AF2425574FFF7FEFF74
:10F87000FEFFFFFFFFFFFFFFDFFFFFF7E9087674E2
:10F88000BFE7DFF79DEFFDF7DDEF7EEF9FF7DFFFCF
:10F89000FFFFFFFFFFFF18C60000C318FFFFFFFFB9
:10F8A000FFFFFFFF0C6320009294DFFFDFFFDFFF0D
:10F8B000FFFFFFFFFFFFFABD54849CCEBFFFFDFF9B
:10F8C000FFF7BFEFEE52DDF7FEFFFEFFFFFFDFFFAA
:10F8D000FFFFDEF71ECF2F099211B20992117311AB
:10F8E000731193119211921192119209B1098F091A
:10F8F000EE21D78C9FF7DFFFFFFFFEFFFDF7DFF75D
:10F90000BFF73CBE74326F11B119921173097209BD
:10F91000921172118F19D04AFBBDDFF7DFF7FFFF9D
:10F92000FFF7FFF7FFF7FFFFFFFFFFFFDFFFFFFF1F
:10F93000FFFFFFFFFFFFFFFFDEF7FFFFFFFFFFFF00
:10F94000FFFFFFFFFFFFFFFFFFFFFFFFFFFFFFFFC7
:10F95000FFFFDFF7DFF7FFF7FFFFFFFFFFFFFFFF0F
:10F96000FFFFFFFFFFFFDFFFDFFFFEDEBAADFEEFB1
:10F97000FCF7DEFF9FFFFFFFFFFFFFFFFFFFFFFF23
:10F98000FFFFFFFFBEF7D39C41080C63DFFFFFFFC3
:10F99000DFFFDFFF18C62000494AFFFFFFFFFFFF20
:10F9A000FFFFFEFFFFF79FEFDFF7FFF7BFF7DFEF88
:10F9B0009FDF587C6B19FFEFFFF7FFFFFFFFDFFFB3
:10F9C000FFFFFEFFDFE7CF21921192099311931100
:10F9D000931192119211921192117009AF11198520
:10F9E000DFEFBFEFFFFFFFFFDFF7FFF7DFEFBBAD9D
:10F9F000EF296F19B21190097009921173119311C7
:10FA000091098F195674BFEFDEF7FFFFFFFFFEFF6E
:10FA1000FEFFFFFFFFFFFFFFFFFFBEFFDEFFFFFF59
:10FA2000FFFFFFFFFFFFFFFFFFFFFFFFFFFFFFFFE6
:10FA3000FFFFFFFFFFFFFFFFFFFFFFFFFFFFFEFFD7
:10FA4000FFFFBFF7FFFFDEFFDEFFFFFFFFFFFFFF50
:10FA5000FFFFFFFFFFFFFEFFBEF7B052924A926B1F
:10FA6000DFF7DFFFDFFFFFFFFFFFFFFFFFFFFFFF0E
:10FA7000FFFFFFFFFFFF494A000038C6DFFFDFFF3F
:10FA8000FFFFBEF77DEF00004108BEF7FFFFFEFF5E
:10FA9000FEFFFEFF7DE7B8ADFFF7DFEF5B958C194A
:10FAA0006D11D021EF213BB6DFF7FFFFFFFFDFFF36
:10FAB000FFFFFDF7FFF7D88C7111731192119211AE
:10FAC0009211921193117209B1112C117DC67FE729
:10FAD000FFFFFFFFFFF7DEE7FFEF5A95EC00B119DC
:10FAE000721151097009B109B20993119411920967
:10FAF0009011367CFFF7FEF7FEF7FFF7FFF7FFF7F1
:10FB0000FFF7FFFFDFFFDFFFDFFFDFFFBEFFFFFFCE
:10FB1000FFFFFFFFFFFFFFFFFFFFFFF7FFF7FFFF05
:10FB2000FFFFFFFFFFFFFFFFFFFFFFFFFFFFFFF7ED
:10FB3000FFFFFFFFFFFFFFFFDEFFFFFFFFFFFFFFF6
:10FB4000FFFFFFFFFFFFDDF7DEEF0B32FFF7FFF7F1
:10FB5000FFFFFFFF5EEFFFFFFFFFFFFFFFFFFFFF66
:10FB6000FFFFFFFFDFFF610820007DEFFFFFFFFFCA
:10FB7000DFFFDFFFBEF7821020005DEFDFFFFFFF3A
:10FB8000FFFFFFFFDFF7EC314F3A6B118D19AE210C
:10FB9000945BDFC67EDF2F5BBFF7FFFFFFFFFFFF3A
:10FBA000FEFFFEFFDEF75EDF8F1973117109B211E0
:10FBB000B10992119211B2112D095DBEDFFFDEFF76
:10FBC000DFFFFFF73DD776746C11B01992117309FE
:10FBD0009301B3099109B109B2097309520991114D
:10FBE000913A9FF7DFF7DDF7FFF77BBE9463503262
:10FBF000703A703A703A503A4F3A9263DDCEFFFF56
:10FC0000FFFFFEFFFFFFDFF7D78C8E3A6F3A703AA7
:10FC1000703A703A703A703A703A703A703A903A74
:10FC2000703A713A9042AD4A7EEFFFFFFFFFFFFF4F
:10FC3000FFFFFFFFFFFFFFF75BB65795BEDFFEF745
:10FC4000FDF7FFFFDFFFFFFFFFFFFFFFFFFFFFFFEE
:10FC5000FFFFFFFF5DEF00008210DFFFFFFFFFFFF0
:10FC6000FFFFDFFFDFFFEB5A2000D39CFFFFFFFF0A
:10FC7000FFFFFFFFFFF7157CCE29B5633CBE736322
:10FC80009DC69FE79FEF6B4ABEF7FFFFFFFFFFFF99
:10FC9000FEFFDEF7FFFFFFFF16749019B219B211D5
:10FCA0009209920971116F111895DFF75DF7BEFF88
:10FCB0007FEFB3632B116F119111B3119309930966
:10FCC000B209B109B209B209B309930991118E19A8
:10FCD000FECEDFFFFFFFFFF735746E19701991112B
:10FCE00092119211921192119119B1191122BFF72B
:10FCF000FFFFFEFFFFFF77846E19CF19911191115D
:10FD0000910991099109910991119111911191090B
:10FD1000920971096F19146CFFFFFFFFFFFFFFFFCE
:10FD2000FFFFFFFFFFFFFFF713538D21703A9AA5E6
:10FD3000BFE7FFF7DFF7BFEFBFEFFFF7FFFFFFFF03
:10FD4000FFFFDFFFD39C20000C63FFFFFFFFFFFFDF
:10FD5000FFFFFFFFDFFFB6B520000421DFFFFFFF3D
:10FD6000FFFFFFFFFFF79CCE157CBFEFFFF7F9B554
:10FD7000968CBEEF7EE7548439C6FFFFFFFFFEFF7F
:10FD8000FFFFFFFFDFFFDFFF7FE74C11B019920994
:10FD90007309B31191112F32BFF7DFF7FFFF9FEF08
:10FDA00070424F119211921192119309921192097E
:10FDB000B109B1099211B209930952017011B463EA
:10FDC000DFF7FFFFBFF7FBAD4E11721172119211F9
:10FDD0009209920993097309931172099111FBB564
:10FDE000FFFFFDFFFFF7AF29711171099209930918
:10FDF0009309930993099309930973097309930963
:10FE00009309B3112D11BFE7FFFFFFFFFFFFFFFFB6
:10FE1000FFFFFFFFFFFFBFEF135314532E192F19DE
:10FE2000AF21124B3FD77FE7B58CFFF7FFFFFEFFF7
:10FE3000FFFFDFFFA2100000B6B5FFFFFFFFFFFFCF
:10FE4000FFFFFFFFFFFF9EF741080000FFFFFFFFDE
:10FE5000FFFFFEFFFFFFFFFF0A427FEFFFF7BDCE70
:10FE6000A7106A42BCCE525BBFE7FFF7FFFFFEFF61
:10FE7000FFFFFFFFBFF7FFFFFFF7F78C6E1193093E
:10FE8000B50952014E09599DDEFFDFF7FFF7725B9E
:10FE90006F11F20095119209910971099111921156
:10FEA00092117311931193099309B311AF191FD7CD
:10FEB000FEF7BDF7BFEFAD21B2199411B31191094F
:10FEC000B109B1119111721172115109B219D7947E
:10FED000FFFFFDFF9FEF2E1994195201921192110D
:10FEE000921192119211921192117211921192111A
:10FEF00092110E09D88CFFFFFEFFFFFFFFFFFFFFEF
:10FF0000FFFFDFFFFFFF369D9BC65ED7FFEF3CB6CE
:10FF1000AE19AF196D112A19BCCEFFF7FFFFFFFF15
:10FF2000FFFFBEFF000061087DEFFFFFFFFFFFFF47
:10FF3000FFFFFFFFFFFFFFFF28422000D39CDFFFF2
:10FF4000FEFFFEFFFFFFFFF7D273DDD6BFF75ACEED
:10FF5000DFFFDFFFFFF7DEEF925B5FE7DFF7DEFF3C
:10FF6000DEFFDFFFDFFFFFFFFFFFFFFFAC21B1116F
:10FF7000940172016C119FEFFFFFBFEF1DCF8E1137
:10FF80009111931192099211921192119211921161
:10FF9000921192119009920993097011F14AFFF799
:10FFA000DEFFFFF7388D8F119209930992099211A4
:10FFB0009211921192119211921192117109189548
:10FFC000FFFFFFFFBFEF4E119211720992119211C4
:10FFD0009211911191119111911191115209731175
:10FFE0007111CD21DFF7DFFFFFFFFFF7FFFFFFFFFD
:10FFF000BFFFDFFFBFEFEA29BDC6BFEFDFFFBFF7DF
:020000040801F1
:10000000FFF79FDF53742D3ABFEFFFFFDEF7FFFFCF
:10001000BFFFF4A461080842DFFFFFFFFFFFFFFFFF
:10002000FFFFFFFFFFFFFFFF75AD2000C318BFFFFD
:10003000FFFFFEFFFFFFBEEFDCCE8A29706BDFFF04
:10004000DFF7BFF7BEEF5AB6F0295463FFFFDEFFBC
:10005000DEFFDFFFDFFFFFFFFFFFFFFFDECE6E11E2
:100060007201D3110E2ADFF7DFFFDFF77353B011F0
:1000700072097209910992119211921192119211C1
:1000800092119211B109930993118F113ED7DFF7A5
:10009000FFFFDFEFAC1991119309930992099211B7
:1000A000921192119211921192099211710918955F
:1000B000FFFFFFFFBFEF4E099209721192119211DB
:1000C00092119211921192119211710952095209D1
:1000D0004E111ED7BFEFBFF7DFF7FFFFFFFFFFFF98
:1000E000DFFFDFF73BBEDDCED06B9EEF9EFFBEFF96
:1000F000DFFFFFFF5EE7127CFFF7FFFFFFFFFFFF61
:10010000FFFFC420200096B5DFFFFFFFFFFFFFFFCA
:10011000FFFFFFFFFFFFFFFFBEF761082000FCE6C7
:10012000FFFFFEFFDEF7FFF7FFF77FE7BFEFFFFF01
:10013000FFF75FE7AE4AD46BB221AC29FFFFFFFFA8
:10014000FFFFFFFFFFFFFFFFFEFFBEF7DFF7B87CFB
:100150007009D111D463FFFFFFFFDFEF8E199211F9
:1001600073097209910992119211921192119211CF
:1001700092119209930993115011913AFFEFFEFFEA
:10018000DEFF1CB64E117209930993099209921170
:10019000921192119211921192099211710918956E
:1001A000FFFFFFFFBFEF4E099209721192119211EA
:1001B0009211921192119311931193097309901155
:1001C000B8849EE7FFFFFFFFFFFFFFFFFEFFFEFF7C
:1001D0009EF77FE70A111FD7DFEFFFFFBDFFFDFF8F
:1001E000BDFFFFFFDFFFDFF7FFF7FFFFFFFFDEFFD2
:1001F0001CE721088210DFFFFFFFFFFFFFFFFFFF6B
:10020000FFFFFFFFFFFFFFFFFFFF494A82100C6364
:10021000DFFFBEF7BDF7DEF7FFF7FFF7BFEFDFF752
:10022000127CA9295FDF1CAE701179A57EEFFFFF5C
:10023000FFFFFFFFFFFFFEFFFEFFFEFFFFFFBFE729
:1002400091324D09D78CBFF7DEFFFFF76E195309C6
:1002500074119211900992119211921192119211AE
:100260009211920993097209D0215DDFFFFFFFFF10
:10027000DFF7AE215011941193099209920992115E
:10028000921192119211921192099211710918957D
:10029000FFFFFFFFBFEF4E09920972119211920901
:1002A0009209931193119311931194111422B13A5D
:1002B000FFEFFFFFDDFFDFFFFFFFFFFFFEFFFEFFA2
:1002C000BFF77584AE294C19F56BDFEF9FEFFFFF89
:1002D000FFFFBFFFFFFFDFF7FFFFFEFFFFFFFFFF97
:1002E000EC622100C739DFFFFFFFFFFFFFFFFFFFC9
:1002F000FFFFFFFFFFFFDFFFDFFF3CE700006210B3
:100300007EEFDFFFFEFFFEFFFEFFFEFFAB29CD31DC
:100310003BBEDFEFBFE7745B8D119EE7BFF7DFF7F2
:10032000DFF7FFFFFFFFFFFFFFFFFEFFFDFFFFFF08
:100330009FE70D2A379DDFFFFFFFDFF70C097311E1
:1003400074119211B1119211921192119211921194
:1003500092119209141AB019735BDFF7FFFFFFFFC8
:10036000BAAD901972117411930992099209920908
:10037000921192119211921192099211710918958C
:10038000FFFFFFFFBFEF4E0992097211B109B209D9
:10039000920993119311921171117111F0219FE73C
:1003A000FFF7FFFFFFFFFFFFFFFFDFFFDFFFDFFFC5
:1003B0009FEFD26BFFD63032B0212C113A959FE7D8
:1003C000DFEF5EE7DFFFFFFFFFFFFFFFFFFF9DF7B0
:1003D00082102100DBDEFFFFFFFFFFFFFFFFFFFFBB
:1003E000FFFFFFFFFFFFFFFFDFFF9EF74529210013
:1003F0009294DFFFBEF7FFFFFFFFFFFFFAB59AAD54
:10040000FFF7FEF7BFE76D19B03AFFF7FFFF758CF6
:100410007EE7FFF7FEFFFFFFFFFFFFFFFDFFFEFF91
:10042000BFEF5FDF906BFFFFFFFFFFF7CD21911163
:1004300093119211911192119211921192119211A4
:10044000921192116F11CE29BFEFFFFFFFFFBFEF97
:100450000F327111931193119211B109B1099209DF
:10046000921192119211921192099211710918959B
:10047000FFFFFFFFBFEF4E0992097211B109B209E8
:1004800092099309720991119011CE215FDFFFF754
:10049000BEF7FFFFFFFFFFFFFEFFDFFFBFF7DFF746
:1004A0001ABEBFEFBFEFDFEF1CB630326E11CF21A7
:1004B000D78C5063DFFFFFFFFFFFFFFFBEFF718C94
:1004C00041080421FFFFDFFFFFFFFFFFFFFFFFFFEA
:1004D000FFFFFFFFFFFFFFFFFFFFFFFF9AD6200098
:1004E000A210BEF7FFFFFFFFDFFFDFFFBEEF1DDF44
:1004F000BEEFFCF73BBE2E19BBA5DFEFDFF7D794AD
:10050000547CFFF7FEFFDFFFDFFFFFFFDDFFFDFF96
:10051000DFF79FEF7EE7FFFFFFFFFFF7188DAF11BB
:1005200092119211921192119211921192119211B3
:1005300092119111AD191ED7BFF7FEFFFFFF9784EF
:1005400070199111720973119211B111B1099309C6
:1005500092119211921192119209921171091895AA
:10056000FFFFFFFFBFEF4E0992097211B209B209F6
:10057000920992095109B0113022DDC6DFEFDDF793
:10058000BDFFDFFFFFFFFFFFFEF7FFFFFFFF59ADDE
:1005900049210A3ABEEFBDF7DEF7DFEFBCA52D110A
:1005A000AD29FEDE9FF7DFFFDFFFDFFFBEF7A318F9
:1005B0000000BAD6FFFFDFFFFFFFFFFFFFFFFFFFD7
:1005C000FFFFFFFFFFFFFFFFFFFFFFFFFFFF2421F4
:1005D000410896B5FFFFBFF7FFFFBEF7DEFFFEFF46
:1005E000DDEFFFEF3032B0299FDF5FE78C31D99C20
:1005F0007163FDD69EF7DFFFBFFFFFFFFFFFFFFF29
:10060000FFFFFFFFFFFFFFFFDFFFFFFF7FE7CE29B9
:100610006F11921193119209530974119311711171
:100620004E112F325EEFDFFFFFFFBFEF1ECF4E09EF
:10063000B209921192119211921192119211920992
:1006400092119211921192119209921171091895B9
:10065000FFFFFFFFBFEF4E11721172119109B20936
:10066000B3099209B1198D213EDFDFF7FFFFFFFFCC
:10067000FFFFFFFFFFFFFFFFFEFFBEF73CE7B48C6D
:10068000FFF7FFF7FFFFDFF7BFE7FFEFFFF7DDD66D
:100690001584BFFFFFFFBFFFBEF7FFFFF49C2000E4
:1006A0004529BEF7FFFFFFFFFFFFFFFFFFFFFFFF33
:1006B000FFFFFFFFFFFFFFFFFFFFFFFFFFFFF7BD94
:1006C00000000000FFFFFFFFDFFFFFFFFFFFFEFF57
:1006D000FEF7DFE72E11B34AD36B2E5BBFEFFFF7B8
:1006E000FFEFBFEFDFF7BDFFFEFFFFFFFFFFFFFFE5
:1006F000FFFFFFFFFFFFFFFFDFFFFFFFFFFF7FDFCA
:1007000053536E1190196F116F116F19D0219142CF
:100710007DBEDFF7FFFF9EF7FFFF5EDFCE21B11149
:1007200092019211921192119211921192119211C1
:1007300092119211921192119209921171091795C9
:10074000FFFFFEFFBFEF4D1172117211931172097D
:100750009209B1112F2A5FDFBFF7FFFFFFFFFFFFF5
:10076000FFFFFFFFFFFFFFFFBFF7DFF771635DBE16
:100770009FE73DB6345B4D192C19F36BFFF75EE72D
:100780005DE7FEFFDDFFFFFFDFFF9EF700002000BB
:10079000F7BDFFFFFFFFFFFFFFFFFFFFFFFFFFFFB3
:1007A000FFFFFFFFFFFFFFFFFFFFFFFFFFFFDFFF79
:1007B000A6312000CF7BFFFFFFFFFFFFFFFFDFFF22
:1007C000DFF7589D4C19D24ABDCEFEEFFEF7FFEF82
:1007D0003AB6779DDDCEBFEFFFFFFFFFFFFFFFFFC4
:1007E000FFFFFFFFFFFFFFFFFEFFFEFFFEFFFFF724
:1007F000BFEF5FDF5BBEB9AD1BB6FDD6BFEFFFF746
:10080000FFF7FFF7FFFFDFF7DECE0F2A4F09B20930
:10081000B2099211921192119211921192119211A8
:1008200092119211921192119209921171091795D8
:10083000FFFFFEFFBFEF4D0992097209941972196B
:100840002F113353DFEFBEEFDDFFFEFFFFFFFFFF92
:10085000FFFFFFFFFFFFFFFFDFF79FE7D88C6E1959
:10086000912150192F11D0290F320B19DBB5DFF769
:10087000FDFFFDFFDEFFFFFFDFFFCF7B20008631A6
:10088000FFFFFFFFFFFFFFFFFFFFFFFFFFFFFFFF78
:10089000FFFFFFFFFFFFFFFFFFFFFFFFFFFFDFFF88
:1008A00038C6410820005DEFFFFFFFFF9EFFFFFFFE
:1008B000DFF7327C9DC6DFEFDFEFFFF71ECFAC2105
:1008C0006D192C118C216E3ABFEFFFFFFFFFFFFF68
:1008D000FFFFFFFFFFFFFFFFFFFFFEFFFEFFFEFF2B
:1008E000FFFFBFF7DFFFFFFFFFFFFEFFFEFFFEFF83
:1008F000FFFFFFFFFFEFFBAD6D1170117109920952
:1009000092019211921192119211921192119211DF
:1009100092119211921192119209921171091795E7
:10092000FFFFFFFF9FEF4E099209720971194E19DF
:100930005A9D9FE7FFF7DEF7BDF7FEFFFFFFFFFFC2
:10094000FFFFFFFFFFFFFFFFFEF7FEF7FFF7B36BB1
:100950008C2112533DB6DFE7DFEF1574B794FFFF2C
:10096000DEFFDFFF9FFFDFFF5DEF2000410859CE74
:10097000BEF7DFFFFFFFFFFFFFFFFFFFFFFFFFFFF0
:10098000FFFFFFFFFFFFFFFFFFFFFFFFFFFFDFFF97
:10099000FFFF494A0000494ABEF7FFFFFFFFFEFF85
:1009A000FFFFFFFFFFF7FFF7FFF79FE72D190C1180
:1009B000BA8C5FDFFFF75EDF0D53FCD6BEF7FFFF9B
:1009C000FFFFFFFFFFFFFFFFFFFFFFFFFFFFFFFF37
:1009D000FFFFFFFFFFFFBFFFBEFFDFFFFFFFDFF7F0
:1009E000DFF71ED7F13A6D09B119920993099309FE
:1009F00092099211921192119211921192119211E7
:100A000092119211921192119209921171091895F5
:100A1000FFFFDFFFBFEFED08B119B1192E3A5FE715
:100A2000BFF7FFFFFFFFFFFFDFFFFFFFFFFFFFFF3E
:100A3000FFFFDFF7FFF7BFEF5EE75FEFBFF7DFFF17
:100A4000DFFFDFF7FFF7BFE7DFEF315B1FDFFFFF00
:100A5000FEFFFFFFDFFFDFFF494A82102842FFFF52
:100A6000DFFFFFFFFFFFFFFFFFFFFFFFFFFFFFFFB6
:100A7000FFFFFFFFFFFFFFFFFFFFFFFFFFFFFFFF86
:100A8000DFFFBEF70000000075AD9EF7FEFFFFFF21
:100A9000FFFFFFFFFFFFFFFFFFFF6F3A8D199AA5D2
:100AA000BFEFDFF7BDEFDEF77BC6B9AD9FEFDFF736
:100AB000FFFFFFFFFFFFFFFFFFFFFFFFFFFFFFFF46
:100AC000FFFFFFFFFFFF9EF7FDDE9CCEFAB5B5638B
:100AD000AF214E117011D2195101B3099309920936
:100AE00092119211921192119211921192119211EE
:100AF0009211921192119211920992117109189505
:100B0000FFFFDFFFBFF74B19CE29BCA5FFF7FFFFA3
:100B1000BFFFDFFFFFFFFFFFFFFFFFFFFFFFFFFF45
:100B2000FFFFBFEF57A548216B21CE313FE7BFFF45
:100B3000BFFFDFFF56ADB694946B5AA5DFF7FFFFFA
:100B4000FDFFFDFFFDFF96B520002000BEF7DFFF93
:100B5000FFFFFFFFFFFFFFFFFFFFFFFFFFFFFFFFA5
:100B6000FFFFFFFFFFFFFFFFFFFFFFFFFFFFFFFF95
:100B7000DFFFDFFF34A50000C3189EF7FFFFFFFF74
:100B8000FFFFFFFFFFFFFFFFDFF78C215353DFF76E
:100B9000BEF7FEFFBEFF9EF77FEF4A195FE7BFF784
:100BA000FFFFFFFFFFFFFFFFFEFFFFFFFFFFFFFF56
:100BB000FFFFFFFFFFFFBEEF1695EE314F119119BA
:100BC0009111B21194117309B309B20992099211EA
:100BD000721192119211921192119211921192111D
:100BE0009211921192119211920992117109378DFD
:100BF000FFFFFEFFBEF757A5BFEFFFFFBEF7DFF712
:100C0000DFFFBFFFDFFFFFFFFEFFFEFFFFFFFFFF76
:100C1000BFF7738498ADFED6787C8E19757CDFF7AC
:100C2000FEFFBEF7DFFFBAB51695FEF79CEFFFFF9C
:100C3000DFFFFFFF5BEFC318410814A59EF7FFFF1E
:100C4000DFFFDFFFFFFFFFFFFFFFFFFFFFFFFFFFF4
:100C5000FFFFFFFFFFFFFFFFFFFFFFFFFFFFFFFFA4
:100C6000FFFFFFFFFFFFA63120000842FFFFDFFF6D
:100C7000BFFFDFFFFFFFDFFF7EF78D215EBEDFF7E7
:100C8000BDF7CB62DFFFDFF7159D548C7FE7B4849F
:100C9000BFEFFFF7FFFFFEFFFEFFFFFFFFFFFFFFBE
:100CA000FFFFFFFFFFFFFFFFFFFFDFEF7DBED14232
:100CB0002C09B019721192119209930993097309C1
:100CC0009409B20992099209920992099209B2090A
:100CD0007309730972099211911191197011F594A8
:100CE000FFFFBEF7FFFFFFFFFFFFFFFFFFFFFFFF5D
:100CF000FFFFFFFFFFFFDEFFFFFFDEFFFFFFDFEF76
:100D0000178DED299FE7DFF7DFEFAF3A9995FFEFFA
:100D1000FFEFFFF7FFF7FFF7FFF7FEF7FEFFDFFF3D
:100D2000BFFFBFFFE7394108A631DFFFFFFFFFFF2D
:100D3000FFFFFFFFFFFFFFFFFFFFFFFFFFFFFFFFC3
:100D4000FFFFFFFFFFFFFFFFFFFFFFFFFFFFFFFFB3
:100D5000FFFFFFFFFFFF5DEF41084108F39CFFFF2E
:100D6000DFFFFFFFFFFFFFFFFFFFF473FBAD3DDF82
:100D7000BFEFDBB5D473FFEFBFEFFFFFFFF7B9A500
:100D80008B199ECEFFFFDEFFFFFFFFFFFFFFFFFF80
:100D9000FFFFFFFFFFFFFFFFFFFFFFFFFFF7FFF773
:100DA0005FDFDCAD91324D096E11122270095001E6
:100DB000D311D419931152097209720952095209B7
:100DC0009111911190116E114D11703ADDA57EEFC8
:100DD000DFFFFFFFFFFFFFFFFFFFFFFFFFFFFFFF43
:100DE000FFFFFEFFFFFFFFFFFFFFFFFFDFF739B64B
:100DF0008B19AE19CE29DFEFDFEF703A4C1130328C
:100E000017743EBE315B77ADFFFFFFFFFFFFFFFFB3
:100E1000DFFFF39C000041083CE7BEF7FFFFFFFF48
:100E2000FFFFFFFFFFFFFFFFFFFFFFFFFFFFFFFFD2
:100E3000FFFFFFFFFFFFFFFFFFFFFFFFFFFFFFFFC2
:100E4000FFFFFFFFFFFFFFFF96B541082000BAD666
:100E5000FFFFFFFFDFFFFFFFDFFF9FEF0A2A5ED7E5
:100E6000FDC6B0210D1114749FEFDFF7BFEF6E3A8E
:100E70004C19946B169DDFFFFFFFFFFFFEFFFEFF87
:100E8000FFFFFFFFFFFFFFFFFEFFFEFFFEFFFFF77D
:100E9000DFF7BFEFFFF7DFEFFECE178DD463AF3A7A
:100EA0002F2AD021AF198F198F198F19B021D02176
:100EB000B03AD3637895DDCEDFEFFFF7FFF7DFFFC2
:100EC000FFFFFFFFFFFFFFFFFFFFFFFFFFFFFFFF32
:100ED000FFFFFFFFDFFFFFFFDFFFDFFF758CFDD6AA
:100EE000BFEF167C2C1991429884D14A513ACF29F0
:100EF0006E216D21FDBDDFFFFFFFFFFFFFFFBEF78E
:100F0000BAD6C318410855ADDFFFFFFFFFFFFFFF53
:100F1000FFFFFFFFFFFFFFFFFFFFFFFFFFFFFFFFE1
:100F2000FFFFFFFFFFFFFFFFFFFFFFFFFFFFFFFFD1
:100F3000FFFFFFFFFFFFBEF7DFFF2C630000C318BA
:100F40005DEFFFFFFFFFFFFFFFFFDFFFBFF70F5367
:100F5000AD212D115CBE9BCEDEF7DFEFB56B2D19F9
:100F6000B88CDFEF147C57A5DFFFFFFFFFFFFEFF0C
:100F7000FFFFFFFFDFFFFFFFFFFFFEFFFEFFFEFFA4
:100F8000FFFFDFFFFFFFDFFFFFFFDFFFFFF7DFF701
:100F9000FFF7DFEFDFEFFFEFFFF7FFF7FFEFDFEF29
:100FA000DFEFFFF7FFF7FFF7FFFFFEFFFEFFFFFF9B
:100FB000DFFFFFFFFFFFFFFFFFFFFFFFFFFFFFFF61
:100FC000FFFFFFFFDFFFBFF77BCE8A29169DF17B76
:100FD0009FF79FEF9884AF197132BFE7BFE77FDFBC
:100FE0003EDFBFEFFFFFFFFFFFFFFFFFFFFF5DEFF4
:100FF000C3180000CB5A9EF7DFFFDFFFFFFFFFFFA4
:10100000FFFFFFFFFFFFFFFFFFFFFFFFFFFFFFFFF0
:10101000FFFFFFFFFFFFFFFFFFFFFFFFFFFFFFFFE0
:10102000FFFFFFFFFFFFDFFFBEF7DFFF2421000010
:10103000C739FFFFFFFFDFFF9EF7DFFFBFFFBFF7EF
:101040009AADFED6FFF7FDFFFEF71BAEB029324288
:10105000DFEFDFEF777CEE317FEFBFEFFFF7DFF7FA
:10106000DEF7FFFF9FFFDFFFFFFFFFFFFFFFFFFF39
:10107000FFFFFFFFFEFFFEFFFFFFFFFFFFFFFFFF82
:10108000FFFFFEFFFEFFFEFFFEFFFEFFFEFFFFFF76
:10109000FFFFFFFFFFFFFFFFFEFFFEFFFEFFFFFF63
:1010A000FFFFFFFFFFFFFFFFFFFFFFFFBEF7DFF7C1
:1010B000DFF7DFFF9FEF347CB36B9FE7BFEF9EF757
:1010C000BEF79EF7DFEFB8842C09903ADFEF5BBEE6
:1010D000FFF7FEFFFCFFFDFFBEF7BEF7DFFF863127
:1010E00020002421FFFFFFFFFFFFFFFFFFFFFFFFA7
:1010F000FFFFFFFFFFFFFFFFFFFFFFFFFFFFFFFF00
:10110000FFFFFFFFFFFFFFFFFFFFFFFFFFFFFFFFEF
:10111000FFFFFFFFFFFFFFFFFFFFBEF7BEF7410826
:1011200000008A52DFFFDFFFFFFF9EFFDFFFDFFFD0
:10113000DFFFFFFFFFFFDEF75ED78B19AF293BBE56
:10114000305B57956C190E327FEF6D423BB6DFEF87
:101150009FEFFFFF7DF7FFFFFFFFFFFFFFFFFFFF99
:10116000FFFFFFFFFFFFFFFFFFFFFFFFFFFFFFFF8F
:10117000FFFFFFFFFFFFFFFFFFFFFFFFFFFFFFFF7F
:10118000FFFFFFFFFFFFFFFFFFFFFFFFFFFFFFFF6F
:10119000FFFFFFFFFFFFFFFFFFFFFFFFDFF7FFFF87
:1011A0007EE75EDF6921AC217BA5DFEFBFEFD8B51D
:1011B000B8B5DEF7FFF7DFEF38742D11EA109DCEDA
:1011C000FFFFFFFFFEFFDEFFDFFFFFFFAA52410828
:1011D0006108BEF7DFFFFFFFFFFFFFFFFFFFFFFF1D
:1011E000FFFFFFFFFFFFFFFFFFFFFFFFFFFFFFFF0F
:1011F000FFFFFFFFFFFFFFFFFFFFFFFFFFFFFFFFFF
:10120000FFFFFFFFFFFFFFFFBEF7FFFFBEF7BAD6EE
:10121000821020008E73DFFFFFFFFFFFFFFFFFFF45
:10122000DEFFFFFF73849CC6F1216E115FDF7FE755
:10123000D694503A73533BAEDFEFBAA5ED292E3268
:101240005BC6DEF7FDFFFFFFFFFFFFFFFFFFFFFFB6
:10125000FFFFFFFFFFFFFFFFFFFFFFFFFFFFFFFF9E
:10126000FFFFFFFFFFFFFFFFFFFFFFFFFFFFFFFF8E
:10127000FFFFFFFFFFFFFFFFFFFFFFFFFFFFFFFF7E
:10128000FFFFFFFFFFFFFFFFFFFFFFFFDFF7BCCE0A
:10129000F16BB584BFE7EF29AF213FD7DCD60E3A1B
:1012A0000D3ABFEFFFF7BFF7DFEF6B19BEC65FE781
:1012B000FFFFFFFFFFFFFFFFDFFF2C630000610860
:1012C000DBDE7DEFBEF7FFFFFFFFFFFFFFFFFFFF4E
:1012D000FFFFFFFFFFFFFFFFFFFFFFFFFFFFFFFF1E
:1012E000FFFFFFFFFFFFFFFFFFFFFFFFFFFFFFFF0E
:1012F000FFFFFFFFFFFFFFFFFFFFFFFFFFFFDFFF1E
:1013000018C6200041086D6BDFFFFFFFDFF7FEFF0F
:10131000DEFFBEF7BFF752634E193A95BFE7FFEF06
:10132000D88C2E19DFE7DFE7BFEF0E326D199FDF94
:10133000DFF7DEFFF8C5FFF7DFF7FFFFFFFFFEFF78
:10134000FFFFFFFFFFFFFFFFFFFFFFFFFFFFFFFFAD
:10135000FFFFFFFFFEFFFEFFFEFFFFFFFEFFFEFFA2
:10136000FFFFFFFFFFFFFFFFFFFFFFFFFFFFFFFF8D
:10137000FFFFFEFFFFFFFFFFFFFFDFF75DE7738467
:101380000E32BFE7FFEF9CC62C110F32AE423ED7A4
:10139000BFEFBFEFAD52DFF73DDF7AC6DFF7DEF715
:1013A000FFFFDFFFDFFFFFFF8E736108410859CEAB
:1013B000DFFFDFFFFFFFFFFFFFFFFFFFFFFFFFFF7D
:1013C000FFFFFFFFFFFFFFFFFFFFFFFFFFFFFFFF2D
:1013D000FFFFFFFFFFFFFFFFFFFFFFFFFFFFFFFF1D
:1013E000FFFFFFFFFFFFFFFFFFFFFFFFFFFFFFFF0D
:1013F000DFFFF7BD610820006D6BFFFFFEFFDEFF22
:10140000DEFFFFFFDFFFDFFF17A5505BFFEF3FCFE2
:101410006E19EC10FFF7DFEFB9A54D21D994FFF756
:10142000FEFFFFFF5CCE6B21379DFFFFFFFFFFFF3D
:10143000FFFFFFFFFFFFFFFFFEFFFFFFFFFFFFFFBD
:10144000FEFFFFFFFEFFFEFFFEFFFFFFFFFFFEFFB1
:10145000FFFFDFFFFFFFDFFFBDF7FFFFBFF7BFFFAE
:10146000FFFFFFF77FE779A52D3A7EE7FFFFFFF744
:10147000303AFFF7FFFFDFF7567C4E115A9DBFE76A
:101480009FEFBFF74E4A57A5FFFFFFFFFFFFFFFF8C
:10149000DFFFFFFFDFFF8E730000200059CEFFFF4C
:1014A000FFFFFFFFFFFFFFFFFFFFFFFFFFFFFFFF4C
:1014B000FFFFFFFFFFFFFFFFFFFFFFFFFFFFFFFF3C
:1014C000FFFFFFFFFFFFFFFFFFFFFFFFFFFFFFFF2C
:1014D000FFFFFFFFFFFFFFFFFFFFFFFF9EF7DFFFA5
:1014E000FFFF9EF7D7BD410841082D63DFFFBEF720
:1014F000FFFFFFFFFFFFDFFF7FEFDDD6E510AA2133
:101500004C19946BBFF7FFF70F320B195FEFFFFF1A
:10151000FEFFBFF75EE7AF4A9FEFBFF7FFFFFFFF9A
:10152000FFFFFFFFFFFFFEFFFEF7FFF7FFFFFFFFDD
:10153000FEFFFEFFFEFFFEFFFFFFDFFFDFFFDFFF1F
:10154000FEFFFFFFBFF7DFF7FFFF5EE7DFF79EEF6E
:1015500078A5B26B0A192D19F352DFEFFFFFFFF7E1
:101560002E3AFFF7BCF7FEFFFFF790210D097FDF52
:101570007FE76F4A768CDFF7FFFFFFFFDFFFFFFF9C
:10158000DFFFFFFF8E734108000018C6FFFFFFFF5B
:10159000FFFFFFFFFFFFFFFFFFFFFFFFFFFFFFFF5B
:1015A000FFFFFFFFFFFFFFFFFFFFFFFFFFFFFFFF4B
:1015B000FFFFFFFFFFFFFFFFFFFFFFFFFFFFFFFF3B
:1015C000FFFFFFFFFFFFFFFFFFFFFFFFDFFFDFFF6B
:1015D000BEF7DFFFFFFF18C6A21021008A52BEF738
:1015E000DFFFFFFFFFFFFFFFFFFF9FF77EE75FDFEC
:1015F0007FE7FFFFDFFF3BBE4E11B98CDFFFDDFF52
:10160000FDFFFFF7725BDDD69FEFDFFFFFFFFFFF00
:10161000FFFFFFFFDFFFDFF71DD79FEFBFF7FFFFE4
:10162000FEFFFFFFFFFFFFFFFFFFFFFFDFFFDFFF0B
:10163000DFFFFFFFBEF7BBD61ABE79ADAE4A2A1157
:10164000D042FFEFFFEFB4634C19F34AFFF7FFF707
:101650002D3ADFEFBCF7DDFFBEF71FCF4E11CC29CF
:101660006D429ECE7FEFDFF7FFFFFFFFDFFFFFFF43
:101670007DEF8A5220006108F7BDDFFFFFFFFFFF0B
:10168000FFFFFFFFFFFFFFFFFFFFFFFFFFFFFFFF6A
:10169000FFFFFFFFFFFFFFFFFFFFFFFFFFFFFFFF5A
:1016A000FFFFFFFFFFFFFFFFFFFFFFFFFFFFFFFF4A
:1016B000FFFFFFFFFFFFFFFFFFFFFFFFFFFFFFFF3A
:1016C000FFFFFFFFFFFFDFFF18C641086208462942
:1016D0003CE7DEFFFEFFDEFFFFFFFFFFFFFFFFFF38
:1016E000DFFFBFF7FFFFD78C4E111FDFFFFFDDFFCE
:1016F000BEF7DFEF6D3ABFF7DFFFFFFFFFFFFFFF32
:10170000FFFFFFFFFFFFBFEF96844B198C29D69494
:10171000DFFF9EEFD273347CB58C527C1474199524
:10172000DFF7DFF79DEF159D0C3A1EDFFFF7312A3B
:10173000CE21FFEFFFF7DEE735744F19904ADFEF58
:101740009042BFEFDFFFFEFFFFFFDFEFAC21547CD5
:101750007FE7DFFFFFFFFEFFDEF7BEF7FFFF1CE7BF
:1017600086314108821079CEFFFFFFFFFFFFFFFFA8
:10177000FFFFFFFFFFFFFFFFFFFFFFFFFFFFFFFF79
:10178000FFFFFFFFFFFFFFFFFFFFFFFFFFFFFFFF69
:10179000FFFFFFFFFFFFFFFFFFFFFFFFFFFFFFFF59
:1017A000FFFFFFFFFFFFFFFFFFFFFFFFFFFFFFFF49
:1017B000FFFFFFFFFFFFDFFFFFFF5DEF210041089D
:1017C000C318DBDEBEF7DEFFFEFFFFFFFFFFFFFFFC
:1017D000FFFFDFFFFFFFDAB54B197FE7BFEFDFF752
:1017E000BFEF6C421ED7FFFFDFFFFFFFFFFFFFFFD2
:1017F000FFFFFFFFDFFFDFF77FDF8E19545BBFF7CF
:10180000FFFFFFF75DBE2E3A3ED7FDC609096E19F0
:101810005784DFF7BEE7BFEF4D42BFEFDFF7D98454
:101820006C117EDFFDF7FCFFDFF758846F296F3AFC
:10183000D34A9FE7DFFFDFFFFFFF169D3DD7BFEFD6
:10184000BFF7DEFFFEFFFEFFDEFFDFFFDBDE61082E
:10185000410882105DEFDFFFFFFFFFFFFFFFFFFF8B
:10186000FFFFFFFFFFFFFFFFFFFFFFFFFFFFFFFF88
:10187000FFFFFFFFFFFFFFFFFFFFFFFFFFFFFFFF78
:10188000FFFFFFFFFFFFFFFFFFFFFFFFFFFFFFFF68
:10189000FFFFFFFFFFFFFFFFFFFFFFFFFFFFFFFF58
:1018A000FFFFFFFFDFFFFFFFFFFFBEF75CEFA7318A
:1018B00021002100718CFFFFFFFFFFFFFFFFFFFFF3
:1018C000FEFFFEFFFFFFFFF7F3734D3A3ED79FE7A2
:1018D00078A5B16BDFF7FFFFFFFFFFFFFFFFFFFF03
:1018E000FFFFFFFFDDF7DFEF5FD7AE19D98CFFF702
:1018F000FEFFFFF75EE7D052DFEFFFEF0D32723AE7
:1019000070219263FFEFDFEFAE527FEFBEF79CBE18
:101910008C195AA5FFFF7BEFBDF7FFFF7A844B11AF
:101920002C099EDFDFFFFFFFFEFFFFFFDFFF7FF7DA
:10193000BFFFFFFFDEFFFFFFDFFF518C0000000055
:10194000C739BEF79EF7DFFFFFFFFFFFFFFFFFFF77
:10195000FFFFFFFFFFFFFFFFFFFFFFFFFFFFFFFF97
:10196000FFFFFFFFFFFFFFFFFFFFFFFFFFFFFFFF87
:10197000FFFFFFFFFFFFFFFFFFFFFFFFFFFFFFFF77
:10198000FFFFFFFFFFFFFFFFFFFFFFFFFFFFFFFF67
:10199000FFFFFFFFFFFFFFFFFFFFFFFFDEFFDFFF98
:1019A0008E7341080000C7395CE7FFFFFFFFFFFFB0
:1019B000FEFFDEFFFFFFFFFFFFFFBCCE0F536D42B8
:1019C0007584FFFFFFFFDFFFFFFFFFFFFFFFFFFF4C
:1019D000FFFFFFFFFDFFFFF7BEC68D191DB6DFF746
:1019E000FCFFDDF71DE71384DFF7FFF78A299FE788
:1019F000D34AAC21304BDFE772635EE7FEFFDFE7DF
:101A0000ED2930429FF7FFFFFDFFDEFFBFEF389566
:101A100049195DE7FFFFFFFFFEFFFFFFBEFFDFFF8E
:101A2000BFFFFFFFBEF71CDFE839200000008E7308
:101A3000FFFFFFFFDFFFDFFFFFFFFFFFFFFFFFFFF6
:101A4000FFFFFFFFFFFFFFFFFFFFFFFFFFFFFFFFA6
:101A5000FFFFFFFFFFFFFFFFFFFFFFFFFFFFFFFF96
:101A6000FFFFFFFFFFFFFFFFFFFFFFFFFFFFFFFF86
:101A7000FFFFFFFFFFFFFFFFFFFFFFFFFFFFFFFF76
:101A8000FFFFFFFFFFFFFFFFFFFFFFFFFFFFFFFF66
:101A9000DFFFF7BD610820006108B294FFFFBEF7C9
:101AA000FFFF9EF7DFFFFFFFDFFFFFFFFFFFDFFF0F
:101AB000FFFFFFFFFFFFFFFFFFFFFFFFFFFFFFFF36
:101AC000FFFFFFFFFEFFDFF7DBADAE21DFCEFFFF45
:101AD000DDFFBEE7DDD6F59CDFFFDFFFCB31FFF793
:101AE000DFF77263AD1971327774FDD6FEFFFFF731
:101AF000D14ACB08DFEFDEEFDDF7DFFFFFFFDFFFCF
:101B00009AD6DFFFFFFFFFFFFFFFDFFFFFFFBEF7FC
:101B1000DFFFBEF7D39C61082000610818C6FFFFF5
:101B2000FFFFFFFFFFFFFFFFFFFFFFFFFFFFFFFFC5
:101B3000FFFFFFFFFFFFFFFFFFFFFFFFFFFFFFFFB5
:101B4000FFFFFFFFFFFFFFFFFFFFFFFFFFFFFFFFA5
:101B5000FFFFFFFFFFFFFFFFFFFFFFFFFFFFFFFF95
:101B6000FFFFFFFFFFFFFFFFFFFFFFFFFFFFFFFF85
:101B7000FFFFFFFFFFFFFFFFFFFFFFFFFFFFDFFF95
:101B8000FFFFFFFF7DEF8A52000061082421BAD6D3
:101B9000FFFFFFFF9EF7FFFFFFFFFFFFFFFFDFFFDE
:101BA000FFFFFFFFDFFFFFFFFFFFFFFFFFFFFFFF65
:101BB000FFFFFFFFFFFFFFFF589D6C19DFEFDFF70F
:101BC000FFFFFFF7DBB5D8B5FEF7BFF7F15ADFEF40
:101BD000DFF7FFEF75746C118E191DBEFFFFFFF765
:101BE000F8946D21199D3DDFBEF7FFFFDFFFFFFF7A
:101BF000BEF7FFFFFFFFFFFFFFFF7DEFFFFFDFFFF0
