:020000040800F2
:100000000834012035110008D5040008D704000881
:10001000DB040008DF040008E3040008000000001F
:10002000000000000000000000000000A101000826
:10003000E704000800000000FD0100083D0800087A
:100040004F1100084F1100084F1100084F11000810
:100050004F1100084F1100084F1100084F11000800
:100060004F1100084F1100084F1100084F110008F0
:100070004F1100084F1100084F1100084F110008E0
:100080004F1100084F1100084F1100084F110008D0
:100090004F1100084F1100084F1100084F110008C0
:1000A0004F1100084F1100084F1100084F110008B0
:1000B0004F110008B10B00084F1100084F11000844
:1000C0004F1100084F1100084F1100084F11000890
:1000D0004F110008A10A00084F110008790C000810
:1000E0004F1100084F1100084F1100084F11000870
:1000F0004F1100084F1100084F1100084F11000860
:100100004F1100084F1100084F1100084F1100084F
:100110004F1100084F1100084F1100084F1100083F
:100120004F1100084F1100084F1100084F1100082F
:100130004F1100084F1100084F1100084F1100081F
:100140004F1100084F1100084F1100084F1100080F
:100150004F1100084F1100084F1100084F110008FF
:100160004F1100084F1100084F1100084F110008EF
:100170004F1100084F1100084F1100084F110008DF
:100180004F1100084F110008DFF810D006F010FFE3
:1001900000480047A1030008AFF3008008340120A5
:1001A0002C4B19680868B0E8F04F80F30988BFF35A
:1001B0006F8F4FF0000080F311887047000000003F
:1001C00008480068006880F308884FF0000080F35A
:1001D000148862B661B6BFF34F8FBFF36F8F00DF35
:1001E00000BF00BF08ED00E0DFF80C00016841F43B
:1001F00070010160704700BF88ED00E0EFF30980F7
:10020000BFF36F8F134B1A681EF0100F08BF20ED5D
:10021000108A20E9F04F106009B44FF0500080F3CD
:100220001188BFF34F8FBFF36F8F04F0AEFA4FF01A
:10023000000080F3118809BC19680868B0E8F04F25
:100240001EF0100F08BFB0EC108A80F30988BFF3CE
:100250006F8F704748000020EFF305807047000063
:1002600010B500205A4908604FF4FA7000F02DFBD9
:1002700001205849C1F8A4024FF4FA7000F025FBA0
:1002800000205349091D08604FF4FA7000F01DFB6F
:1002900001205049C1F8A8024FF4FA7000F015FB94
:1002A00010BD10B5A82000F0D1FA00F05DFB4AA007
:1002B00006F090FE50A006F08DFE4FF4A06000F016
:1002C0004BFF00F09BFA54A006F084FE00F014FAF5
:1002D00056A006F07FFE10BD2DED028B16E05848AB
:1002E00090ED000ADFED570A30EE200A80ED000A9B
:1002F000006806F0D5FC41EC180B53EC182B52A00B
:1003000006F068FE4FF47A7004F0E8F8E7E70EE0D4
:1003100000202F49091D0860C82004F0DFF80120E3
:100320002C49C1F8A8024FF4487004F0D7F8EFE761
:1003300009E027480068C0432649C1F8A4024FF4E9
:10034000FA7004F0CBF8F4E71CB5044606F00FF998
:100350004348022100233222CDE9001041A1AFF22F
:100360002F0003F0AFFD4248032100233222CDE9E4
:10037000001040A1AFF2690003F0A4FD4048042141
:1003800000238022CDE900103EA1AFF2B30003F0BC
:1003900099FD3F48006803F0E2FD06F00FF91CBD2F
:1003A0001CB5FFF77EFF3BA006F014FE3FA006F051
:1003B00011FE3748012100238022CDE9001042A11F
:1003C000AFF27B0003F07EFD04F0C2FB00201CBDF9
:1003D000A4824242008042422D2D2D2D2D2D4861B8
:1003E0007265776172655F49696E742D2D2D2D2DB3
:1003F0002D200D0A000000005553415254315F4337
:100400006F6E66696775726174696F6E0909095B61
:100410004F4B5D200D0A00004C45445F496E6974E6
:100420000909095B4F4B5D200D0A00004B45595FE0
:10043000496E69740909095B4F4B5D200D0A000084
:10044000100000200AD7233C666C6F61745F6E75E4
:100450006DB5C4D6B5CEAA3A20252E34660D0A0055
:10046000040000206C6564315F7461736B000000F0
:10047000080000206C6564325F7461736B000000DB
:100480000C000020666C6F61745F7461736B000018
:100490000000002048617265776172655F49696E8E
:1004A000740909095B4F4B5D200D0A0046726565B2
:1004B00052544F532D5461736B2074657374202014
:1004C00020200D0A0000000073746172745F746173
:1004D000736B0000704700BFFEE700BFFEE700BF80
:1004E000FEE700BFFEE770470CB5002001900090CA
:1004F0007648006840F480307449086000BF734853
:10050000006800F4003000900198401C01900098B1
:1005100018B90198B0F5A04FF1D16C48006800F40B
:10052000003010B10120009001E000200090009800
:10053000012846D165484030006840F0805063494A
:10054000403108606248006840F4404060490860FB
:100550005E48083000685D49083108600846006858
:1005600040F4004008600846006840F4A05008606D
:100570005848091F0860081F006840F08070091F74
:10058000086000BF5148006800F000700028F9D0F2
:1005900040F20570504908604C480830006820F06F
:1005A00003004A49083108600846006840F002002C
:1005B000086000BF45480830006800F00C000828BB
:1005C000F8D10CBD10B54548006840F470004349AF
:1005D00008603E48006840F001003C490860002087
:1005E0003A4908310860394800683D4908403749B0
:1005F00008603C48091D0860081F006820F480203E
:10060000091F0860002031490C310860FFF76CFFBA
:100610004FF0006031498039086010BD70B500208E
:100620000022022300240221284D08352D6805F000
:100630000C0020B1042806D0082834D107E02A4D48
:100640002A4E356033E02A4D284E35602FE01F4D8D
:100650002D1D2D68C5F380541C4D2D1D2D6805F0F2
:100660003F0154B1224DB5FBF1F5184E361D3668E9
:10067000C6F3881605FB06F209E01B4DB5FBF1F544
:10068000124E361D3668C6F3881605FB06F20F4D6E
:100690002D1D2D68C5F301456D1C6B00B2FBF3F5F4
:1006A000124E356003E0104D104E356000BF00BFA4
:1006B000064D08352D68C5F303150E4E705D0B4DC4
:1006C0002D68C540094E356070BD000000380240FD
:1006D0000070004008544007003C024088ED00E0F4
:1006E000FFFFF6FE103000240024F4001400002068
:1006F00000127A00180000201CB50121112001F021
:10070000BFF81C20009000208DF8040003208DF815
:10071000050001208DF807006946354800F012FEFB
:100720000120009002208DF807006946314800F052
:1007300009FE1CBD10B5044614B101202E490870F5
:100740002D480078002837D01021294800F05CFEA1
:1007500078B10821264800F057FE50B10421244802
:1007600000F052FE28B10121224800F04DFE012880
:1007700022D10A2000F0A9F800201F49087010219A
:100780001B4800F041FE08B9012010BD082118489F
:1007900000F03AFE08B90220F7E70421144800F0FF
:1007A00033FE08B90320F0E70121124800F02CFEC7
:1007B00001281BD10420E8E710210D4800F024FE99
:1007C000012813D108210A4800F01EFE01280DD18E
:1007D0000421074800F018FE012807D1012105482F
:1007E00000F012FE10B90120034908700020CCE788
:1007F0000010024000000240280000201CB501212A
:10080000202001F03DF84FF4C060009001208DF8E9
:10081000040000208DF8060003208DF8050001205B
:100820008DF807006946044800F08CFD4FF4C06164
:10083000014800F003FE1CBD0014024010B504F096
:1008400026FD012801D005F0D5FE10BD70B5044687
:10085000042000F0D3FC3248047025464FF47A702F
:10086000454301202F4908804FF0E020006940F007
:1008700002004FF0E021086108464561006940F040
:100880000100086170BD70B5034600224FF0E026FC
:100890007569234E367803FB06F44FF0E026B16904
:1008A00010E04FF0E026B06988420BD0884202D2B7
:1008B0000E1A324402E02E1A0E4432440146A2427D
:1008C00000D300E0EDE700BF70BD70B5044604F052
:1008D000DEFC012810D013480088844206D311485A
:1008E0000088B4FBF0F5284603F0F8FD0D480088B9
:1008F000B4FBF0F100FB11444FF47A7104FB01F0FA
:10090000FFF7C1FF70BD30B50446002504E04FF489
:100910007A70FFF7B8FF6D1CA542F8D330BD000018
:100920002A0000202C00002000BF704700BF874A2B
:10093000128802F04002002AF9D0C2B2834B9A809A
:10094000704708B54FF4A06000F006FC25208DF834
:10095000000001208DF801008DF802008DF80300E1
:10096000684600F0FEFB08BD00B587B001210846CF
:1009700000F086FF0121102000F0DCFF00208DF840
:100980001A0001208DF81B0002208DF819008DF847
:1009900018000002059005A96D4800F0D3FC022064
:1009A0008DF818004002059005A9694800F0CAFCBE
:1009B00007220A21664800F050FD072209216448F9
:1009C00000F04BFD4FF4E13001900020ADF808003D
:1009D000ADF80A00ADF80C00ADF810000C20ADF831
:1009E0000E0001A9594801F058FFFFF7AAFF0122A4
:1009F00040F22551554802F08EF80121534801F08C
:100A0000D4FF544A4FF400715348006800F0DEF8F8
:100A100007B000BD2DE9F04104460D4617460026FB
:100A20000DE000BF4021494802F09AF80028F9D0B3
:100A30002178464801F0E4FF641C701C86B2AE4287
:100A4000EFDB2846BDE8F0812DE9F04106460D4672
:100A5000904600244048006800F0F9F80446AC4293
:100A600013DA27460FE00A20FFF72FFF3A48006805
:100A700000F0EDF80446BC4202D10020BDE8F08150
:100A8000AC4200DB00E0EEE700BFAC4200DD2C46EC
:100A9000224631463048006800F0C5F82046EDE7B0
:100AA00008B540F22551294802F070F850B12748A6
:100AB00001F0AAFFC0B200900122694626480068F2
:100AC00000F094F808BD70B504460D46294620464E
:100AD00001F096FF00BF8021204602F041F8002877
:100AE000F9D070BD70B506460C46002500BF615DAB
:100AF0003046FFF7E8FF6D1C605D0028F7D100BFAE
:100B00004021304602F02CF80028F9D070BD2DE9C4
:100B1000F04105460C46260AE7B23146284601F068
:100B20006FFF00BF8021284602F01AF80028F9D094
:100B30003946284601F064FF00BF8021284602F0B4
:100B40000FF80028F9D0BDE8F08100000010014046
:100B500000000240D4000020300000207FB5054690
:100B60000C460121022000F0D4FE0295ADF80440AD
:100B70000020ADF80600ADF80C0001A9124801F004
:100B800080F801221146104801F01CFD01210E4899
:100B900001F000F91D208DF8000001208DF8010002
:100BA0008DF802008DF80300684600F0DAFA7FBD88
:100BB00010B50121044801F01CFD012803D10121D9
:100BC000014801F027FD10BD0004004081808260D3
:100BD000002343800380704702469388481C834269
:100BE00001D100207047481C80B2FBE7F0B50446F5
:100BF0000E461746002513E0705D6288A168885490
:100C000061882046FFF7E8FF60806088218888427D
:100C100004D121882046FFF7DFFF2080681C85B2C1
:100C2000BD42E9DBF0BDF0B504460F46164600258F
:100C30000AE02188A068405C785521882046FFF7AB
:100C4000CBFF2080681C85B2B542F2DBF0BD0146C7
:100C500048880A88904204DB48880A88801A80B253
:100C6000704708884A88801A8A88101A80B2F7E785
:100C7000002101804180704710B540F22551FE48A7
:100C800001F084FF18B1FC4801F0BEFEC4B210BDF3
:100C900010B588B004460121022000F0F1FD0121C9
:100CA000880400F036FEF44801F090FD07220B2185
:100CB000F24800F0D2FB07220A21F04800F0CDFBF9
:100CC0004FF44060059002208DF818008DF819004F
:100CD00000208DF81A0001208DF81B0005A9E748B7
:100CE00000F030FB01940020ADF80800ADF80A00D8
:100CF000ADF80C00ADF810000C20ADF80E0001A905
:100D0000DD4801F0CAFD0121DB4801F04EFE012261
:100D100040F22551D84801F0FEFE27208DF81C0036
:100D200002208DF81D0003208DF81E0001208DF893
:100D30001F0007A800F015FA08B010BD00BF028818
:100D400002F04002002AFAD081807047014688886C
:100D5000C0B2704710B504460B4604E0197820462F
:100D6000FFF7ECFF5B1C18780028F7D110BD70B5B9
:100D700006460C461546002300BF05E0E15C304600
:100D8000FFF7DCFF581CC3B2AB42F7DB70BD00B508
:100D900003460D211846FFF7D1FF0A211846FFF739
:100DA000CDFF00BD7CB506460C46154600200090E0
:100DB0000190002C06DA604204B22D213046FFF784
:100DC000BDFF03E02B213046FFF7B8FF042D0CDDFB
:100DD00042F2107094FBF0F00A2190FBF1F201FB5B
:100DE00012003030C0B28DF80000032D0CDD4FF43E
:100DF0007A7094FBF0F00A2190FBF1F201FB1200F3
:100E00003030C0B28DF80100022D0BDD642094FB60
:100E1000F0F00A2190FBF1F201FB12003030C0B279
:100E20008DF80200012D0BDD0A2094FBF0F00A2161
:100E300090FBF1F201FB12003030C0B28DF80300DC
:100E4000002D08DD0A2094FBF0F100FB114030304A
:100E5000C0B28DF80400C5F105006A4681182A4623
:100E60003046FFF784FF7CBD7CB506460D46144630
:100E7000002000900190042C0CDD42F2107095FBD4
:100E8000F0F00A2190FBF1F201FB12003030C0B209
:100E90008DF80000032C0CDD4FF47A7095FBF0F018
:100EA0000A2190FBF1F201FB12003030C0B28DF844
:100EB0000100022C0BDD642095FBF0F00A2190FB71
:100EC000F1F201FB12003030C0B28DF80200012CAB
:100ED0000BDD0A2095FBF0F00A2190FBF1F201FBFB
:100EE00012003030C0B28DF80300002C08DD0A205B
:100EF00095FBF0F100FB11503030C0B28DF80400CA
:100F0000C4F105006A46811822463046FFF72FFFDC
:100F10007CBD2DE9F0412DED088B84B08046B0EE0C
:100F2000408A0C46154600260027B5EEC08AF1EE31
:100F300010FA0AD29FED520A30EE480AB0EE408A0B
:100F40002D214046FFF7FAFE03E02B214046FFF734
:100F5000F5FE07E0052C03DD14B1601EC4B201E00C
:100F6000681EC5B260190728F4DCBCEEC80A10EE92
:100F7000106A00EE106AB8EE400A38EE400A10EE31
:100F8000101A084605F08CFE41EC1B0B9FED3D0B43
:100F900053EC102B05F052FD41EC1A0B9FED3B0B6F
:100FA00053EC102B05F0F1FD41EC190B05F05FFE41
:100FB0000746042C0BDD42F21070B6FBF0F00A215C
:100FC000B0FBF1F201FB120030308DF80800032C69
:100FD0000BDD4FF47A70B6FBF0F00A21B0FBF1F2B2
:100FE00001FB120030308DF80900022C0ADD64206C
:100FF000B6FBF0F00A21B0FBF1F201FB1200303039
:101000008DF80A00012C0ADD0A20B6FBF0F00A2157
:10101000B0FBF1F201FB120030308DF80B00002C18
:1010200007DD0A20B6FBF0F100FB116030308DF8CF
:101030000C00002D0BDD42F21070B7FBF0F00A211E
:10104000B0FBF1F201FB120030308DF80000012DF1
:101050000BDD4FF47A70B7FBF0F00A21B0FBF1F230
:1010600001FB120030308DF80100022D19DD6420E3
:10107000B7FBF0F00A210DE00048004000040240F8
:1010800000000000F168E388B5F8D43E00000000DD
:10109000006AF840B0FBF1F201FB120030308DF82D
:1010A0000200032D0ADD0A20B7FBF0F00A21B0FB95
:1010B000F1F201FB120030308DF80300042D07DD42
:1010C0000A20B7FBF0F100FB117030308DF80400FE
:1010D000C4F1050002AA811822464046FFF747FEE8
:1010E0002E214046FFF72AFE2A4669464046FFF772
:1010F0003EFE04B0BDEC088BBDE8F08170B506463D
:101100000B4614460025254611E0601E012101FA18
:1011100000F0184020B131213046FFF70FFE03E008
:1011200030213046FFF70AFE5B00681EC5B2002D75
:10113000EBDC70BD0648804706480047FEE7FEE747
:10114000FEE7FEE7FEE7FEE7FEE7FEE7FEE7FEE777
:10115000C50500088901000832490143324A11607F
:10116000704770B5002100230F22C4781CB32E4CA9
:10117000246804F4E064C4F5E064C4F30721C1F119
:101180000404E3B20A4144789C40E1B284781440FC
:1011900021430C07210E254C05786155047804F095
:1011A0001F050124AC4005786D11AD0005F1E02567
:1011B000C5F8004109E0047804F01F050124AC40A3
:1011C0001B4D0678761145F8264070BD194A0A4035
:1011D0000243154B1B1F1A60704739B1124A121D8A
:1011E00012680243104B1B1D1A6006E00E4A121DC6
:1011F000126882430C4B1B1D1A607047042808D1EB
:101200004FF0E021096941F004014FF0E022116143
:1012100007E04FF0E021096921F004014FF0E022DE
:10122000116170470000FA050CED00E000E400E0F9
:1012300080E100E080FFFF1F10B50446984884421B
:1012400008D10121084600F086FB0021012000F0B2
:1012500082FB76E09348844208D10121022000F00D
:101260007AFB0021022000F076FB6AE08E4884427F
:1012700008D10121042000F06EFB0021042000F0C1
:101280006AFB5EE08948844208D10121082000F011
:1012900062FB0021082000F05EFB52E0844884429B
:1012A00008D10121102000F056FB0021102000F091
:1012B00052FB46E07F48844208D10121202000F003
:1012C0004AFB0021202000F046FB3AE07A488442A5
:1012D00008D10121402000F03EFB0021402000F019
:1012E0003AFB2EE07548844208D10121802000F0AD
:1012F00032FB0021802000F02EFB22E07048844267
:1013000008D10121801500F026FB0021A01500F076
:1013100022FB16E06B48844208D10121401500F001
:101320001AFB0021601500F016FB0AE066488442B3
:1013300007D10121001500F00EFB0021201500F05F
:101340000AFB10BDF0B50A4600210023002400BFAF
:101350003DE0012505FA01F3156805EA03049C4206
:1013600034D105684F000326BE40B54305601579AA
:101370004E00B5400668354305601579012D02D051
:101380001579022D16D185684F000326BE40B5435E
:10139000856055794E00B54086683543856045685F
:1013A00001268E40B5434560456896798E40B6B2B9
:1013B00035434560C5684F000326BE40B543C56050
:1013C000D5794E00B540C6683543C560491C102923
:1013D000BFD3F0BD4FF6FF71016000210171417173
:1013E0008171C171704708B54FF480320092009A44
:1013F0000A430092009AC261C161009AC261C26947
:101400000092C269009208BD0246002013690B4099
:101410000BB1012000E0002070470146086980B24E
:1014200070470246002053690B400BB1012000E0D9
:10143000002070470146486980B2704701837047B9
:10144000418370470AB1018300E0418370474161E5
:10145000704742694A4042617047F0B5002300245A
:101460004D07ED0E02FA05F3CE1000F1200555F8F8
:1014700026504E07F70E0F26BE40B543CF1000F1A1
:10148000200646F82750CE1000F1200555F82650CA
:1014900045EA0304CE1000F1200545F82640F0BDD2
:1014A000000002400004024000080240000C02401C
:1014B000001002400014024000180240001C0240CC
:1014C000002002400024024000280240F948006841
:1014D00040F00100F74908600020F6490831086033
:1014E000F4480068F4490840F2490860F348091DCF
:1014F0000860F348EF4984310860F0481038091D4E
:101500000860EC48006820F48020EA490860002068
:10151000E8490C310860E7498C31086070470021C8
:10152000E44A921C117011460870704710B50146CC
:101530000022002300204A11012A02D1DD4C236839
:1015400008E0022A03D1DB4C7034236802E0D94C56
:101550007434236801F01F02012494401C400CB134
:10156000012000E0002010BD38B5002000900024CC
:10157000002500BF3120FFF7D9FF05460098401C29
:1015800000900098B0F5A04F01D0002DF2D031208E
:10159000FFF7CCFF08B1012400E00024204638BD4D
:1015A00001460020C34A106820F0F80040EAC1005C
:1015B00010607047C349086070470021BD4A70320F
:1015C00011701170012802D004280AD104E0012111
:1015D000B84A7032117005E00521B64A70321170B8
:1015E00000E000BF00BF7047B7490860704770B5A2
:1015F000049C41EA82150126C6EB530645EA0645DE
:10160000054345EA0465AB4E361D356070BDAD49F6
:1016100008667047820142EA0172A64B84331A6061
:101620007047A8498866704710B5830143EA016393
:1016300043EA02739F4C8834236010BDA1490867B8
:101640007047A049C864704702460020994B083390
:10165000186820F0EC6042EA01031843954B083308
:101660001860704702460020924B0833186820F03B
:10167000784042EA010318438E4B083318607047E4
:10168000014600208B4A0832106820F0030008430E
:101690001060704787480830006800F00C00704701
:1016A00001460020834A0832106820F0F000084309
:1016B00010607047014600207E4A0832106820F40E
:1016C000E05008431060704701460020794A083214
:1016D000106820F4604040EAC10010607047F0B527
:1016E000002100220024022500260223714F083722
:1016F0003F6807F00C0121B1042905D0082937D132
:1017000005E0724F076036E0714F076033E0694FC4
:101710003F1D3F68C7F38056664F3F1D3F6807F087
:101720003F036EB16A4FB7FBF3F7DFF888C10CF1E6
:10173000040CDCF800C0CCF3881C07FB0CF40CE0B4
:10174000624FB7FBF3F7DFF86CC10CF1040CDCF867
:1017500000C0CCF3881C07FB0CF4564F3F1D3F68BC
:10176000C7F301477F1C7D00B4FBF5F7076002E07B
:10177000564F076000BF00BF4E4F08373F6807F065
:10178000F0010909534F7A5C0768D7404760494F19
:1017900008373F6807F4E051890A4E4F7A5C476882
:1017A000D7408760434F08373F6807F46041490BD3
:1017B000484F7A5C4768D740C760F0BD002100F40D
:1017C0004072B2F5407F0AD13A4A0832116821F4DA
:1017D000F811414A02401143364A08321160354A35
:1017E00070321268C0F30B031A43324B70331A6025
:1017F00070473549443908607047334940390860BB
:10180000704736490860704701460020294A8C32EB
:10181000106820F01F004A1E1043264A8C321060C8
:10182000704701460020234A8C32106820F4F8509B
:101830004A1E40EA02201F4A8C321060704701465F
:1018400000201C4A8C32106820F4401008431060BD
:10185000704701460020174A8C32106820F440007F
:1018600008431060704701460020124A8C3210680D
:1018700020F44030084310607047194908607047F1
:1018800039B10C4A3032126802430A4B30331A60C5
:1018900006E0084A303212688243064B30331A6041
:1018A0007047F9B1034A343212680243014B3433B2
:1018B0001A601CE000380240FFFFF6EA10300024F6
:1018C0000030002000004742800E47420024F40010
:1018D00000127A0038000020FFFCFF0F5C01474235
:1018E000E01147428F4A126882438E4B1A6070475C
:1018F00039B18C4A121D126802438A4B1B1D1A60B3
:1019000006E0884A121D12688243864B1B1D1A602E
:10191000704739B1834A0C3212680243814B0C3351
:101920001A6006E07F4A0C32126882437D4B0C330A
:101930001A60704739B17B4A103212680243794B02
:1019400010331A6006E0774A103212688243754BF2
:1019500010331A60704739B1724A243A1268024350
:10196000704B243B1A6006E06E4A243A12688243A8
:101970006C4B243B1A60704739B16A4A203A1268AE
:101980000243684B203B1A6006E0664A203A126820
:101990008243644B203B1A60704739B1614A1C3A5C
:1019A000126802435F4B1C3B1A6006E05D4A1C3A1A
:1019B000126882435B4B1C3B1A60704739B1594A2D
:1019C000143A12680243574B143B1A6006E0554A1A
:1019D000143A12688243534B143B1A60704739B172
:1019E000504A103A126802434E4B103B1A6006E010
:1019F0004C4A103A126882434A4B103B1A607047B7
:101A000039B1484A1C3212680243464B1C331A60F3
:101A100006E0444A1C3212688243424B1C331A606F
:101A2000704739B13F4A2032126802433D4B2033A0
:101A30001A6006E03B4A203212688243394B203359
:101A40001A60704739B1374A243212680243354B65
:101A500024331A6006E0334A243212688243314B41
:101A600024331A60704739B12E4A2C32126802436F
:101A70002C4B2C331A6006E02A4A2C32126882431F
:101A8000284B2C331A60704739B1264A303212681D
:101A90000243244B30331A6006E0224A3032126887
:101AA0008243204B30331A607047012808D11D490A
:101AB0003C31096841F008011A4A3C32116007E0E4
:101AC00018493C31096821F00801164A3C3211607E
:101AD000704739B1134A273A12780243114B273B1A
:101AE0001A7006E00F4A273A127882430D4B273BC3
:101AF0001A7070470B484030006840F08070094908
:101B000040310860704701460020064A283A1268B2
:101B10000A400AB1012000E000207047014926393F
:101B2000087070473438024010B50446FE488442BD
:101B300008D101210846FFF752FF00210120FFF7DD
:101B40004EFF9DE0B4F1804F08D101210846FFF718
:101B500035FF00210120FFF731FF91E0F348844277
:101B600008D101210220FFF729FF00210220FFF701
:101B700025FF85E0EE48844208D101210420FFF7CB
:101B80001DFF00210420FFF719FF79E0E948844296
:101B900008D101210820FFF711FF00210820FFF7DD
:101BA0000DFF6DE0E448844208D101211020FFF7C9
:101BB00005FF00211020FFF701FF61E0DF488442AC
:101BC00008D101212020FFF7F9FE00212020FFF796
:101BD000F5FE55E0DA48844208D101210220FFF7E2
:101BE000FEFE00210220FFF7FAFE49E0D5488442BC
:101BF00009D101210804FFF7F2FE00214FF48030E3
:101C0000FFF7EDFE3CE0D048844209D101214804B1
:101C1000FFF7E5FE00214FF40030FFF7E0FE2FE074
:101C2000CA48844209D101218804FFF7D8FE002167
:101C30004FF48020FFF7D3FE22E0C548844208D14C
:101C400001214020FFF7BAFE00214020FFF7B6FE39
:101C500016E0C048844208D101218020FFF7AEFE83
:101C600000218020FFF7AAFE0AE0BB48844207D18A
:101C700001218015FFF7A2FE0021A015FFF79EFEAF
:101C800010BD00220288A84B98420ED0AC4B98425F
:101C90000BD0B0F1804F08D0A44B984205D0A44B94
:101CA000984202D0A34B984204D14FF68F731A404A
:101CB0004B881A43A04B984207D0A04B984204D0BF
:101CC0004FF6FF431A400B891A4302804B68C362E8
:101CD0000B880385944B984202D0994B984201D1CE
:101CE0008B7A03860123838270474FF0FF31416076
:101CF00000210180018141808172704701858282CB
:101D000070470A46002101884FF68F73194011432E
:101D10000180704741627047C16270470146486A5E
:101D200070470146088D704721B1028842F00202D7
:101D3000028004E002884FF6FD731A40028070476B
:101D400021B1028842F00402028004E002884FF6CA
:101D5000FB731A400280704721B1028842F0800272
:101D6000028004E002884FF67F731A4002807047B9
:101D700002884FF6F7731A40028002880A430280F5
:101D8000704702884FF6FF431A40028002880A43D8
:101D90000280704721B1028842F00102028004E013
:101DA00002884FF6FE731A400280704770B5002417
:101DB00000220023058C4FF6FE7635400584028C08
:101DC0008388048B4FF68F752C40B51E2C400D88F0
:101DD0002C43751E2A408D892A434D882A43524D33
:101DE000A84202D0564DA84213D14FF6F7752A40AB
:101DF000CD892A434FF6FB752A408D882A434FF63A
:101E0000FF652B404FF6FF552B400D8A2B434D8A23
:101E10002B43838004838D684563028470BD70B555
:101E2000002400220023058C4FF6EF763540058410
:101E3000028C8388048B48F6FF752C404FF6FF45D3
:101E40002C400D884FF6FF7606EA05252C434FF609
:101E5000DF752A408D8906EA05152A434D8806EA72
:101E600005152A43304DA84202D0354DA8421DD158
:101E70004FF67F752A40CD894FF6FF7606EA0515A5
:101E80002A434FF6BF752A408D8806EA05152A4376
:101E90004FF6FF352B404FF2FF752B400D8A06EAB7
:101EA00085052B434D8A06EA85052B4383800483F1
:101EB0008D688563028470BD70B500240022002304
:101EC000058C4FF6FF6635400584028C8388848B31
:101ED0004FF68F752C404FF6FC752C400D882C4327
:101EE0004FF6FF552A408D894FF6FF7606EA052505
:101EF0002A434D8806EA05252A430B4DA84202D005
:101F00000F4DA84238D14FF2FF752A40CD894FF6C8
:101F1000FF7606EA05252A434FF6FF352A408D88CD
:101F200006EA05252A4319E00000014000040040AC
:101F300000080040000C0040001000400014004069
:101F400000040140004001400044014000480140BD
:101F500000180040001C0040002000404EF6FF75B5
:101F60002B404DF6FF752B400D8A06EA05152B43D5
:101F70004D8A06EA05152B43838084838D68C563EB
:101F8000028470BD70B5002200230024058C4EF63B
:101F9000FF7635400584038C8488828B48F6FF7574
:101FA0002A404FF6FF452A400D884FF6FF7606EA95
:101FB00005252A434DF6FF752B408D8906EA053528
:101FC0002B434D8806EA05352B43FE4DA84202D02F
:101FD000FD4DA84208D14BF6FF752C400D8A4FF6F7
:101FE000FF7606EA85152C43848082838D6805641C
:101FF000038470BD002101804180818081608181E6
:10200000C18101824182704770B5034600200024DF
:102010001846183001258D40ACB21D8CA5431D8497
:1020200009B108290AD100EB610005684FF68F76E7
:10203000354005600568154305600FE00D1FC5F3C9
:102040004E052844056848F6FF763540056005686A
:102050004FF6FF7606EA02263543056070BD416300
:10206000704781637047C1637047016470470A46D7
:102070000021018B4FF68F73194011430183704784
:102080000A460021018B48F6FF7319404FF6FF7393
:1020900003EA02231943018370470A460021818B1A
:1020A0004FF68F7319401143818370470A46002110
:1020B000818B48F6FF7319404FF6FF7303EA022342
:1020C0001943818370470A460021018B4FF6F7734D
:1020D00019401143018370470A460021018B4FF2DA
:1020E000FF7319404FF6FF7303EA0223194301837C
:1020F00070470A460021818B4FF6F7731940114350
:10210000818370470A460021818B4FF2FF7319408B
:102110004FF6FF7303EA02231943818370470A468F
:102120000021018B4FF6FB73194011430183704767
:102130000A460021018B4FF6FF3319404FF6FF731B
:1021400003EA02231943018370470A460021818B69
:102150004FF6FB7319401143818370470A460021F3
:10216000818B4FF6FF3319404FF6FF7303EA0223CA
:102170001943818370470A460021018B4FF67F7314
:1021800019401143018370470A460021018BC1F3B6
:102190000E014FF6FF7303EA0223194301837047D0
:1021A0000A460021818B4FF67F73194011438183CA
:1021B00070470A460021818BC1F30E014FF6FF7371
:1021C00003EA02231943818370470A460021018CE8
:1021D0004FF6FD7319401143018470470A460021F0
:1021E000018C4FF6F77319401143018470470A467A
:1021F0000021018C4FF6DF7319404FF6FF7303EA9D
:1022000002131943018470470A460021018C4FF6DE
:102210007F7319404FF6FF7303EA021319430184D9
:1022200070470A460021018C4FF6FF5319404FF6C4
:10223000FF7303EA02231943018470470A46002111
:10224000018C4FF2FF7319404FF6FF7303EA02232C
:102250001943018470470A460021018C4DF6FF7333
:1022600019404FF6FF7303EA0233194301847047A4
:1022700030B5002301248C40A3B2048C9C43048419
:10228000048C02FA01F5ADB22C43048430BD30B5A4
:10229000002304248C40A3B2048C9C430484048C4B
:1022A00002FA01F5ADB22C43048430BD828B4FF2AB
:1022B000FF331A408283828B4FF6FF7303EA0123B8
:1022C0001A4382837047F0B50C4615460021002260
:1022D0000026078C4EF6FF7C07EA0C070784818BEB
:1022E000028C4FF6FF7707EA043640F6FF47394085
:1022F0004FF6FF7707EA052739434FF6FF7707EADE
:102300000337394345F6FF773A4046F480573A435E
:1023100081830284F0BD828B4FF6F3731A4082836F
:10232000828B0A4382837047F0B50C461546002124
:1023300000220026078C4FF6FF6C07EA0C07078483
:10234000818B028C4FF6FF7707EA04264FF60C7755
:1023500039404FF6FF7707EA03172F4339434FF20F
:10236000FF573A4046F480773A4381830284F0BDB8
:10237000028B4FF2FF331A400283028B4FF6FF733A
:1023800003EA01231A4302837047F0B50C46154651
:10239000002100220026078C4FF6EF7C07EA0C078D
:1023A0000784018B028C4FF6FF7707EA041640F68C
:1023B000FF4739404FF6FF7707EA033739434FF6B7
:1023C000FF7703E0000001400004014007EA052711
:1023D00039434FF65F773A4046F010073A4301839E
:1023E0000284F0BD028B4FF6F3731A400283028B16
:1023F0000A4302837047F0B50C46154600210022BF
:10240000068C4FF6FE773E400684018B028C4FF619
:102410000C7631407E1C06EA03162E4331434FF6FC
:10242000F576324044F00106324301830284F0BD68
:1024300070B505460C46208850B92389A28861886A
:102440002846FFF7D8FFE1882846FFF7CBFF25E0B5
:10245000208804280AD12389A28861882846FFF7AA
:1024600094FFE1882846FFF783FF17E020880828BB
:102470000AD12389A28861882846FFF755FFE188A1
:102480002846FFF748FF09E02389A288618828468B
:10249000FFF719FFE1882846FFF708FF70BD00210C
:1024A00001804180012181800021C180018170472C
:1024B0002DE9F04105460C4600260127608808B941
:1024C000022600E00026A088012801D1022700E0B2
:1024D00001272088A0B92389A28861882846FFF7B0
:1024E0008AFFE1882846FFF77DFF23893A46314677
:1024F0002846FFF74AFFE1882846FFF739FF13E037
:102500002389A28861882846FFF73FFFE188284693
:10251000FFF72EFF23893A4631462846FFF76BFF27
:10252000E1882846FFF75EFFBDE8F0810146486B71
:1025300070470146886B70470146C86B704701467B
:10254000086C70470A884B881A438B881A43CB88DB
:102550001A430B891A434B891A438B891A43A0F8F3
:10256000442070470021018041808180C180018129
:1025700041818181704731B1B0F8442042F400427A
:10258000A0F8442005E0B0F84420C2F30E02A0F801
:102590004420704721B1828842F00402828004E026
:1025A00082884FF6FB731A408280704721B182887F
:1025B00042F00102828004E082884FF6FE731A40E6
:1025C000828070471AB183890B43838102E083893B
:1025D0008B43838170478182704702460020138AB3
:1025E0000B400BB1012000E000207047CA4302827B
:1025F000704730B50246002000230024158A05EA02
:102600000103958905EA010413B10CB1012000E032
:10261000002030BDCA430282704741EA0203A0F89D
:10262000483070471AB183890B43838102E0838964
:102630008B438381704721B1828842F008028280F7
:1026400004E082884FF6F7731A4082807047018950
:102650004FF6F8721140018170470A460021018946
:102660004FF68F73194011430181704730B504460E
:102670000D4629462046FFF7F0FF208940F007006D
:10268000208130BD2DE9F04104460D4616461F4617
:10269000602D06D13B46012231462046FFF775FEEC
:1026A00005E03B46012231462046FFF7A4FE2946BD
:1026B0002046FFF7D2FF208940F007002081BDE8C7
:1026C000F08130B50C4600210189C9B24FF6FF7583
:1026D00005EA0325154325432943018130BD2DE932
:1026E000F04105460E4617469846002443463A46B2
:1026F00031462846FFF7E5FF2C894FF6F870044075
:1027000044F007044FF68F70044044F070042C81AD
:10271000BDE8F081F0B504460D4616461F463B461F
:10272000324629462046FFF7CCFF208940F48040FE
:102730002081F0BD82884FF68F731A408280828894
:102740000A438280704702894FF6F8731A4002816B
:1027500002890A430281704702894FF67F731A404B
:10276000028102890A4302817047F0B50C46154682
:102770001E460021002200230189028B038C4FF6A4
:10278000F877394021434FF6FC473A4040F20117B1
:102790003A434FF6DD773B404FF6FF7707EA0617DF
:1027A0002F433B43018102830384F0BD21B1828822
:1027B00042F08002828004E082884FF67F731A40E4
:1027C00082807047A0F850107047000010B5044692
:1027D000FA48844208D101211020FFF700F90021B6
:1027E0001020FFF7FCF857E0F548844209D1012199
:1027F0004804FFF7E3F800214FF40030FFF7DEF85C
:102800004AE0F048844209D101218804FFF7D6F854
:1028100000214FF48020FFF7D1F83DE0EA488442E0
:1028200009D10121C804FFF7C9F800214FF40020A5
:10283000FFF7C4F830E0E548844209D101210805DA
:10284000FFF7BCF800214FF48010FFF7B7F823E042
:10285000DF48844208D101212020FFF7C0F8002181
:102860002020FFF7BCF817E0DA48844209D10121A3
:102870008807FFF7A3F800214FF08040FFF79EF88C
:102880000AE0D548844207D101214005FFF796F8B8
:1028900000216005FFF792F810BD2DE9FF470546BE
:1028A0000E460024A14600BFA046B08900B100BF7B
:1028B0002C8A24F44054F08804432C82AC8941F2E1
:1028C0000C608443B088318908437189084304430C
:1028D000AC81AC8A24F44074B0890443AC8268466D
:1028E000FEF7FDFEB548854202D0B948854202D1C7
:1028F000DDF80C9001E0DDF80890A88900F40040B4
:1029000040B109EBC90000EB091031684900B0FB88
:10291000F1F707E009EBC90000EB09103168890005
:10292000B0FBF1F76420B7FBF0F00401200964214B
:1029300001FB1078A88900F4004040B1322000EB80
:10294000C800B0FBF1F000F00700044308E03220BB
:1029500000EB08106421B0FBF1F000F00F0004431D
:102960002C81BDE8FF874FF4165101600021818062
:10297000C18001810C21418100218181704710B506
:1029800002460020108A20F470600B884C88234394
:102990008C882343CC8823431843108210BD002128
:1029A000018041808180C180704721B1828942F4D9
:1029B0000052828104E082894DF6FF731A408281C1
:1029C0007047028B02F47F420283028B0A43028328
:1029D000704721B1828942F40042828103E08289FA
:1029E000C2F30E028281704721B1828A42F40062F2
:1029F000828204E0828A4FF2FF731A40828270471B
:102A0000C1F308028280704701468888C0F308003D
:102A10007047028A4FF6F0731A400282028A0A4314
:102A20000282704721B1828942F00202828104E071
:102A300082894FF6FD731A408281704782894FF276
:102A4000FF731A40828182890A4382817047028A19
:102A50004FF6DF731A400282028A0A4302827047ED
:102A600021B1028A42F48042028204E0028A4BF6DB
:102A7000FF731A4002827047818941F00101818110
:102A8000704721B1828A42F00802828204E0828A81
:102A90004FF6F7731A4082827047028BD2B20283DC
:102AA000028B42EA01220283704721B1828A42F0FE
:102AB0002002828204E0828A4FF6DF731A4082820B
:102AC000704721B1828A42F01002828204E0828A39
:102AD0004FF6EF731A4082827047828A4FF6FB737B
:102AE0001A408282828A0A438282704721B1828A96
:102AF00042F00202828204E0828A4FF6FD731A409D
:102B0000828270471AB1838A0B43838202E0838AF0
:102B10008B4383827047F0B50346002400260025CE
:102B2000002040F66A17B94200D100BF1846C1F331
:102B3000421401F01F06012707FA06F5012C01D106
:102B40000C3004E0022C01D1103000E014301AB136
:102B500007682F43076002E00768AF430760F0BDD6
:102B600002460020B1F5007F00D100BF13880B4062
:102B70000BB1012000E00020704701F40072B2F5B3
:102B8000007F00D100BFCA430280704770B5024683
:102B9000002400230025002040F66A16B14200D12F
:102BA00000BFC1F3421501F01F03012606FA03F32B
:102BB000012D13D19689334017E000000010014029
:102BC0000044004000480040004C004000500040DD
:102BD0000014014000780040007C0040022D02D12A
:102BE000168A334001E0968A33400C12012606FA19
:102BF00004F41688344013B10CB1012000E0002029
:102C000070BD10B50022002340F66A14A14200D125
:102C100000BF0A1201249440A3B2DC43048010BD1B
:102C200000F1080141604FF0FF31816000F10801BF
:102C3000C16001610021016070470021016170479E
:102C400042684A6093688B6093685960916008613C
:102C500003685B1C0360704710B502460B685C1C80
:102C60000CB9106907E002F1080000E04068446810
:102C700024689C42FAD944684C604C68A160886022
:102C800041600A611468641C146010BD01460A6941
:102C9000D1E901309860D1E9010358605068884259
:102CA00001D188685060002008611068401E1060E3
:102CB000106870472DE9F04105460E4601272C4665
:102CC00054B900BF502080F31188BFF34F8FBFF37A
:102CD0006F8F00BF00BFFEE7002C42D0E06B0028E2
:102CE0003FD04FF0FF31E06BB1FBF0F0216C884238
:102CF00037D303F03CFCD4E90F12206801FB02003B
:102D0000A0600020A06320686060E06B401E226C21
:102D1000216800FB0211E160FF2084F8440084F880
:102D200045009EB9206908B9012000E00020A8B93B
:102D300004F1100002F01BF980B14FF08050F64909
:102D40000860BFF34F8FBFF36F8F07E004F11000EF
:102D5000FFF766FF04F12400FFF762FF03F02EFC8B
:102D600000E000270FB1012000E0002050B900BFB3
:102D7000502080F31188BFF34F8FBFF36F8F00BFD8
:102D800000BFFEE73846BDE8F0812DE9F041064678
:102D90000D4617469846069C0DB9246000E0276052
:102DA000E663256401212046FFF784FF84F84C8008
:102DB000BDE8F0812DE9F84305460E46174600248C
:102DC000E5B1601EB0FBF5F0B04217D305FB06F08D
:102DD00010F1510F12D805FB06F808F1500003F06E
:102DE000CAFC0446B4B1A14609F150093B464A4623
:102DF000314628460094FFF7C8FF0BE054B900BFE6
:102E0000502080F31188BFF34F8FBFF36F8F00BF47
:102E100000BFFEE72046BDE8F88370B5044603F026
:102E2000A6FB94F9455010E0606A08B9012000E063
:102E3000002038B904F1240002F099F818B102F02A
:102E400014FA00E003E0681E45B2002DECDC00BF80
:102E5000FF2084F8450003F0B1FB03F088FB94F9F0
:102E6000445010E0206908B9012000E0002048B972
:102E700004F1100002F07BF808B102F0F6F9681EC8
:102E800045B200E001E0002DECDC00BFFF2084F83B
:102E9000440003F093FB70BD70B5054603F067FB7B
:102EA000A86BE96B884201D1012400E0002403F003
:102EB00085FB204670BD2DE9F04104460F461546BE
:102EC0004FF00008A66B206C48B9206800282CD170
:102ED000A06802F058FA80460020A06025E07DB985
:102EE0003946226C606803F085FD216C60680844F7
:102EF0006060D4E90101884217D32068606014E063
:102F00003946226CE06803F075FD216CE068411AD7
:102F1000E1602168E068884203D2216CA068411A10
:102F2000E160022D01D106B1761E701CA0634046FF
:102F3000BDE8F0812DE9FF4383B0064688461D4673
:102F40004FF00009344654B900BF502080F3118877
:102F5000BFF34F8FBFF36F8F00BF00BFFEE7B8F125
:102F6000000F01D1206C08B9012000E0002050B909
:102F700000BF502080F31188BFF34F8FBFF36F8FD6
:102F800000BF00BFFEE7022D02D1E06B012801D196
:102F9000012000E0002050B900BF502080F31188CC
:102FA000BFF34F8FBFF36F8F00BF00BFFEE702F08C
:102FB0006EF908B9059808B9012000E0002050B961
:102FC00000BF502080F31188BFF34F8FBFF36F8F86
:102FD00000BF00BFFEE700BF03F0C9FAA06BE16BC2
:102FE000884201D3022D28D12A4641462046FFF7C8
:102FF00062FF0746606A08B9012000E0002068B956
:1030000004F1240001F0B3FF88B14FF08050424931
:103010000860BFF34F8FBFF36F8F08E03FB14FF0F1
:1030200080503D490860BFF34F8FBFF36F8F03F0AF
:10303000C5FA012007B0BDE8F083059818B903F080
:10304000BDFA0020F6E7B9F1000F04D101A802F0A3
:10305000A8F84FF0010903F0B1FA01F0D4F903F038
:1030600086FA94F94400401C10B9002084F844000A
:1030700094F94500401C10B9002084F8450003F085
:103080009DFA05A901A802F093F8F0B92046FFF7D0
:1030900003FFA0B104F11000059901F0DCFE204609
:1030A000FFF7BBFE01F0B4F8002895D14FF0805037
:1030B00019490860BFF34F8FBFF36F8F8CE720462D
:1030C000FFF7ABFE01F0A4F886E72046FFF7A5FE68
:1030D00001F09EF80020ADE710B5044654B1002081
:1030E000A06020600021E16000231A4619462046B6
:1030F000FFF720FF10BD2DE9F0410446012600270F
:10310000224600210120FFF755FE05462846FFF71D
:10311000E3FF2846BDE8F08104ED00E070B5054608
:103120002C4654B900BF502080F31188BFF34F8F55
:10313000BFF36F8F00BF00BFFEE702F0A5F8A168E4
:1031400088420CD1E068401EE060E06828B90023A6
:103150001A4619462046FFF7EDFE012600E000263C
:10316000304670BD01464A6A22B10A6B1268C2F14C
:10317000050000E00020704770B5054603F0F7F940
:10318000A86B08B9012400E0002403F017FA2046D8
:1031900070BD2DE9F34182B005464FF000082C4682
:1031A000002654B900BF502080F31188BFF34F8F21
:1031B000BFF36F8F00BF00BFFEE7206C08B901208E
:1031C00000E0002050B900BF502080F31188BFF309
:1031D0004F8FBFF36F8F00BF00BFFEE702F057F8BD
:1031E00008B9039808B9012000E0002050B900BFD9
:1031F000502080F31188BFF34F8FBFF36F8F00BF54
:1032000000BFFEE700BF03F0B2F9A76BFFB1781E65
:10321000A063206810B902F0B9F9A060206908B96C
:10322000012000E0002060B904F1100001F09FFED1
:1032300038B14FF08050F9490860BFF34F8FBFF3AA
:103240006F8F03F0BBF9012004B0BDE8F081039853
:1032500098B90EB9012000E0002050B900BF5020FD
:1032600080F31188BFF34F8FBFF36F8F00BF00BF94
:10327000FEE703F0A3F90020E6E7B8F1000F04D160
:10328000684601F08EFF4FF0010803F097F901F056
:10329000BAF803F06CF994F94400401C10B900200E
:1032A00084F8440094F94500401C10B9002084F8CB
:1032B000450003F083F903A9684601F079FF40BB9C
:1032C0002046FFF759FFF0B1206838B903F04FF9F5
:1032D000A06801F0E8FF064603F070F904F124004D
:1032E000039901F0B8FD2046FFF797FD00F090FF2D
:1032F000002888D14FF08050C8490860BFF34F8F35
:10330000BFF36F8F7FE72046FFF787FD00F080FF58
:1033100079E72046FFF781FD00F07AFF2046FFF7AE
:103320002BFF0028EED05EB103F021F92046FFF715
:1033300019FF07463946A06802F096F803F03EF9F7
:10334000002081E72DE9F04106460F46344654B986
:1033500000BF502080F31188BFF34F8FBFF36F8FF2
:1033600000BF00BFFEE701F08FFFA168884204D1D3
:10337000E068401CE060012508E039462046FFF780
:1033800008FF054615B1E068401CE0602846BDE82E
:10339000F08170B505460E46002455B1AE4208D8FE
:1033A000022200212846FFF705FD04466CB1A66302
:1033B0000BE054B900BF502080F31188BFF34F8F4A
:1033C000BFF36F8F00BF00BFFEE7204670BD2DE941
:1033D000F84F07468B4690461E463C4654B900BF00
:1033E000502080F31188BFF34F8FBFF36F8F00BF62
:1033F00000BFFEE7BBF1000F01D1206C08B901202E
:1034000000E0002050B900BF502080F31188BFF3C6
:103410004F8FBFF36F8F00BF00BFFEE7022E02D1B8
:10342000E06B012801D1012000E0002050B900BF6D
:10343000502080F31188BFF34F8FBFF36F8F00BF11
:1034400000BFFEE703F0EEF800BF5021EFF311805C
:1034500081F31188BFF34F8FBFF36F8F00BF054615
:10346000A06BE16B884201D3022E37D194F945A0BD
:10347000A06B0090324659462046FFF71CFD0AF12A
:10348000010088B9606A08B9012000E0002050B945
:1034900004F1240001F06BFD28B1B8F1000F02D057
:1034A0000120C8F8000016E0BAF17F0F01D001201A
:1034B00000E0002050B900BF502080F31188BFF316
:1034C0004F8FBFF36F8F00BF00BFFEE70AF101000F
:1034D00040B284F845004FF0010901E04FF00009C7
:1034E00000BF85F3118800BF4846BDE8F88F2DE97D
:1034F000F04706460F46344654B900BF502080F3CB
:103500001188BFF34F8FBFF36F8F00BF00BFFEE77F
:10351000206C08B9012000E0002050B900BF502005
:1035200080F31188BFF34F8FBFF36F8F00BF00BFD1
:10353000FEE7206808B9A06808B9012000E0002073
:1035400050B900BF502080F31188BFF34F8FBFF3F5
:103550006F8F00BF00BFFEE703F064F800BF50218B
:10356000EFF3118081F31188BFF34F8FBFF36F8F9B
:1035700000BF0546D4F838A0E06B504530D994F927
:1035800045900AF10100A06309F1010070B9606A79
:1035900008B9012000E00020F8B904F1240001F08E
:1035A000E6FCD0B1CFB10120386016E0B9F17F0F51
:1035B00001D0012000E0002050B900BF502080F36E
:1035C0001188BFF34F8FBFF36F8F00BF00BFFEE7BF
:1035D00009F1010040B284F845004FF0010801E014
:1035E0004FF0000800BF85F3118800BF4046BDE8DA
:1035F000F08770B504460D46206C70B1216CE06810
:103600000144E160D4E90210884201D32168E160FD
:103610002846226CE16803F0EDF970BD04ED00E08E
:103620002DE9F74183B005460E464FF000082C46C1
:1036300054B900BF502080F31188BFF34F8FBFF300
:103640006F8F00BF00BFFEE70EB9206C08B90120E4
:1036500000E0002050B900BF502080F31188BFF374
:103660004F8FBFF36F8F00BF00BFFEE701F00FFE6B
:1036700008B9059808B9012000E0002050B900BF42
:10368000502080F31188BFF34F8FBFF36F8F00BFBF
:1036900000BFFEE700BF02F06AFFA76BF7B131463B
:1036A0002046FFF7A6FF781EA063206908B9012015
:1036B00000E0002060B904F1100001F058FC38B1BE
:1036C0004FF08050F8490860BFF34F8FBFF36F8F02
:1036D00002F074FF012006B0BDE8F081059818B92A
:1036E00002F06CFF0020F6E7B8F1000F04D101A84A
:1036F00001F057FD4FF0010802F060FF00F083FE7B
:1037000002F035FF94F94400401C10B9002084F801
:10371000440094F94500401C10B9002084F845008D
:1037200002F04CFF05A901A801F042FDF0B92046C6
:10373000FFF722FDA0B104F12400059901F08BFBF5
:103740002046FFF76AFB00F063FD0028A3D14FF08D
:103750008050D5490860BFF34F8FBFF36F8F9AE752
:103760002046FFF75AFB00F053FD94E72046FFF791
:1037700054FB00F04DFD2046FFF7FEFC00288AD0E8
:103780000020A8E72DE9F74382B005460E464FF02A
:1037900000082C4654B900BF502080F31188BFF3B5
:1037A0004F8FBFF36F8F00BF00BFFEE70EB9206CD5
:1037B00008B9012000E0002050B900BF502080F37C
:1037C0001188BFF34F8FBFF36F8F00BF00BFFEE7BD
:1037D00001F05DFD08B9049808B9012000E000205F
:1037E00050B900BF502080F31188BFF34F8FBFF353
:1037F0006F8F00BF00BFFEE700BF02F0B8FED4F835
:103800003890B9F1000F1ED0E76831462046FFF727
:10381000F0FEE760606A08B9012000E0002060B9AE
:1038200004F1240001F0A3FB38B14FF080509E4911
:103830000860BFF34F8FBFF36F8F02F0BFFE012010
:1038400005B0BDE8F083049818B902F0B7FE002077
:10385000F6E7B8F1000F04D1684601F0A2FC4FF082
:10386000010802F0ABFE00F0CEFD02F080FE94F9FC
:103870004400401C10B9002084F8440094F945002D
:10388000401C10B9002084F8450002F097FE04A9FE
:10389000684601F08DFCF0B92046FFF76DFCA0B141
:1038A00004F12400049901F0D6FA2046FFF7B5FA96
:1038B00000F0AEFC0028A0D14FF080507A4908609B
:1038C000BFF34F8FBFF36F8F97E72046FFF7A5FA3F
:1038D00000F09EFC91E72046FFF79FFA00F098FC6D
:1038E0002046FFF749FC002887D00020A8E72DE9F3
:1038F000F05F06468A461746344654B900BF50204A
:1039000080F31188BFF34F8FBFF36F8F00BF00BFED
:10391000FEE7BAF1000F01D1206C08B9012000E0E8
:10392000002050B900BF502080F31188BFF34F8FA3
:10393000BFF36F8F00BF00BFFEE702F073FE00BF52
:103940005021EFF3118081F31188BFF34F8FBFF344
:103950006F8F00BF0546D4F838B0BBF1000F34D0EC
:1039600094F9449051462046FFF743FEABF1010025
:10397000A06309F1010070B9206908B9012000E0D5
:103980000020F8B904F1100001F0F1FAD0B1CFB184
:103990000120386016E0B9F17F0F01D0012000E06E
:1039A000002050B900BF502080F31188BFF34F8F23
:1039B000BFF36F8F00BF00BFFEE709F1010040B207
:1039C00084F844004FF0010801E04FF0000800BF08
:1039D00085F3118800BF4046BDE8F09F2DE9F04710
:1039E00006468846344654B900BF502080F31188FB
:1039F000BFF34F8FBFF36F8F00BF00BFFEE7B8F17B
:103A0000000F01D1206C08B9012000E0002050B95E
:103A100000BF502080F31188BFF34F8FBFF36F8F2B
:103A200000BF00BFFEE7206C08B1012000E00020CD
:103A300050B900BF502080F31188BFF34F8FBFF300
:103A40006F8F00BF00BFFEE702F0ECFD00BF50210A
:103A5000EFF3118081F31188BFF34F8FBFF36F8FA6
:103A600000BF0546A06B48B1D4F80C9041462046F3
:103A7000FFF7BFFDC4F80C90012700E0002700BF4E
:103A800085F3118800BF3846BDE8F08770B504465D
:103A900064B900BF502080F31188BFF34F8FBFF38C
:103AA0006F8F00BF00BFFEE704ED00E002F05FFD96
:103AB000A56B02F083FD284670BD70B5044625460F
:103AC00055B900BF502080F31188BFF34F8FBFF36B
:103AD0006F8F00BF00BFFEE702F049FDD5E90E1071
:103AE000461A02F06BFD304670BD10B501460A461D
:103AF00052B900BF502383F31188BFF34F8FBFF338
:103B00006F8F00BF00BFFEE7906B10BD014651B93B
:103B100000BF502282F31188BFF34F8FBFF36F8F26
:103B200000BF00BFFEE700200EE0684A02EBC002C3
:103B300052688A4207D10022644B43F8302003EBDD
:103B4000C0035A6002E0401C0828EED300BF704753
:103B500070B50446254655B900BF502080F3118842
:103B6000BFF34F8FBFF36F8F00BF00BFFEE7284644
:103B7000FFF7CCFF284602F0A7FE70BD0146886C17
:103B8000704781647047014691F84C00704710B54A
:103B900001460A4652B900BF502383F31188BFF390
:103BA0004F8FBFF36F8F00BF00BFFEE7936B0BB962
:103BB000012000E0002010BD10B501460A4652B9B0
:103BC00000BF502383F31188BFF34F8FBFF36F8F74
:103BD00000BF00BFFEE7936BD46BA34201D101206D
:103BE00000E0002010BD30B502460B4652B900BFC0
:103BF000502484F31188BFF34F8FBFF36F8F00BF42
:103C000000BFFEE70021BBB1002012E02F4C04EB07
:103C1000C0046468944203D12C4C04EBC0010AE058
:103C200031B92A4C54F8304014B9284C04EBC00187
:103C3000401C0828EAD300BF09B10B604A6030BDC0
:103C400010B50246002052B900BF502383F31188FB
:103C5000BFF34F8FBFF36F8F00BF00BFFEE70021A0
:103C60000AE01A4B03EBC1035B68934203D1174B85
:103C700053F8310002E0491C0829F2D300BF10BDFF
:103C80002DE9F04105460E4617462C4602F06FFC22
:103C900094F94400401C10B9002084F8440094F9C1
:103CA0004500401C10B9002084F8450002F086FC55
:103CB000A06B28B93A46314604F1240001F028F9F6
:103CC0002046FFF7AAF8BDE8F0810000D4020020EA
:103CD00010B5002407E004EB8401F74A02EB8100F1
:103CE000FEF79EFF641C052CF5D3F448FEF798FF01
:103CF000F348FEF795FFF348FEF792FFF248FEF710
:103D00008FFFF248FEF78CFFEC48F1490860EC4861
:103D1000F049086010BD10B5044602F028FCEE48DA
:103D20000068401CEC490860EC48006840B9EB486A
:103D300004600846006801280DD1FFF7C9FF0AE0BA
:103D4000E748006838B9E5480068C06AE16A884217
:103D500001D8E2480460E3480068401CE14908607B
:103D600008460068206494F82C1001208840DE4941
:103D700009680843DC490860E16A01EB8101CE4A29
:103D800002EB81014868A0608268E260211D8268C0
:103D900051608160E16A01EB8101C74A02EB810257
:103DA0006261E16A01EB8101C34A52F82110491CAA
:103DB000E26A02EB8202C04B43F8221002F0FEFBE3
:103DC000C748006868B1C5480068C06AE16A8842AF
:103DD00007D24FF08050C5490860BFF34F8FBFF343
:103DE0006F8F10BD2DE9F05F82460F4690469B46CF
:103DF0000A9E0C9C4FEA8801A522206B02F00CFE63
:103E0000A8F10100216B01EB800929F0070909F0F5
:103E1000070008B9012000E0002050B900BF502081
:103E200080F31188BFF34F8FBFF36F8F00BF00BFC8
:103E3000FEE787B1002507E0795D04F134004155C4
:103E4000785D00B902E06D1C0A2DF5D300BF00219A
:103E50003D20015502E0002084F83400052E01D2F7
:103E6000012000E0002050B900BF502080F31188ED
:103E7000BFF34F8FBFF36F8F00BF00BFFEE7052E6C
:103E800000D30426E662A6640020E064201DFEF74D
:103E9000D4FE04F11800FEF7D0FE2461C6F105003F
:103EA000A06164620020206584F854005A4651469F
:103EB000484602F07DFA20600B9808B10B98046028
:103EC000BDE8F09F2DE9FF4F85B080468946174633
:103ED000DDE912ABB80002F04EFC064656B15820A0
:103EE00002F049FC04460CB1266304E0304602F0BF
:103EF000EBFC00E000247CB10020CDE900ABCDE973
:103F000002403A4649464046089BFFF76BFF204671
:103F1000FFF701FF012501E04FF0FF35284609B00A
:103F2000BDE8F08F10B50446206B02F0CDFC2046B2
:103F300002F0CAFC10BD66480068006808B901209C
:103F400000E0002020B14FF0FF306949086005E033
:103F50005F480068C068006865490860704770B5D0
:103F6000054602F004FB15B95C48006800E02846ED
:103F70000446201DFEF78AFE78B9E06A00EB800057
:103F80004D4951F8200040B994F82C100120884088
:103F900055490968814354480160A06A18B104F189
:103FA0001800FEF773FE4F480068401C4D4908603A
:103FB0004A480068844209D1211D4348FEF740FE6B
:103FC0004C480068401C4B49086006E042480068C5
:103FD000401E41490860FFF7AEFF02F0EFFA3F488C
:103FE0000068844202D02046FFF79CFF3C480068EE
:103FF000E8B13A480068844219D13F48006808B9DE
:10400000012000E0002050B900BF502080F311884B
:10401000BFF34F8FBFF36F8F00BF00BFFEE74FF0BE
:10402000805032490860BFF34F8FBFF36F8F70BD70
:104030002DE9F0414FF000082F48006800287DD19D
:104040002E480068451C2D48056015BB20480068B7
:10405000006808B9012000E0002050B900BF5020DE
:1040600080F31188BFF34F8FBFF36F8F00BF00BF86
:10407000FEE71748076817480068154908601548A3
:1040800007601F480068401C1D490860FFF753FF88
:1040900000BF1748006885427ED300BF0C48006807
:1040A000006808B9012000E0002020B14FF0FF3087
:1040B0000F49086091E025E01403002078030020F8
:1040C0008C030020A0030020B4030020C8030020BC
:1040D0004C00002050000020580000204800002024
:1040E00064000020740000206000002004ED00E067
:1040F0007800002054000020840000205C00002094
:1041000070000020FA480068C068C4686668B5425C
:1041100002D2F848066060E06069D4E902128A6061
:10412000D4E902214A60211D42688A4201D1E16836
:104130004160002262610168491E00E060E00160A8
:10414000A06A98B1A06AD4E907128A60D4E907216D
:104150004A6004F1180142688A4201D1216A416033
:104160000022A2620168491E016000BF94F82C1071
:1041700001208840E04909680843DF490860E16A96
:1041800001EB8101DD4A02EB81014868A060826891
:10419000E260211D826800E020E051608160E16AF8
:1041A00001EB8101D54A02EB81026261E16A01EB18
:1041B0008101D24A52F82110491CE26A02EB8202C4
:1041C000CE4B43F82210CE49E06A0968C96A88429A
:1041D000FFF464AF4FF0010860E700BFC848006813
:1041E000C06A00EB8000C54951F82000012801D9C0
:1041F0004FF00108C348006808B14FF0010804E01F
:10420000C1480068401CC04908604046BDE8F081D4
:1042100070B500240026BD48006850B900BF50208A
:1042200080F31188BFF34F8FBFF36F8F00BF00BFC4
:10423000FEE702F09CF9B5480068401EB3490860EB
:104240000846006800287DD1B1480068002879D070
:104250005BE0B048C068C468A06AD4E907128A600D
:10426000D4E907214A6004F1180142688A4201D169
:10427000216A41600022A2620168491E01606069F2
:10428000D4E902128A60D4E902214A60211D426801
:104290008A4201D1E1684160002262610168491EE1
:1042A000016094F82C100120884093490968084364
:1042B00091490860E16A01EB8101904A02EB8101BA
:1042C0004868A0608268E260211D82685160816058
:1042D000E16A01EB8101894A02EB81026261E16AD4
:1042E00001EB8101854A52F82110491CE26A02EB78
:1042F0008202824B43F822108149E06A0968C96A48
:10430000884202D301207F4908608248006808B9CA
:10431000012000E0002000289BD00CB1FFF70BFE2D
:104320007948056865B100BFFFF782FE10B1012032
:10433000744908606D1E002DF6D100207249086096
:10434000704800E009E0006838B101263007724982
:104350000860BFF34F8FBFF36F8F02F02FF9304625
:1043600070BD2DE9F04105460E466C48076864486B
:104370000068001DFEF78AFC50B96148006890F89B
:104380002C10012088405C49096881435A4801602B
:10439000681CD8B9D6B1624948685949096888602B
:1043A000574982680968CA6055490968091D8268C9
:1043B000516053490968091D8160594A504909688B
:1043C0004A6111460968491C11601AE07C194C4881
:1043D00000684460BC4207D249480168091D514841
:1043E0000068FEF739FC0CE045480168091D4048AB
:1043F0000068FEF731FC3F480068844201D23D4826
:104400000460BDE8F08141480068401C3F490860F5
:1044100070472DE9F04704460F464FF0000954B9A4
:1044200000BF502080F31188BFF34F8FBFF36F8F11
:1044300000BF00BFFEE70FB1012000E0002050B92F
:1044400000BF502080F31188BFF34F8FBFF36F8FF1
:1044500000BF00BFFEE72D48006808B9012000E05A
:10446000002050B900BF502080F31188BFF34F8F58
:10447000BFF36F8F00BF00BFFEE7FFF7C4FF274801
:1044800006682068C5192068B04207D92068A8428C
:104490000BD9B54209D94FF0010906E02068A842BE
:1044A00001D8B54201D94FF001092560B9F1000FDB
:1044B00003D0A81B0021FFF754FFFFF7A9FE804699
:1044C000B8F1000F07D14FF0805013490860BFF3D7
:1044D0004F8FBFF36F8F4846BDE8F08770B5044635
:1044E000002524B109480068F0B901201DE031E041
:1044F0004C00002078000020600000201403002001
:10450000480000206C00002068000020840000208B
:1045100058000020A003002004ED00E05C00002013
:10452000C803002050000020002050B900BF5020D8
:1045300080F31188BFF34F8FBFF36F8F00BF00BFB1
:10454000FEE7FFF760FF00212046FFF70AFFFFF7B5
:104550005FFE05463DB94FF08050FD490860BFF34E
:104560004F8FBFF36F8F70BD2DE9F04707463E4672
:1045700056B900BF502080F31188BFF34F8FBFF3AF
:104580006F8F00BF00BFFEE7F2480068864201D18E
:1045900000242DE001F0EBFF7569EF48D0F80080B2
:1045A000EE48D0F8009002F009F8454501D04D459D
:1045B00001D102241CE0EA48854212D1B06A70B9E8
:1045C0000324002007E006F15401095C012901D110
:1045D000022402E0401C0128F5DB00BF08E00224B1
:1045E00006E0E048854200D00DB9042400E0012433
:1045F0002046BDE8F08770B5044601F0B8FF14B955
:10460000D448006800E020460646F56A01F0D6FF6F
:10461000284670BD2DE9F041054602F003F800BFC1
:104620005021EFF3118081F31188BFF34F8FBFF357
:104630006F8F00BF044615B9C648006800E02846E1
:104640000746FE6A00BF84F3118800BF3046BDE80C
:10465000F0812DE9F04780460D464FF00009052D09
:1046600001D2012000E0002050B900BF502080F3AB
:104670001188BFF34F8FBFF36F8F00BF00BFFEE7FE
:10468000052D00D3042501F072FFB8F1000F02D10F
:10469000B048006800E040460446A66CAE4270D0C8
:1046A000B5420BD9AB48006884420DD0A9480068D8
:1046B000C06AA84208D84FF0010905E0A548006883
:1046C000844201D14FF00109E76AE16AA06C884297
:1046D00000D1E562A564A06900F0004010B9C5F101
:1046E0000500A06107EB87019F4A02EB8101606929
:1046F000884201D1012000E00020B0B3201DFEF768
:10470000C5FA30B90120B8409849096881439748F3
:10471000016094F82C1001208840944909680843EE
:1047200092490860E16A01EB81018F4A02EB810145
:104730004868A0608268E260211D826851608160E3
:10474000E16A01EB8101884A02EB81026261E16A60
:1047500001EB8101844A52F82110491CE26A02EB04
:104760008202814B43F8221000BFB9F1000F07D03D
:104770004FF0805076490860BFF34F8FBFF36F8FC3
:1047800000BF01F01BFFBDE8F0877948006818B151
:1047900001207849086032E00020764908607348BB
:1047A0000068B0FA80F0C0F11F0101EB81006E4A91
:1047B00052F8200008B1012000E0002050B900BFED
:1047C000502080F31188BFF34F8FBFF36F8F00BF6E
:1047D00000BFFEE701EB8102634B03EB82004268FE
:1047E0005268426000F108024368934202D1426875
:1047F000526842604268D268564B1A6000BF7047E8
:1048000070B5054601F0B3FE15B95248006800E0E6
:1048100028460446201DFEF739FA78B9E06A00EB15
:104820008000514951F8200040B994F82C10012023
:1048300088404E49096881434C480160A06A18B11C
:1048400004F11800FEF722FA211D4548FEF7F8F999
:10485000002009E004F15401095C012903D1002280
:1048600004F154010A54401C0128F3DB01F0A6FEB8
:104870004148006828B101F07AFEFFF75CFB01F0C7
:104880009DFE34480068844229D13B480068D0B17D
:104890003748006808B9012000E0002050B900BF87
:1048A000502080F31188BFF34F8FBFF36F8F00BF8D
:1048B00000BFFEE74FF0805025490860BFF34F8FDF
:1048C000BFF36F8F0BE0264800682C4909688842C7
:1048D00003D100201F49086001E0FFF756FF70BDBB
:1048E00010B502460020114652B900BF502383F391
:1048F0001188BFF34F8FBFF36F8F00BF00BFFEE77C
:10490000174C4B69A34201D1012300E0002373B18E
:104910001B4C8B6AA34201D1012300E0002333B971
:104920008B6A0BB9012300E0002303B1012010BD05
:1049300070B505462C4655B900BF502080F311884C
:10494000BFF34F8FBFF36F8F00BF00BFFEE719E0CB
:1049500004ED00E0480000204C0000205000002042
:10496000C8030020B40300201403002060000020CE
:10497000840000206C00002064000020580000200B
:10498000A0030020FE480068844245D0002C43D09C
:1049900001F0EDFD2046FFF7A3FFD8B3201DFEF781
:1049A00075F994F82C1001208840F64909680843ED
:1049B000F4490860E16A01EB8101F34A02EB8101ED
:1049C0004868A0608268E260211D82685160816051
:1049D000E16A01EB8101EC4A02EB81026261E16A6A
:1049E00001EB8101E84A52F82110491CE26A02EB0E
:1049F0008202E54B43F82210E149E06A0968C96A7E
:104A0000884207D34FF08050E0490860BFF34F8FD2
:104A1000BFF36F8F01F0D2FD70BD2DE9F041064666
:104A20000027344656B900BF502080F31188BFF3E9
:104A30004F8FBFF36F8F00BF00BFFEE701F0F2FDA5
:104A400000BF5021EFF3118081F31188BFF34F8F26
:104A5000BFF36F8F00BF05462046FFF741FF0028D8
:104A600041D0CB480068C0BBC549E06A0968C96A43
:104A7000884203D301270120C6490860201DFEF7A4
:104A800005F994F82C1001208840BE4909680843B4
:104A9000BC490860E16A01EB8101BB4A02EB81017C
:104AA0004868A0608268E260211D82685160816070
:104AB000E16A01EB8101B44A02EB81026261E16AC1
:104AC00001EB8101B04A52F82110491CE26A02EB65
:104AD0008202AD4B43F8221005E0FFE704F1180114
:104AE000AD48FEF7ADF800BF85F3118800BF38462A
:104AF000BDE8F08110B516E001F039FDA748C068A7
:104B0000C468201DFEF7C2F8A5480068401EA449ED
:104B10000860A4480068401EA249086001F04EFDEC
:104B20002046FFF7FFF99F4800680028E4D110BD38
:104B300000BFFFF7DFFF944800680128F9D94FF064
:104B4000805092490860BFF34F8FBFF36F8FF0E73B
:104B50001CB5954800210B468222CDE9001093A197
:104B60009448FFF7AFF90446012C02D101F068FA2E
:104B70000446012C15D100BF502080F31188BFF3EB
:104B80004F8FBFF36F8F00BF4FF0FF308A4908602F
:104B900001208A49086000208949086001F02DFC45
:104BA00010E0601C08B1012000E0002050B900BFF7
:104BB000502080F31188BFF34F8FBFF36F8F00BF7A
:104BC00000BFFEE77F4800681CBD10B500BF502045
:104BD00080F31188BFF34F8FBFF36F8F00BF0020AA
:104BE0007649086001F0AEFC10BD75490868704751
:104BF00070B501F017FD002571480468204670BDAE
:104C0000674800687047014611B95D48006800E0D8
:104C10000846024652B900BF502080F31188BFF306
:104C20004F8FBFF36F8F00BF00BFFEE702F134006C
:104C300070470246002101E0521C491C1078A5284B
:104C4000FAD0890888B270472DE9F04107460C4632
:104C500090461E4617B94A48006800E038460546A7
:104C6000256005F134006060E86A2061286BE0612E
:104C7000286CA060A86C60610020A061052E12D095
:104C80003F480068854202D1002020730FE0267360
:104C9000032E0CD1FFF7B7FBA86A08B102202073DE
:104CA000FFF7B6FA03E02846FFF75EFC2073B8F181
:104CB000000F04D0286BFFF7BCFF208401E0002028
:104CC0002084BDE8F0812DE9F04707460C46904668
:104CD0000026206848B3204641684968416000F1D9
:104CE000080142688A4202D14168496841604168CE
:104CF000D1F80C9000BF204641684968416000F13E
:104D0000080142688A4202D14168496841604168AD
:104D1000CD6806EBC60007EB80014346012228461A
:104D2000FFF792FF761C4D45E5D13046BDE8F08790
:104D30002DE9F04105468846164600240527FFF771
:104D400062FB17480068804560D300BF7F1E07EBF9
:104D500087020D4B03EB820104EBC40205EB8200DA
:104D60000122FFF7B0FF0444002FEFD104EBC40190
:104D700005EB8100022214490968FFF7A4FF25E032
:104D800048000020600000201403002004ED00E033
:104D9000840000206C000020A0030020B403002049
:104DA00058000020540000207C00002049444C455D
:104DB00000000000314B0008780000206400002053
:104DC0005C000020800000204C000020044404EB24
:104DD000C40105EB81000222FD490968FFF773FF5A
:104DE000044404EBC40105EB81000422F949FFF7F8
:104DF0006AFF044404EBC40105EB81000322F64979
:104E0000FFF761FF04440EB100203060FFF700FAA5
:104E10002046BDE8F08170B50446F048006808B946
:104E2000012000E0002050B900BF502080F311881D
:104E3000BFF34F8FBFF36F8F00BF00BFFEE7FFF7D9
:104E4000E2FAE74800682044E5490860FFF7E0F926
:104E50000546284670BD70B504460D4654B900BFDE
:104E6000502080F31188BFF34F8FBFF36F8F00BFC7
:104E700000BFFEE7DB48016818312046FDF7ECFE75
:104E800001212846FFF76DFA70BD70B504460D4646
:104E9000164654B900BF502080F31188BFF34F8FDE
:104EA000BFF36F8F00BF00BFFEE7CC48006808B1BA
:104EB000012000E0002050B900BF502080F311888D
:104EC000BFF34F8FBFF36F8F00BF00BFFEE745F00A
:104ED0000040C449096888616068C2490968C861BE
:104EE000C049826809680A62BE4909681831826847
:104EF0005160BC49096818318160BA4909688C62FF
:104F00002168491C216001213046FFF72AFA70BD53
:104F100070B504460E46154654B900BF502080F3C4
:104F20001188BFF34F8FBFF36F8F00BF00BFFEE745
:104F30006068AC490968C861AA49826809680A6260
:104F4000A8490968183182685160A6490968183172
:104F50008160A44909688C622168491C21600DB1F7
:104F60004FF0FF3629463046FFF7FBF970BD70B5AC
:104F70000346D868C16851B900BF502080F311883A
:104F8000BFF34F8FBFF36F8F00BF00BFFEE7886A8C
:104F9000D1E90745A560D1E90754656001F118041E
:104FA0004568A54201D10C6A446000258D62046801
:104FB000641E04608948006800283DD14869D1E931
:104FC0000245A560D1E9025465600C1D4568A54203
:104FD00001D1CC68446000254D610468641E046002
:104FE00091F82C400120A0407F4C246820437E4C47
:104FF0002060CC6A04EB84047C4D05EB840460687B
:1050000088608568CD600C1D85686C608460CC6AA2
:1050100004EB8404754D05EB84054D61CC6A04EB0B
:105020008404724D55F82440641CCD6A05EB850557
:105030006E4E46F8254010E06D4C6068C86185688A
:105040000D6201F1180485686C608460684D8D62A2
:105050002C462468641C2C6000BF624CC86A24681B
:10506000E46AA04204D901220120624C206000E0E1
:105070000022104670BD70B502460B4657490968BC
:1050800009B1012100E0002151B900BF502181F395
:105090001188BFF34F8FBFF36F8F00BF00BFFEE7D4
:1050A00043F000411160D06850B900BF502181F336
:1050B0001188BFF34F8FBFF36F8F00BF00BFFEE7B4
:1050C0001169D2E90154AC60D2E901456C604C68C9
:1050D000944201D194684C60002414610C68641EF1
:1050E0000C604169D0E90245A560D0E902546560D1
:1050F000041D4D68A54201D1C4684C60002545617E
:105100000C68641E0C6090F82C400121A140364CC4
:1051100024682143344C2160C46A04EB8404334D79
:1051200005EB8404616881608D68C560041D8D682D
:105130006C608C60C46A04EB84042C4D05EB840520
:105140004561C46A04EB8404284D55F82440641C6E
:10515000C56A05EB8505254E46F82540214CC16AF8
:105160002468E46AA14202D90121224C216070BD69
:1051700010B5044654B900BF502080F31188BFF326
:105180004F8FBFF36F8F00BF00BFFEE701F0EFF955
:1051900019480068206019480068606001F00EFA44
:1051A00010BD1549096801601449096841607047DC
:1051B00070B505460C4655B900BF502080F31188E4
:1051C000BFF34F8FBFF36F8F00BF00BFFEE717E045
:1051D00050000020B4030020C803002084000020F9
:1051E0006800002048000020600000201403002018
:1051F000A00300206C000020700000205C00002054
:1052000054B900BF502080F31188BFF34F8FBFF314
:105210006F8F00BF00BFFEE701F0A9F9FE480268EA
:105220006868131A2068401C08B9002619E0FB4979
:1052300028680968884206D06868904203D8012629
:10524000002020600DE02068984207D92068C01A2D
:1052500020602846FFF7A5FF002602E0002020601E
:10526000012601F0ABF9304670BD0120EC49086021
:105270007047014611B10A46506C00E000207047AB
:1052800008B1024651647047E64908687047E6492C
:10529000096809B9012005E0E449096809B9022053
:1052A00000E00020704770B505462C460026002D12
:1052B00067D0DC49E06A0968C96A88425AD2A069A5
:1052C00000F0004028B9D7480068C06AC0F1050066
:1052D000A061E16A01EB8101D54A02EB81016069BD
:1052E000884201D1012000E00020E0B3201DFDF73D
:1052F000CDFC40B994F82C1001208840CD490968B4
:105300008143CC480160C7480068C06AE06294F8F5
:105310002C1001208840C74909680843C549086026
:10532000E16A01EB8101C24A02EB81014868A06099
:105330008268E260211D826851608160E16A01EB50
:105340008101BB4A02EB81026261E16A01EB8101EA
:10535000B74A52F82110491CE26A02EB8202B44BB0
:1053600043F8221004E0FFE7AE480068C06AE0623C
:10537000012606E0AB49A06C0968C96A884200D2E0
:105380000126304670BD70B505462C460026002D1E
:1053900068D0A4480068844201D1012000E00020C8
:1053A00050B900BF502080F31188BFF34F8FBFF377
:1053B0006F8F00BF00BFFEE7E06C50B900BF502008
:1053C00080F31188BFF34F8FBFF36F8F00BF00BF13
:1053D000FEE7E06C401EE064A16CE06A884241D0C8
:1053E000E06C00283ED1201DFDF750FC40B994F838
:1053F0002C10012088408F49096881438D48016045
:10540000A06CE062E06AC0F10500A06194F82C1085
:105410000120884087490968084386490860E16A95
:1054200001EB8101824A02EB81014868A060826839
:10543000E260211D826851608160E16A01EB8101B7
:105440007B4A02EB81026261E16A01EB8101784AE9
:1054500052F82110491CE26A02EB8202744B43F8B5
:1054600022100126304670BD2DE9F04706460F4652
:1054700034464FF00109002E7AD0E06C50B900BFDD
:10548000502080F31188BFF34F8FBFF36F8F00BFA1
:1054900000BFFEE7A06CB84201D23D4600E0A56C1B
:1054A000E06AA84264D0E06C012861D15D480068E0
:1054B000844201D0012000E0002050B900BF5020FC
:1054C00080F31188BFF34F8FBFF36F8F00BF00BF12
:1054D000FEE7D4F82C80E562A06900F0004010B926
:1054E000C5F10500A06108EB8801514A02EB81017A
:1054F0006069884201D1012000E00020C0B3201D76
:10550000FDF7C4FB40B994F82C10012088404949AC
:10551000096881434748016094F82C1001208840B5
:1055200044490968084343490860E16A01EB810185
:105530003F4A02EB81014868A0608268E260211D59
:10554000826851608160E16A01EB8101384A02EBB7
:1055500081026261E16A01EB8101354A52F8211052
:10556000491CE26A02EB8202314B43F8221000BF71
:10557000BDE8F0872B49096888692A490968C96A22
:10558000C1F10501274A12689161704725480068FA
:1055900030B12449096801F14C00C96C491C016013
:1055A0002048006870472DE9F04104460F46164632
:1055B0000CB9012000E0002050B900BF502080F35A
:1055C0001188BFF34F8FBFF36F8F00BF00BFFEE79F
:1055D00000F0CDFF13480068503050F8240080B927
:1055E0000121104800685430015556B13046FEF78D
:1055F000B8FE4FF0805010490860BFF34F8FBFF3E3
:105600006F8F00F0DBFF00F0B2FF064800685030FB
:1056100050F8245005B311E05C0000207000002019
:105620006C0000204800002064000020840000205E
:10563000140300206000002004ED00E037B10021D9
:10564000F7480068503040F8241005E0681EF4491F
:105650000968503141F824000021F14800685430B5
:10566000015500F0ABFF2846BDE8F0812DE9F04779
:1056700004460F4690461D46DDF820900CB90120E7
:1056800000E0002050B900BF502080F31188BFF324
:105690004F8FBFF36F8F00BF00BFFEE700F067FFC3
:1056A000DF4800685430005D02281AD0DC490968E0
:1056B000503101EB84000168B94301600121D848F1
:1056C000006854300155B9F1000F0AD04846FEF782
:1056D00048FE4FF08050D3490860BFF34F8FBFF3AF
:1056E0006F8F00F06BFF00F042FF2DB1CC480068D7
:1056F000503050F824002860C94800685430005DDC
:10570000022801D0002609E0C5490968503101EBA3
:105710008400016821EA0801016001260021C048D7
:1057200000685430015500F049FF3046BDE8F0876D
:105730002DE9F05F07460D4616469846DDF828A08D
:105740004FF0010B0DB9012000E0002050B900BF5F
:10575000502080F31188BFF34F8FBFF36F8F00BFCE
:1057600000BFFEE757B900BF502080F31188BFF398
:105770004F8FBFF36F8F00BF00BFFEE73C4600F0C6
:10578000F6FEBAF1000F05D004F1500050F82500E4
:10579000CAF8000004F1540010F8059002214155A8
:1057A000B8F1050F29D2DFE808F027030D171C0018
:1057B00004F1500050F82500304304F1500141F845
:1057C00025002DE004F1500050F82500401C04F1A4
:1057D000500141F8250023E004F1500040F8256015
:1057E0001EE0B9F1020F04D004F1500040F825602A
:1057F00001E04FF0000B13E012E08B48006808B99D
:10580000012000E0002050B900BF502080F3118833
:10581000BFF34F8FBFF36F8F00BF00BFFEE700BF26
:1058200000BFB9F1010F5BD16069D4E902128A604F
:10583000D4E902214A60211D42688A4201D1E1680F
:105840004160002262610168491E016094F82C10D9
:105850000120884075490968084374490860E16A75
:1058600001EB8101724A02EB81014868A060826805
:10587000E260211D826851608160E16A01EB810173
:105880006B4A02EB81026261E16A01EB8101684AC5
:1058900052F82110491CE26A02EB8202644B43F881
:1058A0002210A06A08B9012000E0002050B900BF12
:1058B000502080F31188BFF34F8FBFF36F8F00BF6D
:1058C00000BFFEE75649E06A0968C96A884207D9FD
:1058D0004FF0805053490860BFF34F8FBFF36F8F75
:1058E00000F06CFE5846BDE8F09F2DE9F84F804669
:1058F0000D4617469946DDF828B001200090B8F112
:10590000000F0AD100BF502080F31188BFF34F8FE2
:10591000BFF36F8F00BF00BFFEE70DB9012000E0AD
:10592000002050B900BF502080F31188BFF34F8F83
:10593000BFF36F8F00BF00BFFEE700F073FE444669
:1059400000BF5021EFF3118081F31188BFF34F8F17
:10595000BFF36F8F00BF0646BBF1000F05D004F107
:10596000500050F82500CBF8000004F1540010F866
:1059700005A002214155B9F1050F29D2DFE809F050
:1059800027030D171C0004F1500050F82500384380
:1059900004F1500141F825002DE004F1500050F8C9
:1059A0002500401C04F1500141F8250023E004F1DA
:1059B000500040F825701EE0BAF1020F04D004F147
:1059C000500040F8257001E00020009013E012E044
:1059D0001548006808B9012000E0002050B900BF58
:1059E000502080F31188BFF34F8FBFF36F8F00BF3C
:1059F00000BFFEE700BF00BFBAF1010F7BD1A06A74
:105A000008B9012000E00020A0B900BF502080F3B9
:105A10001188BFF34F8FBFF36F8F00BF00BFFEE74A
:105A20004800002004ED00E05C0000206000002041
:105A300014030020B5480068E8BB6069D4E902128D
:105A40008A60D4E902214A60211D42688A4201D15C
:105A5000E1684160002262610168491E016094F8BA
:105A60002C1001208840AA4909680843A849086009
:105A7000E16A01EB8101A74A02EB81014868A0605D
:105A80008268E260211D826851608160E16A01EBF9
:105A90008101A04A02EB81026261E16A01EB8101AE
:105AA0009C4A52F82110491CE26A02EB8202994B8F
:105AB00043F8221011E0FFE797494868E0618268E7
:105AC000226204F11801826851608160924AA262E8
:105AD00011460968491C116000BF9049E06A0968D5
:105AE000C96A884207D90B9810B101210B9801604F
:105AF00001208B49086000BF86F3118800BF009821
:105B0000BDE8F88F2DE9F04705460E46904655B999
:105B100000BF502080F31188BFF34F8FBFF36F8F0A
:105B200000BF00BFFEE70EB9012000E0002050B921
:105B300000BF502080F31188BFF34F8FBFF36F8FEA
:105B400000BF00BFFEE700F06DFD2C4600BF5021F6
:105B5000EFF3118081F31188BFF34F8FBFF36F8F85
:105B600000BF074604F1540010F806900221815549
:105B7000001F50F82600401C04F1500141F8260097
:105B8000B9F1010F72D1A06A08B9012000E000202C
:105B900050B900BF502080F31188BFF34F8FBFF37F
:105BA0006F8F00BF00BFFEE75848006800283DD156
:105BB0006069D4E902128A60D4E902214A60211D99
:105BC00042688A4201D1E168416000226261016855
:105BD000491E016094F82C10012088404C49096846
:105BE00008434B490860E16A01EB8101494A02EB35
:105BF00081014868A0608268E260211D826851606E
:105C00008160E16A01EB8101424A02EB810262613B
:105C1000E16A01EB81013F4A52F82110491CE26A16
:105C200002EB82023B4B43F8221010E03A494868ED
:105C3000E0618268226204F118018268516081602B
:105C4000354AA26211460968491C116000BF3349F8
:105C5000E06A0968C96A884208D9B8F1000F02D021
:105C60000120C8F8000001202D49086000BF87F31B
:105C7000118800BFBDE8F0872DE9F04106460C46CB
:105C80000CB9012000E0002050B900BF502080F383
:105C90001188BFF34F8FBFF36F8F00BF00BFFEE7C8
:105CA00016B91E48006800E03046074600F05FFC69
:105CB00007F15400005D022805D1002107F15400CE
:105CC0000155012500E0002500F078FC2846BDE8DC
:105CD000F0812DE9F04106460C46174616B90F48EB
:105CE000006800E03046054600F041FC05F1500038
:105CF00050F8248050F82400B84305F1500141F8D1
:105D0000240000F05BFC4046BDE8F08184000020E8
:105D10006000002014030020A003002048000020A1
:105D20006C0000202DE9F04104460D4616461F4642
:105D30004FF0000865602461B5420CD8F01BA169E2
:105D4000884202D34FF0010811E0211DFB48006892
:105D5000FCF782FF0BE0BE4204D2BD4202D34FF0FB
:105D6000010804E0211DF6480068FCF775FF404675
:105D7000BDE8F08170B504460D46164604E0A06902
:105D800005442046216A8847A06941192B463246BE
:105D90002046FFF7C7FF0028F1D170BD70B505465A
:105DA0000E46E7480068C068C468201DFCF76EFF17
:105DB00094F8280000F0040028B132462946204615
:105DC000FFF7D8FF05E094F8280000F0FE0084F803
:105DD00028002046216A884770BD70B508E0D84881
:105DE0000068C06804684FF0FF312046FFF7D6FF17
:105DF000D3480068006808B9012000E000200028AE
:105E0000EDD0CF480568CD480068CD490860CB4843
:105E1000056070BD70B50446FEF7E7FE0546C9484B
:105E20000068854204D2FFF7D8FF0120206001E01E
:105E300000202060C3480560284670BD7FB57FE024
:105E4000019800287CDB039C606908B9012000E010
:105E5000002010B9201DFCF719FF6846FFF7DAFF94
:105E6000054601980A2869D2DFE800F06805072E88
:105E7000365806082F3700BF00BF00BF94F828002F
:105E800040F0010084F828000298A26981180346B6
:105E90002A462046FFF746FFA8B194F8280000F0F4
:105EA000040038B10298A26981182A462046FFF7FB
:105EB00061FF05E094F8280000F0FE0084F8280057
:105EC0002046216A88473AE000BF94F8280000F095
:105ED000FE0084F8280032E000BF94F8280040F06B
:105EE000010084F828000298A061A06908B101208F
:105EF00000E0002050B900BF502080F31188BFF3AC
:105F00004F8FBFF36F8F00BF00BFFEE7A06941193D
:105F10002B462A462046FFF705FF10E094F828009C
:105F200000F0020018B9204600F0CEFC05E094F81D
:105F3000280000F0FE0084F8280000E000BF00BF49
:105F4000002201A980480068FDF76AFB00287FF461
:105F500077AF7FBDF8B505460C46FEF754FA6846A4
:105F6000FFF758FF0646009820BB44B9B54206D853
:105F7000FEF74EF931462846FFF710FF1CE03CB112
:105F80006E480068006808B9012000E0002004465F
:105F9000A91B22466C480068FDF772FEFEF738F92F
:105FA00050B94FF0805069490860BFF34F8FBFF37D
:105FB0006F8F01E0FEF72CF9F8BD0146604A1268C8
:105FC00012680AB9012200E000220A600A6822B9B8
:105FD0005B4A1268D268106800E00020704708B57C
:105FE00000BF6846FFF7E9FF044620460099FFF727
:105FF000B1FFFFF723FFF4E710B500F0B8FA5248FD
:106000000068D0B95248FCF70BFE5248FCF708FE76
:106010004F484B4908604F484849086000220C210E
:106020000A20FCF7C7FE484908600846006820B10E
:1060300049A145480068FDF7D6FD00F0BFFA10BD44
:106040001CB50024FFF7D8FF3F48006858B144480A
:10605000022100234FF48272CDE9001041A1434890
:10606000FDF730FF044654B900BF502080F311887B
:10607000BFF34F8FBFF36F8F00BF00BFFEE7204617
:106080001CBD2DE9F04706460D4617469846DDE94A
:1060900008940DB1012000E0002050B900BF50204D
:1060A00080F31188BFF34F8FBFF36F8F00BF00BF26
:1060B000FEE7FFF7A1FF2660A561C4F81C80C4F8C5
:1060C0002090201DFCF7B9FD2FB194F8280040F076
:1060D000040084F82800BDE8F0872DE9FC47054658
:1060E0000E4617469846DDF828902C2000F043FB1A
:1060F000044654B1002084F8280043463A4631460D
:106100002846CDE90094FFF7BCFF2046BDE8FC8798
:106110002DE9FE4304460D4616461F46DDF828804D
:106120004FF0000924BB00BF502080F31188BFF35B
:106130004F8FBFF36F8F00BF00BFFEE78C000020C2
:1061400088000020980000209000002004ED00E06E
:10615000DC030020F0030020546D725100000000A9
:1061600094000020546D722053766300DF5F0008B6
:106170007E48006810B3009501960294062D15DA4A
:10618000FFF785F8022808D1002342466946774880
:106190000068FCF7CFFE814610E000231A466946EE
:1061A00072480068FCF7C6FE814607E000233A46C5
:1061B00069466E480068FDF70AF981464846BDE821
:1061C000FE836B48006808B1012000E0002050B950
:1061D00000BF502080F31188BFF34F8FBFF36F8F44
:1061E00000BF00BFFEE762480068704701460A46EC
:1061F00051B900BF502080F31188BFF34F8FBFF318
:106200006F8F00BF00BFFEE79069704770B505460D
:106210000E462C4655B900BF502080F31188BFF3BD
:106220004F8FBFF36F8F00BF00BFFEE700F09FF9F5
:1062300036B194F8280040F0040084F8280005E006
:1062400094F8280000F0FB0084F8280000F0B6F96C
:1062500070BD70B50446264654B900BF502080F387
:106260001188BFF34F8FBFF36F8F00BF00BFFEE7F2
:1062700000F07DF996F8280000F0040008B9002528
:1062800000E0012500F09AF9284670BD10B50146DE
:106290000A4651B900BF502383F31188BFF34F8FD3
:1062A000BFF36F8F00BF00BFFEE7506810BD01460F
:1062B0000A4651B900BF502080F31188BFF34F8FB9
:1062C000BFF36F8F00BF00BFFEE71068704770B567
:1062D0000446264654B900BF502080F31188BFF30E
:1062E0004F8FBFF36F8F00BF00BFFEE700F03FF995
:1062F00096F8280000F0010008B9002500E001250B
:1063000000F05CF9284670BD70B50446254654B9C6
:1063100000BF502080F31188BFF34F8FBFF36F8F02
:1063200000BF00BFFEE700F022F9EE6900F046F979
:10633000304670BD70B504460D46264654B900BFC0
:10634000502080F31188BFF34F8FBFF36F8F00BFD2
:1063500000BFFEE700F00BF9F56100F02FF970BD0A
:106360000146486A70474162704700009000002073
:1063700094000020C6480068401C08B9012000E0D5
:10638000002050B900BF502080F31188BFF34F8F19
:10639000BFF36F8F00BF00BFFEE700BF502080F348
:1063A0001188BFF34F8FBFF36F8F00BF00BFFEE7B1
:1063B000001F4FF080730360001F21F00103036092
:1063C000001FB44B036014380260001F6FF002031B
:1063D00003602038704700204FF0E0210861886199
:1063E000AD4800684FF47A71B0FBF1F0401E4FF0F9
:1063F000E02148610720086170471CB5A748006884
:10640000A749884201D0012000E0002050B900BF18
:10641000502080F31188BFF34F8FBFF36F8F00BF01
:1064200000BFFEE79D4800689D49491E884201D093
:10643000012000E0002050B900BF502080F31188F7
:10644000BFF34F8FBFF36F8F00BF00BFFEE79549CB
:10645000084600780190FF200A4610700846007830
:1064600000909DF8000000F0F0009DF800209042A0
:1064700001D1012000E0002050B900BF502080F37E
:106480001188BFF34F8FBFF36F8F00BF00BFFEE7D0
:106490009DF8000000F05000834A10700720834AE6
:1064A000106009E081480068401E804A10609DF835
:1064B00000004006000E00909DF8000000F08000F3
:1064C0008028EFD079480068C0F10700042801D186
:1064D000012000E0002050B900BF502080F3118857
:1064E000BFF34F8FBFF36F8F00BF00BFFEE76F4852
:1064F000006800026D4A10601046008800F4E060F9
:106500001060684A0198107064482030006840F4B8
:1065100070006249203108600846006840F0704011
:106520000860FFF758FF002059490860F9F75CFE42
:106530005F48006840F040405D490860F9F740FE60
:1065400000201CBD52480068B0F57A7F01D10120BF
:1065500000E0002050B900BF502080F31188BFF345
:106560004F8FBFF36F8F00BF00BFFEE7704700BFC4
:10657000502080F31188BFF34F8FBFF36F8F00BFA0
:1065800043480068401C42490860084600680128EA
:1065900013D14248001D0068C0B208B9012000E0D4
:1065A000002050B900BF502080F31188BFF34F8FF7
:1065B000BFF36F8F00BF00BFFEE77047344800682D
:1065C00050B900BF502080F31188BFF34F8FBFF345
:1065D0006F8F00BF00BFFEE72D480068401E2C49AA
:1065E00008600846006820B9002080F3118800BFC9
:1065F00000BF704710B500BF502080F31188BFF373
:106600004F8FBFF36F8F00BFFDF712FD20B14FF02A
:1066100080502249091D086000BF002080F31188C6
:1066200000BF10BD70B5F9F717FE0446102C16D345
:1066300004F1E02090F8F0531B480078854201DB1C
:10664000012000E0002050B900BF502080F31188E5
:10665000BFF34F8FBFF36F8F00BF00BFFEE70F4840
:106660000C30006800F4E06010490968884201D8E5
:10667000012000E0002050B900BF502080F31188B5
:10668000BFF34F8FBFF36F8F00BF00BFFEE770BD3A
:106690009C000020756300081400002000ED00E05D
:1066A00071C20F4100E400E0A0000020A40000201F
:1066B00034EF00E010B50146C64800E0006803680A
:1066C0008B42FBD30246436813448B4204D1436898
:1066D0004C682344436001460A464B6813440468EF
:1066E000A34211D1BC4C03682468A34208D04B6874
:1066F0000468646823444B6003681B680B6005E012
:10670000B54B1B680B6001E003680B60884200D04A
:10671000016010BD30B54FF49633B04800F0070467
:106720002CB1C01D20F00700AC4C041B1B1B024603
:10673000A84C22600024A74D6C60D018083820F0C7
:106740000700A54C20600024A34D2D686C60A24D6D
:106750002D682C601146441A4C609F4C24680C60D4
:106760009F4D4C682C609F4D4C682C604FF000444E
:106770009D4D2C6030BD2DE9F04104464FF00008DE
:10678000FDF741FE9448006808B9FFF7C3FF96483B
:106790000068204000287DD13CB304F10800A042ED
:1067A00023D9083404F0070000B304F00700C0F157
:1067B00008002044A04216D904F00700C0F10800E8
:1067C000044404F0070008B9012000E0002068B983
:1067D00000BF502080F31188BFF34F8FBFF36F8F3E
:1067E00000BF00BFFEE7002400E00024002C54D0CE
:1067F0007C480068844250D8764E3046056801E0F7
:106800002E462D686868A04202D228680028F7D179
:1068100071480068854240D0306800F10808286857
:1068200030606868001B102819D92F1907F007007D
:1068300008B9012000E0002050B900BF502080F3CB
:106840001188BFF34F8FBFF36F8F00BF00BFFEE70C
:106850006868001B78606C603846FFF72BFF614961
:1068600068680968081A5F490860084600685C495A
:106870000968884203D25B480068594908605A4950
:106880006868096808436860002028605748006805
:10689000401C00E001E055490860FDF7B9FC08F034
:1068A000070008B9012000E0002050B900BF5020C7
:1068B00080F31188BFF34F8FBFF36F8F00BF00BF0E
:1068C000FEE74046BDE8F08170B506463546002E2D
:1068D00044D0083D2C46444960680968084008B126
:1068E000012000E0002050B900BF502080F3118843
:1068F000BFF34F8FBFF36F8F00BF00BFFEE720686D
:1069000008B9012000E0002050B900BF502080F3FA
:106910001188BFF34F8FBFF36F8F00BF00BFFEE73B
:106920003149606809680840C0B12068B0B92E4993
:106930006068096888436060FDF765FD2949606803
:1069400009680844274908602046FFF7B3FE284835
:106950000068401C26490860FDF75AFC70BD2148BC
:10696000006870471E480068704770472DE9F04185
:1069700004464FF000080026771EFDF744FD154839
:1069800005687DB100BF08F101086868B04200D910
:106990006E686868B84200D26F682D680E4800685B
:1069A0008542F0D1FDF734FC6660A760C4F80C8026
:1069B000FFF7DDFD0B48006820600C48006860614F
:1069C0000B480068A061064800682061FFF7F6FDEB
:1069D000BDE8F081A8000020B000002004040020E1
:1069E000B8000020B4000020C4000020BC0000203B
:1069F000C000002040EA01039B0703D009E008C95A
:106A0000121F08C0042AFAD203E011F8013B00F873
:106A1000013B521EF9D27047D2B201E000F8012BBF
:106A2000491EFBD270470022F6E710B513460A460E
:106A300004461946FFF7F0FF204610BD2DE9FE4F32
:106A4000804681EA0300C00F0C46009021F000410F
:106A500023F00045B8EB0200A94105D2404621468B
:106A600090461C460B46024623F00040104347D098
:106A7000270DC7F30A00C3F30A510290401A019090
:106A800040286BDAC3F3130040F4801B0098924651
:106A900020B10023D2EB030A63EB0B0B019859469C
:106AA000C0F14002504600F055F906460D465046EA
:106AB0005946019A00F06DF910EB0800614100247D
:106AC00087EA115284EAE7731A4340D0009A62B30E
:106AD000019A012A4FEA075215DC001B61EB020103
:106AE0004FF0004202EA0752CDE90042001C41F596
:106AF000801132462B4600F06DF903B0BDE8F08FEF
:106B000040462146F9E7001B61EB0201001C41F5FC
:106B1000801300185B412018A2F5001747EB030112
:106B200040EAD570B6196D4111E06D084FEA36069E
:106B300045EAC0754FEA0752001B61EB0201001CD9
:106B400041F5801149084FEA3000001951413246A1
:106B50002B4603B0BDE8F04F00F02DB9009801229C
:106B600040000023D0EB020263EBE0730098214663
:106B70004FEAE074B8EB000061EB0401E9E783F051
:106B800000435BE781F0004158E72DE9FE4F81EAC1
:106B9000030404F0004421F0004100944FF0000B86
:106BA00023F0004350EA01045ED052EA03045BD0B4
:106BB000C3F30A54C1F30A552C44A4F2F3340194EC
:106BC000A0FB0254C1F3130141F48011C3F313037A
:106BD00043F4801301FB024400FB034E840A970A2E
:106BE00044EA815447EA8357A4FB076802958D0A5B
:106BF00005FB07854FEA932C04FB0C542705029DE7
:106C00004FEA065847EA1637B5EB08056EEB070C56
:106C1000870E920E47EA811742EA8312A7FB020110
:106C2000B6EB0B0164EB00042B0D43EA0C335E184A
:106C300044EB1C50DA465146E7FB0201C5F313044E
:106C40004FEA0B3343EA14534FEA0432019C43EA00
:106C50000603A4F10C040294009CCDE900B400F0FA
:106C6000B9F803B0BDE8F08F00200146F9E7C1F3A1
:106C70000A5210B5C1F3130140F2FF3341F4801101
:106C80009A4201DA002010BD40F233439A42A2F248
:106C9000334203DC524200F06CF810BD904010BD4E
:106CA00000F0004230F000400AD0C10D01F56071E3
:106CB000C0F3160042EA0151C20840071143704771
:106CC00000200146704730B50B46014600202022C7
:106CD000012409E021FA02F59D4205D303FA02F5E9
:106CE000491B04FA02F52844151EA2F10102F1DC49
:106CF00030BD2DE9F05F0546002092469B46884650
:106D00000646814640241BE0284641464746224627
:106D100000F02FF853465A46C01A914110D311463D
:106D20001846224600F016F82D1A67EB01084F4668
:106D300022460120002100F00DF817EB00094E411A
:106D4000201EA4F10104DFDC484631462A464346B2
:106D5000BDE8F09F202A04DB203A00FA02F100206F
:106D600070479140C2F1200320FA03F31943904089
:106D70007047202A04DB203A21FA02F000217047F4
:106D800021FA02F3D040C2F1200291400843194693
:106D90007047202A06DBCB17203A41FA02F043EA7B
:106DA000E07306E041FA02F3D040C2F120029140C4
:106DB00008431946704710B5141E73F1000408DA31
:106DC000401C41F1000192185B411A4301D120F0AF
:106DD000010010BD2DE9F04D92469B4611B1B1FA6C
:106DE00081F202E0B0FA80F220329046FFF7B2FF63
:106DF00004460F4640EA0A0041EA0B0153465A4650
:106E0000084313D0114653EA010019D0C8F14002DB
:106E10005046FFF7AEFF05460E46504659464246DD
:106E2000FFF798FF084305D0012004E020463946CB
:106E3000BDE8F08D0020054346EAE0762C43374359
:106E40000A986305E40AA0EB08000022FD0A44EA60
:106E500047540A3002D500200146E9E70105101920
:106E60006941DDE9084500196941BDE8F04DA2E737
:106E70002DE9F04D81EA030404F0004B21F00045B8
:106E800014464FF0000A23F0004150EA050220D0DA
:106E900054EA01021DD0C5F30A570246C5F3130395
:106EA000C1F31300C1F30A5640F4801543F4801374
:106EB000A7EB0608101BD64608F2FD3873EB050059
:106EC00002D308F1010801E092185B41B8F1000F0C
:106ED00003DA00200146BDE8F08D00204FF4801158
:106EE000064684460EE0171B73EB050705D3121BFD
:106EF00063EB050306434CEA010C49084FEA3000F6
:106F000092185B4150EA0107EDD152EA030012D01A
:106F100082EA040083EA0501084305D0101BAB4157
:106F200006D20122002306E000224FF0004302E0D7
:106F30006FF0010253101AEB06004CEB085110EBF6
:106F40000A0041EB0B01BDE8F04DFFF734BFC1F380
:106F50000A52C1F3130140F2FF3341F480119A4207
:106F600002DA00200146704740F233439A42A2F20F
:106F7000334202DC5242FFF7FCBEFFF7EBBE0000DB
:106F800030B5041E71F1000404DB4FF000444042B0
:106F900064EB0101141E73F1000405DB1C464FF085
:106FA0000043524263EB0403994208BF904230BD54
:106FB000064C074D06E0E06840F0010394E8070046
:106FC00098471034AC42F6D3F9F7E2F8A0780008FD
:106FD000C07800080FB4054B10B503A9044A029805
:106FE00000F0DAF810BC5DF814FB00002D09000871
:106FF0003400002002E008C8121F08C1002AFAD19C
:1070000070477047002001E001C1121F002AFBD128
:10701000704700002DE9FF5F82B00021DDE90430F8
:10702000020DDDF840B0034318D044F61050A2F230
:10703000FF3242431514119801281FD0A5EB0B0015
:10704000401C5FEA000A4FF000064E4FDFF838910F
:10705000B046504615D5CAF1000413E0119801243A
:107060004AA3012801D16FEA0B010298119AC0E9E5
:107070000031C0E9024206B0BDE8F09FCBF100004C
:10708000DFE704460021404A491842EB0450CDE9AD
:10709000001012E0E00707D032463B464046494622
:1070A000FFF773FD8046894632463B461046194637
:1070B000FFF76BFD06460F466410002CEAD1DDE9B0
:1070C0000401DDE90023BAF1000F06DAFFF75DFDE8
:1070D00042464B46FFF759FD05E0FFF7C9FE424621
:1070E0004B46FFF7C5FE04460E460022284BFFF72D
:1070F00047FF03D84FF0FF30014607E00022254B41
:1071000020463146FFF79AFCFFF721FF102409E0E3
:10711000002C0ADB0A220023FFF7EBFD039B303231
:107120001A55641E50EA0102F2D1641C039AC4F19C
:1071300011031444119A012A03D0012208430DD1EE
:107140000AE0084304D000204FF0110B119072E7C1
:10715000A3EB0B056D1E0DE05B4504DD4FF0000257
:1071600005F1010504E003DA4FF00002A5F1010585
:10717000002AECD002981199C0E90231C0E900451B
:1071800079E70000000014400000F03F30000000EC
:107190000000F0430000E03F2DE9FF4F95B09A4614
:1071A000884606460025EEE1252877D100242746AB
:1071B000F94A0121039400E0044316F8013F203B03
:1071C00001FA03F01042F7D130782A2811D06FF07D
:1071D0002F033078A0F13002092A16D8039A44F020
:1071E000020402EB820203EB42021044761C03907D
:1071F000EFE758F8042B0392002A03DA504244F4D4
:107200000054039044F00204761C30782E2816D1E6
:1072100016F8010F44F004042A280DD06FF02F0255
:107220003078A0F13003092B09D807EB870302EB74
:107230004303C718761CF3E758F8047B761C3078B4
:107240006C280FD006DC4C2817D068280DD06A288F
:1072500014D104E0742810D07A280FD10DE044F442
:1072600000140AE044F4801401E044F440147278FD
:10727000824202D104F58014761C761C3078662890
:107280000BD013DC582877D009DC002875D04528AE
:10729000F6D04628F4D047281AD193E118E06328A5
:1072A00035D0642879D0652812D18BE1702873D04D
:1072B00008DC6728F1D069286FD06E280DD06F28C0
:1072C00006D1ACE073282CD0752874D0782853D020
:1072D0005246179990476D1C54E1C4F3025002289E
:1072E00009D003280DD0D8F8001004280DD00D6067
:1072F00008F1040846E1D8F80010EA17C1E9005285
:10730000F6E7D8F800100D80F2E70D70F0E718F8F6
:10731000041B8DF8001000208DF80100EB460120C1
:1073200003E058F804BB4FF0FF3061074FF0000155
:1073300002D40DE009F101018946B9420FDA814515
:10734000F8DB1BF809100029F4D108E009F101016C
:1073500089468142FADB1BF809100029F6D103980F
:107360005346A0EB090721463846179A00F080FAE9
:10737000284400EB090507E044E008E10DE01BF8B4
:10738000010B524617999047B9F10109F7D25346BC
:1073900021463846179AF2E039E00A21C4F3025236
:1073A0004FF0000B0091022A06D058F8040BC117C9
:1073B000032A09D00AE023E008F1070020F00702C1
:1073C000F2E80201904605E000B2C117042A01D19B
:1073D00040B2C117002906DA0A460021404261EB9B
:1073E00002012D2202E0220504D52B228DF8042073
:1073F000012203E0E20701D02022F7E7914657E09F
:107400000A2100E010214FF0000B00910BE0102149
:107410004FF0000B44F004040827009103E008201B
:107420004FF0000B0090C4F30252022A05D058F826
:10743000040B0021032A08D008E008F1070020F01F
:107440000702F2E80201904603E080B2042A00D16C
:10745000C0B24FF0000922072AD53278702A07D02F
:10746000DDF800C08CF0100C5CEA0B0C05D00EE0CF
:1074700040228DF80420012208E050EA010306D0E2
:1074800030238DF804308DF8052002229146009BB0
:1074900083F0080353EA0B030AD150EA010201D139
:1074A000620705D530228DF804204FF001097F1EB8
:1074B0003278582A04D039A20C920CAA02920BE01E
:1074C0003BA2F9E75B46009AFFF713FC0C9B9B5C21
:1074D000029A521E0292137050EA0102F2D10298EF
:1074E00004A9081A00F1200B600702D524F48034A7
:1074F00000E001275F4502DDA7EB0B0000E0002064
:1075000000EB0B01009003984944401A0390E003FC
:1075100006D453462146179A039800F0A9F905446A
:10752000002706E001A85246C05D179990476D1CE0
:107530007F1C4F45F6DBE0030CD553462146179AD6
:10754000039800F095F9054404E03020524617995D
:1075500090476D1C0099481E00900029F5DC08E05A
:107560000298029952460078491C02911799904757
:107570006D1CBBF10001ABF1010BF1DC5BE100F034
:1075800065F90544761C307800287FF40DAE19B0FB
:107590002846BDE8F08F0000092801003031323361
:1075A000343536373839616263646566000000003F
:1075B0003031323334353637383941424344454629
:1075C00000000000600700D4062708F1070020F043
:1075D0000700F0E80223804603F0004C5FEA0C004D
:1075E00001D097A009E0200501D596A005E0E007AD
:1075F00001D095A001E0AFF24C001390307823F059
:10760000004365280CD006DC452809D046281DD04B
:1076100047287FD13BE0662818D067287AD136E02A
:107620000021112F01DB112000E0781CCDE90001C1
:1076300004A90CA8FFF7EEFCDDE90D010C9A4FF050
:10764000000B07F10109109200914EE04FF000404D
:107650000097CDE9011004A90CA8FFF7DBFCDDE9D8
:107660000D020C9B0F994FF0000B91461093009266
:1076700011B9791C00EB0109B7EB090003D4C0F183
:10768000FF3B07F10109A9EB0700019042E0012F40
:1076900000DA01270021112F01DD112000E038461A
:1076A000CDE9000104A90CA8FFF7B4FCDDE90D0148
:1076B0000C9A00914FF0000BB946109221070FD49D
:1076C000009A4A4503DA914601E0A9F10109B9F1AE
:1076D000010F05DD109AA9F10101515C3029F4D0A8
:1076E000B84202DA10F1040F03DA0121CDE90110EA
:1076F00010E0002803DC8344A9EB000102E0411CF8
:10770000494500DD8946A0EB0B00401C01904FF07D
:1077100000400290200705D40198484502DB4FF055
:10772000FF30019000208DF84B0002980DF14B07BF
:10773000B0F1004F25D002200C902B200D90029824
:1077400000280CDA404202902D200D9007E00A211B
:107750000298FFF7B8FA3031029007F8011D0C9932
:10776000481E0C900029F2DC02980028EFD1791E07
:107770000D980870307800F0200040F0450007F8C0
:10778000020D11A8C01BC01D02901398007800B113
:10779000012000EB0901019801EBE071029801441E
:1077A0000398401A401E0390E00306D45346214636
:1077B000179A039800F05CF805441398007818B104
:1077C0005246179990476D1CE00323D55346214636
:1077D000179A039800F04CF805441BE0BBF1000F2A
:1077E00007DB0098584504DD1098179910F80B0036
:1077F00001E0179930205246904701980BF1010B98
:10780000401E05F10105019004D12E205246179922
:1078100090476D1CB9F10001A9F10109DEDC05E01A
:1078200017F8010B5246179990476D1C0299481E94
:1078300002900029F4DC53462146179A03989EE6ED
:107840002D0000002B000000200000002DE9F04179
:10785000044600251E461746880404D405E0394630
:107860002020B0476D1C641EF9D52846BDE8F08184
:107870002DE9F041044600251E469046C80301D577
:10788000302700E02027880404D505E0414638462B
:10789000B0476D1C641EF9D52846BDE8F081000094
:1078A000C078000800000020C8000000F46F000845
:1078B00088790008C80000204033010004700008E7
:1078C00000000000000000000000000000000000B8
:1078D00000000000007A030A000000000000000021
:1078E000010203040607080901000000000000006F
:1078F000C800002000000000000000000102030496
:10790000010203040607080900000000000000004F
:107910000000000000000000000000000000000067
:107920000000000000000000000000000000000057
:107930000000000000000000000000000000000047
:107940000400000000000000000000000000000033
:10795000000000000000000000000000AAAAAAAA7F
:107960000000000000000000000000000000000017
:107970000000000000000000000000000000000007
:087980000000000000000000FF
:040000050800018965
:00000001FF
