:020000040800F2
:10000000B8210020AD020008D32C0008B903000875
:10001000CF2C0008CB0300081D450008000000009D
:10002000000000000000000000000000B5330008E0
:10003000DB03000800000000D52C0008B9330008DD
:10004000C7020008C7020008C7020008C70200086C
:10005000C7020008C7020008C7020008C70200085C
:10006000C7020008C7020008C7020008C70200084C
:10007000C7020008C7020008C7020008C70200083C
:10008000C7020008C7020008C7020008C70200082C
:10009000C7020008C7020008C7020008C70200081C
:1000A000C7020008C7020008C7020008C70200080C
:1000B000FD350008C7020008C7020008C702000893
:1000C000C7020008C7020008C7020008C7020008EC
:1000D000C7020008ED420008C7020008FD42000800
:1000E000C7020008C702000800000000C70200089D
:1000F000C7020008C7020008C7020008C7020008BC
:10010000C7020008C7020008C7020008C7020008AB
:10011000C7020008C7020008C7020008C70200089B
:10012000C7020008C7020008C7020008C70200088B
:10013000C7020008C7020008C7020008C70200087B
:1001400000000000000000000000000000000000AF
:10015000C7020008C7020008C7020008C70200085B
:10016000C7020008C7020008C7020008C70200084B
:10017000C7020008C7020008C7020008000000000C
:10018000C7020008C7020008C7020008C70200082B
:10019000C7020008C7020008C7020008C70200081B
:1001A000C7020008C7020008C7020008C70200080B
:1001B000C7020008C7020008C7020008C7020008FB
:1001C000C7020008C7020008C7020008C7020008EB
:1001D000C7020008C7020008C7020008C7020008DB
:1001E000C7020008C7020008C7020008C7020008CB
:1001F000C7020008C7020008C7020008C7020008BB
:10020000C7020008C7020008C7020008C7020008AA
:10021000C7020008C7020008C7020008C70200089A
:10022000C7020008C7020008C7020008000000005B
:10023000C7020008C702000800000000C70200084B
:10024000C7020008C7020008C7020008C70200086A
:10025000C7020008C7020008C7020008C70200085A
:10026000C7020008C7020008C7020008C70200084A
:10027000C7020008C7020008C7020008000000000B
:10028000C702000800000000C702000800000000CC
:1002900000000000C7020008DFF80CD000F07AF878
:1002A0000048004709510008B8210020064880474F
:1002B00006480047FEE7FEE7FEE7FEE7FEE7FEE74B
:1002C000FEE7FEE7FEE7FEE7693500089902000851
:1002D0002DE9F05F0546002092469B46884606467B
:1002E000814640241BE0284641464746224600F00E
:1002F00041F853465A46C01A914110D31146184648
:10030000224600F028F82D1A67EB01084F462246D6
:100310000120002100F01FF817EB00094E41201EBC
:10032000A4F10104DFDC484631462A464346BDE8D5
:10033000F09FD2B201E000F8012B491EFBD27047BA
:100340000022F6E710B513460A4604461946FFF7A1
:10035000F0FF204610BD202A04DB203A00FA02F10B
:10036000002070479140C2F1200320FA03F31943A3
:1003700090407047202A04DB203A21FA02F0002145
:10038000704721FA02F3D040C2F1200291400843A5
:1003900019467047064C074D06E0E06840F001033F
:1003A00094E8070098471034AC42F6D3FFF778FF83
:1003B000B0520008D05200081EF0040F0CBFEFF33B
:1003C0000880EFF3098002F07FBA00BFFEE710B5A6
:1003D00002F0B2FF02F062FF10BD704701B9704732
:1003E00000BFFEE770B504461D460023B5F5804FFB
:1003F00013D154F822300C480340D1E9000640EAFA
:1004000006108E6840EA06208E8940EA06408E6912
:100410003043034344F8223003E06FF0704044F867
:100420002200002070BD00000000F0CF10B5024691
:100430000023086852F820301B480340D1E901042A
:100440002043CC6820430C6920434C6920438C69CD
:100450002043CC6920430C6A20434C6A20438C6AB9
:100460002043CC6A20430C6B20438C6B20434C6BA5
:10047000204303438868082801D143F040030868FB
:1004800042F82030086BB0F5801F05D1086818B11C
:1004900010680C6B20431060086818B110684C6B32
:1004A00020431060002010BD8004C0FF30B503461B
:1004B00014460022601C53F8202002F04042D1E98B
:1004C000000540EA05108D6840EA05208D8940EA64
:1004D0000545088A401E45EA0055087D801E45EA0C
:1004E00000608D6928430243601C43F8202018688F
:1004F00000F4801038B1586820F47002088A401E59
:1005000042EA00525A60002030BD000003480068F3
:1005100040F00100014908607047000020040058C5
:10052000F8B502460B460021002600240020824D2B
:1005300000BFFCE0012707FA01F61F6807EA06047E
:10054000B4427CD15F68022F02D05F68122F1AD1AB
:100550004FEAD10C02F1200757F82C004F074FEA61
:10056000D76C0F2707FA0CF7B8434FEA417C4FEAE4
:10057000DC6C1F6907FA0CF738434FEAD10C02F123
:10058000200747F82C0010684FEA410C032707FAB0
:100590000CF7B8431F7907F003074FEA410C07FA3D
:1005A0000CF7384310605F68012F08D05F68022F96
:1005B00005D05F68112F02D05F68122F17D19068A5
:1005C0004FEA410C032707FA0CF7B8434FEA410CF6
:1005D000DF6807FA0CF738439060506801278F40B6
:1005E000B8431F79C7F300178F4038435060D06875
:1005F0004FEA410C032707FA0CF7B8434FEA410CC6
:100600009F6807FA0CF73843D0605F6807F080579F
:10061000B7F1805F95D100BF484F3F6847F00207B0
:10062000DFF818C1CCF8007067463F6807F0020792
:10063000009700BF00BF424F4FEA910C00E075E009
:1006400057F82C008F074FEA177C0F2707FA0CF793
:10065000B8433C4FBA4201D100272DE03A4FBA428D
:1006600001D1012728E0394FBA4201D1022723E006
:10067000374FBA4201D103271EE0364FBA4201D1AB
:10068000042719E0344FBA4201D1052714E0334F53
:10069000BA4201D106270FE0314FBA4201D10727F4
:1006A0000AE0304FBA4201D1082705E02E4FBA4286
:1006B00001D1092700E00A274FEA817C4FEA1C7C20
:1006C00007FA0CF738431E4F4FEA910C47F82C00FD
:1006D0002868A0435F6807F48037B7F5803F00D1F2
:1006E000204328606868A0435F6807F40037B7F5C7
:1006F000003F00D1204368604FF0B0473868A04306
:100700005F6807F48017B7F5801F00D120434FF0D2
:10071000B04738607868A0435F6807F40017B7F502
:10072000001F00D120434FF0B0477860491C1029CA
:10073000FFF400AFF8BD000080000058F4440258F8
:10074000080400580000025800040258000802582B
:10075000000C0258001002580014025800180258E9
:10076000001C02580020025800240258014800686A
:1007700070470000240000200348006803490978FE
:100780000844014908607047240000202C00002024
:1007900010B5032000F0E2F80F2000F007F808B1D0
:1007A000012010BD00F08CF80020FAE770B5044677
:1007B0000E4800784FF47A71B1FBF0F00C490968EB
:1007C000B1FBF0F5284601F000FF08B1012070BD33
:1007D000102C07D200222146501E00F082F8054856
:1007E000046001E00120F2E70020F0E72C00002087
:1007F00030000020280000204178154A116001785F
:10080000F9B1121D41681160017B0907C27A41EA02
:100810000261827A41EAC241427B41EA8241827BA3
:1008200041EA4241C27B41EA0241427A41EA022165
:10083000027A41EA420102781143054A0832116006
:1008400005E00021024A121D1160121D116070475F
:1008500098ED00E000BF00BF00BFBFF35F8F00BF97
:1008600000BF00BF0548006820F4803003490860DD
:1008700000200249703108607047000024ED00E05C
:1008800040F001010D4A11600C497039096841F4CA
:1008900080310A4A703A116000BF00BF00BFBFF349
:1008A0004F8F00BF00BF00BF00BF00BF00BFBFF33E
:1008B0006F8F00BF00BF00BF7047000094ED00E0E5
:1008C000704701460846002809DB00F01F0301229B
:1008D0009A4043099B0003F1E023C3F8002100BFC5
:1008E00070472DE9F05F80460D46164603F028FE5E
:1008F000074639462A46334601F00700C0F1070A89
:10090000BAF1040F02D94FF0040A01E0C0F1070A5E
:10091000D14600F1040ABAF1070F02D24FF0000AE3
:1009200001E0A0F1030AD4464FF0010A0AFA09FADD
:10093000AAF1010A0AEA020A0AFA0CFA4FF0010BBC
:100940000BFA0CFBABF1010B0BEA030B4AEA0B04AD
:100950002146404603F0FCFDBDE8F09F00BF00F0DB
:100960000702064B19684FF6FF031940044B0B436F
:1009700043EA0221014B196000BF70470CED00E013
:100980000000FA0510B501F067F90949096801F49A
:1009900070614FF4807292FAA2F2B2FA82F2D14000
:1009A000044A515CC840044908600846006810BD0C
:1009B00018440258A05200083000002010B501F081
:1009C00003F90749096801F07001102292FAA2F2B6
:1009D000B2FA82F2D140034A515CC84010BD000017
:1009E00020440258A052000870B5014600220120A0
:1009F000002300249FED811AB0EE410A9FED7F1A7B
:100A0000F0EE410A7E4D2D6805F003027C4D2D6805
:100A1000C5F305307A4D2D1D2D6805F01003784D76
:100A200014352D68C5F3CC0515FB03F501EE105AFE
:100A3000B8EE411AB0EE410A22B1012A4DD0022A85
:100A40007DD169E06E4D283D2D68C5F340152DB36D
:100A50006B4D283D2D68C5F3C1066A4D25FA06F495
:100A6000B4FBF0F501EE105AF8EE411A9FED661A4C
:100A700080EE012A624D10352D68C5F3080501EEA0
:100A8000105AB8EE411A32EE011AB7EE002A31EED2
:100A9000021A21EE811AF0EE410A1DE0594DB5FB14
:100AA000F0F501EE105AF8EE411A9FED571A80EE5C
:100AB000012A534D10352D68C5F3080501EE105A73
:100AC000B8EE411A32EE011AB7EE002A31EE021AE0
:100AD00021EE811AF0EE410A5EE04C4DB5FBF0F5D7
:100AE00001EE105AB8EE412A9FED471AC0EE011AE6
:100AF000434D10352D68C5F3080501EE105AB8EEC8
:100B0000411A31EE811AF7EE001A31EE211A22EE67
:100B1000011AF0EE410A3FE03D4DB5FBF0F501EE64
:100B2000105AF8EE411A9FED381A80EE012A344D22
:100B300010352D68C5F3080501EE105A00E00CE0F1
:100B4000B8EE411A32EE011AB7EE002A31EE021A5F
:100B500021EE811AF0EE410A1EE02C4DB5FBF0F5B6
:100B600001EE105AB8EE412A9FED271AC0EE011A85
:100B7000234D10352D68C5F3080501EE105AB8EE67
:100B8000411A31EE811AF7EE001A31EE211A22EEE7
:100B9000011AF0EE410A00BF00BF194D10352D6853
:100BA000C5F346256D1C01EE105AB8EE411AC0EE91
:100BB000811ABCEEE11A81ED001A114D10352D6835
:100BC000C5F306456D1C01EE105AB8EE411AC0EE91
:100BD000811ABCEEE11A81ED011A094D10352D681C
:100BE000C5F306656D1C01EE105AB8EE411AC0EE51
:100BF000811ABCEEE11A81ED021A70BD00000000FE
:100C0000284402580090D0030000004600093D002F
:100C100040787D0170B501460022012000230024A8
:100C20009FED811AB0EE410A9FED7F1AF0EE410A66
:100C30007E4D2D6805F003027C4D2D68C5F30550EF
:100C40007A4D2D1D2D6805F48073784D1C352D6867
:100C5000C5F3CC0515FB03F501EE105AB8EE411AA9
:100C6000B0EE410A22B1012A4DD0022A7DD169E0BD
:100C70006E4D283D2D68C5F340152DB36B4D283DB5
:100C80002D68C5F3C1066A4D25FA06F4B4FBF0F5EC
:100C900001EE105AF8EE411A9FED661A80EE012A15
:100CA000624D18352D68C5F3080501EE105AB8EEEF
:100CB000411A32EE011AB7EE002A31EE021A21EE85
:100CC000811AF0EE410A1DE0594DB5FBF0F501EE39
:100CD000105AF8EE411A9FED571A80EE012A534D33
:100CE00018352D68C5F3080501EE105AB8EE411A03
:100CF00032EE011AB7EE002A31EE021A21EE811A05
:100D0000F0EE410A5EE04C4DB5FBF0F501EE105AF5
:100D1000B8EE412A9FED471AC0EE011A434D18352F
:100D20002D68C5F3080501EE105AB8EE411A31EEF0
:100D3000811AF7EE001A31EE211A22EE011AF0EEB6
:100D4000410A3FE03D4DB5FBF0F501EE105AF8EEDB
:100D5000411A9FED381A80EE012A344D18352D685E
:100D6000C5F3080501EE105A00E00CE0B8EE411A98
:100D700032EE011AB7EE002A31EE021A21EE811A84
:100D8000F0EE410A1EE02C4DB5FBF0F501EE105AD5
:100D9000B8EE412A9FED271AC0EE011A234D1835EF
:100DA0002D68C5F3080501EE105AB8EE411A31EE70
:100DB000811AF7EE001A31EE211A22EE011AF0EE36
:100DC000410A00BF00BF194D18352D68C5F34625EF
:100DD0006D1C01EE105AB8EE411AC0EE811ABCEE3D
:100DE000E11A81ED001A114D18352D68C5F306453D
:100DF0006D1C01EE105AB8EE411AC0EE811ABCEE1D
:100E0000E11A81ED011A094D18352D68C5F3066503
:100E10006D1C01EE105AB8EE411AC0EE811ABCEEFC
:100E2000E11A81ED021A70BD00000000284402584A
:100E30000090D0030000004600093D0040787D018D
:100E40002DE9F041044600250026206800F00060EE
:100E5000B0F1006F30D1606E48B1B0F5801F0DD099
:100E6000B0F5001F10D0B0F5401F15D113E0F948C0
:100E7000006840F40030F74908600FE00221201DAF
:100E800002F0ACF8054609E0022104F1240002F06A
:100E90003DF9054602E001E0012500BF00BF55B95C
:100EA000EC482430006820F44010616E0843E949A2
:100EB0002431086000E02E43208800F48070B0F5F3
:100EC000807F2DD1606D05281AD2DFE800F0030A7B
:100ED00010171800DF48006840F40030DD49086052
:100EE00010E00021201D02F079F805460AE00021FB
:100EF00004F1240002F00AF9054603E002E001E0F3
:100F0000012500BF00BF55B9D2482430006820F049
:100F10000700616D0843CF492431086000E02E438B
:100F2000208800F40070B0F5007F33D1A06D8028D8
:100F300017D003DC40B140281CD10CE0C02817D0EA
:100F4000B0F5807F16D114E0C248006840F400304C
:100F5000C049086010E00021201D02F03FF805465E
:100F60000AE0002104F1240002F0D0F8054603E075
:100F700002E001E0012500BF00BF55B9B5482430AB
:100F8000006820F4E070A16D0843B2492431086084
:100F900000E02E43208800F48060B0F5806F38D1E7
:100FA000D4F8A400B0F5800F19D004DC50B1B0F52E
:100FB000001F1DD10DE0B0F5C00F17D0B0F5000F28
:100FC00016D114E0A348006840F40030A14908603D
:100FD00010E00021201D02F001F805460AE0002182
:100FE00004F1240002F092F8054603E002E001E07B
:100FF000012500BF00BF5DB996482C30006820F481
:101000006000D4F8A410084392492C31086000E035
:101010002E43208800F40060B0F5006F38D1D4F87A
:10102000A800B0F1007F19D004DC50B1B0F1807F8E
:101030001DD10DE0B0F1407F17D0B0F1806F16D117
:1010400014E08448006840F400308249086010E0F1
:101050000021201D01F0C2FF05460AE0002104F135
:10106000240002F053F8054603E002E001E0012508
:1010700000BF00BF5DB977482C30006820F0E06009
:10108000D4F8A810084373492C31086000E02E43BF
:10109000206800F00070B0F1007F27D1A06CA0B1F3
:1010A000102804D0202809D030280FD10CE069483E
:1010B000006840F400306749086009E00221201D03
:1010C00001F08CFF054603E002E001E0012500BFCE
:1010D00000BF55B95F482030006820F03000A16C97
:1010E00008435C492031086000E02E43208800F46A
:1010F0008050B0F5805F36D1E06DB0F5005F19D05B
:1011000004DC50B1B0F5805F1DD10DE0B0F5405F5B
:1011100017D0B0F5804F16D114E04E48006840F467
:1011200000304C49086010E00021201D01F056FFFE
:1011300005460AE0002104F1240001F0E7FF05461E
:1011400003E002E001E0012500BF00BF55B94148BE
:101150002430006820F4E040E16D08433D4924312B
:10116000086000E02E43208800F40050B0F5005FD6
:1011700034D1206EB0F5403F1DD007DC68B1B0F52A
:10118000803F0BD0B0F5003F18D10DE0B0F5802FB7
:1011900012D0B0F5A02F11D10FE011E00121201DD8
:1011A00001F01CFF05460BE0012104F1240001F0D1
:1011B000ADFF054604E003E002E001E0012500BFC9
:1011C00000BF55B923482430006820F4E020216E88
:1011D000084320492431086000E02E43208800F4B1
:1011E0008040B0F5804F38D1D4F8AC00B0F1405F0A
:1011F0001DD007DC68B1B0F1805F0BD0B0F1005FAB
:1012000018D10DE0B0F1804F12D0B0F1A04F11D144
:101210000FE011E00121201D01F0E0FE05460BE08A
:10122000012104F1240001F071FF054604E003E010
:1012300002E001E0012500BF00BF6DB905482C3078
:10124000006820F0E040D4F8AC10084301492C318C
:10125000086002E02C4402582E43208800F400402D
:10126000B0F5004F26D1E06E98B1B0F1805F03D0A9
:10127000B0F1005F0ED106E0FA48006840F400309B
:10128000F849086008E00121201D01F0A7FE05468D
:1012900002E001E0012500BF00BF55B9F14824304C
:1012A000006820F04050E16E0843EE4924310860A8
:1012B00000E02E43206800F08070B0F1807F27D1DD
:1012C000606CA0B1012804D0022809D003280FD1F6
:1012D0000CE0E448006840F40030E249086009E0AE
:1012E0000221201D01F07AFE054603E002E001E044
:1012F000012500BF00BF55B9DA482030006820F052
:101300000300616C0843D7492031086000E02E4398
:10131000206800F48000B0F5800F7DD1D2480068CD
:1013200040F48070D0490860FFF720FA074606E0D5
:10133000FFF71CFAC01B642801D9032505E0CA4841
:10134000006800F480700028F2D000BF8DBBC54853
:101350004430006800F44070B4F8B01001F44071FB
:10136000884214D0BF484430006820F44078BD481B
:101370004430006840F48030BA494431086008467F
:10138000006820F4803008600846C0F80080D4F877
:10139000B000B0F5807F15D1FFF7E8F9074609E006
:1013A000FFF7E4F9C01B41F28831884202D90325D6
:1013B00007E038E0AB4844300068C0F34000002844
:1013C000EED000BF4DBB00BFB4F8B00000F44070D9
:1013D000B0F5407F0ED1A3481C38006820F47C5142
:1013E000A24AD4F8B000104041EA10109D491C39BF
:1013F000086007E09B481C38006820F47C5099493D
:101400001C390860974844300068B4F8B010C1F344
:101410000B010843934901E006E002E04431086013
:1014200002E02E4300E02E43207800F0010068B374
:10143000A06F182819D005DC48B1082808D010285A
:1014400016D10BE0202811D0282811D10FE011E08F
:101450000121201D01F0C2FD05460BE0012104F130
:10146000240001F053FE054604E003E002E001E041
:10147000012500BF00BF55B97A482830006820F028
:101480003800A16F084377492831086000E02E43F7
:10149000207800F00200022828D1606F062815D2BB
:1014A000DFE800F003040A11121311E00121201DEE
:1014B00001F094FD05460BE0012104F1240001F048
:1014C00025FE054604E003E002E001E0012500BF3F
:1014D00000BF55B963482830006820F00700616FED
:1014E000084360492831086000E02E43207800F06E
:1014F000040004282AD1D4F89000062815D2DFE889
:1015000000F003040A11121311E00121201D01F063
:1015100065FD05460BE0012104F1240001F0F6FD14
:10152000054604E003E002E001E0012500BF00BF42
:101530005DB94C482C30006820F00700D4F89010BA
:10154000084348492C31086000E02E43207800F021
:101550002000202836D1D4F88C00B0F1405F1DD097
:1015600007DC68B1B0F1805F0BD0B0F1005F18D13B
:101570000DE0B0F1804F12D0B0F1A04F11D10FE0CB
:1015800011E00021201D01F029FD05460BE002219C
:1015900004F1240001F0BAFD054604E003E002E096
:1015A00001E0012500BF00BF5DB92E48283000686A
:1015B00020F0E040D4F88C1008432A492831086014
:1015C00000E02E43207800F04000402836D1D4F8C7
:1015D0009800B0F5406F1DD007DC68B1B0F5806FA2
:1015E0000BD0B0F5006F18D10DE0B0F5805F12D0D0
:1015F000B0F5A05F11D10FE011E00021201D01F036
:10160000EDFC05460BE0022104F1240001F07EFD13
:10161000054604E003E002E001E0012500BF00BF51
:101620005DB910482C30006820F4E050D4F89810D0
:1016300008430C492C31086000E02E43207800F06C
:10164000800080283BD1D4F89C00B0F5C04F24D056
:101650000EDCA0B1B0F5005F12D0B0F5804F1FD105
:1016600014E000002C44025800480258FFFCFF0F11
:10167000B0F5004F12D0B0F5204F11D10FE011E0BE
:101680000021201D01F0AAFC05460BE0022104F117
:10169000240001F03BFD054604E003E002E001E028
:1016A000012500BF00BF4DB9B248006820F460407A
:1016B000D4F89C100843AF49086000E02E4320781E
:1016C00000F00800082816D1D4F88000B0F5805F3B
:1016D00006D1022104F1240001F018FD06430AE0BE
:1016E000A448001F006820F44050D4F8801008433C
:1016F000A049091F0860207800F01000102814D1BC
:10170000D4F89400B0F5807F06D1022104F12400C2
:1017100001F0FCFC064308E09648006820F44070A5
:10172000D4F89410084393490860206800F400201E
:10173000B0F5002F26D1D4F8A00030B1B0F5803F2D
:1017400009D0B0F5003F0ED10CE00021201D01F0C2
:1017500045FC054609E0022104F1240001F0D6FC15
:10176000054602E001E0012500BF00BF4DB98148F8
:10177000006820F44030D4F8A01008437D49086088
:1017800000E02E43206800F48020B0F5802F2DD19A
:10179000D4F88400B0F5801F06D0B0F5001F0CD03F
:1017A000B0F5401F11D10FE072482C38006840F4AA
:1017B000003070492C39086009E0012104F124004F
:1017C00001F0A4FC054602E001E0012500BF00BFD6
:1017D0005DB96848001F006820F44010D4F88410F8
:1017E00008436449091F086000E02E43206800F4A4
:1017F0008030B0F5803F24D1E06C18B1B0F5803F67
:101800000FD108E05B482C38006840F4003059499B
:101810002C39086007E00221201D01F0DFFB05469E
:1018200001E0012500BF00BF55B952480C380068DF
:1018300020F48030E16C08434E490C39086000E028
:101840002E43206800F00050B0F1005F05D1022166
:1018500004F1240001F05AFC0643206800F4003033
:10186000B0F5003F27D1E06FA0B1B0F5807F06D082
:10187000B0F5007F0CD0B0F5407F0CD109E03D48B9
:101880002C38006840F400303A492C39086004E0F4
:1018900003E002E001E0012500BF00BF55B9354873
:1018A000001F006820F44070E16F08433149091FB0
:1018B000086000E02E43206800F48010B0F5801F1F
:1018C00009D12C480838006820F00040216F0843F7
:1018D000284908390860206800F08050B0F1805F26
:1018E0000AD124484838006820F48040D4F8B41065
:1018F0000843204948390860206800F40010B0F51A
:10190000001F09D11B480838006820F08070A16EC4
:101910000843184908390860206800F08040B0F199
:10192000804F11D100BF13484838006820F40040B0
:1019300010494839086008460068D4F8B8100843D0
:101940000C494839086000BF206800F00040B0F141
:10195000004F09D107480C38006820F04050216D35
:10196000084304490C39086016B90020BDE8F0812D
:101970000120FBE75844025870B504460D46002686
:101980008D48006800F00700A8420ED28A4800681F
:1019900020F007002843884908600846006800F0E6
:1019A0000700A84201D0012070BD207800F002009D
:1019B000022807D18148006820F00F00E168084341
:1019C0007E490860207800F00100002851D07B4853
:1019D000006820F47060A168084378490860606876
:1019E000022807D1754818380068C0F34040F8B99C
:1019F0000120D9E76068032807D1704818380068CB
:101A0000C0F34060A0B90120CEE76068012807D18B
:101A10006A4818380068C0F3002048B90120C3E7BD
:101A2000664818380068C0F3800008B90120BBE799
:101A300062480838006820F00700616808435F4981
:101A400008390860FEF792FE06466068022811D148
:101A500008E0FEF78BFE801B41F28831884201D9F5
:101A60000320A1E755480838006800F03800102826
:101A7000EFD13AE06068032811D108E0FEF776FE66
:101A8000801B41F28831884201D903208CE74B4802
:101A90000838006800F038001828EFD125E06068A9
:101AA000012811D108E0FEF761FE801B41F2883168
:101AB000884201D9032077E740480838006800F0E1
:101AC00038000828EFD110E008E0FEF74FFE801B39
:101AD00041F28831884201D9032065E73748083848
:101AE000006800F038000028EFD13348006800F0AB
:101AF0000700A8420ED93048006820F007002843AC
:101B00002D4908600846006800F00700A84201D08F
:101B1000012049E7207800F00400042807D1274875
:101B2000006820F07000216908432449086020788B
:101B300000F00800082809D12048001D006820F0A6
:101B40007000616908431D49091D0860207800F094
:101B50001000102809D11948001D006820F4E06029
:101B6000A16908431549091D0860207800F020008C
:101B7000202809D111480830006820F07000E16980
:101B800008430E490831086000F066F80B490968FF
:101B900001F470614FF4807292FAA2F2B2FA82F20A
:101BA000D140074A515CC840064908600F20FEF743
:101BB000FDFD0020F8E60000002000521844025805
:101BC000A05200083000002010B5FEF7DBFE0949E6
:101BD000096801F00F01012292FAA2F2B2FA82F230
:101BE000D140054A515CC840044908600846006875
:101BF00010BD000018440258A05200083400002014
:101C000010B5FFF7E1FF0749096801F070011022E4
:101C100092FAA2F2B2FA82F2D140034A515CC84071
:101C200010BD00001C440258A052000810B5FFF778
:101C3000CBFF0749096801F4E0614FF4807292FA22
:101C4000A2F2B2FA82F2D140024A515CC84010BD01
:101C50001C440258A052000870B5012500EE905AAD
:101C60000022012100230024DFED861AB0EE610A74
:101C7000DFED841AB0EE611A0020834D2D6805F067
:101C8000380535B1082D15D0102D15D0182D7CD163
:101C900014E07D4D103D2D68C5F3401545B17A4DDA
:101CA000103D2D68C5F3C106784D25FA06F000E019
:101CB0007648E5E07648E3E07648E1E0724D183595
:101CC0002D6805F00302704D18352D68C5F3051118
:101CD0006D4D1C352D6805F001036B4D24352D68C5
:101CE000C5F3CC0515FB03F501EE905AF8EE611A29
:101CF000B0EE610A22B1012A4FD0022A7DD16BE0F9
:101D0000614D103D2D68C5F340152DB35E4D103D5E
:101D10002D68C5F3C1065D4D25FA06F4B4FBF1F557
:101D200001EE905AB8EE612ADFED5B1AC0EE212A6F
:101D3000554D20352D68C5F3080501EE905AF8EE93
:101D4000611A72EEA11AF7EE002A71EEA21A62EE83
:101D5000211AB0EE611A1FE04C4DB5FBF1F501EE12
:101D6000905AB8EE612ADFED4C1AC0EE212A464D9A
:101D700020352D68C5F3080501EE905AF8EE611A7A
:101D800072EEA11AF7EE002A00E077E071EEA21AD7
:101D900062EE211AB0EE611A5EE03D4DB5FBF1F541
:101DA00001EE905AB8EE612ADFED3B1AC0EE212A0F
:101DB000354D20352D68C5F3080501EE905AF8EE33
:101DC000611A72EEA11AF7EE002A71EEA21A62EE03
:101DD000211AB0EE611A3FE02E4DB5FBF1F501EE90
:101DE000905AB8EE612ADFED2C1AC0EE212A264D5A
:101DF00020352D68C5F3080500E00EE001EE905A8D
:101E0000F8EE611A72EEA11AF7EE002A71EEA21A2C
:101E100062EE211AB0EE611A1EE01D4DB5FBF1F520
:101E200001EE905AF8EE612ADFED1B1A80EE212AAE
:101E3000154D20352D68C5F3080501EE905AF8EED2
:101E4000611A72EE211AB7EE002A71EE821A62EE62
:101E5000A11AB0EE611A00BF00BF0B4D20352D68EE
:101E6000C5F346256D1C00EE905AF8EE601A81EE1F
:101E7000212AFCEEC21A11EE900A01E0044800BFCC
:101E800000BF70BD00000000104402580090D00355
:101E900000093D0040787D010000004670B5044611
:101EA0000025207800F00100002872D0F948006871
:101EB00000F0380010280CD0F648006800F0380018
:101EC000182812D1F3481830006800F003000228E7
:101ED0000BD1F04810380068C0F3404000286DD0A6
:101EE000606800286AD1012070BD00BF6068B0F54D
:101EF000803F08D1E7481038006840F48030E54959
:101F0000103908602EE0606868B9E248103800684F
:101F100020F48030DF49103908600846006820F45A
:101F2000802008601EE06068B0F5A02F0DD1D94870
:101F30001038006840F48020D649103908600846FF
:101F4000006840F4803008600CE0D2481038006827
:101F500020F48030CF49103908600846006820F42A
:101F60008020086000BF6068A0B1FEF7FFFB054657
:101F700008E0FEF7FBFB401B41F28831884201D9A3
:101F80000320B1E7C34810380068C0F34040002880
:101F9000EFD013E0FEF7EAFB054608E0FEF7E6FBAC
:101FA000401B41F28831884201D903209CE7B9489F
:101FB00010380068C0F340400028EFD1207800F0CE
:101FC0000200022847D1B348006800F0380058B139
:101FD000B048006800F0380018283ED1AD481830ED
:101FE000006800F00300B8BBAA4810380068C0F3CE
:101FF000800018B1E06808B9012075E7A5481038DD
:10200000006820F01900E1680843A249103908600F
:10201000FEF7ACFB054606E0FEF7A8FB401B0228D6
:1020200001D9032060E79B4810380068C0F38000A6
:102030000028F1D097480C38006820F47C304FF429
:102040007C3292FAA2F2B2FA82F2216991400843FC
:1020500090490C3908604AE0FFE7E06868B38D48B2
:102060001038006820F01900E168084389491039E8
:102070000860FEF77BFB054606E0FEF777FB401B9A
:10208000022801D903202FE7824810380068C0F3E6
:1020900080000028F1D07F480C38006820F47C30A4
:1020A0004FF47C3292FAA2F2B2FA82F221699140A4
:1020B000084378490C39086019E076481038006800
:1020C00020F00100734910390860FEF74FFB054608
:1020D00006E0FEF74BFB401B022801D9032003E773
:1020E0006C4810380068C0F380000028F1D12078D7
:1020F00000F01000102877D16648006800F0380022
:1021000008280CD06348006800F03800182823D154
:1021100060481830006800F0030001281CD15D48B9
:1021200010380068C0F3002020B1E069802801D099
:102130000120D9E657480C38006820F0F8404FF0ED
:10214000F84292FAA2F2B2FA82F2216A914008436E
:1021500050490C39086047E0E06958B34D481038E1
:10216000006840F080004B4910390860FEF7FEFA25
:10217000054606E0FEF7FAFA401B022801D90320C3
:10218000B2E6444810380068C0F300200028F1D0BF
:1021900040480C38006820F0F8404FF0F84292FABE
:1021A000A2F2B2FA82F2216A9140084339490C390D
:1021B000086019E037481038006820F08000354981
:1021C00010390860FEF7D2FA054606E0FEF7CEFAAF
:1021D000401B022801D9032086E62E4810380068EB
:1021E000C0F300200028F1D1207800F00800082872
:1021F00036D16069D0B127486430006840F00100F2
:10220000244964310860FEF7B1FA054606E0FEF79E
:10221000ADFA401B022801D9032065E61D48643051
:102220000068C0F340000028F1D019E0194864307C
:10223000006820F00100174964310860FEF796FA43
:10224000054606E0FEF792FA401B022801D903205A
:102250004AE6104864300068C0F340000028F1D11D
:10226000207800F02000202834D1A069D8B1094896
:102270001038006840F48050064910390860FEF7B5
:1022800075FA054608E0FEF771FA401B022803D9EB
:10229000032029E610440258AF480068C0F34030DC
:1022A0000028F0D016E0AC48006820F48050AA491D
:1022B0000860FEF75BFA054606E0FEF757FA401B9A
:1022C000022801D903200FE6A3480068C0F340307C
:1022D0000028F2D1207800F0040004287DD19F4826
:1022E000006840F480709D490860FEF73FFA05469B
:1022F00006E0FEF73BFA401B642801D90320F3E512
:102300009648006800F480700028F2D000BFA068F2
:10231000012808D190487030006840F001008E49D3
:10232000703108602DE0A06868B98B487030006893
:1023300020F001008849703108600846006820F0EC
:10234000040008601DE0A06805280DD182487030A7
:10235000006840F004008049703108600846006859
:1023600040F0010008600CE07B487030006820F00D
:1023700001007949703108600846006820F00400C7
:10238000086000BFA068A0B1FEF7F0F9054608E0BC
:10239000FEF7ECF9401B41F28831884201D9032055
:1023A000A2E56D4870300068C0F340000028EFD00F
:1023B00013E0FEF7DBF9054608E0FEF7D7F9401B0E
:1023C00041F28831884201D903208DE5624870309E
:1023D0000068C0F340000028EFD1606A00287CD07C
:1023E0005D481030006800F03800182876D0606A28
:1023F000022874D15848006820F08070564908605F
:10240000FEF7B4F9054606E0FEF7B0F9401B0228D6
:1024100001D9032068E550480068C0F340600028F7
:10242000F2D100BFD4E90A1041EA00104A4928312C
:10243000096840F2F3329143084347492831086064
:10244000208E401EC0F30800616B491E4FF47E428F
:1024500002EA41210843218F491ED20102EA0141CB
:1024600008433C21095D491E120202EA016108434A
:1024700039493031086000BF081D00684FF6F87117
:1024800088434FF6F87292FAA2F2B2FA82F2A16C85
:10249000914008433049343108602F482C3000689F
:1024A00020F00C00216C08432B492C3108600846B1
:1024B000006820F00200616C084327492C31086055
:1024C0000846006840F4803008600846006840F420
:1024D000003008600846006802E03BE038E01FE09A
:1024E00040F4802008600846006840F00100086061
:1024F0001948006840F0807017490860FEF736F907
:10250000054606E0FEF732F9401B022801D90320F8
:10251000EAE411480068C0F340600028F2D019E0F6
:102520000D48006820F080700B490860FEF71EF926
:10253000054606E0FEF71AF9401B022801D90320E0
:10254000D2E405480068C0F340600028F2D101E001
:102550000120C9E40020C7E40044025800480258A2
:1025600070B504460E4615460CB9012070BD94F8AE
:10257000450028B9002084F84400204600F024F8E3
:1025800004F108012068FDF751FF3146A268206878
:10259000FDF78CFF2946E36AD4E90102FDF722FF2B
:1025A000A168206850F8210040F00100A26821686D
:1025B00041F822000348006840F0004001490860EB
:1025C0000020D3E700400052704770B5044625460E
:1025D000681EB0F1807F01D301200FE0681E4FF02C
:1025E000E02148610F214FF0FF3001F0B1FF0020E2
:1025F0004FF0E021886107200861002070BD10B510
:1026000004460CB9012010BD94F83D0028B9002003
:1026100084F83C00204600F00CF8022084F83D00CD
:10262000211D206801F044F8012084F83D000020BD
:10263000E9E770470146022081F83D0008680088FC
:1026400040F001000A681080012081F83D00002060
:10265000704710B504460CB9012010BDA06900B147
:1026600000E000BF94F8790028B9002084F87800D1
:10267000204600F02AF8242084F8790020680068B9
:1026800020F0010021680860204601F027F90128A8
:1026900000D1E2E7606B10B1204601F06FF82068CE
:1026A000406820F49040216848602068806820F0ED
:1026B0002A00216888602068006840F001002168D5
:1026C0000860204601F0CFF8C7E7704700B59BB01F
:1026D0004C2108A8FDF734FE1C2101A8FDF730FEAF
:1026E000184808901848099005200190022002908F
:1026F000039001200490022005900690002007908E
:102700000A9000210B910C9120210D9100210E9136
:102710000F9110914FF4805111910021129113915A
:10272000149115911691179101AA01A908A8FFF714
:1027300017FF20B14FF4927104A0FDF74FFE1BB0BC
:1027400000BD000000400052044100522E2E5C2EBD
:102750002E5C557365725C6273705C7372635C624D
:1027600073705F666D635F696F2E630000B587B03D
:1027700000BF3E48006840F008003C490860084639
:10278000006800F00800019000BF00BF00BF0846CD
:10279000006840F0100008600846006800F0100073
:1027A000019000BF00BF00BF0846006840F0400035
:1027B00008600846006800F04000019000BF00BFBC
:1027C00000BF0846006840F08000086008460068C6
:1027D00000F08000019000BF00BF00BF0846006805
:1027E00040F4807008600846006800F48070019032
:1027F00000BF00BF00BF1D480C38006840F4805087
:102800001A490C3908600846006800F480500190AD
:1028100000BF00BF02200390012004900320059018
:102820000C2006904CF2B370029002A91048FDF7FC
:1028300077FE4FF68070029002A90E48FDF770FEF9
:102840000320029002A90C48FDF76AFE4FF47F4076
:10285000029002A90948FDF763FE40F2CF600290A2
:1028600002A90748FDF75CFE07B000BDE04402582E
:10287000000C02580010025800180258001C0258A0
:1028800000200258014604480068084008B10120B1
:1028900070470020FCE700002000002029B9084A0A
:1028A00012688243064B1A6004E0054A126802432C
:1028B000034B1A60024A1268024B1A60704700000C
:1028C000200000200010006010B53249096801F0B6
:1028D000004149B12F49096841F000412D4A11607A
:1028E0008169891C816110BD2A49083909682A4A11
:1028F00011622849091F097882F824102549C91E48
:102900000978916223490C310968D1622149891EF5
:10291000098811861F49096851631E49091D096804
:1029200091631C4910310968D1631CA200210BE09E
:10293000535C254C238500BF234BDB6903F0400328
:10294000002BF9D04B1CD9B22929F1D300211F4A01
:10295000116000BF1D4909680029FBD00E4A0168BB
:1029600011604168516081689160C168D1600169FE
:1029700011614169516181699161C169D161002130
:10298000124A116000BF114909680029FBD000BF3D
:10299000A9E700002CED00E0781100200D0A456E3B
:1029A00074657220486172644661756C745F486139
:1029B0006E646C65722C2053797374656D20486168
:1029C0006C742E0D0A000000001001403800002039
:1029D00000B5B5B00120019000201F9001A8FEF7BE
:1029E0002FFA00BF6548006840F0010063490860A5
:1029F0000846006800F00100009000BF00BF00BF63
:102A00000846006840F0010008600846006800F0D1
:102A10000100009000BF00BF00BF584810300068A0
:102A200040F010005549103108600846006800F079
:102A30001000009000BF00BF4FF4007030900220E3
:102A4000319001203290032033900720349030A938
:102A50004B48FDF765FD4FF48060309007203490BF
:102A600030A94748FDF75CFD012200212520FDF734
:102A700038FF2520FDF725FF0C2300224FF4E1311C
:102A8000404802F0A5FA3F48006A40F040003D4946
:102A900008620846008B40F008000883084600687A
:102AA00040F02000086000BF3448006840F0020099
:102AB000324908600846006800F00200009000BF3C
:102AC00000BF00BF0846006840F0020008600846EA
:102AD000006800F00200009000BF00BF00BF274860
:102AE0000830006840F48020244908310860084616
:102AF000006800F48020009000BF00BF4FF48060A9
:102B00003090022031900120329003203390072032
:102B1000349030A91C48FDF703FD4FF4006030905D
:102B20000720349030A91848FDF7FAFC0322002151
:102B30002720FDF7D6FE2720FDF7C3FE0C23002239
:102B40004FF41651114802F043FA10482030006843
:102B500040F040000D49203108600C4818300088D2
:102B600040F008000949183108800848006840F022
:102B700020000649086035B000BD0000E04402585E
:102B800000000258001001400004025800480040B4
:102B90002DE9F0410446082C17DA0026FF2700250E
:102BA00008E0284600F030F810B1701CC6B22F467D
:102BB000681CC5B2082DF4DB012E04D1A74202D156
:102BC0000120BDE8F0810020FBE7082C0BD100209C
:102BD00000F01AF828B1012000F016F808B1012021
:102BE000EFE70020EDE7092C0BD1012000F00CF8F5
:102BF00028B1022000F008F808B10120E1E7002028
:102C0000DFE70020DDE7000001460B4850F8310007
:102C10000069094B03EBC1039B88184008B90022E7
:102C200000E00122044800EBC1008079904201D10C
:102C3000012070470020FCE7A05100081FB5FDF7F8
:102C400009FE01208DF800004FF010500190122075
:102C50008DF8080003208DF80B0001208DF80F007F
:102C60008DF80E0000208DF80D008DF80100012078
:102C70008DF80A0000208DF809008DF80C006846D8
:102C8000FDF7BAFD01208DF800004FF0C040019023
:102C90000F208DF8080003208DF80B0001208DF81F
:102CA0000F0000208DF80E008DF80D0001208DF82A
:102CB000010000208DF80A008DF809008DF80C0045
:102CC0006846FDF799FD0420FDF7DAFD1FBD00BF42
:102CD000FEE770477047000010B505A001F020FC2A
:102CE00006A001F01DFC14A001F01AFC10BD0000AC
:102CF000B2D9D7F7CCE1CABE3A0D0A00312E20C6B0
:102D0000F4B6AFD2BBB8F6D7D4B6AFD6D8D7B0C822
:102D1000EDBCFEB6A8CAB1C6F7A3ACC3BF31303014
:102D20006D73B7ADD7AAD2BBB4CE4C454431BACD42
:102D30004C4544320D0A0000322E20D4D9C6F4B6D8
:102D4000AFD2BBB8F6D7D4B6AFD6D8D7B0C8EDBCE3
:102D5000FEB6A8CAB1C6F7A3ACC3BF3530306D7399
:102D6000B7ADD7AAD2BBB4CE4C454433BACD4C454F
:102D700044340D0A000000002DE9F04123A001F0C9
:102D8000CFFB32480468001D0568001D0668304806
:102D900000683049B0FBF1F739462FA001F0C0FBC5
:102DA00023462A46314638A001F0BAFB3BA001F089
:102DB000B7FB16A001F0B4FB39A13CA001F0B0FBB9
:102DC0003FA140A001F0ACFB43A146A001F0A8FB4D
:102DD00049A001F0A5FB54A001F0A2FB54A001F012
:102DE0009FFB59A001F09CFB5CA001F099FB62A045
:102DF00001F096FB67A001F093FB6EA001F090FB41
:102E000002A001F08DFBBDE8F08100002A2A2A2AE9
:102E10002A2A2A2A2A2A2A2A2A2A2A2A2A2A2A2A12
:102E20002A2A2A2A2A2A2A2A2A2A2A2A2A2A2A2A02
:102E30002A2A2A2A2A2A2A2A2A2A2A2A2A2A2A2AF2
:102E40002A2A2A2A2A2A2A2A2A0A0D0000E8F11FF9
:102E50003000002040420F000D0A435055203A2018
:102E600053544D333248373433584948362C204276
:102E700047413234302C20D6F7C6B53A2025644D70
:102E8000487A0D0A00000000554944203D202530B5
:102E90003858202530385820253038580A0D000081
:102EA00056372DC5DCC2EDB5C60000002A20C0FD96
:102EB000B3CCC3FBB3C62020203A2025730D0A00F3
:102EC000312E30002A20C0FDB3CCB0E6B1BE2020A8
:102ED000203A2025730D0A00323031382D31322D41
:102EE000313200002A20B7A2B2BCC8D5C6DA2020F1
:102EF000203A2025730D0A002A2048414CBFE2B039
:102F0000E6B1BE20203A2056312E332E30202853F1
:102F1000544D3332483778782048414C2044726908
:102F2000766572290D0A00002A200D0A00000000B3
:102F30002A205151202020203A203132393537348F
:102F400034363330200D0A002A20CDFACDFA202065
:102F50003A2061726D666C790D0A00002A20456D79
:102F600061696C203A2061726D666C794071712ED6
:102F7000636F6D200D0A00002A20CEA2D0C5B9AB28
:102F8000D6DABAC53A2061726D666C795F636F6D8F
:102F9000200D0A002A20CCD4B1A6B5EA3A206172ED
:102FA0006D666C792E74616F62616F2E636F6D0D4B
:102FB0000A0000002A20436F7079726967687420E4
:102FC0007777772E61726D666C792E636F6D20B0A6
:102FD000B2B8BBC0B3B5E7D7D30D0A002DE9F041B5
:102FE00004460E4600274848006800F00300032806
:102FF00002D10120BDE8F08143482838006820F064
:103000008060414928390860FDF7B0FB054606E0BD
:10301000FDF7ACFB401B022801D90320EAE73A4840
:1030200028380068C0F3C0600028F1D100BF3648DE
:10303000006820F47C30216840EA013032490860A1
:10304000A088401EC0F30800A168491E4FF47E42CC
:1030500002EA41210843A189491ED20102EA014145
:103060000843217C491E120202EA016108432649F5
:103070001031086000BF2448001D006820F0C00027
:10308000616908432049091D08600846006820F06E
:103090002000A16908431C49091D08602EB9084693
:1030A000006840F40020086012E0012E08D11648A4
:1030B000001D006840F480101349091D086007E0F6
:1030C0001148001D006840F400100F49091D0860F8
:1030D0000D482838006840F080600B4928390860A6
:1030E000FDF744FB054606E0FDF740FB401B0228C8
:1030F00001D903207EE7044828380068C0F3C06087
:103100000028F1D0384675E7284402582DE9F041EF
:1031100004460E4600274848006800F003000328D4
:1031200002D10120BDE8F08143482838006820F032
:103130008050414928390860FDF718FB054606E034
:10314000FDF714FB401B022801D90320EAE73A48A7
:1031500028380068C0F340700028F1D100BF36481D
:10316000006820F07C70218840EA015032490860F4
:10317000A088401EC0F30800A168491E4FF47E429B
:1031800002EA41210843A189491ED20102EA014114
:103190000843217C491E120202EA016108432649C4
:1031A0001831086000BF2448001D006820F440600A
:1031B000616908432049091D08600846006820F439
:1031C0000070A16908431C49091D08602EB9084612
:1031D000006840F48000086012E0012E08D1164813
:1031E000001D006840F400001349091D086007E055
:1031F0001148001D006840F080700F49091D0860EB
:103200000D482838006840F080500B492839086084
:10321000FDF7ACFA054606E0FDF7A8FA401B0228C8
:1032200001D903207EE7044828380068C0F34070C5
:103230000028F1D0384675E72844025800B587B019
:1032400000BF0D48006840F002000B4908600846C6
:10325000006800F00200019000BF00BF0120039051
:1032600000200490032005900420029002A9034846
:10327000FDF756F907B000BDE044025800040258BB
:103280007047000004200149088070471804025864
:1032900004200149088070471A04025810B5002321
:1032A000234C236000BF00BF00BFBFF34F8F00BFA0
:1032B00000BF00BF231F1868C0F34E3100BFC0F32A
:1032C000C90200BF43F6E07303EA41134FF04044E4
:1032D00004EA82742343174C236000BF00BF131E0F
:1032E000A2F10102EED10B1EA1F10101E7D100BF55
:1032F00000BF00BFBFF34F8F00BF00BF00BF0C4B2C
:10330000703B1B6843F48033094C703C236000BF62
:1033100000BF00BFBFF34F8F00BF00BF00BF00BFA3
:1033200000BF00BFBFF36F8F00BF00BF00BF10BD65
:1033300084ED00E060EF00E000BF00BF00BFBFF31E
:103340004F8F00BF00BF00BF00BF00BF00BFBFF373
:103350006F8F00BF00BF00BF00201449086000BF8E
:1033600000BF00BFBFF34F8F00BF00BF00BF00BF53
:1033700000BF00BFBFF36F8F00BF00BF00BF0C488E
:10338000006840F400300A49086000BF00BF00BF79
:10339000BFF34F8F00BF00BF00BF00BF00BF00BF23
:1033A000BFF36F8F00BF00BF00BF704750EF00E05A
:1033B00014ED00E07047000010B5FDF7DDF904489A
:1033C000007800B910BD00F005F800BFFAE7000072
:1033D0001C00002010B51B48006840B11948006867
:1033E000401E1849086010B90120174908700024D0
:1033F00008E004EB4401154A02EB810001F01CFED9
:10340000601CC4B2042CF4DB11480068401C104955
:103410000860084600686FF00041884202D1002031
:103420000B49086001F0C0FD0A480078401CC0B29A
:10343000084908700A2803DB0020087001F0B0FD7D
:1034400010BD00001000002014000020F00000203B
:10345000180000201D00002010B59CB000243A4840
:10346000006820F004003849086000BF0020009088
:1034700035480C30006840F4404033490C31086056
:103480000846006800F44040009000BF00BF00BF45
:103490002D480C30006800F40050B0F5005FF7D103
:1034A0000120019000040290002004900890022066
:1034B0000A9002210B9105210C91A0210D9102216E
:1034C0000E91109104210F91002112910821119168
:1034D00001A8FEF7E3FC04461CB18C211BA0FCF7FD
:1034E0007DFF3F20149003201590002016900820A7
:1034F000179040201890199000011A9040201B90BE
:10350000042114A8FEF738FA04461CB1A7210FA025
:10351000FCF764FF1348006840F080001149086020
:1035200000BF1048F430006840F002000D49F4314B
:1035300008600846006800F00200009000BF00BF6D
:10354000FCF7E4FF1CB010BD0C4802582E2E5C2E78
:103550002E5C557365725C6273705C6273702E636F
:1035600000000000004402582048006840F4700049
:103570001E4908601E48006840F001001C490860B0
:1035800000201B491031086019480068194908409B
:10359000174908600020164918310860091D0860A5
:1035A000091D0860124928310860091D0860091DBD
:1035B0000860091D0860091D0860091D0860091DD3
:1035C0000860091D08600A48006820F48020084946
:1035D0000860002006496031086001200649086043
:1035E000C0060249803908607047000088ED00E09D
:1035F000004402587FEDF6EA0881005170B50025BD
:1036000000264FF08044206900F00205E06800F0D9
:1036100002065DB156B14FF6FD702061E0684FF6CD
:10362000FD710840E0601E4800688047206900F096
:103630000405E06800F004065DB156B14FF6FB707A
:103640002061E0684FF6FB710840E06015480068B3
:103650008047206900F00805E06800F008065DB1C9
:1036600056B14FF6F7702061E0684FF6F7710840E9
:10367000E0600D4800688047206900F01005E068B0
:1036800000F010065DB156B14FF6EF702061E068B2
:103690004FF6EF710840E06004480068804770BD55
:1036A0000000002004000020080000200C00002082
:1036B00010B500220288294B98420ED0B0F1804FFD
:1036C0000BD0274B984208D0264B984205D0264B6A
:1036D000984202D0254B984203D122F070024B68E9
:1036E0001A431E4B984217D0B0F1804F14D01C4B98
:1036F000984211D01B4B98420ED01B4B98420BD0D6
:103700001A4B984208D01A4B984205D0194B984250
:1037100002D0194B984203D122F44072CB681A436D
:1037200022F080034C6943EA040202808B68C36282
:103730000B880385094B98420BD00C4B984208D05C
:103740000B4B984205D00B4B984202D00A4B984243
:1037500001D10B8A03860123436110BD00000140A3
:103760000004004000080040000C0040000401403C
:1037700000400140004401400048014090F83410EE
:1037800001F0010139B10168496821F40031826B0F
:1037900011430268516090F8341001F0020139B110
:1037A0000168496821F48031C26B1143026851609D
:1037B00090F8341001F0040139B10168496821F42E
:1037C0008021026C11430268516090F8341001F0BE
:1037D000080139B10168496821F40041426C114384
:1037E0000268516090F8341001F0100139B101689D
:1037F000896821F48051826C11430268916090F8CD
:10380000341001F0200139B10168896821F40051B8
:10381000C26C11430268916090F8341001F04001CD
:1038200099B10168496821F48011026D1143026861
:103830005160016DB1F5801F07D10168496821F41D
:10384000C001426D11430268516090F8341001F0DC
:10385000800139B10168496821F40021826D11436A
:1038600002685160704738B5044600250020E067C3
:10387000FCF77CFF05462068006800F00800082877
:103880000CD16FF07E402B4600224FF400110090C7
:10389000204600F0F5FC08B1032038BD2068006820
:1038A00000F0040004280CD16FF07E402B4600226B
:1038B0004FF480010090204600F0E2FC08B10320A4
:1038C000EBE7202084F8790084F87A0000BF00201C
:1038D00084F8780000BF00BFDFE700002DE9F04F5B
:1038E00089B0044600254FF08008A946AA4600206A
:1038F0000890FA492068884201D1012000E00020A8
:1039000000B100E000BFA06AB0F1005F00D100BFCD
:103910002169A068084361690843E16940EA01053B
:10392000A06A054320680068ED49084028432168E3
:1039300008602068406820F44050E168084321682E
:103940004860A569E5492068884201D1012000E06E
:10395000002008B9206A0543A06AB0F1005F03D1D6
:10396000D4E90B010843054320688068DD4908401D
:103970002843216888602068C06A20F00F00616ACF
:1039800008432168C86200BFD7492068884224D113
:10399000D648006800F03800182814D005DC48B17B
:1039A00008280AD0102817D10AE020280ED028288D
:1039B00012D10EE04FF001080EE04FF004080BE0CA
:1039C0004FF0400808E04FF0080805E04FF01008FD
:1039D00002E04FF0200800BF17E1C5492068884287
:1039E0001DD1C248006800F00700062816D2DFE8A3
:1039F00000F00306090C0F124FF000080EE04FF024
:103A000004080BE04FF0400808E04FF0080805E01C
:103A10004FF0100802E04FF0200800BFF5E0B54974
:103A2000206888421DD1B148006800F007000628D0
:103A300016D2DFE800F00306090C0F124FF0000861
:103A40000EE04FF004080BE04FF0400808E04FF0A4
:103A5000080805E04FF0100802E04FF0200800BF12
:103A6000D3E0A549206888421DD1A048006800F035
:103A70000700062816D2DFE800F00306090C0F1233
:103A80004FF000080EE04FF004080BE04FF0400844
:103A900008E04FF0080805E04FF0100802E04FF092
:103AA000200800BFB1E09549206888421DD18F48A9
:103AB000006800F00700062816D2DFE800F00306D1
:103AC000090C0F124FF000080EE04FF004080BE055
:103AD0004FF0400808E04FF0080805E04FF01008EC
:103AE00002E04FF0200800BF8FE08549206888423F
:103AF00024D17E48006800F03800182814D005DC76
:103B000048B108280AD0102817D10AE020280ED082
:103B1000282812D10EE04FF001080EE04FF0040803
:103B20000BE04FF0400808E04FF0080805E04FF0C8
:103B3000100802E04FF0200800BF66E071492068DD
:103B400088421DD16948006800F00700062816D297
:103B5000DFE800F00306090C0F124FF000080EE03A
:103B60004FF004080BE04FF0400808E04FF0080861
:103B700005E04FF0100802E04FF0200800BF44E0DD
:103B80006149206888421DD15848006800F007004C
:103B9000062816D2DFE800F00306090C0F124FF0DA
:103BA00000080EE04FF004080BE04FF0400808E07A
:103BB0004FF0080805E04FF0100802E04FF0200831
:103BC00000BF22E04549206888421ED14748001DB9
:103BD000006800F00700062816D2DFE800F00306B0
:103BE000090C0F124FF002080EE04FF004080BE032
:103BF0004FF0400808E04FF0080805E04FF01008CB
:103C000002E04FF0200800BF00BF00BF334920682A
:103C1000884201D1012000E0002000285DD000256D
:103C2000B8F1100F33D009DCB8F1020F10D0B8F1A1
:103C3000040F11D0B8F1080F2ED117E0B8F1200F02
:103C400027D0B8F1400F0CD0B8F1800F24D124E078
:103C5000FCF7B4FE054623E005A8FCF7C5FE069D6B
:103C60001EE002A8FCF7D6FF039D19E01F48543858
:103C70000068C0F3401040B11C4854380068C0F3DD
:103C8000C101224820FA01F500E0204D08E0204D56
:103C900006E04FF4004503E000BF0120089000BF9C
:103CA00000BF002D0AD0606800EB4000A84203D896
:103CB00060680003A84202D201200890D4E2B8F163
:103CC000100F7CD026DCB8F1020F2DD0B8F1040F14
:103CD00052D0B8F1080F73D19EE03FE1000C0058BC
:103CE000F369FFCFFFF4FF11001001405444025864
:103CF0000044004000480040004C0040005000409C
:103D00000014014000780040007C00400090D00387
:103D100000093D00B8F1200F7DD0B8F1400F54D01C
:103D2000B8F1800FD7D109E1FCF748FE002706461D
:103D3000FB49606A31F810C062463B46304639465E
:103D4000FCF7C6FA4FF4807600220346A3FB060771
:103D500001FB067103FB02136168490806467118EE
:103D60005A41CDE90012666832460023084601999F
:103D7000FCF7AEFA0546E4E005A8FCF735FEDDF8F1
:103D800018C0E749606A31F810B05A46002360460F
:103D90001946FCF79DFA4FF4807C0022A0FB0C3BF7
:103DA00001FB0CB100FB0210616849085E1840EB92
:103DB0000201D4F804C062460023304601E079E0F5
:103DC000BBE0FCF785FA0546BBE002A8FCF722FF42
:103DD000DDF80CC0D249606A31F810B05A460023B1
:103DE00060461946FCF774FA4FF4807C0022A0FB71
:103DF0000C3B01FB0CB100FB0210616849085E1826
:103E000040EB0201D4F804C0624600233046FCF7C0
:103E10005FFA054695E06EE0C2480068C0F34010C6
:103E200038B3C0480068C0F3C101BF4820FA01FCA4
:103E3000BB49606A31F810B05A4600236046194603
:103E4000FCF746FA4FF4807C0022A0FB0C3B01FB00
:103E50000CB100FB0210616849085E1840EB0201DA
:103E6000D4F804C0624600233046FCF731FA054618
:103E70001FE0AB49606A31F810C062460023AA48CF
:103E80001946FCF725FA4FF4807C0022A0FB0C3B7E
:103E900001FB0CB100FB0210616849085E1840EBA1
:103EA0000201D4F804C0624600233046FCF710FA41
:103EB000054646E09A49606A31F810C06246002320
:103EC0009A481946FCF704FA4FF4807C0022A0FBC4
:103ED0000C3B01FB0CB100FB0210616849085E1845
:103EE00040EB0201D4F804C0624600233046FCF7E0
:103EF000EFF9054625E08A49606A31F810C062464C
:103F000000234FF400401946FCF7E2F94FF4807C9F
:103F10000022A0FB0C3B01FB0CB100FB021061680E
:103F200049085E1840EB0201D4F804C06246002341
:103F30003046FCF7CDF9054603E000BF01200890AC
:103F400000BF00BFB5F5407F05D3B5F5801F02D295
:103F50002068C56088E10120089085E1E069B0F53E
:103F6000004F7CD1B8F1100F7AD00CDCB8F1000F03
:103F700013D0B8F1010F21D0B8F1040F2FD0B8F150
:103F8000080F6ED151E0B8F1200F6BD0B8F1400F9F
:103F900038D0B8F1800F64D197E0FDF731FE604A68
:103FA000616A32F81110B0FBF1F04000616800EB7B
:103FB0005100B0FBF1F01FFA80FA89E0FDF736FE00
:103FC000574A616A32F81110B0FBF1F040006168A5
:103FD00000EB5100B0FBF1F01FFA80FA78E005A881
:103FE000FCF702FD06994E4A606A32F81000B1FBF8
:103FF000F0F04000616800EB5100B0FBF1F01FFAF7
:1040000080FA65E002A8FCF705FE0399444A606A5D
:1040100032F81000B1FBF0F04000616800EB510095
:10402000B0FBF1F01FFA80FA52E03E480068C0F39E
:104030004010C0B13B480068C0F3C1013A48C840D5
:10404000374A616A32F81110B0FBF1F04000616844
:1040500000EB5100B0FBF1F01FFA80FA12E044E0EF
:1040600011E031E01FE02E49606A31F810002E495E
:10407000B1FBF0F04000616800EB5100B0FBF1F0E3
:104080001FFA80FA24E02649606A31F810002749B7
:10409000B1FBF0F04000616800EB5100B0FBF1F0C3
:1040A0001FFA80FA14E01E49606A31F810004FF4DC
:1040B0000041B1FBF0F04000616800EB5100B0FB43
:1040C000F1F01FFA80FA03E000BF0120089000BF62
:1040D00000BF4FF6F0700AEA0009CAF3420049EA4D
:1040E00000092068C0F80C90BEE0B8F1100F7CD039
:1040F0000CDCB8F1000F1BD0B8F1010F29D0B8F1DA
:10410000040F37D0B8F1080F70D159E0B8F1200F83
:104110006DD0B8F1400F40D0B8F1800F66D19FE06C
:1041200040520008004402580090D00300093D00AE
:10413000FDF766FD4E4A616A32F81110B0FBF1F0EE
:10414000616800EB5100B0FBF1F080B22168C860FB
:1041500089E0FDF76BFD464A616A32F81110B0FB49
:10416000F1F0616800EB5100B0FBF1F080B2216822
:10417000C86078E005A8FCF737FC06993C4A606AFD
:1041800032F81000B1FBF0F0616800EB5100B0FBB9
:10419000F1F080B22168C86065E002A8FCF73AFD42
:1041A0000399334A606A32F81000B1FBF0F061689D
:1041B00000EB5100B0FBF1F080B22168C86052E022
:1041C0002C480068C0F34010C0B12A480068C0F312
:1041D000C1012948C840264A616A32F81110B0FB73
:1041E000F1F0616800EB510002E017E037E025E0F4
:1041F000B0FBF1F080B22168C8600EE01C49606A33
:1042000031F810001C49B1FBF0F0616800EB51007F
:10421000B0FBF1F080B22168C86024E01449606A04
:1042200031F810001549B1FBF0F0616800EB510066
:10423000B0FBF1F080B22168C86014E00C49606AFC
:1042400031F810004FF40041B1FBF0F0616800EB71
:104250005100B0FBF1F080B22168C86003E000BFFC
:104260000120089000BF00BF089809B0BDE8F08F9A
:1042700040520008004402580090D00300093D005D
:104280002DE9F04104460D4617469846069E21E06A
:10429000701CF8B12EB1FCF769FAA0EB0800B0422F
:1042A00018D92068006820F4D07021680860206860
:1042B000806820F0010021688860202084F879005F
:1042C00084F87A0000BF002084F8780000BF032043
:1042D000BDE8F0812068C0692840A84201D10120D2
:1042E00000E00020B842D3D00020F1E710B502482A
:1042F00000F00CF810BD00002001002010B50248AD
:1043000000F004F810BD00004C0900202DE9F04138
:1043100004462068C569206806682068D0F80880CF
:1043200005F02000D8B12068808CC7B2E18AA0686F
:104330004754E08A401C80B2E082E189884201DB78
:104340000020E082608BE189884202DA608B401CA9
:104350006083606A10B13846616A884700BF05F023
:10436000800028B306F0800010B3A08A60B92068EE
:10437000006820F08000216808602068006840F034
:1043800040002168086013E0012084F82800618A59
:104390006068405C21680885608A401C80B2608249
:1043A000A189884201DB00206082A08A401EA08291
:1043B00005F0400018B306F0400000B3A08A68B9C9
:1043C0002068006820F0400021680860206A08B179
:1043D000206A8047002084F8280010E0618A606825
:1043E000405C21680885608A401C80B26082A18997
:1043F000884201DB00206082A08A401EA0822068E3
:10440000006A40F00100216808622068006A40F0FC
:104410000200216808622068006A40F004002168F8
:1044200008622068006A40F008002168086220687D
:10443000006A40F01000216808622068006A40F0BD
:104440004000216808622068006A40F4807021689A
:1044500008622068006A40F40070216808622068E1
:10446000006A40F40030216808622068006A40F465
:104470008010216808622068006A40F020002168EE
:104480000862BDE8F081000019481A4908601A481E
:1044900048601A4888604FF480608881C881002095
:1044A00008824882C882088348838882C86108627B
:1044B000486281F828001248124908601248486092
:1044C000124888604FF480608881C881002008828B
:1044D0004882C8820883488388820D48C8610D4895
:1044E00008620D484862002081F8280070470000EB
:1044F00000100140200100204C0100204C0500204C
:10450000004800404C09002078090020780D002068
:1045100085320008913200088132000800BFFEE7B2
:104520000FB4054B10B503A9044A029800F036F801
:1045300010BC5DF814FB0000F15000083C000020A6
:1045400002480068C0F30220704700000CED00E054
:1045500010B5002804DB0A07130E054A135406E0C1
:104560000A07140E034A00F00F031B1FD45410BD9A
:1045700000E400E018ED00E002E008C8121F08C1E6
:10458000002AFAD170477047002001E001C1121FD4
:10459000002AFBD1704780F3108870472DE9FF4F48
:1045A0008DB00F460546002606E025280BD0DDE934
:1045B0000F1290476D1C761C28780028F5D111B099
:1045C0003046BDE8F08F0024A246A1460122EC4906
:1045D00000E0044315F8013F203B02FA03F00842D3
:1045E000F7D128782A2810D06FF02F022878A0F170
:1045F0003001092914D80AEB8A0102EB410144F089
:10460000020400EB010A6D1CF0E701CF5FEA000A2B
:1046100003D544F40054CAF1000A44F002046D1CAE
:1046200028782E2817D115F8010F44F004042A2801
:104630000ED06FF02F022878A0F1300109290AD896
:1046400009EB890102EB410100EB01096D1CF2E766
:1046500057F8049B6D1C28786C280FD006DC4C287A
:1046600017D068280DD06A2814D104E0742810D01F
:104670007A280FD10DE044F400140AE044F48014C9
:1046800001E044F440146978814202D104F58014B9
:104690006D1C6D1C2A786E2A1FD00CDC632A31D069
:1046A00004DC002A8BD0582A11D1A3E0642A68D0F8
:1046B000692A0CD165E0732A2ED004DC6F2A73D0EE
:1046C000702A04D19BE0752A6FD0782A6ED01046EC
:1046D000DDE90F129047761C50E1C4F30250022826
:1046E00006D0032809D0042801CF09D0066045E18F
:1046F00001CFF117C0E9006140E101CF06803DE143
:1047000006703BE117F8040B8DF8000000208DF8CF
:104710000100EB46012003E057F804BB4FF0FF30E7
:1047200061074FF0000102D40DE008F10101884655
:1047300049450FDA8045F8DB1BF808100029F4D151
:1047400008E008F1010188468142FADB1BF80810F5
:104750000029F6D1DDE90F23AAEB080081462146A6
:1047600000F036F9304400EB080604E0DDE90F12F2
:104770001BF8010B9047B8F10108F7D221464846D3
:10478000F7E00A21C4F302534FF0000B0891022B0B
:1047900004D001CFC117032B09D00AE0FF1D27F079
:1047A0000707F7E8020108E032E01FE020E000B26E
:1047B000C117042B01D140B2C117031E71F10003D0
:1047C00007DA4FF0000CD0EB0C006CEB01012D234D
:1047D00002E0230504D52B238DF82430012303E0C8
:1047E000E30701D02023F7E7984658E00A2110E0BC
:1047F00010210EE010204FF0000B08900CE010216B
:104800004FF0000B44F004044FF00809089103E056
:1048100008214FF0000B0891C4F30253022B04D07F
:1048200001CF0021032B06D006E0FF1D27F007076C
:10483000F7E8020103E080B2042B00D1C0B24FF0D0
:10484000000823072BD5702A07D0DDF820C08CF094
:10485000100C5CEA0B0C05D00EE040238DF82430E0
:10486000012308E050EA010306D030238DF82430FC
:104870008DF8252002239846DDF820C08CF0080C26
:104880005CEA0B0C0BD150EA010301D1630706D59A
:1048900030238DF824304FF00108A9F10109582A7E
:1048A00004D038A20B9208AA0A920BE03AA2F9E7C8
:1048B0005B46089AFBF70CFD0B9B9B5C0A9A521E09
:1048C0000A92137050EA0102F2D10A98ADEB00008F
:1048D00000F1200B600702D524F4803401E04FF092
:1048E0000109D94502DDA9EB0B0000E0002000EB37
:1048F0000B0141440890AAEB010AE00306D4DDE96C
:104900000F232146504600F063F806444FF000099B
:1049100008E009A911F80900DDE90F12904709F133
:104920000109761CC145F4DBE0030CD5DDE90F235A
:104930002146504600F04CF8064404E0DDE90F1231
:1049400030209047761C0899481E08900029F5DC15
:1049500008E00A980A990078491C0A91DDE90F12CB
:104960009047761CBBF10001ABF1010BF1DC214655
:104970005046DDE90F2300F019F806446D1C1BE6D4
:104980000928010030313233343536373839616225
:1049900063646566000000003031323334353637E9
:1049A0003839414243444546000000002DE9F041BA
:1049B000044600251E461746880404D405E03946FF
:1049C0002020B0476D1C641EF9D52846BDE8F08153
:1049D0002DE9F041044600251E469046C80301D546
:1049E000302700E02027880404D505E041463846FA
:1049F000B0476D1C641EF9D52846BDE8F081000063
:104A00000146042901DB0020704701EB4100084A00
:104A100002EB80004078012808D1002001EB410220
:104A2000034B03EB820250700120EDE70020EBE71F
:104A3000F000002010B5044604B910BD012C00D1CF
:104A400002240120FFF7A7FD09480460002009495E
:104A50000870FFF7A0FD06E000F074F80548007844
:104A6000012800D100E0F7E700BF00BFE5E7000044
:104A7000100000201400002070B50546304800EBFF
:104A800005142846FEF784F800283ED02079052832
:104A900002DA0520207152E020790A2803DA207911
:104AA000401C20714BE0A07A38B90120A07205EBC0
:104AB0004501491CC8B200F063FA208900283EDD98
:104AC000E088218988420DDAE088401C80B2E080CD
:104AD0002189884233D105EB4501C91CC8B200F0D9
:104AE0004FFA2CE0E07A002829DD207B401CC0B280
:104AF0002073E17A884222DB0020207305EB450118
:104B0000491CC8B200F03CFA19E02079052802DD02
:104B10000520207110E0207918B12079401E207105
:104B20000AE0A07A012807D10020A07205EB450118
:104B3000891CC8B200F024FA0020E080207370BD08
:104B400040000020704710B5FEF778F8FBF73FFCF7
:104B5000FBF71EFEFEF780FC00F09AF800F048F923
:104B600000F09AF900F004F800F034F910BD0000EC
:104B700010B5FDF7FBFDFDF7A9FD40F614700349E4
:104B80000860084600680249086010BD2000002047
:104B900000100060F0B591B0402101A8FBF7D0FBF8
:104BA0004FF0804400BF2948006840F001002749C9
:104BB00008600846006800F00100009000BF00BFD8
:104BC000234884420BD02348844208D022488442A0
:104BD00005D02248844202D02148844203D1214892
:104BE0000068460802E01F48006846081E48B6FBF9
:104BF000F0F0401E87B2B4F1804F02D01B488442CF
:104C000002D14FF0FF3501E04FF6FF750194029796
:104C1000049500210591039106918021079101A837
:104C2000FDF7EDFC20B14FF40C7111A0FBF7D6FBA2
:104C3000022200211C20FBF754FE1C20FBF741FE42
:104C400001A8FDF7F7FC11B0F0BD0000E8440258E0
:104C500000000140000401400040014000440140C8
:104C6000004801403000002040420F00000C00408E
:104C70002E2E5C2E2E5C557365725C6273705C73B5
:104C800072635C6273705F74696D65722E6300009D
:104C900010B500F063F800F001F810BD10B586B053
:104CA00000BF2C48006840F002002A49086008460E
:104CB000006800F00200009000BF00BF00BF08467F
:104CC000006840F0040008600846006800F0040036
:104CD000009000BF00BF00BF0846006840F04000E1
:104CE00008600846006800F04000009000BF00BF68
:104CF00000BF0846006840F0800008600846006871
:104D000000F08000009000BF00BF00BF08460068B0
:104D100040F4807008600846006800F480700090DD
:104D200000BF00BF002002900390032004900024E5
:104D30000CE0094800EBC40080880190064951F856
:104D4000340001A9FBF7ECFB601CC4B2082CF0DBBB
:104D500006B010BDE0440258A051000810B5002074
:104D60001A498872C8720873002418E06420184930
:104D700001EB041108810220154901EB04110871AF
:104D80000020134901EB04118872114901EB041151
:104D9000C8720F4901EB04110873601CC4B20A2CDD
:104DA000E4DB06226421032000F000F906226421DE
:104DB000042000F0FBF806226421052000F0F6F83C
:104DC00006226421104600F0F1F810BDE00000203A
:104DD0004000002010B5012000F071F8022000F022
:104DE0006EF8032000F06BF8042000F068F810BDA6
:104DF00070B5002416E0002004EB4401214A02EBC8
:104E00008101486004EB440102EB8101886004EBFE
:104E1000440102EB8101487004EB440102F82100D7
:104E2000601CC4B2042CE6DB174800684FF47A72A9
:104E3000B0FBF2F1481EB0F1807F00D31BE0481EAA
:104E40004FF0E022506150170F22002804DB1307B7
:104E50001D0E0E4B1D5406E013071E0E0C4B00F0EA
:104E60000F052D1F5E5500BF00204FF0E02290611E
:104E70000720106100BF012006490870FFF78AFE75
:104E800070BD0000F00000203000002000E400E0D1
:104E900018ED00E01C00002010B5FFF7F5FAFDF753
:104EA00097FDFEF7CBF910BD10B5002404E02046B5
:104EB000FFF7E2FD601CC4B20A2CF8DB10BD10B590
:104EC0000446012C04D101210002FDF7E7FC13E0A8
:104ED000022C04D101214802FDF7E0FC0CE0032C78
:104EE00004D101218802FDF7D9FC05E0042C03D18F
:104EF0000121C802FDF7D2FC10BD10B50446012CFB
:104F000004D100210002FDF7C9FC14E0022C04D1F9
:104F100000212002FDF7C2FC0DE0032C05D1002189
:104F20004FF48060FDF7BAFC05E0042C03D10021AA
:104F30006002FDF7B3FC10BD70B50446012C01D131
:104F400005020DE0022C01D1250209E0032C02D15B
:104F50004FF4806504E0042C01D1650200E070BDCF
:104F60002846FDF78FFC20B100212846FDF796FC6E
:104F700003E001212846FDF791FC00BFEFE70000A8
:104F80000649C97A054A50541146C97A491CC9B222
:104F9000D1720A2901DB0021D1727047E0000020A4
:104FA00010B5FFF781FF10BD7047000010B5074B2B
:104FB00003EB00131981054B03EB0013DA72002396
:104FC000024C04EB0014237310BD000040000020CD
:104FD000F0B5A1B004460D4617461E460194029551
:104FE0000021039104910597079106960891099174
:104FF0000A910B910C910D9100200E9001A8FDF7E4
:1050000028FB20B140F22A3102A0FBF7E7F921B0DA
:10501000F0BD00002E2E5C2E2E5C557365725C6216
:1050200073705C7372635C6273705F756172745FDE
:105030006669666F2E630000416851B14168491E80
:10504000416031B9012141700178012901D18168A4
:105050004160704770B504460D46042C06DB124AC9
:1050600012A11AA0FFF75CFA00BFFEE70120FFF7CC
:1050700092FA04EB44001D4901EB8000456004EB0B
:10508000440001EB80008560002004EB4401174AD6
:1050900002EB81014870012004EB440102F8210079
:1050A0000020FFF778FA70BD1F5200082E2E5C2EEC
:1050B0002E5C557365725C6273705C7372635C62C4
:1050C00073705F74696D65722E6300004572726F54
:1050D000723A2066696C652025732C2066756E63B4
:1050E00074696F6E20257328290D0A00F0000020D6
:1050F000044B188500BF034AD26902F04002002A1F
:10510000F9D0704700100140FFF71DFDFDF734FE98
:10511000FDF7E2FD0120FFF7F0FE6420FFF78AFCB7
:105120000120FFF7CCFE6420FFF784FC64210020FF
:10513000FFF790FF4FF4FA710120FFF78BFF15E0A6
:10514000FFF700FD0020FFF75BFC10B10120FFF727
:10515000F3FE0120FFF754FC40B10220FFF7ECFE04
:105160000320FFF7E9FE0420FFF7E6FEE8E7000072
:10517000010002000400060008000A000C001000F4
:105180002000400080000001010002000400060031
:1051900008000A000C001000200040008000000100
:1051A0000020025800010000000802580020000002
:1051B000001C0258100000000018025804000000F3
:1051C0000004025801000000001802580800000006
:1051D000001802588000000000200258000800005B
:1051E000010002000400060008000A000C00100084
:1051F00020004000800000010100020004000600C1
:1052000008000A000C00100020004000800000018F
:105210006273705F537461727454696D6572006279
:1052200073705F53746172744175746F54696D6506
:1052300072006273705F53746F7054696D657200B1
:10524000010002000400060008000A000C00100023
:105250002000400080000001010002000400060060
:1052600008000A000C00100020004000800000012F
:10527000010002000400060008000A000C001000F3
:105280002000400080000001010002000400060030
:1052900008000A000C0010002000400080000001FF
:1052A00000000000010203040102030406070809CC
:1052B000D05200080000002040000000784500089F
:1052C00010530008400000207821000088450008A5
:1052D00000000000000000000000000000000000CE
:1052E00000000000000000000000000000000000BE
:1052F000000000000000000010000000010000009D
:105300000090D0030090D0030000000000000000D7
:040000050800029954
:00000001FF
