:020000040800F2
:1000000040220020ED5C00088F2D0008C95C00082C
:10001000912D0008932D0008952D00080000000088
:10002000000000000000000000000000972D000804
:10003000992D0008000000009B2D0008B14C00081D
:10004000395D00083D5D0008415D0008455D000820
:10005000495D00084D5D0008515D0008555D0008D0
:10006000595D00085D5D0008615D0008655D000880
:10007000695D00086D5D0008715D0008755D000830
:10008000795D00087D5D0008815D0008855D0008E0
:10009000895D00088D5D0008915D0008955D000890
:1000A000995D00089D5D0008A15D0008A55D000840
:1000B000794D0008A95D0008AD5D0008B15D00083C
:1000C000B55D0008B95D0008BD5D0008C15D0008B0
:1000D000C55D0008E1410008C95D0008EB4100086A
:1000E000CD5D0008D15D000800000000D55D00086E
:1000F000D95D0008DD5D0008E15D0008E55D0008F0
:10010000E95D0008ED5D0008F15D0008F55D00089F
:10011000F95D0008FD5D0008015E0008055E00084D
:10012000095E00080D5E0008115E0008155E0008FB
:10013000195E00081D5E0008215E0008255E0008AB
:1001400000000000000000000000000000000000AF
:10015000295E00082D5E0008315E0008355E00084B
:10016000395E00083D5E0008415E0008455E0008FB
:10017000495E00084D5E0008515E00080000000066
:10018000555E0008595E00085D5E0008615E00086B
:10019000655E0008695E00086D5E0008715E00081B
:1001A000755E0008795E00087D5E0008815E0008CB
:1001B000855E0008895E00088D5E0008915E00087B
:1001C000955E0008995E00089D5E0008A15E00082B
:1001D000A55E0008A95E0008AD5E0008B15E0008DB
:1001E000B55E0008B95E0008BD5E0008C15E00088B
:1001F000C55E0008C95E0008CD5E0008D15E00083B
:10020000D55E0008D95E0008DD5E0008E15E0008EA
:10021000E55E0008E95E0008ED5E0008F15E00089A
:10022000F55E0008F95E0008FD5E000800000000B1
:10023000015F0008055F000800000000095F00087A
:100240000D5F0008115F0008155F0008195F0008C6
:100250001D5F0008215F0008255F0008295F000876
:100260002D5F0008315F0008355F0008395F000826
:100270003D5F0008415F0008455F00080000000086
:10028000495F0008000000004D5F0008000000000A
:1002900000000000515F00082DE9F0410400002635
:1002A00000252068000130D5606E002809D0B0F527
:1002B000801F0DD0B0F5001F10D0B0F5401F14D036
:1002C00014E0DFF8D809016851F4003101600EE054
:1002D0000221201D00F00CFF060008E0022114F1AD
:1002E000240000F083FF060001E000E0012630005A
:1002F000C0B2002808D1DFF8A8190A6832F4401209
:10030000606E02430A6000E035432068C0052ED5C8
:10031000606D002806D0022811D00AD3042816D018
:1003200014D315E0DFF87409016851F4003101605D
:100330000FE00021201D00F0DBFE060009E0002197
:1003400014F1240000F052FF060002E001E000E09A
:1003500001263000C0B2002808D1DFF844190A682D
:10036000D208D200606D02430A6000E03543206885
:10037000800531D5A06D002809D040280ED08028F6
:1003800012D0C02817D0B0F5807F15D015E0DFF867
:100390000C09016851F4003101600FE00021201DBB
:1003A00000F0A6FE060009E0002114F1240000F090
:1003B0001DFF060002E001E000E001263000C0B2AF
:1003C000002808D1DFF8D8180A6832F4E072A06D6E
:1003D00002430A6000E035432068400536D5D4F872
:1003E000A40000280CD0B0F5001F10D0B0F5800F8D
:1003F00013D0B0F5C00F17D0B0F5000F15D015E031
:10040000DFF89808016851F4003101600FE0002125
:10041000201D00F06DFE060009E0002114F124000B
:1004200000F0E4FE060002E001E000E001263000FA
:10043000C0B2002809D1DFF86C180A6832F46002F3
:10044000D4F8A40002430A6000E0354320680005A8
:1004500036D5D4F8A80000280CD0B0F1807F10D099
:10046000B0F1007F13D0B0F1407F17D0B0F1806FB2
:1004700015D015E0DFF82408016851F4003101605F
:100480000FE00021201D00F033FE060009E00021EE
:1004900014F1240000F0AAFE060002E001E000E0F2
:1004A00001263000C0B2002809D1DFF8F8170A6829
:1004B00032F0E062D4F8A80002430A6000E035435D
:1004C0002068800127D5A06C002814D0102804D003
:1004D000202809D030280DD00EE0DFF8C0070168D1
:1004E00051F40031016008E00221201D00F000FEFF
:1004F000060002E001E000E001263000C0B2002862
:1005000008D1DFF8A4170A6832F03002A06C024369
:100510000A6000E035432068C00434D5E06D00284F
:100520000CD0B0F5805F10D0B0F5005F13D0B0F5FF
:10053000405F17D0B0F5804F15D015E0DFF85C07AD
:10054000016851F4003101600FE00021201D00F02E
:10055000CFFD060009E0002114F1240000F046FE62
:10056000060002E001E000E001263000C0B20028F1
:1005700008D1DFF82C170A6832F4E042E06D02433C
:100580000A6000E035432068800432D5206E0028E0
:100590000FD0B0F5803F0DD0B0F5003F10D0B0F5D2
:1005A000403F14D0B0F5802F12D0B0F5A02F10D05E
:1005B00010E010E00121201D00F09AFD06000AE085
:1005C000012114F1240000F011FE060003E002E016
:1005D00001E000E001263000C0B2002808D1DFF8B9
:1005E000C0160A6832F4E022206E02430A6000E07E
:1005F00035432068400434D5D4F8AC0000280FD02F
:10060000B0F1805F0DD0B0F1005F10D0B0F1405F6D
:1006100014D0B0F1804F12D0B0F1A04F10D010E044
:1006200010E00121201D00F063FD06000AE0012119
:1006300014F1240000F0DAFD060003E002E001E01E
:1006400000E001263000C0B2002809D1DFF85416BE
:100650000A6832F0E042D4F8AC0002430A6000E0DD
:1006600035432068000426D5E06E002813D0B0F191
:10067000805F03D0B0F1005F07D00DE0DFF81C060B
:10068000016851F40031016007E00121201D00F0F4
:100690002FFD060001E000E001263000C0B2002876
:1006A00008D1DFF8FC150A6832F04052E06E0243D0
:1006B0000A6000E035432068C00126D5606C002840
:1006C00013D002280AD002D303280DD00EE0DFF8A1
:1006D000CC05016851F40031016008E00221201DC1
:1006E00000F006FD060002E001E000E00126300017
:1006F000C0B2002808D1DFF8B0150A68920892004D
:10070000606C02430A6000E03543206840026DD50A
:10071000DFF8BC85D8F8000050F48070C8F80000FD
:1007200000F0F2FD0700D8F80000C00505D400F085
:10073000EBFDC01B6528F6D303263000C0B20028AD
:1007400053D1DFF89075386810F44070D4F8B010C9
:1007500011F4407188420BD0386830F44070396829
:1007600051F480313960396831F480313960386052
:10077000D4F8B000B0F5807F0ED100F0C5FD804602
:100780003868800708D400F0BFFDB0EB080041F2E4
:1007900089318842F4D303263000C0B2002822D128
:1007A000D4F8B00010F44070B0F5407F0DD1DFF800
:1007B0002805016831F47C51D4F8B020DFF81C35ED
:1007C00013EA12131943016005E0DFF80C05016814
:1007D00031F47C5101603868D4F8B0100905090D76
:1007E0000843386002E0354300E035432078C00715
:1007F0002DD5A06F00280AD0082809D010280DD0C8
:10080000182812D0202811D0282810D010E010E08D
:100810000121201D00F06CFC06000AE0012114F10A
:10082000240000F0E3FC060003E002E001E000E049
:1008300001263000C0B2002808D1DFF888160A6807
:1008400032F03802A06F02430A6000E0354320789E
:1008500080072BD5606F002808D002280DD006D362
:10086000042812D010D3052810D010E010E0012188
:10087000201D00F03DFC06000AE0012114F12400D7
:1008800000F0B4FC060003E002E001E000E0012615
:100890003000C0B2002808D1DFF828160A68D20854
:1008A000D200606F02430A6000E0354320784007C1
:1008B0002DD5D4F89000002808D002280DD006D3FA
:1008C000042812D010D3052810D010E010E0012128
:1008D000201D00F00DFC06000AE0012114F12400A7
:1008E00000F084FC060003E002E001E000E00126E5
:1008F0003000C0B2002809D1DFF8A8130A68D20876
:10090000D200D4F8900002430A6000E0354320781A
:10091000800634D5D4F88C0000280FD0B0F1805F69
:100920000DD0B0F1005F10D0B0F1405F14D0B0F145
:10093000804F12D0B0F1A04F10D010E010E0002195
:10094000201D00F0D5FB06000AE0022114F124006E
:1009500000F04CFC060003E002E001E000E00126AC
:100960003000C0B2002809D1DFF858150A6832F00B
:10097000E042D4F88C0002430A6000E0354320785E
:10098000400634D5D4F8980000280FD0B0F5806F19
:100990000DD0B0F5006F10D0B0F5406F14D0B0F5A9
:1009A000805F12D0B0F5A05F10D010E010E0002101
:1009B000201D00F09DFB06000AE0022114F1240036
:1009C00000F014FC060003E002E001E000E0012674
:1009D0003000C0B2002809D1DFF8C8120A6832F42A
:1009E000E052D4F8980002430A6000E035432078D2
:1009F000000634D5D4F89C0000280FD0B0F5005F75
:100A00000DD0B0F5804F10D0B0F5C04F14D0B0F578
:100A1000004F12D0B0F5204F10D010E010E00021B0
:100A2000201D00F065FB06000AE0022114F12400FD
:100A300000F0DCFB060003E002E001E000E001263C
:100A40003000C0B2002809D1DFF858120A6832F429
:100A50006042D4F89C0002430A6000E035432078ED
:100A6000000714D5D4F88000B0F5805F06D10221CC
:100A700014F1240000F0BAFB054308E0DFF8441449
:100A80000A6832F44052D4F8800002430A602078A9
:100A9000C00614D5D4F89400B0F5807F06D10221A9
:100AA00014F1240000F0A2FB054308E0DFF8F41184
:100AB0000A6832F44072D4F8940002430A60206855
:100AC000000328D5D4F8A000002806D0B0F5803F58
:100AD00009D0B0F5003F0DD00DE00021201D00F041
:100AE00007FB060008E0022114F1240000F07EFB61
:100AF000060001E000E001263000C0B2002809D164
:100B0000DFF8A0110A6832F44032D4F8A0000243A2
:100B10000A6000E035432068400329D5D4F88400FA
:100B2000B0F5801F06D0B0F5001F09D0B0F5401F0A
:100B30000DD00DE05948016851F40031016008E022
:100B4000012114F1240000F051FB060001E000E057
:100B500001263000C0B2002809D1DFF868130A6806
:100B600032F44012D4F8840002430A6000E03543B6
:100B70002068C00320D5E06C002803D0B0F5803F8A
:100B800006D00BE04548016851F40031016006E0F1
:100B90000221201D00F0ACFA060000E00126300022
:100BA000C0B2002807D140490A6832F48032E06CB4
:100BB00002430A6000E035432068800005D5022129
:100BC00014F1240000F012FB05432068800325D5B2
:100BD000E06F002811D0B0F5807F06D0B0F5007F1F
:100BE00009D0B0F5407F07D008E02C48016851F4E7
:100BF0000031016003E002E001E000E00126300086
:100C0000C0B2002808D1DFF8BC120A6832F4407282
:100C1000E06F02430A6001E02E4335002068C00205
:100C200006D51F490A6822F00042206F02430A607D
:100C30002068C00008D5DFF8A0100A6832F48042AE
:100C4000D4F8B40002430A602068800206D5144933
:100C50000A6832F08072A06E02430A602068400089
:100C60000AD5DFF87410086830F4004008600A689C
:100C7000D4F8B80002430A602068002806D50A4963
:100C80000A6832F04052206D02430A60EDB2002D36
:100C900001D1002000E00120BDE8F0812C44025881
:100CA00050440258584402584C44025880B500F051
:100CB0001CFDDFF830160968DFF8242611F07001FA
:100CC0005FF00063B3FA83F3D940515CC84002BDC2
:100CD000004802587044025810440258CFFFFF00E9
:100CE00010B400210121002100219FED770A9FED22
:100CF000760ADFF8F4130B6813F003030968C1F3F5
:100D00000532DFF8E8130C6814F01004DFF8D8158A
:100D10000968C1F3CC014C4300EE104AB8EE400A1A
:100D2000002B03D0022B64D045D380E0DFF8BC3524
:100D30001968890621D5DFF8A8141B68C3F3C1031D
:100D4000D940B1FBF2F100EE901AF8EE600ADFF83C
:100D5000A0150968C905C90D01EE101AB8EE411AAF
:100D6000DFED5A1A80EE210A31EE000AB7EE001AC2
:100D700030EE010A20EE800A1CE0DFF86414B1FBBB
:100D8000F2F100EE901AF8EE600ADFF864150968D7
:100D9000C905C90D01EE101AB8EE411ADFED4B1A64
:100DA00080EE210A31EE000AB7EE001A30EE010A99
:100DB00020EE800A58E0DFF82C14B1FBF2F100EECF
:100DC000901AF8EE600ADFF828150968C905C90D00
:100DD00001EE101AB8EE411ADFED3C1A80EE210A3E
:100DE00031EE000AB7EE001A30EE010A20EE800A5A
:100DF0003AE0DFF8F413B1FBF2F100EE901AF8EEEE
:100E0000600ADFF8EC140968C905C90D01EE101A73
:100E1000B8EE411ADFED2D1A80EE210A31EE000AFC
:100E2000B7EE001A30EE010A20EE800A1CE0DFF86F
:100E3000B413B1FBF2F100EE901AF8EE600ADFF89D
:100E4000B0140968C905C90D01EE101AB8EE411AAF
:100E5000DFED1E1A80EE210A31EE000AB7EE001A0D
:100E600030EE010A20EE800ADFF884140A68C2F32B
:100E70004622521C00EE902AF8EE600AC0EE200ACC
:100E8000FCEEE00AC0ED000A0A68C2F30642521CFA
:100E900000EE902AF8EE600AC0EE200AFCEEE00AAE
:100EA000C0ED010A0968C1F30661491C00EE901A01
:100EB000F8EE600A80EE200ABCEEC00A80ED020A5D
:100EC00010BC704754440258000000000000004667
:100ED00010B400210121002100219FED760A9FED31
:100EE000750ADFF804120B6813F003030968C1F3F5
:100EF0000552DFF8F8110C6814F48074DFF8F4136D
:100F00000968C1F3CC014C4300EE104AB8EE400A28
:100F1000002B03D0022B64D045D380E0DFF8CC3324
:100F20001968890621D5DFF8B8121B68C3F3C1031D
:100F3000D940B1FBF2F100EE901AF8EE600ADFF84A
:100F4000B8130968C905C90D01EE101AB8EE411AA7
:100F5000DFED591A80EE210A31EE000AB7EE001AD1
:100F600030EE010A20EE800A1CE0DFF87412B1FBBB
:100F7000F2F100EE901AF8EE600ADFF87C130968CF
:100F8000C905C90D01EE101AB8EE411ADFED4A1A73
:100F900080EE210A31EE000AB7EE001A30EE010AA7
:100FA00020EE800A58E0DFF83C12B1FBF2F100EECF
:100FB000901AF8EE600ADFF840130968C905C90DF8
:100FC00001EE101AB8EE411ADFED3B1A80EE210A4D
:100FD00031EE000AB7EE001A30EE010A20EE800A68
:100FE0003AE0DFF80412B1FBF2F100EE901AF8EEED
:100FF000600ADFF804130968C905C90D01EE101A6B
:10100000B8EE411ADFED2C1A80EE210A31EE000A0B
:10101000B7EE001A30EE010A20EE800A1CE0DFF87D
:10102000C411B1FBF2F100EE901AF8EE600ADFF89D
:10103000C8120968C905C90D01EE101AB8EE411AA7
:10104000DFED1D1A80EE210A31EE000AB7EE001A1C
:1010500030EE010A20EE800ADFF89C120A68C2F323
:101060004622521C00EE902AF8EE600AC0EE200ADA
:10107000FCEEE00AC0ED000A0A68C2F30642521C08
:1010800000EE902AF8EE600AC0EE200AFCEEE00ABC
:10109000C0ED010A0968C1F30661491C00EE901A0F
:1010A000F8EE600A80EE200ABCEEC00A80ED020A6B
:1010B00010BC7047000000000000004610B500F0B2
:1010C00021FADFF818120968DFF83022DFF8103251
:1010D00011F470615FF40004B4FA84F4E140595CE7
:1010E000C8401060106810BD284402582C440258B3
:1010F0002DE9F84307000C000025DFF80482D8F83A
:10110000000010F00300032801D1012065E0774EB4
:10111000306830F08060306000F0F6F8814630686A
:10112000000107D500F0F0F8B0EB09000328F6D372
:10113000032052E0D8F8000030F47C30396850EADF
:101140000130C8F800007868401EC005C00DB968BD
:10115000491E490211F47E410843F968491E0904F9
:1011600011F4FE0108433969491E090611F0FE41D8
:1011700008435F49086063490A6832F0C002786931
:1011800002430A600A6832F02002B86902430A602A
:10119000002C04D1086850F4002008600AE0012CFB
:1011A00004D1086850F48010086003E0086850F427
:1011B00000100860306850F08060306000F0A4F8E3
:1011C00004003068000106D400F09EF8001B0328DC
:1011D000F7D3032001E02800C0B2BDE8F28300008D
:1011E0000090D00300093D0040787D012DE9F843CF
:1011F00007000C000025DFF80881D8F8000010F087
:101200000300032801D1012065E0384E306830F03A
:101210008050306000F078F881463068800007D553
:1012200000F072F8B0EB09000328F6D3032052E077
:10123000D8F8000030F07C70396850EA0150C8F8E6
:1012400000007868401EC005C00DB968491E4902FB
:1012500011F47E410843F968491E090411F4FE01A6
:1012600008433969491E090611F0FE410843224925
:10127000086024490A6832F44062786902430A60CF
:101280000A6832F40072B86902430A60002C04D183
:10129000086850F4800008600AE0012C04D1086856
:1012A00050F40000086003E0086850F080700860A7
:1012B000306850F08050306000F026F8040030684C
:1012C000800006D400F020F8001B0328F7D3032089
:1012D00001E02800C0B2BDE8F283000018440258C3
:1012E000DC5C0008204402583C4402580044025888
:1012F0003844025844440258404402580400002034
:10130000284402582C44025801480068704700BF26
:10131000341200202DE9F04104000D000020DFF818
:101320005C64306810F00700A8420BD23068C00837
:10133000C00028433060306810F00700A84201D098
:101340000120DDE02078800707D5DFF814140A6853
:1013500012091201E06802430A602078C0077BD5B9
:10136000DFF8FC130A6832F47062A06802430A6076
:101370006068022806D1DFF8E003006880031CD40F
:101380000120BDE06068032806D1DFF8CC030068C7
:10139000800112D40120B3E06068012806D1DFF893
:1013A000B8030068C00508D40120A9E0DFF8A8034D
:1013B0000068400701D40120A2E0DFF8A07339687B
:1013C000C908C900606801433960FFF79DFF804686
:1013D000606802280ED1386810F0380010283BD021
:1013E000FFF792FFB0EB080041F289318842F2D357
:1013F000032085E0606803280ED1386810F03800BB
:10140000182829D0FFF780FFB0EB080041F289319E
:101410008842F2D3032073E0606801280ED1386857
:1014200010F03800082817D0FFF76EFFB0EB080067
:1014300041F289318842F2D3032061E0386810F02C
:10144000380F09D0FFF760FFB0EB080041F2893197
:101450008842F3D3032053E0306810F00700854240
:101460000BD23068C008C00028433060306810F0EC
:101470000700A84201D0012042E02078400707D5AC
:10148000DFF8DC120A6832F07002206902430A6059
:101490002078000707D5DFF8CC120A6832F0700216
:1014A000606902430A602078C00607D5DFF8B412ED
:1014B0000A6832F4E062A06902430A60207880067C
:1014C00007D5DFF8A4120A6832F07002E06902431F
:1014D0000A6000F017F8DFF888120968DFF8A02228
:1014E00011F470615FF40003B3FA83F3D940515CE7
:1014F000C840DFF8901208600F2000F003FC0020C5
:10150000BDE8F081012000200120002000209FED97
:10151000900A9FED8F0A0020DFF84002006810F06B
:101520003800002806D0082813D0102814D0182816
:1015300015D0D8E0DFF820120868800606D5DFF85D
:1015400048020968C1F3C101C84001E0DFF8380270
:10155000CAE0DFF83802C7E0DFF83402C4E0DFF8A1
:101560000C02026812F003020068C0F30511DFF8F4
:101570000002036813F00103DFF8FC010068C0F308
:10158000CC00434300EE103AB8EE400A002A03D0E4
:10159000022A61D044D37BE0DFF8BC2110688006CA
:1015A00021D5DFF8E4011268C2F3C102D040B0FBDC
:1015B000F1F000EE900AF8EE600ADFF8B80100687A
:1015C000C005C00D01EE100AB8EE411ADFED611A38
:1015D00080EE210A31EE000AB7EE001A30EE010A61
:1015E00060EE800A1BE0DFF8A001B0FBF1F000EE36
:1015F000900AF8EE600A5F480068C005C00D01EE71
:10160000100AB8EE411ADFED531A80EE210A31EECE
:10161000000AB7EE001A30EE010A60EE800A52E0CE
:101620005A48B0FBF1F000EE900AF8EE600A51481B
:101630000068C005C00D01EE100AB8EE411ADFEDDA
:10164000451A80EE210A31EE000AB7EE001A30EE9C
:10165000010A60EE800A36E04D48B0FBF1F000EE82
:10166000900AF8EE600A43480068C005C00D01EE1C
:10167000100AB8EE411ADFED371A80EE210A31EE7A
:10168000000AB7EE001A30EE010A60EE800A1AE096
:101690003E48B0FBF1F000EE900AF8EE600A3548E3
:1016A0000068C005C00D01EE100AB8EE411ADFED6A
:1016B000291A80EE210A31EE000AB7EE001A30EE48
:1016C000010A60EE800A2B480068C0F34620401CE7
:1016D00000EE100AB8EE400A80EE800ABCEEC00AA6
:1016E00010EE100A00E02948704710B5FFF7E6FC3D
:1016F0001B490968274A224B11F00F015FF0004493
:10170000B4FA84F4E140595CC8401060106810BD20
:1017100080B5FFF7EAFF13490968194A11F0700113
:101720005FF00063B3FA83F3D940515CC84002BD57
:1017300080B5FFF7DAFF0B490968114A11F4E0613F
:101740005FF40003B3FA83F3D940515CC84002BD93
:1017500000000000000000460044025810440258F7
:10176000184402581C440258204402582844025885
:101770002C4402583044025834440258002000528D
:10178000DC5C0008040000200090D00300093D004C
:1017900040787D010800002070B50400002020780A
:1017A000C00773D5DFF82C05016811F03801102946
:1017B0000BD0006810F03800182810D1DFF8180599
:1017C000006810F00300022809D1DFF81005006856
:1017D00080035BD56068002858D1012079E26068F9
:1017E000B0F5803F06D1DFF8F404016851F4803190
:1017F000016026E0606800280AD1DFF8E004016893
:1018000031F480310160016831F48021016018E019
:101810006068B0F5A02F0AD1DFF8C004016851F468
:1018200080210160016851F48031016009E0DFF836
:10183000AC04016831F480310160016831F4802129
:1018400001606068002810D0FFF75EFD0500DFF83A
:101850008C040068800319D4FFF756FD401B41F249
:1018600089318842F3D3032033E2FFF74DFD0500B1
:10187000DFF868040068800308D5FFF745FD401BCA
:1018800041F289318842F3D3032022E22078800795
:101890003BD5DFF84004016811F0380F0AD000682A
:1018A00010F03800182850D1DFF82C04006810F030
:1018B000030F4AD1DFF824542868400704D5E068B4
:1018C000002801D1012004E2296831F01901E06803
:1018D00001432960FFF718FD06002868400706D479
:1018E000FFF712FD801B0328F7D30320F1E1DFF897
:1018F000F00301685FF47C22B2FA82F231F47C31A9
:10190000236913FA02F2114301602078C00663D5FF
:10191000DFF8C003016811F0380108290BD0006816
:1019200010F0380018286FD1DFF8AC03006810F011
:101930000300012868D1DFF8A4030068C0053ED584
:10194000E06980283BD00120C3E1E068002823D073
:10195000DFF88863316831F01901E06801433160D4
:10196000FFF7D2FC05003068400706D4FFF7CCFC37
:10197000401B0328F7D30320ABE1DFF864030168C1
:101980005FF47C22B2FA82F231F47C31236913FADB
:1019900002F211430160B8E7DFF8406330684008A5
:1019A00040003060FFF7B0FC050030684007ACD560
:1019B000FFF7AAFC401B0328F7D3032089E1DFF8D7
:1019C000200301683E22B2FA82F231F0F841236A24
:1019D00013FA02F211430160207800075AD56069BA
:1019E000002845D0BF4E306850F001003060FFF74E
:1019F0008BFC0500306880074CD4FFF785FC401B4A
:101A00000328F7D3032064E1E06900281ED0B34E19
:101A1000306850F080003060FFF776FC05003068D9
:101A2000C00506D4FFF770FC401B0328F7D3032042
:101A30004FE1AB4801683E22B2FA82F231F0F84140
:101A4000236A13FA02F211430160C5E7A34E30681E
:101A500030F080003060FFF757FC05003068C005AB
:101A6000BAD5FFF751FC401B0328F7D3032030E120
:101A70009C4E3068400840003060FFF745FC050090
:101A80003068800706D5FFF73FFC401B0328F7D3DB
:101A900003201EE12078800626D5A069002811D0F9
:101AA0008E4E306850F480503060FFF72DFC0500FA
:101AB0003068800418D4FFF727FC401B0328F7D3B5
:101AC000032006E1854E306830F480503060FFF727
:101AD0001BFC05003068800406D5FFF715FC401B91
:101AE0000328F7D30320F4E02078400760D57E4E2A
:101AF000306850F480703060FFF706FC05003068F5
:101B0000C00506D4FFF700FC401B6528F7D303206F
:101B1000DFE0A068012805D17448016851F0010197
:101B2000016022E0A068002809D1704801684908D6
:101B300049000160016831F00401016015E0A0680E
:101B4000052809D16948016851F004010160016864
:101B500051F00101016008E064480168490849004A
:101B60000160016831F004010160A06800280FD015
:101B7000FFF7CAFB05005D480068800718D4FFF72F
:101B8000C3FB401B41F289318842F4D30320A0E01B
:101B9000FFF7BAFB050055480068800708D5FFF736
:101BA000B3FB401B41F289318842F4D3032090E01B
:101BB000606A002800F08C804648006810F0380009
:101BC000182800F08380606A02286DD1434D286890
:101BD00030F080702860FFF797FB060028688001CE
:101BE00006D5FFF791FB801B0328F7D3032070E095
:101BF00039490A683E480240A06A0243E06A52EA54
:101C000000120A60206B401EC005C00D616B491EAA
:101C1000490211F47E410843A16B491E090411F4E5
:101C2000FE010843E16B491E090611F0FE4108431D
:101C30003049086030480168304AB2FA82F26FF3E6
:101C4000CF01A36C13FA02F2114301602C490A6818
:101C500032F00C02206C02430A600A6832F0020281
:101C6000606C02430A60086850F4803008600868BD
:101C700050F400300860086850F48020086008685C
:101C800050F001000860286850F080702860FFF76D
:101C90003BFB0400286880011AD4FFF735FB001BCA
:101CA0000328F7D3032014E00C4D286830F080702F
:101CB0002860FFF729FB04002868800108D5FFF79A
:101CC00023FB001B0328F7D3032002E0012000E0E0
:101CD000002070BD104402582844025800440258A5
:101CE0000444025874440258004802587044025890
:101CF0000CFCFFFF30440258344402580000FF1F20
:101D00002C44025810B504004FF47A700D4909783C
:101D1000B0FBF1F00C490968B1FBF0F000F098F865
:101D2000002801D001200CE0102C09D20022210053
:101D30005FF0FF3000F077F804480460002000E016
:101D4000012010BD8C0000200400002000000020B5
:101D500010F00700634B1A684FF6FF010A40624912
:101D600051EA00210A431A6070475E480068C0F3D8
:101D700002207047010009B2002908D4012210F0A6
:101D80001F018A40594900B2400941F8202070479C
:101D9000020012B2002A04D40901554A00B21154BB
:101DA00007E00901534A00B210F00F00104400F898
:101DB000041C704710B410F00700D0F10703052B86
:101DC00001D3042301E0D0F10703041D072C01D245
:101DD000002000E0C01E012414FA03F35B1E19402A
:101DE000814014FA00F0401E1040084310BC7047B8
:101DF00080B5411EB1F1807F01D301200EE0401E6D
:101E00003D4908600F215FF0FF30FFF7C1FF002060
:101E10003A49086007203A490860002002BD80B5B1
:101E2000FFF796FF01BD70B504000D001600FFF727
:101E30009CFF32002900FFF7BDFF0100200000B227
:101E4000FFF7A6FF70BD80B500B2FFF793FF01BD9D
:101E500080B5FFF7CDFF02BDBFF35F8F2948016852
:101E600031F480310160002027490860704750F04C
:101E70000100254908602348016851F48031016060
:101E8000BFF34F8FBFF36F8F704741781F4A1160C8
:101E9000017800291ED041681D4A1160017BC27A79
:101EA000120652EA0172817A52EAC142417B52EA39
:101EB0008142817B52EA4142C17B52EA0142417A2E
:101EC00052EA0122017A52EA4102007802431148A3
:101ED000026005E000200E49086000200D490860FE
:101EE000704700000CED00E00000FA0500E100E0A2
:101EF00000E400E018ED00E014E000E018E000E08D
:101F000010E000E024ED00E094ED00E098ED00E04A
:101F10009CED00E0A0ED00E02DE9F0439FB000BF94
:101F200065A6269CDFF8E88A8DF83B4002910024E4
:101F30000B944FF0FF37044691461D460AE019F80E
:101F4000011B0298A0470028029000F0A1800B9886
:101F5000401C0B9099F8000050B12528EFD10021CA
:101F60000022059106920791089209910A9203E0D6
:101F70000B98A5E041F0010119F8010F2028F9D0D4
:101F800023280CD02B2804D02D2805D0302809D0A8
:101F900080E041F00201EFE741F00401ECE741F09D
:101FA0000801E9E741F01001E6E70D920AE00D981B
:101FB000404505DA00EB800002EB4002303A0D921A
:101FC00009F1010999F80020A2F130000A28EED3A6
:101FD00099F800002E2818BF0C9726D119F8010F88
:101FE0002A2808D12868286009F1010950F8042B33
:101FF00028600C9219E02D280CBF09F1010900207E
:1020000000220C920BE040B90C9A424505DA02EB33
:10201000820203EB4203303B0C9309F1010999F86A
:102020000030A3F130020A2AEDD3ADF83810304663
:1020300099F8001000F0A0FE08B119F8010B8DF816
:102040003A009DF83A00682805D199F80000682800
:102050000CD1622106E06C2804BF99F800006C28BE
:1020600004D171218DF83A1009F1010910A80490EA
:102070002A4619F8013B6946204600F061F838B954
:1020800010AA6946204600F091F900287FF562AF5A
:10209000384615E02A2888D12A682A6052F8040BAD
:1020A0002A6000280D9003D540420D9041F00401B4
:1020B00009F101098CE70000686A6C747A4C000031
:1020C0001FB0BDE8F083622820D0682811D06A28AC
:1020D00003D06C2827D0712825D10868C01D20F0B6
:1020E00007000860D0E90023083008601946104650
:1020F0007047002A0A680A60106803D0121D0A603F
:1021000000B217E0121D0A6080B217E0002A0A68C8
:102110000A60106803D0121D0A6040B20AE0121D66
:102120000A60C0B20AE0002A0A680A60106803D098
:10213000121D0A60C1177047121D0A600021704706
:1021400070B51C460D46B4F125002E69114600F00D
:102150001B811C386AD0001F022867D9133843D06E
:10216000093863D0801E16D0401E1ED0401E0228A3
:102170005CD9001F19D0401F00F08380401E33D06F
:10218000401E00F0CD80C01E00F0DC80801E2BD0F1
:10219000C01E29D0FEE06869421C6A610A680A60B4
:1021A00052F8043B0A603354FEE095F83A000122ED
:1021B000FFF789FFC5E900010023994204DA686945
:1021C000411C69612D220DE0288F810704D56869C3
:1021D000411C69612B2205E0C00722D56869411CBA
:1021E0006961202232541CE095F83A000022FFF782
:1021F0006AFFC5E9000195F83800010711D5D5E956
:1022000000230020834208BF82420AD044F020000D
:10221000782806D1686930213154401C421C6A611B
:102220003454214668693044E86087E00868C01D7E
:1022300020F007000860D0E9002308300860C5E9F5
:102240000023D5E90001C80F04D06869411C696109
:102250002D220DE0288F810704D56869411C696132
:102260002B2205E0C00704D56869411C6961202262
:10227000325468693044E8602146284600F0C8F9C5
:1022800092E005F13A02507820B14FF0FF340FF69A
:10229000502062E01078622808D0682824D06A288C
:1022A00012D06C282ED071280ED02BE00A680A605C
:1022B00052F8040B0A6020B94FF0FF340FF63820B3
:1022C0004BE0E96A01706FE00A680A6052F8040B9B
:1022D0000A6020B94FF0FF340FF61C203DE0EA6A97
:1022E000D317C0E900235FE00A680A6052F8040BC4
:1022F0000A6020B94FF0FF340FF6FC102DE0E96AB8
:10230000018051E00A680A6052F8040B0A6020B9A3
:102310004FF0FF340FF6E0101FE0E96A016043E080
:102320000A680A6052F8040B0A60002120F00002DB
:1023300021F0FF33C5E90023EE607821284600F044
:10234000BBF831E00868086050F8044B0860EC60A6
:102350003CB94FF0FF340FF6B81000F01FFD201A03
:1023600070BD2E6B002E04D5204600F037FD0446CC
:1023700008E032460021204600F04CFD002814BF42
:10238000041B3446AC610FE06869411C6961252279
:10239000325409E06969481C6861252272542100A1
:1023A00002D0431C6B613454002070BD2DE9FC4108
:1023B0000F46064690467A6B7869396ABC6A121AEB
:1023C000B869521A796A121AF869521A121A97F8E9
:1023D0003800141B41070FD42020002C8DF800007A
:1023E0000ADD254601236A463946304600F060FC86
:1023F00000285DD16D1EF5D17B69424639463046D5
:1024000000F056FC002853D130208DF800003D6AC2
:10241000002D09DD01236A463946304600F048FCAC
:10242000002845D16D1EF5D1BB69FA6839463046A2
:1024300000F03EFC00283BD130208DF800007D6A82
:10244000002D08DD01236A463946304600F030FC95
:1024500070BB6D1EF6D1F868B969FB694218394640
:10246000304600F025FC18BB30208DF80000BD6A16
:10247000002D08DD01236A463946304600F018FC7D
:10248000B0B96D1EF6D197F8380041070DD5202060
:10249000002C8DF8000008DD01236A4639463046DD
:1024A00000F006FC20B9641EF6D10020BDE8F681DC
:1024B0004FF0FF30BDE8F6812DE9FC4707468C461A
:1024C0003E69BCF16F0F08BF082405D04CF0200016
:1024D000782814BF0A2410243C25D7E90023BCF136
:1024E000640F18BFBCF1690F9046994606D10021D0
:1024F0008B4203DAD8F1000869EB49094FF0000A72
:10250000D14508BFD0451FD1386BE8B9082C4BD155
:1025100097F83800010747D530203B2586F83B0067
:1025200042E000280ED597F8380000F0140010287B
:1025300008D17B6B7969386A5B1A1B1A9A1A002AD0
:10254000C8BF3A62BDE8F3878DF800C040464946EF
:102550002246E31700F08AFC3032D0B26D1E3A28D2
:10256000019504DB9DF80000A0F151018A18725515
:10257000404649462246E31700F078FC89468046EB
:10258000D14508BFD04503D0F86871198842DDD322
:10259000082C09D197F83800010705D5705D30285F
:1025A00002D06D1E30207055C5F13C02BA61711920
:1025B000F960386B8242B4DA821A3A624FF6EF70F1
:1025C000398F01403987BDE8F3872DE9D0430646AE
:1025D0000F4614464FF00008DFF8389412E0E00789
:1025E00007D542464B463046394600F057FD064671
:1025F0000F464046494642464B4600F04FFD6410A8
:1026000080468946002CEAD130463946BDE8D08361
:102610002DE9F34F054641F020048DB0D5E900893E
:10262000612C02AE09D0286B002848BF062003D4D5
:1026300008BF672C01D101202863D5E90023580089
:102640004015401C0ED119030CD00320A8619DF841
:10265000381061391A2902D20FF2D06111E00FF25D
:10266000D0610EE059004915491C0FD118030DD156
:102670000320A8619DF8381061391A2914D30FF28C
:10268000B861E868032200F013FDD3E1194621F098
:102690000043B3F5801F10460DD20027BB4208BF90
:1026A000BA42019703D111E00FF28861E9E701AA6C
:1026B00000F052FD0AE0DFF8607307EB1352DFF819
:1026C0005C3301921940DFF858331943C5E9000122
:1026D000612C0ED1E86830210170821CEA609DF8FF
:1026E000381061290CBF7821582141706869801C1D
:1026F0006861D5E900AB2BF0004300202AF000020E
:10270000834204BF8242002300F05B81612C40F0D1
:10271000AA80286B002847BF21210091401C00900F
:10272000009F7F1C404649460022002300F04CFDDC
:10273000D94601998DF8082038BF89F00049091F52
:10274000002FD04601910DF1090040F34981B349B2
:10275000DFF8D0B20C9106464046494600220023DD
:1027600000F04AFD80F03B814800400D00F11C0262
:1027700011D0002A0FDD40F2FF70824205DB09F024
:10278000004040EA0B01002013E00C98014041EAB0
:10279000025140460DE029F00043002028F00002DD
:1027A000834208BF82420FBF40461C22404600F0D1
:1027B0003BFD8046894600F0B9FDFF1F002F04460F
:1027C00009DD00F0BAFD02460B464046494600F0DE
:1027D000BBFD80468946F01D072104E004F00F028E
:1027E00000F8012D2411002C01DD491EF6D5491EEB
:1027F0005CBF002200F8012DF9D5ECE0002019465D
:1028000002AA0A4400E05B1E12F80149491E8442F4
:10281000F9D00F2804D10DF10900425C521C42543A
:10282000002904D50198001D02AE5B1C0190591EC1
:1028300012D49DF838007218A0F13A07147804F108
:1028400030085FFA88F43A2CA8BFB844491E02F851
:102850000189F3D58DF83800286B002840F1B0804D
:10286000591E2963ACE0404649460022002300F08F
:10287000ABFC019938BF89F0004947F297504143BA
:10288000694A91FBF2F20192D2F1070204DD40465F
:102890004946FFF79AFE0AE0524200206349FFF7DB
:1028A00094FE02460B464046494600F056FD8046DF
:1028B000662C286BDFF878B106BF019F0A37062720
:1028C0003F18142FC8BF142730208DF80800894600
:1028D0000DF1090000E03046002F34DD0646404689
:1028E000494600F043FD01460A4606F1080304206C
:1028F0000A26B2FBF6F606EB860EA2EB4E0230324B
:1029000003F8012C0A22B6FBF2F202EB820EA6EBD0
:102910004E063036401E03F8026DE9D1083F002F05
:1029200003F10806D7DD084600F027FD02460B46F6
:102930004046494600F008FD00225B4600F0AEFB31
:1029400080468946CBE70DF10901401A0DF10906D1
:1029500004E00199491E401E0191761C317830290E
:10296000F7D0662C02D10199491C03E0652C0CBFFD
:10297000012100212B6BCB189842B8BF431E002BBE
:102980001ED4834204DAF05C3528A8BF392000DA6F
:1029900030201946721E02EB010800E05B1E18F899
:1029A0000199491E8145F9D0392802D1705C401C3B
:1029B0007054002904D50198401C16465B1C0190F8
:1029C000019800B200901BB29DF83810324628469C
:1029D00000F034F82EE0C61D002F3FF7BDAE3046A4
:1029E0000DF10901401A009903468842C8BF0B4601
:1029F000002B0DF109063FF52FAF8342BFF6FEAE67
:102A00000DF10900C15C07297FF7F8AE0F20F6E64B
:102A1000CBCCCC0C0000244002FCFFFFFFFF0F805A
:102A20000000E03F0000F07FA08601000000F03FC2
:102A300084D797410FB0BDE8F08F00002DE9F8472B
:102A400083B006468A461746984600F09DFCB8F1CA
:102A5000000F406A356B90F8009002DC4FF00108DF
:102A6000B6A74AF02000BDF93040662808BF641CB4
:102A700015D0672840F0848014F1040FC0F28680DE
:102A8000AC4280F2838096F83800641C010702D4BF
:102A9000A845B8BF454620B22D1A48BF00250FFAF9
:102AA00084FAF068B169BAF1000F25DC4A1C3023C2
:102AB0004354002D03DC96F83800010703D5F06875
:102AC00000F80290521C15EB0A0FB8BF6C4220B2FE
:102AD000441941424445B8BFA046B26171620FFA41
:102AE00088F5F561F068B3692A463946184400F064
:102AF000DFFA641BB462C4E022B29045084417DADE
:102B00004246394600F0D4FAB0694044B061AAEBBD
:102B10000801002D716203DC96F838100A0705D50C
:102B2000F16801F80090F069401CF061B562A8E01E
:102B3000394600F0BDFAB069002D5044A8EB0408F6
:102B400003DC96F838100A0703D5F16801F8009005
:102B5000401CB0610FFA88F08542F368B069B8BFD5
:102B6000A8460FFA88F207EB0A01184400F0A0FA11
:102B7000B1690FFA88F00144B161281A706280E0EF
:102B8000BAF1610F14D14FF0700A16E0A84504DACB
:102B900096F838100A0758BF45466D1E48BF0025F5
:102BA000BAF1670F14BF4FF0450A4FF0650A04E011
:102BB000BAF1410F08BF4FF0500AB169F368481CE1
:102BC000B061002D17F8012B5A5403DC96F8381029
:102BD0000A071BD5F168431CB36101F80090002D72
:102BE00014DDA8F101080FFA88F039468542F7682C
:102BF000B8BFA8460FFA88F2F81800F059FAB06981
:102C00000FFA88F108446D1AB0617562F068B16915
:102C10000844002C80F800A003D42B224270811CB1
:102C200003E02D2141706442811C00206A460AE0C5
:102C300023460A2493FBF4F404EB8405A3EB450339
:102C400002F8013B401C24B2002CF1DC012806DC18
:102C50004AF02002652A04BF302201F8012B48B94E
:102C6000302001F8010B07E0401E1DF80030303322
:102C700001F8013B0028F7DCF268B0691044091A3A
:102C8000F16196F8380000F0140010280DD1726937
:102C9000B169706A8A18F1698218B06A8A18821854
:102CA000706B8242BCBF821A326204B0BDE8F0870A
:102CB000F8B505460E4617461C46002074B117F8B5
:102CC000011BB068A847B06030B1F06A401CF062E8
:102CD0000020641EF3D1F2BD4FF0FF30F2BD0000C2
:102CE0007072696E74665F733A20256E2064697332
:102CF000616C6C6F776564007072696E74663A20FF
:102D000062616420256E20617267756D656E740066
:102D10007072696E74665F733A2062616420257315
:102D200020617267756D656E740000006E616E00E3
:102D30004E414E00696E6600494E4600300030B488
:102D4000002513E050F8042BD30744BFA9F1010379
:102D50009A18091F042942F8045BFAD213468C071B
:102D600044BF15809B1CC90748BF1D7050F8041B49
:102D70000029E7D130BC70470278C9B28A421AB143
:102D80001CBF10F8012FF9E718BF002070477047EB
:102D9000FEE7FEE7FEE770477047704780B500B971
:102DA00006A005490B681BB122220021984701E0CB
:102DB00000F0EEFA222002BD38120020636F6E731D
:102DC000747261696E742068616E646C65723A2019
:102DD000626164206D6573736167650000F10103D2
:102DE000810704D010F8011B820781B1FAD1026873
:102DF000A2F10131914311F0803104BF50F8042F4A
:102E0000F6E709BAB1FA81F100EBD100401CC01A13
:102E100070470000C9B2830706D0521E22D310F8B3
:102E2000013B9942F7D11FE0083A13D302F10402A3
:102E300041EA012141EA014150F8043B121F21BF40
:102E40004B40A3F1013C2CEA030C1CF0803FF3D073
:102E5000C9B2001F083210F8013B521E28BF91EA88
:102E6000030FF8D818BF0120401E7047BBBBE1B16B
:102E7000B2F5803F80F07E80022A1ED98C46B1FBDD
:102E8000F2F102FB11C31B0443EA1043B3FBF2FC53
:102E900002FB1C3380B240EA0343B3FBF2F002FBB7
:102EA000103240EA0C4000237047022A05D98446BC
:102EB000B0FBF2F002FB10C270474AB105D100F03E
:102EC000010249085FEA3000704700220023704782
:102ED00000F062BA0B00020000210020704790420F
:102EE00071EB030CF6D3B3F5803F2FD2F0B5B3FAF4
:102EF00083F7B1FA81F4A7F10F0E3D1B5340CEF1D9
:102F0000200602FA0EF2F3415340B5F10F0746D8FE
:102F10000F3C2C444140C4F12006A040F141414007
:102F2000B1FBF3F603FB1611A2FB0645001BA941FA
:102F300002D2761E8018594180EA010221FA0EF36E
:102F400062FA0EF200215A403046F0BD30B4B1FBB7
:102F5000F3FC03FB1C11A2FB0C45001BA94103D28F
:102F6000ACF1010C8018594130BC02460B4660465A
:102F700000217047B2F1807F65D3F0B5B2FA82F7D5
:102F8000B1FA81F4C7F10F063D1B22FA06F307F1EF
:102F9000110EF24120355A40B5F10F07B8D9414022
:102FA000C4F12006A040F1414140B1FBF3FC03FB1A
:102FB0001C11A2FB0C45001BA94103D2BCF1010C62
:102FC000801859410F2F12D30F3FC90341EA5041D6
:102FD000B1FBF3F603FB1611A2FB0645D4EBC030A0
:102FE000A94102D2761E8018594146EACC3C07B36B
:102FF0004140C7F12006B840F1414140B1FBF3F632
:1030000003FB1611A2FB0645001BA94102D2761E46
:103010008018594180EA010221FA0EF3C7F1200419
:1030200062FA0EF20CFA07F05A402CFA04F130431F
:10303000F0BD80EA010221FA0EF3002162FA0EF2DD
:1030400060465A40F0BD8C46B1FBF2F102FB11C361
:103050001B0243EA1063B3FBF2FC02FB1C331B02AE
:103060004CEA002043EA1063B3FBF2FC02FB1C3382
:103070001B024CEA002043EA1063B3FBF2FC02FBA4
:103080001C331B024CEA002043EA1063B3FBF2FC42
:1030900002FB1C324CEA00200023704741EC100B6D
:1030A00043EC112B20EE010B51EC100B704700008C
:1030B00062B38B0708D0521E11F8013B00F8013BA8
:1030C00000F024808B07F6D1830740F0208000BFFA
:1030D000103A07D330B4B1E83810103AA0E83810ED
:1030E000F9D230BC530724BFB1E80810A0E808109B
:1030F00044BF51F8043B40F8043BD20724BF31F8E9
:10310000022B20F8022B44BF0B7803707047121F6C
:1031100017D35B0009D151F8043B20F8023B1B0C8C
:10312000121F20F8023BF6D20BE051F8043B00F8E6
:10313000013B1B0A20F8023B1B0C121F00F8013B4D
:10314000F3D238BF121D521E24BF11F8013B00F804
:10315000013BF8D87047000010B5144600F002F8A3
:10316000226010BDC1F30A5343B14A0012F5001F9B
:1031700028D2A3F2FE32A1EB0251704750EA410C73
:1031800020D001F0004C31EA0C01B1FA81F204BF09
:10319000B0FA80F3D2180B3AB2F120032CBF00FA38
:1031A00003F1914041EA0C013EBFC2F1200C20FA2C
:1031B0000CF319439040524240F2FD33D21A01EB16
:1031C00003517047002270474FF4001C1CEB410F65
:1031D00094BF1CEB430F09E041EA030C50EA4C0C8E
:1031E00052EA0C0C03D2994208BF9042704714BFB8
:1031F0008B428242704700004FF4001C1CEB410FD1
:1032000094BF1CEB430F09E041EA030C50EA4C0C5D
:1032100052EA0C0C03D28B4208BF8242704714BFA3
:10322000994290427047000041EC100B104600B5E7
:1032300000F004F851EC100B00BD0000020030EE6D
:10324000101B40F2FF7C37D41CEA115313D06345A6
:103250006BD09B18634504D201EB025120EE101B8A
:10326000704701F0004141EA0C51002041EC100B85
:10327000AFF30080704710EE100B50EA410054D0BD
:10328000B2F57F7F08D202EB5C010905002041EC1A
:10329000110B20EE010B70474FF0FE41002341EC73
:1032A000113B20EE010BB2F57E7230EE101B4FEA9F
:1032B000410342EB5353CDE752421CEA115316D05F
:1032C000634532D09A4204D2A1EB025120EE101B8A
:1032D00070475B1ED21AA1EB035120EE101B372A58
:1032E0000CD3002001F0004141EC100BC0E710EEC0
:1032F000100B50EA410018D0372AF2D2C2EB5C0220
:103300001105002041EC110BF1EE100A20F01F0115
:1033100021F4F851E1EE101A20EE010BF1EE101A33
:10332000E1EE100A11F0080FA2D1704741EC100B2A
:10333000BDEEC00B10EE100A704700EE100AB8EE9A
:10334000C00B51EC100B704741EC100B43EC112BF0
:1033500030EE410B51EC100B704741EC100B43EC7D
:10336000112B80EE010B51EC100B704741EC100B50
:10337000BCEEC00B10EE100A704700EE100AB8EE5B
:10338000400B51EC100B7047004870470C000020B8
:10339000012000F003B800007047000080B5AFF3D3
:1033A0000080024A11001820ABBEFBE72600020095
:1033B00010B50400002C01D1012037E0A0690028DD
:1033C000FFD194F87900002805D1002084F8780016
:1033D000200000F0F6FC242084F8790020680068C2
:1033E0004008400021680860200000F020F8012813
:1033F00001D101201AE0606B002802D0200000F00B
:1034000005FC2068406830F49040216848602068DE
:10341000806830F02A00216888602068006850F0D9
:10342000010021680860200000F05DFC10BDF8B5C7
:1034300086B0050000208026002000210024DFF84F
:10344000842728689042FFD0A86AB0F1005FAB687B
:103450002869034368690343E8690343A86A03438F
:1034600028680768DFF8600707403B432868036067
:103470002868436833F44053E8680343286843608E
:10348000AB692868904201D0286A0343A86AB0F16A
:10349000005F03D1EF6A286B07433B4328688768C6
:1034A000DFF8280707403B43286883602868C36A21
:1034B0001B091B01686A03432868C3622868DFF898
:1034C000103798421DD1DFF80C07006810F0380063
:1034D00000280AD008280AD010280AD018280AD0B4
:1034E00020280AD028280AD012E1012610E104265B
:1034F0000EE140260CE108260AE1102608E120260C
:1035000006E12868DFF8D03698421BD1DFF8C40600
:10351000006810F00700002808D002280AD007D35E
:1035200004280BD008D305280AD0F1E00026EFE0EC
:103530000426EDE04026EBE00826E9E01026E7E06F
:103540002026E5E02868DFF8943698421BD1DFF8A2
:103550008406006810F00700002808D002280AD06E
:1035600007D304280BD008D305280AD0D0E00026C2
:10357000CEE00426CCE04026CAE00826C8E01026AB
:10358000C6E02026C4E02868DFF8543698421BD1F4
:10359000DFF84006006810F00700002808D0022875
:1035A0000AD007D304280BD008D305280AD0AFE0EF
:1035B0000026ADE00426ABE04026A9E00826A7E0FF
:1035C0001026A5E02026A3E02868DFF818369842E8
:1035D0001BD1DFF80006006810F00700002808D0B3
:1035E00002280AD007D304280BD008D305280AD014
:1035F0008EE000268CE004268AE0402688E008263B
:1036000086E0102684E0202682E02868DFF8D8359E
:1036100098421DD1DFF8BC05006810F03800002882
:103620000AD008280AD010280AD018280AD0202842
:103630000AD028280AD06BE0012669E0042667E05A
:10364000402665E0082663E0102661E020265FE062
:103650002868DFF8983598421BD1DFF878050068B4
:1036600010F00700002808D002280AD007D3042849
:103670000BD008D305280AD04AE0002648E00426EB
:1036800046E0402644E0082642E0102640E020269E
:103690003EE02868DFF8583598421BD1DFF8340542
:1036A000006810F00700002808D002280AD007D3CD
:1036B00004280BD008D305280AD029E0002627E0EB
:1036C000042625E0402623E0082621E010261FE0FE
:1036D00020261DE0286890421AD1DFF818050068FE
:1036E00010F00700002808D002280AD007D30428C9
:1036F0000BD008D305280AD00AE0022608E00426E9
:1037000006E0402604E0082602E0102600E020261D
:103710002868904240F0FD8000203100C9B20229A3
:103720000AD004290BD0082913D0102920D0202931
:1037300021D0402908D021E0FDF7B8FA1FE003A806
:10374000FDF7CEFA04981AE06846FDF7C1FB019830
:1037500015E0DFF8A4140868800606D5DFF89C049D
:103760000968C1F3C101C84001E0DFF8900406E038
:10377000DFF88C0403E04FF4004000E0012400284F
:1037800000F01B826A6803214A43904205D36A68AD
:103790004FF480514A43824201D201240DE2F6B235
:1037A000022E0BD0042E1ED0082E4AD0102E7BD015
:1037B000202E00F08E80402E2CD09FE0FDF776FA70
:1037C000DFF840146A6A31F81210B0FBF1F24FF4DE
:1037D0008073686840080021E3FB02016A680023E7
:1037E000FFF744FB8BE003A8FDF77AFA0498DFF8B3
:1037F00014146A6A31F81210B0FBF1F24FF48073BE
:10380000686840080021E3FB02016A680023FFF7B3
:103810002DFB74E06846FDF75BFB0198DFF8E413CD
:103820006A6A31F81210B0FBF1F24FF480736868E5
:1038300040080021E3FB02016A680023FFF716FB42
:103840005DE0DFF8B4030168890618D5DFF8AC1332
:103850000068C0F3C100C140DFF8A8036A6A30F80D
:103860001200B1FBF0F24FF4807368684008002149
:10387000E3FB02016A680023FFF7F8FA13E0DFF8C0
:103880007C03DFF880136A6A31F81210B0FBF1F2A2
:103890004FF48073686840080021E3FB02016A6806
:1038A0000023FFF7E3FA2AE0DFF85403DFF85413AC
:1038B0006A6A31F81210B0FBF1F24FF48073686855
:1038C00040080021E3FB02016A680023FFF7CEFAFB
:1038D00015E04FF40040CB496A6A31F81210B0FB92
:1038E000F1F292B24FF48073686840080021E3FB64
:1038F00002016A680023FFF7B9FA00E00124B0F57D
:103900004071C14A914202D22968C86055E1012440
:1039100053E1E869B0F5004F40F0A480F6B2002E04
:103920000CD0012E1AD0042E28D0082E4AD0102EEA
:103930006ED0202E7BD0402E32D088E0FDF7E8FEFE
:10394000B0496A6A31F81210B0FBF1F069684908B1
:1039500011EB40016868B1FBF0F179E0FDF7E8FE9A
:10396000A8496A6A31F81210B0FBF1F06968490899
:1039700011EB40016868B1FBF0F169E003A8FDF7C5
:10398000AFF904989F496A6A31F81210B0FBF1F060
:103990006968490811EB40016868B1FBF0F157E034
:1039A0006846FDF795FA019896496A6A31F812104F
:1039B000B0FBF1F06968490811EB40016868B1FBA0
:1039C000F0F145E08C480168890612D58B49006802
:1039D000C0F3C100C1408B486A6A30F81200B1FBE5
:1039E000F0F06968490811EB40016868B1FBF0F13B
:1039F0000DE0824883496A6A31F81210B0FBF1F099
:103A00006968490811EB40016868B1FBF0F11FE0FB
:103A10007B487C496A6A31F81210B0FBF1F06968A2
:103A2000490811EB40016868B1FBF0F110E04FF478
:103A3000004074496A6A31F81210B0FBF1F069680D
:103A4000490811EB40016868B1FBF0F100E0012486
:103A50004FF6F0720A40C1F34200024392B2286866
:103A6000C260AAE0F6B2002E0DD0012E1DD0042EA9
:103A70002DD0082E53D0102E7BD0202E00F08A801F
:103A8000402E38D098E0FDF743FE5E496A6A31F86F
:103A90001210B0FBF1F0696810EB51006968B0FBDF
:103AA000F1F080B22968C86087E0FDF741FE554912
:103AB0006A6A31F81210B0FBF1F0696810EB51003E
:103AC0006968B0FBF1F080B22968C86075E003A8AE
:103AD000FDF706F904984B496A6A31F81210B0FBF9
:103AE000F1F0696810EB51006968B0FBF1F080B249
:103AF0002968C86061E06846FDF7EAF90198414924
:103B00006A6A31F81210B0FBF1F0696810EB5100ED
:103B10006968B0FBF1F080B22968C8604DE03648B2
:103B20000168890614D535490068C0F3C100C14059
:103B300034486A6A30F81200B1FBF0F0696810EBA3
:103B400051006968B0FBF1F080B22968C8600FE0ED
:103B50002A482C496A6A31F81210B0FBF1F0696802
:103B600010EB51006968B0FBF1F080B22968C860C1
:103B700023E0234823496A6A31F81210B0FBF1F0C0
:103B8000696810EB51006968B0FBF1F080B22968F8
:103B9000C86012E04FF400401A496A6A31F8121006
:103BA000B0FBF1F0696810EB51006968B0FBF1F00F
:103BB00080B22968C86000E001242000C0B207B0CC
:103BC000F0BD0000000C0058F369FFCFFFF4FF11B7
:103BD0000010014054440258004400400048004096
:103BE000004C0040005000400014014000780040AC
:103BF000007C004058440258004402580090D00312
:103C000000093D00285C000800FD0F0090F834100A
:103C1000C90707D501684A6832F40032816B0A434C
:103C200001684A6090F83410890707D501684A682E
:103C300032F48032C16B0A4301684A6090F8341054
:103C4000490707D501684A6832F48022016C0A43AB
:103C500001684A6090F83410090707D501684A687E
:103C600032F40042416C0A4301684A6090F8341013
:103C7000C90607D501688A6832F48052816C0A430C
:103C800001688A6090F83410890607D501688A684F
:103C900032F40052C16C0A4301688A6090F8341013
:103CA000490613D501684A6832F48012016D0A434F
:103CB00001684A60016DB1F5801F07D101684A684B
:103CC00032F4C002416D0A4301684A6090F8341032
:103CD000090607D501684A6832F40022816D0A435B
:103CE00000684260704738B5040000200020E0679B
:103CF000FDF70AFB05002068006800070DD57FF07E
:103D00007E4000902B0000225FF40011200000F0A4
:103D100021F8002801D003201BE02068006840073C
:103D20000DD57FF07E4000902B0000225FF48001D3
:103D3000200000F00FF8002801D0032009E0202027
:103D400084F87900202084F87A00002084F8780034
:103D5000002032BD2DE9F04105000E0090461F0005
:103D6000069C2868C0693040B04201D1012000E0C3
:103D700000204146C9B2884220D114F1010FF0D091
:103D8000002C04D0FDF7C0FAC01B8442E9D2286899
:103D9000006830F4D070296808602868806840089E
:103DA000400029688860202085F87900202085F867
:103DB0007A00002085F87800032000E00020BDE8AC
:103DC000F081704780B500F02CF800F09BF800F00F
:103DD00001F801BD80B586B0DFF83C04016851F000
:103DE00002010160006810F00200009000980120BC
:103DF000029000200390032004900420019001A968
:103E0000DFF8180400F030FA07B000BD0420DFF836
:103E10001014088070470420DFF8081408807047E9
:103E20007047DFF8E003DFF8E8130160DFF8F8130C
:103E30004160DFF8F81381604FF480618181C181B6
:103E400000220282002242820022C28200220283D9
:103E500000224283002282820022C261002202628A
:103E600000224262002280F82820DFF89C03DFF85D
:103E7000A4230260DFF8B8234260DFF8B823826031
:103E80008181C18100210182002141820021C18202
:103E9000002101830021418300218182DFF89813F2
:103EA000C161DFF898130162DFF8941341620021C9
:103EB00080F82810704780B5A0B0009001910020D4
:103EC00002900020039004920020069005930020A9
:103ED0000790002008900020099000200A90002000
:103EE0000B9000200C9000200D906846FFF760FAC0
:103EF000002805D040F22A31DFF8100300F0B4FBAF
:103F000021B000BD78B5B5B0012006900020249006
:103F100006A8FCF7C1F9DFF80043206850F0010063
:103F20002060206810F0010005900598206850F08E
:103F300001002060206810F0010005900598DFF86E
:103F40000403016851F010010160006810F01000D6
:103F5000059005984FF40070009002200190012018
:103F600002900320039007200490DFF8DC6269468A
:103F7000300000F079F94FF4806500950720049037
:103F80006946300000F070F9012200212520FDF77C
:103F90004AFF2520FDF757FFDFF874620C2300224B
:103FA0005FF4E1313000FFF786FFDFF8A00201681F
:103FB00051F040010160DFF89802018851F00801DA
:103FC0000180306850F020003060206850F002001E
:103FD0002060206810F0020005900598206850F0DD
:103FE00002002060206810F00200059005989948B2
:103FF000016851F480210160006810F48020059070
:104000000598009502200190012002900320039062
:1040100007200490814C6946200000F025F94FF4F8
:1040200000600090072004906946200000F01CF911
:10403000032200212720FDF7F6FE2720FDF703FFCE
:10404000744C0C2300224FF416512000FFF733FF6D
:104050008148016851F0400101608048018851F0B9
:1040600008010180206850F02000206036B070BD4B
:1040700070B504002068C5692068066820688068FB
:10408000A8061BD52068818CA068E28A8154E08A4A
:10409000401CE082E28980B2904201D30020E0829D
:1040A000608BE289904202D2608B401C6083606A20
:1040B000002803D00800C0B2616A8847280625D5C9
:1040C000300623D5A08A00280CD12068006830F083
:1040D0008000216808602068006850F04000216876
:1040E000086013E0012084F828006068618A405C61
:1040F00021680885608A401C6082A18980B288425C
:1041000001D300206082A08A401EA082680624D5C8
:10411000700622D5A08A00280ED12068006830F0F1
:10412000400021680860206A002801D0206A80478A
:10413000002084F8280010E06068618A405C2168F3
:104140000885608A401C6082A18980B2884201D3C0
:1041500000206082A08A401EA0822068006A50F081
:104160000100216808622068006A50F0020021689E
:1041700008622068006A50F0040021680862206824
:10418000006A50F00800216808622068006A50F058
:104190001000216808622068006A50F04000216821
:1041A00008622068006A50F4807021680862206804
:1041B000006A50F40070216808622068006A50F4B8
:1041C0000030216808622068006A50F4801021687D
:1041D00008622068006A50F020002168086270BD03
:1041E00080B50848FFF744FF01BD80B50648FFF7DA
:1041F0003FFF01BD1A4908801A4909684906FBD5E5
:1042000070470000B0110020DC1100201C5700088E
:104210000010014000480040E044025800040258E9
:10422000180402581A04025890000020900400203C
:1042300090080020900C00200D3E0008173E00085A
:10424000213E0008F04402580000025820100140AE
:1042500018100140E8440258204800401848004027
:10426000281001401C100140F8B500220022002255
:104270000022DFF81832002438E05FF00A0C05E075
:10428000DFF80C229042F8D15FF0090C5FFA8CFC49
:1042900014F00302D2B292001CFA02FC5CEA070797
:1042A0002200920846F822701A68AA434E68F60364
:1042B00000D52A431A605A68AA434E68B60300D54F
:1042C0002A435A605FF0B0463268AA434F68FF0243
:1042D00000D52A433260DFF8BC613268AA434F68D8
:1042E000BF0201D515432A003260641C102C80F0F7
:1042F000CC80012616FA04F20D6815409542F4D1DF
:104300004A68022A02D04A68122A1DD12200D20825
:1043100000EB8202176A5FF00F0C14F00702D2B2B2
:1043200092001CFA02FC37EA0C07D1F810C014F016
:104330000702D2B292001CFA02FC5CEA07072200D4
:10434000D20800EB82021762D0F800C003272200D7
:10435000D2B2520017FA02F23CEA020C91F804E0E1
:104360001EF0030E2200D2B252001EFA02FE5EEAD6
:104370000C0CC0F800C04A68012A08D04A68022A1A
:1043800005D04A68112A02D04A68122A1CD1D0F8F6
:1043900008C02200D2B2520017FA02F23CEA020C24
:1043A000D1F80CE02200D2B252001EFA02FE5EEA00
:1043B0000C0CC0F808C04268A640B2434E68C6F371
:1043C0000016A64032434260C6682200D2B25200B4
:1043D0009740BE438F682200D2B2520097403E43BE
:1043E000C6604A68D2007FF580AF2B4A166856F047
:1043F00002061660126812F002020092009A274E1E
:104400002200920856F822705FF00F0C14F003029D
:10441000D2B292001CFA02FC37EA0C07204A904202
:1044200002D15FF0000C31E71E4A904202D15FF0EA
:10443000010C2BE71C4A904202D15FF0020C25E7E9
:104440001A4A904202D15FF0030C1FE7184A9042CB
:1044500002D15FF0040C19E7164A904202D15FF0D6
:10446000050C13E7144A904202D15FF0060C0DE7E9
:10447000124A904202D15FF0070C07E7104A9042BF
:104480007FF4FEAE5FF0080C00E7F1BD800000583D
:104490000024025804000058F4440258080400584C
:1044A000000002580004025800080258000C02588C
:1044B000001002580014025800180258001C02583C
:1044C00000200258BFF34F8FBFF36F8F00205C496D
:1044D0000860BFF34F8FBFF36F8F5A48016851F4E4
:1044E00000310160BFF34F8FBFF36F8F704710B47F
:1044F000002055490860BFF34F8F54480168C1F34D
:104500004E32C1F3C90343F6E07010EA421050EA9C
:1045100083704F4C20601800431E0028F3D1100018
:10452000421E0028EDD1BFF34F8F4648016851F479
:1045300080310160BFF34F8FBFF36F8F10BC7047A6
:1045400080B500F095F800F0E3F800F0EDF800F029
:104550000BF800F066F900F0D3FAFFF733FC00F037
:104560009DFC00F087FD01BD80B59CB0002039485E
:10457000016831F0040101600020009036480168B4
:1045800051F440410160016811F4404100910099EB
:1045900001688904FCD5012009905FF480300A90FD
:1045A00000200C9000201090022012900220139006
:1045B00005201490A020159002201690022018903B
:1045C0000420179000201A900820199009A8FDF7E0
:1045D000E3F8C0B2002803D08C21204800F044F852
:1045E0003F200190032002900020039008200490B7
:1045F00040200590402006904FF4806007904020B6
:104600000890042101A8FCF785FEC0B2002803D061
:10461000A721124800F028F81148016851F08001E4
:1046200001601048016851F002010160006810F05B
:1046300002000090009800F086F81DB000BD000058
:1046400050EF00E014ED00E084ED00E080ED00E0CC
:1046500060EF00E00C4802581848025894580008CF
:1046600000440258F4440258002900D17047FEE784
:10467000F8B5FDF7F1FB01208DF800005FF0105058
:10468000019012208DF8080003208DF80B00012006
:104690008DF80F0001208DF80E0000208DF80D0020
:1046A00000208DF8010001208DF80A0000208DF80F
:1046B000090000208DF80C006846FDF7E6FB01209C
:1046C0008DF800005FF0C04001900F208DF80800C9
:1046D00003208DF80B0001208DF80F0000208DF8CD
:1046E0000E0000208DF80D0001208DF80100002043
:1046F0008DF80A0000208DF8090000208DF80C00CC
:104700006846FDF7C2FB0420FDF7B1FB05B000BD14
:1047100080B5FFF7D7FEFFF7EAFE01BD80B500F0D8
:10472000B3F901BD7047704780B50320FDF777FBF3
:104730000F20FDF7E7FA002801D0012002E000F089
:104740000BF8002002BD0348016851F0010101602F
:10475000704700002004005870470000DFF818235D
:104760000100C9B252F8311009690300DBB202EB53
:10477000C3039B88194201D1002100E00121C0B28E
:1047800002EBC0008079C9B2814201D1012000E072
:1047900000207047F8B504002000C0B208281BDADA
:1047A0000026FF27002508E02800C0B2FFF7D6FF4B
:1047B000002801D0761C2F006D1C2800C0B20828EC
:1047C000F2DBF6B2012E05D1FFB2E4B2A74201D16D
:1047D000012025E0002023E02000C0B208280DD1F0
:1047E0000020FFF7BBFF002806D00120FFF7B6FF2F
:1047F000002801D0012013E0002011E0E4B2092CD0
:104800000DD10120FFF7AAFF002806D00220FFF7F4
:10481000A5FF002801D0012002E0002000E00020D8
:10482000F2BD80B500F051F800F001F801BD10B5FF
:1048300086B0DFF84802016851F0020101600168AA
:1048400011F0020100910099016851F0040101602A
:10485000016811F0040100910099016851F04001D4
:104860000160016811F0400100910099016851F068
:1048700080010160016811F08001009100990168D8
:1048800051F480710160006810F48070009000980D
:1048900000200290002003900320049000240EE0EA
:1048A00075482100C9B200EBC1018988019101A9B5
:1048B0002200D2B250F83200FFF7D6FC641C200070
:1048C000C0B20828ECDB06B010BD80B56C480021F2
:1048D00081720021C1720021017300201FE069492B
:1048E00064220300DBB21B010B441A810222030085
:1048F000DBB21B010B441A7100220300DBB21B0167
:104900000B449A7200220300DBB21B010B44DA72E3
:1049100000220300DBB21B0119440A73401C010092
:10492000C9B20A29DBDB06226421032000F01CF84F
:1049300006226421042000F017F8062264210520D5
:1049400000F012F806226421062000F00DF801BDE7
:104950004B49CA7A8854C87A401CC872C87A0A2857
:1049600001DB0020C872704710B4464B0400E4B26B
:1049700024011C4421810100C9B209011944CA72F1
:104980000021C0B200011844017310BC704738B553
:1049900004003C482100C9B2090100EB01052000D8
:1049A000C0B2FFF7F7FE002846D02879052802DAC2
:1049B000052028715EE028790A2803DA2879401C4E
:1049C000287157E0A87A00280AD10120A872210096
:1049D000C9B203204143491C0800C0B2FFF7B8FF29
:1049E0002889002846D0E888298988420FD2E8889B
:1049F000401CE880E888298988423BD1E4B2032042
:104A00004443E41C2000C0B2FFF7A2FF32E0E87A82
:104A100000282FD0287B401C2873287BE97A884205
:104A200028D300202873E4B203204443641C2000F0
:104A3000C0B2FFF78DFF1DE02879062802DB0520B4
:104A4000287113E02879002803D02879401E2871A6
:104A50000CE0A87A012809D10020A872E4B2032052
:104A60004443A41C2000C0B2FFF772FF0020E8807E
:104A70000020287331BD000004590008E0440258AA
:104A8000081200209010002010B5002404E020003F
:104A9000C0B2FFF77CFF641C2000C0B20A28F6DB1E
:104AA00010BD0000020012B2002A05D40901DFF88F
:104AB000802300B2115408E00901DFF8782300B226
:104AC00010F00F00104400F8041C704780B5411E20
:104AD000B1F1807F01D3012011E0401EDFF85813AF
:104AE00008600F215FF0FF30FFF7DCFF0020DFF8E8
:104AF0004C1308600720DFF848130860002002BD4F
:104B000010B500201BE00C21DFF838230300DBB2D6
:104B10004B43134400245C600300DBB24B4313445B
:104B200000249C600300DBB24B43134400245C7000
:104B300000230400E4B201FB04F15354401C0100C3
:104B4000C9B20429DFDBDFF8000300684FF47A7193
:104B5000B0FBF1F0FFF7BAFF0120DFF8F0120870A8
:104B600000F0B0F810BD10B5DFF8E41208680028B6
:104B700008D00868401E0860002803D10120DFF833
:104B8000D412087000240AE0DFF8B8122200D2B272
:104B90000C20424301EB020000F020F8641C2000CE
:104BA000C0B20428F0DBDFF8B0020168491C0160E4
:104BB00001687FF00042914201D100210160FFF7BE
:104BC000B1FDDFF898020178491C017001780A29CB
:104BD00003DB00210170FFF7A1FD10BD4168002932
:104BE0000BD04168491E4160002906D10121417066
:104BF0000178012901D181684160704710B5002812
:104C000014D0012800D10220012181F31088DFF89F
:104C100040120860DFF83C4200202070002080F342
:104C20001088FFF780FD20780128FAD110BD10B55B
:104C30000200D2B2042A06DBDFF8302289498A4812
:104C400000F0A2FAFEE7012282F310880C227D4BCD
:104C50000400E4B254431C4461600400E4B25443D1
:104C60001C44A1600100C9B25143194400244C7096
:104C70000121C0B250431954002080F3108810BDA8
:104C80000100C9B2042901DB002010E00C216D4AAB
:104C90000300DBB24B4313445B78012B06D1C0B257
:104CA0004843104400214170012000E0002070477B
:104CB00080B500F07DFA65480078002801D0FFF744
:104CC00052FF01BD00B591B001A8402100F07CFA6F
:104CD0005FF0804066490A6852F001020A60096884
:104CE00011F0010100910099624988420BD062499C
:104CF000884208D06149884205D06149884202D083
:104D00006049884203D150490A68520802E04E497E
:104D10000A6852084FF6FF71514BB2FBF3F28A1842
:104D2000B0F1804F02D0584B984202D15FF0FF3172
:104D3000FFE7019092B202920491002005900020BA
:104D40000390002006908020079001A800F040FA10
:104D5000002804D04FF40C714248FFF785FC022272
:104D600000211C20FDF75FF81C20FDF76CF801A85E
:104D700000F04AFA11B000BD10B5002000205FF02D
:104D80008044216911F00201E06810F0020089B24C
:104D900000290BD080B2002808D04FF6FD702061AA
:104DA000E1680840E060394800688047216911F0F7
:104DB0000401E06810F0040089B200290BD080B231
:104DC000002808D04FF6FB702061E1680840E060E1
:104DD0002F4800688047216911F00801E06810F051
:104DE000080089B200290BD080B2002808D04FF605
:104DF000F7702061E1680840E0602648006880475D
:104E0000216911F01001E06810F0100089B200294A
:104E10000BD080B2002808D04FF6EF702061E16817
:104E20000840E0601C480068804710BD000000009A
:104E300000E400E018ED00E014E000E018E000E01D
:104E400010E000E080110020040000203D1200204E
:104E50002C1200203C120020301200203E120020B4
:104E600040420F00185800082C5B0008645C0008E2
:104E7000E8440258000001400004014000400140A5
:104E80000044014000480140000C00401C1200207A
:104E900020120020241200202812002080B500F0EB
:104EA00024F800F088F8674840F614710160006843
:104EB0006549086001BDC9B2002905D161490A6888
:104EC00032EA0000086003E05E490A6810430860A7
:104ED0005C4800685C49086070475A4909680142AB
:104EE00001D0012000E00020704780B586B057480F
:104EF000016851F008010160016811F00801059195
:104F00000599016851F010010160016811F010016C
:104F100005910599016851F040010160016811F0A7
:104F2000400105910599016851F080010160016817
:104F300011F0800105910599016851F480710160BB
:104F4000006810F48070059005984148016851F49C
:104F500080510160006810F480500590059802208F
:104F6000019001200290032003900C2004904CF249
:104F7000B370009069463748FFF776F94FF68070B6
:104F8000009069463448FFF76FF9032000906946A6
:104F90003248FFF769F94FF47F4000906946304886
:104FA000FFF762F940F2CF60009069462D48FFF7A5
:104FB0005BF907B000BD80B59AB007A84C2100F09E
:104FC00003F968461C2100F0FFF82748079027489E
:104FD00008900520009002200190022002900120FC
:104FE00003900220049002200590002006900020EB
:104FF000099000200A9000200B9020200C900020A7
:105000000D9000200E9000200F904FF480501090D3
:105010000020119000201290002013900020149086
:1050200000201590002016906A46694607A800F0F7
:105030006FF9002804D04FF492710D48FFF714FB6C
:105040001BB000BD1812002000100060E0440258A0
:10505000D4440258000C025800100258001802589C
:10506000001C025800200258004000520441005227
:105070009C57000880B5012000F032F8022000F0B3
:105080002FF8032000F02CF8042000F029F801BDCF
:1050900080B50100C9B2012905D100214FF480700B
:1050A000FFF709FF1BE00100C9B2022905D1002169
:1050B0004FF40070FFF7FFFE11E00100C9B20329B1
:1050C00005D100214FF48060FFF7F5FE07E0C0B284
:1050D000042804D100214FF40060FFF7ECFE01BD6D
:1050E00080B50100C9B2012905D101214FF48070BA
:1050F000FFF7E1FE1BE00100C9B2022905D1012141
:105100004FF40070FFF7D7FE11E00100C9B2032988
:1051100005D101214FF48060FFF7CDFE07E0C0B25A
:10512000042804D101214FF40060FFF7C4FE01BD43
:1051300010B50100C9B201290BD14FF480742000D1
:10514000FFF7CBFE002819D000212000FFF7B3FEA7
:1051500018E00100C9B2022902D14FF40074EEE751
:105160000100C9B2032902D14FF48064E7E7C0B25D
:10517000042802D14FF40064E1E703E0012120009C
:10518000FFF799FE10BD00000EB4C0B5024603A89B
:1051900000210190009101AB0121044878440C30BA
:1051A000FCF7BAFE06BC5DF810FB00BF950A0000D4
:1051B00003480168034A127889180160704700BFEC
:1051C000341200208C000020002200F0D9B800002A
:1051D00010B50400002C01D1012014E094F83D002A
:1051E000002805D1002084F83C00200000F08EF853
:1051F000022084F83D00211D206800F013F80120F2
:1052000084F83D00002010BD022180F83D100168A7
:10521000098851F0010102681180012180F83D10D8
:105220000020704710B400220488DFF8C030984294
:1052300012D0B0F1804F0FD0DFF8B42090420BD0E5
:10524000DFF8B020904207D0DFF8AC20904203D0C6
:10525000DFF8A820904203D134F070044A68144368
:1052600098421ED0B0F1804F1BD0DFF884209042CE
:1052700017D0DFF88020904213D0DFF87C209042D6
:105280000FD0DFF8782090420BD0DFF874209042E6
:1052900007D0DFF87020904203D0DFF86C209042F6
:1052A00003D134F44074CA68144334F080044A696A
:1052B000144304808A68C2620A68028598420FD04B
:1052C000DFF8382090420BD0DFF83420904207D02E
:1052D000DFF83020904203D0DFF82C20904201D13B
:1052E000096901860121416110BC7047000001403D
:1052F0000004004000080040000C00400004014091
:105300000040014000440140004801407047000057
:1053100070B504000D001600002C01D1012029E019
:1053200094F84500002805D1002084F844002000AE
:1053300000F024F814F10801206800F03BF8A2689E
:105340002900206800F076F8E36AA26831006068FE
:1053500000F09DF82068A16850F8210050F001008D
:105360002168A26841F822000348016851F0004119
:105370000160002070BD0000004000527047000036
:1053800000B500BF130096469446103928BFA0E828
:105390000C50FAD85FEA417C28BF0CC048BF40F8E7
:1053A000042BC90728BF20F8022B48BF00F8012BA7
:1053B00000BD000010B400220A6850F82230444AB0
:1053C00013404C688A681443CA6814430A6914433A
:1053D0004A6914438A691443CA6914430A6A144324
:1053E0004A6A14438A6A1443CA6A14430A6B144310
:1053F0008A6B14434A6B144323438A68082A01D1F9
:1054000053F040030A6840F822300A6BB2F5801F5F
:1054100006D10A68002A03D003680A6B13430360AD
:105420000A68002A03D00268496B0A430260002020
:1054300010BC704730B4002300EB82035C6814F0AA
:1054400040440D684B6855EA03158B6855EA0325FF
:10545000CB6855EA03450B695B1E55EA03554B695A
:105460009B1E55EA03658B691D432C4300EB8202AA
:1054700054600268D20207D5426832F470020969AA
:10548000491E52EA01524260002030BC704730B4DD
:105490000024B3F5804F13D150F822400D4B1C402F
:1054A0000B684D6853EA05138D6853EA0523CD68F0
:1054B00053EA054389690B431C4340F8224003E04B
:1054C0007FF0704140F82210002030BC704700008F
:1054D0008004C0FF0000F0CF80B5FFF731F800F086
:1054E0003BF800F02EF80120FFF7D2FD6420FFF713
:1054F00085FB0120FFF7F4FD6420FFF77FFB6421AB
:105500000020FFF794FB4FF4FA710120FFF78FFBA7
:10551000FFF709F90020FFF7B3FB002802D00120B4
:10552000FFF706FE0120FFF7ABFB0028F0D00220BA
:10553000FFF7FEFD0320FFF7FBFD0420FFF7F8FD5A
:10554000E6E780B52A48FFF71FFE2A48FFF71CFE52
:105550002948FFF719FE01BDF8B5284C2000FFF7D8
:1055600013FE274805682748066827480768274824
:1055700000682749B0FBF1F12648FFF705FE2B0034
:10558000320039002448FFF7FFFD17A0FFF7FCFDAC
:105590002000FFF7F9FD21492148FFF7F5FD13A190
:1055A0002048FFF7F1FD20492048FFF7EDFD204896
:1055B000FFF7EAFD1F48FFF7E7FD1F48FFF7E4FD8F
:1055C0001E48FFF7E1FD1E48FFF7DEFD1D48FFF70F
:1055D000DBFD1D48FFF7D8FD1C48FFF7D5FD200077
:1055E000FFF7D2FDF1BD00000A0D0000312E3000A2
:1055F000FC5C0008C459000844590008845900089C
:1056000000E8F11F04E8F11F08E8F11F0400002082
:1056100040420F00385A0008F85B0008085D000897
:10562000785C00088C5C0008145D0008A05C000831
:10563000685A00082C5D0008105C0008B45C000883
:10564000C05B0008DC5B00084C5B0008985A00084F
:105650002048016851F4700101601F49086850F04A
:105660000100086000201D4A10600A681C480240C2
:105670000A6000201B4A106000201B4A10600020B6
:105680001A4A106000201A4A10600020194A10605F
:105690000020194A10600020184A10600020184AA3
:1056A00010600020174A10600020174A1060002088
:1056B000164A1060086830F4802008600020144901
:1056C00008600120134908605FF00060124908601B
:1056D0007047000088ED00E0004402581044025872
:1056E0007FEDF6EA184402581C4402582044025840
:1056F000284402582C44025830440258344402587A
:10570000384402583C440258404402584444025829
:10571000604402580881005108ED00E0453A5C30D1
:1057200030312E426F6172645C53544D33322D56CA
:1057300037E6ADA3E5BC8FE789885CE794A8E688E7
:10574000B7E6898BE5868C5CE6ADA3E5BC8FE58F7B
:1057500091E5B883E79A84E5898D3530E7ABA0E918
:10576000858DE5A597E4BE8BE5AD905C56372D3071
:1057700030315FE8B791E9A9ACE781AF5C5573655B
:10578000725C6273705C7372635C6273705F75618C
:1057900072745F6669666F2E63000000453A5C3084
:1057A00030312E426F6172645C53544D33322D564A
:1057B00037E6ADA3E5BC8FE789885CE794A8E68867
:1057C000B7E6898BE5868C5CE6ADA3E5BC8FE58FFB
:1057D00091E5B883E79A84E5898D3530E7ABA0E998
:1057E000858DE5A597E4BE8BE5AD905C56372D30F1
:1057F00030315FE8B791E9A9ACE781AF5C557365DB
:10580000725C6273705C7372635C6273705F666D0E
:10581000635F696F2E630000453A5C3030312E4281
:105820006F6172645C53544D33322D5637E6ADA32D
:10583000E5BC8FE789885CE794A8E688B7E6898BA2
:10584000E5868C5CE6ADA3E5BC8FE58F91E5B8837A
:10585000E79A84E5898D3530E7ABA0E9858DE5A52C
:1058600097E4BE8BE5AD905C56372D3030315FE864
:10587000B791E9A9ACE781AF5C557365725C62735F
:10588000705C7372635C6273705F74696D65722EB5
:1058900063000000453A5C3030312E426F61726423
:1058A0005C53544D33322D5637E6ADA3E5BC8FE73C
:1058B00089885CE794A8E688B7E6898BE5868C5CE6
:1058C000E6ADA3E5BC8FE58F91E5B883E79A84E563
:1058D000898D3530E7ABA0E9858DE5A597E4BE8BD2
:1058E000E5AD905C56372D3030315FE8B791E9A9CE
:1058F000ACE781AF5C557365725C6273705C627318
:10590000702E6300002002580001000000080258B9
:1059100000200000001C025810000000001802586F
:1059200004000000000402580100000000180258A2
:1059300008000000001802588000000000200258F3
:1059400000080000322E20D4D9C6F4B6AFD2BBB8BE
:10595000F6D7D4B6AFD6D8D7B0C8EDBCFEB6A8CA75
:10596000B1C6F7A3ACC3BF3530306D73B7ADD7AA9E
:10597000D2BBB4CE4C454433BACD4C4544340D0A69
:10598000000000002A2A2A2A2A2A2A2A2A2A2A2A1F
:105990002A2A2A2A2A2A2A2A2A2A2A2A2A2A2A2A67
:1059A0002A2A2A2A2A2A2A2A2A2A2A2A2A2A2A2A57
:1059B0002A2A2A2A2A2A2A2A2A2A2A2A2A2A2A2A47
:1059C0002A0A0D00312E20C6F4B6AFD2BBB8F6D7E6
:1059D000D4B6AFD6D8D7B0C8EDBCFEB6A8CAB1C64B
:1059E000F7A3ACC3BF3130306D73B7ADD7AAD2BB0C
:1059F000B4CE4C454431BACD4C4544320D0A00007A
:105A000030B5016884684218416802EB5103C90748
:105A10000BD54C4409E012F9011B12F8015B002977
:105A200004F8015B05D5491CF9D19A42F3D10C3039
:105A300030BD491EF1D5F8E70D0A435055203A20F4
:105A400053544D333248373433584948362C20426A
:105A500047413234302C20D6F7C6B53A2025644D64
:105A6000487A0D0A000000002A2048414CBFE2B0ED
:105A7000E6B1BE20203A2056312E332E3020285356
:105A8000544D3332483778782048414C204472696D
:105A9000766572290D0A00002A20436F70797269B9
:105AA000676874207777772E61726D666C792E63E4
:105AB0006F6D20B0B2B8BBC0B3B5E7D7D30D0A0045
:105AC00010B5074979441831064C7C44163404E07B
:105AD0000A68081D114488470146A142F8D110BD4B
:105AE0002C000000480000004EF68851CEF2000164
:105AF000086840F470000860BFF34F8FBFF36F8FEA
:105B00004FF00070E1EE100A7047000033D2FFFF43
:105B1000B01100009000002000000000E5FEFFFF33
:105B200034040000CC000000000000204572726FB9
:105B3000723A2066696C652025732C2066756E6349
:105B400074696F6E20257328290D0A002A20CCD491
:105B5000B1A6B5EA3A2061726D666C792E74616FF8
:105B600062616F2E636F6D0D0A00000006490A68BE
:105B7000002A07D50A6852F000420A608169891C30
:105B800081617047FEE700BF2CED00E000F00DF8EA
:105B9000002801D0FFF794FFAFF300800020AFF39F
:105BA0000080FFF799FC00F002F80120704700F038
:105BB00001B8000007463846FDF7F0FBFBE70000A0
:105BC0002A20456D61696C203A2061726D666C799E
:105BD0004071712E636F6D200D0A00002A20CEA245
:105BE000D0C5B9ABD6DABAC53A2061726D666C79A8
:105BF0005F636F6D200D0A00554944203D2025301C
:105C00003858202530385820253038580A0D0000E3
:105C10002A205151202020203A2031323935373482
:105C200034363330200D0A00010002000400060063
:105C300008000A000C001000200040008000000155
:105C400038B504460D46284600F006F8A84218BFAD
:105C50000024204632BD00000149FEF7CBBA00BF48
:105C6000440000206273705F5374617274417574F4
:105C70006F54696D657200002A20C0FDB3CCC3FB70
:105C8000B3C62020203A2025730D0A002A20C0FD2B
:105C9000B3CCB0E6B1BE2020203A2025730D0A0017
:105CA0002A20B7A2B2BCC8D5C6DA2020203A2025C7
:105CB000730D0A002A20CDFACDFA20203A20617215
:105CC0006D666C790D0A00001EF0040F0CBFEFF337
:105CD0000880EFF30980FFF749BF000000000000D3
:105CE0000102030401020304060708090148804772
:105CF0000148004751560008215D0008B2D9D7F786
:105D0000CCE1CABE3A0D0A0056372DC5DCC2EDB54E
:105D1000C6000000323031382D31322D31320000D2
:105D2000AFF30080FFF7E0FEFFF730FF2A200D0AF7
:105D30000000000000002E00FFF7FEBFFFF7FEBFCF
:105D4000FFF7FEBFFFF7FEBFFFF7FEBFFFF7FEBF87
:105D5000FFF7FEBFFFF7FEBFFFF7FEBFFFF7FEBF77
:105D6000FFF7FEBFFFF7FEBFFFF7FEBFFFF7FEBF67
:105D7000FFF7FEBFFFF7FEBFFFF7FEBFFFF7FEBF57
:105F5000FFF7FEBF0010FC002290D0030090D0039A
:105F6000345D0008345D0008345D0008345D0008CD
:105F7000345D0008345D0008345D0008F8FF0B361E
:105F80005D0008345D0008345D0008FAFF1500006C
:105F90000204010130110020801100203011002086
:105FA00030110020FC000330110020FC00078800A5
:0A5FB000002074000020E000000152
:0400000508005D2171
:00000001FF
