:020000040800F2
:10000000000D0020A1010008E9100008AD02000861
:10001000E5100008BF0200080D1C000800000000E9
:100020000000000000000000000000004D13000868
:100030002D03000800000000EB1000085113000819
:10004000BB010008BB010008BB010008BB010008A0
:10005000BB010008BB010008BB010008BB01000890
:10006000BB010008BB010008BB010008BB01000880
:10007000BB010008BB010008BB010008BB01000870
:10008000BB010008BB010008BB010008BB01000860
:10009000BB010008BB010008BB010008BB01000850
:1000A000BB010008BB010008BB010008BB01000840
:1000B00041150008BB010008BB010008BB01000896
:1000C000BB010008BB010008BB010008BB01000820
:1000D000BB010008351A0008BB010008BB0100087D
:1000E000BB010008BB010008BB010008BB01000800
:1000F000BB010008BB010008BB010008BB010008F0
:10010000BB010008BB010008BB010008BB010008DF
:10011000BB010008BB010008BB010008BB010008CF
:10012000BB010008BB010008BB010008BB010008BF
:10013000BB010008BB010008BB010008BB010008AF
:10014000BB010008BB010008BB010008BB0100089F
:10015000BB010008BB010008BB010008BB0100088F
:10016000BB010008BB010008BB010008BB0100087F
:10017000BB010008BB010008BB0100080000000033
:10018000BB010008BB010008DFF810D000F07CF8CC
:1001900000480047C9270008AFF30080000D002089
:1001A0000648804706480047FEE7FEE7FEE7FEE711
:1001B000FEE7FEE7FEE7FEE7FEE7FEE7DD140008E8
:1001C000890100082DE9F05F0546002092469B4614
:1001D00088460646814640241BE02846414647465D
:1001E000224600F041F853465A46C01A914110D3B6
:1001F00011461846224600F028F82D1A67EB010830
:100200004F4622460120002100F01FF817EB00099D
:100210004E41201EA4F10104DFDC484631462A4647
:100220004346BDE8F09FD2B201E000F8012B491E21
:10023000FBD270470022F6E710B513460A46044683
:100240001946FFF7F0FF204610BD202A04DB203AB4
:1002500000FA02F1002070479140C2F1200320FA19
:1002600003F3194390407047202A04DB203A21FA17
:1002700002F00021704721FA02F3D040C2F12002BF
:100280009140084319467047064C074D06E0E06868
:1002900040F0010394E8070098471034AC42F6D3CD
:1002A000FFF776FF00290008202900081EF0040F40
:1002B0000CBFEFF30880EFF3098000F0E3BD00BF4F
:1002C000FEE7000010B504460CB90E4810BD012C25
:1002D00001D10020FAE7022C01D10020F6E7032C1F
:1002E00001D10020F2E7042C01D10020EEE7052C1B
:1002F00001D10020EAE7E72103A000F018F8002070
:10030000E4E70000900000202E2E5C2E2E5C55733A
:1003100065725C6273705C7372635C6273705F754C
:100320006172745F6669666F2E630000704701B981
:10033000704700BFFEE700000120014908607047D8
:1003400000042742F8B502460B4600250024002091
:100350000021DCE0012606FA01F51E6806EA050424
:10036000AC4273D15E68022E02D05E68122E13D1A9
:10037000CF0802F1200656F827004E07F70E0F2689
:10038000BE40B0434F07FF0E1E69BE403043CF084A
:1003900002F1200646F8270010684F000326BE40F1
:1003A000B0431E7906F003064F00BE403043106094
:1003B0005E68012E08D05E68022E05D05E68112EA0
:1003C00002D05E68122E13D190684F000326BE4003
:1003D000B0434F00DE68BE40304390605068012655
:1003E0008E40B0431E79C6F300168E4030435060F5
:1003F000D0684F000326BE40B0434F009E68BE4009
:100400003043D0605E6806F08056B6F1805F7DD1E3
:1004100000BF00260096404E366846F480463E4FA8
:100420003E603E46366806F48046009600BF00BF38
:100430003A4E8F0856F827008E07370F0F26BE401A
:10044000B043374EB24202D1002624E05EE0354E82
:10045000B24201D101261EE0334EB24201D1022642
:1004600019E0324EB24201D1032614E0304EB242BE
:1004700001D104260FE02F4EB24201D105260AE039
:100480002D4EB24201D1062605E02C4EB24201D1DA
:10049000072600E008268F073F0FBE4030431F4E5F
:1004A0008F0846F82700264E3068A0435E6806F4A1
:1004B0008036B6F5803F00D12043214E3060361D96
:1004C0003068A0435E6806F40036B6F5003F00D100
:1004D00020431B4E361D3060361D3068A0435E68D9
:1004E00006F48016B6F5801F00D12043144E08365E
:1004F0003060361D3068A0435E6806F40016B6F51D
:10050000001F00D120430E4E0C363060491C1029CC
:10051000FFF420AFF8BD0000443802400838014025
:10052000000002400004024000080240000C0240AB
:10053000001002400014024000180240001C02405B
:10054000003C01400148006870470000280000207E
:100550000348006803490978084401490860704766
:10056000280000203000002010B50D48006840F43D
:1005700000700B4908600846006840F4806008601D
:100580000846006840F480700860032000F080F89E
:100590000F2000F007F800F02BF8002010BD00003D
:1005A000003C024070B504460E4800784FF47A7162
:1005B000B1FBF0F00C490968B1FBF0F5284600F0FA
:1005C000DDFB08B1012070BD102C07D200222146AE
:1005D000501E00F01EF80548046001E00120F2E71B
:1005E0000020F0E730000020340000202C00002024
:1005F000704701460846002809DB00F01F0301226E
:100600009A4043099B0003F1E023C3F8002100BF97
:1006100070472DE9F05F80460D461646002701F031
:1006200007FB074639462A46334601F00700C0F16A
:10063000070ABAF1040F02D94FF0040A01E0C0F131
:10064000070AD14600F1040ABAF1070F02D24FF0AF
:10065000000A01E0A0F1030AD4464FF0010A0AFAA9
:1006600009FAAAF1010A0AEA020A0AFA0CFA4FF098
:10067000010B0BFA0CFBABF1010B0BEA030B4AEA83
:100680000B042146404601F0DBFABDE8F09F000074
:1006900000BF00F00702064B19684FF6FF03194030
:1006A000044B0B4343EA0221014B196000BF704722
:1006B0000CED00E00000FA0570B504460D460CB9DB
:1006C000012070BD5848006800F00F00A84209D210
:1006D00055490D700846006800F00F00A84201D08F
:1006E0000120EEE7207800F0020002281DD12078DA
:1006F00000F00400042805D14C48006840F4E050A4
:100700004A490860207800F00800082805D14748C9
:10071000006840F46040454908604448006820F0A3
:10072000F000A168084341490860207800F001000A
:10073000A8B36068012807D13C4808380068C0F3B6
:100740004040B8B90120BCE76068022802D0606868
:10075000032807D1354808380068C0F3406048B91D
:100760000120AEE7314808380068C0F3400008B9FE
:100770000120A6E72D48006820F0030061680843C7
:100780002A490860FFF7DEFE064609E0FFF7DAFEB9
:10079000801B41F28831884202D9032091E707E0AB
:1007A0002248006800F00C006168B0EB810FEDD1C9
:1007B0001D48006800F00F00A84209D91A490D70C1
:1007C0000846006800F00F00A84201D0012078E739
:1007D000207800F00400042807D11448006820F4B1
:1007E000E050E168084311490860207800F00800F3
:1007F000082808D10D48006820F46040216940EACB
:10080000C1000A49086000F03DF808490968C1F3D1
:100810000311074A515CC840064908600F20FFF7E2
:10082000C1FE00204DE70000003C024008380240B5
:10083000A02800083400002001480068704700002C
:100840003400002000B5FFF7F7FF04490968C1F341
:100850008221034A515CC84000BD000008380240B4
:10086000B028000800B5FFF7E7FF04490968C1F3A5
:100870004231034A515CC84000BD000008380240C4
:10088000B02800082DE9F047002400250026A146E5
:100890002548006800F00C0020B1042805D0082885
:1008A0003AD105E0DFF8849039E0DFF8849036E053
:1008B0001D48001F006800F03F041B48001F00682F
:1008C00000F4800078B11A481749091F0968C1F37C
:1008D0008811A0FB01700146224600233846FFF72D
:1008E00071FC05460EE011480F49091F0968C1F364
:1008F0008811A0FB01700146224600233846FFF70D
:1009000061FC05460848001F0068C0F30140401C18
:100910004600B5FBF6F902E0DFF8109000BF00BF1B
:100920004846BDE8F0870000083802400024F40083
:1009300000127A00F8B504460CB90120F8BD207801
:1009400000F00100002874D0F948006800F00C00A5
:1009500004280DD0F648006800F00C00082813D1D8
:10096000F348001F006800F48000B0F5800F0BD141
:10097000EF4808380068C0F34040002859D060684C
:10098000002856D10120D9E700BF6068B0F5803F4C
:1009900008D1E7480838006840F48030E449083955
:1009A00008601EE06068B0F5A02F0DD1E04808385F
:1009B000006840F48020DE49083908600846006875
:1009C00040F4803008600CE0D9480838006820F412
:1009D0008030D749083908600846006820F4802034
:1009E000086000BF606890B1FFF7ACFD054606E007
:1009F000FFF7A8FD401B642801D903209EE7CC48DF
:100A000008380068C0F340400028F1D011E0FFF73B
:100A100099FD054606E0FFF795FD401B642801D9C6
:100A200003208BE7C24808380068C0F34040002824
:100A3000F1D1207800F0020002285FD1BC480068A4
:100A400000F00C0058B1BA48006800F00C0008280B
:100A50001CD1B748001F006800F48000B0B9B4484A
:100A600008380068C0F3400020B1E068012801D0D8
:100A7000012063E7AE480838006820F0F8002169DB
:100A800040EAC100AA490839086037E0E06800B3CD
:100A90000120A8490860FFF755FD054606E0FFF76D
:100AA00051FD401B022801D9032047E7A048083820
:100AB0000068C0F340000028F1D09D480838006865
:100AC00020F0F800216940EAC1009949083908601E
:100AD00014E0002097490860FFF734FD054606E062
:100AE000FFF730FD401B022801D9032026E790487C
:100AF00008380068C0F340000028F1D1207800F0E9
:100B0000080008282CD16069A8B101208A49086032
:100B1000FFF718FD054606E0FFF714FD401B02280D
:100B200001D903200AE782486C300068C0F3400016
:100B30000028F1D014E000207F490860FFF702FD93
:100B4000054606E0FFF7FEFC401B022801D9032002
:100B5000F4E677486C300068C0F340000028F1D11B
:100B6000207800F00400042870D100267048383046
:100B7000006800F0805090B900BF002000906C48E1
:100B80003830006840F080506949383108600846C4
:100B9000006800F08050009000BF00BF0126674849
:100BA000006800F48070B0B96448006840F4807058
:100BB00062490860FFF7C6FC054606E0FFF7C2FC85
:100BC000401B022801D90320B8E65C48006800F405
:100BD00080700028F2D000BFA068012808D15448D6
:100BE0006830006840F001005149683108601DE03C
:100BF000A06805280DD14E486830006840F0040018
:100C00004B49683108600846006840F00100086000
:100C10000CE047486830006820F001004449683122
:100C200008600846006820F00400086000BFA06863
:100C3000A8B1FFF787FC054609E0FFF783FC401BDE
:100C400041F28831884202D9032077E626E038480D
:100C500068300068C0F340000028EED013E0FFF7D2
:100C600071FC054608E0FFF76DFC401B41F288313E
:100C7000884201D9032061E62D4868300068C0F33E
:100C800040000028EFD1012E07D1294838300068F4
:100C900020F0805026493831086000BFA069B8B301
:100CA0002348006800F00C0008285ED0A0690228E4
:100CB00046D100201F490866FFF744FC054606E0C0
:100CC000FFF740FC401B022801D9032036E61848F4
:100CD00008380068C0F340600028F1D1D4E907016A
:100CE0000843616A40EA81110122A06AC2EB500008
:100CF00041EA00412C20005D41EA00600C49091FD7
:100D0000086001200B490866FFF71CFC054607E058
:100D10002DE0FFF717FC401B022801D903200DE648
:100D2000034808380068C0F340600028F1D01EE096
:100D30000838024000004742800E474200700040E1
:100D400000200C490866FFF7FDFB054606E0FFF7AB
:100D5000F9FB401B022801D90320EFE50648006893
:100D6000C0F340600028F2D101E00120E6E5002058
:100D7000E4E50000000047420038024070B5044638
:100D80002546681EB0F1807F01D301200FE0681E68
:100D90004FF0E02148610F214FF0FF3000F050FF8D
:100DA00000204FF0E021886107200861002070BD1D
:100DB00010B504460CB9012010BD94F83D0028B9C7
:100DC000002084F83C00204600F00CF8022084F853
:100DD0003D00211D206800F00DFC012084F83D003D
:100DE0000020E9E770470146022081F83D000868CD
:100DF000806800F00702062A05D00868006840F005
:100E000001000B681860012081F83D000020704748
:100E100010B504460CB9012010BDA06900B100E076
:100E200000BF94F8390028B9002084F83800204623
:100E300000F027F8242084F839002068C06820F4E6
:100E400000502168C860204600F040FC206800691E
:100E500020F49040216808612068406920F02A0051
:100E6000216848612068C06840F400502168C8606B
:100E70000020E063202084F8390084F83A00002044
:100E8000CAE7704710B53249096801F0004149B11D
:100E90002F49096841F000412D4A11608169891C80
:100EA000816110BD2A49083909682A4A1162284916
:100EB000091F097882F824102549C91E0978916212
:100EC00023490C310968D1622149891E098811869C
:100ED0001F49096851631E49091D096891631C492E
:100EE00010310968D1631CA200210BE0535C254C32
:100EF000636000BF234B1B6803F04003002BF9D055
:100F00004B1CD9B22929F1D300211F4A116000BF1F
:100F10001D4909680029FBD00E4A0168116041682B
:100F2000516081689160C168D16001691161416956
:100F3000516181699161C169D1610021124A1160D9
:100F400000BF114909680029FBD000BFA9E70000D4
:100F50002CED00E0BC0800200D0A456E746572207F
:100F6000486172644661756C745F48616E646C655B
:100F7000722C2053797374656D2048616C742E0D4A
:100F80000A000000001001403800002000B587B0C2
:100F900000BF002001903348006840F00100314953
:100FA00008600846006800F00100019000BF00BF23
:100FB00000BF002001900846006840F00100086072
:100FC0000846006800F00100019000BF00BF00BFAC
:100FD0000020019023481430006840F0100021499F
:100FE000143108600846006800F01000019000BF4E
:100FF00000BF4815029002200390012004900320B6
:1010000005900720069002A91748FFF79BF94FF4B7
:10101000806002900720069002A91348FFF792F91A
:10102000012200212520FFF7F4FA2520FFF7E1FA3D
:101030000C2300224FF4E1310C4801F015FB0B4862
:10104000006820F04000094908600846006820F068
:10105000200008600846C06840F02000C86007B063
:1010600000BD000030380240000002400010014086
:101070002DE9F0410546022D17DA0026FF2700244E
:1010800008E0204600F014F810B1701CC6B22746E4
:10109000601CC4B2022CF4DB012E04D1AF4202D199
:1010A0000120BDE8F0810020FBE700BFF9E7000068
:1010B00001460B4850F831000069094B03EBC103AE
:1010C0009B88184008B9002200E00122044800EB88
:1010D000C1008079904201D1012070470020FCE7D7
:1010E0006028000800BFFEE77047704710B505A0F4
:1010F00000F08EFD06A000F08BFD13A000F088FD2F
:1011000010BD0000B2D9D7F7CCE1CABE3A0D0A0033
:10111000312E20C6F4B6AFD2BBB8F6D7D4B6AFD610
:10112000D8D7B0C8EDBCFEB6A8CAB1C6F7A3ACC349
:10113000BF3130306D73B7ADD7AAD2BBB4CE4C45FA
:1011400044310D0A00000000322E20C6F4B6AFD2A2
:10115000BBB8F6D7D4B6AFD6D8D7B0C8EDBCFEB6BC
:10116000A8CAB1C6F7A3ACC3BF3530306D73B7ADF5
:10117000D7AAD2BBB4CE4C4544320D0A00000000C1
:101180002DE9F04118A000F043FD274800F040FD94
:1011900026480468001D0568001D0668244800688C
:1011A0002449B0FBF1F7394623A000F031FD234676
:1011B0002A4631462AA000F02BFD0BA000F028FDA6
:1011C0002DA131A000F024FD34A135A000F020FDB8
:1011D00038A13BA000F01CFD3EA000F019FD02A0CC
:1011E00000F016FDBDE8F0812A2A2A2A2A2A2A2A96
:1011F0002A2A2A2A2A2A2A2A2A2A2A2A2A2A2A2A4F
:101200002A2A2A2A2A2A2A2A2A2A2A2A2A2A2A2A3E
:101210002A2A2A2A2A2A2A2A2A2A2A2A2A2A2A2A2E
:101220002A2A2A2A2A0A0D00B8280008107AFF1F45
:101230003400002040420F000D0A435055203A2050
:1012400053544D3332463430375A4754362C20D617
:10125000F7C6B53A2025644D487A0D0A0000000013
:10126000554944203D202530385820253038582015
:10127000253038580A0D000054656D706C61746536
:1012800020546573740000002A20C0FDB3CCC3FB5A
:10129000B3C62020203A2025730D0A00322E3000DC
:1012A0002A20C0FDB3CCB0E6B1BE2020203A2025D4
:1012B000730D0A00323032332D30342D32380000B5
:1012C0002A20B7A2B2BCC8D5C6DA2020203A2025F1
:1012D000730D0A002A2048414CBFE2B0E6B1BE209F
:1012E000203A2056322E342E30202853544D33329B
:1012F000463430372048414C204472697665722963
:101300000D0A000000B587B000BF002001900D4815
:10131000006840F002000B4908600846006800F0D1
:101320000200019000BF00BF012003900020049044
:10133000032005900420029002A90348FFF702F859
:1013400007B000BD30380240000402407047000082
:1013500010B5FFF7FDF80448007800B910BD00F0A3
:1013600005F800BFFAE700002400002010B51B4874
:10137000006840B119480068401E1849086010B95B
:10138000012017490870002408E004EB4401154AC5
:1013900002EB810001F094F9601CC4B2042CF4DB70
:1013A00011480068401C10490860084600686FF04A
:1013B0000041884202D100200B49086001F052F937
:1013C0000A480078401CC0B2084908700A2803DBAC
:1013D0000020087001F042F910BD00001800002044
:1013E0001C000020600000202000002025000020BC
:1013F00000B593B000BF002001903048006840F075
:1014000080502E4908600846006800F08050019026
:1014100000BF00BF00BF002001902948006840F4D1
:101420008040274908600846006800F48040019029
:1014300000BF00BF0120029000040390022008902A
:101440004105099119210A914FF4A8710B910221CC
:101450000C9104210D9102A8FFF76CFA18B16F21CD
:1014600018A0FEF764FF0F200E9002200F900020BE
:1014700010904FF4A05011904FF48050129005211D
:101480000EA8FFF719F918B182210EA0FEF74FFF41
:1014900000BF002001900948001D006840F4804012
:1014A0000649091D08600846006800F48040019064
:1014B00000BF00BFFEF740FF13B000BD4038024040
:1014C000007000402E2E5C2E2E5C557365725C629F
:1014D00073705C6273702E63000000001448006833
:1014E00040F47000124908601248006840F00100A2
:1014F0001049086000200F49083108600D48006855
:101500000D4908400B4908600C48091D0860081F78
:10151000006820F48020091F0860002005490C3174
:1015200008604FF000600249803908607047000091
:1015300088ED00E000380240FFFFF6FE1030002486
:1015400070B5002500264FF08044206900F00205A8
:10155000E06800F002065DB156B14FF6FD70206103
:10156000E0684FF6FD710840E0601E480068804763
:10157000206900F00405E06800F004065DB156B192
:101580004FF6FB702061E0684FF6FB710840E060A9
:10159000154800688047206900F00805E06800F001
:1015A00008065DB156B14FF6F7702061E0684FF65E
:1015B000F7710840E0600D4800688047206900F03E
:1015C0001005E06800F010065DB156B14FF6EF70FF
:1015D0002061E0684FF6EF710840E0600448006861
:1015E000804770BD080000200C0000201000002083
:1015F0001400002010B50268294B98420ED0B0F1BB
:10160000804F0BD0274B984208D0274B984205D0EB
:10161000264B984202D0264B984203D122F070020A
:101620004B681A431E4B984220D0B0F1804F1DD01A
:101630001C4B98421AD01C4B984217D01B4B984217
:1016400014D01B4B984211D01A4B98420ED01A4B13
:1016500098420BD0194B984208D0194B984205D0AC
:10166000184B984202D0184B984203D122F4407292
:10167000CB681A4322F080034C6943EA04020260FB
:101680008B68C3620B688362054B984202D0084B9B
:10169000984201D10B6903630123436110BD00002F
:1016A000000001400004004000080040000C004021
:1016B0000004014000400140004401400048014056
:1016C00000180040001C0040002000402DE9F041BF
:1016D00004462068006920F44050E168084321680E
:1016E00008612169A068084361690843E16940EA2B
:1016F00001052068C06849F20C61884328432168CD
:10170000C8602068406920F44070A16908432168DE
:101710004861E069B0F5004F7ED1C4492068884235
:1017200003D0C349206888425DD1FFF79BF800EBE6
:10173000C00101EB001061684900B0FBF1F06421C9
:10174000B0FBF1F00601FFF78DF800EBC00101EBF3
:10175000001061684900B0FBF1F7FFF783F800EB78
:10176000C00101EB001061684900B0FBF1F0642199
:10177000B0FBF1F000EBC00101EB0010A7EB800023
:10178000322101EBC0006421B0FBF1F000F0F80061
:1017900006EB4006FFF766F800EBC00101EB001016
:1017A00061684900B0FBF1F7FFF75CF800EBC0019E
:1017B00001EB001061684900B0FBF1F06421B0FB5F
:1017C000F1F000EBC00101EB0010A7EB800032212B
:1017D00001EBC0006421B0FBF1F000F007003044E1
:1017E0002168886020E1FFF72DF800EBC00101EBD4
:1017F000001061684900B0FBF1F06421B0FBF1F02A
:101800000601FFF71FF800EBC00101EB0010616853
:101810004900B0FBF1F700E045E0FFF713F800EBFB
:10182000C00101EB001061684900B0FBF1F06421D8
:10183000B0FBF1F000EBC00101EB0010A7EB800062
:10184000322101EBC0006421B0FBF1F000F0F800A0
:1018500006EB4006FEF7F6FF00EBC00101EB0010BF
:1018600061684900B0FBF1F7FEF7ECFF00EBC00147
:1018700001EB001061684900B0FBF1F06421B0FB9E
:10188000F1F000EBC00101EB0010A7EB800032216A
:1018900001EBC0006421B0FBF1F000F00700304420
:1018A00021688860C0E061492068884203D06049AF
:1018B000206888425CD1FEF7D5FF00EBC00101EB48
:1018C000001061688900B0FBF1F6FEF7CBFF00EB7A
:1018D000C00101EB001061688900B0FBF1F06421E8
:1018E000B0FBF1F000EBC00101EB0010A6EB8000B3
:1018F000322101EB00106421B0FBF1F000F0F006A2
:10190000FEF7B0FF00EBC00101EB00106168890039
:10191000B0FBF1F06421B0FBF1F006EB0016FEF72E
:10192000A1FF00EBC00101EB001061688900B0FB72
:10193000F1F7FEF797FF00EBC00101EB00106168C3
:101940008900B0FBF1F06421B0FBF1F000EBC001C5
:1019500001EB0010A7EB8000322101EB00106421A5
:10196000B0FBF1F000F00F003044216888605BE0CC
:10197000FEF768FF00EBC00101EB00106168890011
:10198000B0FBF1F6FEF75EFF00EBC00101EB0010CB
:1019900061688900B0FBF1F06421B0FBF1F000EB6D
:1019A000C00101EB0010A6EB8000322101EB00101A
:1019B0006421B0FBF1F000F0F006FEF743FF00EB0E
:1019C000C00101EB001061688900B0FBF1F06421F7
:1019D000B0FBF1F006EB0016FEF734FF00EBC001A0
:1019E00001EB001061688900B0FBF1F7FEF72AFFF8
:1019F00000EBC00101EB001061688900B0FBF1F061
:101A00006421B0FBF1F000EBC00101EB0010A7EB8B
:101A10008000322101EB00106421B0FBF1F000F0F6
:101A20000F00304421688860BDE8F081001001405B
:101A30000014014010B5024800F004F810BD000089
:101A4000900000202DE9F0410446206805682068D8
:101A5000C6682068D0F8148005F02000D8B120684E
:101A60004068C7B2E18AA0684754E08A401C80B24F
:101A7000E082E189884201DB0020E082608BE1891D
:101A8000884202DA608B401C6083606A10B138467D
:101A9000616A884700BF05F0800028B306F0800027
:101AA00010B3A08A60B92068C06820F08000216867
:101AB000C8602068C06840F040002168C86013E03A
:101AC000012084F82800618A6068405C21684860D1
:101AD000608A401C80B26082A189884201DB0020BC
:101AE0006082A08A401EA08205F0400018B306F074
:101AF000400000B3A08A68B92068C06820F04000A8
:101B00002168C860206A08B1206A8047002084F8F4
:101B1000280010E0618A6068405C21684860608A43
:101B2000401C80B26082A189884201DB0020608273
:101B3000A08A401EA082BDE8F081F8B504460F4699
:101B40001646002539E01EE0012000F09FF8A08A2B
:101B50000090002000F09AF8A089BDF8001088429B
:101B600000DD11E0A089BDF8001088420AD120688C
:101B7000C06800F0800028B92068C06840F080008C
:101B80002168C86000BFDFE700BF785D228A616816
:101B90008854012000F07AF8208A401C80B220820C
:101BA000A189884201DB00202082A08A401CA082FB
:101BB000002000F06BF8681C85B2B542C3DB2068DA
:101BC000C06840F080002168C860F8BD0B480C492F
:101BD00008600C4848600C4888604FF48060888139
:101BE000C881002008824882C8820883488388828E
:101BF000C8610862486281F82800704700100140FF
:101C000090000020BC000020BC04002000BFFEE7C4
:101C10000FB4054B10B503A9044A029800F03AF836
:101C200010BC5DF814FB0000B72700083C00002042
:101C300002480068C0F30220704700000CED00E08D
:101C400010B5002804DB0A07130E054A135406E0FA
:101C50000A07140E034A00F00F031B1FD45410BDD3
:101C600000E400E018ED00E002E008C8121F08C11F
:101C7000002AFAD170477047002001E001C1121F0D
:101C8000002AFBD1704780F31088704780F31088DA
:101C9000704700002DE9FF4F8DB00F460546002626
:101CA00006E025280BD0DDE90F1290476D1C761C4D
:101CB00028780028F5D111B03046BDE8F08F002417
:101CC000A246A1460122E94900E0044315F8013F7C
:101CD000203B02FA03F00842F7D128782A2810D0D6
:101CE0006FF02F022878A0F13001092914D80AEBEF
:101CF0008A0102EB410144F0020400EB010A6D1C71
:101D0000F0E701CF5FEA000A03D544F40054CAF1BA
:101D1000000A44F002046D1C28782E2817D115F80B
:101D2000010F44F004042A280ED06FF02F02287807
:101D3000A0F1300109290AD809EB890102EB410120
:101D400000EB01096D1CF2E757F8049B6D1C287825
:101D50006C280FD006DC4C2817D068280DD06A28D4
:101D600014D104E0742810D07A280FD10DE044F487
:101D700000140AE044F4801401E044F4401469784B
:101D8000814202D104F580146D1C6D1C28786E28E8
:101D90001ED00CDC632830D004DC00288BD05828FF
:101DA00011D19FE0642867D069280CD164E07328C2
:101DB0002DD004DC6F2872D0702804D194E07528EF
:101DC0006ED078286DD0DDE90F129047761C4BE17C
:101DD000C4F30250022806D0032809D0042801CFFA
:101DE00009D0066040E101CFF117C0E900613BE195
:101DF00001CF068038E1067036E117F8040B8DF844
:101E0000000000208DF80100EB46012003E057F8A8
:101E100004BB4FF0FF3061074FF0000102D40DE02A
:101E200008F10101884649450FDA8045F8DB1BF8C7
:101E300008100029F4D108E008F101018846814228
:101E4000FADB1BF808100029F6D1DDE90F23AAEB15
:101E500008008146214600F031F9304400EB0806C5
:101E600004E0DDE90F121BF8010B9047B8F10108FF
:101E7000F7D221464846F2E00A21C4F302524FF05D
:101E8000000B0891022A04D001CFC117032A09D000
:101E90000AE0FF1D27F00707F7E8020108E02CE041
:101EA0001EE01FE000B2C117042A01D140B2C117E1
:101EB000021E71F1000206DA0023D0EB030063EB8F
:101EC00001012D2202E0220504D52B228DF82420C9
:101ED000012203E0E20701D02022F7E7904653E019
:101EE0000A210BE0102109E010214FF0000B44F013
:101EF00004044FF00809089103E008214FF0000B9B
:101F00000891C4F30252022A04D001CF0021032A0F
:101F100006D006E0FF1D27F00707F7E8020103E0FF
:101F200080B2042A00D1C0B24FF0000822072BD59E
:101F30002A78702A07D0DDF820C08CF0100C5CEAFB
:101F40000B0C05D00EE040228DF82420012208E081
:101F500050EA010306D030238DF824308DF8252077
:101F600002229046089B83F0080353EA0B030BD12F
:101F700050EA010201D1620706D530228DF82420F3
:101F80004FF00108A9F101092A78582A04D038A293
:101F90000B9208AA0A920BE03AA2F9E75B46089A6C
:101FA000FEF710F90B9B9B5C0A9A521E0A92137063
:101FB00050EA0102F2D10A98ADEB000000F1200BCB
:101FC000600702D524F4803401E04FF00109D945BF
:101FD00002DDA9EB0B0000E0002000EB0B01414407
:101FE0000890AAEB010AE00306D4DDE90F2321469D
:101FF000504600F063F806444FF0000908E009A9D4
:1020000011F80900DDE90F12904709F10109761C6A
:10201000C145F4DBE0030CD5DDE90F232146504632
:1020200000F04CF8064404E0DDE90F123020904740
:10203000761C0899481E08900029F5DC08E00A98EB
:102040000A990078491C0A91DDE90F129047761C25
:10205000BBF10001ABF1010BF1DC21465046DDE99B
:102060000F2300F019F806446D1C21E60928010031
:1020700030313233343536373839616263646566FE
:1020800000000000303132333435363738394142C0
:1020900043444546000000002DE9F0410446002578
:1020A0001E461746880404D405E039462020B04770
:1020B0006D1C641EF9D52846BDE8F0812DE9F0417C
:1020C000044600251E469046C80301D5302700E08F
:1020D0002027880404D505E041463846B0476D1CEA
:1020E000641EF9D52846BDE8F081000001460429A8
:1020F00001DB0020704701EB4100084A02EB800041
:102100004078012808D1002001EB4102034B03EB8A
:10211000820250700120EDE70020EBE76000002014
:1021200010B5044604B910BD012C00D102240120D1
:10213000FFF7A9FD09480460002009490870FFF76E
:10214000A2FD06E000F074F805480078012800D1EF
:1021500000E0F7E700BF00BFE5E70000180000203F
:102160001C00002070B50546304800EB05142846D9
:10217000FEF77EFF00283ED02079052802DA0520F0
:10218000207152E020790A2803DA2079401C20715E
:102190004BE0A07A38B90120A07205EB4501491C3B
:1021A000C8B200F04BFA208900283EDDE088218982
:1021B00088420DDAE088401C80B2E08021898842A4
:1021C00033D105EB4501C91CC8B200F037FA2CE049
:1021D000E07A002829DD207B401CC0B22073E17A20
:1021E000884222DB0020207305EB4501491CC8B260
:1021F00000F024FA19E02079052802DD052020717D
:1022000010E0207918B12079401E20710AE0A07AF0
:10221000012807D10020A07205EB4501891CC8B236
:1022200000F00CFA0020E080207370BD4000002018
:10223000704710B5FEF798F9FFF7DAF800F06AF882
:1022400000F060F900F0B2F900F00CF910BD0000E8
:10225000F0B591B0402101A8FDF7ECFF4FF08045AB
:1022600000BF002000901F48006840F001001D4999
:1022700008600846006800F00100009000BF00BF41
:102280001948006847081948B7FBF0F0401E86B2AD
:10229000B5F1804F02D01648854202D14FF0FF348D
:1022A00001E04FF6FF740195029604940021059118
:1022B000039106918021079101A8FEF779FD20B1D5
:1022C00040F21F210BA0FEF732F8022200211C2051
:1022D000FEF79FF91C20FEF78CF901A8FEF783FD9D
:1022E00011B0F0BD403802403400002040420F00E1
:1022F000000C00402E2E5C2E2E5C557365725C62C5
:1023000073705C7372635C6273705F74696D657225
:102310002E63000010B500F07DF800F001F810BD4C
:1023200010B586B000BF002000903848006840F02B
:102330000400364908600846006800F00400009078
:1023400000BF00BF00BF002000900846006840F0BA
:10235000200008600846006800F02000009000BFE0
:1023600000BF00BF002000900846006840F08000D9
:1023700008600846006800F08000009000BF00BFC1
:1023800000BF002000900846006840F04000086050
:102390000846006800F04000009000BF00BF00BF8A
:1023A000002000900846006840F080000860084661
:1023B000006800F08000009000BF00BF00BF002058
:1023C00000900846006840F4807008600846006885
:1023D00000F48070009000BF00BF002002900390C6
:1023E0000320049000240CE0094800EBC40080881E
:1023F0000190074951F8340001A9FDF7A3FF601CC3
:10240000C4B2022CF0DB06B010BD00003038024030
:10241000602800080021114A9170D17011710020CC
:1024200018E064210E4A02EB0012118102210C4ACD
:1024300002EB001211710021094A02EB00129172A5
:10244000074A02EB0012D172054A02EB0012117327
:10245000411CC8B20228E4DB7047000000000020E5
:102460004000002000B587B000BF00200190234845
:10247000006840F00400214908600846006800F048
:102480000400019000BF00BF00BF0020019008467B
:10249000006840F0200008600846006800F0200056
:1024A000019000BF00BF00BF0020019008460068F7
:1024B00040F4807008600846006800F48070019065
:1024C00000BF00BF012000F085F8022000F082F874
:1024D0000120039000200490022005900002029049
:1024E00002A90748FDF72EFF4FF48060029002A971
:1024F0000348FDF727FF07B000BD00003038024059
:102500000014024070B5002416E0002004EB4401E2
:10251000214A02EB8101486004EB440102EB810196
:10252000886004EB440102EB8101487004EB440134
:1025300002F82100601CC4B2042CE6DB17480068D6
:102540004FF47A72B0FBF2F1481EB0F1807F00D3F5
:102550001BE0481E4FF0E022506150170F22002868
:1025600004DB13071D0E0E4B1D5406E013071E0E51
:102570000C4B00F00F052D1F5E5500BF00204FF0E3
:10258000E02290610720106100BF01200649087019
:10259000FFF75EFE70BD00006000002034000020E8
:1025A00000E400E018ED00E02400002010B5FFF783
:1025B0000DFBFEF7EBFCFEF7A5FE10BD10B50024E9
:1025C00004E02046FFF7CEFD601CC4B2022CF8DB0D
:1025D00010BD0000411EC8B220B94FF00071044A7E
:1025E000116004E0012802D18106014A11607047A0
:1025F00018140240411EC8B220B94FF40071044AB9
:10260000116004E0012802D18102014A1160704783
:1026100018140240012806D10749096881F40071A5
:10262000054A116007E0022805D10349096881F4D1
:102630008061014A11607047141402400649C9784C
:10264000054A50541146C978491CC9B2D1700229B3
:1026500001DB0021D17070470000002010B5FFF7AA
:10266000ADFF10BD70470000F0B591B004460D46B7
:1026700017461E4601940295002103910491059787
:1026800007910696089101A8FEF7C2FB20B140F21F
:10269000BA2102A0FDF74BFE11B0F0BD2E2E5C2E2C
:1026A0002E5C557365725C6273705C7372635C62FE
:1026B00073705F756172745F6669666F2E63000088
:1026C000416851B14168491E416031B901214170F1
:1026D0000178012901D181684160704770B50446D5
:1026E0000D46042C06DB124A12A11AA0FFF790FA3D
:1026F00000BFFEE70120FFF7C6FA04EB44001D49C6
:1027000001EB8000456004EB440001EB8000856034
:10271000002004EB4401174A02EB810148700120BC
:1027200004EB440102F821000020FFF7ACFA70BD71
:102730007F2800082E2E5C2E2E5C557365725C621D
:1027400073705C7372635C6273705F74696D6572E1
:102750002E6300004572726F723A2066696C6520C4
:1027600025732C2066756E6374696F6E202573283F
:10277000290D0A00600000202DE9F04105460E46B3
:1027800017462846FDF79EFD04460CB9BDE8F081CA
:10279000E06908B1E06980473A4631462046FFF7D4
:1027A000CCF900BFF2E713B50446012201A9204687
:1027B000FFF7E2FF1CBD70B504460D46E1B20020F4
:1027C000FFF7F1FF204670BDFFF733FDFEF7D8FCA1
:1027D000FEF78CFC0120FFF70DFF6420FFF7A0FC43
:1027E0000120FFF7F7FE6420FFF79AFC6421002028
:1027F000FFF774FF4FF4FA710120FFF76FFF15E048
:10280000FFF716FD0020FFF771FC28B10120FFF74C
:1028100001FF07A0FFF7FCF90120FFF767FC28B1D3
:102820000220FFF7F7FE08A0FFF7F2F9E8E7000043
:102830006273705F4C656431546F67676C652030FC
:102840002D3E313A0D0A00006273705F4C656432B0
:10285000546F67676C6520302D3E313A0D0A0000D9
:1028600000040240000200000004024000010000D9
:102870006273705F537461727454696D6572006243
:1028800073705F53746172744175746F54696D65D0
:1028900072006273705F53746F7054696D6572007B
:1028A0000000000000000000010203040607080900
:1028B00000000000010203042A2A2A2A2A2A2A2ABE
:1028C0002A2A2A2A2A2A2A2A2A2A2A2A2A2A535415
:1028D0004D3332463430375A475436BACBD0C4B071
:1028E000E5B2E2CAD42A2A2A2A2A2A2A2A2A2A2A03
:1028F0002A2A2A2A2A2A2A2A2A2A2A0A0D000000F3
:10290000202900080000002040000000681C00088A
:102910006029000840000020C00C0000781C00085E
:1029200000000000000000000000000000000000A7
:102930000000000000000000000000000000000097
:102940000000000000000000000000001000000077
:10295000010000000024F40000000000000000005E
:040000050800018965
:00000001FF
