:020000040800F2
:10000000C8150020A1010008931C0008C90F0008B2
:10001000911C00084B080008313100080000000066
:10002000000000000000000000000000E31F0008C6
:100030004D08000800000000391D0008B920000824
:10004000BB010008BB010008BB010008BB010008A0
:10005000BB010008BB010008BB010008BB01000890
:10006000BB010008BB010008BB010008BB01000880
:10007000BB010008BB010008BB010008BB01000870
:10008000BB010008BB010008BB010008BB01000860
:10009000BB010008BB010008BB010008BB01000850
:1000A000BB010008BB010008BB010008BB01000840
:1000B000BB01000819210008BB010008BB010008B2
:1000C000BB010008BB010008BB010008BB01000820
:1000D000BB0100089D2F0008BB010008BB01000800
:1000E000BB010008BB010008BB010008BB01000800
:1000F000BB010008BB010008BB010008BB010008F0
:10010000BB010008BB010008BB010008BB010008DF
:10011000BB010008BB010008BB010008BB010008CF
:10012000BB010008BB010008BB010008BB010008BF
:10013000BB010008BB010008BB010008BB010008AF
:10014000BB010008BB010008BB010008BB0100089F
:10015000BB010008BB010008BB010008BB0100088F
:10016000BB010008BB010008BB010008BB0100087F
:10017000BB010008BB010008BB010008BB0100086F
:10018000BB010008BB010008DFF810D000F02AFB1B
:1001900000480047593E0008AFF30080C815002012
:1001A0000648804706480047FEE7FEE7FEE7FEE711
:1001B000FEE7FEE7FEE7FEE7FEE7FEE7BD200008FC
:1001C000890100082DE9FE4F81EA030404F0004490
:1001D00021F0004100944FF0000B23F0004350EA5F
:1001E00001045ED052EA03045BD0C3F30A54C1F3A6
:1001F0000A552C44A4F2F3340194A0FB0254C1F339
:10020000130141F48011C3F3130343F4801301FB82
:10021000024400FB034E840A970A44EA815447EAE9
:100220008357A4FB076802958D0A05FB07854FEAF3
:10023000932C04FB0C542705029D4FEA065847EA0D
:100240001637B5EB08056EEB070C870E920E47EAE2
:10025000811742EA8312A7FB0201B6EB0B0164EBA4
:1002600000042B0D43EA0C335E1844EB1C50DA46B5
:100270005146E7FB0201C5F313044FEA0B3343EA8F
:1002800014534FEA0432019C43EA0603A4F10C0420
:100290000294009CCDE900B400F0D6F803B0BDE8AC
:1002A000F08F00200146F9E70EB540F2334102918C
:1002B0000021CDE900110A460B4600F0C5F803B055
:1002C00000BDC1F30A5210B5C1F3130140F2FF3370
:1002D00041F480119A4201DA002010BD40F233430C
:1002E0009A42A2F2334203DC524200F08EF810BD73
:1002F000904010BD00F0004230F000400AD0C10D27
:1003000001F56071C0F3160042EA0151C2084007CE
:1003100011437047002001467047000030B5041EAD
:1003200071F1000404DB4FF00044404264EB010132
:10033000141E73F1000405DB1C464FF000435242CB
:1003400063EB04038B4208BF824230BD30B5041E0C
:1003500071F1000404DB4FF00044404264EB010102
:10036000141E73F1000405DB1C464FF0004352429B
:1003700063EB0403994208BF904230BD30B50B4691
:10038000014600202022012409E021FA02F59D42C5
:1003900005D303FA02F5491B04FA02F52844151E99
:1003A000A2F10102F1DC30BD2DE9F05F054600202D
:1003B00092469B4688460646814640241BE02846D6
:1003C00041464746224600F020F853465A46C01A96
:1003D000914110D311461846224600F015FA2D1A05
:1003E00067EB01084F4622460120002100F00CFA7D
:1003F00017EB00094E41201EA4F10104DFDC484642
:1004000031462A464346BDE8F09F202A04DB203AC5
:1004100021FA02F00021704721FA02F3D040C2F124
:100420002002914008431946704710B5141E73F11D
:10043000000408DA401C41F1000192185B411A43A4
:1004400001D120F0010010BD2DE9F04D92469B46F0
:1004500011B1B1FA81F202E0B0FA80F22032904696
:1004600000F0D2F904460F4640EA0A0041EA0B01C7
:1004700053465A46084313D0114653EA010019D097
:10048000C8F140025046FFF7C0FF05460E465046F1
:100490005946424600F0B8F9084305D0012004E06F
:1004A00020463946BDE8F08D0020054346EAE07657
:1004B0002C4337430A986305E40AA0EB08000022A6
:1004C000FD0A44EA47540A3002D500200146E9E714
:1004D000010510196941DDE9084500196941BDE8C8
:1004E000F04DA2E72DE9FE4F804681EA0300C00FE0
:1004F0000C46009021F0004123F00045B8EB0200CB
:10050000A94105D24046214690461C460B4602466C
:1005100023F00040104347D0270DC7F30A00C3F370
:100520000A510290401A019040286BDAC3F313007D
:1005300040F4801B0098924620B10023D2EB030ABE
:1005400063EB0B0B01985946C0F14002504600F096
:100550005BF906460D4650465946019A00F063F98C
:1005600010EB08006141002487EA115284EAE77326
:100570001A4340D0009A62B3019A012A4FEA075207
:1005800015DC001B61EB02014FF0004202EA07524A
:10059000CDE90042001C41F5801132462B46FFF7A1
:1005A00053FF03B0BDE8F08F40462146F9E7001B3A
:1005B00061EB0201001C41F5801300185B4120181B
:1005C000A2F5001747EB030140EAD570B6196D415B
:1005D00011E06D084FEA360645EAC0754FEA07524A
:1005E000001B61EB0201001C41F5801149084FEA34
:1005F00030000019514132462B4603B0BDE8F04FA0
:10060000FFF713BF0098012240000023D0EB020245
:1006100063EBE073009821464FEAE074B8EB00000A
:1006200061EB0401E9E783F000435BE781F00041FF
:1006300058E72DE9F04D81EA030404F0004B21F066
:10064000004514464FF0000A23F0004150EA05022D
:1006500020D054EA01021DD0C5F30A570246C5F363
:100660001303C1F31300C1F30A5640F4801543F499
:100670008013A7EB0608101BD64608F2FD3873EB73
:10068000050002D308F1010801E092185B41B8F1BE
:10069000000F03DA00200146BDE8F08D00204FF482
:1006A0008011064684460EE0171B73EB050705D341
:1006B000121B63EB050306434CEA010C49084FEAA1
:1006C000300092185B4150EA0107EDD152EA030075
:1006D00012D082EA040083EA0501084305D0101B0A
:1006E000AB4106D20122002306E000224FF0004376
:1006F00002E06FF0010253101AEB06004CEB0851B8
:1007000010EB0A0041EB0B01BDE8F04DFFF78DBE89
:100710002DE9F04D00231A461B1A8A4103DB002005
:100720000146BDE8F08DC1F30A52C1F3130141F453
:1007300080154FF0000BD10702D100186D41521EF9
:100740000027044640F2FF11384601EB620A3E469C
:100750008046024600204FF48011FFF756FEC21972
:100760007141BB1846EB0100B4EB030C75EB000CB8
:1007700004D3E41A65EB000517460E46241908F168
:1007800001006D4180463428E3DDF91946EB06008F
:10079000091BA84103D24FF0FF32134601E00022AB
:1007A00013461BEB070046EB0A51BDE8F04DFFF77F
:1007B0003CBEC1F30A52C1F3130140F2FF3341F4CE
:1007C00080119A4202DA00200146704740F233431A
:1007D0009A42A2F2334202DC5242FFF716BE00F008
:1007E00013B80000064C074D06E0E06840F0010336
:1007F00094E8070098471034AC42F6D3FFF7C8FCE2
:10080000DC560008FC560008202A04DB203A00FAD7
:1008100002F1002070479140C2F1200320FA03F357
:10082000194390407047202A06DBCB17203A41FA43
:1008300002F043EAE07306E041FA02F3D040C2F16D
:1008400020029140084319467047FEE770470000B8
:1008500070B586B00121084601F070FA0121102020
:1008600001F096FA224E07220A21304600F091FB51
:1008700007220921304600F08CFB00248DF8164039
:1008800001208DF8170002258DF815508DF81450B1
:100890004102049104A9304600F03DFB8DF814504C
:1008A0006802049004A9304600F035FB4FF4E130B3
:1008B0000090ADF80440ADF80640ADF80840ADF842
:1008C0000C400C20ADF80A000A4C6946204602F0A4
:1008D000C9FB01F0DFF9012240F22551204602F068
:1008E000A6FB0121204602F06FFB06B070BD0000A0
:1008F0000000024000100140F0B585B014461D46CE
:100900000A4B1A88121A92B25B885B1A9BB2084F84
:100910004FF0100C00263F88CDE9005CCDE903764E
:10092000029400F08DFA05B0F0BD0000B401002083
:10093000240000208000A0F1C040002904D00168FC
:1009400041F00101016070470168024A11400160F5
:1009500070470000FEFF0F0010B5D0E901121143EF
:10096000D0E903231A4311434269114382691143B9
:10097000C2691143026A1143426A1143826A1143F8
:10098000C26A1143026B114302689200A2F1C04295
:1009900011608168082907D101688900A1F1C0416F
:1009A0000A6842F040020A60416BD1E9002342EA42
:1009B00003128B688C891B0243EA04431A430B8A97
:1009C00042EA03520B7D896942EA03620A430168E5
:1009D000491C8900A1F1C0410A60C16AB1F5804F8C
:1009E00008D000686FF070418000A0F1C040C0F8EE
:1009F000041110BD816BD1E9002342EA03128B6818
:100A00000C8A1B0243EA04531A430B7D896942EAAC
:100A1000036200680A438000A0F1C040C0F80421CE
:100A200010BD00002DE9F04105460C461646DFF8E2
:100A300058804FF400573946404600F0C3FA05206D
:100A400000F05DFA032000F021F8C4F3074000F045
:100A50001DF8C4F3072000F019F8E0B200F016F812
:100A6000002405E0FF2000F011F82855641CA4B212
:100A7000B442F7D33946404600F0A2FABDE8F0414F
:100A8000052000F03CBA0000000802402DE9F047C4
:100A900005460024DFF85490154F4FF400682806EF
:100AA00004D54146484600F08DFA03E041464846E9
:100AB00000F086FA0121384600F082FA6806060E38
:100AC0000421384600F075FA40EA0605012138464F
:100AD00000F078FA641CE4B2082CE0D30121384617
:100AE00000F070FA2846BDE8F087000000140240CC
:100AF0000004024030B4044610460D461A462178E0
:100B000020281DD009DC0C2812D0102814D0182859
:100B10001ED1104801FB020106E0302814D0402805
:100B200016D10D4801FB0201284630BCFFF77ABF01
:100B3000514301F50021F7E7084801FB0201F3E703
:100B4000074801FB0201EFE7064801FB0201EBE762
:100B500030BC70470012080000920800000808002E
:100B6000002608000048080030B4054608462C78E6
:100B70006978812C0AD3402908D3FF2906D0FF2C9D
:100B800004D07F290DD24039CDB20CE000210022E3
:100B900003E000F8012B491C89B29942F9D330BC1B
:100BA00070474139CDB2813CE1B2C1EB411404EB55
:100BB000811105EB410159430C2A0BD0102A0CD0AE
:100BC000182A0DD0202AEAD101F5601130BC1A464E
:100BD000FFF728BF044A1144F8E7044A1144F5E737
:100BE00001F5ED11F2E700000014090000DD11002D
:100BF0007CB50121262001F0A1F8062000900020FC
:100C00008DF804008DF8060003208DF805000124FE
:100C10008DF80740134D6946284600F07CF9694677
:100C2000284600F078F900948DF80440694628467B
:100C300000F071F9610300918DF8044069460A489B
:100C400000F069F9E10200918DF804406946074817
:100C500000F061F90121284600F0B4F900F008F82D
:100C60007CBD000000040240000802400014024065
:100C700070B586B04FF6FF7000F0A6FA0020002491
:100C80006D462C54401CC0B21828FAD31122002102
:100C90006846FFF7C7FE4FF4784610216B46324690
:100CA0000846FFF729FE00202C54401CC0B218282B
:100CB000FAD3082214216846FFF7B4FE6B46324689
:100CC00020211020FFF718FE00202C54401CC0B239
:100CD0001828FAD308221E216846FFF7A3FE6B46A8
:100CE000324630211020FFF707FE4FF4FA7003F070
:100CF00053F806B070BD2DE9F04FC1B082460D46E5
:100D000016461C46A946600701D0012000E00020DD
:100D100000EBD40B60080BFB00FB0C2C09D0102C53
:100D200007D0182C05D0202C03D0302C01D0402C1B
:100D300033D15B46224601A93046FFF7DBFE4FF078
:100D4000000828E001A810F808700026380605D52C
:100D5000294650464A9A00F057FB06E04C9820B9C5
:100D6000294650464B9A00F04FFB7806070E6D1C43
:100D7000ADB2A5EB0900A04205D14D460AF1010A2A
:100D80001FFA8AFA03E0761CB6B2082EDED308F109
:100D900001081FFA88F8D845D4D341B0BDE8F08FD8
:100DA0002DE9F04FA1B082460C4615461F46A146DC
:100DB000780701D0012000E0002000EBD70B0BFBEF
:100DC00007FB0C2F05D0102F03D0182F01D0202F98
:100DD00033D15B463A4601A92846FFF7C5FE4FF0DE
:100DE000000828E001A810F808600025300605D5A5
:100DF000214650462A9A00F007FB06E02C9820B9BD
:100E0000214650462B9A00F0FFFA7006060E641C2D
:100E1000A4B2A4EB0900B84205D14C460AF1010A7C
:100E20001FFA8AFA03E06D1CEDB2082DDED308F13B
:100E3000010808F0FF08D845D4D321B0BDE8F08FF1
:100E40002DE9FF4F83B00446DDE910750E46934649
:100E5000A046B2464FF0000920E0B9F1000F23D0C0
:100E60004FF0000908EB0B00401BA04202DA70199A
:100E700086B2444606985044401BB04211DBDDE97F
:100E800012121498CDE9001202902B463A463146D0
:100E90002046FFF785FFBF1C601984B23878002810
:100EA000DBD107B0BDE8F08F802802D94FF00109EF
:100EB000F4E708EB0B01A1EB5501A14202DA71192D
:100EC0008EB2444606995144491BB142E9DB0D28D4
:100ED00010D0DDE912121498CDE9001202902B46D1
:100EE0003A4631462046FFF706FF7F1C04EB5500CB
:100EF00084B2D3E7701986B244467F1CF5E700221E
:100F000006E00021491CC9B26429FBD3521CD2B2AD
:100F10008242F6D370472DE9F041002201274FF0BD
:100F2000030C07FA02F50B682B40AB422CD1066884
:100F300053000CFA03F4A64306600E79D0F8008043
:100F40009E4046EA080606600E79012E01D0022E68
:100F500012D18668A64386604E79D0F808809E40FC
:100F600046EA080686604668AE43466045688E7964
:100F70009640B6B235434560C568A543C560CC7997
:100F80009C40C3681C43C460521C102AC9D3BDE8EE
:100F9000F08110B54B07DB0E9A40C90800EB8100C9
:100FA000016A0F249C40A1430162016A114301625E
:100FB00010BD0246002012690A4200D0012070478D
:100FC0004183704701837047FEE7000070B5A82099
:100FD00002F0CCFE4FF4A06000F0A4FEFFF738FC56
:100FE00026A002F003FA00F02FFE2CA002F0FEF97A
:100FF00000F0C6F82EA002F0F9F900F029FA31A0AD
:1010000002F0F4F942F2CF0142F20F7001F0B4F8AD
:1010100031A002F0EBF902F0B5F835A002F0E6F9E4
:1010200039494FF4784008804FF4FA754EF614743D
:101030000BE036A002F0DAF9284602F0ADFE3AA045
:1010400002F0D4F9284602F0A7FE02F0F1F8A0421F
:10105000EFD13AA002F0CAF94FF6FF7000F0B4F8F1
:10106000FFF7C6FD39A002F0C1F93E48006880478D
:10107000BDE870403CA002F0B9B9000055534152A0
:1010800054315F436F6E66696775726174696F6E24
:101090000909095B4F4B5D200D0A00004C45445F78
:1010A000496E69740909095B4F4B5D200D0A000008
:1010B0004B45595F496E69740909095B4F4B5D20C7
:1010C0000D0A00004C43445F496E69740909095BCD
:1010D0004F4B5D200D0A000054494D335F496E743B
:1010E0005F496E697409095B4F4B5D200D0A000072
:1010F0005732355158585F496E69740909095B4F79
:101100004B5D200D0A0000002200002020573235E0
:1011100051313620436865636B204661696C6564B4
:101120002121210D0A00000020506C6561736520AB
:10113000436865636B2121210D0A00005732355148
:101140003136205265616479210D0A0047424B5FB8
:101150004C69625F496E697409095B4F4B5D200DF4
:101160000A0000003000002074705F6465762E690C
:101170006E69740909095B4F4B5D200D0A00000080
:101180007CB50121022000F0D9FD00208DF804007B
:1011900003208DF8050001248DF80740084D6946AD
:1011A0002846FFF7B8FE69462846FFF7B4FE0094CC
:1011B00002208DF8070069460248FFF7ACFE7CBDAF
:1011C0000004024000000240F0B5054600240C4F28
:1011D000002108467B883A8800F012FC3E88788817
:1011E00046430021084600F0EBFB00F01DFD4FF0E8
:1011F000D84102E0A1F88050641CB442FAD3F0BD9B
:10120000B4010020F0B400271E49F0222C242A2526
:101210002B264FF4A073002811D0012817D04FF0CF
:10122000010C02281BD0032822D08F710A804B802A
:101230000C814D818E810020F0BC00F071BB8F715C
:101240000A804B800C814D818E810020F4E78F71E4
:101250000A804B800C814D818E810320ECE781F860
:1012600006C00B804A800C814D818E810520E3E70A
:1012700081F806C00B804A800C814D818E8106204A
:10128000DAE70000B40100202DE9FE4F002500261A
:10129000171AA3EB010881468A46681E002F03DD5A
:1012A0004FF00101019107E003D14FF000010191DE
:1012B00002E00190C7F10007B8F1000F03DD4FF025
:1012C0000100009007E003D14FF00000009002E021
:1012D0000090C8F10008474501DD3C4600E0444667
:1012E0004FF0000B601C029016E01FFA8AF11FFA03
:1012F00089F00C9A00F088F83D444644A54202DD8E
:101300002D1B01988144A64202DD361B00988244C1
:101310000BF1010B1FFA8BFB02988345E5DDBDE85D
:10132000FE8F000000B500F04BFB00F07DFC024892
:1013300002490088088000BD220000208000006C67
:101340002DE9FF4F82B0074688460024154603204A
:10135000A0EB420653E0A8EB050081B207EB040ABC
:1013600001901FFA8AF0059A00F04EF8A8EB0400ED
:10137000009081B207EB05091FFA89F0059A00F089
:1013800043F808EB040B1FFA8BF11FFA89F0059A5A
:1013900000F03AF808EB05091FFA89F11FFA8AF004
:1013A000059A00F031F81FFA89F1A7EB04091FFA3A
:1013B00089F0059A00F028F8A7EB050A1FFA8BF1CF
:1013C0001FFA8AF0059A00F01FF80198059A81B279
:1013D0001FFA89F000F018F80098059A81B21FFAF8
:1013E0008AF000F011F8641C002E03DA06EB840684
:1013F000B61D04E0601B06EB80060A366D1EAC428B
:10140000A9DD06B0BDE8F08F30B504460D460E4BA1
:101410009888A0F51341413915D1588900F0FEFB99
:10142000200A00F0F5FBE0B200F0F2FB988900F032
:10143000F5FB280A00F0ECFBE8B200F0E9FB0348FA
:1014400019890180428030BDB40100207E00006C0B
:101450002DE9F04F9FB001217A2000F06FFC0121AF
:10146000084600F079FC4FF400401D904FF0010851
:101470008DF8788000248DF87A4002258DF8795017
:101480008DF87B801DA9FE48FFF745FD4CF23370B7
:101490001D908DF878508DF87A4003268DF879608C
:1014A0008DF87B80DFF8DC931DA94846FFF733FDFC
:1014B0004FF680701D908DF878508DF87A408DF839
:1014C00079608DF87B80DFF8C0A31DA95046FFF737
:1014D00022FDEF021D978DF878508DF87A408DF837
:1014E00079608DF87B80DFF8A4B31DA95846FFF71B
:1014F00012FD1D978DF878508DF87A408DF879603F
:101500008DF87B80E24D1DA92846FFF704FD0C22D3
:1015100000214846FFF73DFD0C2201214846FFF718
:1015200038FD0C2204214846FFF733FD0C2205212B
:101530004846FFF72EFD0C2208214846FFF729FDFB
:101540000C2209214846FFF724FD0C220A214846B7
:10155000FFF71FFD0C220E214846FFF71AFD0C2253
:101560000F214846FFF715FD0C2207215046FFF7D3
:1015700010FD0C2208215046FFF70BFD0C2209211B
:101580005046FFF706FD0C220A215046FFF701FDE9
:101590000C220B215046FFF7FCFC0C221146504652
:1015A000FFF7F7FC0C220D215046FFF7F2FC0C224E
:1015B0000E215046FFF7EDFC0C220F215046FFF79D
:1015C000E8FC0C2211465846FFF7E3FC0C221146BA
:1015D0002846FFF7DEFC0F2007900894182009909A
:1015E0000A940B940C940D9408200090019402909E
:1015F000039404940594069406200E900F9410947E
:101600001020119012941494139415941694179713
:101610001894800219901A9407A81B90CDF870D0E6
:101620000EA8FFF799F901210620FFF783F9322070
:1016300002F0B2FB002000F069F9964A90804FF664
:10164000FF7449F24135FF2804D3A04202D0B0F51F
:10165000134F14D1D32000F0E1FA00F04DF990803F
:1016600000F04AF9908000F047F904EA00209080E9
:1016700000F042F9918808439080A8427ED190887A
:10168000A8427CD1CF2000F0C9FA002000F0C0FAB7
:10169000C12000F0BDFA302000F0BAFAED2000F0D1
:1016A000BDFA642000F0B4FA032000F0B1FA122071
:1016B00000F0AEFA812000F0ABFAE82000F0AEFABC
:1016C000852000F0A5FA102000F0A2FA7A2000F0A0
:1016D0009FFACB2000F0A2FA392000F099FA2C20D2
:1016E00000F096FA002000F093FA342000F090FA0F
:1016F000022000F08DFAF72000F090FA202000F090
:1017000087FAEA2000F08AFA002000F081FA00202F
:1017100000F07EFAC02000F081FA1B2000F078FA79
:10172000C12000F07BFA012000F072FAC52000F021
:1017300075FA302000F06CFA302000F069FAC7200A
:1017400000F06CFAB72000F063FA362000F066FA79
:10175000482000F05DFA3A2000F060FA552000F0D1
:1017600057FAB12000F05AFA002000F051FA1A207E
:1017700000F04EFAB62000F051FA01E0AFE0A5E02B
:101780000A2000F045FAA22000F042FAF22000F010
:1017900045FA002000F03CFA262000F03FFA012034
:1017A00000F036FAE02000F039FA0F2000F030FAAD
:1017B0002A2000F02DFA282000F02AFA082000F054
:1017C00027FA0E2000F024FA082000F021FA542015
:1017D00000F01EFAA92000F01BFA432000F018FACE
:1017E0000A2000F015FA0F2000F012FA002000F095
:1017F0000FFA002000F00CFA002000F009FA002097
:1018000000F006FAE12000F009FA002000F000FAEA
:10181000152000F0FDF9172000F0FAF9072000F07C
:10182000F7F9112000F0F4F9062000F0F1F92B206F
:1018300000F0EEF9562000F0EBF93C2000F0E8F95A
:10184000052000F0E5F9102000F0E2F90F2000F08B
:10185000DFF93F2000F0DCF93F2000F0D9F90F203C
:1018600000F0D6F92B2000F0D9F9002000F0D0F9D3
:10187000002000F0CDF9012000F0CAF93F200BE074
:1018800000040240000C024000100240001402401C
:1018900000180240B401002000F0BAF92A2000F03C
:1018A000BDF9002000F0B4F9002000F0B1F90020EB
:1018B00000F0AEF9EF2000F0ABF9112000F0AEF926
:1018C000782002F069FA292000F0A8F90020FFF73B
:1018D00099FC0448C0F8BC822046FFF775FC1FB095
:1018E000BDE8F08F008040420346012000E05843ED
:1018F000491EC9B2FBD2704708B503480088009062
:10190000BDF8000008BD00008000006C10B500F0BC
:1019100085F9052002F05AFABDE81040FFF7ECBF48
:1019200010B50021254B9A88A2F51344413C43D1C0
:10193000082812D2DFE800F0110406080A0C0E1085
:1019400080210AE0402108E0C02106E0202104E0D7
:10195000602102E0A02100E0E02141F008013620F2
:1019600000F06CF9588900F059F9002000F050F9A6
:10197000002000F04DF91888401EC0F30F2000F041
:1019800047F91878401EC0B200F042F9988900F07B
:1019900045F9002000F03CF9002000F039F95888A2
:1019A000401EC0F30F2000F033F99878BDE81040D6
:1019B000401EC0B200F02CB910BD0000B4010020E0
:1019C00010B502460B460D4CA088A0F513414139D5
:1019D00013D1608900F022F9100A00F019F9D0B291
:1019E00000F016F9A08900F019F9180A00F010F9B2
:1019F000BDE81040D8B200F00BB910BDB401002012
:101A000070B504460D46A018401E82B2E818401E6C
:101A100083B2134EB088A0F5134141391FD17089AC
:101A200000F0FCF8200A00F0F3F8E0B200F0F0F863
:101A3000100A00F0EDF8D0B200F0EAF8B08900F03A
:101A4000EDF8280A00F0E4F8E8B200F0E1F8180A2E
:101A500000F0DEF8BDE87040D8B200F0D9B870BD33
:101A6000B40100202DE9F84F82460C461F46A346DC
:101A7000780701D0012000E0002000EBD7007908B2
:101A80004843C0B20090203A02F0FF09002648E027
:101A90000C2F13D0102F18D0182F45D1234909EB44
:101AA000C90001EB8000855D4FF00008280611D5C4
:101AB000214650460A9AFFF7A7FC13E01C4909EBA0
:101AC000490001EB8000855DEEE71A4800EB091044
:101AD000855DE9E70B9828B91748214642885046AA
:101AE000FFF792FC6806050E641CA4B213484088F8
:101AF000A04219D9A4EB0B00B84209D15C460AF107
:101B0000010A1FFA8AFA0D48008850450CD906E0F0
:101B100008F1010808F0FF08B8F1080FC6D3761CD9
:101B2000F6B200988642B3D3BDE8F88F04490008A6
:101B3000A03E00081443000822000020B401002049
:101B40002DE9FF4F82B08046DDF8409093461D4658
:101B5000002600240F98A24647081FE0281B401EBD
:101B6000C1B20A20FFF7C0FEBBFBF0F00A21B0FBB8
:101B7000F1F201FB120026B9691E8C4201DA90B124
:101B800001263030C2B2CDE9009A07FB048080B252
:101B90000F9B0399FFF766FF641CE4B2AC42DDD3F0
:101BA00006B0BDE8F08FCDE9009A07FB048080B253
:101BB00020220F9B0399FFF755FFEDE72DE9FC4F1E
:101BC0000446DDE90B7B0D9E0D4604F0FF0810195D
:101BD0001FFA80F958191FFA80FA12E04C4502D317
:101BE0004446E81985B2554510D20020CDE900B031
:101BF0003B4629462046FFF735FF04EB570084B2E9
:101C0000761C3278A2F120005E28E7D9BDE8FC8F6F
:101C100001490880704700008000006C014908807D
:101C2000704700007E00006C02480349008908806C
:101C300070470000B40100207E00006C014A108053
:101C4000518070477E00006C7CB50121202000F09F
:101C500075F84FF40075009501218DF804100020EF
:101C60008DF806008DF807108DF80500074E6946BF
:101C70003046FFF750F96C00009469463046FFF794
:101C80004AF902481830048005807CBD00140240E7
:101C9000FEE7704708B54FF4A06000F043F8252038
:101CA0008DF8000001208DF801008DF802008DF8FC
:101CB0000300684600F002F808BD000030B50F23AD
:101CC000C27801250178002A1FD0154A126802F453
:101CD000E062C2F5E062C2F30722C2F10404D3401D
:101CE0004278A24084781C401443220101F1E02193
:101CF00081F80024007800F01F018D404009800029
:101D000000F1E020C0F8005130BD01F01F00854017
:101D10004809800000F1E020C0F8805130BD00008B
:101D20000CED00E0024908430249086070470000DA
:101D30000000FA050CED00E070470000054A00299C
:101D400003D011680143116070471168814311602D
:101D50007047000030380240054A002903D011685E
:101D600001431160704711688143116070470000A2
:101D700038380240054A002903D011680143116038
:101D8000704711688143116070470000403802407D
:101D9000054A002903D0116801431160704711689A
:101DA000814311607047000044380240054A002911
:101DB00003D01168014311607047116881431160BD
:101DC000704700002438024070B5244B196801F0B8
:101DD0000C01234C00291ED0661004291DD00829AF
:101DE0001DD00460196801F0F00109091D4A545C16
:101DF0000168E14041601C6804F4E054A40A145DE9
:101E000021FA04F484601B6803F460435B0BD25C2A
:101E1000D140C16070BD0460E4E70660E2E70F4AAC
:101E2000121F1168C1F38055116801F03F0135B1EF
:101E3000B6FBF1F11468C4F38814614305E0B4FB08
:101E4000F1F11468C4F3881461431268C2F30142CB
:101E5000521C5200B1FBF2F10160C3E708380240A6
:101E60000024F4006E0000202DE9F04387B001212A
:101E70000846FFF763FF4FF4805801214046FFF703
:101E800087FF3827059702258DF8185000248DF814
:101E90001A4003208DF8190001268DF81B60DFF829
:101EA000849005A94846FFF736F8052203214846E5
:101EB000FFF76FF8052204214846FFF76AF805226C
:101EC00011464846FFF765F801214046FFF76EFFCF
:101ED00000214046FFF76AFFADF800404FF48270E2
:101EE000ADF80200ADF80440ADF80650ADF808605A
:101EF0002802ADF80A00ADF80C70ADF80E400720CE
:101F0000ADF81000084C6946204600F04EF801215B
:101F1000204600F033F8FF2000F008F807B0BDE8D5
:101F2000F0830000000402400030014070B5054617
:101F30000A4C0221204600F02DF80028F9D029464D
:101F4000204600F030F80121204600F023F8002858
:101F5000F9D0204600F025F8C0B270BD0030014035
:101F600001460548028822F03802028002880A43AE
:101F70000280012100F002B800300140002904D0A5
:101F8000018841F0400101807047018821F0400143
:101F9000018070470246002012890A4200D00120C9
:101FA0007047808970478181704730B5028802F49C
:101FB00041530A884C88CD8822438C882C43224385
:101FC0000C8922434C8922438C892243CC892243A9
:101FD0001A430280828B22F400628283098A018282
:101FE00030BD70470CB50022019200922749086865
:101FF00040F4803008604FF4A043086800F40030DB
:1020000000900198401C0190009810B901989842E6
:10201000F3D10868800302D50120009000E000920F
:102020000098012831D119484030026842F08052AE
:1020300002601748026842F44042026013480830C8
:1020400002680260026842F400420260026842F4E0
:10205000A0520260021F0F4B13600A6842F08072A8
:102060000A600A689201FCD50B4A40F205711160C2
:10207000016821F003010160016841F00201016083
:102080000168C1F381010229FAD10CBD0038024078
:102090000070004008544007003C02404FF0E0212F
:1020A000042804D0086920F004000861704708691A
:1020B00040F00400086170477047000010B51248F6
:1020C000016841F4700101601048016841F00101AC
:1020D00001600E4A00210832116002680C4B1A4060
:1020E0000260031D0B4A1A60026822F4802202601B
:1020F00006480C300160FFF775FF03494FF00060A0
:102100008039086010BD000088ED00E00038024012
:10211000FFFFF6FE1030002470B5114D0121284656
:1021200000F067F8012815D10E480268521C0260C1
:102130000D4B1968491C19600024642A00D90460F9
:10214000642900D91C60094909A001F04FF909A0D0
:1021500001F04CF92846BDE87040012100F03AB882
:10216000000400400000002004000020880000203F
:10217000257300000D0A00007FB504460D460121BD
:102180000220FFF7F7FD0294ADF804500020ADF8EF
:102190000600ADF80C000E4C01A9204600F040F8F6
:1021A00001221146204600F030F80121204600F0BF
:1021B00014F81D208DF8000001208DF80100032186
:1021C0008DF802108DF803006846FFF777FD7FBD9C
:1021D00000040040C94301827047002904D00188EF
:1021E00041F0010101807047018821F00101018067
:1021F000704702460020138A0B4092890A40002B48
:1022000002D0002A00D001207047002A03D0828922
:102210000A438281704782898A4382817047000025
:1022200030B50288164C174DA0420DD0A8420BD0F5
:10223000B0F1804F08D0144B984205D0134B984210
:1022400002D0134B984203D122F070034A881A43FC
:10225000104B984206D0104B984203D022F44073A2
:102260000A891A4302804A68C2620A880285A0422B
:1022700001D0A84201D1897A01860121818230BD35
:10228000000001400004014000040040000800403C
:10229000000C004000100040001400402DE9FF4FEA
:1022A00083B09046DDE911ABDDF840901F465548FC
:1022B0004FF478440480102553A0544ECDE90054C7
:1022C000029073883288A0212820FFF777FC50A065
:1022D000CDE90054029073883288A0217820FFF75E
:1022E0006DFC4CA0CDE90054029073883288B42173
:1022F0002820FFF763FC48A0CDE9005402907388C2
:102300003288B4217820FFF759FC44A0CDE900546D
:10231000029073883288C8212820FFF74FFC40A024
:10232000CDE90054029073883288C8217820FFF7E5
:1023300045FC3CA0CDE90054029073883288DC2132
:102340002820FFF73BFC38A0CDE9005402907388A9
:102350003288DC217820FFF731FC34A0CDE900542D
:10236000029073883288F0212820FFF727FCCDE9FE
:1023700000540423A0214020039AFFF7E1FBCDE99C
:1023800000540423A0219020049AFFF7D9FBCDE943
:10239000005404234246B4214020FFF7D1FBCDE98D
:1023A000005404233A46B4219020FFF7C9FBCDE93D
:1023B000005404234A46C8214020FFF7C1FBCDE961
:1023C000005404235246C8219020FFF7B9FBCDE901
:1023D000005404235A46DC214020FFF7B1FBCDE92D
:1023E00000540423DC219020139AFFF7A9FBCDE9C8
:1023F00000540323F0216020149AFFF7A1FB07B0DB
:10240000BDE8F08F2200002078313A00B4010020AE
:1024100079313A0078323A0079323A0078333A002A
:1024200079333A0078343A0079343A0066616320AF
:1024300069733A002DE9F04F2DED0C8B89B0002423
:1024400000251F20FE4F3880FE484FF6FF79A0F888
:1024500000904846FEF7B8FE00263E80FA484FF04E
:10246000100828210068CDE9008602906423A0228C
:102470000846FFF7A3FBF5A04FF47847CDE9000825
:10248000CDE902791023F022C82104960820FEF736
:10249000D7FCF4A0CDE90008CDE902791023F022A1
:1024A000DC2104960820FEF7CBFC14213A460846AE
:1024B00000F020FBDFF8C49389F820609FEDF00A5C
:1024C00089ED090A9FEDEFAB9FEDF0BB9FEDF19B0E
:1024D000F24EA9F1080AD9F804100120884799F8AA
:1024E00020000121B1EB901F48D1002520F04000D1
:1024F00089F8200005A8B9F80C1020F8241000EB8A
:102500008400B9F816104180641CE4B2012C06D096
:10251000022C12D0032C20D0042C2FD13DE014210A
:102520004FF6FF72084600F0E5FA30883A46143854
:1025300080B2142100F0DEFA20E030884FF6FF72FE
:10254000143880B2142100F0D5FA70883A46143855
:1025500081B2142000F0CEFA10E070884FF6FF72BE
:10256000143881B2142000F0C5FA70883A46143845
:1025700081B23088143880B200F0BCFA0A2001F031
:102580000BFC6D1CADB2B5F57A7FA4D900F0F4FA5E
:1025900009B0BDEC0C8BBDE8F08FBDF81400BDF8A0
:1025A0001810401A00D54042BDF81610BDF81A2088
:1025B000891A00D54942404349430844FDF774FE57
:1025C00041EC100B00F036FF51EC100BFDF779FEDB
:1025D00084B2BDF81C00BDF82010401A00D540425E
:1025E000BDF81E10BDF82220891A00D5494240438B
:1025F00049430844FDF758FE41EC100B00F01AFF68
:1026000051EC100BFDF75DFE1FFA80FB00EE104A47
:10261000F8EE400A00EE10BAB8EE401A80EE810AD9
:1026200010EE100AFDF766FE41EC180B53EC1A2B66
:1026300051EC180BFDF772FE7ED353EC1B2B51ECC3
:10264000180BFDF783FE77D3002C75D0BBF1000F7C
:1026500072D0BDF81400BDF81C10401A00D54042DD
:10266000BDF81610BDF81E20891A00D54942404316
:1026700049430844FDF718FE41EC100B00F0DAFE68
:1026800051EC100BFDF71DFE84B2BDF81800BDF82B
:102690002010401A00D54042BDF81A20BDF8221083
:1026A000511A00D54942404349430844FDF7FCFD17
:1026B00041EC100B00F0BEFE51EC100BFDF701FEDB
:1026C00080B200EE104AF8EE400A00EE100AB8EEB2
:1026D000401A80EE810A10EE100AFDF70BFE41EC65
:1026E000180BB0EE4ACAF0EE6ACA53EC1C2B51EC40
:1026F000180BFDF713FE0AD3B0EE4BDAF0EE6BDAEF
:1027000053EC1D2B51EC180BFDF720FE63D2002477
:1027100070884FF6FF72143881B23088143880B256
:1027200000F0E8F914213A46084600F0E3F953ECCA
:10273000192B51EC180B00E01CE0FDF743FDFDF7F1
:10274000C0FDBDF82020BDF82210BDF81E30CDE937
:10275000013280B2CDE90310BDF81C000090BDF835
:102760001A30BDF81820BDF81610BDF81400FFF798
:1027700095FDB0E6002470884FF6FF72143881B2E0
:102780003088143880B200F0B5F914213A46084672
:1027900000F0B0F953EC192B51EC180BFDF712FDBA
:1027A000FDF78FFDBDF82020BDF82210BDF81E30CA
:1027B000CDE9013280B2CDE90310BDF81C000090D4
:1027C000BDF81A30BDF81820BDF81610BDF8140079
:1027D000FFF764FD7FE6BDF81800BDF81C10401A35
:1027E00000D54042BDF81A10BDF81E20891A00D548
:1027F0004942404349430844FDF756FD41EC100B64
:1028000000F018FE51EC100BFDF75BFD84B2BDF833
:102810001400BDF82010401A00D54042BDF8161033
:10282000BDF82220891A00D5494240434943084453
:10283000FDF73AFD41EC100B00F0FCFD30E000002C
:1028400022000020240000209C3E0008D0A3D7BC1A
:10285000A3BAD2C0B4CEB5E3CBC4BDC7B5C4B5E34B
:1028600000000000202020202020BDF8D0D0B4A5FA
:10287000C3FEC6C1D0A3D7BC0000000030000020BA
:1028800000000000666666666666EE3FCDCCCCCC86
:10289000CCCCF03F0000000000005940B401002003
:1028A00051EC100BFDF70DFD80B200EE104AF8EE72
:1028B000400A00EE100AB8EE401A80EE810A10EECF
:1028C000100AFDF717FD41EC180B53EC1C2B51ECD3
:1028D000180BFDF723FD06D353EC1D2B51EC180B01
:1028E000FDF734FD30D2002470884FF6FF721438A3
:1028F00081B23088143880B200F0FCF814213A46D6
:10290000084600F0F7F853EC192B51EC180BFDF7C3
:1029100059FCFDF7D6FCBDF82020BDF82210BDF80B
:102920001E30CDE9013280B2CDE90310BDF81C00A4
:102930000090BDF81A30BDF81820BDF81610BDF88B
:102940001400FFF7ABFCC6E5BDF81810BDF8140085
:102950000A1A00EE102A3288B8EEC01AA2F1280333
:1029600000EE103AB8EEC00AC0EE010AC9ED090A3D
:10297000084400EE100AF6EE001AB8EE401A00EE17
:10298000102AB8EE400A00EEC10A20EE210A89EDB5
:102990000B0ABDF81E30BDF81600191A00EE101A09
:1029A0007188B8EEC01AA1F1280400EE104AB8EE02
:1029B000C02A82EE010A89ED0A0A184401EE100AC3
:1029C000B8EE412A01EE101AB8EE411A00EE421A92
:1029D00021EE211A89ED0C1AFDEEE00A10EE900AA4
:1029E000002800DA4042022808DCBDEEC00A10EEE2
:1029F000100A002800DA404202282EDD0024143A92
:102A0000143990B289B24FF6FF7200F073F81421B6
:102A10003A46084600F06EF824A0CDE900870290FF
:102A2000738832881A212820FFF7C8F899F83400F3
:102A300050B1002089F8340040B190208AF800009D
:102A4000D0208AF8010046E50120F3E7D0208AF87B
:102A5000000090208AF801003DE519491F200880F8
:102A60004FF6FF742046FEF7AFFB16A0CDE90087B6
:102A70000290738832886E212020FFF79FF8CDE9FD
:102A800001870020CDE9034014A000901023F0221C
:102A900082212020FEF7D4F94FF47A7001F07CF9FE
:102AA00000F0C8F92046FEF78FFB71E55450204E28
:102AB00065656420726561646A7573742100000045
:102AC00022000020546F7563682053637265656E41
:102AD0002041646A757374204F4B2100B4A5C3FE76
:102AE000C6C1D0A3D7BCCDEAB3C9A3AC4F4BA3A1F9
:102AF000A3A100002DE9F84304460D4616461D48E3
:102B0000068004F10D0082B2193880B22B462946A6
:102B10000096FEF7B9FB05F10D0083B2193881B2BA
:102B2000224620460096FEF7AFFB681C804681B225
:102B3000601C074680B2FEF7F5FB1FFA88F1601EA5
:102B4000804680B2FEF7EEFB681E814681B2B8B2C5
:102B5000FEF7E8FB1FFA89F11FFA88F0FEF7E2FBA7
:102B600001B0334629462046BDE8F0430622FEF771
:102B7000E7BB00002200002000B587B0182200212A
:102B800001A800F02DFB9DF815009DF816100A29EC
:102B900000D110B1002007B000BD17499DED010A1A
:102BA00081ED010AB8EEC01ADFED140A01F1080048
:102BB00081EE200A80ED090A9DED020AB8EEC00AF6
:102BC00080EE201A80ED0A1A9DED030AB8EEC00AC5
:102BD00080ED0B0A9DED040A81ED010AB8EEC00AF2
:102BE00080ED0C0A002280F83420D020087090205C
:102BF00048700120CFE700002800002020BCBE4C18
:102C00007CB501212620FFF799F8062000900020CE
:102C10008DF804008DF8060003208DF805000124CE
:102C20008DF807401A4D69462846FEF774F900945E
:102C30008DF8044069462846FEF76DF96003009060
:102C40008DF8044069461348FEF765F9E0020090EC
:102C50008DF8044069461048FEF75DF90F49A1F16F
:102C60000A000C46054600F08DF82146284600F083
:102C700089F8FFF781FF08B100207CBD4FF6FF7097
:102C8000FEF7A2FAFFF7D6FBFFF776FF01207CBD27
:102C900000040240000802400014024046000020E8
:102CA0002DE9F047002500241A4EA046C6F8808280
:102CB0001949C1F8AC82DFF86490C9F8B48200F019
:102CC00049F9062001F082F8C6F88082012001F05F
:102CD0007DF80127C6F88072012001F077F8C6F868
:102CE00080824FF6FF7A0AEA4404C6F88082012007
:102CF00001F06CF8C6F88072D6F8080208B1641CBE
:102D0000A4B26D1CEDB2102DEDD32009C9F8B47238
:102D1000BDE8F0870080404200804242000041420E
:102D2000FEB5064600246D463046FFF7B9FF25F88C
:102D30001400641CA4B2052CF6D30021481C0446E0
:102D400080B20BE035F8113035F81020934203D9EA
:102D500025F8112025F81030401C80B20528F1D349
:102D6000A1B20429EAD30021012035F81020114432
:102D700089B2401C80B20428F7D30320B1FBF0F0E5
:102D8000FEBD00002DE9F04104460F46064D2878AF
:102D9000FFF7C6FF06466878FFF7C2FF2680388037
:102DA0000120BDE8F0810000280000202DE9FF414E
:102DB00006460F4602A903A8FFF7E4FF88B3694659
:102DC00001A8FFF7DFFF68B3BDF80420BDF80C30A1
:102DD0009A4203D802F13200834205D3934226D8A7
:102DE00003F13200824222D2BDF80050BDF8084003
:102DF000A54203D805F13200844204D3AC4216D870
:102E00003234A54213D2981840083080BDF808002B
:102E1000BDF80010084440083880012004B0BDE827
:102E2000F08100E001E00020F8E70020F6E7002054
:102E3000F4E7000000B587B01848DFED190A011F5C
:102E400090ED090A20EE200ABDEEC00A81ED000ACD
:102E50008DED010A90ED0A0A20EE200ABDEEC00AAF
:102E60008DED020A90ED0B0ABDEEC00A8DED030A4E
:102E700090ED0C0ABDEEC00A81ED000A8DED040A4A
:102E8000002180F834108DF815100A208DF81600F6
:102E9000182201A800F000FA07B000BD30000020A1
:102EA00020BCBE4C10B529490968294C002908D01E
:102EB00094F8200001063DD520F0800084F8200021
:102EC0003FE00200224800F1160100F10C0002D0A0
:102ED000FFF76CFF22E0FFF769FFF8B1A08994EDDE
:102EE0000B0A00EE900A94ED091AF8EE600A01EE62
:102EF000200ABCEEC00A10EE100AA081E08A94ED10
:102F00000C0A00EE900A94ED0A1AF8EE600A01EE3F
:102F1000200ABCEEC00A10EE100AE08294F82000ED
:102F200000060ED4C02084F82000A089A082E08A88
:102F3000E08306E00020A082E0834FF6FF70A081CE
:102F4000E08294F8200000F0800010BD048240422E
:102F5000300000202DE9F04705460024DFF83480DA
:102F60000D4E00274FF00109280602D5C8F8AC9293
:102F700001E0C8F8AC726806050EC6F88072012040
:102F800000F024FFC6F88092641CE4B2082CEBD356
:102F9000BDE8F087008042420080404210B5094CF5
:102FA00040F22551204600F022F8002808D02046A3
:102FB00000F0B6F8C1B22046BDE8104000F0B4B849
:102FC00010BD000000100140002904D0818941F4A7
:102FD000005181817047818921F4005181817047BE
:102FE0000246002012880A4200D00120704770B5C6
:102FF000002440F66A12C1F3421301F01F050126B6
:1030000006FA05F2012B0CD0022B0DD0838A134057
:10301000090A8E40008830400BB100B101242046DF
:1030200070BD83891340F3E7038A1340F0E710B5BE
:1030300040F66A13C1F3421301F01F040121A140BD
:10304000012B07D0022B07D014303AB102680A4393
:10305000026010BD0C30F8E71030F6E702688A43D2
:10306000026010BD7FB504460D46208A20F4405111
:10307000E88808432082A08941F20C618843A9882E
:103080002A8911436A8902431143A181A08A20F44D
:103090004071A8890843A0826846FEF795FE1E4845
:1030A000844202D01D48844201D1039800E0029876
:1030B000A189090408D500EBC00101EB00102968C3
:1030C0004900B0FBF1F007E000EBC00101EB00109C
:1030D00029688900B0FBF1F06422B0FBF2F109012C
:1030E0000B096FF018056B4300EB8300A3891D04E7
:1030F0004FF0320307D503EBC000B0FBF2F000F055
:103100000700084306E003EB0010B0FBF2F000F00C
:103110000F00084320817FBD0010014000140140D2
:103120008088C0F308007047C1F3080181807047B0
:10313000FEE7000070B5044621460FA000F056F9E6
:10314000240300F0FBF800F0A1F80D4D00202860EA
:103150002020FEF7EBFEC4F30740FEF7E7FEC4F3C2
:103160000720FEF7E3FEE0B2FEF7E0FE0120286054
:10317000BDE8704000F08AB866653A25780D0A000F
:10318000B88240421CB501210220FEF7D7FD012183
:103190004020FEF7D3FD4FF48040009001248DF8CD
:1031A000044000208DF8060003208DF805008DF8FE
:1031B000074069460748FDF7AEFE07480460FEF782
:1031C00053FE0020FEF7CCFE00F032F803490880E1
:1031D0001CBD000000040240B8824042680000208C
:1031E0002DE9F04105460C461646104F0020C7F861
:1031F000B8020320FEF79AFEC4F30740FEF796FEDE
:10320000C4F30720FEF792FEE0B2FEF78FFE002423
:1032100005E0FF20FEF78AFE2855641CA4B2B442E4
:10322000F7D30120C7F8B802BDE8F0810080404222
:1032300070B50D4D00242C609020FEF777FE002025
:10324000FEF774FE0020FEF771FE0020FEF76EFE12
:10325000FF20FEF76BFE44EA0024FF20FEF766FE27
:1032600020430121296070BDB882404210B5064C50
:10327000002020600520FEF759FEFF20FEF756FED5
:103280000121216010BD0000B882404210B5FFF757
:10329000EDFFC007FBD110BD2DE9F05F80468A46E7
:1032A0001546DFF894904FEA1A37CAF30B06C6F5B5
:1032B0008054A54233D82C4631E0311819F801105A
:1032C000FF2903D1401C80B2A042F6D3A04214D201
:1032D0003846FFF72FFF002006E0821918F800108B
:1032E00009F80210401C80B2A042F6D359464FF4B0
:1032F0008052484600F02EF804E0224651464046EF
:1033000000F028F8A54214D07F1C0026A044A24457
:10331000281B85B24FF48054A54200D82C464FEAB2
:10332000073B4FF4805259464846FFF759FF0020AB
:10333000CAE7BDE8F09F0000C201002010B5044CB0
:10334000002020600620FEF7F1FD0120206010BD66
:10335000B88240422DE9F04107460E461546F0B2CC
:10336000C0F58074A54200D82C464FF4807807E061
:1033700027442644281B85B24446A54200D82C4643
:1033800022463146384600F005F8A542F0D1BDE8A6
:10339000F08100002DE9F04105460C461646FFF786
:1033A000CDFF114F0020C7F8B8020220FEF7BEFD86
:1033B000C4F30740FEF7BAFDC4F30720FEF7B6FDDD
:1033C000E0B2FEF7B3FD002404E0285DFEF7AEFD99
:1033D000641CA4B2B442F8D30120C7F8B802BDE817
:1033E000F041FFF753BF0000008040420FB4054B8F
:1033F00010B503A9044A029800F030F910BC5DF83A
:1034000014FB0000353E0008800000200FB4084B7C
:1034100010B504A902AA039800F020F9044602A9F5
:10342000002000F09EFC204610BC5DF814FB00005C
:10343000633D000800B52DED048BB0EE409AF0EE30
:10344000609A83B051EC190BFDF762F941EC180B4F
:1034500018EE100A18EE901A8DED008B002818BF98
:103460000120084320F00040C0F17F6000F1E040FF
:10347000C00F14D019EE101A19EE900A8DED009BB2
:10348000002918BF0121084320F00040C0F17F60EF
:1034900000F1E040C00F04BF012000F017F8B0EECB
:1034A000480A03B0F0EE680ABDEC048B00BD02E0F0
:1034B00008C8121F08C1002AFAD1704770470020BF
:1034C00001E001C1121F002AFBD1704701490860C9
:1034D00070470000840000202DE9FF5F82B00021CA
:1034E000DDE90430020DDDF840B0034318D044F6A6
:1034F0001050A2F2FF3242431514119801281FD038
:10350000A5EB0B00401C5FEA000A4FF000064E4F8F
:10351000DFF83891B046504615D5CAF1000413E0E3
:10352000119801244AA3012801D16FEA0B010298E6
:10353000119AC0E90031C0E9024206B0BDE8F09F2F
:10354000CBF10000DFE704460021404A491842EB76
:103550000450CDE9001012E0E00707D032463B46A8
:1035600040464946FCF72EFE8046894632463B4699
:1035700010461946FCF726FE06460F466410002C3E
:10358000EAD1DDE90401DDE90023BAF1000F06DA32
:10359000FCF718FE42464B46FCF714FE05E0FDF72B
:1035A00048F842464B46FDF744F804460E460022D2
:1035B000284BFCF7CBFE03D84FF0FF30014607E065
:1035C0000022254B20463146FCF78CFFFDF7F1F831
:1035D000102409E0002C0ADB0A220023FCF7E4FE99
:1035E000039B30321A55641E50EA0102F2D1641C6A
:1035F000039AC4F111031444119A012A03D0012241
:1036000008430DD10AE0084304D000204FF0110B0D
:10361000119072E7A3EB0B056D1E0DE05B4504DD19
:103620004FF0000205F1010504E003DA4FF000025B
:10363000A5F10105002AECD002981199C0E90231E8
:10364000C0E9004579E70000000014400000F03FA9
:10365000300000000000F0430000E03F2DE9FF4F84
:1036600095B09A46884606460025EEE1252877D192
:1036700000242746F94A0121039400E0044316F888
:10368000013F203B01FA03F01042F7D130782A289D
:1036900011D06FF02F033078A0F13002092A16D82C
:1036A000039A44F0020402EB820203EB420210444C
:1036B000761C0390EFE758F8042B0392002A03DAF4
:1036C000504244F40054039044F00204761C3078D5
:1036D0002E2816D116F8010F44F004042A280DD024
:1036E0006FF02F023078A0F13003092B09D807EBD7
:1036F000870302EB4303C718761CF3E758F8047BF3
:10370000761C30786C280FD006DC4C2817D068283F
:103710000DD06A2814D104E0742810D07A280FD173
:103720000DE044F400140AE044F4801401E044F491
:1037300040147278824202D104F58014761C761C03
:10374000307866280BD013DC582877D009DC0028A5
:1037500075D04528F6D04628F4D047281AD193E1F1
:1037600018E0632835D0642879D0652812D18BE120
:10377000702873D008DC6728F1D069286FD06E28D4
:103780000DD06F2806D1ACE073282CD0752874D0EA
:10379000782853D05246179990476D1C54E1C4F3D2
:1037A0000250022809D003280DD0D8F800100428B0
:1037B0000DD00D6008F1040846E1D8F80010EA17B2
:1037C000C1E90052F6E7D8F800100D80F2E70D705D
:1037D000F0E718F8041B8DF8001000208DF80100A8
:1037E000EB46012003E058F804BB4FF0FF306107BF
:1037F0004FF0000102D40DE009F101018946B94200
:103800000FDA8145F8DB1BF809100029F4D108E034
:1038100009F1010189468142FADB1BF809100029F0
:10382000F6D103985346A0EB090721463846179A6C
:1038300000F080FA284400EB090507E044E008E1C5
:103840000DE01BF8010B524617999047B9F1010999
:10385000F7D2534621463846179AF2E039E00A215A
:10386000C4F302524FF0000B0091022A06D058F820
:10387000040BC117032A09D00AE023E008F107006E
:1038800020F00702F2E80201904605E000B2C117FD
:10389000042A01D140B2C117002906DA0A460021E4
:1038A000404261EB02012D2202E0220504D52B22C9
:1038B0008DF80420012203E0E20701D02022F7E77F
:1038C000914657E00A2100E010214FF0000B0091D3
:1038D0000BE010214FF0000B44F004040827009186
:1038E00003E008204FF0000B0090C4F30252022ABC
:1038F00005D058F8040B0021032A08D008E008F18D
:10390000070020F00702F2E80201904603E080B2CF
:10391000042A00D1C0B24FF0000922072AD532781C
:10392000702A07D0DDF800C08CF0100C5CEA0B0C9C
:1039300005D00EE040228DF80420012208E050EA74
:10394000010306D030238DF804308DF805200222C3
:103950009146009B83F0080353EA0B030AD150EA17
:10396000010201D1620705D530228DF804204FF005
:1039700001097F1E3278582A04D039A20C920CAA71
:1039800002920BE03BA2F9E75B46009AFCF70CFDC4
:103990000C9B9B5C029A521E0292137050EA010229
:1039A000F2D1029804A9081A00F1200B600702D591
:1039B00024F4803400E001275F4502DDA7EB0B0013
:1039C00000E0002000EB0B01009003984944401AEE
:1039D0000390E00306D453462146179A039800F05B
:1039E000A9F90544002706E001A85246C05D1799D1
:1039F00090476D1C7F1C4F45F6DBE0030CD553460A
:103A00002146179A039800F095F9054404E0302008
:103A10005246179990476D1C0099481E0090002946
:103A2000F5DC08E00298029952460078491C0291A0
:103A3000179990476D1CBBF10001ABF1010BF1DC54
:103A40005BE100F065F90544761C307800287FF4CE
:103A50000DAE19B02846BDE8F08F0000092801001E
:103A600030313233343536373839616263646566F4
:103A700000000000303132333435363738394142B6
:103A80004344454600000000600700D4062708F1C3
:103A9000070020F00700F0E80223804603F0004C06
:103AA0005FEA0C0001D097A009E0200501D596A09F
:103AB00005E0E00701D095A001E0AFF24C001390C3
:103AC000307823F0004365280CD006DC452809D067
:103AD00046281DD047287FD13BE0662818D06728AC
:103AE0007AD136E00021112F01DB112000E0781C93
:103AF000CDE9000104A90CA8FFF7EEFCDDE90D01FA
:103B00000C9A4FF0000B07F10109109200914EE062
:103B10004FF000400097CDE9011004A90CA8FFF771
:103B2000DBFCDDE90D020C9B0F994FF0000B914679
:103B30001093009211B9791C00EB0109B7EB090051
:103B400003D4C0F1FF3B07F10109A9EB0700019085
:103B500042E0012F00DA01270021112F01DD1120A1
:103B600000E03846CDE9000104A90CA8FFF7B4FC39
:103B7000DDE90D010C9A00914FF0000BB94610924F
:103B800021070FD4009A4A4503DA914601E0A9F1D2
:103B90000109B9F1010F05DD109AA9F10101515C8C
:103BA0003029F4D0B84202DA10F1040F03DA01210F
:103BB000CDE9011010E0002803DC8344A9EB0001EB
:103BC00002E0411C494500DD8946A0EB0B00401C8A
:103BD00001904FF000400290200705D4019848451D
:103BE00002DB4FF0FF30019000208DF84B0002986F
:103BF0000DF14B07B0F1004F25D002200C902B2087
:103C00000D90029800280CDA404202902D200D9071
:103C100007E00A210298FCF7B1FB3031029007F867
:103C2000011D0C99481E0C900029F2DC0298002816
:103C3000EFD1791E0D980870307800F0200040F028
:103C4000450007F8020D11A8C01BC01D0290139873
:103C5000007800B1012000EB0901019801EBE0714F
:103C6000029801440398401A401E0390E00306D4D2
:103C700053462146179A039800F05CF805441398C0
:103C8000007818B15246179990476D1CE00323D570
:103C900053462146179A039800F04CF805441BE060
:103CA000BBF1000F07DB0098584504DD1098179909
:103CB00010F80B0001E01799302052469047019808
:103CC0000BF1010B401E05F10105019004D12E20DE
:103CD0005246179990476D1CB9F10001A9F10109ED
:103CE000DEDC05E017F8010B5246179990476D1C72
:103CF0000299481E02900029F4DC53462146179A87
:103D000003989EE62D0000002B000000200000001C
:103D10002DE9F041044600251E461746880404D4C8
:103D200005E039462020B0476D1C641EF9D52846B1
:103D3000BDE8F0812DE9F041044600251E4690467D
:103D4000C80301D5302700E02027880404D505E00A
:103D500041463846B0476D1C641EF9D52846BDE87B
:103D6000F0810A68531C0B601070704710B5044650
:103D70006FF00400FEF792F90649E008087000EBC6
:103D80004002C2EBC0104FF6FF7202EAC00048804A
:103D900010BD00006A00002070B54FF40775B0FB3D
:103DA000F5F1CCB2B0FBF5F105FB110604E02846B5
:103DB00000F026F8641EE4B2002CF8D1002E04D0E6
:103DC0003046BDE8704000F01BB870BD0B49097863
:103DD00048434FF0E021486100238B61086940F0BF
:103DE000010008610869C20701D0C003FAD508695B
:103DF00020F0010008618B61704700006A0000201C
:103E00000B49498848434FF0E021486100238B610A
:103E1000086940F0010008610869C20701D0C003C9
:103E2000FAD5086920F0010008618B617047000035
:103E30006A00002070B50446064DE1B22846FFF73F
:103E400073F980212846FFF7CBF80028F9D02046E7
:103E500070BD000000100140FDF7B8F807A0FFF7A3
:103E6000C5FA4FF47A70FFF797FF0A4C09490A48E0
:103E7000D4E900230831FFF7C9FAF7E74861726512
:103E8000776172655F49696E740909095B4F4B5D23
:103E9000200D0A0000000020880000206056000865
:103EA0000000000000000000000000000000000012
:103EB0003F400000000000000000300040003000E3
:103EC0004000000009000BC03D000BC03D00090090
:103ED00018C024407FE0224031800000180024C038
:103EE0001B000D803240018003801C4027401C8055
:103EF00007400040100060000000000000000000CB
:103F00000000000000001F802040402000004020F2
:103F100020401F8000000000090006001F800600EE
:103F200009000000040004003F80040004000000B9
:103F30000010006000000000000000000400040009
:103F40000400040004000000000000400000000025
:103F500000000000002001C0060038004000000002
:103F60001F802040204020401F80000000001040A3
:103F70003FC000400000000018C021402240244003
:103F80001840000010802040244024401B80000086
:103F900002000D0011003FC0014000003C802440A1
:103FA00024402440238000001F80244024403440CB
:103FB000038000003000200027C0380020000000EF
:103FC0001B802440244024401B8000001C0022C091
:103FD000224022401F800000000000000840000036
:103FE000000000000000000004600000000000006D
:103FF000000004000A001100208040400900090070
:104000000900090009000000000040402080110064
:104010000A000400180020002340240018000000BB
:104020001F802040274029401F400000004007C05B
:1040300039000F0001C0004020403FC02440244010
:104040001B8000001F802040204020403080000066
:1040500020403FC0204020401F80000020403FC043
:1040600024402E4030C0000020403FC024402E009D
:10407000300000000F0010802040224033800200FA
:1040800020403FC0040004003FC0204020402040AA
:104090003FC02040204000000060202020203FC082
:1040A0002000200020403FC024400B0030C02040B2
:1040B00020403FC020400040004000C03FC03C00C6
:1040C00003C03C003FC0000020403FC00C40230024
:1040D0003FC020001F802040204020401F80000063
:1040E00020403FC024402400180000001F802140D1
:1040F000214020E01FA0000020403FC024402600B7
:1041000019C0004018C024402440224031800000E3
:10411000300020403FC020403000000020003F80A1
:10412000004000403F80200020003E0001C007000A
:1041300038002000380007C03C0007C038000000ED
:10414000204039C0060039C020400000200038401F
:1041500007C0384020000000304021C026403840D1
:1041600020C00000000000007FE040204020000050
:10417000000070000C0003800040000000004020A0
:1041800040207FE0000000000000200040002000F0
:1041900000000000001000100010001000100010BF
:1041A000000000004000000000000000000002804D
:1041B0000540054003C0004020003FC004400440CB
:1041C000038000000000038004400440064000001B
:1041D00000000380044024403FC0004000000380F2
:1041E0000540054003400000000004401FC024407B
:1041F00024402000000002E0055005500650042035
:1042000020403FC00440040003C0004000000440C0
:1042100027C000400000000000100010041027E03C
:104220000000000020403FC00140070004C00440DF
:10423000204020403FC000400040000007C0040074
:1042400007C0040003C00000044007C0044004008D
:1042500003C00040000003800440044003800000CD
:10426000041007F0045004400380000000000380A5
:104270000440045007F00010044007C0024004004E
:1042800004000000000006400540054004C0000096
:10429000000004001F80044000400000040007806C
:1042A0000040044007C000400400070004C0018033
:1042B00006000400060001C0070001C0060000005F
:1042C000044006C0010006C00440000004100710AE
:1042D00004E00180060004000000044005C0064020
:1042E000044000000000000004007BE040200000CB
:1042F000000000000000FFF000000000000040206F
:104300007BE004000000000040008000400020002E
:10431000200040000000000000000000000000003D
:10432000000000000000000000001FCC000C000096
:1043300000000000000008003000600008003000AD
:1043400060000000022003FC1E20022003FC1E204F
:104350000220000000000E1811043FFF10840C78AA
:10436000000000000F0010840F3800C00778188488
:104370000078000000780F8410C411240E9800E427
:1043800000840008080068007000000000000000C1
:104390000000000000000000000007E018182004E2
:1043A00040020000000040022004181807E000004E
:1043B000000000000240024001800FF00180024036
:1043C000024000000080008000800FF80080008024
:1043D000008000000001000D000E00000000000041
:1043E000000000000000008000800080008000804D
:1043F000008000800000000C000C000000000000A5
:1044000000000000000000060018006001800600A7
:1044100018002000000007F0080810041004080825
:1044200007F000000000080408041FFC000400045A
:104430000000000000000E0C101410241044118421
:104440000E0C000000000C18100411041104128856
:104450000C700000000000E00320042408241FFC6E
:104460000024000000001F9810841104110410881B
:1044700010700000000007F008881104110418886B
:104480000070000000001C00100010FC13001C0055
:104490001000000000000E381144108410841144F4
:1044A0000E38000000000700088C104410440888F3
:1044B00007F00000000000000000030C030C0000E7
:1044C00000000000000000000001010600000000E4
:1044D00000000000000000800140022004100808D5
:1044E00010040000022002200220022002200220EC
:1044F00002200000000010040808041002200140FF
:104500000080000000000E001200100C106C1080E3
:104510000F00000003E00C1813E4142417C408284B
:1045200007D000000004003C03C41C40074000E426
:10453000001C000410041FFC1104110411040E8857
:104540000070000003E00C181004100410041008A0
:104550001C10000010041FFC1004100410040808B4
:1045600007F0000010041FFC1104110417C410040C
:104570000818000010041FFC1104110017C01000DF
:104580000800000003E00C181004100410441C780C
:104590000040000010041FFC108400800080108484
:1045A0001FFC10040000100410041FFC1004100471
:1045B0000000000000030001100110011FFE1000A8
:1045C0001000000010041FFC110403801464181C68
:1045D0001004000010041FFC100400040004000478
:1045E000000C000010041FFC1F0000FC1F001FFC3B
:1045F0001004000010041FFC0C04030000E010185D
:104600001FFC100007F0080810041004100408082C
:1046100007F0000010041FFC108410801080108030
:104620000F00000007F0081810241024101C080ABE
:1046300007F2000010041FFC1104110011C011301A
:104640000E0C000400000E1C110410841084104491
:104650001C3800001800100010041FFC100410008B
:104660001800000010001FF81004000400041004DB
:104670001FF8100010001E0011E0001C00701380D5
:104680001C0010001FC0103C00E01F0000E0103CA8
:104690001FC000001004180C163401C001C01634ED
:1046A000180C100410001C00130400FC13041C0060
:1046B000100000000804101C1064108413041C0473
:1046C000101800000000000000007FFE40024002C1
:1046D00040020000000030000C0003800060001C5D
:1046E0000003000000004002400240027FFE000084
:1046F00000000000000000002000400040004000DA
:104700002000000000010001000100010001000183
:1047100000010001000040004000200000000000F7
:1047200000000000000000980124014401440144FD
:1047300000FC000410001FFC008801040104008834
:1047400000700000000000700088010401040104F2
:1047500000880000000000700088010401041108B6
:104760001FFC0004000000F801440144014401441E
:1047700000C800000000010401040FFC1104110432
:1047800011001800000000D601290129012901C9E2
:104790000106000010041FFC008401000100010458
:1047A00000FC000400000104190419FC00040004CA
:1047B000000000000000000300010101190119FEC2
:1047C0000000000010041FFC0024004001B4010C94
:1047D000010400000000100410041FFC0004000489
:1047E00000000000010401FC0104010001FC0104BF
:1047F000010000FC010401FC00840100010001042F
:1048000000FC0004000000F801040104010401049C
:1048100000F80000010101FF008501040104008887
:104820000070000000000070008801040104010510
:1048300001FF00010104010401FC008401040100E6
:1048400001800000000000CC012401240124012487
:104850000198000000000100010007F801040104B4
:1048600000000000010001F8000400040004010839
:1048700001FC0004010001800170000C00100160C7
:104880000180010001F0010C003001C00030010C7A
:1048900001F0010000000104018C00740170018C22
:1048A00001040000010101810171000E0018016086
:1048B0000180010000000184010C013401440184E5
:1048C000010C0000000000000000000001003EFCA0
:1048D000400240020000000000000000FFFF000056
:1048E000000000000000400240023EFC0100000009
:1048F00000000000000060008000800040004000D8
:104900002000200000000000000000000000000067
:104910000000000000000000000000000000000097
:104920000000000000000000000000000000000087
:10493000000000000000000F80380FFE380F8038A4
:104940000000000000000000000000000000000067
:1049500000000100000600000C00003800003100DB
:10496000000600000C0000380000300000000000CD
:104970000000000061800067F807F9800061800096
:1049800061800061800061800067F807F980006144
:104990008000000000000000000001C0E003E0F023
:1049A0000630080418081FFFFE040E080787F003EE
:1049B00081E000000000000001F000060C0004048B
:1049C00008060C7001F9C0000E00003BE000EC1876
:1049D000070808040C180003E00000000001E000D4
:1049E00007F003F818041C0804170807E1D003C0F7
:1049F000E00023B0003C0800200800001000000088
:104A00000000000100003100003200001C00000026
:104A10000000000000000000000000000000000096
:104A20000000000000000000000000000000000086
:104A3000000000007F0001FFC00780F00C0018108C
:104A4000000420000200000000000020000210000E
:104A5000040C00180780F001FFC0007F0000000078
:104A60000000000000000000000000000000000046
:104A70004200006600006600003C0000180003FFD2
:104A8000C0001800003C0000660000660000420004
:104A900000000000080000080000080000080000F6
:104AA000080001FFC000080000080000080000081E
:104AB000000008000000000000010000310000328A
:104AC00000001C00000000000000000000000000CA
:104AD00000000000000000000000000008000008C6
:104AE000000008000008000008000008000008009E
:104AF000000800000800000800000000000000009E
:104B000000000000380000380000380000000000FD
:104B10000000000000000000000000000000000095
:104B200000000000000600001C0000700001800072
:104B30000E0000380000C0000700001C000030001C
:104B400000000000000000007F8001FFE003807093
:104B5000060018040008040008060018038070010D
:104B6000FFE0007F80000000000000000000010066
:104B70000801000801000803FFF807FFF80000081B
:104B80000000080000080000000000000000000114
:104B9000C03802C058040098040118040218040424
:104BA00018061C1803F81801E0F8000000000000C7
:104BB00000000001C0E003C0F0040008040808047D
:104BC000080806180803F41801E7F00001E00000E7
:104BD00000000000000000000300000D00001100B4
:104BE00000610000810803010807FFF80FFFF800CB
:104BF00001080001080000000000000000E007FCC0
:104C0000D00608080610080610080610080618380E
:104C1000060FF00607C000000000000000000000C2
:104C20003F8001FFE00384300208180410080410DC
:104C300008041008071810030FF00007C000000058
:104C400000000000000003C000070000060000068E
:104C500000F80607F806180006E000070000060046
:104C60000000000000000001E1E003F7F00634104E
:104C7000041808041808040C08040C080616180385
:104C8000F3F001C1E000000000000000F80003FCA8
:104C90003003063804020804020804020804041061
:104CA0000308F001FFC0007F0000000000000000CA
:104CB00000000000000000000000000070380070DC
:104CC0003800703800000000000000000000000004
:104CD00000000000000000000000000000000000D4
:104CE000301A00301C00000000000000000000002E
:104CF0000000000000000000000000080000140098
:104D000000220000410000808001004002002004D9
:104D10000010080008000000000000002100002131
:104D200000002100002100002100002100002100DE
:104D30000021000021000021000000000000000010
:104D4000000008000804001002002001004000805C
:104D50008000410000220000140000080000000054
:104D600000000003C00004C0000400000800380870
:104D70000F380808380810000C300007E00003C0A6
:104D800000000000000000003F8000FFE003807092
:104D9000020F1006708804C088048308047F88020C
:104DA000C09003012000FE40000008000018000130
:104DB000F8003E0801C20007020007E20000FE0002
:104DC000001FC80001F800003800000804000807B0
:104DD000FFF807FFF8040808040808040808040896
:104DE0000806180803F41801E7F00001E0000000CD
:104DF000000000003F8001FFE00380700200180403
:104E000000080400080400080400100600200780C1
:104E1000C000000004000807FFF807FFF8040008BE
:104E20000400080400080400180200100380700148
:104E3000FFE0007F8000000004000807FFF807FF84
:104E4000F8040808040808040808040808043E08D0
:104E500004000806001801006000000004000807B4
:104E6000FFF807FFF8040808040800040800040815
:104E700000043E0006000006000001800000000063
:104E8000000000003F8001FFE0038070060018046E
:104E900000080402080402080203F00783F000027D
:104EA0000000020004000807FFF807FFF8040808E4
:104EB00000080000080000080000080004080807B7
:104EC000FFF807FFF80400080000000000000400DD
:104ED0000804000804000807FFF807FFF8040008AA
:104EE00004000804000800000000000000000000AA
:104EF0000006000007000001040001040001040096
:104F00000307FFFE07FFFC0400000400000400008C
:104F100004000807FFF807FFF8040C080018000059
:104F20003E0004C7800503C80600F80400380400EA
:104F30001800000804000807FFF807FFF80400083D
:104F40000000080000080000080000080000080039
:104F5000001800006000000004000807FFF8078048
:104F60000807FC00007FC00003F80007C0007800BD
:104F700007800807FFF807FFF80400080400080787
:104F8000FFF807000803C00000E000003800001E22
:104F9000000007000001C00400F007FFF804000053
:104FA000000000007F8001FFE0038070060018040D
:104FB000000804000806001803003001FFE0007F2D
:104FC0008000000004000807FFF807FFF804040849
:104FD000040400040400040400040400060C00039C
:104FE000F80001F000000000000000007F8001FFD9
:104FF000E00380700600880400880400C806003CB6
:1050000003003E01FFE6007F840000000400080763
:10501000FFF807FFF8040808040800040C00040F58
:1050200000040BC00610F003F03801E0080000088F
:1050300000000001E0F803F0300630100418080406
:105040001808040C08040C080206180207F007816F
:10505000E0000000018000060000040000040000E1
:1050600004000807FFF807FFF80400080400000424
:10507000000006000001800004000007FFE007FFB9
:10508000F0040018000008000008000008000008F4
:1050900000000804001007FFE00400000400000600
:1050A000000007E00007FE00041FE00001F8000018
:1050B000380001E0043E0007C000060000040000C4
:1050C00004000007E00007FFC0041FF80007C00746
:1050D000F80007FF80043FF80007C004F80007004D
:1050E0000004000000000004000806001807C07853
:1050F00005F1C8003E00001F800463E80780F80641
:1051000000180400080000000400000600000780EA
:105110000007E008047C08001FF80007F8001808E2
:1051200004E0080700000600000400000000000181
:1051300000080600380400F80403E8040F08047CA3
:105140000805F00807C00807001804006000000008
:105150000000000000000000000000000000003F10
:10516000FFFE20000220000220000220000220009A
:10517000020000000000000000000800000700001E
:1051800000C0000038000006000001C00000300030
:10519000000E0000010000000000000000002000E0
:1051A000022000022000022000022000023FFFFE39
:1051B00000000000000000000000000000000000EF
:1051C0000000000000080000100000300000200077
:1051D0000030000010000008000000000000000087
:1051E00000000100000100000100000100000100BA
:1051F00000010000010000010000010000010000AA
:10520000010000010000000000000000002000007C
:10521000200000100000100000000000000000004E
:1052200000000000000000000000000000F0001975
:10523000F8001B180022080026080024080024108B
:10524000003FF8001FF800000800001800000004EC
:10525000000007FFF80FFFF00018180010080020EA
:1052600008002008003018001FF0000FC0000000E8
:105270000000000007C0001FF000183000200800E8
:105280002008002008003C08001C100000600000FE
:10529000000000000000000007C0001FF0003818E8
:1052A00000200800200800200804101007FFF80F55
:1052B000FFF00000100000000000000000000007E8
:1052C000C0001FF00012300022180022080022083F
:1052D000003208001E10000E200000000000000038
:1052E000200000200800200801FFF803FFF8062036
:1052F0000804200804200807200003000000000024
:1053000000000000000E000E6E001FF30031B1001F
:1053100020B10020B1003191001F13002E1E00208B
:105320000E00300000000004000807FFF80FFFF82F
:10533000001008002000002000002008003FF800B6
:105340001FF800000800000000000000000000201E
:1053500008002008002008063FF8063FF800000873
:10536000000008000008000000000000000000002D
:1053700000000000030000030020010020010020C5
:1053800003063FFE063FFC00000000000000000096
:1053900000000004000807FFF80FFFF80001880074
:1053A0000300002FC00038F800203800200800005B
:1053B00008000000000000000000040008040008CD
:1053C00004000807FFF80FFFF800000800000800BD
:1053D0000008000000000000002008003FF8003F27
:1053E000F8001008002000003FF8003FF800100807
:1053F000002000003FF8003FF80000080000000017
:105400002008003FF8003FF80010080010000020BE
:1054100000002008003FF8001FF80000080000000E
:105420000000000007C0000FF00018300030080036
:105430002008002008003008001830000FF0000796
:10544000C0000000000000002001003FFF003FFFFF
:10545000001011002009002008002008003038004A
:105460001FF0000FC00000000000000007C0001F78
:10547000F000381800200800200800200900101152
:10548000001FFF003FFF0000010000000020080097
:105490002008002008003FF8003FF800080800102E
:1054A000080020080020000030000030000000004C
:1054B000000000000000000C78001E1800330800F7
:1054C00023080021080021880021980030F00038CE
:1054D000600000000000000020000020000020000C
:1054E00000FFF003FFF8002008002008002008005B
:1054F0000030000000000000000000002000003F1D
:10550000F0007FF8000018000008000008002010DC
:10551000003FF8007FF000001000000000000000D5
:105520002000003000003C00003F800023F000001D
:1055300078000070002380003C0000300000200054
:10554000002000003C00003FE00023F80000E000E5
:105550002700003E00003FE00021F80001E0003E8F
:10556000000020000000000020080020080038385B
:10557000003E680027800003C8002CF8003838007F
:10558000201800200800000000000000200000306B
:1055900003003C01003F830023EC000070002380E7
:1055A000003C00002000002000000000000000007F
:1055B00000000038080020380020F80023E8002F01
:1055C00088003E0800380800201800007000000025
:1055D00000000000000000000000000000000000CB
:1055E00008000014001FF7FC300006200002000035
:1055F00000000000000000000000000000000000AB
:10560000000000000000FFFFFF000000000000009D
:10561000000000000000000000000000000020006A
:10562000023000061FF7FC00140000080000000014
:105630000000000000000000000000000000001852
:10564000000060000040000040000020000010004A
:10565000000800000400000400000C00001000001E
:10566000506C65617365207573652074686520737F
:1056700074796C757320636C69636B207468652042
:1056800063726F7373206F6E20746865207363722A
:1056900065656E2E5468652063726F737320776939
:1056A0006C6C20616C77617973206D6F7665207505
:1056B0006E74696C207468652073637265656E2012
:1056C00061646A7573746D656E7420697320636FAD
:1056D0006D706C657465642E00000000FC56000857
:1056E0000000002088000000AE3400088457000845
:1056F0008800002040150000BE3400080A000000A9
:105700000A0000007B2254656D70223A2225642233
:105710002C2248756D69223A222564227D00000002
:10572000FFFF0000D090000000000000012C0008E6
:10573000A52E00083524000800000000000000002D
:105740000000000000000000000000000000000059
:105750000000000000000000000000000000000049
:105760000000000014EF0000000000000000010233
:1057700003040102030406070809000000000000FA
:045780000000000025
:040000050800018965
:00000001FF
