Archive member included to satisfy reference by file (symbol)

h:/softwareapplication/e2studio/toolchains/gcc_arm/gcc-arm-none-eabi-10.3-2021.10/bin/../lib/gcc/arm-none-eabi/10.3.1/thumb/v8-m.main+fp/hard\libgcc.a(_aeabi_ldivmod.o)
                              ./ra/fsp/src/r_sci_uart/r_sci_uart.o (__aeabi_ldivmod)
h:/softwareapplication/e2studio/toolchains/gcc_arm/gcc-arm-none-eabi-10.3-2021.10/bin/../lib/gcc/arm-none-eabi/10.3.1/thumb/v8-m.main+fp/hard\libgcc.a(_udivmoddi4.o)
                              h:/softwareapplication/e2studio/toolchains/gcc_arm/gcc-arm-none-eabi-10.3-2021.10/bin/../lib/gcc/arm-none-eabi/10.3.1/thumb/v8-m.main+fp/hard\libgcc.a(_aeabi_ldivmod.o) (__udivmoddi4)
h:/softwareapplication/e2studio/toolchains/gcc_arm/gcc-arm-none-eabi-10.3-2021.10/bin/../lib/gcc/arm-none-eabi/10.3.1/thumb/v8-m.main+fp/hard\libgcc.a(_dvmd_tls.o)
                              h:/softwareapplication/e2studio/toolchains/gcc_arm/gcc-arm-none-eabi-10.3-2021.10/bin/../lib/gcc/arm-none-eabi/10.3.1/thumb/v8-m.main+fp/hard\libgcc.a(_aeabi_ldivmod.o) (__aeabi_ldiv0)
h:/softwareapplication/e2studio/toolchains/gcc_arm/gcc-arm-none-eabi-10.3-2021.10/bin/../lib/gcc/arm-none-eabi/10.3.1/../../../../arm-none-eabi/lib/thumb/v8-m.main+fp/hard\libg_nano.a(lib_a-errno.o)
                              ./ra/fsp/src/bsp/mcu/all/bsp_sbrk.o (__errno)
h:/softwareapplication/e2studio/toolchains/gcc_arm/gcc-arm-none-eabi-10.3-2021.10/bin/../lib/gcc/arm-none-eabi/10.3.1/../../../../arm-none-eabi/lib/thumb/v8-m.main+fp/hard\libg_nano.a(lib_a-exit.o)
                              h:/softwareapplication/e2studio/toolchains/gcc_arm/gcc-arm-none-eabi-10.3-2021.10/bin/../lib/gcc/arm-none-eabi/10.3.1/../../../../arm-none-eabi/lib/thumb/v8-m.main+fp/hard/crt0.o (exit)
h:/softwareapplication/e2studio/toolchains/gcc_arm/gcc-arm-none-eabi-10.3-2021.10/bin/../lib/gcc/arm-none-eabi/10.3.1/../../../../arm-none-eabi/lib/thumb/v8-m.main+fp/hard\libg_nano.a(lib_a-impure.o)
                              h:/softwareapplication/e2studio/toolchains/gcc_arm/gcc-arm-none-eabi-10.3-2021.10/bin/../lib/gcc/arm-none-eabi/10.3.1/../../../../arm-none-eabi/lib/thumb/v8-m.main+fp/hard\libg_nano.a(lib_a-exit.o) (_global_impure_ptr)
h:/softwareapplication/e2studio/toolchains/gcc_arm/gcc-arm-none-eabi-10.3-2021.10/bin/../lib/gcc/arm-none-eabi/10.3.1/../../../../arm-none-eabi/lib/thumb/v8-m.main+fp/hard\libg_nano.a(lib_a-init.o)
                              h:/softwareapplication/e2studio/toolchains/gcc_arm/gcc-arm-none-eabi-10.3-2021.10/bin/../lib/gcc/arm-none-eabi/10.3.1/../../../../arm-none-eabi/lib/thumb/v8-m.main+fp/hard/crt0.o (__libc_init_array)
h:/softwareapplication/e2studio/toolchains/gcc_arm/gcc-arm-none-eabi-10.3-2021.10/bin/../lib/gcc/arm-none-eabi/10.3.1/../../../../arm-none-eabi/lib/thumb/v8-m.main+fp/hard\libg_nano.a(lib_a-memcpy-stub.o)
                              ./ra/fsp/src/r_sci_uart/r_sci_uart.o (memcpy)
h:/softwareapplication/e2studio/toolchains/gcc_arm/gcc-arm-none-eabi-10.3-2021.10/bin/../lib/gcc/arm-none-eabi/10.3.1/../../../../arm-none-eabi/lib/thumb/v8-m.main+fp/hard\libg_nano.a(lib_a-memset.o)
                              h:/softwareapplication/e2studio/toolchains/gcc_arm/gcc-arm-none-eabi-10.3-2021.10/bin/../lib/gcc/arm-none-eabi/10.3.1/../../../../arm-none-eabi/lib/thumb/v8-m.main+fp/hard/crt0.o (memset)
h:/softwareapplication/e2studio/toolchains/gcc_arm/gcc-arm-none-eabi-10.3-2021.10/bin/../lib/gcc/arm-none-eabi/10.3.1/../../../../arm-none-eabi/lib/thumb/v8-m.main+fp/hard\libg_nano.a(lib_a-nano-vfprintf_float.o)
                              (_printf_float)
h:/softwareapplication/e2studio/toolchains/gcc_arm/gcc-arm-none-eabi-10.3-2021.10/bin/../lib/gcc/arm-none-eabi/10.3.1/../../../../arm-none-eabi/lib/thumb/v8-m.main+fp/hard\libg_nano.a(lib_a-nano-vfprintf_i.o)
                              h:/softwareapplication/e2studio/toolchains/gcc_arm/gcc-arm-none-eabi-10.3-2021.10/bin/../lib/gcc/arm-none-eabi/10.3.1/../../../../arm-none-eabi/lib/thumb/v8-m.main+fp/hard\libg_nano.a(lib_a-nano-vfprintf_float.o) (_printf_common)
h:/softwareapplication/e2studio/toolchains/gcc_arm/gcc-arm-none-eabi-10.3-2021.10/bin/../lib/gcc/arm-none-eabi/10.3.1/../../../../arm-none-eabi/lib/thumb/v8-m.main+fp/hard\libg_nano.a(lib_a-printf.o)
                              ./src/bsp_wifi_esp8266.o (printf)
h:/softwareapplication/e2studio/toolchains/gcc_arm/gcc-arm-none-eabi-10.3-2021.10/bin/../lib/gcc/arm-none-eabi/10.3.1/../../../../arm-none-eabi/lib/thumb/v8-m.main+fp/hard\libg_nano.a(lib_a-puts.o)
                              ./src/bsp_wifi_esp8266.o (puts)
h:/softwareapplication/e2studio/toolchains/gcc_arm/gcc-arm-none-eabi-10.3-2021.10/bin/../lib/gcc/arm-none-eabi/10.3.1/../../../../arm-none-eabi/lib/thumb/v8-m.main+fp/hard\libg_nano.a(lib_a-strlen.o)
                              h:/softwareapplication/e2studio/toolchains/gcc_arm/gcc-arm-none-eabi-10.3-2021.10/bin/../lib/gcc/arm-none-eabi/10.3.1/../../../../arm-none-eabi/lib/thumb/v8-m.main+fp/hard\libg_nano.a(lib_a-nano-vfprintf_float.o) (strlen)
h:/softwareapplication/e2studio/toolchains/gcc_arm/gcc-arm-none-eabi-10.3-2021.10/bin/../lib/gcc/arm-none-eabi/10.3.1/../../../../arm-none-eabi/lib/thumb/v8-m.main+fp/hard\libg_nano.a(lib_a-wbuf.o)
                              h:/softwareapplication/e2studio/toolchains/gcc_arm/gcc-arm-none-eabi-10.3-2021.10/bin/../lib/gcc/arm-none-eabi/10.3.1/../../../../arm-none-eabi/lib/thumb/v8-m.main+fp/hard\libg_nano.a(lib_a-puts.o) (__swbuf_r)
h:/softwareapplication/e2studio/toolchains/gcc_arm/gcc-arm-none-eabi-10.3-2021.10/bin/../lib/gcc/arm-none-eabi/10.3.1/../../../../arm-none-eabi/lib/thumb/v8-m.main+fp/hard\libg_nano.a(lib_a-wsetup.o)
                              h:/softwareapplication/e2studio/toolchains/gcc_arm/gcc-arm-none-eabi-10.3-2021.10/bin/../lib/gcc/arm-none-eabi/10.3.1/../../../../arm-none-eabi/lib/thumb/v8-m.main+fp/hard\libg_nano.a(lib_a-puts.o) (__swsetup_r)
h:/softwareapplication/e2studio/toolchains/gcc_arm/gcc-arm-none-eabi-10.3-2021.10/bin/../lib/gcc/arm-none-eabi/10.3.1/../../../../arm-none-eabi/lib/thumb/v8-m.main+fp/hard\libg_nano.a(lib_a-dtoa.o)
                              h:/softwareapplication/e2studio/toolchains/gcc_arm/gcc-arm-none-eabi-10.3-2021.10/bin/../lib/gcc/arm-none-eabi/10.3.1/../../../../arm-none-eabi/lib/thumb/v8-m.main+fp/hard\libg_nano.a(lib_a-nano-vfprintf_float.o) (_dtoa_r)
h:/softwareapplication/e2studio/toolchains/gcc_arm/gcc-arm-none-eabi-10.3-2021.10/bin/../lib/gcc/arm-none-eabi/10.3.1/../../../../arm-none-eabi/lib/thumb/v8-m.main+fp/hard\libg_nano.a(lib_a-fflush.o)
                              h:/softwareapplication/e2studio/toolchains/gcc_arm/gcc-arm-none-eabi-10.3-2021.10/bin/../lib/gcc/arm-none-eabi/10.3.1/../../../../arm-none-eabi/lib/thumb/v8-m.main+fp/hard\libg_nano.a(lib_a-wbuf.o) (_fflush_r)
h:/softwareapplication/e2studio/toolchains/gcc_arm/gcc-arm-none-eabi-10.3-2021.10/bin/../lib/gcc/arm-none-eabi/10.3.1/../../../../arm-none-eabi/lib/thumb/v8-m.main+fp/hard\libg_nano.a(lib_a-findfp.o)
                              h:/softwareapplication/e2studio/toolchains/gcc_arm/gcc-arm-none-eabi-10.3-2021.10/bin/../lib/gcc/arm-none-eabi/10.3.1/../../../../arm-none-eabi/lib/thumb/v8-m.main+fp/hard\libg_nano.a(lib_a-printf.o) (__sinit)
h:/softwareapplication/e2studio/toolchains/gcc_arm/gcc-arm-none-eabi-10.3-2021.10/bin/../lib/gcc/arm-none-eabi/10.3.1/../../../../arm-none-eabi/lib/thumb/v8-m.main+fp/hard\libg_nano.a(lib_a-fwalk.o)
                              h:/softwareapplication/e2studio/toolchains/gcc_arm/gcc-arm-none-eabi-10.3-2021.10/bin/../lib/gcc/arm-none-eabi/10.3.1/../../../../arm-none-eabi/lib/thumb/v8-m.main+fp/hard\libg_nano.a(lib_a-findfp.o) (_fwalk)
h:/softwareapplication/e2studio/toolchains/gcc_arm/gcc-arm-none-eabi-10.3-2021.10/bin/../lib/gcc/arm-none-eabi/10.3.1/../../../../arm-none-eabi/lib/thumb/v8-m.main+fp/hard\libg_nano.a(lib_a-localeconv.o)
                              h:/softwareapplication/e2studio/toolchains/gcc_arm/gcc-arm-none-eabi-10.3-2021.10/bin/../lib/gcc/arm-none-eabi/10.3.1/../../../../arm-none-eabi/lib/thumb/v8-m.main+fp/hard\libg_nano.a(lib_a-nano-vfprintf_float.o) (_localeconv_r)
h:/softwareapplication/e2studio/toolchains/gcc_arm/gcc-arm-none-eabi-10.3-2021.10/bin/../lib/gcc/arm-none-eabi/10.3.1/../../../../arm-none-eabi/lib/thumb/v8-m.main+fp/hard\libg_nano.a(lib_a-lock.o)
                              h:/softwareapplication/e2studio/toolchains/gcc_arm/gcc-arm-none-eabi-10.3-2021.10/bin/../lib/gcc/arm-none-eabi/10.3.1/../../../../arm-none-eabi/lib/thumb/v8-m.main+fp/hard\libg_nano.a(lib_a-findfp.o) (__retarget_lock_init_recursive)
h:/softwareapplication/e2studio/toolchains/gcc_arm/gcc-arm-none-eabi-10.3-2021.10/bin/../lib/gcc/arm-none-eabi/10.3.1/../../../../arm-none-eabi/lib/thumb/v8-m.main+fp/hard\libg_nano.a(lib_a-makebuf.o)
                              h:/softwareapplication/e2studio/toolchains/gcc_arm/gcc-arm-none-eabi-10.3-2021.10/bin/../lib/gcc/arm-none-eabi/10.3.1/../../../../arm-none-eabi/lib/thumb/v8-m.main+fp/hard\libg_nano.a(lib_a-wsetup.o) (__smakebuf_r)
h:/softwareapplication/e2studio/toolchains/gcc_arm/gcc-arm-none-eabi-10.3-2021.10/bin/../lib/gcc/arm-none-eabi/10.3.1/../../../../arm-none-eabi/lib/thumb/v8-m.main+fp/hard\libg_nano.a(lib_a-malloc.o)
                              h:/softwareapplication/e2studio/toolchains/gcc_arm/gcc-arm-none-eabi-10.3-2021.10/bin/../lib/gcc/arm-none-eabi/10.3.1/../../../../arm-none-eabi/lib/thumb/v8-m.main+fp/hard\libg_nano.a(lib_a-dtoa.o) (malloc)
h:/softwareapplication/e2studio/toolchains/gcc_arm/gcc-arm-none-eabi-10.3-2021.10/bin/../lib/gcc/arm-none-eabi/10.3.1/../../../../arm-none-eabi/lib/thumb/v8-m.main+fp/hard\libg_nano.a(lib_a-memchr-stub.o)
                              h:/softwareapplication/e2studio/toolchains/gcc_arm/gcc-arm-none-eabi-10.3-2021.10/bin/../lib/gcc/arm-none-eabi/10.3.1/../../../../arm-none-eabi/lib/thumb/v8-m.main+fp/hard\libg_nano.a(lib_a-nano-vfprintf_i.o) (memchr)
h:/softwareapplication/e2studio/toolchains/gcc_arm/gcc-arm-none-eabi-10.3-2021.10/bin/../lib/gcc/arm-none-eabi/10.3.1/../../../../arm-none-eabi/lib/thumb/v8-m.main+fp/hard\libg_nano.a(lib_a-mprec.o)
                              h:/softwareapplication/e2studio/toolchains/gcc_arm/gcc-arm-none-eabi-10.3-2021.10/bin/../lib/gcc/arm-none-eabi/10.3.1/../../../../arm-none-eabi/lib/thumb/v8-m.main+fp/hard\libg_nano.a(lib_a-dtoa.o) (_Balloc)
h:/softwareapplication/e2studio/toolchains/gcc_arm/gcc-arm-none-eabi-10.3-2021.10/bin/../lib/gcc/arm-none-eabi/10.3.1/../../../../arm-none-eabi/lib/thumb/v8-m.main+fp/hard\libg_nano.a(lib_a-nano-callocr.o)
                              h:/softwareapplication/e2studio/toolchains/gcc_arm/gcc-arm-none-eabi-10.3-2021.10/bin/../lib/gcc/arm-none-eabi/10.3.1/../../../../arm-none-eabi/lib/thumb/v8-m.main+fp/hard\libg_nano.a(lib_a-mprec.o) (_calloc_r)
h:/softwareapplication/e2studio/toolchains/gcc_arm/gcc-arm-none-eabi-10.3-2021.10/bin/../lib/gcc/arm-none-eabi/10.3.1/../../../../arm-none-eabi/lib/thumb/v8-m.main+fp/hard\libg_nano.a(lib_a-nano-freer.o)
                              h:/softwareapplication/e2studio/toolchains/gcc_arm/gcc-arm-none-eabi-10.3-2021.10/bin/../lib/gcc/arm-none-eabi/10.3.1/../../../../arm-none-eabi/lib/thumb/v8-m.main+fp/hard\libg_nano.a(lib_a-wsetup.o) (_free_r)
h:/softwareapplication/e2studio/toolchains/gcc_arm/gcc-arm-none-eabi-10.3-2021.10/bin/../lib/gcc/arm-none-eabi/10.3.1/../../../../arm-none-eabi/lib/thumb/v8-m.main+fp/hard\libg_nano.a(lib_a-nano-mallocr.o)
                              h:/softwareapplication/e2studio/toolchains/gcc_arm/gcc-arm-none-eabi-10.3-2021.10/bin/../lib/gcc/arm-none-eabi/10.3.1/../../../../arm-none-eabi/lib/thumb/v8-m.main+fp/hard\libg_nano.a(lib_a-findfp.o) (_malloc_r)
h:/softwareapplication/e2studio/toolchains/gcc_arm/gcc-arm-none-eabi-10.3-2021.10/bin/../lib/gcc/arm-none-eabi/10.3.1/../../../../arm-none-eabi/lib/thumb/v8-m.main+fp/hard\libg_nano.a(lib_a-nano-vfprintf.o)
                              h:/softwareapplication/e2studio/toolchains/gcc_arm/gcc-arm-none-eabi-10.3-2021.10/bin/../lib/gcc/arm-none-eabi/10.3.1/../../../../arm-none-eabi/lib/thumb/v8-m.main+fp/hard\libg_nano.a(lib_a-printf.o) (_vfprintf_r)
h:/softwareapplication/e2studio/toolchains/gcc_arm/gcc-arm-none-eabi-10.3-2021.10/bin/../lib/gcc/arm-none-eabi/10.3.1/../../../../arm-none-eabi/lib/thumb/v8-m.main+fp/hard\libg_nano.a(lib_a-sbrkr.o)
                              h:/softwareapplication/e2studio/toolchains/gcc_arm/gcc-arm-none-eabi-10.3-2021.10/bin/../lib/gcc/arm-none-eabi/10.3.1/../../../../arm-none-eabi/lib/thumb/v8-m.main+fp/hard\libg_nano.a(lib_a-nano-mallocr.o) (_sbrk_r)
h:/softwareapplication/e2studio/toolchains/gcc_arm/gcc-arm-none-eabi-10.3-2021.10/bin/../lib/gcc/arm-none-eabi/10.3.1/../../../../arm-none-eabi/lib/thumb/v8-m.main+fp/hard\libg_nano.a(lib_a-stdio.o)
                              h:/softwareapplication/e2studio/toolchains/gcc_arm/gcc-arm-none-eabi-10.3-2021.10/bin/../lib/gcc/arm-none-eabi/10.3.1/../../../../arm-none-eabi/lib/thumb/v8-m.main+fp/hard\libg_nano.a(lib_a-findfp.o) (__sread)
h:/softwareapplication/e2studio/toolchains/gcc_arm/gcc-arm-none-eabi-10.3-2021.10/bin/../lib/gcc/arm-none-eabi/10.3.1/../../../../arm-none-eabi/lib/thumb/v8-m.main+fp/hard\libg_nano.a(lib_a-writer.o)
                              h:/softwareapplication/e2studio/toolchains/gcc_arm/gcc-arm-none-eabi-10.3-2021.10/bin/../lib/gcc/arm-none-eabi/10.3.1/../../../../arm-none-eabi/lib/thumb/v8-m.main+fp/hard\libg_nano.a(lib_a-stdio.o) (_write_r)
h:/softwareapplication/e2studio/toolchains/gcc_arm/gcc-arm-none-eabi-10.3-2021.10/bin/../lib/gcc/arm-none-eabi/10.3.1/../../../../arm-none-eabi/lib/thumb/v8-m.main+fp/hard\libg_nano.a(lib_a-closer.o)
                              h:/softwareapplication/e2studio/toolchains/gcc_arm/gcc-arm-none-eabi-10.3-2021.10/bin/../lib/gcc/arm-none-eabi/10.3.1/../../../../arm-none-eabi/lib/thumb/v8-m.main+fp/hard\libg_nano.a(lib_a-stdio.o) (_close_r)
h:/softwareapplication/e2studio/toolchains/gcc_arm/gcc-arm-none-eabi-10.3-2021.10/bin/../lib/gcc/arm-none-eabi/10.3.1/../../../../arm-none-eabi/lib/thumb/v8-m.main+fp/hard\libg_nano.a(lib_a-fstatr.o)
                              h:/softwareapplication/e2studio/toolchains/gcc_arm/gcc-arm-none-eabi-10.3-2021.10/bin/../lib/gcc/arm-none-eabi/10.3.1/../../../../arm-none-eabi/lib/thumb/v8-m.main+fp/hard\libg_nano.a(lib_a-makebuf.o) (_fstat_r)
h:/softwareapplication/e2studio/toolchains/gcc_arm/gcc-arm-none-eabi-10.3-2021.10/bin/../lib/gcc/arm-none-eabi/10.3.1/../../../../arm-none-eabi/lib/thumb/v8-m.main+fp/hard\libg_nano.a(lib_a-fvwrite.o)
                              h:/softwareapplication/e2studio/toolchains/gcc_arm/gcc-arm-none-eabi-10.3-2021.10/bin/../lib/gcc/arm-none-eabi/10.3.1/../../../../arm-none-eabi/lib/thumb/v8-m.main+fp/hard\libg_nano.a(lib_a-nano-vfprintf.o) (__sfvwrite_r)
h:/softwareapplication/e2studio/toolchains/gcc_arm/gcc-arm-none-eabi-10.3-2021.10/bin/../lib/gcc/arm-none-eabi/10.3.1/../../../../arm-none-eabi/lib/thumb/v8-m.main+fp/hard\libg_nano.a(lib_a-isattyr.o)
                              h:/softwareapplication/e2studio/toolchains/gcc_arm/gcc-arm-none-eabi-10.3-2021.10/bin/../lib/gcc/arm-none-eabi/10.3.1/../../../../arm-none-eabi/lib/thumb/v8-m.main+fp/hard\libg_nano.a(lib_a-makebuf.o) (_isatty_r)
h:/softwareapplication/e2studio/toolchains/gcc_arm/gcc-arm-none-eabi-10.3-2021.10/bin/../lib/gcc/arm-none-eabi/10.3.1/../../../../arm-none-eabi/lib/thumb/v8-m.main+fp/hard\libg_nano.a(lib_a-locale.o)
                              h:/softwareapplication/e2studio/toolchains/gcc_arm/gcc-arm-none-eabi-10.3-2021.10/bin/../lib/gcc/arm-none-eabi/10.3.1/../../../../arm-none-eabi/lib/thumb/v8-m.main+fp/hard\libg_nano.a(lib_a-localeconv.o) (__global_locale)
h:/softwareapplication/e2studio/toolchains/gcc_arm/gcc-arm-none-eabi-10.3-2021.10/bin/../lib/gcc/arm-none-eabi/10.3.1/../../../../arm-none-eabi/lib/thumb/v8-m.main+fp/hard\libg_nano.a(lib_a-lseekr.o)
                              h:/softwareapplication/e2studio/toolchains/gcc_arm/gcc-arm-none-eabi-10.3-2021.10/bin/../lib/gcc/arm-none-eabi/10.3.1/../../../../arm-none-eabi/lib/thumb/v8-m.main+fp/hard\libg_nano.a(lib_a-stdio.o) (_lseek_r)
h:/softwareapplication/e2studio/toolchains/gcc_arm/gcc-arm-none-eabi-10.3-2021.10/bin/../lib/gcc/arm-none-eabi/10.3.1/../../../../arm-none-eabi/lib/thumb/v8-m.main+fp/hard\libg_nano.a(lib_a-mbtowc_r.o)
                              h:/softwareapplication/e2studio/toolchains/gcc_arm/gcc-arm-none-eabi-10.3-2021.10/bin/../lib/gcc/arm-none-eabi/10.3.1/../../../../arm-none-eabi/lib/thumb/v8-m.main+fp/hard\libg_nano.a(lib_a-locale.o) (__ascii_mbtowc)
h:/softwareapplication/e2studio/toolchains/gcc_arm/gcc-arm-none-eabi-10.3-2021.10/bin/../lib/gcc/arm-none-eabi/10.3.1/../../../../arm-none-eabi/lib/thumb/v8-m.main+fp/hard\libg_nano.a(lib_a-memmove.o)
                              h:/softwareapplication/e2studio/toolchains/gcc_arm/gcc-arm-none-eabi-10.3-2021.10/bin/../lib/gcc/arm-none-eabi/10.3.1/../../../../arm-none-eabi/lib/thumb/v8-m.main+fp/hard\libg_nano.a(lib_a-fvwrite.o) (memmove)
h:/softwareapplication/e2studio/toolchains/gcc_arm/gcc-arm-none-eabi-10.3-2021.10/bin/../lib/gcc/arm-none-eabi/10.3.1/../../../../arm-none-eabi/lib/thumb/v8-m.main+fp/hard\libg_nano.a(lib_a-mlock.o)
                              h:/softwareapplication/e2studio/toolchains/gcc_arm/gcc-arm-none-eabi-10.3-2021.10/bin/../lib/gcc/arm-none-eabi/10.3.1/../../../../arm-none-eabi/lib/thumb/v8-m.main+fp/hard\libg_nano.a(lib_a-nano-freer.o) (__malloc_lock)
h:/softwareapplication/e2studio/toolchains/gcc_arm/gcc-arm-none-eabi-10.3-2021.10/bin/../lib/gcc/arm-none-eabi/10.3.1/../../../../arm-none-eabi/lib/thumb/v8-m.main+fp/hard\libg_nano.a(lib_a-nano-reallocr.o)
                              h:/softwareapplication/e2studio/toolchains/gcc_arm/gcc-arm-none-eabi-10.3-2021.10/bin/../lib/gcc/arm-none-eabi/10.3.1/../../../../arm-none-eabi/lib/thumb/v8-m.main+fp/hard\libg_nano.a(lib_a-fvwrite.o) (_realloc_r)
h:/softwareapplication/e2studio/toolchains/gcc_arm/gcc-arm-none-eabi-10.3-2021.10/bin/../lib/gcc/arm-none-eabi/10.3.1/../../../../arm-none-eabi/lib/thumb/v8-m.main+fp/hard\libg_nano.a(lib_a-readr.o)
                              h:/softwareapplication/e2studio/toolchains/gcc_arm/gcc-arm-none-eabi-10.3-2021.10/bin/../lib/gcc/arm-none-eabi/10.3.1/../../../../arm-none-eabi/lib/thumb/v8-m.main+fp/hard\libg_nano.a(lib_a-stdio.o) (_read_r)
h:/softwareapplication/e2studio/toolchains/gcc_arm/gcc-arm-none-eabi-10.3-2021.10/bin/../lib/gcc/arm-none-eabi/10.3.1/../../../../arm-none-eabi/lib/thumb/v8-m.main+fp/hard\libg_nano.a(lib_a-reent.o)
                              h:/softwareapplication/e2studio/toolchains/gcc_arm/gcc-arm-none-eabi-10.3-2021.10/bin/../lib/gcc/arm-none-eabi/10.3.1/../../../../arm-none-eabi/lib/thumb/v8-m.main+fp/hard\libg_nano.a(lib_a-sbrkr.o) (errno)
h:/softwareapplication/e2studio/toolchains/gcc_arm/gcc-arm-none-eabi-10.3-2021.10/bin/../lib/gcc/arm-none-eabi/10.3.1/../../../../arm-none-eabi/lib/thumb/v8-m.main+fp/hard\libg_nano.a(lib_a-strcmp.o)
                              h:/softwareapplication/e2studio/toolchains/gcc_arm/gcc-arm-none-eabi-10.3-2021.10/bin/../lib/gcc/arm-none-eabi/10.3.1/../../../../arm-none-eabi/lib/thumb/v8-m.main+fp/hard\libg_nano.a(lib_a-locale.o) (strcmp)
h:/softwareapplication/e2studio/toolchains/gcc_arm/gcc-arm-none-eabi-10.3-2021.10/bin/../lib/gcc/arm-none-eabi/10.3.1/../../../../arm-none-eabi/lib/thumb/v8-m.main+fp/hard\libg_nano.a(lib_a-wctomb_r.o)
                              h:/softwareapplication/e2studio/toolchains/gcc_arm/gcc-arm-none-eabi-10.3-2021.10/bin/../lib/gcc/arm-none-eabi/10.3.1/../../../../arm-none-eabi/lib/thumb/v8-m.main+fp/hard\libg_nano.a(lib_a-locale.o) (__ascii_wctomb)
h:/softwareapplication/e2studio/toolchains/gcc_arm/gcc-arm-none-eabi-10.3-2021.10/bin/../lib/gcc/arm-none-eabi/10.3.1/../../../../arm-none-eabi/lib/thumb/v8-m.main+fp/hard\libg_nano.a(lib_a-ctype_.o)
                              h:/softwareapplication/e2studio/toolchains/gcc_arm/gcc-arm-none-eabi-10.3-2021.10/bin/../lib/gcc/arm-none-eabi/10.3.1/../../../../arm-none-eabi/lib/thumb/v8-m.main+fp/hard\libg_nano.a(lib_a-locale.o) (_ctype_)
h:/softwareapplication/e2studio/toolchains/gcc_arm/gcc-arm-none-eabi-10.3-2021.10/bin/../lib/gcc/arm-none-eabi/10.3.1/../../../../arm-none-eabi/lib/thumb/v8-m.main+fp/hard\libg_nano.a(lib_a-nano-msizer.o)
                              h:/softwareapplication/e2studio/toolchains/gcc_arm/gcc-arm-none-eabi-10.3-2021.10/bin/../lib/gcc/arm-none-eabi/10.3.1/../../../../arm-none-eabi/lib/thumb/v8-m.main+fp/hard\libg_nano.a(lib_a-nano-reallocr.o) (_malloc_usable_size_r)
h:/softwareapplication/e2studio/toolchains/gcc_arm/gcc-arm-none-eabi-10.3-2021.10/bin/../lib/gcc/arm-none-eabi/10.3.1/thumb/v8-m.main+fp/hard\libgcc.a(_arm_muldf3.o)
                              h:/softwareapplication/e2studio/toolchains/gcc_arm/gcc-arm-none-eabi-10.3-2021.10/bin/../lib/gcc/arm-none-eabi/10.3.1/../../../../arm-none-eabi/lib/thumb/v8-m.main+fp/hard\libg_nano.a(lib_a-dtoa.o) (__aeabi_dmul)
h:/softwareapplication/e2studio/toolchains/gcc_arm/gcc-arm-none-eabi-10.3-2021.10/bin/../lib/gcc/arm-none-eabi/10.3.1/thumb/v8-m.main+fp/hard\libgcc.a(_arm_addsubdf3.o)
                              h:/softwareapplication/e2studio/toolchains/gcc_arm/gcc-arm-none-eabi-10.3-2021.10/bin/../lib/gcc/arm-none-eabi/10.3.1/../../../../arm-none-eabi/lib/thumb/v8-m.main+fp/hard\libg_nano.a(lib_a-dtoa.o) (__aeabi_dsub)
h:/softwareapplication/e2studio/toolchains/gcc_arm/gcc-arm-none-eabi-10.3-2021.10/bin/../lib/gcc/arm-none-eabi/10.3.1/thumb/v8-m.main+fp/hard\libgcc.a(_arm_muldivdf3.o)
                              h:/softwareapplication/e2studio/toolchains/gcc_arm/gcc-arm-none-eabi-10.3-2021.10/bin/../lib/gcc/arm-none-eabi/10.3.1/../../../../arm-none-eabi/lib/thumb/v8-m.main+fp/hard\libg_nano.a(lib_a-dtoa.o) (__aeabi_ddiv)
h:/softwareapplication/e2studio/toolchains/gcc_arm/gcc-arm-none-eabi-10.3-2021.10/bin/../lib/gcc/arm-none-eabi/10.3.1/thumb/v8-m.main+fp/hard\libgcc.a(_arm_cmpdf2.o)
                              h:/softwareapplication/e2studio/toolchains/gcc_arm/gcc-arm-none-eabi-10.3-2021.10/bin/../lib/gcc/arm-none-eabi/10.3.1/../../../../arm-none-eabi/lib/thumb/v8-m.main+fp/hard\libg_nano.a(lib_a-nano-vfprintf_float.o) (__aeabi_dcmpeq)
h:/softwareapplication/e2studio/toolchains/gcc_arm/gcc-arm-none-eabi-10.3-2021.10/bin/../lib/gcc/arm-none-eabi/10.3.1/thumb/v8-m.main+fp/hard\libgcc.a(_arm_unorddf2.o)
                              h:/softwareapplication/e2studio/toolchains/gcc_arm/gcc-arm-none-eabi-10.3-2021.10/bin/../lib/gcc/arm-none-eabi/10.3.1/../../../../arm-none-eabi/lib/thumb/v8-m.main+fp/hard\libg_nano.a(lib_a-nano-vfprintf_float.o) (__aeabi_dcmpun)
h:/softwareapplication/e2studio/toolchains/gcc_arm/gcc-arm-none-eabi-10.3-2021.10/bin/../lib/gcc/arm-none-eabi/10.3.1/thumb/v8-m.main+fp/hard\libgcc.a(_arm_fixdfsi.o)
                              h:/softwareapplication/e2studio/toolchains/gcc_arm/gcc-arm-none-eabi-10.3-2021.10/bin/../lib/gcc/arm-none-eabi/10.3.1/../../../../arm-none-eabi/lib/thumb/v8-m.main+fp/hard\libg_nano.a(lib_a-dtoa.o) (__aeabi_d2iz)
h:/softwareapplication/e2studio/toolchains/gcc_arm/gcc-arm-none-eabi-10.3-2021.10/bin/../lib/gcc/arm-none-eabi/10.3.1/../../../../arm-none-eabi/lib/thumb/v8-m.main+fp/hard\libnosys.a(close.o)
                              h:/softwareapplication/e2studio/toolchains/gcc_arm/gcc-arm-none-eabi-10.3-2021.10/bin/../lib/gcc/arm-none-eabi/10.3.1/../../../../arm-none-eabi/lib/thumb/v8-m.main+fp/hard\libg_nano.a(lib_a-closer.o) (_close)
h:/softwareapplication/e2studio/toolchains/gcc_arm/gcc-arm-none-eabi-10.3-2021.10/bin/../lib/gcc/arm-none-eabi/10.3.1/../../../../arm-none-eabi/lib/thumb/v8-m.main+fp/hard\libnosys.a(fstat.o)
                              h:/softwareapplication/e2studio/toolchains/gcc_arm/gcc-arm-none-eabi-10.3-2021.10/bin/../lib/gcc/arm-none-eabi/10.3.1/../../../../arm-none-eabi/lib/thumb/v8-m.main+fp/hard\libg_nano.a(lib_a-fstatr.o) (_fstat)
h:/softwareapplication/e2studio/toolchains/gcc_arm/gcc-arm-none-eabi-10.3-2021.10/bin/../lib/gcc/arm-none-eabi/10.3.1/../../../../arm-none-eabi/lib/thumb/v8-m.main+fp/hard\libnosys.a(isatty.o)
                              h:/softwareapplication/e2studio/toolchains/gcc_arm/gcc-arm-none-eabi-10.3-2021.10/bin/../lib/gcc/arm-none-eabi/10.3.1/../../../../arm-none-eabi/lib/thumb/v8-m.main+fp/hard\libg_nano.a(lib_a-isattyr.o) (_isatty)
h:/softwareapplication/e2studio/toolchains/gcc_arm/gcc-arm-none-eabi-10.3-2021.10/bin/../lib/gcc/arm-none-eabi/10.3.1/../../../../arm-none-eabi/lib/thumb/v8-m.main+fp/hard\libnosys.a(lseek.o)
                              h:/softwareapplication/e2studio/toolchains/gcc_arm/gcc-arm-none-eabi-10.3-2021.10/bin/../lib/gcc/arm-none-eabi/10.3.1/../../../../arm-none-eabi/lib/thumb/v8-m.main+fp/hard\libg_nano.a(lib_a-lseekr.o) (_lseek)
h:/softwareapplication/e2studio/toolchains/gcc_arm/gcc-arm-none-eabi-10.3-2021.10/bin/../lib/gcc/arm-none-eabi/10.3.1/../../../../arm-none-eabi/lib/thumb/v8-m.main+fp/hard\libnosys.a(read.o)
                              h:/softwareapplication/e2studio/toolchains/gcc_arm/gcc-arm-none-eabi-10.3-2021.10/bin/../lib/gcc/arm-none-eabi/10.3.1/../../../../arm-none-eabi/lib/thumb/v8-m.main+fp/hard\libg_nano.a(lib_a-readr.o) (_read)
h:/softwareapplication/e2studio/toolchains/gcc_arm/gcc-arm-none-eabi-10.3-2021.10/bin/../lib/gcc/arm-none-eabi/10.3.1/../../../../arm-none-eabi/lib/thumb/v8-m.main+fp/hard\libnosys.a(_exit.o)
                              h:/softwareapplication/e2studio/toolchains/gcc_arm/gcc-arm-none-eabi-10.3-2021.10/bin/../lib/gcc/arm-none-eabi/10.3.1/../../../../arm-none-eabi/lib/thumb/v8-m.main+fp/hard\libg_nano.a(lib_a-exit.o) (_exit)

Discarded input sections

 .text          0x00000000        0x0 h:/softwareapplication/e2studio/toolchains/gcc_arm/gcc-arm-none-eabi-10.3-2021.10/bin/../lib/gcc/arm-none-eabi/10.3.1/thumb/v8-m.main+fp/hard/crti.o
 .data          0x00000000        0x0 h:/softwareapplication/e2studio/toolchains/gcc_arm/gcc-arm-none-eabi-10.3-2021.10/bin/../lib/gcc/arm-none-eabi/10.3.1/thumb/v8-m.main+fp/hard/crti.o
 .bss           0x00000000        0x0 h:/softwareapplication/e2studio/toolchains/gcc_arm/gcc-arm-none-eabi-10.3-2021.10/bin/../lib/gcc/arm-none-eabi/10.3.1/thumb/v8-m.main+fp/hard/crti.o
 .data          0x00000000        0x4 h:/softwareapplication/e2studio/toolchains/gcc_arm/gcc-arm-none-eabi-10.3-2021.10/bin/../lib/gcc/arm-none-eabi/10.3.1/thumb/v8-m.main+fp/hard/crtbegin.o
 .rodata        0x00000000       0x24 h:/softwareapplication/e2studio/toolchains/gcc_arm/gcc-arm-none-eabi-10.3-2021.10/bin/../lib/gcc/arm-none-eabi/10.3.1/thumb/v8-m.main+fp/hard/crtbegin.o
 .text          0x00000000       0x7c h:/softwareapplication/e2studio/toolchains/gcc_arm/gcc-arm-none-eabi-10.3-2021.10/bin/../lib/gcc/arm-none-eabi/10.3.1/../../../../arm-none-eabi/lib/thumb/v8-m.main+fp/hard/crt0.o
 .data          0x00000000        0x0 h:/softwareapplication/e2studio/toolchains/gcc_arm/gcc-arm-none-eabi-10.3-2021.10/bin/../lib/gcc/arm-none-eabi/10.3.1/../../../../arm-none-eabi/lib/thumb/v8-m.main+fp/hard/crt0.o
 .bss           0x00000000        0x0 h:/softwareapplication/e2studio/toolchains/gcc_arm/gcc-arm-none-eabi-10.3-2021.10/bin/../lib/gcc/arm-none-eabi/10.3.1/../../../../arm-none-eabi/lib/thumb/v8-m.main+fp/hard/crt0.o
 .ARM.extab     0x00000000        0x0 h:/softwareapplication/e2studio/toolchains/gcc_arm/gcc-arm-none-eabi-10.3-2021.10/bin/../lib/gcc/arm-none-eabi/10.3.1/../../../../arm-none-eabi/lib/thumb/v8-m.main+fp/hard/crt0.o
 .ARM.exidx     0x00000000       0x10 h:/softwareapplication/e2studio/toolchains/gcc_arm/gcc-arm-none-eabi-10.3-2021.10/bin/../lib/gcc/arm-none-eabi/10.3.1/../../../../arm-none-eabi/lib/thumb/v8-m.main+fp/hard/crt0.o
 .ARM.attributes
                0x00000000       0x20 h:/softwareapplication/e2studio/toolchains/gcc_arm/gcc-arm-none-eabi-10.3-2021.10/bin/../lib/gcc/arm-none-eabi/10.3.1/../../../../arm-none-eabi/lib/thumb/v8-m.main+fp/hard/crt0.o
 .text          0x00000000        0x0 ./src/bsp_debug_uart.o
 .data          0x00000000        0x0 ./src/bsp_debug_uart.o
 .bss           0x00000000        0x0 ./src/bsp_debug_uart.o
 .text          0x00000000        0x0 ./src/bsp_dht11.o
 .data          0x00000000        0x0 ./src/bsp_dht11.o
 .bss           0x00000000        0x0 ./src/bsp_dht11.o
Memory Configuration

Name             Origin             Length             Attributes
FLASH            0x00000000         0x00200000         xr
RAM              0x20000000         0x00080000         xrw
DATA_FLASH       0x08000000         0x00002000         xr
QSPI_FLASH       0x60000000         0x04000000         xr
OSPI_DEVICE_0    0x68000000         0x08000000         xr
OSPI_DEVICE_1    0x70000000         0x10000000         xr
OSPI_DEVICE_0_RAM 0x68000000         0x08000000         xrw
OSPI_DEVICE_1_RAM 0x70000000         0x10000000         xrw
SDRAM            0x90000000         0x00000000         xrw
OPTION_SETTING   0x0100a100         0x00000100         r
OPTION_SETTING_S 0x0100a200         0x00000100         r
ID_CODE          0x00000000         0x00000000         xr
*default*        0x00000000         0xffffffff

Linker script and memory map

LOAD h:/softwareapplication/e2studio/toolchains/gcc_arm/gcc-arm-none-eabi-10.3-2021.10/bin/../lib/gcc/arm-none-eabi/10.3.1/thumb/v8-m.main+fp/hard/crti.o
LOAD h:/softwareapplication/e2studio/toolchains/gcc_arm/gcc-arm-none-eabi-10.3-2021.10/bin/../lib/gcc/arm-none-eabi/10.3.1/thumb/v8-m.main+fp/hard/crtbegin.o
LOAD h:/softwareapplication/e2studio/toolchains/gcc_arm/gcc-arm-none-eabi-10.3-2021.10/bin/../lib/gcc/arm-none-eabi/10.3.1/../../../../arm-none-eabi/lib/thumb/v8-m.main+fp/hard/crt0.o
START GROUP
LOAD ./src/bsp_debug_uart.o
LOAD ./src/bsp_dht11.o
LOAD ./src/bsp_gpt_timing.o
LOAD ./src/bsp_led.o
LOAD ./src/bsp_wifi_esp8266.o
LOAD ./src/hal_entry.o
LOAD ./src/oled.o
LOAD ./ra_gen/common_data.o
LOAD ./ra_gen/hal_data.o
LOAD ./ra_gen/main.o
LOAD ./ra_gen/pin_data.o
LOAD ./ra_gen/vector_data.o
LOAD ./ra/fsp/src/r_sci_uart/r_sci_uart.o
LOAD ./ra/fsp/src/r_sci_i2c/r_sci_i2c.o
LOAD ./ra/fsp/src/r_ioport/r_ioport.o
LOAD ./ra/fsp/src/r_gpt/r_gpt.o
LOAD ./ra/fsp/src/bsp/mcu/all/bsp_clocks.o
LOAD ./ra/fsp/src/bsp/mcu/all/bsp_common.o
LOAD ./ra/fsp/src/bsp/mcu/all/bsp_delay.o
LOAD ./ra/fsp/src/bsp/mcu/all/bsp_group_irq.o
LOAD ./ra/fsp/src/bsp/mcu/all/bsp_guard.o
LOAD ./ra/fsp/src/bsp/mcu/all/bsp_io.o
LOAD ./ra/fsp/src/bsp/mcu/all/bsp_irq.o
LOAD ./ra/fsp/src/bsp/mcu/all/bsp_register_protection.o
LOAD ./ra/fsp/src/bsp/mcu/all/bsp_rom_registers.o
LOAD ./ra/fsp/src/bsp/mcu/all/bsp_sbrk.o
LOAD ./ra/fsp/src/bsp/mcu/all/bsp_security.o
LOAD ./ra/fsp/src/bsp/cmsis/Device/RENESAS/Source/startup.o
LOAD ./ra/fsp/src/bsp/cmsis/Device/RENESAS/Source/system.o
END GROUP
START GROUP
LOAD h:/softwareapplication/e2studio/toolchains/gcc_arm/gcc-arm-none-eabi-10.3-2021.10/bin/../lib/gcc/arm-none-eabi/10.3.1/thumb/v8-m.main+fp/hard\libgcc.a
LOAD h:/softwareapplication/e2studio/toolchains/gcc_arm/gcc-arm-none-eabi-10.3-2021.10/bin/../lib/gcc/arm-none-eabi/10.3.1/../../../../arm-none-eabi/lib/thumb/v8-m.main+fp/hard\libg_nano.a
LOAD h:/softwareapplication/e2studio/toolchains/gcc_arm/gcc-arm-none-eabi-10.3-2021.10/bin/../lib/gcc/arm-none-eabi/10.3.1/../../../../arm-none-eabi/lib/thumb/v8-m.main+fp/hard\libc_nano.a
END GROUP
START GROUP
LOAD h:/softwareapplication/e2studio/toolchains/gcc_arm/gcc-arm-none-eabi-10.3-2021.10/bin/../lib/gcc/arm-none-eabi/10.3.1/thumb/v8-m.main+fp/hard\libgcc.a
LOAD h:/softwareapplication/e2studio/toolchains/gcc_arm/gcc-arm-none-eabi-10.3-2021.10/bin/../lib/gcc/arm-none-eabi/10.3.1/../../../../arm-none-eabi/lib/thumb/v8-m.main+fp/hard\libc_nano.a
END GROUP
LOAD h:/softwareapplication/e2studio/toolchains/gcc_arm/gcc-arm-none-eabi-10.3-2021.10/bin/../lib/gcc/arm-none-eabi/10.3.1/thumb/v8-m.main+fp/hard/crtend.o
LOAD h:/softwareapplication/e2studio/toolchains/gcc_arm/gcc-arm-none-eabi-10.3-2021.10/bin/../lib/gcc/arm-none-eabi/10.3.1/thumb/v8-m.main+fp/hard/crtn.o
                0x20000000                RAM_START = 0x20000000
                0x00080000                RAM_LENGTH = 0x80000
                0x00000000                FLASH_START = 0x0
                0x00200000                FLASH_LENGTH = 0x200000
                0x08000000                DATA_FLASH_START = 0x8000000
                0x00002000                DATA_FLASH_LENGTH = 0x2000
                0x0100a100                OPTION_SETTING_START = 0x100a100
                0x00000100                OPTION_SETTING_LENGTH = 0x100
                0x0100a200                OPTION_SETTING_S_START = 0x100a200
                0x00000100                OPTION_SETTING_S_LENGTH = 0x100
                0x00000000                ID_CODE_START = 0x0
                0x00000000                ID_CODE_LENGTH = 0x0
                0x90000000                SDRAM_START = 0x90000000
                0x00000000                SDRAM_LENGTH = 0x0
                0x60000000                QSPI_FLASH_START = 0x60000000
                0x04000000                QSPI_FLASH_LENGTH = 0x4000000
                0x68000000                OSPI_DEVICE_0_START = 0x68000000
                0x08000000                OSPI_DEVICE_0_LENGTH = 0x8000000
                0x70000000                OSPI_DEVICE_1_START = 0x70000000
                0x10000000                OSPI_DEVICE_1_LENGTH = 0x10000000
                0x04000000                QSPI_FLASH_PRV_LENGTH = DEFINED (QSPI_FLASH_SIZE)?ABSOLUTE (QSPI_FLASH_SIZE):ABSOLUTE (QSPI_FLASH_LENGTH)
                0x08000000                OSPI_DEVICE_0_PRV_LENGTH = DEFINED (OSPI_DEVICE_0_SIZE)?ABSOLUTE (OSPI_DEVICE_0_SIZE):ABSOLUTE (OSPI_DEVICE_0_LENGTH)
                0x10000000                OSPI_DEVICE_1_PRV_LENGTH = DEFINED (OSPI_DEVICE_1_SIZE)?ABSOLUTE (OSPI_DEVICE_1_SIZE):ABSOLUTE (OSPI_DEVICE_1_LENGTH)
                0x00000000                __RESERVE_NS_RAM = ((! (DEFINED (PROJECT_NONSECURE)) && DEFINED (RAM_NS_BUFFER_LENGTH)) && (OPTION_SETTING_S_LENGTH != 0x0))
                0x00000000                RAM_NS_BUFFER_BLOCK_LENGTH = DEFINED (RAM_NS_BUFFER_LENGTH)?ALIGN (RAM_NS_BUFFER_LENGTH, 0x2000):0x0
                0x00000000                RAM_NS_BUFFER_LENGTH = DEFINED (RAM_NS_BUFFER_LENGTH)?RAM_NS_BUFFER_LENGTH:0x0
                0x20080000                RAM_NS_BUFFER_START = ((RAM_START + RAM_LENGTH) - RAM_NS_BUFFER_LENGTH)
                0x20080000                RAM_NS_BUFFER_BLOCK_START = ((RAM_START + RAM_LENGTH) - RAM_NS_BUFFER_BLOCK_LENGTH)
                0x0100a180                OPTION_SETTING_START_NS = 0x100a180
                0x00000001                __bl_FSP_BOOTABLE_IMAGE = 0x1
                0x00000001                __bln_FSP_BOOTABLE_IMAGE = 0x1
                0x00000001                PROJECT_SECURE_OR_FLAT = ((! (DEFINED (PROJECT_NONSECURE)) && OPTION_SETTING_LENGTH) && ! (DEFINED (FSP_BOOTABLE_IMAGE)))
                0x00000000                USE_OPTION_SETTING_NS = (DEFINED (PROJECT_NONSECURE) && ! (DEFINED (FSP_BOOTABLE_IMAGE)))
                0x00000000                __bl_FLASH_IMAGE_START = ! (DEFINED (FLASH_BOOTLOADER_LENGTH))?0x0:(FLASH_APPLICATION_IMAGE_NUMBER == 0x1)?(FLASH_BOOTLOADER_LENGTH + FLASH_BOOTLOADER_HEADER_LENGTH):(((FLASH_BOOTLOADER_LENGTH + FLASH_BOOTLOADER_SCRATCH_LENGTH) + FLASH_APPLICATION_S_LENGTH) + FLASH_BOOTLOADER_HEADER_LENGTH)
                0x00000000                __bl_FLASH_IMAGE_LENGTH = ! (DEFINED (FLASH_BOOTLOADER_LENGTH))?0x0:(FLASH_APPLICATION_S_LENGTH - FLASH_BOOTLOADER_HEADER_LENGTH)
                0x00000000                __bl_FLASH_IMAGE_END = (__bl_FLASH_IMAGE_START + __bl_FLASH_IMAGE_LENGTH)
                0x00000000                __bl_XIP_SECONDARY_FLASH_IMAGE_START = ! (DEFINED (FLASH_BOOTLOADER_LENGTH))?0x0:((FLASH_BOOTLOADER_LENGTH + FLASH_APPLICATION_S_LENGTH) + FLASH_BOOTLOADER_HEADER_LENGTH)
                0x00000000                __bl_XIP_SECONDARY_FLASH_IMAGE_END = (__bl_XIP_SECONDARY_FLASH_IMAGE_START + __bl_FLASH_IMAGE_LENGTH)
                0x00000000                __bl_FLASH_NS_START = ! (DEFINED (FLASH_BOOTLOADER_LENGTH))?0x0:(FLASH_APPLICATION_NS_LENGTH == 0x0)?__bl_FLASH_IMAGE_END:((__bl_FLASH_IMAGE_START - FLASH_BOOTLOADER_HEADER_LENGTH) + FLASH_APPLICATION_S_LENGTH)
                0x00000000                __bl_FLASH_NSC_START = ! (DEFINED (FLASH_BOOTLOADER_LENGTH))?0x0:(FLASH_APPLICATION_NS_LENGTH == 0x0)?__bl_FLASH_IMAGE_END:(__bl_FLASH_NS_START - FLASH_APPLICATION_NSC_LENGTH)
                0x00000000                __bl_RAM_NS_START = ! (DEFINED (FLASH_BOOTLOADER_LENGTH))?0x0:(FLASH_APPLICATION_NS_LENGTH == 0x0)?(RAM_START + RAM_LENGTH):((RAM_START + RAM_LENGTH) - RAM_APPLICATION_NS_LENGTH)
                0x00000000                __bl_RAM_NSC_START = ! (DEFINED (FLASH_BOOTLOADER_LENGTH))?0x0:(FLASH_APPLICATION_NS_LENGTH == 0x0)?(RAM_START + RAM_LENGTH):(__bl_RAM_NS_START - RAM_APPLICATION_NSC_LENGTH)
                0x00000000                __bl_FLASH_NS_IMAGE_START = ! (DEFINED (FLASH_BOOTLOADER_LENGTH))?0x0:(FLASH_APPLICATION_NS_LENGTH == 0x0)?__bl_FLASH_IMAGE_END:(__bl_FLASH_NS_START + FLASH_BOOTLOADER_HEADER_LENGTH_2)
                0x00000000                __bln_FLASH_IMAGE_START = __bl_FLASH_NS_IMAGE_START
                0x00000000                __bln_FLASH_IMAGE_LENGTH = ! (DEFINED (FLASH_BOOTLOADER_LENGTH))?0x0:(FLASH_APPLICATION_NS_LENGTH == 0x0)?__bl_FLASH_IMAGE_END:(FLASH_APPLICATION_NS_LENGTH - FLASH_BOOTLOADER_HEADER_LENGTH_2)
                0x00000000                XIP_SECONDARY_SLOT_IMAGE = DEFINED (XIP_SECONDARY_SLOT_IMAGE)?XIP_SECONDARY_SLOT_IMAGE:0x0
                0x00000000                FLASH_ORIGIN = ! (DEFINED (FLASH_IMAGE_START))?FLASH_START:(XIP_SECONDARY_SLOT_IMAGE == 0x1)?XIP_SECONDARY_FLASH_IMAGE_START:FLASH_IMAGE_START
                0x00200000                LIMITED_FLASH_LENGTH = DEFINED (FLASH_IMAGE_LENGTH)?FLASH_IMAGE_LENGTH:DEFINED (FLASH_BOOTLOADER_LENGTH)?FLASH_BOOTLOADER_LENGTH:FLASH_LENGTH
START GROUP
LOAD h:/softwareapplication/e2studio/toolchains/gcc_arm/gcc-arm-none-eabi-10.3-2021.10/bin/../lib/gcc/arm-none-eabi/10.3.1/thumb/v8-m.main+fp/hard\libgcc.a
LOAD h:/softwareapplication/e2studio/toolchains/gcc_arm/gcc-arm-none-eabi-10.3-2021.10/bin/../lib/gcc/arm-none-eabi/10.3.1/../../../../arm-none-eabi/lib/thumb/v8-m.main+fp/hard\libc.a
LOAD h:/softwareapplication/e2studio/toolchains/gcc_arm/gcc-arm-none-eabi-10.3-2021.10/bin/../lib/gcc/arm-none-eabi/10.3.1/../../../../arm-none-eabi/lib/thumb/v8-m.main+fp/hard\libm.a
LOAD h:/softwareapplication/e2studio/toolchains/gcc_arm/gcc-arm-none-eabi-10.3-2021.10/bin/../lib/gcc/arm-none-eabi/10.3.1/../../../../arm-none-eabi/lib/thumb/v8-m.main+fp/hard\libnosys.a
END GROUP

.text           0x00000000     0x679c
                0x00000000                __tz_FLASH_S = ABSOLUTE (FLASH_START)
                0x00000000                __ROM_Start = .
 *(.fixed_vectors*)
 .fixed_vectors
                0x00000000       0x40 ./ra/fsp/src/bsp/cmsis/Device/RENESAS/Source/startup.o
                0x00000000                __Vectors
 *(.application_vectors*)
 .application_vectors
                0x00000040      0x180 ./ra_gen/vector_data.o
                0x00000040                g_vector_table
                0x000001c0                __Vectors_End = .
                0x000001c0                . = (OPTION_SETTING_LENGTH > 0x0)?.:(__ROM_Start + 0x400)
 *(.rom_registers*)
                0x000001c0                . = (OPTION_SETTING_LENGTH > 0x0)?.:(__ROM_Start + 0x500)
                0x00000200                . = ALIGN (0x80)
 *fill*         0x000001c0       0x40 ff
 *(.mcuboot_sce9_key*)
 *(.text*)
 .text          0x00000200       0x40 h:/softwareapplication/e2studio/toolchains/gcc_arm/gcc-arm-none-eabi-10.3-2021.10/bin/../lib/gcc/arm-none-eabi/10.3.1/thumb/v8-m.main+fp/hard/crtbegin.o
 .text.Debug_UART4_Init
                0x00000240       0x30 ./src/bsp_debug_uart.o
                0x00000240                Debug_UART4_Init
 .text.debug_uart4_callback
                0x00000270       0x28 ./src/bsp_debug_uart.o
                0x00000270                debug_uart4_callback
 .text._write   0x00000298       0x24 ./src/bsp_debug_uart.o
                0x00000298                _write
 .text.Read_Byte
                0x000002bc       0x44 ./src/bsp_dht11.o
 .text.DHT11_Init
                0x00000300       0x14 ./src/bsp_dht11.o
                0x00000300                DHT11_Init
 .text.DHT11_Start
                0x00000314       0x4c ./src/bsp_dht11.o
                0x00000314                DHT11_Start
 .text.Read_DHT11
                0x00000360       0xd4 ./src/bsp_dht11.o
                0x00000360                Read_DHT11
 .text.GPT0_Timing_Init
                0x00000434       0x20 ./src/bsp_gpt_timing.o
                0x00000434                GPT0_Timing_Init
 .text.gpt0_timing_callback
                0x00000454       0x38 ./src/bsp_gpt_timing.o
                0x00000454                gpt0_timing_callback
 .text.LED_Init
                0x0000048c       0x14 ./src/bsp_led.o
                0x0000048c                LED_Init
 .text.ESP8266_UART9_Init
                0x000004a0       0x10 ./src/bsp_wifi_esp8266.o
                0x000004a0                ESP8266_UART9_Init
 .text.esp8266_uart9_callback
                0x000004b0       0x14 ./src/bsp_wifi_esp8266.o
                0x000004b0                esp8266_uart9_callback
 .text.AT_Init  0x000004c4      0x128 ./src/bsp_wifi_esp8266.o
                0x000004c4                AT_Init
 .text.AT_Send_Data
                0x000005ec       0x40 ./src/bsp_wifi_esp8266.o
                0x000005ec                AT_Send_Data
 .text.sci_i2c_master_callback
                0x0000062c       0x14 ./src/hal_entry.o
                0x0000062c                sci_i2c_master_callback
 .text.Hardware_init
                0x00000640       0x94 ./src/hal_entry.o
                0x00000640                Hardware_init
 .text.hal_entry
                0x000006d4      0x16c ./src/hal_entry.o
                0x000006d4                hal_entry
 .text.R_BSP_WarmStart
                0x00000840       0x18 ./src/hal_entry.o
                0x00000840                R_BSP_WarmStart
 .text.Write_IIC_Command.part.0
                0x00000858       0x44 ./src/oled.o
 .text.Write_IIC_Command
                0x0000089c       0x50 ./src/oled.o
                0x0000089c                Write_IIC_Command
 .text.Write_IIC_Data
                0x000008ec       0x50 ./src/oled.o
                0x000008ec                Write_IIC_Data
 .text.OLED_Clear
                0x0000093c       0x30 ./src/oled.o
                0x0000093c                OLED_Clear
 .text.OLED_ShowChar
                0x0000096c       0xd8 ./src/oled.o
                0x0000096c                OLED_ShowChar
 .text.OLED_ShowNum
                0x00000a44       0xa4 ./src/oled.o
                0x00000a44                OLED_ShowNum
 .text.OLED_ShowString
                0x00000ae8       0x38 ./src/oled.o
                0x00000ae8                OLED_ShowString
 .text.OLED_ShowCHinese
                0x00000b20       0x84 ./src/oled.o
                0x00000b20                OLED_ShowCHinese
 .text.OLED_Init
                0x00000ba4       0xb4 ./src/oled.o
                0x00000ba4                OLED_Init
 .text.startup.main
                0x00000c58        0xc ./ra_gen/main.o
                0x00000c58                main
 .text.R_SCI_UART_Write
                0x00000c64       0x48 ./ra/fsp/src/r_sci_uart/r_sci_uart.o
                0x00000c64                R_SCI_UART_Write
 .text.r_sci_uart_call_callback
                0x00000cac       0x44 ./ra/fsp/src/r_sci_uart/r_sci_uart.o
 .text.R_SCI_UART_Open
                0x00000cf0      0x33c ./ra/fsp/src/r_sci_uart/r_sci_uart.o
                0x00000cf0                R_SCI_UART_Open
 .text.sci_uart_txi_isr
                0x0000102c       0x8c ./ra/fsp/src/r_sci_uart/r_sci_uart.o
                0x0000102c                sci_uart_txi_isr
 .text.sci_uart_rxi_isr
                0x000010b8       0x8c ./ra/fsp/src/r_sci_uart/r_sci_uart.o
                0x000010b8                sci_uart_rxi_isr
 .text.sci_uart_tei_isr
                0x00001144       0x40 ./ra/fsp/src/r_sci_uart/r_sci_uart.o
                0x00001144                sci_uart_tei_isr
 .text.sci_uart_eri_isr
                0x00001184       0x74 ./ra/fsp/src/r_sci_uart/r_sci_uart.o
                0x00001184                sci_uart_eri_isr
 .text.R_SCI_I2C_Write
                0x000011f8       0x90 ./ra/fsp/src/r_sci_i2c/r_sci_i2c.o
                0x000011f8                R_SCI_I2C_Write
 .text.R_SCI_I2C_Open
                0x00001288      0x14c ./ra/fsp/src/r_sci_i2c/r_sci_i2c.o
                0x00001288                R_SCI_I2C_Open
 .text.sci_i2c_notify
                0x000013d4       0x38 ./ra/fsp/src/r_sci_i2c/r_sci_i2c.o
                0x000013d4                sci_i2c_notify
 .text.sci_i2c_txi_isr
                0x0000140c      0x140 ./ra/fsp/src/r_sci_i2c/r_sci_i2c.o
                0x0000140c                sci_i2c_txi_isr
 .text.sci_i2c_tei_isr
                0x0000154c       0xcc ./ra/fsp/src/r_sci_i2c/r_sci_i2c.o
                0x0000154c                sci_i2c_tei_isr
 .text.R_IOPORT_Close
                0x00001618        0xc ./ra/fsp/src/r_ioport/r_ioport.o
                0x00001618                R_IOPORT_Close
 .text.R_IOPORT_PinRead
                0x00001624       0x24 ./ra/fsp/src/r_ioport/r_ioport.o
                0x00001624                R_IOPORT_PinRead
 .text.R_IOPORT_PortRead
                0x00001648       0x14 ./ra/fsp/src/r_ioport/r_ioport.o
                0x00001648                R_IOPORT_PortRead
 .text.R_IOPORT_PortWrite
                0x0000165c       0x1c ./ra/fsp/src/r_ioport/r_ioport.o
                0x0000165c                R_IOPORT_PortWrite
 .text.R_IOPORT_PinWrite
                0x00001678       0x20 ./ra/fsp/src/r_ioport/r_ioport.o
                0x00001678                R_IOPORT_PinWrite
 .text.R_IOPORT_PortDirectionSet
                0x00001698       0x2c ./ra/fsp/src/r_ioport/r_ioport.o
                0x00001698                R_IOPORT_PortDirectionSet
 .text.R_IOPORT_PortEventInputRead
                0x000016c4       0x18 ./ra/fsp/src/r_ioport/r_ioport.o
                0x000016c4                R_IOPORT_PortEventInputRead
 .text.R_IOPORT_PinEventInputRead
                0x000016dc       0x38 ./ra/fsp/src/r_ioport/r_ioport.o
                0x000016dc                R_IOPORT_PinEventInputRead
 .text.R_IOPORT_PortEventOutputWrite
                0x00001714       0x1c ./ra/fsp/src/r_ioport/r_ioport.o
                0x00001714                R_IOPORT_PortEventOutputWrite
 .text.R_IOPORT_PinEventOutputWrite
                0x00001730       0x4c ./ra/fsp/src/r_ioport/r_ioport.o
                0x00001730                R_IOPORT_PinEventOutputWrite
 .text.bsp_vbatt_init
                0x0000177c       0xac ./ra/fsp/src/r_ioport/r_ioport.o
 .text.r_ioport_pins_config
                0x00001828       0xc0 ./ra/fsp/src/r_ioport/r_ioport.o
 .text.R_IOPORT_Open
                0x000018e8       0x14 ./ra/fsp/src/r_ioport/r_ioport.o
                0x000018e8                R_IOPORT_Open
 .text.R_IOPORT_PinsCfg
                0x000018fc        0xc ./ra/fsp/src/r_ioport/r_ioport.o
                0x000018fc                R_IOPORT_PinsCfg
 .text.R_IOPORT_PinCfg
                0x00001908       0xa8 ./ra/fsp/src/r_ioport/r_ioport.o
                0x00001908                R_IOPORT_PinCfg
 .text.R_GPT_Start
                0x000019b0        0xc ./ra/fsp/src/r_gpt/r_gpt.o
                0x000019b0                R_GPT_Start
 .text.r_gpt_enable_irq
                0x000019bc       0x5c ./ra/fsp/src/r_gpt/r_gpt.o
 .text.R_GPT_Open
                0x00001a18      0x10c ./ra/fsp/src/r_gpt/r_gpt.o
                0x00001a18                R_GPT_Open
 .text.r_gpt_call_callback
                0x00001b24       0x3c ./ra/fsp/src/r_gpt/r_gpt.o
 .text.gpt_counter_overflow_isr
                0x00001b60       0x7c ./ra/fsp/src/r_gpt/r_gpt.o
                0x00001b60                gpt_counter_overflow_isr
 .text.SystemCoreClockUpdate
                0x00001bdc       0x28 ./ra/fsp/src/bsp/mcu/all/bsp_clocks.o
                0x00001bdc                SystemCoreClockUpdate
 .text.bsp_clock_init
                0x00001c04      0x110 ./ra/fsp/src/bsp/mcu/all/bsp_clocks.o
                0x00001c04                bsp_clock_init
 .text.bsp_init_internal
                0x00001d14        0x4 ./ra/fsp/src/bsp/mcu/all/bsp_common.o
                0x00001d14                bsp_init_internal
                0x00001d14                bsp_init
 .text.__assert_func
                0x00001d18        0x4 ./ra/fsp/src/bsp/mcu/all/bsp_common.o
                0x00001d18                __assert_func
 .text.bsp_prv_software_delay_loop
                0x00001d1c        0xc ./ra/fsp/src/bsp/mcu/all/bsp_delay.o
                0x00001d1c                bsp_prv_software_delay_loop
 .text.R_BSP_SoftwareDelay
                0x00001d28       0x68 ./ra/fsp/src/bsp/mcu/all/bsp_delay.o
                0x00001d28                R_BSP_SoftwareDelay
 .text.NMI_Handler
                0x00001d90       0x38 ./ra/fsp/src/bsp/mcu/all/bsp_group_irq.o
                0x00001d90                NMI_Handler
 .text.bsp_irq_cfg
                0x00001dc8       0xa0 ./ra/fsp/src/bsp/mcu/all/bsp_irq.o
                0x00001dc8                bsp_irq_cfg
 .text.R_BSP_RegisterProtectEnable
                0x00001e68       0x60 ./ra/fsp/src/bsp/mcu/all/bsp_register_protection.o
                0x00001e68                R_BSP_RegisterProtectEnable
 .text.R_BSP_RegisterProtectDisable
                0x00001ec8       0x54 ./ra/fsp/src/bsp/mcu/all/bsp_register_protection.o
                0x00001ec8                R_BSP_RegisterProtectDisable
 .text._sbrk    0x00001f1c       0x44 ./ra/fsp/src/bsp/mcu/all/bsp_sbrk.o
                0x00001f1c                _sbrk
 .text.Default_Handler
                0x00001f60        0x4 ./ra/fsp/src/bsp/cmsis/Device/RENESAS/Source/startup.o
                0x00001f60                DebugMon_Handler
                0x00001f60                HardFault_Handler
                0x00001f60                SysTick_Handler
                0x00001f60                PendSV_Handler
                0x00001f60                UsageFault_Handler
                0x00001f60                SecureFault_Handler
                0x00001f60                Default_Handler
                0x00001f60                MemManage_Handler
                0x00001f60                SVC_Handler
                0x00001f60                BusFault_Handler
 .text.Reset_Handler
                0x00001f64        0xc ./ra/fsp/src/bsp/cmsis/Device/RENESAS/Source/startup.o
                0x00001f64                Reset_Handler
 .text.SystemInit
                0x00001f70       0xc0 ./ra/fsp/src/bsp/cmsis/Device/RENESAS/Source/system.o
                0x00001f70                SystemInit
 .text.__errno  0x00002030        0xc h:/softwareapplication/e2studio/toolchains/gcc_arm/gcc-arm-none-eabi-10.3-2021.10/bin/../lib/gcc/arm-none-eabi/10.3.1/../../../../arm-none-eabi/lib/thumb/v8-m.main+fp/hard\libg_nano.a(lib_a-errno.o)
                0x00002030                __errno
 .text.memcpy   0x0000203c       0x1a h:/softwareapplication/e2studio/toolchains/gcc_arm/gcc-arm-none-eabi-10.3-2021.10/bin/../lib/gcc/arm-none-eabi/10.3.1/../../../../arm-none-eabi/lib/thumb/v8-m.main+fp/hard\libg_nano.a(lib_a-memcpy-stub.o)
                0x0000203c                memcpy
 .text.memset   0x00002056       0x10 h:/softwareapplication/e2studio/toolchains/gcc_arm/gcc-arm-none-eabi-10.3-2021.10/bin/../lib/gcc/arm-none-eabi/10.3.1/../../../../arm-none-eabi/lib/thumb/v8-m.main+fp/hard\libg_nano.a(lib_a-memset.o)
                0x00002056                memset
 .text.__cvt    0x00002066       0xc4 h:/softwareapplication/e2studio/toolchains/gcc_arm/gcc-arm-none-eabi-10.3-2021.10/bin/../lib/gcc/arm-none-eabi/10.3.1/../../../../arm-none-eabi/lib/thumb/v8-m.main+fp/hard\libg_nano.a(lib_a-nano-vfprintf_float.o)
                0x00002066                __cvt
 .text.__exponent
                0x0000212a       0x7c h:/softwareapplication/e2studio/toolchains/gcc_arm/gcc-arm-none-eabi-10.3-2021.10/bin/../lib/gcc/arm-none-eabi/10.3.1/../../../../arm-none-eabi/lib/thumb/v8-m.main+fp/hard\libg_nano.a(lib_a-nano-vfprintf_float.o)
                0x0000212a                __exponent
 *fill*         0x000021a6        0x2 ff
 .text._printf_float
                0x000021a8      0x46c h:/softwareapplication/e2studio/toolchains/gcc_arm/gcc-arm-none-eabi-10.3-2021.10/bin/../lib/gcc/arm-none-eabi/10.3.1/../../../../arm-none-eabi/lib/thumb/v8-m.main+fp/hard\libg_nano.a(lib_a-nano-vfprintf_float.o)
                0x000021a8                _printf_float
 .text._printf_common
                0x00002614       0xe0 h:/softwareapplication/e2studio/toolchains/gcc_arm/gcc-arm-none-eabi-10.3-2021.10/bin/../lib/gcc/arm-none-eabi/10.3.1/../../../../arm-none-eabi/lib/thumb/v8-m.main+fp/hard\libg_nano.a(lib_a-nano-vfprintf_i.o)
                0x00002614                _printf_common
 .text._printf_i
                0x000026f4      0x24c h:/softwareapplication/e2studio/toolchains/gcc_arm/gcc-arm-none-eabi-10.3-2021.10/bin/../lib/gcc/arm-none-eabi/10.3.1/../../../../arm-none-eabi/lib/thumb/v8-m.main+fp/hard\libg_nano.a(lib_a-nano-vfprintf_i.o)
                0x000026f4                _printf_i
 .text.printf   0x00002940       0x30 h:/softwareapplication/e2studio/toolchains/gcc_arm/gcc-arm-none-eabi-10.3-2021.10/bin/../lib/gcc/arm-none-eabi/10.3.1/../../../../arm-none-eabi/lib/thumb/v8-m.main+fp/hard\libg_nano.a(lib_a-printf.o)
                0x00002940                iprintf
                0x00002940                printf
 .text._puts_r  0x00002970       0xdc h:/softwareapplication/e2studio/toolchains/gcc_arm/gcc-arm-none-eabi-10.3-2021.10/bin/../lib/gcc/arm-none-eabi/10.3.1/../../../../arm-none-eabi/lib/thumb/v8-m.main+fp/hard\libg_nano.a(lib_a-puts.o)
                0x00002970                _puts_r
 .text.puts     0x00002a4c       0x10 h:/softwareapplication/e2studio/toolchains/gcc_arm/gcc-arm-none-eabi-10.3-2021.10/bin/../lib/gcc/arm-none-eabi/10.3.1/../../../../arm-none-eabi/lib/thumb/v8-m.main+fp/hard\libg_nano.a(lib_a-puts.o)
                0x00002a4c                puts
 .text          0x00002a5c       0x10 h:/softwareapplication/e2studio/toolchains/gcc_arm/gcc-arm-none-eabi-10.3-2021.10/bin/../lib/gcc/arm-none-eabi/10.3.1/../../../../arm-none-eabi/lib/thumb/v8-m.main+fp/hard\libg_nano.a(lib_a-strlen.o)
                0x00002a5c                strlen
 .text.__swbuf_r
                0x00002a6c       0xa4 h:/softwareapplication/e2studio/toolchains/gcc_arm/gcc-arm-none-eabi-10.3-2021.10/bin/../lib/gcc/arm-none-eabi/10.3.1/../../../../arm-none-eabi/lib/thumb/v8-m.main+fp/hard\libg_nano.a(lib_a-wbuf.o)
                0x00002a6c                __swbuf_r
 .text.__swsetup_r
                0x00002b10       0xdc h:/softwareapplication/e2studio/toolchains/gcc_arm/gcc-arm-none-eabi-10.3-2021.10/bin/../lib/gcc/arm-none-eabi/10.3.1/../../../../arm-none-eabi/lib/thumb/v8-m.main+fp/hard\libg_nano.a(lib_a-wsetup.o)
                0x00002b10                __swsetup_r
 .text.quorem   0x00002bec      0x122 h:/softwareapplication/e2studio/toolchains/gcc_arm/gcc-arm-none-eabi-10.3-2021.10/bin/../lib/gcc/arm-none-eabi/10.3.1/../../../../arm-none-eabi/lib/thumb/v8-m.main+fp/hard\libg_nano.a(lib_a-dtoa.o)
 *fill*         0x00002d0e        0x2 ff
 .text._dtoa_r  0x00002d10      0xbd8 h:/softwareapplication/e2studio/toolchains/gcc_arm/gcc-arm-none-eabi-10.3-2021.10/bin/../lib/gcc/arm-none-eabi/10.3.1/../../../../arm-none-eabi/lib/thumb/v8-m.main+fp/hard\libg_nano.a(lib_a-dtoa.o)
                0x00002d10                _dtoa_r
 .text.__sflush_r
                0x000038e8      0x108 h:/softwareapplication/e2studio/toolchains/gcc_arm/gcc-arm-none-eabi-10.3-2021.10/bin/../lib/gcc/arm-none-eabi/10.3.1/../../../../arm-none-eabi/lib/thumb/v8-m.main+fp/hard\libg_nano.a(lib_a-fflush.o)
                0x000038e8                __sflush_r
 .text._fflush_r
                0x000039f0       0x78 h:/softwareapplication/e2studio/toolchains/gcc_arm/gcc-arm-none-eabi-10.3-2021.10/bin/../lib/gcc/arm-none-eabi/10.3.1/../../../../arm-none-eabi/lib/thumb/v8-m.main+fp/hard\libg_nano.a(lib_a-fflush.o)
                0x000039f0                _fflush_r
 .text.std      0x00003a68       0x48 h:/softwareapplication/e2studio/toolchains/gcc_arm/gcc-arm-none-eabi-10.3-2021.10/bin/../lib/gcc/arm-none-eabi/10.3.1/../../../../arm-none-eabi/lib/thumb/v8-m.main+fp/hard\libg_nano.a(lib_a-findfp.o)
 .text._cleanup_r
                0x00003ab0        0xc h:/softwareapplication/e2studio/toolchains/gcc_arm/gcc-arm-none-eabi-10.3-2021.10/bin/../lib/gcc/arm-none-eabi/10.3.1/../../../../arm-none-eabi/lib/thumb/v8-m.main+fp/hard\libg_nano.a(lib_a-findfp.o)
                0x00003ab0                _cleanup_r
 .text.__sfmoreglue
                0x00003abc       0x2c h:/softwareapplication/e2studio/toolchains/gcc_arm/gcc-arm-none-eabi-10.3-2021.10/bin/../lib/gcc/arm-none-eabi/10.3.1/../../../../arm-none-eabi/lib/thumb/v8-m.main+fp/hard\libg_nano.a(lib_a-findfp.o)
                0x00003abc                __sfmoreglue
 .text.__sfp_lock_acquire
                0x00003ae8        0xc h:/softwareapplication/e2studio/toolchains/gcc_arm/gcc-arm-none-eabi-10.3-2021.10/bin/../lib/gcc/arm-none-eabi/10.3.1/../../../../arm-none-eabi/lib/thumb/v8-m.main+fp/hard\libg_nano.a(lib_a-findfp.o)
                0x00003ae8                __sfp_lock_acquire
 .text.__sfp_lock_release
                0x00003af4        0xc h:/softwareapplication/e2studio/toolchains/gcc_arm/gcc-arm-none-eabi-10.3-2021.10/bin/../lib/gcc/arm-none-eabi/10.3.1/../../../../arm-none-eabi/lib/thumb/v8-m.main+fp/hard\libg_nano.a(lib_a-findfp.o)
                0x00003af4                __sfp_lock_release
 .text.__sinit_lock_acquire
                0x00003b00        0xc h:/softwareapplication/e2studio/toolchains/gcc_arm/gcc-arm-none-eabi-10.3-2021.10/bin/../lib/gcc/arm-none-eabi/10.3.1/../../../../arm-none-eabi/lib/thumb/v8-m.main+fp/hard\libg_nano.a(lib_a-findfp.o)
                0x00003b00                __sinit_lock_acquire
 .text.__sinit_lock_release
                0x00003b0c        0xc h:/softwareapplication/e2studio/toolchains/gcc_arm/gcc-arm-none-eabi-10.3-2021.10/bin/../lib/gcc/arm-none-eabi/10.3.1/../../../../arm-none-eabi/lib/thumb/v8-m.main+fp/hard\libg_nano.a(lib_a-findfp.o)
                0x00003b0c                __sinit_lock_release
 .text.__sinit  0x00003b18       0x70 h:/softwareapplication/e2studio/toolchains/gcc_arm/gcc-arm-none-eabi-10.3-2021.10/bin/../lib/gcc/arm-none-eabi/10.3.1/../../../../arm-none-eabi/lib/thumb/v8-m.main+fp/hard\libg_nano.a(lib_a-findfp.o)
                0x00003b18                __sinit
 .text.__sfp    0x00003b88       0x8c h:/softwareapplication/e2studio/toolchains/gcc_arm/gcc-arm-none-eabi-10.3-2021.10/bin/../lib/gcc/arm-none-eabi/10.3.1/../../../../arm-none-eabi/lib/thumb/v8-m.main+fp/hard\libg_nano.a(lib_a-findfp.o)
                0x00003b88                __sfp
 .text._fwalk_reent
                0x00003c14       0x3e h:/softwareapplication/e2studio/toolchains/gcc_arm/gcc-arm-none-eabi-10.3-2021.10/bin/../lib/gcc/arm-none-eabi/10.3.1/../../../../arm-none-eabi/lib/thumb/v8-m.main+fp/hard\libg_nano.a(lib_a-fwalk.o)
                0x00003c14                _fwalk_reent
 *fill*         0x00003c52        0x2 ff
 .text._localeconv_r
                0x00003c54        0x8 h:/softwareapplication/e2studio/toolchains/gcc_arm/gcc-arm-none-eabi-10.3-2021.10/bin/../lib/gcc/arm-none-eabi/10.3.1/../../../../arm-none-eabi/lib/thumb/v8-m.main+fp/hard\libg_nano.a(lib_a-localeconv.o)
                0x00003c54                _localeconv_r
 .text.__retarget_lock_init_recursive
                0x00003c5c        0x2 h:/softwareapplication/e2studio/toolchains/gcc_arm/gcc-arm-none-eabi-10.3-2021.10/bin/../lib/gcc/arm-none-eabi/10.3.1/../../../../arm-none-eabi/lib/thumb/v8-m.main+fp/hard\libg_nano.a(lib_a-lock.o)
                0x00003c5c                __retarget_lock_init_recursive
 .text.__retarget_lock_acquire_recursive
                0x00003c5e        0x2 h:/softwareapplication/e2studio/toolchains/gcc_arm/gcc-arm-none-eabi-10.3-2021.10/bin/../lib/gcc/arm-none-eabi/10.3.1/../../../../arm-none-eabi/lib/thumb/v8-m.main+fp/hard\libg_nano.a(lib_a-lock.o)
                0x00003c5e                __retarget_lock_acquire_recursive
 .text.__retarget_lock_release_recursive
                0x00003c60        0x2 h:/softwareapplication/e2studio/toolchains/gcc_arm/gcc-arm-none-eabi-10.3-2021.10/bin/../lib/gcc/arm-none-eabi/10.3.1/../../../../arm-none-eabi/lib/thumb/v8-m.main+fp/hard\libg_nano.a(lib_a-lock.o)
                0x00003c60                __retarget_lock_release_recursive
 .text.__swhatbuf_r
                0x00003c62       0x4a h:/softwareapplication/e2studio/toolchains/gcc_arm/gcc-arm-none-eabi-10.3-2021.10/bin/../lib/gcc/arm-none-eabi/10.3.1/../../../../arm-none-eabi/lib/thumb/v8-m.main+fp/hard\libg_nano.a(lib_a-makebuf.o)
                0x00003c62                __swhatbuf_r
 .text.__smakebuf_r
                0x00003cac       0x80 h:/softwareapplication/e2studio/toolchains/gcc_arm/gcc-arm-none-eabi-10.3-2021.10/bin/../lib/gcc/arm-none-eabi/10.3.1/../../../../arm-none-eabi/lib/thumb/v8-m.main+fp/hard\libg_nano.a(lib_a-makebuf.o)
                0x00003cac                __smakebuf_r
 .text.malloc   0x00003d2c       0x10 h:/softwareapplication/e2studio/toolchains/gcc_arm/gcc-arm-none-eabi-10.3-2021.10/bin/../lib/gcc/arm-none-eabi/10.3.1/../../../../arm-none-eabi/lib/thumb/v8-m.main+fp/hard\libg_nano.a(lib_a-malloc.o)
                0x00003d2c                malloc
 .text.memchr   0x00003d3c       0x1c h:/softwareapplication/e2studio/toolchains/gcc_arm/gcc-arm-none-eabi-10.3-2021.10/bin/../lib/gcc/arm-none-eabi/10.3.1/../../../../arm-none-eabi/lib/thumb/v8-m.main+fp/hard\libg_nano.a(lib_a-memchr-stub.o)
                0x00003d3c                memchr
 .text._Balloc  0x00003d58       0x80 h:/softwareapplication/e2studio/toolchains/gcc_arm/gcc-arm-none-eabi-10.3-2021.10/bin/../lib/gcc/arm-none-eabi/10.3.1/../../../../arm-none-eabi/lib/thumb/v8-m.main+fp/hard\libg_nano.a(lib_a-mprec.o)
                0x00003d58                _Balloc
 .text._Bfree   0x00003dd8       0x44 h:/softwareapplication/e2studio/toolchains/gcc_arm/gcc-arm-none-eabi-10.3-2021.10/bin/../lib/gcc/arm-none-eabi/10.3.1/../../../../arm-none-eabi/lib/thumb/v8-m.main+fp/hard\libg_nano.a(lib_a-mprec.o)
                0x00003dd8                _Bfree
 .text.__multadd
                0x00003e1c       0x90 h:/softwareapplication/e2studio/toolchains/gcc_arm/gcc-arm-none-eabi-10.3-2021.10/bin/../lib/gcc/arm-none-eabi/10.3.1/../../../../arm-none-eabi/lib/thumb/v8-m.main+fp/hard\libg_nano.a(lib_a-mprec.o)
                0x00003e1c                __multadd
 .text.__hi0bits
                0x00003eac       0x40 h:/softwareapplication/e2studio/toolchains/gcc_arm/gcc-arm-none-eabi-10.3-2021.10/bin/../lib/gcc/arm-none-eabi/10.3.1/../../../../arm-none-eabi/lib/thumb/v8-m.main+fp/hard\libg_nano.a(lib_a-mprec.o)
                0x00003eac                __hi0bits
 .text.__lo0bits
                0x00003eec       0x5e h:/softwareapplication/e2studio/toolchains/gcc_arm/gcc-arm-none-eabi-10.3-2021.10/bin/../lib/gcc/arm-none-eabi/10.3.1/../../../../arm-none-eabi/lib/thumb/v8-m.main+fp/hard\libg_nano.a(lib_a-mprec.o)
                0x00003eec                __lo0bits
 *fill*         0x00003f4a        0x2 ff
 .text.__i2b    0x00003f4c       0x2c h:/softwareapplication/e2studio/toolchains/gcc_arm/gcc-arm-none-eabi-10.3-2021.10/bin/../lib/gcc/arm-none-eabi/10.3.1/../../../../arm-none-eabi/lib/thumb/v8-m.main+fp/hard\libg_nano.a(lib_a-mprec.o)
                0x00003f4c                __i2b
 .text.__multiply
                0x00003f78      0x150 h:/softwareapplication/e2studio/toolchains/gcc_arm/gcc-arm-none-eabi-10.3-2021.10/bin/../lib/gcc/arm-none-eabi/10.3.1/../../../../arm-none-eabi/lib/thumb/v8-m.main+fp/hard\libg_nano.a(lib_a-mprec.o)
                0x00003f78                __multiply
 .text.__pow5mult
                0x000040c8       0xb4 h:/softwareapplication/e2studio/toolchains/gcc_arm/gcc-arm-none-eabi-10.3-2021.10/bin/../lib/gcc/arm-none-eabi/10.3.1/../../../../arm-none-eabi/lib/thumb/v8-m.main+fp/hard\libg_nano.a(lib_a-mprec.o)
                0x000040c8                __pow5mult
 .text.__lshift
                0x0000417c       0xe0 h:/softwareapplication/e2studio/toolchains/gcc_arm/gcc-arm-none-eabi-10.3-2021.10/bin/../lib/gcc/arm-none-eabi/10.3.1/../../../../arm-none-eabi/lib/thumb/v8-m.main+fp/hard\libg_nano.a(lib_a-mprec.o)
                0x0000417c                __lshift
 .text.__mcmp   0x0000425c       0x38 h:/softwareapplication/e2studio/toolchains/gcc_arm/gcc-arm-none-eabi-10.3-2021.10/bin/../lib/gcc/arm-none-eabi/10.3.1/../../../../arm-none-eabi/lib/thumb/v8-m.main+fp/hard\libg_nano.a(lib_a-mprec.o)
                0x0000425c                __mcmp
 .text.__mdiff  0x00004294      0x120 h:/softwareapplication/e2studio/toolchains/gcc_arm/gcc-arm-none-eabi-10.3-2021.10/bin/../lib/gcc/arm-none-eabi/10.3.1/../../../../arm-none-eabi/lib/thumb/v8-m.main+fp/hard\libg_nano.a(lib_a-mprec.o)
                0x00004294                __mdiff
 .text.__d2b    0x000043b4       0xb8 h:/softwareapplication/e2studio/toolchains/gcc_arm/gcc-arm-none-eabi-10.3-2021.10/bin/../lib/gcc/arm-none-eabi/10.3.1/../../../../arm-none-eabi/lib/thumb/v8-m.main+fp/hard\libg_nano.a(lib_a-mprec.o)
                0x000043b4                __d2b
 .text._calloc_r
                0x0000446c       0x2c h:/softwareapplication/e2studio/toolchains/gcc_arm/gcc-arm-none-eabi-10.3-2021.10/bin/../lib/gcc/arm-none-eabi/10.3.1/../../../../arm-none-eabi/lib/thumb/v8-m.main+fp/hard\libg_nano.a(lib_a-nano-callocr.o)
                0x0000446c                _calloc_r
 .text._free_r  0x00004498       0x98 h:/softwareapplication/e2studio/toolchains/gcc_arm/gcc-arm-none-eabi-10.3-2021.10/bin/../lib/gcc/arm-none-eabi/10.3.1/../../../../arm-none-eabi/lib/thumb/v8-m.main+fp/hard\libg_nano.a(lib_a-nano-freer.o)
                0x00004498                _free_r
 .text.sbrk_aligned
                0x00004530       0x40 h:/softwareapplication/e2studio/toolchains/gcc_arm/gcc-arm-none-eabi-10.3-2021.10/bin/../lib/gcc/arm-none-eabi/10.3.1/../../../../arm-none-eabi/lib/thumb/v8-m.main+fp/hard\libg_nano.a(lib_a-nano-mallocr.o)
 .text._malloc_r
                0x00004570       0xe8 h:/softwareapplication/e2studio/toolchains/gcc_arm/gcc-arm-none-eabi-10.3-2021.10/bin/../lib/gcc/arm-none-eabi/10.3.1/../../../../arm-none-eabi/lib/thumb/v8-m.main+fp/hard\libg_nano.a(lib_a-nano-mallocr.o)
                0x00004570                _malloc_r
 .text.__sfputc_r
                0x00004658       0x2e h:/softwareapplication/e2studio/toolchains/gcc_arm/gcc-arm-none-eabi-10.3-2021.10/bin/../lib/gcc/arm-none-eabi/10.3.1/../../../../arm-none-eabi/lib/thumb/v8-m.main+fp/hard\libg_nano.a(lib_a-nano-vfprintf.o)
 .text.__sfputs_r
                0x00004686       0x24 h:/softwareapplication/e2studio/toolchains/gcc_arm/gcc-arm-none-eabi-10.3-2021.10/bin/../lib/gcc/arm-none-eabi/10.3.1/../../../../arm-none-eabi/lib/thumb/v8-m.main+fp/hard\libg_nano.a(lib_a-nano-vfprintf.o)
                0x00004686                __sfputs_r
 *fill*         0x000046aa        0x2 ff
 .text._vfprintf_r
                0x000046ac      0x260 h:/softwareapplication/e2studio/toolchains/gcc_arm/gcc-arm-none-eabi-10.3-2021.10/bin/../lib/gcc/arm-none-eabi/10.3.1/../../../../arm-none-eabi/lib/thumb/v8-m.main+fp/hard\libg_nano.a(lib_a-nano-vfprintf.o)
                0x000046ac                _vfprintf_r
                0x000046ac                _vfiprintf_r
 .text._sbrk_r  0x0000490c       0x20 h:/softwareapplication/e2studio/toolchains/gcc_arm/gcc-arm-none-eabi-10.3-2021.10/bin/../lib/gcc/arm-none-eabi/10.3.1/../../../../arm-none-eabi/lib/thumb/v8-m.main+fp/hard\libg_nano.a(lib_a-sbrkr.o)
                0x0000490c                _sbrk_r
 .text.__sread  0x0000492c       0x22 h:/softwareapplication/e2studio/toolchains/gcc_arm/gcc-arm-none-eabi-10.3-2021.10/bin/../lib/gcc/arm-none-eabi/10.3.1/../../../../arm-none-eabi/lib/thumb/v8-m.main+fp/hard\libg_nano.a(lib_a-stdio.o)
                0x0000492c                __sread
 .text.__swrite
                0x0000494e       0x38 h:/softwareapplication/e2studio/toolchains/gcc_arm/gcc-arm-none-eabi-10.3-2021.10/bin/../lib/gcc/arm-none-eabi/10.3.1/../../../../arm-none-eabi/lib/thumb/v8-m.main+fp/hard\libg_nano.a(lib_a-stdio.o)
                0x0000494e                __swrite
 .text.__sseek  0x00004986       0x24 h:/softwareapplication/e2studio/toolchains/gcc_arm/gcc-arm-none-eabi-10.3-2021.10/bin/../lib/gcc/arm-none-eabi/10.3.1/../../../../arm-none-eabi/lib/thumb/v8-m.main+fp/hard\libg_nano.a(lib_a-stdio.o)
                0x00004986                __sseek
 .text.__sclose
                0x000049aa        0x8 h:/softwareapplication/e2studio/toolchains/gcc_arm/gcc-arm-none-eabi-10.3-2021.10/bin/../lib/gcc/arm-none-eabi/10.3.1/../../../../arm-none-eabi/lib/thumb/v8-m.main+fp/hard\libg_nano.a(lib_a-stdio.o)
                0x000049aa                __sclose
 *fill*         0x000049b2        0x2 ff
 .text._write_r
                0x000049b4       0x24 h:/softwareapplication/e2studio/toolchains/gcc_arm/gcc-arm-none-eabi-10.3-2021.10/bin/../lib/gcc/arm-none-eabi/10.3.1/../../../../arm-none-eabi/lib/thumb/v8-m.main+fp/hard\libg_nano.a(lib_a-writer.o)
                0x000049b4                _write_r
 .text._close_r
                0x000049d8       0x20 h:/softwareapplication/e2studio/toolchains/gcc_arm/gcc-arm-none-eabi-10.3-2021.10/bin/../lib/gcc/arm-none-eabi/10.3.1/../../../../arm-none-eabi/lib/thumb/v8-m.main+fp/hard\libg_nano.a(lib_a-closer.o)
                0x000049d8                _close_r
 .text._fstat_r
                0x000049f8       0x24 h:/softwareapplication/e2studio/toolchains/gcc_arm/gcc-arm-none-eabi-10.3-2021.10/bin/../lib/gcc/arm-none-eabi/10.3.1/../../../../arm-none-eabi/lib/thumb/v8-m.main+fp/hard\libg_nano.a(lib_a-fstatr.o)
                0x000049f8                _fstat_r
 .text._isatty_r
                0x00004a1c       0x20 h:/softwareapplication/e2studio/toolchains/gcc_arm/gcc-arm-none-eabi-10.3-2021.10/bin/../lib/gcc/arm-none-eabi/10.3.1/../../../../arm-none-eabi/lib/thumb/v8-m.main+fp/hard\libg_nano.a(lib_a-isattyr.o)
                0x00004a1c                _isatty_r
 .text._lseek_r
                0x00004a3c       0x24 h:/softwareapplication/e2studio/toolchains/gcc_arm/gcc-arm-none-eabi-10.3-2021.10/bin/../lib/gcc/arm-none-eabi/10.3.1/../../../../arm-none-eabi/lib/thumb/v8-m.main+fp/hard\libg_nano.a(lib_a-lseekr.o)
                0x00004a3c                _lseek_r
 .text.__ascii_mbtowc
                0x00004a60       0x24 h:/softwareapplication/e2studio/toolchains/gcc_arm/gcc-arm-none-eabi-10.3-2021.10/bin/../lib/gcc/arm-none-eabi/10.3.1/../../../../arm-none-eabi/lib/thumb/v8-m.main+fp/hard\libg_nano.a(lib_a-mbtowc_r.o)
                0x00004a60                __ascii_mbtowc
 .text.__malloc_lock
                0x00004a84        0xc h:/softwareapplication/e2studio/toolchains/gcc_arm/gcc-arm-none-eabi-10.3-2021.10/bin/../lib/gcc/arm-none-eabi/10.3.1/../../../../arm-none-eabi/lib/thumb/v8-m.main+fp/hard\libg_nano.a(lib_a-mlock.o)
                0x00004a84                __malloc_lock
 .text.__malloc_unlock
                0x00004a90        0xc h:/softwareapplication/e2studio/toolchains/gcc_arm/gcc-arm-none-eabi-10.3-2021.10/bin/../lib/gcc/arm-none-eabi/10.3.1/../../../../arm-none-eabi/lib/thumb/v8-m.main+fp/hard\libg_nano.a(lib_a-mlock.o)
                0x00004a90                __malloc_unlock
 .text._read_r  0x00004a9c       0x24 h:/softwareapplication/e2studio/toolchains/gcc_arm/gcc-arm-none-eabi-10.3-2021.10/bin/../lib/gcc/arm-none-eabi/10.3.1/../../../../arm-none-eabi/lib/thumb/v8-m.main+fp/hard\libg_nano.a(lib_a-readr.o)
                0x00004a9c                _read_r
 .text.__ascii_wctomb
                0x00004ac0       0x1a h:/softwareapplication/e2studio/toolchains/gcc_arm/gcc-arm-none-eabi-10.3-2021.10/bin/../lib/gcc/arm-none-eabi/10.3.1/../../../../arm-none-eabi/lib/thumb/v8-m.main+fp/hard\libg_nano.a(lib_a-wctomb_r.o)
                0x00004ac0                __ascii_wctomb
 *fill*         0x00004ada        0x2 ff
 .text          0x00004adc      0x378 h:/softwareapplication/e2studio/toolchains/gcc_arm/gcc-arm-none-eabi-10.3-2021.10/bin/../lib/gcc/arm-none-eabi/10.3.1/thumb/v8-m.main+fp/hard\libgcc.a(_arm_addsubdf3.o)
                0x00004adc                __aeabi_drsub
                0x00004ae4                __aeabi_dsub
                0x00004ae4                __subdf3
                0x00004ae8                __aeabi_dadd
                0x00004ae8                __adddf3
                0x00004d60                __floatunsidf
                0x00004d60                __aeabi_ui2d
                0x00004d80                __floatsidf
                0x00004d80                __aeabi_i2d
                0x00004da4                __aeabi_f2d
                0x00004da4                __extendsfdf2
                0x00004de8                __floatundidf
                0x00004de8                __aeabi_ul2d
                0x00004df8                __floatdidf
                0x00004df8                __aeabi_l2d
 .text          0x00004e54      0x424 h:/softwareapplication/e2studio/toolchains/gcc_arm/gcc-arm-none-eabi-10.3-2021.10/bin/../lib/gcc/arm-none-eabi/10.3.1/thumb/v8-m.main+fp/hard\libgcc.a(_arm_muldivdf3.o)
                0x00004e54                __aeabi_dmul
                0x00004e54                __muldf3
                0x000050a8                __divdf3
                0x000050a8                __aeabi_ddiv
 .text          0x00005278      0x110 h:/softwareapplication/e2studio/toolchains/gcc_arm/gcc-arm-none-eabi-10.3-2021.10/bin/../lib/gcc/arm-none-eabi/10.3.1/thumb/v8-m.main+fp/hard\libgcc.a(_arm_cmpdf2.o)
                0x00005278                __gtdf2
                0x00005278                __gedf2
                0x00005280                __ltdf2
                0x00005280                __ledf2
                0x00005288                __nedf2
                0x00005288                __eqdf2
                0x00005288                __cmpdf2
                0x00005304                __aeabi_cdrcmple
                0x00005314                __aeabi_cdcmpeq
                0x00005314                __aeabi_cdcmple
                0x00005324                __aeabi_dcmpeq
                0x00005338                __aeabi_dcmplt
                0x0000534c                __aeabi_dcmple
                0x00005360                __aeabi_dcmpge
                0x00005374                __aeabi_dcmpgt
 .text          0x00005388       0x2c h:/softwareapplication/e2studio/toolchains/gcc_arm/gcc-arm-none-eabi-10.3-2021.10/bin/../lib/gcc/arm-none-eabi/10.3.1/thumb/v8-m.main+fp/hard\libgcc.a(_arm_unorddf2.o)
                0x00005388                __unorddf2
                0x00005388                __aeabi_dcmpun
 .text          0x000053b4       0x50 h:/softwareapplication/e2studio/toolchains/gcc_arm/gcc-arm-none-eabi-10.3-2021.10/bin/../lib/gcc/arm-none-eabi/10.3.1/thumb/v8-m.main+fp/hard\libgcc.a(_arm_fixdfsi.o)
                0x000053b4                __aeabi_d2iz
                0x000053b4                __fixdfsi
 .text._close   0x00005404       0x10 h:/softwareapplication/e2studio/toolchains/gcc_arm/gcc-arm-none-eabi-10.3-2021.10/bin/../lib/gcc/arm-none-eabi/10.3.1/../../../../arm-none-eabi/lib/thumb/v8-m.main+fp/hard\libnosys.a(close.o)
                0x00005404                _close
 .text._fstat   0x00005414       0x10 h:/softwareapplication/e2studio/toolchains/gcc_arm/gcc-arm-none-eabi-10.3-2021.10/bin/../lib/gcc/arm-none-eabi/10.3.1/../../../../arm-none-eabi/lib/thumb/v8-m.main+fp/hard\libnosys.a(fstat.o)
                0x00005414                _fstat
 .text._isatty  0x00005424       0x10 h:/softwareapplication/e2studio/toolchains/gcc_arm/gcc-arm-none-eabi-10.3-2021.10/bin/../lib/gcc/arm-none-eabi/10.3.1/../../../../arm-none-eabi/lib/thumb/v8-m.main+fp/hard\libnosys.a(isatty.o)
                0x00005424                _isatty
 .text._lseek   0x00005434       0x10 h:/softwareapplication/e2studio/toolchains/gcc_arm/gcc-arm-none-eabi-10.3-2021.10/bin/../lib/gcc/arm-none-eabi/10.3.1/../../../../arm-none-eabi/lib/thumb/v8-m.main+fp/hard\libnosys.a(lseek.o)
                0x00005434                _lseek
 .text._read    0x00005444       0x10 h:/softwareapplication/e2studio/toolchains/gcc_arm/gcc-arm-none-eabi-10.3-2021.10/bin/../lib/gcc/arm-none-eabi/10.3.1/../../../../arm-none-eabi/lib/thumb/v8-m.main+fp/hard\libnosys.a(read.o)
                0x00005444                _read
 *(.version)
 .version       0x00005454       0x50 ./ra/fsp/src/bsp/mcu/all/bsp_common.o
 *(.init)
 .init          0x000054a4        0x4 h:/softwareapplication/e2studio/toolchains/gcc_arm/gcc-arm-none-eabi-10.3-2021.10/bin/../lib/gcc/arm-none-eabi/10.3.1/thumb/v8-m.main+fp/hard/crti.o
                0x000054a4                _init
 .init          0x000054a8        0x8 h:/softwareapplication/e2studio/toolchains/gcc_arm/gcc-arm-none-eabi-10.3-2021.10/bin/../lib/gcc/arm-none-eabi/10.3.1/thumb/v8-m.main+fp/hard/crtn.o
 *(.fini)
 .fini          0x000054b0        0x4 h:/softwareapplication/e2studio/toolchains/gcc_arm/gcc-arm-none-eabi-10.3-2021.10/bin/../lib/gcc/arm-none-eabi/10.3.1/thumb/v8-m.main+fp/hard/crti.o
                0x000054b0                _fini
 .fini          0x000054b4        0x8 h:/softwareapplication/e2studio/toolchains/gcc_arm/gcc-arm-none-eabi-10.3-2021.10/bin/../lib/gcc/arm-none-eabi/10.3.1/thumb/v8-m.main+fp/hard/crtn.o
 *crtbegin.o(.ctors)
 *crtbegin?.o(.ctors)
 *(EXCLUDE_FILE(*crtend.o *crtend?.o) .ctors)
 *(SORT_BY_NAME(.ctors.*))
 *(.ctors)
 *crtbegin.o(.dtors)
 *crtbegin?.o(.dtors)
 *(EXCLUDE_FILE(*crtend.o *crtend?.o) .dtors)
 *(SORT_BY_NAME(.dtors.*))
 *(.dtors)
 *(.rodata*)
 .rodata.Debug_UART4_Init.str1.4
                0x000054bc       0x2c ./src/bsp_debug_uart.o
 .rodata.__func__.0
                0x000054e8       0x11 ./src/bsp_debug_uart.o
 *fill*         0x000054f9        0x3 ff
 .rodata.AT_Init.str1.4
                0x000054fc      0x1a5 ./src/bsp_wifi_esp8266.o
 *fill*         0x000056a1        0x3 ff
 .rodata.AT_Send_Data.str1.4
                0x000056a4      0x18a ./src/bsp_wifi_esp8266.o
 *fill*         0x0000582e        0x2 ff
 .rodata.Hardware_init.str1.4
                0x00005830       0x83 ./src/hal_entry.o
                                 0x97 (size before relaxing)
 *fill*         0x000058b3        0x1 ff
 .rodata.hal_entry.str1.4
                0x000058b4       0x39 ./src/hal_entry.o
                                 0x3e (size before relaxing)
 *fill*         0x000058ed        0x3 ff
 .rodata.__func__.0
                0x000058f0        0xe ./src/hal_entry.o
 *fill*         0x000058fe        0x2 ff
 .rodata.Write_IIC_Command.str1.4
                0x00005900        0xe ./src/oled.o
                                 0x22 (size before relaxing)
 *fill*         0x0000590e        0x2 ff
 .rodata.F6x8   0x00005910      0x228 ./src/oled.o
                0x00005910                F6x8
 .rodata.F8X16  0x00005b38      0x5f0 ./src/oled.o
                0x00005b38                F8X16
 .rodata.__func__.0
                0x00006128        0xf ./src/oled.o
 *fill*         0x00006137        0x1 ff
 .rodata.__func__.1
                0x00006138       0x12 ./src/oled.o
 *fill*         0x0000614a        0x2 ff
 .rodata.g_ioport
                0x0000614c        0xc ./ra_gen/common_data.o
                0x0000614c                g_ioport
 .rodata.g_i2c5_cfg
                0x00006158       0x28 ./ra_gen/hal_data.o
                0x00006158                g_i2c5_cfg
 .rodata.g_i2c5_cfg_extend
                0x00006180        0x6 ./ra_gen/hal_data.o
                0x00006180                g_i2c5_cfg_extend
 *fill*         0x00006186        0x2 ff
 .rodata.g_timer_gpt0_cfg
                0x00006188       0x20 ./ra_gen/hal_data.o
                0x00006188                g_timer_gpt0_cfg
 .rodata.g_timer_gpt0_extend
                0x000061a8       0x30 ./ra_gen/hal_data.o
                0x000061a8                g_timer_gpt0_extend
 .rodata.g_uart4_cfg
                0x000061d8       0x20 ./ra_gen/hal_data.o
                0x000061d8                g_uart4_cfg
 .rodata.g_uart4_cfg_extend
                0x000061f8       0x14 ./ra_gen/hal_data.o
                0x000061f8                g_uart4_cfg_extend
 .rodata.g_uart9_esp8266_cfg
                0x0000620c       0x20 ./ra_gen/hal_data.o
                0x0000620c                g_uart9_esp8266_cfg
 .rodata.g_uart9_esp8266_cfg_extend
                0x0000622c       0x14 ./ra_gen/hal_data.o
                0x0000622c                g_uart9_esp8266_cfg_extend
 .rodata.g_bsp_pin_cfg
                0x00006240        0x8 ./ra_gen/pin_data.o
                0x00006240                g_bsp_pin_cfg
 .rodata.g_bsp_pin_cfg_data
                0x00006248       0x70 ./ra_gen/pin_data.o
                0x00006248                g_bsp_pin_cfg_data
 .rodata.g_interrupt_event_link_select
                0x000062b8       0xc0 ./ra_gen/vector_data.o
                0x000062b8                g_interrupt_event_link_select
 .rodata.g_ioport_on_ioport
                0x00006378       0x34 ./ra/fsp/src/r_ioport/r_ioport.o
                0x00006378                g_ioport_on_ioport
 .rodata.g_prcr_masks
                0x000063ac        0x8 ./ra/fsp/src/bsp/mcu/all/bsp_register_protection.o
 .rodata._global_impure_ptr
                0x000063b4        0x4 h:/softwareapplication/e2studio/toolchains/gcc_arm/gcc-arm-none-eabi-10.3-2021.10/bin/../lib/gcc/arm-none-eabi/10.3.1/../../../../arm-none-eabi/lib/thumb/v8-m.main+fp/hard\libg_nano.a(lib_a-impure.o)
                0x000063b4                _global_impure_ptr
 .rodata._printf_float.str1.1
                0x000063b8       0x12 h:/softwareapplication/e2studio/toolchains/gcc_arm/gcc-arm-none-eabi-10.3-2021.10/bin/../lib/gcc/arm-none-eabi/10.3.1/../../../../arm-none-eabi/lib/thumb/v8-m.main+fp/hard\libg_nano.a(lib_a-nano-vfprintf_float.o)
 .rodata._printf_i.str1.1
                0x000063ca       0x22 h:/softwareapplication/e2studio/toolchains/gcc_arm/gcc-arm-none-eabi-10.3-2021.10/bin/../lib/gcc/arm-none-eabi/10.3.1/../../../../arm-none-eabi/lib/thumb/v8-m.main+fp/hard\libg_nano.a(lib_a-nano-vfprintf_i.o)
 .rodata._dtoa_r.str1.1
                0x000063ec       0xb3 h:/softwareapplication/e2studio/toolchains/gcc_arm/gcc-arm-none-eabi-10.3-2021.10/bin/../lib/gcc/arm-none-eabi/10.3.1/../../../../arm-none-eabi/lib/thumb/v8-m.main+fp/hard\libg_nano.a(lib_a-dtoa.o)
                                 0xb5 (size before relaxing)
 *fill*         0x0000649f        0x1 ff
 .rodata.__sf_fake_stderr
                0x000064a0       0x20 h:/softwareapplication/e2studio/toolchains/gcc_arm/gcc-arm-none-eabi-10.3-2021.10/bin/../lib/gcc/arm-none-eabi/10.3.1/../../../../arm-none-eabi/lib/thumb/v8-m.main+fp/hard\libg_nano.a(lib_a-findfp.o)
                0x000064a0                __sf_fake_stderr
 .rodata.__sf_fake_stdin
                0x000064c0       0x20 h:/softwareapplication/e2studio/toolchains/gcc_arm/gcc-arm-none-eabi-10.3-2021.10/bin/../lib/gcc/arm-none-eabi/10.3.1/../../../../arm-none-eabi/lib/thumb/v8-m.main+fp/hard\libg_nano.a(lib_a-findfp.o)
                0x000064c0                __sf_fake_stdin
 .rodata.__sf_fake_stdout
                0x000064e0       0x20 h:/softwareapplication/e2studio/toolchains/gcc_arm/gcc-arm-none-eabi-10.3-2021.10/bin/../lib/gcc/arm-none-eabi/10.3.1/../../../../arm-none-eabi/lib/thumb/v8-m.main+fp/hard\libg_nano.a(lib_a-findfp.o)
                0x000064e0                __sf_fake_stdout
 .rodata._Balloc.str1.1
                0x00006500       0x7f h:/softwareapplication/e2studio/toolchains/gcc_arm/gcc-arm-none-eabi-10.3-2021.10/bin/../lib/gcc/arm-none-eabi/10.3.1/../../../../arm-none-eabi/lib/thumb/v8-m.main+fp/hard\libg_nano.a(lib_a-mprec.o)
                                 0x96 (size before relaxing)
 .rodata.__multadd.str1.1
                0x0000657f       0x11 h:/softwareapplication/e2studio/toolchains/gcc_arm/gcc-arm-none-eabi-10.3-2021.10/bin/../lib/gcc/arm-none-eabi/10.3.1/../../../../arm-none-eabi/lib/thumb/v8-m.main+fp/hard\libg_nano.a(lib_a-mprec.o)
 *fill*         0x0000657f        0x1 ff
 .rodata.__mprec_bigtens
                0x00006580       0x28 h:/softwareapplication/e2studio/toolchains/gcc_arm/gcc-arm-none-eabi-10.3-2021.10/bin/../lib/gcc/arm-none-eabi/10.3.1/../../../../arm-none-eabi/lib/thumb/v8-m.main+fp/hard\libg_nano.a(lib_a-mprec.o)
                0x00006580                __mprec_bigtens
 .rodata.__mprec_tens
                0x000065a8       0xc8 h:/softwareapplication/e2studio/toolchains/gcc_arm/gcc-arm-none-eabi-10.3-2021.10/bin/../lib/gcc/arm-none-eabi/10.3.1/../../../../arm-none-eabi/lib/thumb/v8-m.main+fp/hard\libg_nano.a(lib_a-mprec.o)
                0x000065a8                __mprec_tens
 .rodata.p05.0  0x00006670        0xc h:/softwareapplication/e2studio/toolchains/gcc_arm/gcc-arm-none-eabi-10.3-2021.10/bin/../lib/gcc/arm-none-eabi/10.3.1/../../../../arm-none-eabi/lib/thumb/v8-m.main+fp/hard\libg_nano.a(lib_a-mprec.o)
 .rodata._vfprintf_r.str1.1
                0x0000667c       0x11 h:/softwareapplication/e2studio/toolchains/gcc_arm/gcc-arm-none-eabi-10.3-2021.10/bin/../lib/gcc/arm-none-eabi/10.3.1/../../../../arm-none-eabi/lib/thumb/v8-m.main+fp/hard\libg_nano.a(lib_a-nano-vfprintf.o)
 .rodata._setlocale_r.str1.1
                0x0000668d        0x8 h:/softwareapplication/e2studio/toolchains/gcc_arm/gcc-arm-none-eabi-10.3-2021.10/bin/../lib/gcc/arm-none-eabi/10.3.1/../../../../arm-none-eabi/lib/thumb/v8-m.main+fp/hard\libg_nano.a(lib_a-locale.o)
                                  0x9 (size before relaxing)
 .rodata.str1.1
                0x00006695        0x2 h:/softwareapplication/e2studio/toolchains/gcc_arm/gcc-arm-none-eabi-10.3-2021.10/bin/../lib/gcc/arm-none-eabi/10.3.1/../../../../arm-none-eabi/lib/thumb/v8-m.main+fp/hard\libg_nano.a(lib_a-locale.o)
 .rodata._ctype_
                0x00006697      0x101 h:/softwareapplication/e2studio/toolchains/gcc_arm/gcc-arm-none-eabi-10.3-2021.10/bin/../lib/gcc/arm-none-eabi/10.3.1/../../../../arm-none-eabi/lib/thumb/v8-m.main+fp/hard\libg_nano.a(lib_a-ctype_.o)
                0x00006697                _ctype_
                0x00006798                __usb_dev_descriptor_start_fs = .
 *(.usb_device_desc_fs*)
                0x00006798                __usb_cfg_descriptor_start_fs = .
 *(.usb_config_desc_fs*)
                0x00006798                __usb_interface_descriptor_start_fs = .
 *(.usb_interface_desc_fs*)
                0x00006798                __usb_descriptor_end_fs = .
                0x00006798                __usb_dev_descriptor_start_hs = .
 *(.usb_device_desc_hs*)
                0x00006798                __usb_cfg_descriptor_start_hs = .
 *(.usb_config_desc_hs*)
                0x00006798                __usb_interface_descriptor_start_hs = .
 *(.usb_interface_desc_hs*)
                0x00006798                __usb_descriptor_end_hs = .
 *(.eh_frame*)
 .eh_frame      0x00006798        0x0 h:/softwareapplication/e2studio/toolchains/gcc_arm/gcc-arm-none-eabi-10.3-2021.10/bin/../lib/gcc/arm-none-eabi/10.3.1/thumb/v8-m.main+fp/hard/crtbegin.o
 .eh_frame      0x00006798        0x4 h:/softwareapplication/e2studio/toolchains/gcc_arm/gcc-arm-none-eabi-10.3-2021.10/bin/../lib/gcc/arm-none-eabi/10.3.1/thumb/v8-m.main+fp/hard/crtend.o
                0x0000679c                __ROM_End = .
                0x000001c0                __Vectors_Size = (__Vectors_End - __Vectors)

.glue_7         0x0000679c        0x0
 .glue_7        0x0000679c        0x0 linker stubs

.glue_7t        0x0000679c        0x0
 .glue_7t       0x0000679c        0x0 linker stubs

.vfp11_veneer   0x0000679c        0x0
 .vfp11_veneer  0x0000679c        0x0 linker stubs

.v4_bx          0x0000679c        0x0
 .v4_bx         0x0000679c        0x0 linker stubs

.iplt           0x0000679c        0x0
 .iplt          0x0000679c        0x0 h:/softwareapplication/e2studio/toolchains/gcc_arm/gcc-arm-none-eabi-10.3-2021.10/bin/../lib/gcc/arm-none-eabi/10.3.1/thumb/v8-m.main+fp/hard/crtbegin.o

.ARM.extab
 *(.ARM.extab* .gnu.linkonce.armextab.*)
                0x0000679c                __exidx_start = .

.ARM.exidx
 *(.ARM.exidx* .gnu.linkonce.armexidx.*)
                0x0000679c                __exidx_end = .
                0x0000679c                __etext = .
                0x20000000                __tz_RAM_S = ORIGIN (RAM)

.fsp_dtc_vector_table
                0x20000000        0x0
                0x20000000                . = ORIGIN (RAM)
 *(.fsp_dtc_vector_table)

.data           0x20000000      0x468 load address 0x0000679c
                0x20000000                __data_start__ = .
                0x20000000                . = ALIGN (0x4)
                0x20000000                __Code_In_RAM_Start = .
 *(.code_in_ram*)
                0x20000000                __Code_In_RAM_End = .
 *(vtable)
 *(.data.*)
 .data.i2c_event
                0x20000000        0x1 ./src/hal_entry.o
                0x20000000                i2c_event
 *fill*         0x20000001        0x3 
 .data.timeout_ms
                0x20000004        0x4 ./src/hal_entry.o
                0x20000004                timeout_ms
 .data.Hzk      0x20000008      0x280 ./src/oled.o
                0x20000008                Hzk
 .data.g_uart4_baud_setting
                0x20000288        0x4 ./ra_gen/hal_data.o
                0x20000288                g_uart4_baud_setting
 .data.g_uart9_esp8266_baud_setting
                0x2000028c        0x4 ./ra_gen/hal_data.o
                0x2000028c                g_uart9_esp8266_baud_setting
 .data._impure_ptr
                0x20000290        0x4 h:/softwareapplication/e2studio/toolchains/gcc_arm/gcc-arm-none-eabi-10.3-2021.10/bin/../lib/gcc/arm-none-eabi/10.3.1/../../../../arm-none-eabi/lib/thumb/v8-m.main+fp/hard\libg_nano.a(lib_a-impure.o)
                0x20000290                _impure_ptr
 .data.impure_data
                0x20000294       0x60 h:/softwareapplication/e2studio/toolchains/gcc_arm/gcc-arm-none-eabi-10.3-2021.10/bin/../lib/gcc/arm-none-eabi/10.3.1/../../../../arm-none-eabi/lib/thumb/v8-m.main+fp/hard\libg_nano.a(lib_a-impure.o)
 .data.__global_locale
                0x200002f4      0x16c h:/softwareapplication/e2studio/toolchains/gcc_arm/gcc-arm-none-eabi-10.3-2021.10/bin/../lib/gcc/arm-none-eabi/10.3.1/../../../../arm-none-eabi/lib/thumb/v8-m.main+fp/hard\libg_nano.a(lib_a-locale.o)
                0x200002f4                __global_locale
 *(.data)
                0x20000460                . = ALIGN (0x4)
                0x20000460                PROVIDE (__preinit_array_start = .)
 *(.preinit_array)
                0x20000460                PROVIDE (__preinit_array_end = .)
                0x20000460                . = ALIGN (0x4)
                0x20000460                PROVIDE (__init_array_start = .)
 *(SORT_BY_NAME(.init_array.*))
 *(.init_array)
 .init_array    0x20000460        0x4 h:/softwareapplication/e2studio/toolchains/gcc_arm/gcc-arm-none-eabi-10.3-2021.10/bin/../lib/gcc/arm-none-eabi/10.3.1/thumb/v8-m.main+fp/hard/crtbegin.o
                0x20000464                PROVIDE (__init_array_end = .)
                0x20000464                . = ALIGN (0x4)
                [!provide]                PROVIDE (__fini_array_start = .)
 *(SORT_BY_NAME(.fini_array.*))
 *(.fini_array)
 .fini_array    0x20000464        0x4 h:/softwareapplication/e2studio/toolchains/gcc_arm/gcc-arm-none-eabi-10.3-2021.10/bin/../lib/gcc/arm-none-eabi/10.3.1/thumb/v8-m.main+fp/hard/crtbegin.o
                [!provide]                PROVIDE (__fini_array_end = .)
 *(.jcr*)
                0x20000468                . = ALIGN (0x4)
                0x20000468                __data_end__ = .
                0x00006c04                DATA_END = (LOADADDR (.data) + SIZEOF (.data))
                0x00007000                SGSTUBS_LOC = (DEFINED (PROJECT_SECURE) && DEFINED (FLASH_NSC_START))?ABSOLUTE (FLASH_NSC_START):ALIGN (DATA_END, 0x400)

.igot.plt       0x20000468        0x0 load address 0x00006c04
 .igot.plt      0x20000468        0x0 h:/softwareapplication/e2studio/toolchains/gcc_arm/gcc-arm-none-eabi-10.3-2021.10/bin/../lib/gcc/arm-none-eabi/10.3.1/thumb/v8-m.main+fp/hard/crtbegin.o

.gnu.sgstubs    0x00007000        0x0
                0x00007000                __tz_FLASH_C = DEFINED (FLASH_NSC_START)?ABSOLUTE (FLASH_NSC_START):__RESERVE_NS_RAM?ABSOLUTE ((FLASH_START + FLASH_LENGTH)):ALIGN (0x400)
                0x00007000                _start_sg = .
 *(.gnu.sgstubs*)
                0x00007000                . = ALIGN (0x20)
                0x00007000                _end_sg = .
                0x00008000                __tz_FLASH_N = DEFINED (FLASH_NS_START)?ABSOLUTE (FLASH_NS_START):__RESERVE_NS_RAM?ABSOLUTE ((FLASH_START + FLASH_LENGTH)):(FLASH_LENGTH < 0x8000)?FLASH_LENGTH:ALIGN (0x8000)
                0x00008000                FLASH_NS_IMAGE_START = DEFINED (FLASH_NS_IMAGE_START)?FLASH_NS_IMAGE_START:__tz_FLASH_N
                0x60000000                __tz_QSPI_FLASH_S = ORIGIN (QSPI_FLASH)

.qspi_flash     0x60000000        0x0
                0x60000000                __qspi_flash_start__ = .
 *(.qspi_flash*)
 *(.code_in_qspi*)
                0x60000000                __qspi_flash_end__ = .
                0x00000000                __qspi_flash_code_size__ = (__qspi_flash_end__ - __qspi_flash_start__)
                0x00006c04                __qspi_flash_code_addr__ = (__etext + (__data_end__ - __data_start__))

.qspi_non_retentive
                0x60000000        0x0 load address 0x00006c04
                0x60000000                __qspi_non_retentive_start__ = .
 *(.qspi_non_retentive*)
                0x60000000                __qspi_non_retentive_end__ = .
                0x00000000                __qspi_non_retentive_size__ = (__qspi_non_retentive_end__ - __qspi_non_retentive_start__)
                0x04000000                __qspi_region_max_size__ = 0x4000000
                0x60000000                __qspi_region_start_address__ = __qspi_flash_start__
                0x64000000                __qspi_region_end_address__ = (__qspi_flash_start__ + __qspi_region_max_size__)
                0x60000000                __tz_QSPI_FLASH_N = __qspi_non_retentive_end__

.OSPI_DEVICE_0_NO_LOAD
                0x68000000        0x0
                0x68000000                . = ALIGN (0x4)
                0x68000000                __ospi_device_0_start__ = .
 *(.ospi_device_0_no_load*)
                0x68000000                . = ALIGN (0x4)
                0x68000000                __ospi_device_0_end__ = .

.OSPI_DEVICE_1_NO_LOAD
                0x70000000        0x0
                0x70000000                . = ALIGN (0x4)
                0x70000000                __ospi_device_1_start__ = .
 *(.ospi_device_1_no_load*)
                0x70000000                . = ALIGN (0x4)
                0x70000000                __ospi_device_1_end__ = .
                0x68000000                __tz_OSPI_DEVICE_0_S = ORIGIN (OSPI_DEVICE_0)

.OSPI_DEVICE_0  0x68000000        0x0
                0x68000000                __ospi_device_0_start__ = .
 *(.ospi_device_0*)
 *(.code_in_ospi_device_0*)
                0x68000000                __ospi_device_0_end__ = .
                0x00000000                __ospi_device_0_code_size__ = (__ospi_device_0_end__ - __ospi_device_0_start__)
                0x00006c04                __ospi_device_0_code_addr__ = (__etext + (__data_end__ - __data_start__))

.ospi_device_0_non_retentive
                0x68000000        0x0 load address 0x00006c04
                0x68000000                __ospi_device_0_non_retentive_start__ = .
 *(.ospi_device_0_non_retentive*)
                0x68000000                __ospi_device_0_non_retentive_end__ = .
                0x00000000                __ospi_device_0_non_retentive_size__ = (__ospi_device_0_non_retentive_end__ - __ospi_device_0_non_retentive_start__)
                0x08000000                __ospi_device_0_region_max_size__ = 0x8000000
                0x68000000                __ospi_device_0_region_start_address__ = __ospi_device_0_start__
                0x70000000                __ospi_device_0_region_end_address__ = (__ospi_device_0_start__ + __ospi_device_0_region_max_size__)
                0x68000000                __tz_OSPI_DEVICE_0_N = __ospi_device_0_non_retentive_end__
                0x70000000                __tz_OSPI_DEVICE_1_S = ORIGIN (OSPI_DEVICE_1)

.OSPI_DEVICE_1  0x70000000        0x0
                0x70000000                __ospi_device_1_start__ = .
 *(.ospi_device_1*)
 *(.code_in_ospi_device_1*)
                0x70000000                __ospi_device_1_end__ = .
                0x00000000                __ospi_device_1_code_size__ = (__ospi_device_1_end__ - __ospi_device_1_start__)
                0x00006c04                __ospi_device_1_code_addr__ = (__etext + (__data_end__ - __data_start__))

.ospi_device_1_non_retentive
                0x70000000        0x0 load address 0x00006c04
                0x70000000                __ospi_device_1_non_retentive_start__ = .
 *(.ospi_device_1_non_retentive*)
                0x70000000                __ospi_device_1_non_retentive_end__ = .
                0x00000000                __ospi_device_1_non_retentive_size__ = (__ospi_device_1_non_retentive_end__ - __ospi_device_1_non_retentive_start__)
                0x10000000                __ospi_device_1_region_max_size__ = 0x10000000
                0x70000000                __ospi_device_1_region_start_address__ = __ospi_device_1_start__
                0x80000000                __ospi_device_1_region_end_address__ = (__ospi_device_1_start__ + __ospi_device_1_region_max_size__)
                0x70000000                __tz_OSPI_DEVICE_1_N = __ospi_device_1_non_retentive_end__

.noinit         0x20000468       0x20
                0x20000468                . = ALIGN (0x4)
                0x20000468                __noinit_start = .
 *(.noinit*)
 .noinit        0x20000468       0x1c ./ra/fsp/src/bsp/mcu/all/bsp_clocks.o
                0x20000488                . = ALIGN (0x8)
 *fill*         0x20000484        0x4 
 *(.heap.*)
                0x20000488                __noinit_end = .

.bss            0x20000488      0x2e0
                0x20000488                . = ALIGN (0x4)
                0x20000488                __bss_start__ = .
 *(.bss*)
 .bss           0x20000488       0x1c h:/softwareapplication/e2studio/toolchains/gcc_arm/gcc-arm-none-eabi-10.3-2021.10/bin/../lib/gcc/arm-none-eabi/10.3.1/thumb/v8-m.main+fp/hard/crtbegin.o
 .bss.uart_send_complete_flag
                0x200004a4        0x1 ./src/bsp_debug_uart.o
                0x200004a4                uart_send_complete_flag
 *fill*         0x200004a5        0x3 
 .bss.time1s_flag
                0x200004a8        0x4 ./src/bsp_gpt_timing.o
                0x200004a8                time1s_flag
 .bss.uart_tx_done
                0x200004ac        0x1 ./src/bsp_wifi_esp8266.o
                0x200004ac                uart_tx_done
 *fill*         0x200004ad        0x3 
 .bss.DHT11_Data
                0x200004b0        0x5 ./src/hal_entry.o
                0x200004b0                DHT11_Data
 .bss.Humidity  0x200004b5        0x1 ./src/hal_entry.o
                0x200004b5                Humidity
 .bss.Temperature
                0x200004b6        0x1 ./src/hal_entry.o
                0x200004b6                Temperature
 *fill*         0x200004b7        0x1 
 .bss.err       0x200004b8        0x4 ./src/hal_entry.o
                0x200004b8                err
 .bss.g_ioport_ctrl
                0x200004bc        0x8 ./ra_gen/common_data.o
                0x200004bc                g_ioport_ctrl
 .bss.g_i2c5_ctrl
                0x200004c4       0x40 ./ra_gen/hal_data.o
                0x200004c4                g_i2c5_ctrl
 .bss.g_timer_gpt0_ctrl
                0x20000504       0x20 ./ra_gen/hal_data.o
                0x20000504                g_timer_gpt0_ctrl
 .bss.g_uart4_ctrl
                0x20000524       0x30 ./ra_gen/hal_data.o
                0x20000524                g_uart4_ctrl
 .bss.g_uart9_esp8266_ctrl
                0x20000554       0x30 ./ra_gen/hal_data.o
                0x20000554                g_uart9_esp8266_ctrl
 .bss.g_bsp_group_irq_sources
                0x20000584       0x40 ./ra/fsp/src/bsp/mcu/all/bsp_group_irq.o
                0x20000584                g_bsp_group_irq_sources
 .bss.g_protect_pfswe_counter
                0x200005c4        0x4 ./ra/fsp/src/bsp/mcu/all/bsp_io.o
                0x200005c4                g_protect_pfswe_counter
 .bss.gp_renesas_isr_context
                0x200005c8      0x180 ./ra/fsp/src/bsp/mcu/all/bsp_irq.o
                0x200005c8                gp_renesas_isr_context
 .bss.g_protect_counters
                0x20000748        0x8 ./ra/fsp/src/bsp/mcu/all/bsp_register_protection.o
                0x20000748                g_protect_counters
 .bss.current_heap_end.0
                0x20000750        0x4 ./ra/fsp/src/bsp/mcu/all/bsp_sbrk.o
 .bss.SystemCoreClock
                0x20000754        0x4 ./ra/fsp/src/bsp/cmsis/Device/RENESAS/Source/system.o
                0x20000754                SystemCoreClock
 .bss.__lock___malloc_recursive_mutex
                0x20000758        0x1 h:/softwareapplication/e2studio/toolchains/gcc_arm/gcc-arm-none-eabi-10.3-2021.10/bin/../lib/gcc/arm-none-eabi/10.3.1/../../../../arm-none-eabi/lib/thumb/v8-m.main+fp/hard\libg_nano.a(lib_a-lock.o)
                0x20000758                __lock___malloc_recursive_mutex
 .bss.__lock___sfp_recursive_mutex
                0x20000759        0x1 h:/softwareapplication/e2studio/toolchains/gcc_arm/gcc-arm-none-eabi-10.3-2021.10/bin/../lib/gcc/arm-none-eabi/10.3.1/../../../../arm-none-eabi/lib/thumb/v8-m.main+fp/hard\libg_nano.a(lib_a-lock.o)
                0x20000759                __lock___sfp_recursive_mutex
 .bss.__lock___sinit_recursive_mutex
                0x2000075a        0x1 h:/softwareapplication/e2studio/toolchains/gcc_arm/gcc-arm-none-eabi-10.3-2021.10/bin/../lib/gcc/arm-none-eabi/10.3.1/../../../../arm-none-eabi/lib/thumb/v8-m.main+fp/hard\libg_nano.a(lib_a-lock.o)
                0x2000075a                __lock___sinit_recursive_mutex
 *fill*         0x2000075b        0x1 
 .bss.__malloc_free_list
                0x2000075c        0x4 h:/softwareapplication/e2studio/toolchains/gcc_arm/gcc-arm-none-eabi-10.3-2021.10/bin/../lib/gcc/arm-none-eabi/10.3.1/../../../../arm-none-eabi/lib/thumb/v8-m.main+fp/hard\libg_nano.a(lib_a-nano-mallocr.o)
                0x2000075c                __malloc_free_list
 .bss.__malloc_sbrk_start
                0x20000760        0x4 h:/softwareapplication/e2studio/toolchains/gcc_arm/gcc-arm-none-eabi-10.3-2021.10/bin/../lib/gcc/arm-none-eabi/10.3.1/../../../../arm-none-eabi/lib/thumb/v8-m.main+fp/hard\libg_nano.a(lib_a-nano-mallocr.o)
                0x20000760                __malloc_sbrk_start
 .bss.errno     0x20000764        0x4 h:/softwareapplication/e2studio/toolchains/gcc_arm/gcc-arm-none-eabi-10.3-2021.10/bin/../lib/gcc/arm-none-eabi/10.3.1/../../../../arm-none-eabi/lib/thumb/v8-m.main+fp/hard\libg_nano.a(lib_a-reent.o)
                0x20000764                errno
 *(COMMON)
                0x20000768                . = ALIGN (0x4)
                0x20000768                __bss_end__ = .

.heap           0x20000768     0x1000
                0x20000768                . = ALIGN (0x8)
                0x20000768                __HeapBase = .
 *(.heap)
 .heap          0x20000768     0x1000 ./ra/fsp/src/bsp/cmsis/Device/RENESAS/Source/startup.o
                0x20001768                __HeapLimit = .

.stack_dummy    0x20001768      0x400
                0x20001768                . = ALIGN (0x8)
                0x20001768                __StackLimit = .
 *(.stack)
 .stack         0x20001768      0x400 ./ra/fsp/src/bsp/cmsis/Device/RENESAS/Source/startup.o
                0x20001b68                __StackTop = .
 *(.stack*)
                0x20001b68                __StackTopAll = .
                0x20001b68                PROVIDE (__stack = __StackTopAll)
                0x20001b68                __RAM_segment_used_end__ = ALIGN (__StackTopAll, 0x4)
                0x20001c00                __tz_RAM_C = DEFINED (RAM_NSC_START)?ABSOLUTE (RAM_NSC_START):__RESERVE_NS_RAM?ABSOLUTE (RAM_NS_BUFFER_BLOCK_START):ALIGN (__RAM_segment_used_end__, 0x400)
                0x20002000                __tz_RAM_N = DEFINED (RAM_NS_START)?ABSOLUTE (RAM_NS_START):__RESERVE_NS_RAM?ABSOLUTE (RAM_NS_BUFFER_BLOCK_START):ALIGN (__tz_RAM_C, 0x2000)

.ns_buffer      0x20001b68        0x0
                0x20001b68                . = __RESERVE_NS_RAM?ABSOLUTE ((RAM_NS_BUFFER_START & 0xffffffe0)):.
 *(.ns_buffer*)

.data_flash     0x08000000        0x0
                0x08000000                . = ORIGIN (DATA_FLASH)
                0x08000000                __tz_DATA_FLASH_S = .
                0x08000000                __Data_Flash_Start = .
 *(.data_flash*)
                0x08000000                __Data_Flash_End = .
                0x08000000                __tz_DATA_FLASH_N = DEFINED (DATA_FLASH_NS_START)?ABSOLUTE (DATA_FLASH_NS_START):__RESERVE_NS_RAM?ABSOLUTE ((DATA_FLASH_START + DATA_FLASH_LENGTH)):ALIGN (0x400)
                0x90000000                __tz_SDRAM_S = ORIGIN (SDRAM)

.sdram          0x90000000        0x0
                0x90000000                __SDRAM_Start = .
 *(.sdram*)
 *(.frame*)
                0x90000000                __SDRAM_End = .
                0x90000000                __tz_SDRAM_N = __SDRAM_End
                0x00000000                __tz_ID_CODE_S = ORIGIN (ID_CODE)

.id_code        0x00000000        0x0
                0x00000000                __ID_Code_Start = .
 *(.id_code*)
                0x00000000                __ID_Code_End = .
                0x00000000                __tz_ID_CODE_N = __ID_Code_End
                0x0100a100                __tz_OPTION_SETTING_S = ORIGIN (OPTION_SETTING)

.option_setting
                0x0100a100       0x38
                0x0100a100                __OPTION_SETTING_Start = .
 *(.option_setting_ofs0)
 .option_setting_ofs0
                0x0100a100        0x4 ./ra/fsp/src/bsp/mcu/all/bsp_rom_registers.o
                0x0100a110                . = PROJECT_SECURE_OR_FLAT?(__OPTION_SETTING_Start + 0x10):__OPTION_SETTING_Start
 *fill*         0x0100a104        0xc ff
 *(.option_setting_dualsel)
 .option_setting_dualsel
                0x0100a110        0x4 ./ra/fsp/src/bsp/mcu/all/bsp_rom_registers.o
                0x0100a134                . = PROJECT_SECURE_OR_FLAT?(__OPTION_SETTING_Start + 0x34):__OPTION_SETTING_Start
 *fill*         0x0100a114       0x20 ff
 *(.option_setting_sas)
 .option_setting_sas
                0x0100a134        0x4 ./ra/fsp/src/bsp/mcu/all/bsp_rom_registers.o
                0x0100a138                __OPTION_SETTING_End = .
                0x0100a180                __tz_OPTION_SETTING_N = OPTION_SETTING_START_NS

.option_setting_ns
                0x0100a138        0x0
                0x0100a138                __OPTION_SETTING_NS_Start = .
 *(.option_setting_ofs1)
                0x0100a138                . = USE_OPTION_SETTING_NS?(__OPTION_SETTING_NS_Start + 0x10):__OPTION_SETTING_NS_Start
 *(.option_setting_banksel)
                0x0100a138                . = USE_OPTION_SETTING_NS?(__OPTION_SETTING_NS_Start + 0x40):__OPTION_SETTING_NS_Start
 *(.option_setting_bps0)
                0x0100a138                . = USE_OPTION_SETTING_NS?(__OPTION_SETTING_NS_Start + 0x44):__OPTION_SETTING_NS_Start
 *(.option_setting_bps1)
                0x0100a138                . = USE_OPTION_SETTING_NS?(__OPTION_SETTING_NS_Start + 0x48):__OPTION_SETTING_NS_Start
 *(.option_setting_bps2)
                0x0100a138                . = USE_OPTION_SETTING_NS?(__OPTION_SETTING_NS_Start + 0x60):__OPTION_SETTING_NS_Start
 *(.option_setting_pbps0)
                0x0100a138                . = USE_OPTION_SETTING_NS?(__OPTION_SETTING_NS_Start + 0x64):__OPTION_SETTING_NS_Start
 *(.option_setting_pbps1)
                0x0100a138                . = USE_OPTION_SETTING_NS?(__OPTION_SETTING_NS_Start + 0x68):__OPTION_SETTING_NS_Start
 *(.option_setting_pbps2)
                0x0100a138                __OPTION_SETTING_NS_End = .
                0x0100a200                __tz_OPTION_SETTING_S_S = ORIGIN (OPTION_SETTING_S)

.option_setting_s
                0x0100a200       0xcc
                0x0100a200                __OPTION_SETTING_S_Start = .
 *(.option_setting_ofs1_sec)
 .option_setting_ofs1_sec
                0x0100a200        0x4 ./ra/fsp/src/bsp/mcu/all/bsp_rom_registers.o
                0x0100a210                . = PROJECT_SECURE_OR_FLAT?(__OPTION_SETTING_S_Start + 0x10):__OPTION_SETTING_S_Start
 *fill*         0x0100a204        0xc ff
 *(.option_setting_banksel_sec)
 .option_setting_banksel_sec
                0x0100a210        0x4 ./ra/fsp/src/bsp/mcu/all/bsp_rom_registers.o
                0x0100a240                . = PROJECT_SECURE_OR_FLAT?(__OPTION_SETTING_S_Start + 0x40):__OPTION_SETTING_S_Start
 *fill*         0x0100a214       0x2c ff
 *(.option_setting_bps_sec0)
 .option_setting_bps_sec0
                0x0100a240        0x4 ./ra/fsp/src/bsp/mcu/all/bsp_rom_registers.o
                0x0100a244                . = PROJECT_SECURE_OR_FLAT?(__OPTION_SETTING_S_Start + 0x44):__OPTION_SETTING_S_Start
 *(.option_setting_bps_sec1)
 .option_setting_bps_sec1
                0x0100a244        0x4 ./ra/fsp/src/bsp/mcu/all/bsp_rom_registers.o
                0x0100a248                . = PROJECT_SECURE_OR_FLAT?(__OPTION_SETTING_S_Start + 0x48):__OPTION_SETTING_S_Start
 *(.option_setting_bps_sec2)
 .option_setting_bps_sec2
                0x0100a248        0x4 ./ra/fsp/src/bsp/mcu/all/bsp_rom_registers.o
                0x0100a260                . = PROJECT_SECURE_OR_FLAT?(__OPTION_SETTING_S_Start + 0x60):__OPTION_SETTING_S_Start
 *fill*         0x0100a24c       0x14 ff
 *(.option_setting_pbps_sec0)
 .option_setting_pbps_sec0
                0x0100a260        0x4 ./ra/fsp/src/bsp/mcu/all/bsp_rom_registers.o
                0x0100a264                . = PROJECT_SECURE_OR_FLAT?(__OPTION_SETTING_S_Start + 0x64):__OPTION_SETTING_S_Start
 *(.option_setting_pbps_sec1)
 .option_setting_pbps_sec1
                0x0100a264        0x4 ./ra/fsp/src/bsp/mcu/all/bsp_rom_registers.o
                0x0100a268                . = PROJECT_SECURE_OR_FLAT?(__OPTION_SETTING_S_Start + 0x68):__OPTION_SETTING_S_Start
 *(.option_setting_pbps_sec2)
 .option_setting_pbps_sec2
                0x0100a268        0x4 ./ra/fsp/src/bsp/mcu/all/bsp_rom_registers.o
                0x0100a280                . = PROJECT_SECURE_OR_FLAT?(__OPTION_SETTING_S_Start + 0x80):__OPTION_SETTING_S_Start
 *fill*         0x0100a26c       0x14 ff
 *(.option_setting_ofs1_sel)
 .option_setting_ofs1_sel
                0x0100a280        0x4 ./ra/fsp/src/bsp/mcu/all/bsp_rom_registers.o
                0x0100a290                . = PROJECT_SECURE_OR_FLAT?(__OPTION_SETTING_S_Start + 0x90):__OPTION_SETTING_S_Start
 *fill*         0x0100a284        0xc ff
 *(.option_setting_banksel_sel)
 .option_setting_banksel_sel
                0x0100a290        0x4 ./ra/fsp/src/bsp/mcu/all/bsp_rom_registers.o
                0x0100a2c0                . = PROJECT_SECURE_OR_FLAT?(__OPTION_SETTING_S_Start + 0xc0):__OPTION_SETTING_S_Start
 *fill*         0x0100a294       0x2c ff
 *(.option_setting_bps_sel0)
 .option_setting_bps_sel0
                0x0100a2c0        0x4 ./ra/fsp/src/bsp/mcu/all/bsp_rom_registers.o
                0x0100a2c4                . = PROJECT_SECURE_OR_FLAT?(__OPTION_SETTING_S_Start + 0xc4):__OPTION_SETTING_S_Start
 *(.option_setting_bps_sel1)
 .option_setting_bps_sel1
                0x0100a2c4        0x4 ./ra/fsp/src/bsp/mcu/all/bsp_rom_registers.o
                0x0100a2c8                . = PROJECT_SECURE_OR_FLAT?(__OPTION_SETTING_S_Start + 0xc8):__OPTION_SETTING_S_Start
 *(.option_setting_bps_sel2)
 .option_setting_bps_sel2
                0x0100a2c8        0x4 ./ra/fsp/src/bsp/mcu/all/bsp_rom_registers.o
                0x0100a2cc                __OPTION_SETTING_S_End = .
                0x0100a2cc                __tz_OPTION_SETTING_S_N = __OPTION_SETTING_S_End
OUTPUT(RA6M5_DHT11.elf elf32-littlearm)
LOAD linker stubs

.rel.dyn        0x0100a2cc        0x0
 .rel.iplt      0x0100a2cc        0x0 h:/softwareapplication/e2studio/toolchains/gcc_arm/gcc-arm-none-eabi-10.3-2021.10/bin/../lib/gcc/arm-none-eabi/10.3.1/thumb/v8-m.main+fp/hard/crtbegin.o

.ARM.attributes
                0x00000000       0x36
 .ARM.attributes
                0x00000000       0x22 h:/softwareapplication/e2studio/toolchains/gcc_arm/gcc-arm-none-eabi-10.3-2021.10/bin/../lib/gcc/arm-none-eabi/10.3.1/thumb/v8-m.main+fp/hard/crti.o
 .ARM.attributes
                0x00000022       0x38 h:/softwareapplication/e2studio/toolchains/gcc_arm/gcc-arm-none-eabi-10.3-2021.10/bin/../lib/gcc/arm-none-eabi/10.3.1/thumb/v8-m.main+fp/hard/crtbegin.o
 .ARM.attributes
                0x0000005a       0x3a ./src/bsp_debug_uart.o
 .ARM.attributes
                0x00000094       0x3a ./src/bsp_dht11.o
 .ARM.attributes
                0x000000ce       0x3a ./src/bsp_gpt_timing.o
 .ARM.attributes
                0x00000108       0x3a ./src/bsp_led.o
 .ARM.attributes
                0x00000142       0x3a ./src/bsp_wifi_esp8266.o
 .ARM.attributes
                0x0000017c       0x3a ./src/hal_entry.o
 .ARM.attributes
                0x000001b6       0x3a ./src/oled.o
 .ARM.attributes
                0x000001f0       0x3a ./ra_gen/common_data.o
 .ARM.attributes
                0x0000022a       0x3a ./ra_gen/hal_data.o
 .ARM.attributes
                0x00000264       0x3a ./ra_gen/main.o
 .ARM.attributes
                0x0000029e       0x3a ./ra_gen/pin_data.o
 .ARM.attributes
                0x000002d8       0x3a ./ra_gen/vector_data.o
 .ARM.attributes
                0x00000312       0x3a ./ra/fsp/src/r_sci_uart/r_sci_uart.o
 .ARM.attributes
                0x0000034c       0x3a ./ra/fsp/src/r_sci_i2c/r_sci_i2c.o
 .ARM.attributes
                0x00000386       0x3a ./ra/fsp/src/r_ioport/r_ioport.o
 .ARM.attributes
                0x000003c0       0x3a ./ra/fsp/src/r_gpt/r_gpt.o
 .ARM.attributes
                0x000003fa       0x3a ./ra/fsp/src/bsp/mcu/all/bsp_clocks.o
 .ARM.attributes
                0x00000434       0x3a ./ra/fsp/src/bsp/mcu/all/bsp_common.o
 .ARM.attributes
                0x0000046e       0x3a ./ra/fsp/src/bsp/mcu/all/bsp_delay.o
 .ARM.attributes
                0x000004a8       0x3a ./ra/fsp/src/bsp/mcu/all/bsp_group_irq.o
 .ARM.attributes
                0x000004e2       0x3a ./ra/fsp/src/bsp/mcu/all/bsp_io.o
 .ARM.attributes
                0x0000051c       0x3a ./ra/fsp/src/bsp/mcu/all/bsp_irq.o
 .ARM.attributes
                0x00000556       0x3a ./ra/fsp/src/bsp/mcu/all/bsp_register_protection.o
 .ARM.attributes
                0x00000590       0x3a ./ra/fsp/src/bsp/mcu/all/bsp_rom_registers.o
 .ARM.attributes
                0x000005ca       0x3a ./ra/fsp/src/bsp/mcu/all/bsp_sbrk.o
 .ARM.attributes
                0x00000604       0x3a ./ra/fsp/src/bsp/cmsis/Device/RENESAS/Source/startup.o
 .ARM.attributes
                0x0000063e       0x3a ./ra/fsp/src/bsp/cmsis/Device/RENESAS/Source/system.o
 .ARM.attributes
                0x00000678       0x38 h:/softwareapplication/e2studio/toolchains/gcc_arm/gcc-arm-none-eabi-10.3-2021.10/bin/../lib/gcc/arm-none-eabi/10.3.1/../../../../arm-none-eabi/lib/thumb/v8-m.main+fp/hard\libg_nano.a(lib_a-errno.o)
 .ARM.attributes
                0x000006b0       0x38 h:/softwareapplication/e2studio/toolchains/gcc_arm/gcc-arm-none-eabi-10.3-2021.10/bin/../lib/gcc/arm-none-eabi/10.3.1/../../../../arm-none-eabi/lib/thumb/v8-m.main+fp/hard\libg_nano.a(lib_a-impure.o)
 .ARM.attributes
                0x000006e8       0x38 h:/softwareapplication/e2studio/toolchains/gcc_arm/gcc-arm-none-eabi-10.3-2021.10/bin/../lib/gcc/arm-none-eabi/10.3.1/../../../../arm-none-eabi/lib/thumb/v8-m.main+fp/hard\libg_nano.a(lib_a-memcpy-stub.o)
 .ARM.attributes
                0x00000720       0x38 h:/softwareapplication/e2studio/toolchains/gcc_arm/gcc-arm-none-eabi-10.3-2021.10/bin/../lib/gcc/arm-none-eabi/10.3.1/../../../../arm-none-eabi/lib/thumb/v8-m.main+fp/hard\libg_nano.a(lib_a-memset.o)
 .ARM.attributes
                0x00000758       0x38 h:/softwareapplication/e2studio/toolchains/gcc_arm/gcc-arm-none-eabi-10.3-2021.10/bin/../lib/gcc/arm-none-eabi/10.3.1/../../../../arm-none-eabi/lib/thumb/v8-m.main+fp/hard\libg_nano.a(lib_a-nano-vfprintf_float.o)
 .ARM.attributes
                0x00000790       0x38 h:/softwareapplication/e2studio/toolchains/gcc_arm/gcc-arm-none-eabi-10.3-2021.10/bin/../lib/gcc/arm-none-eabi/10.3.1/../../../../arm-none-eabi/lib/thumb/v8-m.main+fp/hard\libg_nano.a(lib_a-nano-vfprintf_i.o)
 .ARM.attributes
                0x000007c8       0x38 h:/softwareapplication/e2studio/toolchains/gcc_arm/gcc-arm-none-eabi-10.3-2021.10/bin/../lib/gcc/arm-none-eabi/10.3.1/../../../../arm-none-eabi/lib/thumb/v8-m.main+fp/hard\libg_nano.a(lib_a-printf.o)
 .ARM.attributes
                0x00000800       0x38 h:/softwareapplication/e2studio/toolchains/gcc_arm/gcc-arm-none-eabi-10.3-2021.10/bin/../lib/gcc/arm-none-eabi/10.3.1/../../../../arm-none-eabi/lib/thumb/v8-m.main+fp/hard\libg_nano.a(lib_a-puts.o)
 .ARM.attributes
                0x00000838       0x17 h:/softwareapplication/e2studio/toolchains/gcc_arm/gcc-arm-none-eabi-10.3-2021.10/bin/../lib/gcc/arm-none-eabi/10.3.1/../../../../arm-none-eabi/lib/thumb/v8-m.main+fp/hard\libg_nano.a(lib_a-strlen.o)
 .ARM.attributes
                0x0000084f       0x38 h:/softwareapplication/e2studio/toolchains/gcc_arm/gcc-arm-none-eabi-10.3-2021.10/bin/../lib/gcc/arm-none-eabi/10.3.1/../../../../arm-none-eabi/lib/thumb/v8-m.main+fp/hard\libg_nano.a(lib_a-wbuf.o)
 .ARM.attributes
                0x00000887       0x38 h:/softwareapplication/e2studio/toolchains/gcc_arm/gcc-arm-none-eabi-10.3-2021.10/bin/../lib/gcc/arm-none-eabi/10.3.1/../../../../arm-none-eabi/lib/thumb/v8-m.main+fp/hard\libg_nano.a(lib_a-wsetup.o)
 .ARM.attributes
                0x000008bf       0x38 h:/softwareapplication/e2studio/toolchains/gcc_arm/gcc-arm-none-eabi-10.3-2021.10/bin/../lib/gcc/arm-none-eabi/10.3.1/../../../../arm-none-eabi/lib/thumb/v8-m.main+fp/hard\libg_nano.a(lib_a-dtoa.o)
 .ARM.attributes
                0x000008f7       0x38 h:/softwareapplication/e2studio/toolchains/gcc_arm/gcc-arm-none-eabi-10.3-2021.10/bin/../lib/gcc/arm-none-eabi/10.3.1/../../../../arm-none-eabi/lib/thumb/v8-m.main+fp/hard\libg_nano.a(lib_a-fflush.o)
 .ARM.attributes
                0x0000092f       0x38 h:/softwareapplication/e2studio/toolchains/gcc_arm/gcc-arm-none-eabi-10.3-2021.10/bin/../lib/gcc/arm-none-eabi/10.3.1/../../../../arm-none-eabi/lib/thumb/v8-m.main+fp/hard\libg_nano.a(lib_a-findfp.o)
 .ARM.attributes
                0x00000967       0x38 h:/softwareapplication/e2studio/toolchains/gcc_arm/gcc-arm-none-eabi-10.3-2021.10/bin/../lib/gcc/arm-none-eabi/10.3.1/../../../../arm-none-eabi/lib/thumb/v8-m.main+fp/hard\libg_nano.a(lib_a-fwalk.o)
 .ARM.attributes
                0x0000099f       0x38 h:/softwareapplication/e2studio/toolchains/gcc_arm/gcc-arm-none-eabi-10.3-2021.10/bin/../lib/gcc/arm-none-eabi/10.3.1/../../../../arm-none-eabi/lib/thumb/v8-m.main+fp/hard\libg_nano.a(lib_a-localeconv.o)
 .ARM.attributes
                0x000009d7       0x38 h:/softwareapplication/e2studio/toolchains/gcc_arm/gcc-arm-none-eabi-10.3-2021.10/bin/../lib/gcc/arm-none-eabi/10.3.1/../../../../arm-none-eabi/lib/thumb/v8-m.main+fp/hard\libg_nano.a(lib_a-lock.o)
 .ARM.attributes
                0x00000a0f       0x38 h:/softwareapplication/e2studio/toolchains/gcc_arm/gcc-arm-none-eabi-10.3-2021.10/bin/../lib/gcc/arm-none-eabi/10.3.1/../../../../arm-none-eabi/lib/thumb/v8-m.main+fp/hard\libg_nano.a(lib_a-makebuf.o)
 .ARM.attributes
                0x00000a47       0x38 h:/softwareapplication/e2studio/toolchains/gcc_arm/gcc-arm-none-eabi-10.3-2021.10/bin/../lib/gcc/arm-none-eabi/10.3.1/../../../../arm-none-eabi/lib/thumb/v8-m.main+fp/hard\libg_nano.a(lib_a-malloc.o)
 .ARM.attributes
                0x00000a7f       0x38 h:/softwareapplication/e2studio/toolchains/gcc_arm/gcc-arm-none-eabi-10.3-2021.10/bin/../lib/gcc/arm-none-eabi/10.3.1/../../../../arm-none-eabi/lib/thumb/v8-m.main+fp/hard\libg_nano.a(lib_a-memchr-stub.o)
 .ARM.attributes
                0x00000ab7       0x38 h:/softwareapplication/e2studio/toolchains/gcc_arm/gcc-arm-none-eabi-10.3-2021.10/bin/../lib/gcc/arm-none-eabi/10.3.1/../../../../arm-none-eabi/lib/thumb/v8-m.main+fp/hard\libg_nano.a(lib_a-mprec.o)
 .ARM.attributes
                0x00000aef       0x38 h:/softwareapplication/e2studio/toolchains/gcc_arm/gcc-arm-none-eabi-10.3-2021.10/bin/../lib/gcc/arm-none-eabi/10.3.1/../../../../arm-none-eabi/lib/thumb/v8-m.main+fp/hard\libg_nano.a(lib_a-nano-callocr.o)
 .ARM.attributes
                0x00000b27       0x38 h:/softwareapplication/e2studio/toolchains/gcc_arm/gcc-arm-none-eabi-10.3-2021.10/bin/../lib/gcc/arm-none-eabi/10.3.1/../../../../arm-none-eabi/lib/thumb/v8-m.main+fp/hard\libg_nano.a(lib_a-nano-freer.o)
 .ARM.attributes
                0x00000b5f       0x38 h:/softwareapplication/e2studio/toolchains/gcc_arm/gcc-arm-none-eabi-10.3-2021.10/bin/../lib/gcc/arm-none-eabi/10.3.1/../../../../arm-none-eabi/lib/thumb/v8-m.main+fp/hard\libg_nano.a(lib_a-nano-mallocr.o)
 .ARM.attributes
                0x00000b97       0x38 h:/softwareapplication/e2studio/toolchains/gcc_arm/gcc-arm-none-eabi-10.3-2021.10/bin/../lib/gcc/arm-none-eabi/10.3.1/../../../../arm-none-eabi/lib/thumb/v8-m.main+fp/hard\libg_nano.a(lib_a-nano-vfprintf.o)
 .ARM.attributes
                0x00000bcf       0x38 h:/softwareapplication/e2studio/toolchains/gcc_arm/gcc-arm-none-eabi-10.3-2021.10/bin/../lib/gcc/arm-none-eabi/10.3.1/../../../../arm-none-eabi/lib/thumb/v8-m.main+fp/hard\libg_nano.a(lib_a-sbrkr.o)
 .ARM.attributes
                0x00000c07       0x38 h:/softwareapplication/e2studio/toolchains/gcc_arm/gcc-arm-none-eabi-10.3-2021.10/bin/../lib/gcc/arm-none-eabi/10.3.1/../../../../arm-none-eabi/lib/thumb/v8-m.main+fp/hard\libg_nano.a(lib_a-stdio.o)
 .ARM.attributes
                0x00000c3f       0x38 h:/softwareapplication/e2studio/toolchains/gcc_arm/gcc-arm-none-eabi-10.3-2021.10/bin/../lib/gcc/arm-none-eabi/10.3.1/../../../../arm-none-eabi/lib/thumb/v8-m.main+fp/hard\libg_nano.a(lib_a-writer.o)
 .ARM.attributes
                0x00000c77       0x38 h:/softwareapplication/e2studio/toolchains/gcc_arm/gcc-arm-none-eabi-10.3-2021.10/bin/../lib/gcc/arm-none-eabi/10.3.1/../../../../arm-none-eabi/lib/thumb/v8-m.main+fp/hard\libg_nano.a(lib_a-closer.o)
 .ARM.attributes
                0x00000caf       0x38 h:/softwareapplication/e2studio/toolchains/gcc_arm/gcc-arm-none-eabi-10.3-2021.10/bin/../lib/gcc/arm-none-eabi/10.3.1/../../../../arm-none-eabi/lib/thumb/v8-m.main+fp/hard\libg_nano.a(lib_a-fstatr.o)
 .ARM.attributes
                0x00000ce7       0x38 h:/softwareapplication/e2studio/toolchains/gcc_arm/gcc-arm-none-eabi-10.3-2021.10/bin/../lib/gcc/arm-none-eabi/10.3.1/../../../../arm-none-eabi/lib/thumb/v8-m.main+fp/hard\libg_nano.a(lib_a-isattyr.o)
 .ARM.attributes
                0x00000d1f       0x38 h:/softwareapplication/e2studio/toolchains/gcc_arm/gcc-arm-none-eabi-10.3-2021.10/bin/../lib/gcc/arm-none-eabi/10.3.1/../../../../arm-none-eabi/lib/thumb/v8-m.main+fp/hard\libg_nano.a(lib_a-locale.o)
 .ARM.attributes
                0x00000d57       0x38 h:/softwareapplication/e2studio/toolchains/gcc_arm/gcc-arm-none-eabi-10.3-2021.10/bin/../lib/gcc/arm-none-eabi/10.3.1/../../../../arm-none-eabi/lib/thumb/v8-m.main+fp/hard\libg_nano.a(lib_a-lseekr.o)
 .ARM.attributes
                0x00000d8f       0x38 h:/softwareapplication/e2studio/toolchains/gcc_arm/gcc-arm-none-eabi-10.3-2021.10/bin/../lib/gcc/arm-none-eabi/10.3.1/../../../../arm-none-eabi/lib/thumb/v8-m.main+fp/hard\libg_nano.a(lib_a-mbtowc_r.o)
 .ARM.attributes
                0x00000dc7       0x38 h:/softwareapplication/e2studio/toolchains/gcc_arm/gcc-arm-none-eabi-10.3-2021.10/bin/../lib/gcc/arm-none-eabi/10.3.1/../../../../arm-none-eabi/lib/thumb/v8-m.main+fp/hard\libg_nano.a(lib_a-mlock.o)
 .ARM.attributes
                0x00000dff       0x38 h:/softwareapplication/e2studio/toolchains/gcc_arm/gcc-arm-none-eabi-10.3-2021.10/bin/../lib/gcc/arm-none-eabi/10.3.1/../../../../arm-none-eabi/lib/thumb/v8-m.main+fp/hard\libg_nano.a(lib_a-readr.o)
 .ARM.attributes
                0x00000e37       0x38 h:/softwareapplication/e2studio/toolchains/gcc_arm/gcc-arm-none-eabi-10.3-2021.10/bin/../lib/gcc/arm-none-eabi/10.3.1/../../../../arm-none-eabi/lib/thumb/v8-m.main+fp/hard\libg_nano.a(lib_a-reent.o)
 .ARM.attributes
                0x00000e6f       0x38 h:/softwareapplication/e2studio/toolchains/gcc_arm/gcc-arm-none-eabi-10.3-2021.10/bin/../lib/gcc/arm-none-eabi/10.3.1/../../../../arm-none-eabi/lib/thumb/v8-m.main+fp/hard\libg_nano.a(lib_a-wctomb_r.o)
 .ARM.attributes
                0x00000ea7       0x38 h:/softwareapplication/e2studio/toolchains/gcc_arm/gcc-arm-none-eabi-10.3-2021.10/bin/../lib/gcc/arm-none-eabi/10.3.1/../../../../arm-none-eabi/lib/thumb/v8-m.main+fp/hard\libg_nano.a(lib_a-ctype_.o)
 .ARM.attributes
                0x00000edf       0x22 h:/softwareapplication/e2studio/toolchains/gcc_arm/gcc-arm-none-eabi-10.3-2021.10/bin/../lib/gcc/arm-none-eabi/10.3.1/thumb/v8-m.main+fp/hard\libgcc.a(_arm_addsubdf3.o)
 .ARM.attributes
                0x00000f01       0x22 h:/softwareapplication/e2studio/toolchains/gcc_arm/gcc-arm-none-eabi-10.3-2021.10/bin/../lib/gcc/arm-none-eabi/10.3.1/thumb/v8-m.main+fp/hard\libgcc.a(_arm_muldivdf3.o)
 .ARM.attributes
                0x00000f23       0x22 h:/softwareapplication/e2studio/toolchains/gcc_arm/gcc-arm-none-eabi-10.3-2021.10/bin/../lib/gcc/arm-none-eabi/10.3.1/thumb/v8-m.main+fp/hard\libgcc.a(_arm_cmpdf2.o)
 .ARM.attributes
                0x00000f45       0x22 h:/softwareapplication/e2studio/toolchains/gcc_arm/gcc-arm-none-eabi-10.3-2021.10/bin/../lib/gcc/arm-none-eabi/10.3.1/thumb/v8-m.main+fp/hard\libgcc.a(_arm_unorddf2.o)
 .ARM.attributes
                0x00000f67       0x22 h:/softwareapplication/e2studio/toolchains/gcc_arm/gcc-arm-none-eabi-10.3-2021.10/bin/../lib/gcc/arm-none-eabi/10.3.1/thumb/v8-m.main+fp/hard\libgcc.a(_arm_fixdfsi.o)
 .ARM.attributes
                0x00000f89       0x38 h:/softwareapplication/e2studio/toolchains/gcc_arm/gcc-arm-none-eabi-10.3-2021.10/bin/../lib/gcc/arm-none-eabi/10.3.1/thumb/v8-m.main+fp/hard/crtend.o
 .ARM.attributes
                0x00000fc1       0x22 h:/softwareapplication/e2studio/toolchains/gcc_arm/gcc-arm-none-eabi-10.3-2021.10/bin/../lib/gcc/arm-none-eabi/10.3.1/thumb/v8-m.main+fp/hard/crtn.o
 .ARM.attributes
                0x00000fe3       0x38 h:/softwareapplication/e2studio/toolchains/gcc_arm/gcc-arm-none-eabi-10.3-2021.10/bin/../lib/gcc/arm-none-eabi/10.3.1/../../../../arm-none-eabi/lib/thumb/v8-m.main+fp/hard\libnosys.a(close.o)
 .ARM.attributes
                0x0000101b       0x38 h:/softwareapplication/e2studio/toolchains/gcc_arm/gcc-arm-none-eabi-10.3-2021.10/bin/../lib/gcc/arm-none-eabi/10.3.1/../../../../arm-none-eabi/lib/thumb/v8-m.main+fp/hard\libnosys.a(fstat.o)
 .ARM.attributes
                0x00001053       0x38 h:/softwareapplication/e2studio/toolchains/gcc_arm/gcc-arm-none-eabi-10.3-2021.10/bin/../lib/gcc/arm-none-eabi/10.3.1/../../../../arm-none-eabi/lib/thumb/v8-m.main+fp/hard\libnosys.a(isatty.o)
 .ARM.attributes
                0x0000108b       0x38 h:/softwareapplication/e2studio/toolchains/gcc_arm/gcc-arm-none-eabi-10.3-2021.10/bin/../lib/gcc/arm-none-eabi/10.3.1/../../../../arm-none-eabi/lib/thumb/v8-m.main+fp/hard\libnosys.a(lseek.o)
 .ARM.attributes
                0x000010c3       0x38 h:/softwareapplication/e2studio/toolchains/gcc_arm/gcc-arm-none-eabi-10.3-2021.10/bin/../lib/gcc/arm-none-eabi/10.3.1/../../../../arm-none-eabi/lib/thumb/v8-m.main+fp/hard\libnosys.a(read.o)

.comment        0x00000000       0x49
 .comment       0x00000000       0x49 ./src/bsp_debug_uart.o
                                 0x4a (size before relaxing)
 .comment       0x00000049       0x4a ./src/bsp_dht11.o
 .comment       0x00000049       0x4a ./src/bsp_gpt_timing.o
 .comment       0x00000049       0x4a ./src/bsp_led.o
 .comment       0x00000049       0x4a ./src/bsp_wifi_esp8266.o
 .comment       0x00000049       0x4a ./src/hal_entry.o
 .comment       0x00000049       0x4a ./src/oled.o
 .comment       0x00000049       0x4a ./ra_gen/common_data.o
 .comment       0x00000049       0x4a ./ra_gen/hal_data.o
 .comment       0x00000049       0x4a ./ra_gen/main.o
 .comment       0x00000049       0x4a ./ra_gen/pin_data.o
 .comment       0x00000049       0x4a ./ra_gen/vector_data.o
 .comment       0x00000049       0x4a ./ra/fsp/src/r_sci_uart/r_sci_uart.o
 .comment       0x00000049       0x4a ./ra/fsp/src/r_sci_i2c/r_sci_i2c.o
 .comment       0x00000049       0x4a ./ra/fsp/src/r_ioport/r_ioport.o
 .comment       0x00000049       0x4a ./ra/fsp/src/r_gpt/r_gpt.o
 .comment       0x00000049       0x4a ./ra/fsp/src/bsp/mcu/all/bsp_clocks.o
 .comment       0x00000049       0x4a ./ra/fsp/src/bsp/mcu/all/bsp_common.o
 .comment       0x00000049       0x4a ./ra/fsp/src/bsp/mcu/all/bsp_delay.o
 .comment       0x00000049       0x4a ./ra/fsp/src/bsp/mcu/all/bsp_group_irq.o
 .comment       0x00000049       0x4a ./ra/fsp/src/bsp/mcu/all/bsp_io.o
 .comment       0x00000049       0x4a ./ra/fsp/src/bsp/mcu/all/bsp_irq.o
 .comment       0x00000049       0x4a ./ra/fsp/src/bsp/mcu/all/bsp_register_protection.o
 .comment       0x00000049       0x4a ./ra/fsp/src/bsp/mcu/all/bsp_rom_registers.o
 .comment       0x00000049       0x4a ./ra/fsp/src/bsp/mcu/all/bsp_sbrk.o
 .comment       0x00000049       0x4a ./ra/fsp/src/bsp/cmsis/Device/RENESAS/Source/startup.o
 .comment       0x00000049       0x4a ./ra/fsp/src/bsp/cmsis/Device/RENESAS/Source/system.o

.debug_info     0x00000000    0x47674
 .debug_info    0x00000000     0x2f4c ./src/bsp_debug_uart.o
 .debug_info    0x00002f4c     0x1c01 ./src/bsp_dht11.o
 .debug_info    0x00004b4d     0x24a8 ./src/bsp_gpt_timing.o
 .debug_info    0x00006ff5     0x1198 ./src/bsp_led.o
 .debug_info    0x0000818d     0x3b47 ./src/bsp_wifi_esp8266.o
 .debug_info    0x0000bcd4     0x3f0a ./src/hal_entry.o
 .debug_info    0x0000fbde     0x4374 ./src/oled.o
 .debug_info    0x00013f52     0x11ab ./ra_gen/common_data.o
 .debug_info    0x000150fd     0x6630 ./ra_gen/hal_data.o
 .debug_info    0x0001b72d       0xaa ./ra_gen/main.o
 .debug_info    0x0001b7d7      0x9da ./ra_gen/pin_data.o
 .debug_info    0x0001c1b1      0x858 ./ra_gen/vector_data.o
 .debug_info    0x0001ca09     0x9773 ./ra/fsp/src/r_sci_uart/r_sci_uart.o
 .debug_info    0x0002617c     0x4cca ./ra/fsp/src/r_sci_i2c/r_sci_i2c.o
 .debug_info    0x0002ae46     0x68ec ./ra/fsp/src/r_ioport/r_ioport.o
 .debug_info    0x00031732     0x94e3 ./ra/fsp/src/r_gpt/r_gpt.o
 .debug_info    0x0003ac15     0x46b1 ./ra/fsp/src/bsp/mcu/all/bsp_clocks.o
 .debug_info    0x0003f2c6      0x8bc ./ra/fsp/src/bsp/mcu/all/bsp_common.o
 .debug_info    0x0003fb82      0x1d1 ./ra/fsp/src/bsp/mcu/all/bsp_delay.o
 .debug_info    0x0003fd53     0x137e ./ra/fsp/src/bsp/mcu/all/bsp_group_irq.o
 .debug_info    0x000410d1       0xa3 ./ra/fsp/src/bsp/mcu/all/bsp_io.o
 .debug_info    0x00041174     0x1d14 ./ra/fsp/src/bsp/mcu/all/bsp_irq.o
 .debug_info    0x00042e88     0x3ac1 ./ra/fsp/src/bsp/mcu/all/bsp_register_protection.o
 .debug_info    0x00046949      0x1a8 ./ra/fsp/src/bsp/mcu/all/bsp_rom_registers.o
 .debug_info    0x00046af1      0x13b ./ra/fsp/src/bsp/mcu/all/bsp_sbrk.o
 .debug_info    0x00046c2c      0x165 ./ra/fsp/src/bsp/cmsis/Device/RENESAS/Source/startup.o
 .debug_info    0x00046d91      0x8e3 ./ra/fsp/src/bsp/cmsis/Device/RENESAS/Source/system.o

.debug_abbrev   0x00000000     0x43fe
 .debug_abbrev  0x00000000      0x2e3 ./src/bsp_debug_uart.o
 .debug_abbrev  0x000002e3      0x3ea ./src/bsp_dht11.o
 .debug_abbrev  0x000006cd      0x212 ./src/bsp_gpt_timing.o
 .debug_abbrev  0x000008df      0x151 ./src/bsp_led.o
 .debug_abbrev  0x00000a30      0x37a ./src/bsp_wifi_esp8266.o
 .debug_abbrev  0x00000daa      0x441 ./src/hal_entry.o
 .debug_abbrev  0x000011eb      0x540 ./src/oled.o
 .debug_abbrev  0x0000172b      0x150 ./ra_gen/common_data.o
 .debug_abbrev  0x0000187b      0x2b1 ./ra_gen/hal_data.o
 .debug_abbrev  0x00001b2c       0x66 ./ra_gen/main.o
 .debug_abbrev  0x00001b92       0xdc ./ra_gen/pin_data.o
 .debug_abbrev  0x00001c6e       0xa7 ./ra_gen/vector_data.o
 .debug_abbrev  0x00001d15      0x5a8 ./ra/fsp/src/r_sci_uart/r_sci_uart.o
 .debug_abbrev  0x000022bd      0x548 ./ra/fsp/src/r_sci_i2c/r_sci_i2c.o
 .debug_abbrev  0x00002805      0x428 ./ra/fsp/src/r_ioport/r_ioport.o
 .debug_abbrev  0x00002c2d      0x5d9 ./ra/fsp/src/r_gpt/r_gpt.o
 .debug_abbrev  0x00003206      0x383 ./ra/fsp/src/bsp/mcu/all/bsp_clocks.o
 .debug_abbrev  0x00003589      0x172 ./ra/fsp/src/bsp/mcu/all/bsp_common.o
 .debug_abbrev  0x000036fb      0x111 ./ra/fsp/src/bsp/mcu/all/bsp_delay.o
 .debug_abbrev  0x0000380c      0x254 ./ra/fsp/src/bsp/mcu/all/bsp_group_irq.o
 .debug_abbrev  0x00003a60       0x5e ./ra/fsp/src/bsp/mcu/all/bsp_io.o
 .debug_abbrev  0x00003abe      0x251 ./ra/fsp/src/bsp/mcu/all/bsp_irq.o
 .debug_abbrev  0x00003d0f      0x277 ./ra/fsp/src/bsp/mcu/all/bsp_register_protection.o
 .debug_abbrev  0x00003f86       0x4d ./ra/fsp/src/bsp/mcu/all/bsp_rom_registers.o
 .debug_abbrev  0x00003fd3       0xcc ./ra/fsp/src/bsp/mcu/all/bsp_sbrk.o
 .debug_abbrev  0x0000409f       0xe6 ./ra/fsp/src/bsp/cmsis/Device/RENESAS/Source/startup.o
 .debug_abbrev  0x00004185      0x279 ./ra/fsp/src/bsp/cmsis/Device/RENESAS/Source/system.o

.debug_loc      0x00000000     0x69bb
 .debug_loc     0x00000000       0xea ./src/bsp_debug_uart.o
 .debug_loc     0x000000ea      0x540 ./src/bsp_dht11.o
 .debug_loc     0x0000062a       0x25 ./src/bsp_gpt_timing.o
 .debug_loc     0x0000064f       0x56 ./src/bsp_wifi_esp8266.o
 .debug_loc     0x000006a5       0xe5 ./src/hal_entry.o
 .debug_loc     0x0000078a     0x15ab ./src/oled.o
 .debug_loc     0x00001d35     0x14e6 ./ra/fsp/src/r_sci_uart/r_sci_uart.o
 .debug_loc     0x0000321b     0x1010 ./ra/fsp/src/r_sci_i2c/r_sci_i2c.o
 .debug_loc     0x0000422b      0xdd9 ./ra/fsp/src/r_ioport/r_ioport.o
 .debug_loc     0x00005004     0x1140 ./ra/fsp/src/r_gpt/r_gpt.o
 .debug_loc     0x00006144      0x24f ./ra/fsp/src/bsp/mcu/all/bsp_clocks.o
 .debug_loc     0x00006393       0x22 ./ra/fsp/src/bsp/mcu/all/bsp_common.o
 .debug_loc     0x000063b5      0x178 ./ra/fsp/src/bsp/mcu/all/bsp_delay.o
 .debug_loc     0x0000652d       0xaa ./ra/fsp/src/bsp/mcu/all/bsp_group_irq.o
 .debug_loc     0x000065d7      0x121 ./ra/fsp/src/bsp/mcu/all/bsp_irq.o
 .debug_loc     0x000066f8      0x105 ./ra/fsp/src/bsp/mcu/all/bsp_register_protection.o
 .debug_loc     0x000067fd      0x11a ./ra/fsp/src/bsp/mcu/all/bsp_sbrk.o
 .debug_loc     0x00006917       0xa4 ./ra/fsp/src/bsp/cmsis/Device/RENESAS/Source/system.o

.debug_aranges  0x00000000      0x698
 .debug_aranges
                0x00000000       0x30 ./src/bsp_debug_uart.o
 .debug_aranges
                0x00000030       0x48 ./src/bsp_dht11.o
 .debug_aranges
                0x00000078       0x28 ./src/bsp_gpt_timing.o
 .debug_aranges
                0x000000a0       0x20 ./src/bsp_led.o
 .debug_aranges
                0x000000c0       0x40 ./src/bsp_wifi_esp8266.o
 .debug_aranges
                0x00000100       0x38 ./src/hal_entry.o
 .debug_aranges
                0x00000138       0xa8 ./src/oled.o
 .debug_aranges
                0x000001e0       0x20 ./ra_gen/common_data.o
 .debug_aranges
                0x00000200       0x20 ./ra_gen/hal_data.o
 .debug_aranges
                0x00000220       0x20 ./ra_gen/main.o
 .debug_aranges
                0x00000240       0x18 ./ra_gen/pin_data.o
 .debug_aranges
                0x00000258       0x18 ./ra_gen/vector_data.o
 .debug_aranges
                0x00000270       0x90 ./ra/fsp/src/r_sci_uart/r_sci_uart.o
 .debug_aranges
                0x00000300       0x70 ./ra/fsp/src/r_sci_i2c/r_sci_i2c.o
 .debug_aranges
                0x00000370       0x90 ./ra/fsp/src/r_ioport/r_ioport.o
 .debug_aranges
                0x00000400       0xd8 ./ra/fsp/src/r_gpt/r_gpt.o
 .debug_aranges
                0x000004d8       0x58 ./ra/fsp/src/bsp/mcu/all/bsp_clocks.o
 .debug_aranges
                0x00000530       0x30 ./ra/fsp/src/bsp/mcu/all/bsp_common.o
 .debug_aranges
                0x00000560       0x28 ./ra/fsp/src/bsp/mcu/all/bsp_delay.o
 .debug_aranges
                0x00000588       0x28 ./ra/fsp/src/bsp/mcu/all/bsp_group_irq.o
 .debug_aranges
                0x000005b0       0x18 ./ra/fsp/src/bsp/mcu/all/bsp_io.o
 .debug_aranges
                0x000005c8       0x20 ./ra/fsp/src/bsp/mcu/all/bsp_irq.o
 .debug_aranges
                0x000005e8       0x28 ./ra/fsp/src/bsp/mcu/all/bsp_register_protection.o
 .debug_aranges
                0x00000610       0x18 ./ra/fsp/src/bsp/mcu/all/bsp_rom_registers.o
 .debug_aranges
                0x00000628       0x20 ./ra/fsp/src/bsp/mcu/all/bsp_sbrk.o
 .debug_aranges
                0x00000648       0x28 ./ra/fsp/src/bsp/cmsis/Device/RENESAS/Source/startup.o
 .debug_aranges
                0x00000670       0x28 ./ra/fsp/src/bsp/cmsis/Device/RENESAS/Source/system.o

.debug_ranges   0x00000000     0x19c0
 .debug_ranges  0x00000000       0x20 ./src/bsp_debug_uart.o
 .debug_ranges  0x00000020      0x198 ./src/bsp_dht11.o
 .debug_ranges  0x000001b8       0x18 ./src/bsp_gpt_timing.o
 .debug_ranges  0x000001d0       0x10 ./src/bsp_led.o
 .debug_ranges  0x000001e0       0x30 ./src/bsp_wifi_esp8266.o
 .debug_ranges  0x00000210       0x58 ./src/hal_entry.o
 .debug_ranges  0x00000268      0x2f8 ./src/oled.o
 .debug_ranges  0x00000560       0x10 ./ra_gen/common_data.o
 .debug_ranges  0x00000570       0x10 ./ra_gen/hal_data.o
 .debug_ranges  0x00000580       0x10 ./ra_gen/main.o
 .debug_ranges  0x00000590      0x6f0 ./ra/fsp/src/r_sci_uart/r_sci_uart.o
 .debug_ranges  0x00000c80      0x568 ./ra/fsp/src/r_sci_i2c/r_sci_i2c.o
 .debug_ranges  0x000011e8      0x158 ./ra/fsp/src/r_ioport/r_ioport.o
 .debug_ranges  0x00001340      0x3f0 ./ra/fsp/src/r_gpt/r_gpt.o
 .debug_ranges  0x00001730      0x110 ./ra/fsp/src/bsp/mcu/all/bsp_clocks.o
 .debug_ranges  0x00001840       0x20 ./ra/fsp/src/bsp/mcu/all/bsp_common.o
 .debug_ranges  0x00001860       0x18 ./ra/fsp/src/bsp/mcu/all/bsp_delay.o
 .debug_ranges  0x00001878       0x58 ./ra/fsp/src/bsp/mcu/all/bsp_group_irq.o
 .debug_ranges  0x000018d0       0x68 ./ra/fsp/src/bsp/mcu/all/bsp_irq.o
 .debug_ranges  0x00001938       0x48 ./ra/fsp/src/bsp/mcu/all/bsp_register_protection.o
 .debug_ranges  0x00001980       0x10 ./ra/fsp/src/bsp/mcu/all/bsp_sbrk.o
 .debug_ranges  0x00001990       0x18 ./ra/fsp/src/bsp/cmsis/Device/RENESAS/Source/startup.o
 .debug_ranges  0x000019a8       0x18 ./ra/fsp/src/bsp/cmsis/Device/RENESAS/Source/system.o

.debug_line     0x00000000     0xb27f
 .debug_line    0x00000000      0x59e ./src/bsp_debug_uart.o
 .debug_line    0x0000059e      0x8c3 ./src/bsp_dht11.o
 .debug_line    0x00000e61      0x448 ./src/bsp_gpt_timing.o
 .debug_line    0x000012a9      0x3b9 ./src/bsp_led.o
 .debug_line    0x00001662      0x6d7 ./src/bsp_wifi_esp8266.o
 .debug_line    0x00001d39      0x7c2 ./src/hal_entry.o
 .debug_line    0x000024fb     0x125b ./src/oled.o
 .debug_line    0x00003756      0x3db ./ra_gen/common_data.o
 .debug_line    0x00003b31      0x46f ./ra_gen/hal_data.o
 .debug_line    0x00003fa0       0x5e ./ra_gen/main.o
 .debug_line    0x00003ffe      0x234 ./ra_gen/pin_data.o
 .debug_line    0x00004232      0x14b ./ra_gen/vector_data.o
 .debug_line    0x0000437d     0x1795 ./ra/fsp/src/r_sci_uart/r_sci_uart.o
 .debug_line    0x00005b12     0x1120 ./ra/fsp/src/r_sci_i2c/r_sci_i2c.o
 .debug_line    0x00006c32      0xce9 ./ra/fsp/src/r_ioport/r_ioport.o
 .debug_line    0x0000791b     0x11e2 ./ra/fsp/src/r_gpt/r_gpt.o
 .debug_line    0x00008afd      0x84d ./ra/fsp/src/bsp/mcu/all/bsp_clocks.o
 .debug_line    0x0000934a      0x2c9 ./ra/fsp/src/bsp/mcu/all/bsp_common.o
 .debug_line    0x00009613      0x320 ./ra/fsp/src/bsp/mcu/all/bsp_delay.o
 .debug_line    0x00009933      0x3a0 ./ra/fsp/src/bsp/mcu/all/bsp_group_irq.o
 .debug_line    0x00009cd3      0x1c2 ./ra/fsp/src/bsp/mcu/all/bsp_io.o
 .debug_line    0x00009e95      0x4f9 ./ra/fsp/src/bsp/mcu/all/bsp_irq.o
 .debug_line    0x0000a38e      0x44f ./ra/fsp/src/bsp/mcu/all/bsp_register_protection.o
 .debug_line    0x0000a7dd      0x14b ./ra/fsp/src/bsp/mcu/all/bsp_rom_registers.o
 .debug_line    0x0000a928      0x1dc ./ra/fsp/src/bsp/mcu/all/bsp_sbrk.o
 .debug_line    0x0000ab04      0x246 ./ra/fsp/src/bsp/cmsis/Device/RENESAS/Source/startup.o
 .debug_line    0x0000ad4a      0x535 ./ra/fsp/src/bsp/cmsis/Device/RENESAS/Source/system.o

.debug_str      0x00000000     0xd536
 .debug_str     0x00000000     0x3bed ./src/bsp_debug_uart.o
                               0x3d32 (size before relaxing)
 .debug_str     0x00003bed      0x4b2 ./src/bsp_dht11.o
                               0x335e (size before relaxing)
 .debug_str     0x0000409f      0xf55 ./src/bsp_gpt_timing.o
                               0x12e4 (size before relaxing)
 .debug_str     0x00004ff4       0x11 ./src/bsp_led.o
                               0x3162 (size before relaxing)
 .debug_str     0x00005005      0x45f ./src/bsp_wifi_esp8266.o
                               0x421c (size before relaxing)
 .debug_str     0x00005464      0x46a ./src/hal_entry.o
                               0x42e8 (size before relaxing)
 .debug_str     0x000058ce      0x118 ./src/oled.o
                               0x2969 (size before relaxing)
 .debug_str     0x000059e6       0x47 ./ra_gen/common_data.o
                               0x317b (size before relaxing)
 .debug_str     0x00005a2d     0x1416 ./ra_gen/hal_data.o
                               0x638f (size before relaxing)
 .debug_str     0x00006e43       0x11 ./ra_gen/main.o
                                0x1ec (size before relaxing)
 .debug_str     0x00006e54      0x5d6 ./ra_gen/pin_data.o
                               0x1cfc (size before relaxing)
 .debug_str     0x0000742a     0x1b26 ./ra_gen/vector_data.o
                               0x1cec (size before relaxing)
 .debug_str     0x00008f50     0x2095 ./ra/fsp/src/r_sci_uart/r_sci_uart.o
                               0x6412 (size before relaxing)
 .debug_str     0x0000afe5      0x263 ./ra/fsp/src/r_sci_i2c/r_sci_i2c.o
                               0x33e2 (size before relaxing)
 .debug_str     0x0000b248      0x75c ./ra/fsp/src/r_ioport/r_ioport.o
                               0x53e8 (size before relaxing)
 .debug_str     0x0000b9a4      0x9ad ./ra/fsp/src/r_gpt/r_gpt.o
                               0x5f74 (size before relaxing)
 .debug_str     0x0000c351      0x685 ./ra/fsp/src/bsp/mcu/all/bsp_clocks.o
                               0x1f7f (size before relaxing)
 .debug_str     0x0000c9d6       0xf8 ./ra/fsp/src/bsp/mcu/all/bsp_common.o
                               0x1a8f (size before relaxing)
 .debug_str     0x0000cace       0xb6 ./ra/fsp/src/bsp/mcu/all/bsp_delay.o
                                0x315 (size before relaxing)
 .debug_str     0x0000cb84      0x1de ./ra/fsp/src/bsp/mcu/all/bsp_group_irq.o
                               0x1f9a (size before relaxing)
 .debug_str     0x0000cd62       0x23 ./ra/fsp/src/bsp/mcu/all/bsp_io.o
                                0x215 (size before relaxing)
 .debug_str     0x0000cd85      0x2d9 ./ra/fsp/src/bsp/mcu/all/bsp_irq.o
                               0x2506 (size before relaxing)
 .debug_str     0x0000d05e       0x88 ./ra/fsp/src/bsp/mcu/all/bsp_register_protection.o
                               0x1917 (size before relaxing)
 .debug_str     0x0000d0e6      0x15d ./ra/fsp/src/bsp/mcu/all/bsp_rom_registers.o
                                0x337 (size before relaxing)
 .debug_str     0x0000d243       0x96 ./ra/fsp/src/bsp/mcu/all/bsp_sbrk.o
                                0x276 (size before relaxing)
 .debug_str     0x0000d2d9       0x89 ./ra/fsp/src/bsp/cmsis/Device/RENESAS/Source/startup.o
                                0x266 (size before relaxing)
 .debug_str     0x0000d362      0x1d4 ./ra/fsp/src/bsp/cmsis/Device/RENESAS/Source/system.o
                                0x64e (size before relaxing)

.debug_frame    0x00000000     0x1e18
 .debug_frame   0x00000000       0x50 ./src/bsp_debug_uart.o
 .debug_frame   0x00000050       0xa0 ./src/bsp_dht11.o
 .debug_frame   0x000000f0       0x44 ./src/bsp_gpt_timing.o
 .debug_frame   0x00000134       0x20 ./src/bsp_led.o
 .debug_frame   0x00000154       0x8c ./src/bsp_wifi_esp8266.o
 .debug_frame   0x000001e0       0x6c ./src/hal_entry.o
 .debug_frame   0x0000024c      0x23c ./src/oled.o
 .debug_frame   0x00000488       0x20 ./ra_gen/common_data.o
 .debug_frame   0x000004a8       0x20 ./ra_gen/hal_data.o
 .debug_frame   0x000004c8       0x28 ./ra_gen/main.o
 .debug_frame   0x000004f0      0x1d4 ./ra/fsp/src/r_sci_uart/r_sci_uart.o
 .debug_frame   0x000006c4      0x10c ./ra/fsp/src/r_sci_i2c/r_sci_i2c.o
 .debug_frame   0x000007d0      0x17c ./ra/fsp/src/r_ioport/r_ioport.o
 .debug_frame   0x0000094c      0x220 ./ra/fsp/src/r_gpt/r_gpt.o
 .debug_frame   0x00000b6c       0xb4 ./ra/fsp/src/bsp/mcu/all/bsp_clocks.o
 .debug_frame   0x00000c20       0x40 ./ra/fsp/src/bsp/mcu/all/bsp_common.o
 .debug_frame   0x00000c60       0x44 ./ra/fsp/src/bsp/mcu/all/bsp_delay.o
 .debug_frame   0x00000ca4       0x3c ./ra/fsp/src/bsp/mcu/all/bsp_group_irq.o
 .debug_frame   0x00000ce0       0x30 ./ra/fsp/src/bsp/mcu/all/bsp_irq.o
 .debug_frame   0x00000d10       0x48 ./ra/fsp/src/bsp/mcu/all/bsp_register_protection.o
 .debug_frame   0x00000d58       0x28 ./ra/fsp/src/bsp/mcu/all/bsp_sbrk.o
 .debug_frame   0x00000d80       0x38 ./ra/fsp/src/bsp/cmsis/Device/RENESAS/Source/startup.o
 .debug_frame   0x00000db8       0x44 ./ra/fsp/src/bsp/cmsis/Device/RENESAS/Source/system.o
 .debug_frame   0x00000dfc       0x20 h:/softwareapplication/e2studio/toolchains/gcc_arm/gcc-arm-none-eabi-10.3-2021.10/bin/../lib/gcc/arm-none-eabi/10.3.1/../../../../arm-none-eabi/lib/thumb/v8-m.main+fp/hard\libg_nano.a(lib_a-errno.o)
 .debug_frame   0x00000e1c       0x28 h:/softwareapplication/e2studio/toolchains/gcc_arm/gcc-arm-none-eabi-10.3-2021.10/bin/../lib/gcc/arm-none-eabi/10.3.1/../../../../arm-none-eabi/lib/thumb/v8-m.main+fp/hard\libg_nano.a(lib_a-memcpy-stub.o)
 .debug_frame   0x00000e44       0x20 h:/softwareapplication/e2studio/toolchains/gcc_arm/gcc-arm-none-eabi-10.3-2021.10/bin/../lib/gcc/arm-none-eabi/10.3.1/../../../../arm-none-eabi/lib/thumb/v8-m.main+fp/hard\libg_nano.a(lib_a-memset.o)
 .debug_frame   0x00000e64       0xa0 h:/softwareapplication/e2studio/toolchains/gcc_arm/gcc-arm-none-eabi-10.3-2021.10/bin/../lib/gcc/arm-none-eabi/10.3.1/../../../../arm-none-eabi/lib/thumb/v8-m.main+fp/hard\libg_nano.a(lib_a-nano-vfprintf_float.o)
 .debug_frame   0x00000f04       0x60 h:/softwareapplication/e2studio/toolchains/gcc_arm/gcc-arm-none-eabi-10.3-2021.10/bin/../lib/gcc/arm-none-eabi/10.3.1/../../../../arm-none-eabi/lib/thumb/v8-m.main+fp/hard\libg_nano.a(lib_a-nano-vfprintf_i.o)
 .debug_frame   0x00000f64       0x74 h:/softwareapplication/e2studio/toolchains/gcc_arm/gcc-arm-none-eabi-10.3-2021.10/bin/../lib/gcc/arm-none-eabi/10.3.1/../../../../arm-none-eabi/lib/thumb/v8-m.main+fp/hard\libg_nano.a(lib_a-printf.o)
 .debug_frame   0x00000fd8       0x3c h:/softwareapplication/e2studio/toolchains/gcc_arm/gcc-arm-none-eabi-10.3-2021.10/bin/../lib/gcc/arm-none-eabi/10.3.1/../../../../arm-none-eabi/lib/thumb/v8-m.main+fp/hard\libg_nano.a(lib_a-puts.o)
 .debug_frame   0x00001014       0x40 h:/softwareapplication/e2studio/toolchains/gcc_arm/gcc-arm-none-eabi-10.3-2021.10/bin/../lib/gcc/arm-none-eabi/10.3.1/../../../../arm-none-eabi/lib/thumb/v8-m.main+fp/hard\libg_nano.a(lib_a-wbuf.o)
 .debug_frame   0x00001054       0x2c h:/softwareapplication/e2studio/toolchains/gcc_arm/gcc-arm-none-eabi-10.3-2021.10/bin/../lib/gcc/arm-none-eabi/10.3.1/../../../../arm-none-eabi/lib/thumb/v8-m.main+fp/hard\libg_nano.a(lib_a-wsetup.o)
 .debug_frame   0x00001080       0x88 h:/softwareapplication/e2studio/toolchains/gcc_arm/gcc-arm-none-eabi-10.3-2021.10/bin/../lib/gcc/arm-none-eabi/10.3.1/../../../../arm-none-eabi/lib/thumb/v8-m.main+fp/hard\libg_nano.a(lib_a-dtoa.o)
 .debug_frame   0x00001108       0x5c h:/softwareapplication/e2studio/toolchains/gcc_arm/gcc-arm-none-eabi-10.3-2021.10/bin/../lib/gcc/arm-none-eabi/10.3.1/../../../../arm-none-eabi/lib/thumb/v8-m.main+fp/hard\libg_nano.a(lib_a-fflush.o)
 .debug_frame   0x00001164      0x14c h:/softwareapplication/e2studio/toolchains/gcc_arm/gcc-arm-none-eabi-10.3-2021.10/bin/../lib/gcc/arm-none-eabi/10.3.1/../../../../arm-none-eabi/lib/thumb/v8-m.main+fp/hard\libg_nano.a(lib_a-findfp.o)
 .debug_frame   0x000012b0       0x54 h:/softwareapplication/e2studio/toolchains/gcc_arm/gcc-arm-none-eabi-10.3-2021.10/bin/../lib/gcc/arm-none-eabi/10.3.1/../../../../arm-none-eabi/lib/thumb/v8-m.main+fp/hard\libg_nano.a(lib_a-fwalk.o)
 .debug_frame   0x00001304       0x40 h:/softwareapplication/e2studio/toolchains/gcc_arm/gcc-arm-none-eabi-10.3-2021.10/bin/../lib/gcc/arm-none-eabi/10.3.1/../../../../arm-none-eabi/lib/thumb/v8-m.main+fp/hard\libg_nano.a(lib_a-localeconv.o)
 .debug_frame   0x00001344       0xb0 h:/softwareapplication/e2studio/toolchains/gcc_arm/gcc-arm-none-eabi-10.3-2021.10/bin/../lib/gcc/arm-none-eabi/10.3.1/../../../../arm-none-eabi/lib/thumb/v8-m.main+fp/hard\libg_nano.a(lib_a-lock.o)
 .debug_frame   0x000013f4       0x58 h:/softwareapplication/e2studio/toolchains/gcc_arm/gcc-arm-none-eabi-10.3-2021.10/bin/../lib/gcc/arm-none-eabi/10.3.1/../../../../arm-none-eabi/lib/thumb/v8-m.main+fp/hard\libg_nano.a(lib_a-makebuf.o)
 .debug_frame   0x0000144c       0x30 h:/softwareapplication/e2studio/toolchains/gcc_arm/gcc-arm-none-eabi-10.3-2021.10/bin/../lib/gcc/arm-none-eabi/10.3.1/../../../../arm-none-eabi/lib/thumb/v8-m.main+fp/hard\libg_nano.a(lib_a-malloc.o)
 .debug_frame   0x0000147c       0x28 h:/softwareapplication/e2studio/toolchains/gcc_arm/gcc-arm-none-eabi-10.3-2021.10/bin/../lib/gcc/arm-none-eabi/10.3.1/../../../../arm-none-eabi/lib/thumb/v8-m.main+fp/hard\libg_nano.a(lib_a-memchr-stub.o)
 .debug_frame   0x000014a4      0x25c h:/softwareapplication/e2studio/toolchains/gcc_arm/gcc-arm-none-eabi-10.3-2021.10/bin/../lib/gcc/arm-none-eabi/10.3.1/../../../../arm-none-eabi/lib/thumb/v8-m.main+fp/hard\libg_nano.a(lib_a-mprec.o)
 .debug_frame   0x00001700       0x30 h:/softwareapplication/e2studio/toolchains/gcc_arm/gcc-arm-none-eabi-10.3-2021.10/bin/../lib/gcc/arm-none-eabi/10.3.1/../../../../arm-none-eabi/lib/thumb/v8-m.main+fp/hard\libg_nano.a(lib_a-nano-callocr.o)
 .debug_frame   0x00001730       0x38 h:/softwareapplication/e2studio/toolchains/gcc_arm/gcc-arm-none-eabi-10.3-2021.10/bin/../lib/gcc/arm-none-eabi/10.3.1/../../../../arm-none-eabi/lib/thumb/v8-m.main+fp/hard\libg_nano.a(lib_a-nano-freer.o)
 .debug_frame   0x00001768       0x4c h:/softwareapplication/e2studio/toolchains/gcc_arm/gcc-arm-none-eabi-10.3-2021.10/bin/../lib/gcc/arm-none-eabi/10.3.1/../../../../arm-none-eabi/lib/thumb/v8-m.main+fp/hard\libg_nano.a(lib_a-nano-mallocr.o)
 .debug_frame   0x000017b4       0xac h:/softwareapplication/e2studio/toolchains/gcc_arm/gcc-arm-none-eabi-10.3-2021.10/bin/../lib/gcc/arm-none-eabi/10.3.1/../../../../arm-none-eabi/lib/thumb/v8-m.main+fp/hard\libg_nano.a(lib_a-nano-vfprintf.o)
 .debug_frame   0x00001860       0x2c h:/softwareapplication/e2studio/toolchains/gcc_arm/gcc-arm-none-eabi-10.3-2021.10/bin/../lib/gcc/arm-none-eabi/10.3.1/../../../../arm-none-eabi/lib/thumb/v8-m.main+fp/hard\libg_nano.a(lib_a-sbrkr.o)
 .debug_frame   0x0000188c       0x88 h:/softwareapplication/e2studio/toolchains/gcc_arm/gcc-arm-none-eabi-10.3-2021.10/bin/../lib/gcc/arm-none-eabi/10.3.1/../../../../arm-none-eabi/lib/thumb/v8-m.main+fp/hard\libg_nano.a(lib_a-stdio.o)
 .debug_frame   0x00001914       0x2c h:/softwareapplication/e2studio/toolchains/gcc_arm/gcc-arm-none-eabi-10.3-2021.10/bin/../lib/gcc/arm-none-eabi/10.3.1/../../../../arm-none-eabi/lib/thumb/v8-m.main+fp/hard\libg_nano.a(lib_a-writer.o)
 .debug_frame   0x00001940       0x2c h:/softwareapplication/e2studio/toolchains/gcc_arm/gcc-arm-none-eabi-10.3-2021.10/bin/../lib/gcc/arm-none-eabi/10.3.1/../../../../arm-none-eabi/lib/thumb/v8-m.main+fp/hard\libg_nano.a(lib_a-closer.o)
 .debug_frame   0x0000196c       0x2c h:/softwareapplication/e2studio/toolchains/gcc_arm/gcc-arm-none-eabi-10.3-2021.10/bin/../lib/gcc/arm-none-eabi/10.3.1/../../../../arm-none-eabi/lib/thumb/v8-m.main+fp/hard\libg_nano.a(lib_a-fstatr.o)
 .debug_frame   0x00001998       0x2c h:/softwareapplication/e2studio/toolchains/gcc_arm/gcc-arm-none-eabi-10.3-2021.10/bin/../lib/gcc/arm-none-eabi/10.3.1/../../../../arm-none-eabi/lib/thumb/v8-m.main+fp/hard\libg_nano.a(lib_a-isattyr.o)
 .debug_frame   0x000019c4       0x48 h:/softwareapplication/e2studio/toolchains/gcc_arm/gcc-arm-none-eabi-10.3-2021.10/bin/../lib/gcc/arm-none-eabi/10.3.1/../../../../arm-none-eabi/lib/thumb/v8-m.main+fp/hard\libg_nano.a(lib_a-locale.o)
 .debug_frame   0x00001a0c       0x2c h:/softwareapplication/e2studio/toolchains/gcc_arm/gcc-arm-none-eabi-10.3-2021.10/bin/../lib/gcc/arm-none-eabi/10.3.1/../../../../arm-none-eabi/lib/thumb/v8-m.main+fp/hard\libg_nano.a(lib_a-lseekr.o)
 .debug_frame   0x00001a38       0x48 h:/softwareapplication/e2studio/toolchains/gcc_arm/gcc-arm-none-eabi-10.3-2021.10/bin/../lib/gcc/arm-none-eabi/10.3.1/../../../../arm-none-eabi/lib/thumb/v8-m.main+fp/hard\libg_nano.a(lib_a-mbtowc_r.o)
 .debug_frame   0x00001a80       0x30 h:/softwareapplication/e2studio/toolchains/gcc_arm/gcc-arm-none-eabi-10.3-2021.10/bin/../lib/gcc/arm-none-eabi/10.3.1/../../../../arm-none-eabi/lib/thumb/v8-m.main+fp/hard\libg_nano.a(lib_a-mlock.o)
 .debug_frame   0x00001ab0       0x2c h:/softwareapplication/e2studio/toolchains/gcc_arm/gcc-arm-none-eabi-10.3-2021.10/bin/../lib/gcc/arm-none-eabi/10.3.1/../../../../arm-none-eabi/lib/thumb/v8-m.main+fp/hard\libg_nano.a(lib_a-readr.o)
 .debug_frame   0x00001adc       0x5c h:/softwareapplication/e2studio/toolchains/gcc_arm/gcc-arm-none-eabi-10.3-2021.10/bin/../lib/gcc/arm-none-eabi/10.3.1/../../../../arm-none-eabi/lib/thumb/v8-m.main+fp/hard\libg_nano.a(lib_a-reent.o)
 .debug_frame   0x00001b38       0x3c h:/softwareapplication/e2studio/toolchains/gcc_arm/gcc-arm-none-eabi-10.3-2021.10/bin/../lib/gcc/arm-none-eabi/10.3.1/../../../../arm-none-eabi/lib/thumb/v8-m.main+fp/hard\libg_nano.a(lib_a-wctomb_r.o)
 .debug_frame   0x00001b74       0xac h:/softwareapplication/e2studio/toolchains/gcc_arm/gcc-arm-none-eabi-10.3-2021.10/bin/../lib/gcc/arm-none-eabi/10.3.1/thumb/v8-m.main+fp/hard\libgcc.a(_arm_addsubdf3.o)
 .debug_frame   0x00001c20       0x50 h:/softwareapplication/e2studio/toolchains/gcc_arm/gcc-arm-none-eabi-10.3-2021.10/bin/../lib/gcc/arm-none-eabi/10.3.1/thumb/v8-m.main+fp/hard\libgcc.a(_arm_muldivdf3.o)
 .debug_frame   0x00001c70       0xc4 h:/softwareapplication/e2studio/toolchains/gcc_arm/gcc-arm-none-eabi-10.3-2021.10/bin/../lib/gcc/arm-none-eabi/10.3.1/thumb/v8-m.main+fp/hard\libgcc.a(_arm_cmpdf2.o)
 .debug_frame   0x00001d34       0x20 h:/softwareapplication/e2studio/toolchains/gcc_arm/gcc-arm-none-eabi-10.3-2021.10/bin/../lib/gcc/arm-none-eabi/10.3.1/thumb/v8-m.main+fp/hard\libgcc.a(_arm_unorddf2.o)
 .debug_frame   0x00001d54       0x24 h:/softwareapplication/e2studio/toolchains/gcc_arm/gcc-arm-none-eabi-10.3-2021.10/bin/../lib/gcc/arm-none-eabi/10.3.1/thumb/v8-m.main+fp/hard\libgcc.a(_arm_fixdfsi.o)
 .debug_frame   0x00001d78       0x20 h:/softwareapplication/e2studio/toolchains/gcc_arm/gcc-arm-none-eabi-10.3-2021.10/bin/../lib/gcc/arm-none-eabi/10.3.1/../../../../arm-none-eabi/lib/thumb/v8-m.main+fp/hard\libnosys.a(close.o)
 .debug_frame   0x00001d98       0x20 h:/softwareapplication/e2studio/toolchains/gcc_arm/gcc-arm-none-eabi-10.3-2021.10/bin/../lib/gcc/arm-none-eabi/10.3.1/../../../../arm-none-eabi/lib/thumb/v8-m.main+fp/hard\libnosys.a(fstat.o)
 .debug_frame   0x00001db8       0x20 h:/softwareapplication/e2studio/toolchains/gcc_arm/gcc-arm-none-eabi-10.3-2021.10/bin/../lib/gcc/arm-none-eabi/10.3.1/../../../../arm-none-eabi/lib/thumb/v8-m.main+fp/hard\libnosys.a(isatty.o)
 .debug_frame   0x00001dd8       0x20 h:/softwareapplication/e2studio/toolchains/gcc_arm/gcc-arm-none-eabi-10.3-2021.10/bin/../lib/gcc/arm-none-eabi/10.3.1/../../../../arm-none-eabi/lib/thumb/v8-m.main+fp/hard\libnosys.a(lseek.o)
 .debug_frame   0x00001df8       0x20 h:/softwareapplication/e2studio/toolchains/gcc_arm/gcc-arm-none-eabi-10.3-2021.10/bin/../lib/gcc/arm-none-eabi/10.3.1/../../../../arm-none-eabi/lib/thumb/v8-m.main+fp/hard\libnosys.a(read.o)

.stab           0x00000000       0x84
 .stab          0x00000000       0x24 h:/softwareapplication/e2studio/toolchains/gcc_arm/gcc-arm-none-eabi-10.3-2021.10/bin/../lib/gcc/arm-none-eabi/10.3.1/../../../../arm-none-eabi/lib/thumb/v8-m.main+fp/hard\libnosys.a(close.o)
 .stab          0x00000024       0x18 h:/softwareapplication/e2studio/toolchains/gcc_arm/gcc-arm-none-eabi-10.3-2021.10/bin/../lib/gcc/arm-none-eabi/10.3.1/../../../../arm-none-eabi/lib/thumb/v8-m.main+fp/hard\libnosys.a(fstat.o)
                                 0x24 (size before relaxing)
 .stab          0x0000003c       0x18 h:/softwareapplication/e2studio/toolchains/gcc_arm/gcc-arm-none-eabi-10.3-2021.10/bin/../lib/gcc/arm-none-eabi/10.3.1/../../../../arm-none-eabi/lib/thumb/v8-m.main+fp/hard\libnosys.a(isatty.o)
                                 0x24 (size before relaxing)
 .stab          0x00000054       0x18 h:/softwareapplication/e2studio/toolchains/gcc_arm/gcc-arm-none-eabi-10.3-2021.10/bin/../lib/gcc/arm-none-eabi/10.3.1/../../../../arm-none-eabi/lib/thumb/v8-m.main+fp/hard\libnosys.a(lseek.o)
                                 0x24 (size before relaxing)
 .stab          0x0000006c       0x18 h:/softwareapplication/e2studio/toolchains/gcc_arm/gcc-arm-none-eabi-10.3-2021.10/bin/../lib/gcc/arm-none-eabi/10.3.1/../../../../arm-none-eabi/lib/thumb/v8-m.main+fp/hard\libnosys.a(read.o)
                                 0x24 (size before relaxing)

.stabstr        0x00000000      0x117
 .stabstr       0x00000000      0x117 h:/softwareapplication/e2studio/toolchains/gcc_arm/gcc-arm-none-eabi-10.3-2021.10/bin/../lib/gcc/arm-none-eabi/10.3.1/../../../../arm-none-eabi/lib/thumb/v8-m.main+fp/hard\libnosys.a(close.o)
