S315080000006015002049010008BF1B00087911000887
S31508000010BD1B0008B50A00089D3000080000000056
S31508000020000000000000000000000000AB1E0008F1
S31508000030B70A000800000000391C00087D1F0008E8
S3150800004063010008630100086301000863010008F2
S3150800005063010008630100086301000863010008E2
S3150800006063010008630100086301000863010008D2
S3150800007063010008630100086301000863010008C2
S3150800008063010008630100086301000863010008B2
S3150800009063010008630100086301000863010008A2
S315080000A06301000863010008630100086301000892
S315080000B06301000863010008630100086301000882
S315080000C06301000863010008630100086301000872
S315080000D063010008E12E00086301000863010008B7
S315080000E06301000863010008630100086301000852
S315080000F06301000863010008630100086301000842
S315080001006301000863010008630100086301000831
S315080001106301000863010008630100086301000821
S315080001206301000863010008630100086301000811
S31508000130DFF810D000F0ACFC00480047E13C0008AE
S31508000140AFF3008060150020064880470648004740
S31508000150FEE7FEE7FEE7FEE7FEE7FEE7FEE7FEE769
S31508000160FEE7FEE7811F000831010008F0B480EAC7
S315080001700102D40F4200B2EB410F02D202460846F2
S3150800018011464A0042D0C30DDDB2C1F3C752AD1ABB
S31508000190202D35DAC1F3160141F4000204B15242AA
S315080001A0C5F1200602FA06F12A411044B3EBD05FE6
S315080001B023D0C4B1012DA0EBC35009DCF0BC4FF02D
S315080001C0004202EAC352DBB200F5000000F06BBB46
S315080001D0400000F1807000EBC350A0F1807040EA47
S315080001E0D170490009E0490841EAC071A0EBC35043
S315080001F000F50000400800EBC350F0BC00F04ABB15
S315080002006142012202EB4101001BF6E7F0BC704790
S3150800021081F00041AAE780F00040A7E780EA0102E2
S3150800022010B502F00043400022D04A001FD0010E4C
S3150800023001EB1261C0F35600C2F3560240F4000007
S3150800024042F40002A0FB022000047F39140400D007
S31508000250401C50EA124001D44000491EC2B20C06A6
S3150800026004EBD010401C4008802A02D003E000208E
S3150800027010BD20F00100002900DA0020184310BD47
S3150800028030B480EA010202F0004530F0004221F065
S31508000290004013D090B1C30DD40DC2F31601C0F3BC
S315080002A01600E41A41F4000140F400027D3491423C
S315080002B001D3641C00E04900002C02DA30BC00209F
S315080002C070474FF400000023914201D3891A034373
S315080002D040084FEA4101F7D151B1914202D14FF09E
S315080002E0004105E002D24FF0010101E06FF0010183
S315080002F003EBC450284430BC00F0CCBA420005D009
S31508000300C0F3C7525242914201DC0020704700EB0D
S31508000310C15070472DE9FE4F804681EA0300C00FA1
S315080003200C46009021F0004123F00045B8EB02008E
S31508000330A94105D24046214690461C460B46024630
S3150800034023F00040104347D0270DC7F30A00C3F334
S315080003500A510290401A019040286BDAC3F3130041
S3150800036040F4801B0098924620B10023D2EB030A82
S3150800037063EB0B0B01985946C0F14002504600F05A
S3150800038058FA06460D4650465946019A00F070FA44
S3150800039010EB08006141002487EA115284EAE773EA
S315080003A01A4340D0009A62B3019A012A4FEA0752CB
S315080003B015DC001B61EB02014FF0004202EA07520E
S315080003C0CDE90042001C41F5801132462B4600F06B
S315080003D0A7FA03B0BDE8F08F40462146F9E7001BAF
S315080003E061EB0201001C41F5801300185B412018DF
S315080003F0A2F5001747EB030140EAD570B6196D411F
S3150800040011E06D084FEA360645EAC0754FEA07520D
S31508000410001B61EB0201001C41F5801149084FEAF7
S3150800042030000019514132462B4603B0BDE8F04F63
S3150800043000F067BA0098012240000023D0EB0202C0
S3150800044063EBE073009821464FEAE074B8EB0000CE
S3150800045061EB0401E9E783F000435BE781F00041C3
S3150800046058E72DE9FE4F81EA030404F0004421F021
S31508000470004100944FF0000B23F0004350EA0104BA
S315080004805ED052EA03045BD0C3F30A54C1F30A559B
S315080004902C44A4F2F3340194A0FB0254C1F31301D3
S315080004A041F48011C3F3130343F4801301FB0244A0
S315080004B000FB034E840A970A44EA815447EA8357A5
S315080004C0A4FB076802958D0A05FB07854FEA932C5E
S315080004D004FB0C542705029D4FEA065847EA1637CF
S315080004E0B5EB08056EEB070C870E920E47EA8117E7
S315080004F042EA8312A7FB0201B6EB0B0164EB000488
S315080005002B0D43EA0C335E1844EB1C50DA46514671
S31508000510E7FB0201C5F313044FEA0B3343EA14530E
S315080005204FEA0432019C43EA0603A4F10C04029440
S31508000530009CCDE900B400F0F3F903B0BDE8F08FF4
S3150800054000200146F9E72DE9F04D81EA030404F09D
S31508000550004B21F0004514464FF0000A23F00041F5
S3150800056050EA050220D054EA01021DD0C5F30A5705
S315080005700246C5F31303C1F31300C1F30A5640F448
S31508000580801543F48013A7EB0608101BD64608F21D
S31508000590FD3873EB050002D308F1010801E0921853
S315080005A05B41B8F1000F03DA00200146BDE8F08D83
S315080005B000204FF48011064684460EE0171B73EBA5
S315080005C0050705D3121B63EB050306434CEA010C2A
S315080005D049084FEA300092185B4150EA0107EDD10D
S315080005E052EA030012D082EA040083EA05010843AE
S315080005F005D0101BAB4106D20122002306E00022DB
S315080006004FF0004302E06FF0010253101AEB0600A8
S315080006104CEB085110EB0A0041EB0B01BDE8F04D1D
S3150800062000F06FB9C10F80EAE0700844CA07962344
S31508000630002100F038B996230022114600F033B99C
S315080006400EB540F2334102910021CDE900110A4668
S315080006500B4600F065F903B000BD00F0004220F03B
S315080006600040C10DC0F3160040F400007F2901DAEE
S3150800067000207047962903DCC1F19601C84001E0C5
S3150800068096398840002AF4D04042704720F000404E
S31508000690C10DC0F3160040F400007F2901DA0020DE
S315080006A07047962903DCC1F19601C8407047963910
S315080006B088407047C1F30A5210B5C1F3130140F2DE
S315080006C0FF3341F480119A4201DA002010BD40F24E
S315080006D033439A42A2F2334203DC524200F0B8F89E
S315080006E010BD904010BD00F0004230F000400AD026
S315080006F0C10D01F56071C0F3160042EA0151C20846
S3150800070040071143704700200146704730B5041E64
S3150800071071F1000404DB4FF00044404264EB010130
S31508000720141E73F1000405DB1C464FF000435242C9
S3150800073063EB04038B4208BF824230BD30B5041E0A
S3150800074071F1000404DB4FF00044404264EB010100
S31508000750141E73F1000405DB1C464FF00043524299
S3150800076063EB0403994208BF904230BD01F0004391
S3150800077030B421F0004150EA010206D00A0DA2F574
S315080007806072C1F31301002A02DC30BC00207047F6
S31508000790440F44EAC104C100E01830BC00EBC25063
S315080007A000F078B830B50B46014600202022012417
S315080007B009E021FA02F59D4205D303FA02F5491B21
S315080007C004FA02F52844151EA2F10102F1DC30BD37
S315080007D02DE9F05F0546002092469B468846064668
S315080007E0814640241BE0284641464746224600F0FB
S315080007F02FF853465A46C01A914110D31146184647
S31508000800224600F016F82D1A67EB01084F462246D5
S315080008100120002100F00DF817EB00094E41201EBB
S31508000820A4F10104DFDC484631462A464346BDE8C2
S31508000830F09F202A04DB203A00FA02F100207047D4
S315080008409140C2F1200320FA03F319439040704700
S31508000850202A04DB203A21FA02F00021704721FA07
S3150800086002F3D040C2F1200291400843194670476E
S31508000870202A06DBCB17203A41FA02F043EAE07356
S3150800088006E041FA02F3D040C2F120029140084343
S31508000890194670470029A8BF7047401C490008BF81
S315080008A020F00100704710B4B0FA80FC00FA0CF092
S315080008B050EA010404BF10BC704749B1CCF12004CA
S315080008C021FA04F411FA0CF118BF01212143084357
S315080008D0A3EB0C01CB1D4FEA00614FEA102042BF83
S315080008E0002010BC704700EBC35010440029A4BF79
S315080008F010BC7047401C490008BF20F0010010BC1E
S31508000900704710B5141E73F1000408DA401C41F153
S31508000910000192185B411A4301D120F0010010BD75
S315080009202DE9F04D92469B4611B1B1FA81F202E0EB
S31508000930B0FA80F220329046FFF77BFF04460F4656
S3150800094040EA0A0041EA0B0153465A46084313D0C7
S31508000950114653EA010019D0C8F140025046FFF784
S3150800096077FF05460E46504659464246FFF761FF51
S31508000970084305D0012004E020463946BDE8F08D3D
S315080009800020054346EAE0762C4337430A98630578
S31508000990E40AA0EB08000022FD0A44EA47540A309C
S315080009A002D500200146E9E7010510196941DDE98C
S315080009B0084500196941BDE8F04DA2E72DE9F04D5B
S315080009C000231A461B1A8A4103DB00200146BDE8AC
S315080009D0F08DC1F30A52C1F3130141F480154FF0AB
S315080009E0000BD10702D100186D41521E002704469C
S315080009F040F2FF11384601EB620A3E46804602463F
S31508000A0000204FF48011FFF723FFC2197141BB186C
S31508000A1046EB0100B4EB030C75EB000C04D3E41AA7
S31508000A2065EB000517460E46241908F101006D41CD
S31508000A3080463428E3DDF91946EB0600091BA84170
S31508000A4003D24FF0FF32134601E0002213461BEB98
S31508000A50070046EB0A51BDE8F04DFFF752BFC1F358
S31508000A600A52C1F3130140F2FF3341F480119A424E
S31508000A7002DA00200146704740F233439A42A2F256
S31508000A80334202DC5242FFF7E3BEFFF7D2BE000054
S31508000A90064C074D06E0E06840F0010394E80700BD
S31508000AA098471034AC42F6D3FFF746FB9056000839
S31508000AB0B0560008FEE77047F0B585B014461D46E7
S31508000AC00A4B1A88121A92B25B885B1A9BB2084FB5
S31508000AD04FF0100C00263F88CDE9005CCDE903767F
S31508000AE0029400F080FA05B0F0BD000084000020F2
S31508000AF0020000208000A0F1C040002904D001684F
S31508000B0041F00101016070470168024A1140016025
S31508000B1070470000FEFF0F0010B5D0E9011211431F
S31508000B20D0E903231A4311434269114382691143E9
S31508000B30C2691143026A1143426A1143826A114328
S31508000B40C26A1143026B114302689200A2F1C042C5
S31508000B5011608168082907D101688900A1F1C0419F
S31508000B600A6842F040020A60416BD1E9002342EA72
S31508000B7003128B688C891B0243EA04431A430B8AC7
S31508000B8042EA03520B7D896942EA03620A43016815
S31508000B90491C8900A1F1C0410A60C16AB1F5804FBC
S31508000BA008D000686FF070418000A0F1C040C0F81E
S31508000BB0041110BD816BD1E9002342EA03128B6848
S31508000BC00C8A1B0243EA04531A430B7D896942EADD
S31508000BD0036200680A438000A0F1C040C0F80421FF
S31508000BE010BD00002DE9F04105460C461646DFF813
S31508000BF058804FF400673946404600F0BBFA052096
S31508000C0000F050FA032000F021F8C4F3074000F082
S31508000C101DF8C4F3072000F019F8E0B200F016F842
S31508000C20002405E0FF2000F011F82855641CA4B242
S31508000C30B442F7D33946404600F09AFABDE8F04187
S31508000C40052000F02FBA0000001C01402DE9F047EE
S31508000C5005460024DFF85490154F4FF4007828060F
S31508000C6004D54146484600F085FA03E04146484621
S31508000C7000F07EFA0221384600F07AFA6806060E77
S31508000C800421384600F06DFA40EA06050221384686
S31508000C9000F070FA641CE4B2082CE0D3022138464E
S31508000CA000F068FA2846BDE8F0870000001C0140FD
S31508000CB0000C014030B4044610460D461A46217809
S31508000CC020281DD009DC0C2812D0102814D018288A
S31508000CD01ED1104801FB020106E0302814D0402836
S31508000CE016D10D4801FB0201284630BCFFF77ABF32
S31508000CF0514301F50021F7E7084801FB0201F3E734
S31508000D00074801FB0201EFE7064801FB0201EBE792
S31508000D1030BC70470012080000920800000808005E
S31508000D20002608000048080030B4054608462C7816
S31508000D306978812C0AD3402908D3FF2906D0FF2CCD
S31508000D4004D07F290DD24039CDB20CE00021002213
S31508000D5003E000F8012B491C89B29942F9D330BC4B
S31508000D6070474139CDB2813CE1B2C1EB411404EB85
S31508000D70811105EB410159430C2A0BD0102A0CD0DE
S31508000D80182A0DD0202AEAD101F5601130BC1A467E
S31508000D90FFF728BF044A1144F8E7044A1144F5E767
S31508000DA001F5ED11F2E700000014090000DD11005D
S31508000DB0F8B50121882000F05DFF0220ADF800009B
S31508000DC010258DF8035003248DF80240104E69460D
S31508000DD0304600F073F90421ADF8001048218DF86B
S31508000DE003106946304600F069F94FF42061ADF802
S31508000DF000108DF803508DF802406946054800F04A
S31508000E005DF90221304600F0B5F900F005F8F8BDA5
S31508000E10000C0140001C014070B586B04FF6FF700B
S31508000E2000F0ECF9002000246D462C54401CC0B29A
S31508000E301828FAD3112200216846FFF7D3FE4FF48B
S31508000E40784610216B4632460846FFF735FE0020E5
S31508000E502C54401CC0B21828FAD30822142168461C
S31508000E60FFF7C0FE6B46324620211020FFF724FE0E
S31508000E7000202C54401CC0B21828FAD308221E2180
S31508000E806846FFF7AFFE6B46324630211020FFF763
S31508000E9013FEC82002F0E4FE06B070BD2DE9F04F3F
S31508000EA0C1B082460D4616461C46A946600701D0C3
S31508000EB0012000E0002000EBD40B60080BFB00FBD0
S31508000EC00C2C09D0102C07D0182C05D0202C03D0B8
S31508000ED0302C01D0402C33D15B46224601A930463E
S31508000EE0FFF7E8FE4FF0000828E001A810F80870A0
S31508000EF00026380605D5294650464A9A00F09EFA35
S31508000F0006E04C9820B9294650464B9A00F096FAC6
S31508000F107806070E6D1CADB2A5EB0900A04205D1F7
S31508000F204D460AF1010A1FFA8AFA03E0761CB6B2A0
S31508000F30082EDED308F101081FFA88F8D845D4D35D
S31508000F4041B0BDE8F08F2DE9F04FA1B082460C46BE
S31508000F5015461F46A146780701D0012000E000206B
S31508000F6000EBD70B0BFB07FB0C2F05D0102F03D07C
S31508000F70182F01D0202F33D15B463A4601A92846BF
S31508000F80FFF7D2FE4FF0000828E001A810F8086025
S31508000F900025300605D5214650462A9A00F04EFA15
S31508000FA006E02C9820B9214650462B9A00F046FABE
S31508000FB07006060E641CA4B2A4EB0900B84205D15B
S31508000FC04C460AF1010A1FFA8AFA03E06D1CEDB2D3
S31508000FD0082DDED308F1010808F0FF08D845D4D358
S31508000FE021B0BDE8F08F2DE9FF4F83B00446DDE957
S31508000FF010750E469346A046B2464FF0000920E00B
S31508001000B9F1000F23D04FF0000908EB0B00401B85
S31508001010A04202DA701986B2444606985044401B2C
S31508001020B04211DBDDE912121498CDE900120290E4
S315080010302B463A4631462046FFF785FFBF1C601906
S3150800104084B238780028DBD107B0BDE8F08F802855
S3150800105002D94FF00109F4E708EB0B01A1EB5501A2
S31508001060A14202DA71198EB2444606995144491BC7
S31508001070B142E9DB0D2810D0DDE912121498CDE94A
S31508001080001202902B463A4631462046FFF706FFE5
S315080010907F1C04EB550084B2D3E7701986B2444628
S315080010A07F1CF5E7002206E00021491CC9B2642925
S315080010B0FBD3521CD2B28242F6D370472DE9F041D7
S315080010C00022CC7804F00F03E40601D58C7823437C
S315080010D00C784FF00F0714F0FF0F4FF0010C1CD0DF
S315080010E005680CFA02F40E882640A64211D196002D
S315080010F007FA06F825EA080503FA06F848EA050590
S31508001100CE78282E02D0482E02D002E0446100E0B4
S315080011100461521C082AE4D305600A88FF2A1ED9EE
S315080011204568002202F108060CFA06F40E882640E5
S31508001130A64210D1960007FA06F825EA080503FA2A
S3150800114006F848EA0505CE78282E00D14461CE78FF
S31508001150482E00D10461521C082AE3D34560BDE835
S31508001160F0810246002092680A4200D001207047AA
S315080011704161704701617047FEE7000010B502F053
S3150800118051FD4FF4A06000F04DFD4FF4E13001F041
S3150800119057FE00F0EBFC00F013F800F075F901F0CB
S315080011A0A3FF05494FF478400880FFF701FE03487E
S315080011B00068BDE810400047000000200C00002031
S315080011C008B50121442000F055FD1820ADF80000AF
S315080011D048208DF8030069460648FFF76FFF01208F
S315080011E0ADF8000028208DF8030069460248FFF78D
S315080011F065FF08BD0018014000080140F0B5054626
S3150800120000240B4F002108467B883A8800F088FBAB
S315080012103E88788846430021084600F061FB00F0C6
S3150800122093FC044901E00D80641CB442FBD3F0BD75
S31508001230840000200008006CF0B400271E49F02244
S315080012402C242A252B264FF4A073002811D0012818
S3150800125017D04FF0010C02281BD0032822D08F711B
S315080012600A804B800C814D818E810020F0BC00F0F5
S31508001270E7BA8F710A804B800C814D818E810020E0
S31508001280F4E78F710A804B800C814D818E81032093
S31508001290ECE781F806C00B804A800C814D818E816F
S315080012A00520E3E781F806C00B804A800C814D8152
S315080012B08E810620DAE70000840000202DE9FE4F23
S315080012C000250026171AA3EB010881468A46681EE0
S315080012D0002F03DD4FF00101019107E003D14FF024
S315080012E00001019102E00190C7F10007B8F1000F73
S315080012F003DD4FF00100009007E003D14FF0000036
S31508001300009002E00090C8F10008474501DD3C4620
S3150800131000E044464FF0000B601C029016E01FFAEE
S315080013208AF11FFA89F00C9A00F088F83D44464481
S31508001330A54202DD2D1B01988144A64202DD361B1B
S31508001340009882440BF1010B1FFA8BFB0298834528
S31508001350E5DDBDE8FE8F000000B500F0C1FA00F03B
S31508001360F3FB024802490088088000BD00000020FF
S315080013700008006C2DE9FF4F82B007468846002416
S3150800138015460320A0EB420653E0A8EB050081B200
S3150800139007EB040A01901FFA8AF0059A00F04EF846
S315080013A0A8EB0400009081B207EB05091FFA89F043
S315080013B0059A00F043F808EB040B1FFA8BF11FFAA5
S315080013C089F0059A00F03AF808EB05091FFA89F141
S315080013D01FFA8AF0059A00F031F81FFA89F1A7EB8F
S315080013E004091FFA89F0059A00F028F8A7EB050A00
S315080013F01FFA8BF11FFA8AF0059A00F01FF8019878
S31508001400059A81B21FFA89F000F018F80098059A33
S3150800141081B21FFA8AF000F011F8641C002E03DA74
S3150800142006EB8406B61D04E0601B06EB80060A364A
S315080014306D1EAC42A9DD06B0BDE8F08F30B5044696
S315080014400D460F4B9888A0F51341413916D1588996
S3150800145000F074FB200A00F06BFBE0B200F068FBBA
S31508001460988900F06BFB280A00F062FBE8B200F0EE
S315080014705FFB044918890880881C028030BD00007B
S3150800148084000020FE07006CF0B59FB00121080219
S3150800149000F0D4FB01214FF4B47000F0EBFB0125FA
S315080014A0ADF8785010278DF87B7003248DF87A40B4
S315080014B01EA9CF48FFF702FE4CF23370ADF878004C
S315080014C018268DF87B608DF87A401EA9C948FFF763
S315080014D0F5FD4FF68070ADF878008DF87B608DF8D5
S315080014E07A401EA9C448FFF7E9FD41F20100ADF8AC
S315080014F078008DF87B608DF87A401EA9BF48FFF703
S31508001500DDFD0895002009900F210A910B900C909B
S315080015100D900E9001900290039404900590069009
S31508001520079006210F91109011901297139015901D
S3150800153014901690179029031891199089001A91FA
S315080015401B9008A81C9001A81D900FA8FFF7E4FAA5
S3150800155001210620FFF7CEFA322002F081FB002097
S3150800156000F064F9A64A90804FF6FF7449F24136B6
S31508001570FF2804D3A04202D0B0F5134F14D1D320CC
S3150800158000F0DCFA00F048F9908000F045F9908008
S3150800159000F042F904EA0020908000F03DF99188B5
S315080015A008439080B0427CD19088B0427AD1CF204F
S315080015B000F0C4FA002000F0BBFAC12000F0B8FA27
S315080015C0302000F0B5FAED2000F0B8FA642000F0FB
S315080015D0AFFA032000F0ACFA122000F0A9FA812035
S315080015E000F0A6FAE82000F0A9FA852000F0A0FA93
S315080015F0102000F09DFA7A2000F09AFACB2000F02D
S315080016009DFA392000F094FA2C2000F091FA002077
S3150800161000F08EFA342000F08BFA022000F088FAE7
S31508001620F72000F08BFA202000F082FAEA2000F07A
S3150800163085FA002000F07CFA002000F079FAC02034
S3150800164000F07CFA1B2000F073FAC12000F076FA4D
S31508001650012000F06DFAC52000F070FA302000F085
S3150800166067FA302000F064FAC72000F067FAB7205E
S3150800167000F05EFA362000F061FA482000F058FAC9
S315080016803A2000F05BFA552000F052FAB12000F03B
S3150800169055FA002000F04CFA1A2000F049FAB62054
S315080016A001E0A3E09AE000F049FA0A2000F040FAC7
S315080016B0A22000F03DFAF22000F040FA002000F0E7
S315080016C037FA262000F03AFA012000F031FAE02035
S315080016D000F034FA0F2000F02BFA2A2000F028FA3E
S315080016E0282000F025FA082000F022FA0E2000F043
S315080016F01FFA082000F01CFA542000F019FAA92055
S3150800170000F016FA432000F013FA0A2000F010FA47
S315080017100F2000F00DFA002000F00AFA002000F071
S3150800172007FA002000F004FA002000F001FAE12090
S3150800173000F004FA002000F0FBF9152000F0F8F993
S31508001740172000F0F5F9072000F0F2F9112000F053
S31508001750EFF9062000F0ECF92B2000F0E9F9562005
S3150800176000F0E6F93C2000F0E3F9052000F0E0F986
S31508001770102000F0DDF90F2000F0DAF93F2000F024
S31508001780D7F93F2000F0D4F90F2000F0D1F92B202B
S3150800179000F0D4F9002000F0CBF9002000F0C8F9D9
S315080017A0012000F0C5F93F2000F0C2F92A2000F018
S315080017B0C5F9002000F0BCF9002000F0B9F90020B6
S315080017C000F0B6F9EF2000F0B3F9112000F0B6F9F1
S315080017D0782002F045FA292000F0B0F90020FFF73A
S315080017E02BFD084805602046FFF708FD1FB0F0BD31
S315080017F0000C01400014014000180140002001407F
S3150800180084000020808121420346012000E05843DD
S31508001810491EC9B2FBD2704708B503480088009034
S31508001820BDF8000008BD00000008006C10B500F007
S3150800183085F9052002F02EFABDE81040FFF7ECBF47
S3150800184010B50021254B9A88A2F51344413C43D193
S31508001850082812D2DFE800F0110406080A0C0E1058
S3150800186080210AE0402108E0C02106E0202104E0AA
S31508001870602102E0A02100E0E02141F008013620C5
S3150800188000F06CF9588900F059F9002000F050F979
S31508001890002000F04DF91888401EC0F30F2000F014
S315080018A047F91878401EC0B200F042F9988900F04E
S315080018B045F9002000F03CF9002000F039F9588875
S315080018C0401EC0F30F2000F033F99878BDE81040A9
S315080018D0401EC0B200F02CB910BD000084000020E4
S315080018E010B502460B460D4CA088A0F513414139A8
S315080018F013D1608900F022F9100A00F019F9D0B264
S3150800190000F016F9A08900F019F9180A00F010F984
S31508001910BDE81040D8B200F00BB910BD8400002015
S3150800192070B504460D46A018401E82B2E818401E3F
S3150800193083B2134EB088A0F5134141391FD170897F
S3150800194000F0FCF8200A00F0F3F8E0B200F0F0F836
S31508001950100A00F0EDF8D0B200F0EAF8B08900F00D
S31508001960EDF8280A00F0E4F8E8B200F0E1F8180A01
S3150800197000F0DEF8BDE87040D8B200F0D9B870BD06
S31508001980840000202DE9F84F82460C461F46A346E0
S31508001990780701D0012000E0002000EBD700790885
S315080019A04843C0B20090203A02F0FF09002648E0FA
S315080019B00C2F13D0102F18D0182F45D1234909EB17
S315080019C0C90001EB8000855D4FF00008280611D597
S315080019D0214650460A9AFFF731FD13E01C4909EBE8
S315080019E0490001EB8000855DEEE71A4800EB091017
S315080019F0855DE9E70B9828B917482146428850467D
S31508001A00FFF71CFD6806050E641CA4B2134840883F
S31508001A10A04219D9A4EB0B00B84209D15C460AF1D9
S31508001A20010A1FFA8AFA0D48008850450CD906E0C3
S31508001A3008F1010808F0FF08B8F1080FC6D3761CAC
S31508001A40F6B200988642B3D3BDE8F88FB4480008CA
S31508001A50503E0008C4420008000000208400002010
S31508001A602DE9FF4F82B08046DDF8409093461D462B
S31508001A70002600240F98A24647081FE0281B401E90
S31508001A80C1B20A20FFF7C0FEBBFBF0F00A21B0FB8B
S31508001A90F1F201FB120026B9691E8C4201DA90B1F7
S31508001AA001263030C2B2CDE9009A07FB048080B225
S31508001AB00F9B0399FFF766FF641CE4B2AC42DDD3C3
S31508001AC006B0BDE8F08FCDE9009A07FB048080B226
S31508001AD020220F9B0399FFF755FFEDE72DE9FC4FF1
S31508001AE00446DDE90B7B0D9E0D4604F0FF08101930
S31508001AF01FFA80F958191FFA80FA12E04C4502D3EA
S31508001B004446E81985B2554510D20020CDE900B003
S31508001B103B4629462046FFF735FF04EB570084B2BB
S31508001B20761C3278A2F120005E28E7D9BDE8FC8F42
S31508001B3001490880704700000008006C01490880C8
S31508001B4070470000FE07006C0248034900890880B8
S31508001B507047000084000020FE07006C024A1080CF
S31508001B60901C018070470000FE07006C38B5012103
S31508001B70482000F07FF82024ADF8004010208DF8AA
S31508001B80030003208DF802000A4D69462846FFF730
S31508001B9095FA20212846FFF7EDFAADF80040064CE5
S31508001BA069462046FFF78AFA20212046FFF7E2FA1F
S31508001BB038BD0000000C014000180140FEE77047E0
S31508001BC070B50F23C27801260178002A1ED0144A60
S31508001BD0126802F4E062C2F5E062120AC2F1040475
S31508001BE0D3404578A54082781A402A43120101F16C
S31508001BF0E02181F80024007800F01F018E4040099A
S31508001C00800000F1E020C0F8006170BD01F01F00FF
S31508001C1086404809800000F1E020C0F8806170BD68
S31508001C200CED00E0024908430249086070470000CD
S31508001C300000FA050CED00E070470000054A00298F
S31508001C4003D051690143516170475169814351611C
S31508001C507047000000100240054A002903D0D169E8
S31508001C600143D1617047D1698143D1617047000052
S31508001C7000100240054A002903D091690143916189
S31508001C8070479169814391617047000000100240D6
S31508001C9010B5264A516801F00C01254B002927D0BA
S31508001CA0042927D0082927D00360516801F0F001DC
S31508001CB00909204B5C5C0168E1404160546804F402
S31508001CC0E064240A1C5D21FA04F48460546804F470
S31508001CD06054E40A1B5DD940C160526802F4404270
S31508001CE0920B144B1B1F9A5CB1FBF2F1016110BDFC
S31508001CF00360DAE70360D8E7516801F470115368A6
S31508001D0003F48033022404EB914133B153689B03F7
S31508001D1007D5094B59430160C7E7074B594301608B
S31508001D20C3E7034B59430160BFE7000000100240B8
S31508001D3000127A004A00002000093D0030B587B03D
S31508001D4001210820FFF796FF01218803FFF784FF8A
S31508001D504FF46044ADF8184018208DF81B00032096
S31508001D608DF81A00184D06A92846FFF7A7F9214647
S31508001D702846FFF7FFF90020ADF804004FF48271FA
S31508001D80ADF80610ADF808000221ADF80A100121D9
S31508001D90ADF80C104902ADF80E103821ADF8101048
S31508001DA0ADF812000720ADF81400084C01A920462A
S31508001DB000F05FF80121204600F044F8FF2000F00B
S31508001DC007F807B030BD0000000C0140003800409D
S31508001DD070B505460024134E05E0641CE4B2C82C11
S31508001DE001D9002070BD0221304600F037F80028DE
S31508001DF0F3D029463546284600F039F8002405E090
S31508001E00641CE4B2C82C01D9002070BD0121284603
S31508001E1000F024F80028F3D0284600F026F8C0B2CF
S31508001E2070BD00000038004001460548028822F0CF
S31508001E303802028002880A430280012100F002B8B3
S31508001E4000380040002904D0018841F04001018093
S31508001E507047018821F04001018070470246002042
S31508001E6012890A4200D00120704780897047818113
S31508001E70704730B5028802F441530A884C88CD88E9
S31508001E8022438C882C4322430C8922434C892243C3
S31508001E908C892243CC8922431A430280828B22F4FE
S31508001EA000628283098A018230BD7047AFF30080E1
S31508001EB00CB50022019200922748016841F480314E
S31508001EC001604FF4A063016801F4003100910199A3
S31508001ED0491C0191009911B901999942F3D10168F8
S31508001EE0890302D50121009100E000920099012999
S31508001EF030D11A490A6842F010020A600A6822F0CC
S31508001F0003020A600A6842F002020A6041684160F8
S31508001F1041684160416841F480614160416821F44B
S31508001F207C114160416841F4E8114160016841F063
S31508001F308071016001688901FCD5416821F00301BF
S31508001F404160416841F0020141604168C1F3810185
S31508001F500229FAD10CBD0000001002400020024000
S31508001F604FF0E021042804D0086920F00400086135
S31508001F707047086940F00400086170477047000020
S31508001F8010B50F48016841F00101016041680D4A2A
S31508001F901140416001680C4A11400160016821F452
S31508001FA080210160416821F4FE0141604FF41F0160
S31508001FB08160FFF77BFF05494FF00060086010BDA0
S31508001FC0001002400000FFF8FFFFF6FE08ED00E0F3
S31508001FD02DE9FF4F87B016ACDDE914ABB0CC8046CF
S31508001FE04FF000091BF1FF4F0AD38BF0004BCDE9E8
S31508001FF0007953462D2240460899FFF7C3FC0FE0A7
S31508002000CDE9007953462B2240460899FFF7BAFCDA
S3150800201006E0052C02D9641EE4B201E06D1EEDB29D
S3150800202060190728F5D85846FEF730FB06463046AD
S31508002030FEF701FB5946FEF7EEF8FEF754FB4B4A4E
S315080020404B4BFEF767F900224A4BFEF70AFAFEF7F2
S3150800205031FB014642F21072B6FBF2F30A20B3FBDB
S31508002060F0FC00FB1C3330338DF814304FF47A73D0
S31508002070B6FBF3FCBCFBF0FB00FB1BCC0CF1300CF5
S315080020808DF815C04FF0640CB6FBFCFBBBFBF0FEED
S3150800209000FB1EBB0BF1300B8DF816B0B6FBF0FB40
S315080020A0BBFBF0FE00FB1EBB0BF1300B8DF817B027
S315080020B0B6FBF0FB00FB1B6630368DF818608DF812
S315080020C01990B1FBF2F2B2FBF0F600FB16223032A1
S315080020D08DF80C20B1FBF3F2B2FBF0F300FB1322F0
S315080020E030328DF80D20B1FBFCF2B2FBF0F300FBA9
S315080020F0132230328DF80E20B1FBF0F2B2FBF0F36A
S3150800210000FB132230328DF80F20B1FBF0F200FBF2
S31508002110121030308DF8100003AE06F80590C4F1A1
S31508002120050005A90844CDE900A7029008A908F109
S3150800213008000EC980B2FFF7D1FC601CCDE9007912
S3150800214008EBC00080B253462E220899FFF71AFC06
S31508002150CDE900A708A90296A41C0EC908EBC4007D
S3150800216080B2FFF7BBFC0BB0BDE8F08FF168E388DF
S31508002170B5F8D43E006AF8402DE9FF4F83B0904683
S31508002180DDE911ABDDF840901F4655484FF4784419
S315080021900480102553A0544ECDE90054029073884C
S315080021A03288A0212820FFF799FC50A0CDE90054D9
S315080021B0029073883288A0217820FFF78FFC4CA004
S315080021C0CDE90054029073883288B4212820FFF79D
S315080021D085FC48A0CDE90054029073883288B42162
S315080021E07820FFF77BFC44A0CDE900540290738861
S315080021F03288C8212820FFF771FC40A0CDE9005499
S31508002200029073883288C8217820FFF767FC3CA0C3
S31508002210CDE90054029073883288DC212820FFF724
S315080022205DFC38A0CDE90054029073883288DC2121
S315080022307820FFF753FC34A0CDE900540290738848
S315080022403288F0212820FFF749FCCDE90054042301
S31508002250A0214020039AFFF703FCCDE9005404238C
S31508002260A0219020049AFFF7FBFBCDE90054042334
S315080022704246B4214020FFF7F3FBCDE9005404237E
S315080022803A46B4219020FFF7EBFBCDE9005404232E
S315080022904A46C8214020FFF7E3FBCDE90054042352
S315080022A05246C8219020FFF7DBFBCDE900540423F2
S315080022B05A46DC214020FFF7D3FBCDE9005404231E
S315080022C0DC219020139AFFF7CBFBCDE900540323BA
S315080022D0F0216020149AFFF7C3FB07B0BDE8F08F22
S315080022E00000002078313A008400002079313A0055
S315080022F078323A0079323A0078333A0079333A003C
S3150800230078343A0079343A006661632069733A0092
S315080023102DE9F04F8BB000260027DFF804841F2034
S31508002320A8F80000FF484FF6FF7505802846FEF717
S3150800233065FF0024A8F80040FB484FF01008282144
S315080023400068CDE9008402906423A0220846FFF7BE
S31508002350C5FB4FF47849F5A08DE80103CDE9035490
S315080023601023F022C8210820FEF73DFEF5A08DE8CF
S315080023700103CDE903541023F022DC210820FEF7DF
S3150800238032FE14214A46084600F016FBDFF8CC93C5
S3150800239089F82040C9F82440DFF8C483D9F8041026
S315080023A00120884799F820000121B1EB901F51D1EF
S315080023B0002720F0400089F8200005A8B9F80C107D
S315080023C020F8261000EB8600B9F816104180761C16
S315080023D0F6B2012E06D0022E14D0032E25D0042ED6
S315080023E038D144E014214FF6FF72084600F0E4FAAB
S315080023F0B8F800004FF47842143880B2142100F07F
S31508002400DBFA27E0B8F800004FF6FF72143880B2FE
S31508002410142100F0D1FAB8F802004FF478421438C3
S3150800242081B2142000F0C8FA14E0B8F802004FF69A
S31508002430FF72143881B2142000F0BEFAB8F8020010
S315080024404FF47842143881B2B8F80000143880B2D4
S3150800245000F0B2FA0A2001F003FC7F1CBFB2B7F500
S315080024607A7F9BD900F0EAFA0BB0BDE8F08FBDF889
S315080024701400BDF81810411A00D54942BDF81600D7
S31508002480BDF81A20801A00D5404249434043084403
S31508002490FEF7D6F801F0B6FCFEF70CF986B2BDF8E1
S315080024A01C00BDF82010401A00D54042BDF81E1089
S315080024B0BDF82220891A00D54942404349430844B9
S315080024C0FEF7BEF801F09EFCFEF7F4F81FFA80FB53
S315080024D05846FEF7B0F804463046FEF7ACF82146F3
S315080024E0FDF7CEFEFEF7FFF804460D46DFF874A2A8
S315080024F04FF06632534620462946FEF707F97DD344
S31508002500994A9A4B20462946FEF718F976D3002EA3
S3150800251074D0BBF1000F71D0BDF81400BDF81C10C3
S31508002520401A00D54042BDF81610BDF81E20891A7B
S3150800253000D54942404349430844FEF781F801F073
S3150800254061FCFEF7B7F884B2BDF81800BDF8201094
S31508002550401A00D54042BDF81A10BDF82220891A43
S3150800256000D54942404349430844FEF769F801F05B
S3150800257049FCFEF79FF880B2FEF75DF8054620464F
S31508002580FEF759F82946FDF77BFEFEF7ACF8044638
S315080025900D464FF06632534620462946FEF7B6F8F2
S315080025A009D3714EDFF8C4B132465B462046294648
S315080025B0FEF7C4F869D20026B8F802004FF6FF7293
S315080025C0143881B2B8F80000143880B200F0F4F973
S315080025D014214FF47842084600F0EEF90022644BC5
S315080025E020462946FDF73DFFFEF764F880B2BDF8A0
S315080025F02220BDF82010BDF81E3000E011E0CDE91C
S315080026000131CDE90320BDF81C000090BDF81A3051
S31508002610BDF81820BDF81610BDF81400FFF7ACFD7C
S31508002620BCE60026B8F802004FF6FF72143881B2ED
S31508002630B8F80000143880B200F0BEF914214FF43F
S315080026407842084600F0B8F90022494B2046294648
S31508002650FDF707FFFEF72EF8BDF82010BDF822207B
S31508002660BDF81E30CDE9013180B2CDE90320BDF8B1
S315080026701C000090BDF81A30BDF81820BDF81610D9
S31508002680BDF81400FFF778FD88E6BDF81800BDF818
S315080026901C10401A00D54042BDF81A10BDF81E207D
S315080026A0891A00D54942404349430844FDF7C8FF03
S315080026B001F0A8FBFDF7FEFF84B2BDF81400BDF8D3
S315080026C02010401A00D54042BDF81610BDF8222049
S315080026D0891A00D54942404349430844FDF7B0FFEB
S315080026E001F090FBFDF7E6FF80B2FDF7A4FF054673
S315080026F02046FDF7A0FF2946FDF7C2FDFDF7F3FFCB
S3150800270004460D464FF06632534620462946FDF7E5
S31508002710FDFF32D332465B46204629462AE00000B2
S31508002720000000200200002010560008D0A3D7BCE5
S31508002730A3BAD2C0B4CEB5E3CBC4BDC7B5C4B5E35E
S3150800274000000000202020202020BDF8D0D0B4A50D
S31508002750C3FEC6C1D0A3D7BC000000000C000020F1
S31508002760840000206666EE3FCDCCCCCCCCCCF03FC6
S3150800277000005940FDF7E2FF33D20026B8F8020000
S315080027804FF6FF72143881B2B8F80000143880B2D8
S3150800279000F012F914214FF47842084600F00CF9BB
S315080027A00022714B20462946FDF75BFEFDF782FFA6
S315080027B0BDF82030BDF82210BDF81E2080B2CDE944
S315080027C00123CDE90310BDF81C000090BDF81A30AE
S315080027D0BDF81820BDF81610BDF81400FFF7CCFC9C
S315080027E0DCE5BDF81850BDF81460A81BFDF71AFF04
S315080027F0B8F800408246A4F12800FDF713FF5146B9
S31508002800FDF73EFD8246C9F82400A819FDF713FF17
S315080028105146FDF703FD05462046FDF70CFF294600
S31508002820FDF7F6FC4FF0FF31FDF768FDC9F82C00FF
S31508002830BDF81EB0BDF816000A90ABEB0000FDF718
S31508002840F1FEB8F802500646A5F12800FDF7EAFEA3
S315080028503146FDF715FDC9F82800064609900A987D
S315080028605844FDF7E8FE3146FDF7D8FC06462846EB
S31508002870FDF7E1FE3146FDF7CBFC4FF0FF31FDF7E2
S315080028803DFDC9F830005046FDF7E7FE002800DA9E
S315080028904042022807DC0998FDF7DFFE002800DA27
S315080028A04042022831DD0026143D143CA9B2A0B2EC
S315080028B04FF6FF7200F080F84FF478441421224650
S315080028C0084600F079F829A1CDE9014110200090C9
S315080028D0B8F80230B8F800201A212820FFF7FEF8C9
S315080028E099F8340048B1002089F8340038B12449F1
S315080028F090200870D020487050E50120F4E7204861
S31508002900D02101709021417048E51E491F2008809A
S315080029104FF6FF742046FEF771FC4FF478451026F3
S3150800292019A0CDE900650290B8F80230B8F8002081
S315080029306E212020FFF7D2F8CDE901650021CDE907
S31508002940034117A000901023F02282212020FEF7D1
S315080029504AFB4FF47A7001F083F900F0CDF920466E
S31508002960FEF74CFC80E50000000059405450204E0C
S3150800297065656420726561646A7573742100000078
S315080029800400002000000020546F7563682053631C
S315080029907265656E2041646A757374204F4B210019
S315080029A0B4A5C3FEC6C1D0A3D7BCCDEAB3C9A3ACF0
S315080029B04F4BA3A1A3A100002DE9F84304460D46F9
S315080029C016461D48068004F10D0082B2193880B2F9
S315080029D02B4629460096FEF771FC05F10D0083B2D9
S315080029E0193881B2224620460096FEF767FC681C15
S315080029F0804681B2601C074680B2FEF7ADFC1FFA1E
S31508002A0088F1601E804680B2FEF7A6FC681E8146E5
S31508002A1081B2B8B2FEF7A0FC1FFA89F11FFA88F056
S31508002A20FEF79AFC01B0334629462046BDE8F04336
S31508002A300622FEF79FBC00000000002070B586B095
S31508002A4018220021684600F07BFB9DF811009DF8CE
S31508002A5012100A2900D110B1002006B070BD124D1F
S31508002A6000986860FDF7DEFD104E3146FDF708FC5C
S31508002A7005F1080460620198FDF7D4FD3146FDF7BB
S31508002A80FFFBA0620298FDF7CDFDE062039868603F
S31508002A90FDF7C8FD2063002084F83400D020287094
S31508002AA0902068700120D8E70400002020BCBE4CA6
S31508002AB0F8B501218820FFF7DDF80220ADF80000FF
S31508002AC010278DF8037003248DF80240234E6946BB
S31508002AD03046FEF7F3FA02213046FEF74BFB042197
S31508002AE0ADF8001048258DF8035069463046FEF7C4
S31508002AF0E5FA4FF42066ADF800608DF803708DF89E
S31508002B000240174C69462046FEF7D8FA3146204659
S31508002B10FEF730FB2115ADF800108DF80350694615
S31508002B202046FEF7CBFA0F49A1F10A000C460546E6
S31508002B3000F08AF82146284600F086F8FFF77EFF5F
S31508002B4008B10020F8BD4FF6FF70FEF757FBFFF7F8
S31508002B50DFFBFFF773FF0120F8BD0000000C014002
S31508002B60001C0140220000202DE9F0470025002422
S31508002B701A4EA046C6F88481DFF86490C9F8A48185
S31508002B80C9F8AC8100F038F9062001F083F8C6F8D8
S31508002B908481012001F07EF80127C6F8847101209E
S31508002BA001F078F8C6F884814FF6FF7A0AEA4404F9
S31508002BB0C6F88481012001F06DF8C6F88471D6F84C
S31508002BC0080108B1641CA4B26D1CEDB2102DEDD33A
S31508002BD02009C9F8AC71BDE8F087000000802142E1
S31508002BE000802342FEB5064600246D463046FFF7B0
S31508002BF0BBFF25F81400641CA4B2052CF6D30021EB
S31508002C00481C044680B20BE035F8113035F8102020
S31508002C10934203D925F8112025F81030401C80B2BC
S31508002C200528F1D3A1B20429EAD30021012035F8F9
S31508002C301020114489B2401C80B20428F7D303201F
S31508002C40B1FBF0F0FEBD00002DE9F04104460F4649
S31508002C50064D2878FFF7C6FF06466878FFF7C2FFD5
S31508002C60268038800120BDE8F0810000040000209D
S31508002C702DE9FF4106460F4602A903A8FFF7E4FF20
S31508002C8088B3694601A8FFF7DFFF68B3BDF80420DB
S31508002C90BDF80C309A4203D802F13200834205D3BC
S31508002CA0934226D803F13200824222D2BDF8005060
S31508002CB0BDF80840A54203D805F13200844204D382
S31508002CC0AC4216D83234A54213D298184008308040
S31508002CD0BDF80800BDF800100844400838800120F7
S31508002CE004B0BDE8F08100E001E00020F8E700202C
S31508002CF0F6E70020F4E7000070B586B0144C154ED0
S31508002D003146606AFDF78AFAFDF7A7FC251F286099
S31508002D1000903146A06AFDF781FAFDF79EFC019006
S31508002D20E06AFDF79AFC0290206BFDF796FC286096
S31508002D300390002084F834008DF811000A208DF8DD
S31508002D40120018220021684600F056FA06B070BD37
S31508002D500C00002020BCBE4C10B525490968254C3E
S31508002D60002908D094F82000010635D520F0800007
S31508002D7084F8200037E002001E4800F1160100F131
S31508002D800C0002D0FFF774FF1AE0FFF771FFB8B125
S31508002D90A089FDF750FC616AFDF740FAE16AFDF784
S31508002DA0E5F9FDF773FCA081E08AFDF744FCA16A0A
S31508002DB0FDF734FA216BFDF7D9F9FDF767FCE082D8
S31508002DC094F8200000060ED4C02084F82000A089BC
S31508002DD0A082E08AE08306E00020A082E0834FF626
S31508002DE0FF70A081E08294F8200000F0800010BDFA
S31508002DF0288123420C0000202DE9F04705460024CF
S31508002E00DFF834800D4E00274FF00109280602D559
S31508002E10C8F8A49101E0C8F8A4716806050EC6F8BA
S31508002E208471012000F036FFC6F88491641CE4B270
S31508002E30082CEBD3BDE8F0870080234200802142AE
S31508002E4070B586B00546012144F20400FEF712FF6C
S31508002E504FF40070ADF8140003248DF816401821BD
S31508002E608DF817101C4E05A93046FEF727F93115BF
S31508002E70ADF8141004218DF8171005A93046FEF791
S31508002E801DF925208DF800008DF801408DF80240C7
S31508002E9001208DF803006846FEF792FE0195002092
S31508002EA0ADF80800ADF80A00ADF80C00ADF8100052
S31508002EB00C20ADF80E00094C01A9204600F08CF84C
S31508002EC0012240F22551204600F06AF801212046E9
S31508002ED000F03AF806B070BD00080140003801401D
S31508002EE070B5164C40F22551204600F039F80028F6
S31508002EF00ED0204600F0CEF8C1B2114A108803045D
S31508002F0006D444044FF0000307D50A2901D01380DC
S31508002F1070BD40F40040108070BD0D290AD0094DDF
S31508002F20C0F30D042955401C80B21080C728F3D978
S31508002F30138070BD40F48040108070BD0038014099
S31508002F405E00002092100020002904D0818941F4F7
S31508002F50005181817047818921F400518181704730
S31508002F6070B5002440F66A12C1F3421301F01F053A
S31508002F70012606FA05F2012B0CD0022B0DD0838A06
S31508002F801340090A8E40008830400BB100B1012475
S31508002F90204670BD83891340F3E7038A1340F0E7A0
S31508002FA010B540F66A13C1F3421301F01F0401215C
S31508002FB0A140012B07D0022B07D014303AB1026882
S31508002FC00A43026010BD0C30F8E71030F6E70268D5
S31508002FD08A43026010BD000030B585B004460D4630
S31508002FE0208A4CF6FF710840E98801432182A089AE
S31508002FF04EF6F3110840A9882A8911436A890243C3
S315080030001143A181A08A4FF6FF410840A9890143CF
S31508003010A1826846FEF73CFE1D48844201D103980A
S3150800302000E00298A189090408D500EBC00101EB6C
S31508003030001029684900B0FBF1F007E000EBC00179
S3150800304001EB001029688900B0FBF1F06422B0FB9F
S31508003050F2F109010B096FF018056B4300EB8300C9
S31508003060A3891D044FF0320307D503EBC000B0FB5C
S31508003070F2F000F00700084306E003EB0010B0FB8F
S31508003080F2F000F00F000843208105B030BD0000C3
S31508003090003801408088C0F308007047FEE700004A
S315080030A070B5040300F0FAF800F0A0F80D4D002002
S315080030B028602020FEF78CFEC4F30740FEF788FE42
S315080030C0C4F30720FEF784FEE0B2FEF781FE012076
S315080030D028604FF4C87000F0C3FDBDE8704000F0EA
S315080030E085B80000B081214238B501210820FEF7D5
S315080030F0C1FD4FF48054ADF8004010208DF8030050
S3150800310003208DF802000B4D69462846FDF7D6FFC9
S3150800311021462846FEF72EF8074901200860FEF7E3
S315080031200DFE0020FEF780FE00F032F80349088005
S3150800313038BD0000000C0140B08121424400002047
S315080031402DE9F04105460C461646104F0020C7F8F3
S31508003150B0010320FEF73CFEC4F30740FEF738FE35
S31508003160C4F30720FEF734FEE0B2FEF731FE002472
S3150800317005E0FF20FEF72CFE2855641CA4B2B442D5
S31508003180F7D30120C7F8B001BDE8F08100802142DD
S3150800319070B50D4D00242C609020FEF719FE002016
S315080031A0FEF716FE0020FEF713FE0020FEF710FEBF
S315080031B0FF20FEF70DFE44EA0024FF20FEF708FE76
S315080031C020430121296070BDB081214210B5064C0B
S315080031D0002020600520FEF7FBFDFF20FEF7F8FD26
S315080031E00121216010BD0000B081214210B5FFF712
S315080031F0EDFFC007FBD110BD2DE9F05F80468A467A
S315080032001546DFF894904FEA1A37CAF30B06C6F547
S315080032108054A54233D82C4631E0311819F80110EC
S31508003220FF2903D1401C80B2A042F6D3A04214D293
S315080032303846FFF735FF002006E0821918F8001017
S3150800324009F80210401C80B2A042F6D359464FF442
S315080032508052484600F02EF804E022465146404681
S3150800326000F028F8A54214D07F1C0026A044A244EA
S31508003270281B85B24FF48054A54200D82C464FEA45
S31508003280073B4FF4805259464846FFF759FF00203E
S31508003290CAE7BDE8F09F00009200002010B5044C74
S315080032A0002020600620FEF793FD0120206010BD57
S315080032B0B08121422DE9F04107460E461546F0B287
S315080032C0C0F58074A54200D82C464FF4807807E0F4
S315080032D027442644281B85B24446A54200D82C46D6
S315080032E022463146384600F005F8A542F0D1BDE839
S315080032F0F08100002DE9F04105460C461646FFF719
S31508003300CDFF114F0020C7F8B0010220FEF760FD7F
S31508003310C4F30740FEF75CFDC4F30720FEF758FD2B
S31508003320E0B2FEF755FD002404E0285DFEF750FDE7
S31508003330641CA4B2B442F8D30120C7F8B001BDE8B2
S31508003340F041FFF753BF0000008021420FB4054B40
S3150800335010B503A9044A029800F0E0F810BC5DF81D
S3150800336014FB0000C93C00086000002002E008C801
S31508003370121F08C1002AFAD170477047002001E0E1
S3150800338001C1121F002AFBD17047000001490860DD
S3150800339070470000800000202DE9FF5F82B0002101
S315080033A0DDE90430020DDDF840B0034318D044F6D9
S315080033B01050A2F2FF3242431514119801281FD06B
S315080033C0A5EB0B00401C5FEA000A4FF000064E4FC3
S315080033D0DFF83891B046504615D5CAF1000413E017
S315080033E0119801244AA3012801D16FEA0B0102981A
S315080033F0119AC0E90031C0E9024206B0BDE8F09F63
S31508003400CBF10000DFE704460021404A491842EBA9
S315080034100450CDE9001012E0E00707D032463B46DB
S3150800342040464946FDF71DF88046894632463B46E2
S3150800343010461946FDF715F806460F466410002C87
S31508003440EAD1DDE90401DDE90023BAF1000F06DA65
S31508003450FDF707F842464B46FDF703F805E0FDF78A
S3150800346072F842464B46FDF76EF804460E460022B1
S31508003470284BFDF763F903D84FF0FF30014607E004
S315080034800022254B20463146FCF744FFFDF7E7FAB4
S31508003490102409E0002C0ADB0A220023FDF798F91C
S315080034A0039B30321A55641E50EA0102F2D1641C9D
S315080034B0039AC4F111031444119A012A03D0012274
S315080034C008430DD10AE0084304D000204FF0110B41
S315080034D0119072E7A3EB0B056D1E0DE05B4504DD4D
S315080034E04FF0000205F1010504E003DA4FF000028F
S315080034F0A5F10105002AECD002981199C0E902311C
S31508003500C0E9004579E70000000014400000F03FDC
S31508003510300000000000F0430000E03F2DE9FF4FB7
S3150800352095B09A46884606460025EEE1252877D1C5
S3150800353000242746F94A0121039400E0044316F8BB
S31508003540013F203B01FA03F01042F7D130782A28D0
S3150800355011D06FF02F033078A0F13002092A16D85F
S31508003560039A44F0020402EB820203EB420210447F
S31508003570761C0390EFE758F8042B0392002A03DA27
S31508003580504244F40054039044F00204761C307808
S315080035902E2816D116F8010F44F004042A280DD057
S315080035A06FF02F023078A0F13003092B09D807EB0A
S315080035B0870302EB4303C718761CF3E758F8047B26
S315080035C0761C30786C280FD006DC4C2817D0682873
S315080035D00DD06A2814D104E0742810D07A280FD1A7
S315080035E00DE044F400140AE044F4801401E044F4C5
S315080035F040147278824202D104F58014761C761C37
S31508003600307866280BD013DC582877D009DC0028D8
S3150800361075D04528F6D04628F4D047281AD193E124
S3150800362018E0632835D0642879D0652812D18BE153
S31508003630702873D008DC6728F1D069286FD06E2807
S315080036400DD06F2806D1ACE073282CD0752874D01D
S31508003650782853D05246179990476D1C54E1C4F305
S315080036600250022809D003280DD0D8F800100428E3
S315080036700DD00D6008F1040846E1D8F80010EA17E5
S31508003680C1E90052F6E7D8F800100D80F2E70D7090
S31508003690F0E718F8041B8DF8001000208DF80100DB
S315080036A0EB46012003E058F804BB4FF0FF306107F2
S315080036B04FF0000102D40DE009F101018946B94233
S315080036C00FDA8145F8DB1BF809100029F4D108E068
S315080036D009F1010189468142FADB1BF80910002924
S315080036E0F6D103985346A0EB090721463846179AA0
S315080036F000F080FA284400EB090507E044E008E1F9
S315080037000DE01BF8010B524617999047B9F10109CC
S31508003710F7D2534621463846179AF2E039E00A218D
S31508003720C4F302524FF0000B0091022A06D058F853
S31508003730040BC117032A09D00AE023E008F10700A1
S3150800374020F00702F2E80201904605E000B2C11730
S31508003750042A01D140B2C117002906DA0A46002117
S31508003760404261EB02012D2202E0220504D52B22FC
S315080037708DF80420012203E0E20701D02022F7E7B2
S31508003780914657E00A2100E010214FF0000B009106
S315080037900BE010214FF0000B44F0040408270091B9
S315080037A003E008204FF0000B0090C4F30252022AEF
S315080037B005D058F8040B0021032A08D008E008F1C0
S315080037C0070020F00702F2E80201904603E080B203
S315080037D0042A00D1C0B24FF0000922072AD5327850
S315080037E0702A07D0DDF800C08CF0100C5CEA0B0CD0
S315080037F005D00EE040228DF80420012208E050EAA8
S31508003800010306D030238DF804308DF805200222F6
S315080038109146009B83F0080353EA0B030AD150EA4A
S31508003820010201D1620705D530228DF804204FF038
S3150800383001097F1E3278582A04D039A20C920CAAA4
S3150800384002920BE03BA2F9E75B46009AFCF7C0FF41
S315080038500C9B9B5C029A521E0292137050EA01025C
S31508003860F2D1029804A9081A00F1200B600702D5C4
S3150800387024F4803400E001275F4502DDA7EB0B0046
S3150800388000E0002000EB0B01009003984944401A21
S315080038900390E00306D453462146179A039800F08E
S315080038A0A9F90544002706E001A85246C05D179904
S315080038B090476D1C7F1C4F45F6DBE0030CD553463D
S315080038C02146179A039800F095F9054404E030203C
S315080038D05246179990476D1C0099481E009000297A
S315080038E0F5DC08E00298029952460078491C0291D4
S315080038F0179990476D1CBBF10001ABF1010BF1DC88
S315080039005BE100F065F90544761C307800287FF401
S315080039100DAE19B02846BDE8F08F00000928010051
S315080039203031323334353637383961626364656627
S3150800393000000000303132333435363738394142E9
S315080039404344454600000000600700D4062708F1F6
S31508003950070020F00700F0E80223804603F0004C39
S315080039605FEA0C0001D097A009E0200501D596A0D2
S3150800397005E0E00701D095A001E0AFF24C001390F6
S31508003980307823F0004365280CD006DC452809D09A
S3150800399046281DD047287FD13BE0662818D06728DF
S315080039A07AD136E00021112F01DB112000E0781CC6
S315080039B0CDE9000104A90CA8FFF7EEFCDDE90D012D
S315080039C00C9A4FF0000B07F10109109200914EE096
S315080039D04FF000400097CDE9011004A90CA8FFF7A5
S315080039E0DBFCDDE90D020C9B0F994FF0000B9146AD
S315080039F01093009211B9791C00EB0109B7EB090085
S31508003A0003D4C0F1FF3B07F10109A9EB07000190B8
S31508003A1042E0012F00DA01270021112F01DD1120D4
S31508003A2000E03846CDE9000104A90CA8FFF7B4FC6C
S31508003A30DDE90D010C9A00914FF0000BB946109282
S31508003A4021070FD4009A4A4503DA914601E0A9F105
S31508003A500109B9F1010F05DD109AA9F10101515CBF
S31508003A603029F4D0B84202DA10F1040F03DA012142
S31508003A70CDE9011010E0002803DC8344A9EB00011E
S31508003A8002E0411C494500DD8946A0EB0B00401CBD
S31508003A9001904FF000400290200705D40198484550
S31508003AA002DB4FF0FF30019000208DF84B000298A2
S31508003AB00DF14B07B0F1004F25D002200C902B20BA
S31508003AC00D90029800280CDA404202902D200D90A5
S31508003AD007E00A210298FCF765FE3031029007F8E4
S31508003AE0011D0C99481E0C900029F2DC029800284A
S31508003AF0EFD1791E0D980870307800F0200040F05C
S31508003B00450007F8020D11A8C01BC01D02901398A6
S31508003B10007800B1012000EB0901019801EBE07182
S31508003B20029801440398401A401E0390E00306D405
S31508003B3053462146179A039800F05CF805441398F3
S31508003B40007818B15246179990476D1CE00323D5A3
S31508003B5053462146179A039800F04CF805441BE093
S31508003B60BBF1000F07DB0098584504DD109817993C
S31508003B7010F80B0001E0179930205246904701983B
S31508003B800BF1010B401E05F10105019004D12E2011
S31508003B905246179990476D1CB9F10001A9F1010920
S31508003BA0DEDC05E017F8010B5246179990476D1CA5
S31508003BB00299481E02900029F4DC53462146179ABA
S31508003BC003989EE62D0000002B0000002000000050
S31508003BD02DE9F041044600251E461746880404D4FC
S31508003BE005E039462020B0476D1C641EF9D52846E5
S31508003BF0BDE8F0812DE9F041044600251E469046B1
S31508003C00C80301D5302700E02027880404D505E03D
S31508003C1041463846B0476D1C641EF9D52846BDE8AE
S31508003C20F081000010B56FF00400FEF799F9094815
S31508003C3009490068B0FBF1F00849C0B2087000EB0A
S31508003C404002C2EBC0104FF6FF7202EAC00048807D
S31508003C5010BD00006C00002000127A005A000020F7
S31508003C600B49498848434FF0E021486100238B619E
S31508003C70086940F0010008610869C20701D0C0035D
S31508003C80FAD5086920F0010008618B6170470000C9
S31508003C905A0000200B49097848434FF0E021486153
S31508003CA000238B61086940F0010008610869C207B2
S31508003CB001D0C003FAD5086920F0010008618B61BC
S31508003CC0704700005A00002004490A885206FCD5AD
S31508003CD0024AC1B2121D1180704700000038014027
S31508003CE086B0FDF74BFA4FF6FF70FDF787FA354FAA
S31508003CF0334838603448786034A018241F25029069
S31508003D002346C8221421CDE900450A20FDF7E6FE20
S31508003D1031A002901823C8223221CDE900450A2095
S31508003D20FDF7DCFEDFF8BCA04FF478494FF0010B35
S31508003D3000263868FCF7D7FC544600222346FCF7D1
S31508003D40E9FAFCF713FD804638607868FCF7CBFC87
S31508003D5000222346FCF7DEFAFCF708FD7860FCF73C
S31508003D60C2FC04460D464046FCF7BDFC02460B461F
S31508003D701DA0CDE90045FFF7E9FA4FF4FA70FFF701
S31508003D806FFF3868CDE903B91025CDE90050022444
S31508003D90C8231A46142102948C20FEF719F978686C
S31508003DA0CDE903B9CDE90050C8231A463221029459
S31508003DB08C20FEF70DF9761CF6B2322EB9D3B7E78A
S31508003DC000000C4264000020000058424148545F3D
S31508003DD054656D703A0000004148545F48756D3A65
S31508003DE0000000000000E03F74656D703D20252E40
S31508003DF031662068756D693D20252E3166200D20B7
S31508003E000A0000002DE9F04106460F46FCF7D6FDEC
S31508003E10041E0D4618BF0120284320F00040C0F1BB
S31508003E207F6000F1E040C00F0ED0301C18BF0120A3
S31508003E30384320F00040C0F17F6000F1E040C00F39
S31508003E4004BF0120FFF7A2FA20462946BDE8F08103
S31508003E500000000000000000000000000000000054
S31508003E603F40000000000000000030004000300025
S31508003E704000000009000BC03D000BC03D000900D2
S31508003E8018C024407FE0224031800000180024C07A
S31508003E901B000D803240018003801C4027401C8097
S31508003EA0074000401000600000000000000000000D
S31508003EB00000000000001F80204040200000402035
S31508003EC020401F8000000000090006001F80060031
S31508003ED009000000040004003F80040004000000FC
S31508003EE0001000600000000000000000040004004C
S31508003EF00400040004000000000000400000000068
S31508003F0000000000002001C0060038004000000044
S31508003F101F802040204020401F80000000001040E5
S31508003F203FC000400000000018C021402240244045
S31508003F301840000010802040244024401B800000C8
S31508003F4002000D0011003FC0014000003C802440E3
S31508003F5024402440238000001F802440244034400D
S31508003F60038000003000200027C038002000000031
S31508003F701B802440244024401B8000001C0022C0D3
S31508003F80224022401F800000000000000840000078
S31508003F9000000000000000000460000000000000AF
S31508003FA0000004000A0011002080404009000900B2
S31508003FB009000900090000000000404020801100A7
S31508003FC00A000400180020002340240018000000FE
S31508003FD01F802040274029401F400000004007C09E
S31508003FE039000F0001C0004020403FC02440244053
S31508003FF01B8000001F8020402040204030800000A9
S3150800400020403FC0204020401F80000020403FC085
S3150800401024402E4030C0000020403FC024402E00DF
S31508004020300000000F00108020402240338002003C
S3150800403020403FC0040004003FC0204020402040EC
S315080040403FC02040204000000060202020203FC0C4
S315080040502000200020403FC024400B0030C02040F4
S3150800406020403FC020400040004000C03FC03C0008
S3150800407003C03C003FC0000020403FC00C40230066
S315080040803FC020001F802040204020401F800000A5
S3150800409020403FC024402400180000001F80214013
S315080040A0214020E01FA0000020403FC024402600F9
S315080040B019C0004018C02440244022403180000026
S315080040C0300020403FC020403000000020003F80E4
S315080040D0004000403F80200020003E0001C007004D
S315080040E038002000380007C03C0007C03800000030
S315080040F0204039C0060039C0204000002000384062
S3150800410007C0384020000000304021C02640384013
S3150800411020C00000000000007FE040204020000092
S31508004120000070000C0003800040000000004020E2
S3150800413040207FE000000000000020004000200032
S315080041400000000000100010001000100010001001
S31508004150000000004000000000000000000002808F
S315080041600540054003C0004020003FC0044004400D
S31508004170038000000000038004400440064000005D
S3150800418000000380044024403FC000400000038034
S315080041900540054003400000000004401FC02440BD
S315080041A024402000000002E0055005500650042077
S315080041B020403FC00440040003C000400000044003
S315080041C027C000400000000000100010041027E07F
S315080041D00000000020403FC00140070004C0044022
S315080041E0204020403FC000400040000007C00400B7
S315080041F007C0040003C00000044007C004400400D0
S3150800420003C000400000038004400440038000000F
S31508004210041007F0045004400380000000000380E7
S315080042200440045007F00010044007C00240040090
S3150800423004000000000006400540054004C00000D8
S31508004240000004001F8004400040000004000780AE
S315080042500040044007C000400400070004C0018075
S3150800426006000400060001C0070001C006000000A1
S31508004270044006C0010006C00440000004100710F0
S3150800428004E00180060004000000044005C0064062
S31508004290044000000000000004007BE0402000000D
S315080042A0000000000000FFF00000000000004020B1
S315080042B07BE0040000000000400080004000200071
S315080042C02000400000000000000000000000000080
S315080042D0000000000000000000001FCC000C0000D9
S315080042E000000000000008003000600008003000F0
S315080042F060000000022003FC1E20022003FC1E2092
S315080043000220000000000E1811043FFF10840C78EC
S31508004310000000000F0010840F3800C007781884CA
S315080043200078000000780F8410C411240E9800E469
S315080043300084000808006800700000000000000003
S315080043400000000000000000000007E01818200424
S3150800435040020000000040022004181807E0000090
S31508004360000000000240024001800FF00180024078
S31508004370024000000080008000800FF80080008066
S31508004380008000000001000D000E00000000000083
S31508004390000000000000008000800080008000808F
S315080043A0008000800000000C000C000000000000E7
S315080043B000000000000000060018006001800600EA
S315080043C018002000000007F0080810041004080868
S315080043D007F000000000080408041FFC000400049D
S315080043E00000000000000E0C101410241044118464
S315080043F00E0C000000000C18100411041104128899
S315080044000C700000000000E00320042408241FFCB0
S315080044100024000000001F9810841104110410885D
S3150800442010700000000007F00888110411041888AD
S315080044300070000000001C00100010FC13001C0097
S315080044401000000000000E38114410841084114436
S315080044500E38000000000700088C10441044088835
S3150800446007F00000000000000000030C030C000029
S315080044700000000000000000000101060000000026
S315080044800000000000000080014002200410080817
S31508004490100400000220022002200220022002202E
S315080044A00220000000001004080804100220014041
S315080044B00080000000000E001200100C106C108026
S315080044C00F00000003E00C1813E4142417C408288E
S315080044D007D000000004003C03C41C40074000E469
S315080044E0001C000410041FFC1104110411040E889A
S315080044F00070000003E00C181004100410041008E3
S315080045001C10000010041FFC1004100410040808F6
S3150800451007F0000010041FFC1104110417C410044E
S315080045200818000010041FFC1104110017C0100021
S315080045300800000003E00C181004100410441C784E
S315080045400040000010041FFC1084008000801084C6
S315080045501FFC10040000100410041FFC10041004B3
S315080045600000000000030001100110011FFE1000EA
S315080045701000000010041FFC110403801464181CAA
S315080045801004000010041FFC1004000400040004BA
S31508004590000C000010041FFC1F0000FC1F001FFC7D
S315080045A01004000010041FFC0C04030000E010189F
S315080045B01FFC100007F0080810041004100408086F
S315080045C007F0000010041FFC108410801080108073
S315080045D00F00000007F0081810241024101C080A01
S315080045E007F2000010041FFC1104110011C011305D
S315080045F00E0C000400000E1C1104108410841044D4
S315080046001C3800001800100010041FFC10041000CD
S315080046101800000010001FF810040004000410041D
S315080046201FF8100010001E0011E0001C0070138017
S315080046301C0010001FC0103C00E01F0000E0103CEA
S315080046401FC000001004180C163401C001C016342F
S31508004650180C100410001C00130400FC13041C00A2
S31508004660100000000804101C1064108413041C04B5
S31508004670101800000000000000007FFE4002400203
S3150800468040020000000030000C0003800060001C9F
S315080046900003000000004002400240027FFE0000C6
S315080046A0000000000000000020004000400040001C
S315080046B020000000000100010001000100010001C6
S315080046C0000100010000400040002000000000003A
S315080046D00000000000000098012401440144014440
S315080046E000FC000410001FFC008801040104008877
S315080046F00070000000000070008801040104010435
S3150800470000880000000000700088010401041108F8
S315080047101FFC0004000000F8014401440144014460
S3150800472000C800000000010401040FFC1104110474
S3150800473011001800000000D601290129012901C924
S315080047400106000010041FFC00840100010001049A
S3150800475000FC000400000104190419FC000400040C
S31508004760000000000000000300010101190119FE04
S315080047700000000010041FFC0024004001B4010CD6
S31508004780010400000000100410041FFC00040004CB
S3150800479000000000010401FC0104010001FC010401
S315080047A0010000FC010401FC008401000100010471
S315080047B000FC0004000000F80104010401040104DF
S315080047C000F80000010101FF0085010401040088CA
S315080047D00070000000000070008801040104010553
S315080047E001FF00010104010401FC00840104010029
S315080047F001800000000000CC0124012401240124CA
S315080048000198000000000100010007F801040104F6
S3150800481000000000010001F800040004000401087B
S3150800482001FC0004010001800170000C0010016009
S315080048300180010001F0010C003001C00030010CBC
S3150800484001F0010000000104018C00740170018C64
S3150800485001040000010101810171000E00180160C8
S315080048600180010000000184010C01340144018427
S31508004870010C0000000000000000000001003EFCE2
S31508004880400240020000000000000000FFFF000098
S31508004890000000000000400240023EFC010000004B
S315080048A0000000000000600080008000400040001A
S315080048B020002000000000000000000000000000AA
S315080048C000000000000000000000000000000000DA
S315080048D000000000000000000000000000000000CA
S315080048E0000000000000000F80380FFE380F8038E7
S315080048F000000000000000000000000000000000AA
S3150800490000000100000600000C000038000031001D
S31508004910000600000C00003800003000000000000F
S315080049200000000061800067F807F98000618000D8
S3150800493061800061800061800067F807F980006186
S315080049408000000000000000000001C0E003E0F065
S315080049500630080418081FFFFE040E080787F00330
S3150800496081E000000000000001F000060C000404CD
S3150800497008060C7001F9C0000E00003BE000EC18B8
S31508004980070808040C180003E00000000001E00016
S3150800499007F003F818041C0804170807E1D003C039
S315080049A0E00023B0003C08002008000010000000CA
S315080049B00000000100003100003200001C00000069
S315080049C000000000000000000000000000000000D9
S315080049D000000000000000000000000000000000C9
S315080049E0000000007F0001FFC00780F00C001810CF
S315080049F00004200002000000000000200002100051
S31508004A00040C00180780F001FFC0007F00000000BA
S31508004A100000000000000000000000000000000088
S31508004A204200006600006600003C0000180003FF14
S31508004A30C0001800003C0000660000660000420046
S31508004A400000000008000008000008000008000038
S31508004A50080001FFC0000800000800000800000860
S31508004A6000000800000000000001000031000032CC
S31508004A7000001C000000000000000000000000000C
S31508004A800000000000000000000000000800000808
S31508004A9000000800000800000800000800000800E0
S31508004AA000080000080000080000000000000000E0
S31508004AB00000000038000038000038000000000040
S31508004AC000000000000000000000000000000000D8
S31508004AD000000000000600001C00007000018000B5
S31508004AE00E0000380000C0000700001C000030005F
S31508004AF000000000000000007F8001FFE0038070D6
S31508004B00060018040008040008060018038070014F
S31508004B10FFE0007F800000000000000000000100A8
S31508004B200801000801000803FFF807FFF80000085D
S31508004B300000080000080000000000000000000156
S31508004B40C03802C058040098040118040218040466
S31508004B5018061C1803F81801E0F800000000000009
S31508004B6000000001C0E003C0F004000804080804BF
S31508004B70080806180803F41801E7F00001E0000029
S31508004B8000000000000000000300000D00001100F6
S31508004B9000610000810803010807FFF80FFFF8000D
S31508004BA001080001080000000000000000E007FC02
S31508004BB0D006080806100806100806100806183851
S31508004BC0060FF00607C00000000000000000000005
S31508004BD03F8001FFE003843002081804100804101F
S31508004BE008041008071810030FF00007C00000009B
S31508004BF000000000000003C00007000006000006D1
S31508004C0000F80607F806180006E000070000060088
S31508004C100000000000000001E1E003F7F006341090
S31508004C20041808041808040C08040C0806161803C7
S31508004C30F3F001C1E000000000000000F80003FCEA
S31508004C4030030638040208040208040208040410A3
S31508004C500308F001FFC0007F00000000000000000C
S31508004C60000000000000000000000000703800701E
S31508004C703800703800000000000000000000000046
S31508004C800000000000000000000000000000000016
S31508004C90301A00301C000000000000000000000070
S31508004CA000000000000000000000000800001400DA
S31508004CB0002200004100008080010040020020041C
S31508004CC00010080008000000000000002100002174
S31508004CD00000210000210000210000210000210021
S31508004CE00021000021000021000000000000000053
S31508004CF0000008000804001002002001004000809F
S31508004D008000410000220000140000080000000096
S31508004D1000000003C00004C00004000008003808B2
S31508004D200F380808380810000C300007E00003C0E8
S31508004D3000000000000000003F8000FFE0038070D4
S31508004D40020F1006708804C088048308047F88024E
S31508004D50C09003012000FE40000008000018000172
S31508004D60F8003E0801C20007020007E20000FE0044
S31508004D70001FC80001F800003800000804000807F2
S31508004D80FFF807FFF80408080408080408080408D8
S31508004D900806180803F41801E7F00001E00000000F
S31508004DA0000000003F8001FFE00380700200180445
S31508004DB00008040008040008040010060020078004
S31508004DC0C000000004000807FFF807FFF804000801
S31508004DD0040008040008040018020010038070018B
S31508004DE0FFE0007F8000000004000807FFF807FFC7
S31508004DF0F8040808040808040808040808043E0813
S31508004E0004000806001801006000000004000807F6
S31508004E10FFF807FFF8040808040800040800040857
S31508004E2000043E00060000060000018000000000A5
S31508004E30000000003F8001FFE003807006001804B0
S31508004E4000080402080402080203F00783F00002BF
S31508004E500000020004000807FFF807FFF804080826
S31508004E6000080000080000080000080004080807F9
S31508004E70FFF807FFF804000800000000000004001F
S31508004E800804000804000807FFF807FFF8040008EC
S31508004E9004000804000800000000000000000000EC
S31508004EA000060000070000010400010400010400D8
S31508004EB00307FFFE07FFFC040000040000040000CF
S31508004EC004000807FFF807FFF8040C08001800009C
S31508004ED03E0004C7800503C80600F804003804002D
S31508004EE01800000804000807FFF807FFF804000880
S31508004EF0000008000008000008000008000008007C
S31508004F00001800006000000004000807FFF807808A
S31508004F100807FC00007FC00003F80007C0007800FF
S31508004F2007800807FFF807FFF804000804000807C9
S31508004F30FFF807000803C00000E000003800001E64
S31508004F40000007000001C00400F007FFF804000095
S31508004F50000000007F8001FFE0038070060018044F
S31508004F60000804000806001803003001FFE0007F6F
S31508004F708000000004000807FFF807FFF80404088B
S31508004F80040400040400040400040400060C0003DE
S31508004F90F80001F000000000000000007F8001FF1B
S31508004FA0E00380700600880400880400C806003CF8
S31508004FB003003E01FFE6007F8400000004000807A6
S31508004FC0FFF807FFF8040808040800040C00040F9B
S31508004FD000040BC00610F003F03801E008000008D2
S31508004FE000000001E0F803F0300630100418080449
S31508004FF01808040C08040C080206180207F00781B2
S31508005000E000000001800006000004000004000023
S3150800501004000807FFF807FFF80400080400000466
S31508005020000006000001800004000007FFE007FFFB
S31508005030F004001800000800000800000800000836
S3150800504000000804001007FFE00400000400000642
S31508005050000007E00007FE00041FE00001F800005A
S31508005060380001E0043E0007C00006000004000006
S3150800507004000007E00007FFC0041FF80007C00788
S31508005080F80007FF80043FF80007C004F80007008F
S315080050900004000000000004000806001807C07895
S315080050A005F1C8003E00001F800463E80780F80683
S315080050B0001804000800000004000006000007802D
S315080050C00007E008047C08001FF80007F800180825
S315080050D004E00807000006000004000000000001C4
S315080050E000080600380400F80403E8040F08047CE6
S315080050F00805F00807C0080700180400600000004B
S315080051000000000000000000000000000000003F52
S31508005110FFFE2000022000022000022000022000DC
S315080051200200000000000000000008000007000060
S3150800513000C0000038000006000001C00000300072
S31508005140000E000001000000000000000000200022
S31508005150022000022000022000022000023FFFFE7B
S315080051600000000000000000000000000000000031
S3150800517000000000000800001000003000002000B9
S3150800518000300000100000080000000000000000C9
S3150800519000000100000100000100000100000100FC
S315080051A000010000010000010000010000010000EC
S315080051B001000001000000000000000000200000BF
S315080051C02000001000001000000000000000000091
S315080051D000000000000000000000000000F00019B8
S315080051E0F8001B18002208002608002408002410CE
S315080051F0003FF8001FF8000008000018000000042F
S31508005200000007FFF80FFFF000181800100800202C
S3150800521008002008003018001FF0000FC00000002A
S315080052200000000007C0001FF0001830002008002A
S315080052302008002008003C08001C10000060000040
S31508005240000000000000000007C0001FF00038182A
S3150800525000200800200800200804101007FFF80F97
S31508005260FFF000001000000000000000000000072A
S31508005270C0001FF000123000221800220800220881
S31508005280003208001E10000E20000000000000007A
S31508005290200000200800200801FFF803FFF8062078
S315080052A00804200804200807200003000000000066
S315080052B000000000000E000E6E001FF30031B10062
S315080052C020B10020B1003191001F13002E1E0020CE
S315080052D00E00300000000004000807FFF80FFFF872
S315080052E0001008002000002000002008003FF800F9
S315080052F01FF8000008000000000000000000002061
S3150800530008002008002008063FF8063FF8000008B5
S31508005310000008000008000000000000000000006F
S315080053200000000003000003002001002001002007
S3150800533003063FFE063FFC000000000000000000D8
S3150800534000000004000807FFF80FFFF800018800B6
S315080053500300002FC00038F800203800200800009D
S31508005360080000000000000000000400080400080F
S3150800537004000807FFF80FFFF800000800000800FF
S315080053800008000000000000002008003FF8003F69
S31508005390F8001008002000003FF8003FF800100849
S315080053A0002000003FF8003FF80000080000000059
S315080053B02008003FF8003FF8001008001000002001
S315080053C000002008003FF8001FF800000800000051
S315080053D00000000007C0000FF00018300030080079
S315080053E02008002008003008001830000FF00007D9
S315080053F0C0000000000000002001003FFF003FFF42
S31508005400001011002009002008002008003038008C
S315080054101FF0000FC00000000000000007C0001FBA
S31508005420F000381800200800200800200900101194
S31508005430001FFF003FFF00000100000000200800D9
S315080054402008002008003FF8003FF8000808001070
S31508005450080020080020000030000030000000008E
S31508005460000000000000000C78001E180033080039
S3150800547023080021080021880021980030F0003810
S31508005480600000000000000020000020000020004E
S3150800549000FFF003FFF8002008002008002008009D
S315080054A00030000000000000000000002000003F5F
S315080054B0F0007FF80000180000080000080020101F
S315080054C0003FF8007FF00000100000000000000018
S315080054D02000003000003C00003F800023F0000060
S315080054E078000070002380003C0000300000200097
S315080054F0002000003C00003FE00023F80000E00028
S315080055002700003E00003FE00021F80001E0003ED1
S31508005510000020000000000020080020080038389D
S31508005520003E680027800003C8002CF800383800C1
S3150800553020180020080000000000000020000030AD
S3150800554003003C01003F830023EC00007000238029
S31508005550003C0000200000200000000000000000C1
S3150800556000000038080020380020F80023E8002F43
S3150800557088003E0800380800201800007000000067
S31508005580000000000000000000000000000000000D
S3150800559008000014001FF7FC300006200002000077
S315080055A000000000000000000000000000000000ED
S315080055B0000000000000FFFFFF00000000000000E0
S315080055C000000000000000000000000000002000AD
S315080055D0023000061FF7FC00140000080000000057
S315080055E00000000000000000000000000000001895
S315080055F0000060000040000040000020000010008D
S31508005600000800000400000400000C000010000060
S3150800561014560008506C65617365207573652074AF
S315080056206865207374796C757320636C69636B2085
S315080056307468652063726F7373206F6E2074686573
S315080056402073637265656E2E5468652063726F7386
S31508005650732077696C6C20616C77617973206D6F44
S31508005660766520756E74696C20746865207363723C
S3150800567065656E2061646A7573746D656E742069FC
S315080056807320636F6D706C657465642E000000008E
S31508005690B056000800000020840000006C330008A3
S315080056A03457000884000020DC1400007C3300080E
S315080056B00000FFFFD090000000000000B12A00089B
S315080056C0592D000811230008000000000000000002
S315080056D000000000000000000000000000000000BC
S315080056E000000000000000000000000000000000AC
S315080056F00000000014EF0204060800000000010282
S31508005700030401020304060708090000000000005C
S3150800571000000000000000000000000000A24A048B
S315080057200000000000000000010203040607080943
S309080057300000000067
S70508000131C0
