S3150800000098D3002049010008C92000084F190008A4
S31508000010C520000875140008BF3600080000000057
S31508000020000000000000000000000000CD230008CA
S31508000030211600080000000079220008492500085A
S3150800004063010008630100086301000863010008F2
S31508000050630100086301000825160008630100080B
S3150800006063010008630100086301000863010008D2
S3150800007063010008630100086301000863010008C2
S3150800008063010008630100086301000863010008B2
S3150800009063010008630100086301000863010008A2
S315080000A0630100087D2E000863010008630100084B
S315080000B0A92E00081D2F00089D2F000863010008BF
S315080000C06301000863010008630100086301000872
S315080000D0630100089D320008A9330008C9340008E6
S315080000E06301000863010008630100086301000852
S315080000F06301000863010008630100086301000842
S315080001006301000863010008B92F000863010008AD
S3150800011085310008C1310008D52F0008F12F0008E5
S315080001206301000863010008630100086301000811
S31508000130DFF810D000F00CFD00480047696F000892
S31508000140AFF3008098D3002006488047064800474A
S31508000150FEE7FEE7FEE7FEE7FEE7FEE7FEE7FEE769
S31508000160FEE7FEE7F9250008310100082DE9F04110
S315080001700024061B254671F1000605DA012400272E
S31508000180D0EB070067EB0101161E73F1000605DACE
S315080001900027D2EB0702012567EB030300F0B2FB49
S315080001A086460E4617469C46AC4204D00025D0EB40
S315080001B0050E65EB010624B10020D2EB000760EBC3
S315080001C0030C704631463A466346BDE8F081A0F115
S315080001D04101192900D82030704740EA01039B07DE
S315080001E003D009E008C9121F08C0042AFAD203E09E
S315080001F011F8013B00F8013B521EF9D27047D2B202
S3150800020001E000F8012B491EFBD270470022F6E7F1
S3150800021010B513460A4604461946FFF7F0FF20466E
S3150800022010BD30B505462A460B4612F8010B13F8E1
S31508000230014B08B1A042F8D01CB1002802D06D1CB1
S31508000240F1E7284630BD421C10F8011B0029FBD1F6
S31508000250801A704730B505460020034600E05B1C4F
S31508000260934205D2EC5CC85C201A01D1002CF6D169
S3150800027030BDF0B480EA0102D40F4200B2EB410F60
S3150800028002D20246084611464A0042D0C30DDDB2E4
S31508000290C1F3C752AD1A202D35DAC1F3160141F460
S315080002A0000204B15242C5F1200602FA06F12A41BB
S315080002B01044B3EBD05F23D0C4B1012DA0EBC350DB
S315080002C009DCF0BC4FF0004202EAC352DBB200F58B
S315080002D0000000F082BB400000F1807000EBC350C4
S315080002E0A0F1807040EAD170490009E0490841EA66
S315080002F0C071A0EBC35000F50000400800EBC350E6
S31508000300F0BC00F061BB6142012202EB4101001B17
S31508000310F6E7F0BC704781F00041AAE780F000409C
S31508000320A7E780EA010210B502F00043400022D098
S315080003304A001FD0010E01EB1261C0F35600C2F34A
S31508000340560240F4000042F40002A0FB022000041A
S315080003507F39140400D0401C50EA124001D44000F2
S31508000360491EC2B20C0604EBD010401C4008802A75
S3150800037002D003E0002010BD20F00100002900DAB9
S315080003800020184310BD30B480EA010202F000458F
S3150800039030F0004221F0004013D090B1C30DD40DC7
S315080003A0C2F31601C0F31600E41A41F4000140F442
S315080003B000027D34914201D3641C00E04900002C00
S315080003C002DA30BC002070474FF400000023914247
S315080003D001D3891A034340084FEA4101F7D151B1C5
S315080003E0914202D14FF0004105E002D24FF00101DF
S315080003F001E06FF0010103EBC450284430BC00F063
S31508000400E3BA2DE9FE4F804681EA0300C00F0C4689
S31508000410009021F0004123F00045B8EB0200A94105
S3150800042005D24046214690461C460B46024623F016
S315080004300040104347D0270DC7F30A00C3F30A51FB
S315080004400290401A019040286BDAC3F3130040F477
S31508000450801B0098924620B10023D2EB030A63EB77
S315080004600B0B01985946C0F14002504600F07BFA42
S3150800047006460D4650465946019A00F093FA10EB87
S3150800048008006141002487EA115284EAE7731A4397
S3150800049040D0009A62B3019A012A4FEA075215DC46
S315080004A0001B61EB02014FF0004202EA0752CDE958
S315080004B00042001C41F5801132462B4600F0CAFA6C
S315080004C003B0BDE8F08F40462146F9E7001B61EB13
S315080004D00201001C41F5801300185B412018A2F5A3
S315080004E0001747EB030140EAD570B6196D4111E0D4
S315080004F06D084FEA360645EAC0754FEA0752001BF3
S3150800050061EB0201001C41F5801149084FEA3000F1
S315080005100019514132462B4603B0BDE8F04F00F0B2
S315080005208ABA0098012240000023D0EB020263EB4E
S31508000530E073009821464FEAE074B8EB000061EBDF
S315080005400401E9E783F000435BE781F0004158E7DF
S315080005502DE9FE4F81EA030404F0004421F000412E
S3150800056000944FF0000B23F0004350EA01045ED0DC
S3150800057052EA03045BD0C3F30A54C1F30A552C4468
S31508000580A4F2F3340194A0FB0254C1F3130141F41D
S315080005908011C3F3130343F4801301FB024400FBE9
S315080005A0034E840A970A44EA815447EA8357A4FB10
S315080005B0076802958D0A05FB07854FEA932C04FB0D
S315080005C00C542705029D4FEA065847EA1637B5EB3D
S315080005D008056EEB070C870E920E47EA811742EA6A
S315080005E08312A7FB0201B6EB0B0164EB00042B0D8B
S315080005F043EA0C335E1844EB1C50DA465146E7FBD7
S315080006000201C5F313044FEA0B3343EA14534FEAC6
S315080006100432019C43EA0603A4F10C040294009CEC
S31508000620CDE900B400F016FA03B0BDE8F08F00205B
S315080006300146F9E72DE9F04D81EA030404F0004B81
S3150800064021F0004514464FF0000A23F0004150EA15
S31508000650050220D054EA01021DD0C5F30A57024606
S31508000660C5F31303C1F31300C1F30A5640F480150A
S3150800067043F48013A7EB0608101BD64608F2FD388C
S3150800068073EB050002D308F1010801E092185B41FB
S31508000690B8F1000F03DA00200146BDE8F08D00200E
S315080006A04FF48011064684460EE0171B73EB0507C8
S315080006B005D3121B63EB050306434CEA010C4908F4
S315080006C04FEA300092185B4150EA0107EDD152EA31
S315080006D0030012D082EA040083EA0501084305D024
S315080006E0101BAB4106D20122002306E000224FF080
S315080006F0004302E06FF0010253101AEB06004CEBC0
S31508000700085110EB0A0041EB0B01BDE8F04D00F073
S3150800071092B996230022114600F05FB90EB5C10FB3
S3150800072080EAE0700844CA07002140F233438DE8A6
S315080007300E000A460B4600F08DF903B000BD0EB553
S3150800074040F2334102910021CDE900110A460B46D9
S3150800075000F080F903B000BD20F00040C10DC0F3E1
S31508000760160040F400007F2901DA00207047962918
S3150800077003DCC1F19601C840704796398840704736
S3150800078070B5C1F30A5201F000450024C1F3130104
S3150800079040F2FF3341F480119A4201DA002070BD1D
S315080007A040F233439A42A2F2334203DC524200F04B
S315080007B0E9F800E090402C43F1D0404270BDC1F307
S315080007C00A5210B5C1F3130140F2FF3341F4801108
S315080007D09A4201DA002010BD40F233439A42A2F24F
S315080007E0334203DC524200F0CDF810BD904010BDF4
S315080007F000F0004230F000400AD0C10D01F56071EA
S31508000800C0F3160042EA0151C20840071143704777
S31508000810002001467047000030B5041E71F100043F
S3150800082004DB4FF00044404264EB0101141E73F1EF
S31508000830000405DB1C464FF00043524263EB0403F9
S315080008408B4208BF824230BD30B5041E71F10004E8
S3150800085004DB4FF00044404264EB0101141E73F1BF
S31508000860000405DB1C464FF00043524263EB0403C9
S31508000870994208BF904230BD01F0004330B421F0E0
S31508000880004150EA010206D00A0DA2F56072C1F3D2
S315080008901301002A02DC30BC00207047440F44EAEA
S315080008A0C104C100E01830BC00EBC25000F08CB89F
S315080008B0002801DBC0F10040002901DBC1F100413D
S315080008C081427047002801DBC0F10040002901DBA6
S315080008D0C1F100418842704730B50B4601460020F9
S315080008E02022012409E021FA02F59D4205D303FAE4
S315080008F002F5491B04FA02F52844151EA2F1010265
S31508000900F1DC30BD2DE9F05F0546002092469B4696
S3150800091088460646814640241BE028464146474607
S31508000920224600F02FF853465A46C01A914110D372
S3150800093011461846224600F016F82D1A67EB0108EC
S315080009404F4622460120002100F00DF817EB00095A
S315080009504E41201EA4F10104DFDC484631462A46F2
S315080009604346BDE8F09F202A04DB203A00FA02F14C
S31508000970002070479140C2F1200320FA03F319437F
S3150800098090407047202A04DB203A21FA02F0002121
S31508000990704721FA02F3D040C2F120029140084381
S315080009A019467047202A06DBCB17203A41FA02F08F
S315080009B043EAE07306E041FA02F3D040C2F12002AE
S315080009C091400843194670470029A8BF7047401C44
S315080009D0490008BF20F00100704710B4B0FA80FC47
S315080009E000FA0CF050EA010404BF10BC704749B184
S315080009F0CCF1200421FA04F411FA0CF118BF0121F4
S31508000A0021430843A3EB0C01CB1D4FEA00614FEAD3
S31508000A10102042BF002010BC704700EBC3501044A2
S31508000A200029A4BF10BC7047401C490008BF20F02D
S31508000A30010010BC704710B5141E73F1000408DAE3
S31508000A40401C41F1000192185B411A4301D120F084
S31508000A50010010BD2DE9F04D92469B4611B1B1FA41
S31508000A6081F202E0B0FA80F220329046FFF77BFF6F
S31508000A7004460F4640EA0A0041EA0B0153465A4625
S31508000A80084313D0114653EA010019D0C8F14002B1
S31508000A905046FFF777FF05460E46504659464246EA
S31508000AA0FFF761FF084305D0012004E020463946D8
S31508000AB0BDE8F08D0020054346EAE0762C4337432F
S31508000AC00A986305E40AA0EB08000022FD0A44EA36
S31508000AD047540A3002D500200146E9E701051019F6
S31508000AE06941DDE9084500196941BDE8F04DA2E70D
S31508000AF070B521F0004303430CD0C1F30A55002416
S31508000B00D5EB040564EB0403D617AD1AB34102DB33
S31508000B100020014670BD201841EB025170BDC1F39B
S31508000B200A52C1F3130140F2FF3341F480119A428D
S31508000B3002DA00200146704740F233439A42A2F295
S31508000B40334202DC5242FFF71DBFFFF70CBF00001D
S31508000B50064C074D06E0E06840F0010394E80700FC
S31508000B6098471034AC42F6D3FFF7E6FA5427010843
S31508000B70742701082DE9F04D00231A461B1A8A41ED
S31508000B8003DB00200146BDE8F08DC1F30A52C1F32C
S31508000B90130141F480154FF0000BD10702D100185C
S31508000BA06D41521E0027044640F2FF11384601EBFC
S31508000BB0620A3E468046024600204FF48011FFF73F
S31508000BC0E1FEC2197141BB1846EB0100B4EB030CF8
S31508000BD075EB000C04D3E41A65EB000517460E46C0
S31508000BE0241908F101006D4180463428E3DDF9191E
S31508000BF046EB0600091BA84103D24FF0FF32134605
S31508000C0001E0002213461BEB070046EB0A51BDE83C
S31508000C10F04DFFF710BF00002DE9F04F8BB00446EA
S31508000C20894600200990089000F058F9702000F0D5
S31508000C30CBF900F0A1F9AC2000F0C6F900F09CF958
S31508000C40332000F0C1F900F097F9002000F0BCF954
S31508000C5000F092F900F060F9502003F0F3FE00F07E
S31508000C603DF9712000F0B0F900F086F900F0D0F8EF
S31508000C7047490870002000F011F94548007800F04F
S31508000C80080008B900F094F84148007800F08000A0
S31508000C90002878D100250EE000F0BAF83D494855FD
S31508000CA0042D03D1012000F0F9F802E0002000F03D
S31508000CB0F5F8681CC5B2052DEEDB00F02DF93548B0
S31508000CC0007800033349497840EA011031498978A8
S31508000CD040EA211009902F4880780007000B2D491B
S31508000CE0C97840EA01202B490979084308900998F0
S31508000CF0FFF725FD05460022274BFFF729FC82460C
S31508000D000022264BFFF796FC07460022234BFFF7E7
S31508000D1091FC0022224BCDE90401FFF772FBCDE9D5
S31508000D200601FFF7A9FD20600898FFF708FD0746AA
S31508000D3000221C4BFFF70CFC05460022174BFFF759
S31508000D4079FC0022154BCDE90001FFF773FC002260
S31508000D50134BCDE90201FFF754FB0022124BCDE9F4
S31508000D600401FFF767FC0022104BCDE90601FFF7E7
S31508000D70E9FB8246FFF780FDC9F8000000200BB0AA
S31508000D80BDE8F08FFFE700F0C7F80120F7E700009D
S31508000D90180000201900002000005940000090406B
S31508000DA00000E03F00409F4000002440000049400A
S31508000DB010B500F093F8702000F006F900F0DCF8A2
S31508000DC0E12000F001F900F0D7F8082000F0FCF85F
S31508000DD000F0D2F8002000F0F7F800F0CDF800F0A7
S31508000DE09BF8282003F02EFE10BD10B500F076F80B
S31508000DF0702000F0E9F800F0BFF8BA2000F0E4F837
S31508000E0000F0BAF800F088F8142003F01BFE10BDB5
S31508000E1070B5002400251CE0002000F021F802210E
S31508000E200E4800F083FD022003F032FE6006040E31
S31508000E3001210A4800F06FFD012801D144F00104A0
S31508000E400221064800F070FD022003F021FE681C0E
S31508000E50C5B2082DE0DB204670BD00000014014035
S31508000E6038B504466CB10120ADF8000003208DF8B2
S31508000E70020010208DF803006946074800F0C0FC00
S31508000E8009E00120ADF8000048208DF80300694606
S31508000E90014800F0B5FC38BD0014014010B5044601
S31508000EA00120FFF7DDFF24B101210B4800F03EFDCC
S31508000EB003E00121084800F037FD0221064800F04A
S31508000EC035FD022003F0E4FD0221034800F02CFD65
S31508000ED0022003F0DDFD10BD0014014010B501200D
S31508000EE0FFF7BEFF02210B4800F020FD012109484B
S31508000EF000F01CFD052003F0CBFD0121054800F09C
S31508000F0013FD052003F0C4FD0221024800F00CFD84
S31508000F1010BD00000014014010B50120FFF7A0FF26
S31508000F2001210A4800F000FD052003F0B1FD022169
S31508000F30064800F0FBFC052003F0AAFD0121034842
S31508000F4000F0F4FC052003F0A3FD10BD00140140D9
S31508000F5008B50121202001F0A1F90320ADF8000011
S31508000F608DF8020010208DF803006946014800F04C
S31508000F7047FC08BD0014014010B500240020FFF707
S31508000F806FFF02210F4800F0D1FC022003F080FD1C
S31508000F9008E0601CC0B20446FA2803DDFFF7BCFF70
S31508000FA0012010BD0121074800F0B5FC0028F0D14A
S31508000FB00221044800F0B8FC022003F069FD002075
S31508000FC0EFE700000014014070B5054602211648F7
S31508000FD000F0AAFC022003F05BFD002420E00120BB
S31508000FE0FFF73EFF05FA04F000F0800020B101216A
S31508000FF00D4800F09BFC03E001210B4800F094FC2F
S315080010000221094800F092FC022003F041FD02216A
S31508001010054800F089FC022003F03AFD601CC4B2C2
S31508001020082CDCDB70BD00000014014008B5012166
S31508001030102001F033F94020ADF8000010208DF89B
S31508001040030003208DF802006946054800F0D8FB26
S315080010504021034800F068FC01200249086008BDE9
S31508001060001001409801224210B5044605F036FFEB
S31508001070462005F009FF05F059FF012800D110BDEB
S31508001080204605F001FF05F051FF012801D1022095
S31508001090F5E705F03BFF0020F1E710B500F016FD77
S315080010A000F004F81020FFF7DFFF10BD10B501208F
S315080010B0FFF7DAFF10BD10B5002405F00FFF472033
S315080010C005F0E2FE05F032FF012801D1002010BD2F
S315080010D005F0B8FE044605F073FE05F0B3FE00EB16
S315080010E0042084B205F09AFE05F010FF2046EEE7CC
S315080010F010B500200F4908600F48406820F470407A
S315080011000D4948600846406840F440504860002051
S315080011100A49C1F8AC01022003F0BAFC01200549CE
S315080011200860022003F0B4FC00200449C1F8B001AD
S3150800113010BD0000B001224200100140000022420A
S3150800114008B50121102001F0A9F84FF4C050ADF8F8
S31508001150000010208DF8030003208DF80200694670
S31508001160044800F04DFB0120034908600349C1F813
S31508001170AC0108BD00100140B00122420000224225
S3150800118010B500200F4908600F48406820F47040E9
S315080011900D4948600846406840F4405048600120C0
S315080011A00A49C1F8AC01022003F072FC0120054986
S315080011B00860022003F06CFC00200449C1F8B00165
S315080011C010BD0000B001224200100140000022427A
S315080011D070B5054600241748406820F47040154944
S315080011E048600846406840F400404860002616E01B
S315080011F0002011490860022003F04AFC01200F492B
S31508001200C1F8B0016006040E0B488438006808B1BE
S31508001210601CC4B2012003F03BFC701CC6B2082E49
S31508001220E6DB15B9FFF7ACFF01E0FFF761FF2046E3
S3150800123070BD000000100140B001224200002242A9
S3150800124070B504461548406820F470401349486054
S315080012500846406840F4405048600020104908603D
S31508001260002517E0E0090E49091F08606006040E0C
S31508001270022003F00DFC01200A49C1F8B001022042
S3150800128003F006FC002006490860022003F000FC73
S31508001290681CC5B2082DE5DB70BD000000100140D2
S315080012A0B00122420000224210B50F48406820F4DF
S315080012B070400D4948600846406840F44050486010
S315080012C001200A4908600A49C1F8B001042003F060
S315080012D0DFFB002005490860042003F0D9FB002045
S315080012E00349C1F8B00110BD00100140AC0122420B
S315080012F00000224210B50F48406820F470400D499E
S3150800130048600846406840F44050486000200A4952
S3150800131008600A49C1F8AC01042003F0B9FB0120B2
S31508001320054908600549C1F8AC01042003F0B0FB83
S3150800133010BD000000100140B00122420000224208
S3150800134010B500241448406820F4704012494860DB
S315080013500846406840F40040486001200F4908608C
S3150800136003F096FB01200E49C1F8B00103F090FB8B
S3150800137007E0601CC4B2FA2C03DDFFF7BBFF0120AF
S3150800138010BD0648803800680028F2D10349091DB7
S31508001390086000BFF4E7000000100140AC012242DB
S315080013A0000022422DE9F0410746884615461E46AA
S315080013B00024FFF779FF3846FFF742FFFFF7C0FF23
S315080013C04046FFF73DFFFFF7BBFFFFF76DFF47F00E
S315080013D00100FFF735FFFFF7B3FF00BF0CE0681EFB
S315080013E0A04204D10020FFF7F3FE305503E00120A8
S315080013F0FFF7EEFE3055641CAC42F0DBFFF77AFFD0
S31508001400BDE8F08170B504460D460026FFF74CFF8F
S315080014102046FFF715FFFFF793FF2846FFF710FF53
S31508001420FFF78EFFFFF740FF44F00100FFF708FFC4
S31508001430FFF786FF0020FFF7CBFE0646FFF75AFFA9
S31508001440304670BD70B506460C461546FFF72CFFAC
S315080014503046FFF7F5FEFFF773FF2046FFF7F0FE6D
S31508001460FFF76EFF2846FFF7EBFEFFF769FFFFF76A
S3150800147041FF70BD00BFFEE710B50024154800689F
S3150800148020F07060134908600846006840F0006064
S31508001490086004E0601CC4B2012003F0F9FA0E48A3
S315080014A0006808B1642CF5DB642C01DB012010BD53
S315080014B0002404E0601CC4B2012003F0E9FA0648DF
S315080014C0006808B9642CF5DB642C01DB0120EEE723
S315080014D00020ECE7040C01403881214208B50121BF
S315080014E0082000F0DBFE4FF48040ADF80000102025
S315080014F08DF8030003208DF802006946064800F0BF
S315080015007FF94FF48041044800F010FA00F068F8BB
S31508001510FFF7B2FF08BD0000000C014010B500241B
S3150800152004E0601CC4B2012003F0B2FA0D4800685A
S3150800153008B1642CF5DB002404E0601CC4B2012069
S3150800154003F0A6FA0748006808B9642CF5DB2820DA
S3150800155003F09EFA0348006808B1012010BD002078
S31508001560FCE700003881214270B50024002506E01A
S315080015706006040EFFF7D2FF0443681CC5B2082DA7
S31508001580F6DB204670BD7CB505460E4600F028F809
S31508001590FFF772FFF8B9002405E0FFF7E5FF0DF83D
S315080015A00400601CC4B2052CF7DB9DF800009DF80A
S315080015B0011008449DF8021008449DF803100844D9
S315080015C09DF80410884208D19DF8000030709DF8F7
S315080015D00200287001E001207CBD0020FCE7000025
S315080015E010B50C48006820F070600A490860084683
S315080015F0006840F040700860002007490860142021
S3150800160003F020FA01200549C1F8B8011E2003F0AD
S315080016103FFA10BD040C0140B881214200802142E6
S315080016207047000010B5642003F00CFA0121054844
S3150800163000F071F9012801D103490870012000F072
S315080016406FF810BD00080140B10000200EB5012159
S31508001650084600F023FE00F051FA0521022000F0AA
S31508001660AFF82020019000208DF808000C208DF896
S31508001670090001208DF80A0001A800F057F80F218B
S31508001680002000F09DF84FF40040019000208DF8EE
S3150800169008000C208DF8090001208DF80A0001A821
S315080016A000F044F80021084600F08AF8012001906D
S315080016B000208DF8080008208DF8090001208DF813
S315080016C00A0001A800F032F806208DF80000022072
S315080016D08DF801008DF8020001208DF80300684698
S315080016E000F0F4FC17208DF8000002208DF80100A8
S315080016F001208DF802008DF80300684600F0E6FC2C
S3150800170028208DF8000002208DF8010000208DF8B1
S31508001710020001208DF80300684600F0D7FC0EBDD4
S31508001720014908607047000014040140002123495C
S315080017308279002A3AD00A46126803689A430B4609
S315080017401A600A1D126803689A430B1D1A6002790B
S3150800175011440A6803681A430A60184A083212686C
S3150800176003689A43154B08331A601A1D12680368F2
S315080017709A43124B0C331A604279102A0ED11A1F5B
S31508001780126803681A430D4B08331A601A1D12684B
S3150800179003681A43094B0C331A600DE0074942796E
S315080017A011440A6803681A430A6005E0027911447D
S315080017B00A6803689A430A607047000000040140FB
S315080017C030B500228B071C0F0F2303FA04F20B4BCC
S315080017D08C1053F824309343084C8D1044F8253068
S315080017E023468C1053F824308C07240F00FA04F48F
S315080017F02343024C8D1044F8253030BD08000140C3
S315080018002DE9F04102460025002600200023002489
S31508001810002791F803C00CF00F0591F803C00CF0EF
S31508001820100CBCF1000F03D091F802C04CEA050574
S3150800183091F800C0BCF1000F31D0146800202BE0ED
S315080018404FF0010C0CFA00F3B1F800C00CEA0306DD
S315080018509E4220D183004FF00F0C0CFA03F7BC43CD
S3150800186005FA03FC4CEA040491F803C0BCF1280FFE
S3150800187006D14FF0010C0CFA00FCC2F814C00AE0BD
S3150800188091F803C0BCF1480F05D14FF0010C0CFAD2
S3150800189000FCC2F810C0401C0828D1D31460B1F867
S315080018A000C0BCF1FF0F34DD546800202EE000F1C3
S315080018B0080C4FF0010808FA0CF3B1F800C00CEA5E
S315080018C003069E4221D183004FF00F0C0CFA03F752
S315080018D0BC4305FA03FC4CEA040491F803C0BCF1C6
S315080018E0280F05D100F1080C08FA0CF8C2F8148084
S315080018F091F803C0BCF1480F07D100F1080C4FF06E
S31508001900010808FA0CF8C2F81080401C0828CED343
S315080019105460BDE8F0810246002093680B400BB185
S31508001920012000E00020704741617047016170475F
S3150800193010B541F61F41092001F000FB4FF416507F
S3150800194001F06AFD07F082F805F0C4F810BD00BF83
S31508001950FEE7000010B503F053F84FF4A06000F05E
S31508001960EDFB4FF4E13001F049FC4FF4E13001F0B2
S31508001970B3FCFFF76BFE20A001F0A4FE48F69F41DA
S3150800198040F2CF7001F048FA48F69F4140F69F7042
S3150800199001F095FA00F0B6F91CA001F093FE00F0EC
S315080019A0ADF821A001F08EFEFFF798FDFFF7D0FAFB
S315080019B023A001F087FE00F00FFA29A001F082FEAD
S315080019C002202E4908604FF6FF7000F0D3F9FFF7A2
S315080019D02DFBFFF762FB2AA001F074FEFFF7B0FBB0
S315080019E002F02CFD2DA001F06DFEFFF7A1FF31A03E
S315080019F001F068FE10BD0000B4AEBFDA31C5E4D60A
S31508001A00C30909095B4F4B5D200D0A004C4544C5C7
S31508001A10E4D6C309090920202020202020205B4F76
S31508001A204B5D200D0A000000B6C0C1A2B0B4BCFCD4
S31508001A30C5E4D6C30909095B4F4B5D200D0A0000B2
S31508001A404148543130CEC2CAAAB6C8B4ABB8D0C61B
S31508001A50F7C5E4D6C309095B4F4B5D200D0A0000A4
S31508001A60535437373335204C4344C5E4D6C30909A4
S31508001A70095B4F4B5D200D0A00000000100801406D
S31508001A80B9E2D5D5B4ABB8D0C6F7C5E4D6C309090B
S31508001A90095B4F4B5D200D0A00000000424D503295
S31508001AA03830C5E4D6C30909095B4F4B5D200D0ADA
S31508001AB000000000BBFAD6C7D4C6C5E4D6C30909D8
S31508001AC0095B4F4B5D200D0A0000000008B5012197
S31508001AD0202000F0E3FB0C20ADF8000003208DF871
S31508001AE0020014208DF8030069460348FFF788FEB4
S31508001AF005F00CFA08BD00000014014008B50121E4
S31508001B00442000F0CBFB4FF46670ADF80000482087
S31508001B108DF8030069460748FFF772FE0120ADF805
S31508001B20000028208DF8030069460348FFF768FE81
S31508001B3008BD0000001801400008014010B5044621
S31508001B4014B101201A49087019480078F8B108211B
S31508001B501848FFF7E0FE28B101211748FFF7DBFE1A
S31508001B60012814D10A2002F06DFF002010490870E0
S31508001B7008211048FFF7CFFE08B9022010BD012141
S31508001B800D48FFF7C8FE01280FD10320F6E7082104
S31508001B900848FFF7C0FE012807D101210648FFF7CC
S31508001BA0BAFE10B90120024908700020E6E70000D5
S31508001BB054000020001801400008014010B50446F2
S31508001BC014B101202D4908702C480078002839D016
S31508001BD080212B48FFF79FFE80B14FF4807128487B
S31508001BE0FFF799FE50B14FF400712548FFF793FEB1
S31508001BF020B110212248FFF78EFE18BB0A2002F0FA
S31508001C0021FF00201D49087080211D48FFF783FE2B
S31508001C1008B9072010BD4FF480711948FFF77BFEFD
S31508001C2008B90820F6E74FF400711548FFF773FE68
S31508001C3008B90920EEE710211148FFF76CFED8B95C
S31508001C400A20E7E780210E48FFF765FE012813D131
S31508001C5001020B48FFF75FFE01280DD14102084833
S31508001C60FFF759FE012807D110210548FFF753FE53
S31508001C70012801D1014908700020CBE75500002052
S31508001C800018014008B50121082000F007FB0320D1
S31508001C90ADF800008DF8020010208DF803006946A3
S31508001CA00A48FFF7ADFD0121042000F0F7FAB2203B
S31508001CB0ADF8000003208DF8020010208DF803000F
S31508001CC069460348FFF79CFD08BD0000000C01406B
S31508001CD00008014010B50446102008490860022093
S31508001CE007490860201200F053FBE0B200F050FBF1
S31508001CF010200249091F086010BD000014080140A1
S31508001D00100C014008B50121482000F0C7FA302020
S31508001D10ADF8000010208DF8030003208DF80200AE
S31508001D2069460948FFF76CFD30210748FFF7FEFDB5
S31508001D302020ADF8000069460448FFF761FD202120
S31508001D400248FFF7F3FD08BD000C014000180140EA
S31508001D5070B5FFF7B0F90646FEF7DBFC0546044901
S31508001D60FEF711FB04464FF07E51FEF7DAFA70BD16
S31508001D70CDCC8C3F70B506469F237F2200210846AE
S31508001D8000F04EF92C2000F089F9002408E000251F
S31508001D9003E03046FFF79EFF6D1CA02DF9D3641CA7
S31508001DA0802CF4D370BD70B506467F239F22002190
S31508001DB0084600F035F92C2000F070F9002408E0F8
S31508001DC0002503E03046FFF785FF6D1C802DF9D30B
S31508001DD0641CA02CF4D370BD10B5FFF753FF00F0B8
S31508001DE00DF9112000F05AF9782002F02BFEB120E7
S31508001DF000F054F9012000F03DF92C2000F03AF9E2
S31508001E002D2000F037F9B22000F048F9012000F043
S31508001E1031F92C2000F02EF92D2000F02BF9B320F3
S31508001E2000F03CF9012000F025F92C2000F022F9F9
S31508001E302D2000F01FF9012000F01CF92C2000F0DD
S31508001E4019F92D2000F016F9B42000F027F907201B
S31508001E5000F010F9C02000F021F9A22000F00AF9DC
S31508001E60022000F007F9842000F004F9C12000F0F0
S31508001E7015F9C52000F0FEF8C22000F00FF90A2077
S31508001E8000F0F8F8002000F0F5F8C32000F006F995
S31508001E908A2000F0EFF82A2000F0ECF8C42000F0C1
S31508001EA0FDF88A2000F0E6F8EE2000F0E3F8C520F9
S31508001EB000F0F4F80E2000F0DDF8362000F0EEF819
S31508001EC0C02000F0D7F8E02000F0E8F80F2000F076
S31508001ED0D1F81A2000F0CEF80F2000F0CBF8182021
S31508001EE000F0C8F82F2000F0C5F8282000F0C2F846
S31508001EF0202000F0BFF8222000F0BCF81F2000F0D8
S31508001F00B9F81B2000F0B6F8232000F0B3F8372004
S31508001F1000F0B0F8002000F0ADF8072000F0AAF8AD
S31508001F20022000F0A7F8102000F0A4F8E12000F045
S31508001F30B5F80F2000F09EF81B2000F09BF80F2044
S31508001F4000F098F8172000F095F8332000F092F882
S31508001F502C2000F08FF8292000F08CF82E2000F0B5
S31508001F6089F8302000F086F8302000F083F8392010
S31508001F7000F080F83F2000F07DF8002000F07AF8A5
S31508001F80072000F077F8032000F074F8102000F01E
S31508001F9071F82A2000F082F8002000F06BF8002083
S31508001FA000F068F8002000F065F87F2000F062F87D
S31508001FB02B2000F073F8002000F05CF8002000F0F9
S31508001FC059F8002000F056F89F2000F053F8F0204A
S31508001FD000F064F8012000F04DF8F62000F05EF8F5
S31508001FE0002000F047F83A2000F058F8052000F0E5
S31508001FF041F8292000F052F810BD000010B5012064
S3150800200006490860642002F01DFD01200349091FE6
S315080020100860322002F016FD10BD0000140C0140C5
S31508002020F0B505460C4616461F462A2000F036F837
S31508002030002000F01FF8E8B200F01CF8002000F0BD
S3150800204019F8B11CC8B200F015F82B2000F026F8D4
S31508002050002000F00FF8E0B200F00CF8002000F0C5
S3150800206009F8791CC8B200F005F82C2000F016F81B
S31508002070F0BD000010B5044610200649086002208D
S3150800208005490860204600F083F910200149091F18
S31508002090086010BD14080140100C014010B5044634
S315080020A0102006490860022005490860204600F00D
S315080020B06FF910200149091F086010BD1408014076
S315080020C0140C014000BFFEE77047000070B5002100
S315080020D000230F22C47804B3154C246804F4E06482
S315080020E0C4F5E064210AC1F10403CA40447804FA3D
S315080020F003F184781440214309010E4C0678A15552
S31508002100047804F01F050124AC4005786D11AD0074
S3150800211005F1E025C5F8004109E0047804F01F053B
S315080021200124AC40044D0678761145F8264070BD6A
S315080021300CED00E000E400E080E100E00249014324
S31508002140024A1160704700000000FA050CED00E035
S3150800215008B54FF6FF701F232DA2002100900846F0
S3150800216000F048FD4FF6FF704FF478432EA2142175
S315080021700090002000F03EFD4FF6FF704FF47843C4
S315080021802EA228210090002000F034FD4FF6FF70A3
S315080021904FF478432EA23C210090002000F0F8FA74
S315080021A04FF6FF704FF478432AA23C210090142082
S315080021B000F0EEFA4FF6FF704FF4784326A23C2162
S315080021C00090282000F016FD4FF6FF701F23234AC3
S315080021D03C210090462000F00DFD4FF6FF704FF4AD
S315080021E078431FA250210090002000F003FD4FF60F
S315080021F0FF7000901E48007810B94FF4784000E050
S315080022001F2003461BA25021782000F0C1FA08BD02
S315080022102D2D3E4E6574776F726B204D6573736115
S3150800222067653C2D2D000000455350383236362060
S31508002230574946494D6F64756C65000047697A775A
S315080022406974732041496F54436C6F7564200000AC
S31508002250CCEC3A00C6F800003A00000080030020E3
S315080022604E6574776F726B53746174653A0000003B
S3150800227004000020A1F100007047000029B1064AB9
S31508002280D2690243044BDA6104E0034AD269824305
S31508002290014BDA61704700000010024029B1064A76
S315080022A092690243044B9A6104E0034A92698243A5
S315080022B0014B9A61704700000010024030B50021BA
S315080022C00022002400232D4D6D6805F00C0121B174
S315080022D0042905D0082923D105E0294D056022E007
S315080022E0274D05601FE0254D6D6805F47012234DD6
S315080022F06D6805F48034022505EB92421CB9214D20
S31508002300554305600BE01D4D6D6805F400351DB19C
S315080023101C4D5543056002E0194D5543056002E022
S31508002320174D056000BF00BF144D6D6805F0F0013C
S315080023300909154D6B5C0568DD4045600F4D6D68F4
S3150800234005F4E061090A104D6B5C4568DD4085605F
S315080023500A4D6D6805F46051C90A0B4D6B5C4568FA
S31508002360DD40C560054D6D6805F44041890B074D94
S315080023706B5CC568B5FBF3F5056130BD001002401E
S3150800238000127A0000093D00740000208400002035
S315080023900021082114E000F080021AB180220A4BBD
S315080023A01A6003E08022084B1B1D1A602022064B88
S315080023B01B1D1A601B1F1A604206100E4A1ED1B258
S315080023C00029E8DC7047000010080140704700004B
S315080023D010B510491048FEF71FFC462004F008FD0A
S315080023E018B9FFF7B5FC0D4908600D4A0D490E48A6
S315080023F001F0BAFF4FF4FA7002F024FB0A480068AD
S31508002400FEF7AAF90949088009490A48FFF7BBF8FF
S3150800241010BD00009000002094000020A4000020B9
S31508002420A00000209C00002098000020A8000020A2
S31508002430450000204400002010B500F001F810BD4A
S315080024400CB50020019000903348006840F48030B5
S315080024503149086000BF3048006800F40030009039
S315080024600198401C0190009818B90198B0F5A06F22
S31508002470F1D12948006800F4003010B1012000901D
S3150800248001E0002000900098012843D12348006805
S3150800249040F01000214908600846006820F0030053
S315080024A008600846006840F0020008601A4840685C
S315080024B0194948600846406848600846406840F43C
S315080024C0806048600846406820F47C1048600846EA
S315080024D0406840F4E81048600846006840F080709C
S315080024E0086000BF0C48006800F000700028F9D0AA
S315080024F00948406820F003000749486008464068D4
S3150800250040F00200486000BF0348406800F00C0035
S315080025100828F9D10CBD0000001002400020024036
S31508002520042808D14FF0E021096941F004014FF071
S31508002530E022116107E04FF0E021096921F004016A
S315080025404FF0E022116170477047000008B54FF65A
S31508002550FF701F2312A200210090084600F04AFBD4
S315080025604FF6FF704FF4784313A214210090002011
S3150800257000F040FB4FF6FF704FF4784313A2282172
S315080025800090002000F036FB4FF6FF704FF47843BA
S3150800259013A23C210090002000F02CFB08BD00008F
S315080025A02D2D3E53797374656D204D657373616780
S315080025B0653C2D2D0000000053544D33322041490F
S315080025C06F542053797374656D0000004E756D3A2B
S315080025D0353138333630313130343520000000009B
S315080025E04242552057616E675A695875616E323096
S315080025F032322E340000000010B51348006840F04F
S3150800260001001149086008464068104908400E490B
S315080026104860084600680E4908400B4908600846A5
S31508002620006820F4802008600846406820F4FE0010
S3150800263048604FF41F008860FFF7FEFE4FF0006009
S315080026400449086010BD0000001002400000FFF8B1
S31508002650FFFFF6FE08ED00E02DE9F04F0746884635
S3150800266015461E46DDF8249008EB0600401E83B288
S315080026707819401E82B24146384600F013F8002405
S315080026800AE019F814B009EB440090F801A04BEAE7
S315080026900A20FFF71FFB641C05FB06F0A042F0DCCE
S315080026A0BDE8F08FF0B504460D4616461F462A20AB
S315080026B0FFF7F4FC0220FFF7DDFCA11CC8B2FFF708
S315080026C0D9FC0220FFF7D6FCB11CC8B2FFF7D2FC32
S315080026D02B20FFF7E3FC0120FFF7CCFC691CC8B2EE
S315080026E0FFF7C8FC0120FFF7C5FC791CC8B2FFF745
S315080026F0C1FC2C20FFF7D2FCF0BD00002DE9F84FF5
S3150800270006460F46904699465F200090002437E01B
S3150800271004EB04101D49085C40452FD107F10F0052
S3150800272083B2F01D82B239463046FFF7BBFF00255B
S3150800273021E004EB041015490844401C10F805B0C4
S315080027404FF0000A12E00BF08000802803D14846BB
S31508002750FFF7C0FA02E00A98FFF7BCFA4FEA4B60A7
S315080027604FEA106B0AF1010000F0FF0ABAF1080FF0
S31508002770E9DB681CC5B2102DDBDB04E0601CC4B2C3
S3150800278000988442C4DB00BFBDE8F88FE08C0008DF
S315080027902DE9F84F07468846164699460A200090BE
S315080027A0002443E0307804EB0411234A12F8111090
S315080027B0884239D1707804EB041102EB410149785B
S315080027C0884231D108F10F0083B207F10F0082B2B7
S315080027D041463846FFF766FF002522E004EB041061
S315080027E0154901EB4000801C10F805B04FF0000AAF
S315080027F012E00BF08000802803D14846FFF76AFAFA
S3150800280002E00A98FFF766FA4FEA4B604FEA106B48
S315080028100AF1010000F0FF0ABAF1080FE9DB681CAB
S31508002820C5B2202DDADB04E0601CC4B200988442ED
S31508002830B8DB00BFBDE8F88F2F9300082DE9F04FED
S315080028400746884615461E46DDF82490002408EB00
S315080028500600401E83B27819401E82B241463846A9
S31508002860FFF720FFA24618E04FF0000B0FE019F81B
S315080028701400FFF7FFFB012101EB440119F80100E1
S31508002880FFF7F8FB641C0BF101001FFA80FBB34548
S31508002890EDDB0AF101001FFA80FAAA45E4DBBDE880
S315080028A0F08F00002DE9FF4F8DB0804691461C46FB
S315080028B0DDF868A01C9E0025002700214846FDF784
S315080028C0F7FF0CD249460020FDF725FD8146009604
S315080028D02D2240461B9B0E99FFF710FF06E0009637
S315080028E02B2240461B9B0E99FFF708FF09E0052C93
S315080028F003DD14B1601EC4B203E0AAF1010000F0C2
S31508002900FF0A04EB0A000728F1DC4846FDF724FF16
S3150800291005462846FDF7FDFE49460190FDF7FEFCF3
S315080029208346FDF765FF504A504BCDE90201FDF796
S3150800293068FD00224E4BCDE90401FDF709FECDE9FD
S315080029400601FDF73CFF074642F21070B5FBF0F0B2
S315080029500A21B0FBF1F201FB120030308DF8280095
S315080029604FF47A70B5FBF0F0B0FBF1F201FB120000
S3150800297030308DF829006420B5FBF0F0B0FBF1F299
S3150800298001FB120030308DF82A000A20B5FBF0F062
S31508002990B0FBF1F201FB120030308DF82B000A2053
S315080029A0B5FBF0F100FB115030308DF82C000020FB
S315080029B08DF82D0042F21070B7FBF0F00A21B0FB3B
S315080029C0F1F201FB120030308DF820004FF47A70D6
S315080029D0B7FBF0F0B0FBF1F201FB120030308DF8D6
S315080029E021006420B7FBF0F0B0FBF1F201FB120006
S315080029F030308DF822000A20B7FBF0F0B0FBF1F278
S31508002A0001FB120030308DF823000A20B7FBF0F1E5
S31508002A1000FB117030308DF82400002008A901F859
S31508002A200A00C4F105010AABCA1808F1080188B200
S31508002A3000961B9B0E9900F0DDF8611C08EBC1019E
S31508002A4088B200962E221B9B0E99FFF757FEA11CF3
S31508002A5008EBC10188B2009608AA1B9B0E9900F0E4
S31508002A60C9F811B0BDE8F08FF168E388B5F8D43E2F
S31508002A70006AF8402DE9FE430746884614461D4677
S31508002A80DDE90A96002001900290002C09DA6042DE
S31508002A9004B24B462D22414638460096FFF72EFED5
S31508002AA006E04B462B22414638460096FFF726FE9F
S31508002AB0052D00DD052542F2107094FBF0F00A2181
S31508002AC090FBF1F201FB12003030C0B28DF8040021
S31508002AD04FF47A7094FBF0F090FBF1F201FB1200D0
S31508002AE03030C0B28DF80500642094FBF0F090FBFE
S31508002AF0F1F201FB12003030C0B28DF806000A2050
S31508002B0094FBF0F090FBF1F201FB12003030C0B2FA
S31508002B108DF807000A2094FBF0F100FB11403030D5
S31508002B20C0B28DF8080000208DF80900C5F105012E
S31508002B3001ABCA1807F1080188B24B464146009610
S31508002B4000F058F8BDE8FE832DE9FE4306460F4619
S31508002B5014461D46DDE90A89002001900290052DDC
S31508002B6000DD052542F2107094FBF0F00A2190FB77
S31508002B70F1F201FB12003030C0B28DF804004FF4B8
S31508002B807A7094FBF0F090FBF1F201FB1200303002
S31508002B90C0B28DF80500642094FBF0F090FBF1F2CA
S31508002BA001FB12003030C0B28DF806000A2094FBF3
S31508002BB0F0F090FBF1F201FB12003030C0B28DF854
S31508002BC007000A2094FBF0F100FB11403030C0B238
S31508002BD08DF8080000208DF80900C5F1050001A947
S31508002BE04218434639463046CDF8009000F002F8C0
S31508002BF0BDE8FE832DE9F8430646884614469946FD
S31508002C00089F00251BE0207880280CDA0097227898
S31508002C1006EBC50188B24B464146FFF76FFD641CBB
S31508002C20681CC5B20BE006EBC50188B24B462246C6
S31508002C3041460097FFF7ACFDA41CA81CC5B2207836
S31508002C400028E0D1BDE8F8830EB5584820231A4677
S31508002C50002100900846FFF7F1FD4FF6FF701F238D
S31508002C6053A2002100901E20FFF7C4FF4FF6FF7005
S31508002C704FF4784101220223CDE9002102904E4803
S31508002C80102102681E20FFF70DFE4FF6FF704FF663
S31508002C901F034AA2002100904020FFF779FD48480B
S31508002CA020231A46002100904E20FFF7C7FD4FF655
S31508002CB0FF701F2343A2002100907020FFF79AFFA0
S31508002CC04FF6FF704FF4784101220223CDE9002127
S31508002CD002903E48102102686C20FFF7E3FD4FF68C
S31508002CE0FF704FF61F033AA2102100909620FFF7B7
S31508002CF081FF384820231A46232100900020FFF739
S31508002D009DFD4FF6FF701F2333A21E210090282039
S31508002D10FFF770FF4FF6FF704FF478410122052345
S31508002D20CDE9002102902F48302102681E20FFF7C6
S31508002D30B9FD4FF6FF704FF61F032BA23021009006
S31508002D405F20FFF757FF294820231A46462100909F
S31508002D500020FFF773FD4FF6FF701F2324A23C21C6
S31508002D6000902820FFF746FF4FF6FF704FF4784192
S31508002D700423CDE900102148008802B24C212820FE
S31508002D80FFF778FE4FF6FF701F231DA24C21009017
S31508002D905A20FFF72FFF4FF6FF701F2319A2602155
S31508002DA000900020FFF726FF0EBD0000839500085F
S31508002DB054656D700000000090000020A1E6000038
S31508002DC0839D000848756D69000000009400002086
S31508002DD0252500008BA500084C696768745F446167
S31508002DE074610000A40000204C7578008BAD0008C3
S31508002DF0507265737375726500000000A8000020A4
S31508002E00487061002D2D3E53656E736F724D657364
S31508002E10736167653C2D2D007FB505460C4601217B
S31508002E20C802FFF73BFAADF80850ADF80440002099
S31508002E30ADF80A00ADF806008DF80C0001A90E4899
S31508002E4000F04EF9012211460B4800F03EF9192010
S31508002E508DF8000000208DF8010003208DF802008F
S31508002E6001208DF803006846FFF730F90121024872
S31508002E7000F00EF97FBD0000002C014010B50121BD
S31508002E80074800F011F928B106480078012801D151
S31508002E9003F052FC0121024800F0F4F810BD0000CE
S31508002EA0002C01400400002010B50121880700F01D
S31508002EB0FBF818B10121880700F0E7F810BD7FB5C7
S31508002EC005460C4601210846FFF7D8F9ADF8085023
S31508002ED0ADF804400020ADF80A00ADF8060001A9D7
S31508002EE04FF0804000F0FCF801221146900700F0F0
S31508002EF0ECF81C208DF8000000208DF80100032056
S31508002F008DF8020001208DF803006846FFF7DEF809
S31508002F100121880700F0BCF87FBD000010B501212B
S31508002F20054800F0C1F828B10121034800F0ADF8C2
S31508002F3003F0B6FA10BD0000000400407FB5054650
S31508002F400C4601210220FFF799F9ADF80850ADF8B3
S31508002F5004400020ADF80A00ADF8060001A90E48A5
S31508002F6000F0BEF8012211460B4800F0AEF81D200D
S31508002F708DF8000000208DF8010003208DF802006E
S31508002F8001208DF803006846FFF7A0F801210248E2
S31508002F9000F07EF87FBD00000004004010B5012156
S31508002FA0044800F081F818B10121024800F06DF8D4
S31508002FB010BD00000008004010B50121044800F0CB
S31508002FC073F818B10121024800F05FF810BD00003F
S31508002FD0000C004010B50121044800F065F818B14E
S31508002FE00121024800F051F810BD00000010004011
S31508002FF010B50121094800F057F868B1084800885B
S3150800300040F40040064908800121044800F03DF8D4
S315080030100021024800F03CF810BD000000140040F2
S315080030208A0000207FB505460C4601212020FFF7BF
S3150800303025F9ADF80450ADF800400020ADF80600BB
S31508003040ADF8020069460E4800F04AF8012211461A
S315080030500B4800F03AF80121094800F019F8372022
S315080030608DF80C0000208DF80D0002208DF80E005A
S3150800307001208DF80F0003A8FFF728F87FBD000090
S3150800308000140040CA4302827047CA43028270474E
S3150800309021B1028842F00102028004E002884FF65C
S315080030A0FE731A400280704730B50246002000239E
S315080030B00024158A05EA0103958905EA010413B176
S315080030C00CB1012000E0002030BD1AB183890B4302
S315080030D0838102E083898B438381704781847047AB
S315080030E0002202881D4B98420ED01D4B98420BD0E9
S315080030F0B0F1804F08D01B4B984205D01A4B984226
S3150800310002D01A4B984204D14FF68F731A404B8857
S315080031101A43174B984207D0164B984204D04FF6DD
S31508003120FF431A40CB881A4302808B8883850B8815
S3150800313003850A4B98420BD0094B984208D00E4B90
S31508003140984205D00D4B984202D00D4B984201D1BA
S315080031500B7A03860123838270470000002C014006
S31508003160003401400004004000080040000C004004
S315080031700010004000140040004001400044014097
S315080031800048014010B540F225510C4800F0D2F92C
S3150800319070B10A4800F08AFAC4B22146074800F01E
S315080031A08AFA00BF4021054800F0B7F90128F9D18D
S315080031B04021024800F09CF910BD0000004C004078
S315080031C010B540F225510C4800F0B4F970B10A4820
S315080031D000F06CFAC4B22146074800F06CFA00BF4A
S315080031E04021054800F099F90128F9D14021024803
S315080031F000F07EF910BD00000050004010B586B002
S315080032000446012144F20400FFF748F84FF4007021
S31508003210ADF8140003208DF8160018208DF8170055
S3150800322005A91C48FEF7ECFA4FF48060ADF81400C7
S3150800323004208DF8170005A91648FEF7E1FA25209F
S315080032408DF8000003208DF801008DF8020001209A
S315080032508DF803006846FEF739FF01940020ADF8A3
S315080032600800ADF80A00ADF80C00ADF810000C2007
S31508003270ADF80E0001A9084800F0ACF9012240F2A9
S315080032802551054800F080F90121034800F039F975
S3150800329006B010BD000801400038014010B540F2E4
S315080032A025510C4800F046F970B10A4800F0FEF9BD
S315080032B0C4B22146074800F0FEF900BF4021054880
S315080032C000F02BF90128F9D14021024800F010F945
S315080032D010BD00000038014010B586B00446012133
S315080032E00420FEF7DBFF01214804FEF7C7FF042090
S315080032F0ADF8140018208DF8170003208DF8160075
S3150800330005A92548FEF77CFA0820ADF81400042024
S315080033108DF8170005A92048FEF772FA01940020D7
S31508003320ADF80800ADF80A00ADF80C00ADF81000CD
S315080033300C20ADF80E0001A9184800F04BF94FF41F
S31508003340A060FEF7FBFE26208DF8000002208DF80F
S31508003350010003208DF8020001208DF8030068465D
S31508003360FEF7B4FE012240F225510C4800F00CF994
S3150800337001210A4800F0C5F841F61F4140F2E7303E
S31508003380FFF750FE00200649088000210548FFF790
S315080033907FFE06B010BD0000000801400044004052
S315080033A08A0000200014004010B540F22551164846
S315080033B000F0C0F8F8B1144800F078F9C4B2134820
S315080033C0008800F40040B0B910480088B0F5167FB0
S315080033D012DA00210E48FFF781FE0C48008818B95A
S315080033E001210B48FFF754FE08490888411C074A83
S315080033F0118008490C5405E00448008840F4004050
S315080034000249088010BD0000004400408A000020E0
S3150800341000140040E8AE002010B586B0044601212D
S315080034200820FEF73BFF01218804FEF727FF4FF42B
S315080034308060ADF8140018208DF8170003208DF869
S31508003440160005A91E48FEF7DBF94FF40060ADF833
S31508003450140004208DF8170005A91948FEF7D0F9BD
S3150800346001940020ADF80800ADF80A00ADF80C008C
S31508003470ADF810000C20ADF80E0001A9114800F0B7
S31508003480A9F84FF4A060FEF759FE27208DF8000032
S3150800349002208DF8010003208DF8020001208DF826
S315080034A003006846FEF712FE012240F22551054840
S315080034B000F06AF80121034800F023F806B010BDB1
S315080034C0000C01400048004008B540F22551074865
S315080034D000F030F840B1054800F0E8F8C0B20090B6
S315080034E00121684602F096FE08BD0000004800402B
S315080034F001F40072B2F5007F00D100BFCA43028012
S31508003500704721B1828942F40052828104E082899F
S315080035104DF6FF731A408281704702460020B1F5C6
S31508003520007F00D100BF13880B400BB1012000E0DB
S315080035300020704770B502460024002300250020AD
S3150800354040F66A16B14200D100BFC1F3421501F038
S315080035501F03012606FA03F3012D02D1968933408B
S3150800356006E0022D02D1168A334001E0968A3340DE
S315080035700C12012606FA04F41688344013B10CB16D
S31508003580012000E0002070BDF0B5034600240026A7
S315080035900025002040F66A17B94200D100BF184638
S315080035A0C1F3421401F01F06012707FA06F5012C9C
S315080035B001D10C3004E0022C01D1103000E01430A7
S315080035C01AB107682F43076002E00768AF43076030
S315080035D0F0BD00002DE9F04786B005460E460024EA
S315080035E0A24600BFA1460027B08900B100BF2F46FA
S315080035F02C8A4CF6FF700440F08804432C82AC8970
S315080036004EF6F3100440B08831890843718908439F
S315080036100443AC81AC8A4FF6FF400440B0890443AA
S31508003620AC8201A8FEF74AFE1F48874202D1DDF8A0
S3150800363010A001E0DDF80CA0A88900F4004040B114
S315080036400AEBCA0000EB0A1031684900B0FBF1F832
S3150800365007E00AEBCA0000EB0A1031688900B0FBE4
S31508003660F1F86420B8FBF0F004012009642101FB9D
S315080036701089A88900F4004040B1322000EBC90047
S31508003680B0FBF1F000F00700044308E0322000EB3D
S3150800369009106421B0FBF1F000F00F0004432C81FF
S315080036A006B0BDE8F087000000380140014688886A
S315080036B0C0F308007047C1F308028280704700BF54
S315080036C0FEE700000FB4054B10B503A9044A02989B
S315080036D000F090F910BC5DF814FB0000114D0008CD
S315080036E0C80000200FB4084B10B504A902AA039815
S315080036F000F080F9044602A9002000F0FEFC2046EE
S3150800370010BC5DF814FB0000FB40000837B51446F2
S315080037100846064B6A46214600F06CF90446694697
S31508003720002000F0EAFC20463EBD0000FB400008F1
S31508003730490050EAC12018BF04204A0D18BF40F0BE
S31508003740010040F2FF72B2EB515F08BF40F0020081
S31508003750012808BF052070472DE9F0414F1E00EBF0
S31508003760C7010446D1E9000115461E4637F0060290
S315080037700DD02A463346FCF7EBFE7F1E04EBC70343
S31508003780D3E90023FCF73DFE37F00602F1D1022FFC
S3150800379025D0042F13D0062F18BFBDE8F0812A467E
S315080037A03346FCF7D5FED4E90A23FCF72AFE2A4657
S315080037B03346FCF7CDFED4E90823FCF722FE2A4659
S315080037C03346FCF7C5FED4E90623FCF71AFE2A465B
S315080037D03346FCF7BDFED4E90423FCF712FE2A465D
S315080037E03346FCF7B5FED4E90223FCF70AFE2A465F
S315080037F03346FCF7ADFED4E90023BDE8F041FCF7FB
S3150800380000BE00000022134610460149FCF712BF0D
S315080038100000F03FFCF7F5BD00221346104611469E
S31508003820FCF708BF40F2013200204FF0E041FDF7F7
S315080038305FB90000024A00201107FDF759B90000D8
S3150800384001FDFFFF02E008C8121F08C1002AFAD1CD
S3150800385070477047002001E001C1121F002AFBD102
S31508003860704700000149086070470000CC0000203E
S315080038702DE9FF5F82B00021DDE90430020DDDF895
S3150800388040B0034318D044F61050A2F2FF32424328
S315080038901514119801281FD0A5EB0B00401C5FEAF0
S315080038A0000A4FF000064E4FDFF83891B0465046F2
S315080038B015D5CAF1000413E0119801244AA301287A
S315080038C001D16FEA0B010298119AC0E90031C0E9EB
S315080038D0024206B0BDE8F09FCBF10000DFE70446E0
S315080038E00021404A491842EB0450CDE9001012E085
S315080038F0E00707D032463B4640464946FCF728FED5
S315080039008046894632463B4610461946FCF720FE55
S3150800391006460F466410002CEAD1DDE90401DDE90C
S315080039200023BAF1000F06DAFCF712FE42464B46B0
S31508003930FCF70EFE05E0FCF77DFE42464B46FCF71B
S3150800394079FE04460E460022284BFCF77DFF03D875
S315080039504FF0FF30014607E00022254B204631464E
S31508003960FCF74FFDFDF7DBF8102409E0002C0ADB15
S315080039700A220023FCF7C6FF039B30321A55641E41
S3150800398050EA0102F2D1641C039AC4F111031444EB
S31508003990119A012A03D0012208430DD10AE00843EF
S315080039A004D000204FF0110B119072E7A3EB0B0522
S315080039B06D1E0DE05B4504DD4FF0000205F10105C3
S315080039C004E003DA4FF00002A5F10105002AECD065
S315080039D002981199C0E90231C0E9004579E700006B
S315080039E0000014400000F03F300000000000F043E3
S315080039F00000E03F2DE9FF4F95B09A4688460646F7
S31508003A000025EEE1252877D100242746F94A012129
S31508003A10039400E0044316F8013F203B01FA03F043
S31508003A201042F7D130782A2811D06FF02F0330785A
S31508003A30A0F13002092A16D8039A44F0020402EBD0
S31508003A40820203EB42021044761C0390EFE758F813
S31508003A50042B0392002A03DA504244F400540390DC
S31508003A6044F00204761C30782E2816D116F8010F79
S31508003A7044F004042A280DD06FF02F023078A0F104
S31508003A803003092B09D807EB870302EB4303C71852
S31508003A90761CF3E758F8047B761C30786C280FD030
S31508003AA006DC4C2817D068280DD06A2814D104E003
S31508003AB0742810D07A280FD10DE044F400140AE0D7
S31508003AC044F4801401E044F440147278824202D12E
S31508003AD004F58014761C761C307866280BD013DC27
S31508003AE0582877D009DC002875D04528F6D046280E
S31508003AF0F4D047281AD193E118E0632835D0642812
S31508003B0079D0652812D18BE1702873D008DC672834
S31508003B10F1D069286FD06E280DD06F2806D1ACE099
S31508003B2073282CD0752874D0782853D05246179904
S31508003B3090476D1C54E1C4F30250022809D00328AB
S31508003B400DD0D8F8001004280DD00D6008F104082F
S31508003B5046E1D8F80010EA17C1E90052F6E7D8F8A6
S31508003B6000100D80F2E70D70F0E718F8041B8DF8C9
S31508003B70001000208DF80100EB46012003E058F8FC
S31508003B8004BB4FF0FF3061074FF0000102D40DE08F
S31508003B9009F101018946B9420FDA8145F8DB1BF8BC
S31508003BA009100029F4D108E009F10101894681428A
S31508003BB0FADB1BF809100029F6D103985346A0EB47
S31508003BC0090721463846179A00F080FA284400EB80
S31508003BD0090507E044E008E10DE01BF8010B524631
S31508003BE017999047B9F10109F7D253462146384645
S31508003BF0179AF2E039E00A21C4F302524FF0000B9B
S31508003C000091022A06D058F8040BC117032A09D0D6
S31508003C100AE023E008F1070020F00702F2E80201B3
S31508003C20904605E000B2C117042A01D140B2C11777
S31508003C30002906DA0A460021404261EB02012D22DC
S31508003C4002E0220504D52B228DF80420012203E088
S31508003C50E20701D02022F7E7914657E00A2100E063
S31508003C6010214FF0000B00910BE010214FF0000BD4
S31508003C7044F004040827009103E008204FF0000BE5
S31508003C800090C4F30252022A05D058F8040B00210A
S31508003C90032A08D008E008F1070020F00702F2E836
S31508003CA00201904603E080B2042A00D1C0B24FF068
S31508003CB0000922072AD53278702A07D0DDF800C015
S31508003CC08CF0100C5CEA0B0C05D00EE040228DF847
S31508003CD00420012208E050EA010306D030238DF8BB
S31508003CE004308DF8052002229146009B83F00803D4
S31508003CF053EA0B030AD150EA010201D1620705D53E
S31508003D0030228DF804204FF001097F1E3278582A98
S31508003D1004D039A20C920CAA02920BE03BA2F9E756
S31508003D205B46009AFCF7EEFD0C9B9B5C029A521EC2
S31508003D300292137050EA0102F2D1029804A9081AF5
S31508003D4000F1200B600702D524F4803400E0012737
S31508003D505F4502DDA7EB0B0000E0002000EB0B013E
S31508003D60009003984944401A0390E00306D453464A
S31508003D702146179A039800F0A9F90544002706E09A
S31508003D8001A85246C05D179990476D1C7F1C4F4588
S31508003D90F6DBE0030CD553462146179A039800F044
S31508003DA095F9054404E030205246179990476D1C52
S31508003DB00099481E00900029F5DC08E0029802994F
S31508003DC052460078491C0291179990476D1CBBF121
S31508003DD00001ABF1010BF1DC5BE100F065F905448C
S31508003DE0761C307800287FF40DAE19B02846BDE859
S31508003DF0F08F000009280100303132333435363768
S31508003E003839616263646566000000003031323318
S31508003E1034353637383941424344454600000000B8
S31508003E20600700D4062708F1070020F00700F0E82D
S31508003E300223804603F0004C5FEA0C0001D097A0ED
S31508003E4009E0200501D596A005E0E00701D095A078
S31508003E5001E0AFF24C001390307823F00043652858
S31508003E600CD006DC452809D046281DD047287FD126
S31508003E703BE0662818D067287AD136E00021112F52
S31508003E8001DB112000E0781CCDE9000104A90CA88B
S31508003E90FFF7EEFCDDE90D010C9A4FF0000B07F178
S31508003EA00109109200914EE04FF000400097CDE9CD
S31508003EB0011004A90CA8FFF7DBFCDDE90D020C9B39
S31508003EC00F994FF0000B91461093009211B9791C87
S31508003ED000EB0109B7EB090003D4C0F1FF3B07F17A
S31508003EE00109A9EB0700019042E0012F00DA01273A
S31508003EF00021112F01DD112000E03846CDE900012F
S31508003F0004A90CA8FFF7B4FCDDE90D010C9A009191
S31508003F104FF0000BB946109221070FD4009A4A4574
S31508003F2003DA914601E0A9F10109B9F1010F05DDAE
S31508003F30109AA9F10101515C3029F4D0B84202DA8D
S31508003F4010F1040F03DA0121CDE9011010E0002871
S31508003F5003DC8344A9EB000102E0411C494500DD6E
S31508003F608946A0EB0B00401C01904FF000400290E0
S31508003F70200705D40198484502DB4FF0FF30019031
S31508003F8000208DF84B0002980DF14B07B0F1004F59
S31508003F9025D002200C902B200D90029800280CDAD0
S31508003FA0404202902D200D9007E00A210298FCF766
S31508003FB093FC3031029007F8011D0C99481E0C90AD
S31508003FC00029F2DC02980028EFD1791E0D980870B6
S31508003FD0307800F0200040F0450007F8020D11A8DF
S31508003FE0C01BC01D02901398007800B1012000EB99
S31508003FF00901019801EBE071029801440398401AFF
S31508004000401E0390E00306D453462146179A0398A8
S3150800401000F05CF805441398007818B152461799D1
S3150800402090476D1CE00323D553462146179A0398FB
S3150800403000F04CF805441BE0BBF1000F07DB0098C5
S31508004040584504DD1098179910F80B0001E01799E8
S3150800405030205246904701980BF1010B401E05F19E
S315080040600105019004D12E205246179990476D1CE0
S31508004070B9F10001A9F10109DEDC05E017F8010B29
S315080040805246179990476D1C0299481E02900029BE
S31508004090F4DC53462146179A03989EE62D00000045
S315080040A02B000000200000002DE9F0410446002501
S315080040B01E461746880404D405E039462020B04732
S315080040C06D1C641EF9D52846BDE8F0812DE9F0413E
S315080040D0044600251E469046C80301D5302700E051
S315080040E02027880404D505E041463846B0476D1CAC
S315080040F0641EF9D52846BDE8F0810A68531C0B6092
S315080041001070704710B500BF1748008800F04000CF
S315080041100028F9D02B201449091D08800F2000F02B
S3150800412091FC00BF1048008800F040000028F9D034
S315080041302B200D49091D08800F2000F083FC00BFC5
S315080041400948008800F040000028F9D02B200649CD
S31508004150091D08804FF4FA7000F074FC142203A1BC
S3150800416003A000F0D5FC10BD004400404F4B0000F2
S31508004170415400002DE9F14F82B068488069C117A3
S315080041804FF4FA33C41A61F10005A4FB041005FBC9
S31508004190040004FB05026148B0F910004FEAE07C10
S315080041A0A1FB008A02FB00A001FB0C095B48B0F9E1
S315080041B00E00C117A0FB042301FB043100FB051008
S315080041C0400440EAD230510411EB080840EB0909D3
S315080041D05248B0F90C0018F1000849EBC009A4FBD5
S315080041E0041005FB040004FB05024C48B0F90A005C
S315080041F04FEAE07CA1FB003A02FB00A001FB0C00A1
S315080042004FEA132141EA00614FEA20224348B0F9F8
S3150800421008004FEAE073A446A0FB0CBE03FB04E3C8
S3150800422000FB05304FEA003040EA1B504FEA0B33DB
S31508004230CC1842EB0005231C45F5004C3749C888C5
S315080042400022A3FB00A10CFB001003FB02014C108B
S31508004250CD17002184EA01006940084301D1BDE871
S31508004260FE8F0298C0F58010C7170646F80740EA81
S315080042705600F207B2EB080160EB090240F635403A
S315080042800023A1FB00CA02FB00A001FB0300224693
S315080042902B46CDE900C060460199FBF767FF064645
S315080042A00F461E48B0F91600C217710B41EAC74CF3
S315080042B07B13A0FB0C1A02FB0CA200FB0322700B5B
S315080042C040EAC74C7B13A1FB0C0A02FB0CA201FBBC
S315080042D00321400E40EAC1144D161048B0F91400E7
S315080042E0C117A0FB062301FB063100FB0711D00C02
S315080042F040EA41384FEAE149311947EB050011EB2D
S31508004300080140EB0900090A41EA00610348B0F9CF
S31508004310120000010E183046A1E7000070020020C6
S3150800432030B50146CC100F4D2D88A4EB45040D4D34
S31508004330B5F902506C43E2120A4C2488C4EB2114E6
S3150800434064432413074DB5F904506C43A313D418DA
S31508004350044DAC612C46A46904EB84048034201215
S3150800436030BD0000700200202DE9F05F0446894642
S31508004370924600F03DF818480068FFF7D1FF8346DB
S31508004380FCF7CCF907460022144BFCF753F905460F
S31508004390FCF772FA1249086012480068FFF7EAFE4D
S315080043A08346FCF7CCF9054600220F4BFCF742F989
S315080043B00746FCF761FA0D49086021460B4804F0E8
S315080043C0C1F807480068C9F80000204600F078F8E8
S315080043D0CAF80000BDE8F09F2800002000005940F8
S315080043E030000020240000200000D94034000020BE
S315080043F01CB56B460622F721EC20FCF7D3FF9DF887
S31508004400000000039DF8011040EA01109DF8021013
S3150800441040EA1110074908609DF8030000039DF85B
S31508004420041040EA01109DF8051040EA11100249EF
S3150800443008601CBD240000202800002010B518487C
S31508004440007808B1012010BDFCF77AFE142000F0B0
S31508004450F9FAD021EC20FCF7D5FF12490870084676
S315080044600078582805D1084601780FA0FFF72AF9E1
S3150800447001E00020E7E7114B18228821EC20FCF721
S3150800448091FFB322F421EC20FCF7DCFF1422F5217E
S31508004490EC20FCF7D7FF01200149087000BFD2E7DE
S315080044A02100002020000020424D5032383020499B
S315080044B0442049533A20307825580A0070020020D3
S315080044C02DE9FF5F82460021DAF80000FCF7FAF9C9
S315080044D025D21448DAF80010FBF755FF8346FCF797
S315080044E087F9114A114BCDE9000103F03FFB064657
S315080044F000220F4BFCF726F84FF0C0420D4BCDE9D2
S315080045000201FCF725F880464FF000420A4BFCF7FB
S3150800451091F80446FCF7B0F904B0BDE8F09F002016
S31508004520FAE70000CDEC7D4428610C878A5AC83F1B
S315080045300000F03F66A27240BE9F7A3F70B50446FF
S3150800454022E02568A08900F4807020B9A06810B11F
S31508004550A068FFF7F3FFA08900F4807028B92069E6
S3150800456018B10B49206909688847A08900F40070CA
S3150800457028B9206A18B10649206A0968884720467A
S315080045800349096888472C46002CDAD170BD00001B
S31508004590400000200246906801E0491E006808B104
S315080045A00029FADC704701468A68002001E0401CB1
S315080045B01268002AFBD1704701480068704700005E
S315080045C03800002070B505460E46AC6800E0246841
S315080045D02CB13146206A00F0EDF90028F7D12046C3
S315080045E070BD000010B528200549096888470446AB
S315080045F01CB128212046FBF709FE204610BD000005
S315080046003C00002010B5044600221146204600F062
S3150800461001F810BD2DE9F04780460D4616460024E0
S31508004620FFF7E0FF07460020124908600FB9BDE80A
S31508004630F087404604F0E1F881464946384603F0DB
S3150800464037FA044624B93846FFF778FF0020EEE724
S3150800465066B1204604F0D1F80446207830B13846D1
S31508004660FFF76CFF034804600020E0E705B12C6003
S315080046703846DCE7380000202DE9F84F80460D461D
S315080046804046FFF7BFFF07464FB9FFF795FF83463A
S31508004690594689A0FFF716F80120BDE8F88F8CA1C6
S315080046A03846FFF78FFF81464846FFF77CFF0090A4
S315080046B089A00099FFF706F800214846FFF76AFF28
S315080046C0B0F1000A7DD08CA15046FFF77BFF061E8D
S315080046D078D08C48FEF7F6FF8BA13046FFF772FFBD
S315080046E0041E0ED089A0D4E90313226AFEF7EAFF56
S315080046F02069FBF7A8FD83465A4628462169FBF739
S315080047006CFD92A13046FFF75DFF041E0FD07FA017
S31508004710D4E90313226AFEF7D5FF2069FBF793FD58
S3150800472083465A4605F120002169FBF756FD89A103
S315080047303046FFF747FF041E0FD074A0D4E90313D1
S31508004740226AFEF7BFFF2069FBF77DFD83465A46BE
S3150800475005F140002169FBF740FD80A13046FFF7CF
S3150800476031FF041E0FD069A0D4E90313226AFEF7AD
S31508004770A9FF2069FBF767FD83465A4605F16000E5
S315080047802169FBF72AFD77A13046FFF71BFF041EB8
S315080047900FD05EA0D4E90313226AFEF793FF2069BF
S315080047A0FBF751FD83465A4605F1A0002169FBF740
S315080047B014FD6FA13046FFF705FF041E12D053A063
S315080047C001E073E00EE0D4E90313226AFEF77AFFEC
S315080047D02069FBF738FD83465A4605F1C000216972
S315080047E0FBF7FBFC66A15046FFF7ECFE061E44D01D
S315080047F06448FEF767FF64A13046FFF7E3FE041E30
S315080048000FD042A0D4E90313226AFEF75BFF2069A2
S31508004810FBF719FD83465A4605F1E0002169FBF7C7
S31508004820DCFC5BA13046FFF7CDFE041E0FD037A097
S31508004830D4E90313226AFEF745FF2069FBF703FD57
S3150800484083465A4605F580702169FBF7C6FC52A1D6
S315080048503046FFF7B7FE041E0FD02CA0D4E9031389
S31508004860226AFEF72FFF2069FBF7EDFC83465A46BE
S3150800487005F590702169FBF7B0FC4AA15046FFF791
S31508004880A1FE061E12D04A48FEF71CFF1FA0D6E955
S315080048900313326AFEF716FF3069FBF7D4FC83462A
S315080048A05A4605F5A0702169FBF797FC00BF384604
S315080048B0FFF744FE0020F0E64572726F72206265CB
S315080048C0666F72653A205B25735D200D0A0000004D
S315080048D0726573756C747300634A534F4E5F476510
S315080048E074417272617953697A653A2073697A6597
S315080048F03D2564200D0A00006C6F636174696F6E54
S31508004900000000004826010869640000634A534F06
S315080049104E5F4765744F626A6563744974656D3A9C
S3150800492020747970653D25642C20737472696E67EE
S315080049302069732025732C76616C756573747269AA
S315080049406E673D2573200D0A000000006E616D65D7
S3150800495000000000636F756E747279007061746888
S315080049600000000074696D657A6F6E6500000000CE
S3150800497074696D657A6F6E655F6F666673657400D8
S315080049806E6F770098260108746578740000000039
S31508004990636F64650000000074656D70657261740C
S315080049A0757265006C6173745F7570646174650017
S315080049B0E826010870B504460D462CB9AC4201D06C
S315080049C0012070BD0020FCE70DB90120F9E705E0DC
S315080049D0207808B90020F4E7641C6D1C2078FBF7E2
S315080049E0F6FB06462878FBF7F2FB8642F0D02078DD
S315080049F0FBF7EDFB06462878FBF7E9FB301AE0E7FC
S31508004A0010B56FF00400FDF78BFD0A4800680A49E7
S31508004A10B0FBF1F0094908700846007800EB400140
S31508004A20C1EBC0104FF6FF7101EAC00004490880C7
S31508004A3010BD0000B400002000127A008C0000208F
S31508004A408E0000200146114A12884A434FF0E0239F
S31508004A505A6100229A611A46126942F001021A61E5
S31508004A6000BF4FF0E022106900F001021AB100F40D
S31508004A708032002AF5D04FF0E022126922F00102B6
S31508004A804FF0E0231A6100229A6170478E000020D9
S31508004A900146114A12784A434FF0E0235A61002230
S31508004AA09A611A46126942F001021A6100BF4FF074
S31508004AB0E022106900F001021AB100F48032002ADF
S31508004AC0F5D04FF0E022126922F001024FF0E02300
S31508004AD01A6100229A6170478C00002070B504465E
S31508004AE000250948008800F4004058B1002006490E
S31508004AF00988C1F30E01054A505421461046FBF7B2
S31508004B0090FB0546284670BD8A000020E8AE0020C6
S31508004B102DE9F04106460D461446002700201349A4
S31508004B200880314612A003F015FFE5B1DCB113E0A9
S31508004B300A20FFF787FF0D48008800F4004058B1A7
S31508004B402846FFF7CBFF20B129460BA0FEF7BAFD92
S31508004B5006E0002005490880601E80B2041EE7D1E1
S31508004B6000BF04B901273846BDE8F0818A00002055
S31508004B7025730D0A00000000726563656976653A5B
S31508004B8025730D0A0000000010B53221002002F03E
S31508004B9043FC044625A0FEF795FD00BF142226A176
S31508004BA026A0FFF7B5FF0028F8D125A0FEF78AFD55
S31508004BB0322221A127A0FFF7ABFF29A0FEF782FD2D
S31508004BC014221DA12AA0FFF7A3FF4FF47A70FFF75E
S31508004BD039FF4FF47A70FFF735FF4FF47A70FFF715
S31508004BE031FF25A0FEF76EFD142213A127A0FFF7BB
S31508004BF08FFF29480368294829A102682046FEF73D
S31508004C0071FD25480268254801682AA0FEF75AFD65
S31508004C1000BF4FF496722EA12046FFF779FF0028B1
S31508004C20F7D1214602F0E6FB10BD000073656E64FD
S31508004C303A41540D0A0000004F4B00004154000051
S31508004C4073656E643A41542B43574D4F44453D3185
S31508004C500D0A000041542B43574D4F44453D310042
S31508004C6073656E643A41542B5253540D0A00000082
S31508004C7041542B525354000073656E643A41542BC9
S31508004C804349504D55583D300D0A000041542B43B9
S31508004C9049504D55583D30004C0000204800002032
S31508004CA041542B43574A41503D222573222C222535
S31508004CB07322000073656E643A41542B43574A4188
S31508004CC0503D222573222C222573220D0A0000004E
S31508004CD05749464920474F542049500001B581B0ED
S31508004CE000200090694601AA50780870107848702C
S31508004CF0BDF800000CBD0146080601F47F4240EAF3
S31508004D00022001F47F0240EA122040EA116070474F
S31508004D1070B504460D46E1B20548FEF7CCFC00BF67
S31508004D2080210348FEF7F9FB0028F9D0204670BD1C
S31508004D300038014010B52821002002F06DFB3B49E0
S31508004D4008603BA33BA240A138480068FEF7CAFCAE
S31508004D5037A238A143A0FEF7B5FCC8224AA13348BA
S31508004D600068FFF7D5FE0446012C06D12F480168D6
S31508004D70002002F03FFB012010BD4FF49670FFF7AC
S31508004D8061FE42A0FEF79EFC64223FA144A0FFF705
S31508004D90BFFE00204649088046A0FEF793FC642221
S31508004DA039A149A0FFF7B4FE4AA0FEF78BFC4E488E
S31508004DB003F0D0FD1420FFF745FE00203C4908808B
S31508004DC04FF47A70FFF73EFE3948008800F4004039
S31508004DD030B1002036490988C1F30E01434A5054C0
S31508004DE0424943A0FEF76EFC46494048FFF744FC9B
S31508004DF045A0FEF767FC4349E0314AA0FEF762FC8E
S31508004E004A4948A0FEF75EFCFFF77CF948A0FEF782
S31508004E1059FC32221CA14BA0FFF77AFE0348016811
S31508004E20002002F0E7FA0020A6E700005000002064
S31508004E30383000006170692E73656E697665727325
S31508004E40652E636F6D00000041542B43495053543F
S31508004E504152543D22544350222C222573222C259C
S31508004E607300000073656E643A41542B43495053EE
S31508004E70544152543D22544350222C222573222C4D
S31508004E8025730D0A000000004F4B000073656E6421
S31508004E903A41542B4349504D4F44453D310D0A0084
S31508004EA041542B4349504D4F44453D3100000000C5
S31508004EB08A00002073656E643A41542B4349505367
S31508004EC0454E440D0A00000041542B4349505345B2
S31508004ED04E4400007374617274207472616E732E8E
S31508004EE02E2E0D0A00000000D8250108E8AE002085
S31508004EF05553415254325F52585F4255463D2573C9
S31508004F000D0A0000A0020020B4F2D3A1BDE1B9B990
S31508004F10CCE5C4DAC4DAC8DDC8E7CFC2A3BA200D27
S31508004F200A0000002573200D0A000000C0030020B7
S31508004F3073656E643A41542B434950434C4F53456D
S31508004F400D0A000041542B434950434C4F5345002A
S31508004F50024612B102F0070028B9082901D8002034
S31508004F6070470120FCE702F00700C0F108008842FC
S31508004F7001D30020F4E70120F2E730B502460B46DC
S31508004F800021002400250AB9481E30BD002108E08A
S31508004F90545C581A401E155C5554581A401E145431
S31508004FA0491CB1EB530FF3D30020EEE72DE9F0418E
S31508004FB004460D460027002604B135B930A0FEF791
S31508004FC081FB4FF0FF30BDE8F08100F0A5F90646F9
S31508004FD028782178884203D033A0FEF773FB01278F
S31508004FE0D4F80110D5F80100FBF762FC0AD0334863
S31508004FF00068301A41F27071884203D330A0FEF778
S3150800500061FB0127D4F80510D5F80500FBF750FC1D
S315080050100AD02A480068301A41F27071884203D3D0
S315080050202CA0FEF74FFB0127D5F80900D4F8091084
S3150800503088420AD021480068301A41F270718842C5
S3150800504003D329A0FEF73EFB0127D4F80D10D5F8A7
S315080050500D00FBF72DFC0AD018480068301A41F2FB
S315080050607071884203D325A0FEF72CFB0127012F78
S3150800507003D100F051F9114908603846A3E700004A
S3150800508067697A436865636B5265706F7274204509
S3150800509072726F72202C20496C6C6567616C2050A7
S315080050A06172616D0A00000076616C75654C454455
S315080050B0204368616E6765640A00000008000020E6
S315080050C076616C756554656D70204368616E6765B9
S315080050D0640A000076616C756548756D20436861E1
S315080050E06E6765640A00000076616C7565507265C6
S315080050F07373204368616E6765640A0076616C7530
S31508005100654C696768745F496E74656E736974790E
S31508005110204368616E6765640A000000F8B50546B5
S315080051200C4616460DB104B12EB910A0FEF7CAFA00
S315080051304FF0FF30F8BD287800F0010098B1112132
S315080051402278601C81542078401C207001206B1C3A
S31508005150024600210090084601F040F908B10120F6
S3150800516000E0002030700020E4E7000067697A4418
S31508005170617461506F696E74324576656E74204548
S3150800518072726F72202C20496C6C6567616C2050B6
S315080051906172616D0A000000F8B505460C4605B156
S315080051A02CB921A0FEF78EFA4FF0FF30F8BD00208B
S315080051B020706D1C15F8010C234601220021009071
S315080051C0084601F0CBF801212046FFF7D6FE2A68EB
S315080051D00021214801F073F986B23046FFF77EFDBB
S315080051E024F8010F6A6800211B4801F068F986B2A5
S315080051F03046FFF773FD6080AA680021012001F0A0
S3150800520057F986B23046FFF769FDA080EA686D1E39
S315080052100021114801F053F90646FFF76CFDC4F862
S315080052200600641E0020C1E767697A44617461500C
S315080052306F696E7473325265706F7274446174610B
S31508005240204572726F72202C20496C6C6567616C00
S3150800525020506172616D0A00CDCCCC3D70B5054613
S3150800526000F05AF804461D492846FFF79FFE012814
S3150800527013D11BA0FEF726FA18491C392846FFF752
S315080052808BFF28B90B2215491C39042000F0FCFFB6
S31508005290112229461148FAF7A0FF1748B4FBF0F186
S315080052A000FB1140C8B915480068A04215D014A0E3
S315080052B0FEF708FA09491C392846FFF76DFF28B991
S315080052C00B2206491C39042000F0DEFF112229466C
S315080052D00248FAF782FF0948046070BDBE01002043
S315080052E06368616E6765642C207265706F727420DE
S315080052F0646174610A000000C02709000C000020E0
S31508005300496E666F3A2036303053207265706F7278
S315080053107420646174610A000148006870470000DF
S315080053200000002010B5174890F84E00012827D134
S31508005330144890F84D0002281DDAFFF7EDFF1149D1
S31508005340D1F87110401AC8281AD9FFF7E5FF0446A4
S315080053500C4890F84D30D0F8712021460AA0FEF787
S31508005360B1F900F0AFFE074890F84D00401C05491A
S3150800537081F84D0004E0282102484D30FAF746FF2F
S3150800538010BD0000E10000205761726E696E673A31
S3150800539067697A50726F746F636F6C526573656E66
S315080053A064446174612025642025642025640A000C
S315080053B03EB50446002524B913A0FEF783F9681EF6
S315080053C03EBD20680090606801909DF80400401C6E
S315080053D0C0B28DF804000520FFF780FCADF8020086
S315080053E00921684600F0ACFE8DF8080009216846D8
S315080053F003F0D8FA0546002D03DA29460DA0FEF774
S3150800540061F92846DCE700004552523A2067697A76
S3150800541050726F746F636F6C436F6D6D6F6E41631F
S315080054206B206461746120697320656D70747920DE
S315080054300A0000004552523A20756172742077724C
S31508005440697465206572726F72202564200A0000EF
S31508005450FEB504460E46002524B914A0FEF732F917
S31508005460681EFEBD684600F0D7F912208DF80400C4
S3150800547060798DF805000620FFF730FCADF80200CC
S315080054808DF808600A21684600F05AFE8DF8090072
S315080054900A21684603F086FA0546002D03DA2946EE
S315080054A00DA0FEF70FF92846DBE7000067697A507A
S315080054B0726F746F636F6C4572726F72436D64209E
S315080054C04572726F72202C20496C6C6567616C207E
S315080054D0506172616D0A00004552523A2075617238
S315080054E074207772697465206572726F72202564FC
S315080054F0200A000030B59DB0044600252CB92BA023
S31508005500FEF7E0F8681E1DB030BD684600F084F965
S3150800551002208DF8040060798DF805002FA103C9D3
S31508005520CDE9020130A103C9CDE9040131A103C9BE
S31508005530CDE9080132A103C9CDE90601202233A12C
S315080055400AA8FAF74AFE202239A10DF15200FAF705
S3150800555044FE0020CDF84A00CDF84E009DF85100D3
S315080055608DF851009DF8510040F002018DF8511058
S315080055700020FFF7B3FBADF848006F20FFF7AEFB3E
S31508005580ADF802007321684600F0DAFD8DF8720066
S315080055907321684603F006FA0546002D03DA294604
S315080055A02CA0FEF78FF82846ADE7000067697A5009
S315080055B0726F746F636F6C4765744465766963656B
S315080055C0496E666F204572726F72202C20496C6C8A
S315080055D06567616C20506172616D0A003030303049
S315080055E03030303400000000303030303030303267
S315080055F00000000030333033303030300000000017
S315080056003033303130313030000000006632353604
S31508005610653933643266623134333764626366628D
S31508005620633437333934366636633961000000002F
S31508005630646232333236663164613232343261370B
S3150800564061633263353766363331373431646431F2
S31508005650000000004552523A207561727420777234
S31508005660697465206572726F72202564200A0000CD
S315080056702DE9FE4F80460E4617464FF0000B0020D8
S31508005680029081468246002534460090B8F1000F04
S3150800569001D006B137B950A0FEF714F84FF0FF3025
S315080056A0BDE8FE8F404602F0CDFF00F0FF0ABAF1D2
S315080056B0000F02D14FF0FF30F2E74FF000095DE02E
S315080056C0012201A9404602F0FAFF8346BBF1000F0A
S315080056D052D04D480078FF281FD19DF80400FF28B6
S315080056E01BD14A48007848B9FF2020706070022014
S315080056F04749088001204549087034E04448008835
S31508005700042830DD42480088A8422CD0FF202070AB
S31508005710607002203E49088025E03B480078FF2853
S3150800572003D19DF8040055281DD038480078012873
S3150800573019D19DF804003649098860543448008810
S31508005740401C334908800846008804280BDD00946D
S31508005750009C6088FFF7C2FA001D85B22C480088B5
S31508005760A84200D10CE09DF8040027490870294892
S315080057700078401C2749087009F10109D1459FDBCB
S3150800578000BF23480088042823DD21480088A84252
S315080057901FD11F480188204600F0D2FC02901C4801
S315080057A00088401E215C029881420FD12A46214674
S315080057B03046FAF712FD3D80002014490870144956
S315080057C00880144908701049087069E76FF00100ED
S315080057D066E7012064E7000067697A50726F746FA4
S315080057E0636F6C4765744F6E655061636B657420B3
S315080057F04572726F72202C20496C6C6567616C204B
S31508005800506172616D0A000014000020100000202B
S31508005810120000201500002010B504462CB907A078
S31508005820FDF750FF4FF0FF3010BD0020206060608C
S31508005830FF20207060700020F6E700004552523ABB
S315080058402067697A50726F746F636F6C486561641C
S31508005850496E6974206865616420697320656D7096
S315080058607479200A000000002DE9F04F91B0064631
S315080058708B4617469946002010908246804600259A
S315080058806C46BBF1000F06D130A0FDF71BFF681E62
S3150800589011B0BDE8F08FB9F1010F06D196F808806E
S315080058A008F10600384485B201E0781D85B22B461A
S315080058B0424639462BA0FDF705FFFF2004F8010BE9
S315080058C004F8010B281204F8010B04F8015B30797F
S315080058D0401C04F8010B707904F8010B002004F849
S315080058E0010B04F8019B4FF0080AB9F1010F0CD11E
S315080058F004F8018B0AF1010A0DEB0A00424606F18B
S315080059000901FAF76AFCC24444442FB10DEB0A00B8
S315080059103A465946FAF761FC291D684600F010FC1C
S315080059200146E81C0DF80010291D684603F03AF8F0
S3150800593010901098002806DA14A01099FDF7C2FEF8
S315080059406FF00100A4E70020A2E700005B45525271
S315080059505D202064617461204973204E756C6C204B
S315080059600A0000006C656E203D202564202C2073FB
S315080059704469644C656E203D202564202C6461745E
S31508005980615F6C656E203D2025640A00756172743E
S31508005990207772697465206572726F72202564209B
S315080059A00A0000002DE9F04780460C4617461D46BA
S315080059B0089E94F800900CB105B136B933A0FDF7EE
S315080059C081FE4FF0FF30BDE8F087B8F1000F5AD1DD
S315080059D013213A48FAF71AFCB9F1010F06D0B9F1C2
S315080059E0020F11D0B9F1050F4BD12AE0334A5732CD
S315080059F03249601CFFF792FB01203049753908705F
S31508005A000025002030603DE02C494C3101F11C0096
S31508005A10FFF7C2FB88B929484C300168C5F8011060
S31508005A204168C5F805100189A5F80910807AE87259
S31508005A30032028700C20306002E04FF0FF30C2E7E8
S31508005A4020E07A1E611C1D485438FAF7C6FB781EFA
S31508005A501A497539C1F8410010211848753890F867
S31508005A60752076308154763890F87500401C1349B5
S31508005A70753981F87500032008700025002030600C
S31508005A8000E000BF00BF00209DE7000067697A506C
S31508005A90726F746F636F6C49737375656450726F58
S31508005AA063657373204572726F72202C20496C6C83
S31508005AB06567616C20506172616D0A0056010020AD
S31508005AC070B5044625462CB90FA0FDF7FBFD4FF02F
S31508005AD0FF3070BD412205F108010F48FAF77DFB3A
S31508005AE00F210D48FB3890F8AE20AF308154AF38FF
S31508005AF090F8AE00401C0849FB3981F8AE00052035
S31508005B0008700020E5E700004E54502069732065B0
S31508005B106D707479200A0000DC01002010B5044677
S31508005B202CB9CAA0FDF7CEFD4FF0FF3010BD208975
S31508005B30FFF7D4F82081D1480078C0F38000217A95
S31508005B40C1F38001884256D0207AC0F3800000282D
S31508005B5029D0207A00F0010078B10021C84890F8D1
S31508005B60882089308154893890F88800401CC449B7
S31508005B7081F88800C3A0FDF7A5FD207AC0F3400090
S31508005B80002838D00121BE4890F8882089308154F1
S31508005B90893890F88800401CB94981F88800C1A066
S31508005BA0FDF790FD27E0207A00F0010078B100218A
S31508005BB0B34890F8882089308154893890F888004D
S31508005BC0401CAF4981F88800AEA0FDF77BFD207A1E
S31508005BD0C0F3400078B10221A94890F8882089309E
S31508005BE08154893890F88800401CA54981F88800B6
S31508005BF0B3A0FDF767FDA1480078C0F3C000217A7D
S31508005C00C1F3C00188422CD0207AC1089B4800788D
S31508005C1061F3C30099490870207AC0F3C00080B1C7
S31508005C200321974890F8882089308154893890F85C
S31508005C308800401C924981F88800A8A0FDF742FD1B
S31508005C400FE004218E4890F88820893081548938DD
S31508005C5090F88800401C8A4981F88800A7A0FDF7BB
S31508005C6031FD86480078C0F30010217AC1F300118F
S31508005C7088422CD0207A01098048007861F3041004
S31508005C807E490870207AC0F3001080B105217C484F
S31508005C9090F8882089308154893890F88800401C0B
S31508005CA0774981F888009DA0FDF70CFD0FE00621D5
S31508005CB0734890F8882089308154893890F888008C
S31508005CC0401C6F4981F888009CA0FDF7FBFC6B48D7
S31508005CD00078C0F34010217AC1F3401188422CD0D5
S31508005CE0207A41096548007861F3451063490870D0
S31508005CF0207AC0F3401080B10721614890F88820C7
S31508005D0089308154893890F88800401C5C4981F8AC
S31508005D10880093A0FDF7D6FC0FE00821584890F8B4
S31508005D20882089308154893890F88800401C544965
S31508005D3081F8880091A0FDF7C5FC50484078C0F36B
S31508005D40C001607AC0F3C00081422CD0607AC108D5
S31508005D504A48407861F3C30048494870607AC0F3FE
S31508005D60C00080B10B21464890F8882089308154BC
S31508005D70893890F88800401C414981F8880087A036
S31508005D80FDF7A0FC0FE00C213D4890F888208930EB
S31508005D908154893890F88800401C394981F8880070
S31508005DA085A0FDF78FFC35484078C0F30011607A6E
S31508005DB0C0F3001081422CD0607A01092F48407840
S31508005DC061F304102D494870607AC0F3001080B161
S31508005DD009212B4890F8882089308154893890F811
S31508005DE08800401C264981F888007BA0FDF76AFCDC
S31508005DF00FE00A21224890F8882089308154893892
S31508005E0090F88800401C1E4981F8880079A0FDF7A3
S31508005E1059FC0D211A4890F8882089308154893810
S31508005E2090F88800401C164981F88800607A00F0CE
S31508005E30070081F8EE00084690F8EE1074A0FDF70A
S31508005E4041FC02200E49087000206FE667697A5007
S31508005E50726F746F636F6C4D6F64756C65537461A4
S31508005E60747573204572726F72202C20496C6C65AC
S31508005E7067616C20506172616D0A0000160000208F
S31508005E80E10000204F6E426F617264696E673A20C6
S31508005E90536F66744150206F7220576562206D6F8C
S31508005EA064650A004F6E426F617264696E673A20D4
S31508005EB04169724C696E6B206D6F64650A0000005B
S31508005EC04F6E426F617264696E673A2053746174EB
S31508005ED0696F6E206D6F64650A0000005769466930
S31508005EE0207374617475733A20696E2062696E64F2
S31508005EF0696E67206D6F64650A0000005769466918
S31508005F00207374617475733A206F75742062696EB4
S31508005F1064696E67206D6F64650A00005769466993
S31508005F20207374617475733A20636F6E6E6563745B
S31508005F30656420726F757465720A00005769466950
S31508005F40207374617475733A20646973636F6E6E37
S31508005F50656374656420726F757465720A00000063
S31508005F6057694669207374617475733A20636F6E56
S31508005F706E6563746564206D326D0A0057694669FB
S31508005F80207374617475733A20646973636F6E6EF7
S31508005F906563746564206D326D0A00005769466949
S31508005FA0207374617475733A2061707020636F6E24
S31508005FB06E6563740A000000576946692073746148
S31508005FC07475733A206E6F2061707020636F6E6E01
S31508005FD06563740A00000000576946692073746196
S31508005FE07475733A20696E2074657374206D6F64D6
S31508005FF0650A000057694669207374617475733AB7
S31508006000206F75742074657374206D6F64650A005B
S3150800601052535349206973202564200A0000000062
S3150800602070B5044625462CB919A0FDF74BFB4FF071
S31508006030FF3070BD1B48A9680160E9684160298A7C
S315080060400181A97C8172A0F1EF01B1F8EF00FEF79A
S3150800605045FE1449EF39A1F8EF00D1F8F700FEF72D
S315080060604AFE1049EF39C1F8F7000E210D48EF38FE
S3150800607090F89B209C3081549C3890F89B00401CDB
S315080060800849EF3981F89B00042008700020D0E702
S315080060904552523A204E545020697320656D7074EB
S315080060A079200A00D001002010B5FFF735F904461B
S315080060B000BFFFF731F9001BB0F5167FF9D901F0DB
S315080060C093F810BD10B500240E4890F84E0000B99C
S315080060D010BD0DA0FDF7F6FA0A48B0F86F104F305C
S315080060E002F060FC04460748B0F86F00A04202D0F0
S315080060F00DA0FDF7E7FAFFF70FF90249C1F871009D
S3150800610000BFE5E7E10000205761726E696E673AE5
S315080061102074696D656F75742C20726573656E647D
S315080061202064617461200A004552523A20726573F0
S31508006130656E642064617461206572726F720A000C
S3150800614010B502460024002302B109B9002010BD8B
S31508006150022303E0D05C2044C4B25B1C481E98426C
S31508006160F8D82046F3E7000070B504460D462CB96A
S315080061700FA0FDF7A7FA4FF0FF3070BD282112488F
S31508006180FAF744F82A4621460F48801CFAF725F8FC
S315080061900D484D38A0F86F50012180F84E10FFF7D2
S315080061A0BBF809494D39C1F871000020E5E7000040
S315080061B04552523A206461746120697320656D7096
S315080061C07479200A000000002E01002070B50446EC
S315080061D0094D2CB909A0FDF775FA4FF0FF3070BDCF
S315080061E02879401C2179884204D128210248801E3A
S315080061F0FAF70CF80020F2E7300100204552523A2F
S31508006200206461746120697320656D707479200A51
S315080062100000000070B504460D46002624B90AA001
S31508006220FDF750FA701E70BD2A4621460E4802F048
S3150800623097FA0646AE4205D00CA0FDF743FA4FF092
S31508006240FF30F0E73046EEE74552523A2067697A62
S31508006250507574446174612062756620697320659F
S315080062606D707479200A00001D0200204552523ACA
S31508006270204661696C656420746F20726257726982
S315080062807465200A00000000F0B587B005460E4682
S31508006290174600242EB91FA0FDF714FA601E07B092
S315080062A0F0BD01A8FFF7B8FA05208DF808002348C5
S315080062B090F84510D0F84500401C204AC2F8450021
S315080062C0C8B28DF809008DF80C501120FEF706FDAE
S315080062D0ADF806003A4631460DF10D00F9F77DFF97
S315080062E0152101A8FFF72CFF8DF81800152101A824
S315080062F002F058FB0446002C06DA214610A0FDF7EA
S31508006300E1F96FF00100CAE7152101A8FFF72CFF94
S315080063102046C4E767697A5265706F72744461747F
S3150800632061204572726F72202C20496C6C6567611A
S315080063306C20506172616D0A00000000E1000020C7
S315080063404552523A207561727420777269746520D5
S315080063506572726F72202564200A00002DE9F047E5
S3150800636004460D461746089E4FF00009CA46C84619
S315080063701BB94FF0FF30BDE8F08739462846FEF7CF
S31508006380E7FD8046B8F1000F07D1185D05F0070153
S3150800639006FA01F1084318551EE0B8F1010F1BD1A2
S315080063A0F0B205F00701C1F1080140FA01F905F05C
S315080063B00700C0F10801FF20084100EA060A601C30
S315080063C0185C40EA0900611C5854185D05F007017D
S315080063D00AFA01F1084318550020CCE72DE9F04FD9
S315080063E08FB005460C4616469946189F4FF0000A88
S315080063F0D34600200E908046B9F1000F00D027B989
S315080064004FF0FF300FB0BDE8F08F3A46494601A875
S31508006410F9F7E3FE012F09D9394601A8FEF7ADFDC4
S31508006420B0F1FF3F02D14FF0FF30EBE7314620468F
S31508006430FEF78EFD8246BAF1000F0CD101A8405D29
S3150800644004F007010841C6F10802FF21114108407E
S3150800645040EA080821E0BAF1010F1ED101A9681C1B
S31508006460085C04F00701C1F10801711AC1F10802BC
S31508006470FF21114100EA010B01A8405D04F0070164
S3150800648008410E9004F00700C0F108010BFA01F06C
S3150800649040EA08080E9848EA00084046B2E70000B5
S315080064A002480068401C0149086070470000002047
S315080064B010B503460020541AB4FBF3F010BD2DE9BD
S315080064C0F04704460E461546002731462846F9F792
S315080064D022FF81462146F9F756FF8046FAF73CF92E
S315080064E007463846BDE8F0872DE9FC5F06460D46A7
S315080064F093464FF000082F46A9462C46AA4606B1F1
S315080065001DB94FF0FF30BDE8FC9F4FF00008C9E009
S31508006510701C10F8080012287ED2DFE800F01D1E55
S315080065201FBDBD20212226BDBDBDBD2A34B13009FF
S3150800653038785F490870084601785EA0FDF7C2F80A
S315080065405B480078012803D100205F49086002E013
S3150800655001205D490860A0E09FE09EE09DE09CE088
S315080065609BE001205949087097E0002057490870B8
S3150800657093E099F8001056A0FDF7A4F88DE057A00F
S31508006580FDF7A0F889E00120594908704FF6FF7019
S315080065900021CDE900102288042370210020FCF791
S315080065A0D3FA4FF6FF704FF4784352A27021009049
S315080065B02020FCF71FFB4FF6FF700021CDE90010E5
S315080065C0A278022370212820FCF7BEFA4FF6FF7046
S315080065D04FF4784347A2702100903620FCF70AFB57
S315080065E04FF6FF700021CDE90010E27802237021F2
S315080065F03E20FCF7A9FA4FF6FF704FF478433EA207
S31508006600702100904E20FCF7F5FA4FF6FF704FF612
S315080066101F01CDE9001000E03EE022790223702137
S315080066205620FCF791FA4FF6FF704FF4784333A2E1
S31508006630702100906620FCF7DDFA4FF6FF704FF6E2
S315080066401F01CDE900106279022370216E20FCF744
S315080066507BFA4FF6FF704FF4784328A2702100901A
S315080066607E20FCF7C7FA4FF6FF704FF61F01CDE9FB
S315080066700010A279022370218620FCF765FA0CE047
S315080066801FA0FDF71FF823A0FDF71CF89AF80010C5
S3150800669024A0FDF717F800E000BF00BF08F10100CD
S315080066A000F0FF08307840453FF732AF00202AE770
S315080066B0D00000204576743A204556454E545F4C26
S315080066C04544202564200A009481214204000020C4
S315080066D0525353492025640A000000005452414E83
S315080066E053504152454E545F44415441200A0000DC
S315080066F0050000202D000000200000003A000000E0
S315080067004D4F44554C4520494E464F202E2E2E0AB5
S3150800671000000000574946204D4F44554C45202E51
S315080067202E2E0A006D6F64756C6554797065203A73
S31508006730205B25645D200A003EB500246846FFF705
S315080067406BF817208DF80400134890F84510D0F818
S315080067504500401C104AC2F84500C8B28DF805002D
S315080067600520FEF7BBFAADF8020009216846FFF7D7
S31508006770E7FC8DF808000921684602F013F904467B
S31508006780002C03DA214605A0FCF79CFF0921684680
S31508006790FFF7EAFC3EBD0000E10000204552525BCF
S315080067A04E54505D3A20756172742077726974652B
S315080067B0206572726F72202564200A002DE9F04167
S315080067C094B00546002600200390029000248046D7
S315080067D0002735B981A0FCF775FF601E14B0BDE827
S315080067E0F081FEF79FFD03AA86498748FEF740FF1A
S315080067F00646002E71D185A0FCF764FF814C2079EE
S315080068000F284FD00ADC0E2873D2DFE800F0721684
S31508006810721A7272433872724472453C182852D002
S3150800682006DC112847D0142846D0162861D134E052
S31508006830222854D02A285CD130E02046FEF75AFE9A
S315080068405FE0E279A17976A0FCF73CFF02A8009008
S3150800685007F10900BDF80C301A1A6A480830C11940
S3150800686004AB4046FFF79EF840B9E37904A92046F1
S31508006870029AFEF7F9FF6EA0FCF724FF41E02046D6
S31508006880FEF796FD3DE02046FEF792FD2046FFF70F
S3150800689045F936E000BF00BF00BF00BF2046FFF73E
S315080068A095FC2EE02046FEF783FD64A0FCF70AFF60
S315080068B0FFF7FAFB25E024E02046FFF787FC64A0F3
S315080068C0FCF700FF1DE02046FFF780FC2046FFF797
S315080068D0A7FB67A0FCF7F6FE13E013E009E02046E5
S315080068E0FFF774FC2046FFF7EBF867A0FCF7EAFE13
S315080068F007E002212046FEF7ABFD6AA0FCF7E2FEA0
S3150800690000BF0DE016F1020F0AD13E4C01212046C8
S31508006910FEF79EFD69A0FCF7D5FE6FF001005DE766
S315080069203848401E0078062850D2DFE800F04F03AA
S3150800693013232F3F00203349491E08701122CC31FA
S31508006940A1F15700FFF7D0FD13212E487430F9F74F
S315080069505DFC3CE000202B49491E08700122EE31FF
S31508006960A1F16600FFF7C0FD132126488730F9F725
S315080069704DFC2CE000202349491E08700846D0F833
S31508006980412021317530FFF7AFFD20E000201D4979
S31508006990491E08700C22EF31A1F15400FFF7A4FD3F
S315080069A0132118489A30F9F731FC10E000201549F0
S315080069B0491E08704122FB31A1F14D00FFF794FDF5
S315080069C041211048AD30F9F721FC00E000BF00BFB7
S315080069D02846FEF743FC002000E7000047697A775F
S315080069E069747348616E646C65204572726F7220B3
S315080069F02C20496C6C6567616C20506172616D0A68
S31508006A0000000000E20000201D02002047657420F7
S31508006A104F6E65205061636B6574210A00000000A3
S31508006A20666C6167202578202578200A000000001A
S31508006A3041636B44617461203A200A007265706F85
S31508006A4072743A4D4355207265626F6F74210A005D
S31508006A5041636B2050524F44554354494F4E5F4D46
S31508006A604F44452073756363657373200A000000FD
S31508006A7041636B204745545F5554542073756363CF
S31508006A80657373200A00000041636B204745545F15
S31508006A904D6F64756C652073756363657373200A3F
S31508006AA0000000004552523A20636D6420636F640B
S31508006AB065206572726F72210A0000004552523ACB
S31508006AC020636865636B2073756D206572726F72DB
S31508006AD0210A000010B540200A4908600A48C86023
S31508006AE0084601F0E1FD18B908A0FCF7EBFD02E045
S31508006AF00BA0FCF7E7FD4FF49E710E48F9F786FBED
S31508006B0010BD00001D0200202D0200207262437293
S31508006B10656174652053756363657373200A0000A5
S31508006B207262437265617465204661696C64200A05
S31508006B3000000000E100002030B587B005460024BB
S31508006B40062D7CD2DFE805F003305F90BDEA01A888
S31508006B50FEF762FE0B208DF808008B4890F845106A
S31508006B60D0F84500401C884AC2F84500C8B28DF8DE
S31508006B7009000520FEF7B2F8ADF80600092101A8BC
S31508006B80FFF7DEFA8DF80C00092101A801F00AFFCB
S31508006B900446002C03DA21467CA0FCF793FD092164
S31508006BA001A8FFF7E1FAEAE004A8FEF735FE092096
S31508006BB08DF81400744890F84510D0F84500401C2C
S31508006BC0714AC2F84500C8B28DF815008DF81850FC
S31508006BD00620FEF783F8ADF812000A2104A8FFF78D
S31508006BE0AFFA8DF819000A2104A801F0DBFE044665
S31508006BF0002C03DA214665A0FCF764FD0A2104A8E7
S31508006C00FFF7B2FABBE004A8FEF706FE09208DF8E6
S31508006C1014005D4890F84510D0F84500401C5A4AC3
S31508006C20C2F84500C8B28DF815008DF81850062030
S31508006C30FEF754F8ADF812000A2104A800E09AE01D
S31508006C40FFF77EFA8DF819000A2104A801F0AAFEBA
S31508006C500446002C03DA21464CA0FCF733FD0A2132
S31508006C6004A8FFF781FA8AE001A8FEF7D5FD1320EC
S31508006C708DF80800444890F84510D0F84500401CA7
S31508006C80414AC2F84500C8B28DF809000520FEF74A
S31508006C9025F8ADF80600092101A8FFF751FA8DF885
S31508006CA00C00092101A801F07DFE0446002C03DA38
S31508006CB0214636A0FCF706FD092101A8FFF754FA7C
S31508006CC05DE001A8FEF7A8FD15208DF808002E48FE
S31508006CD090F84510D0F84500401C2B4AC2F84500EC
S31508006CE0C8B28DF809000520FDF7F8FFADF80600D3
S31508006CF0092101A8FFF724FA8DF80C00092101A83B
S31508006D0001F050FE0446002C03DA21461FA0FCF7CA
S31508006D10D9FC092101A8FFF727FA30E001A8FEF7F8
S31508006D207BFD29208DF80800174890F84510D0F803
S31508006D304500401C144AC2F84500C8B28DF809003F
S31508006D400520FDF7CBFFADF80600092101A8FFF7DE
S31508006D50F7F98DF80C00092101A801F023FE044675
S31508006D60002C03DA214609A0FCF7ACFC092101A88E
S31508006D70FFF7FAF903E00CA0FCF7A4FC00BF00BF7C
S31508006D80204607B030BD0000E10000204552523AC7
S31508006D902075617274207772697465206572726FE6
S31508006DA072202564200A00004552523A204366673D
S31508006DB04D6F6465206572726F72210A00000000CB
S31508006DC010B508200949086000F020F80420074992
S31508006DD0091F086000F01AF804200449086000F04A
S31508006DE015F808200149091F086010BD1414014050
S31508006DF070B5044600F072F8204600F045F800F039
S31508006E0095F8054600F082F8284670BD002001E096
S31508006E10411CC8B20A28FBDB7047000010B50820E1
S31508006E2007490860FFF7F2FF042005490860FFF7E5
S31508006E30EDFF04200249091D0860FFF7E7FF10BDB2
S31508006E401014014070B50024002516E06006040EF3
S31508006E5004200C490860FFF7D9FF0A48083800687B
S31508006E6000F0080008B1601CC4B204200549091DD9
S31508006E700860FFF7CBFF681CC5B2082DE6DB204685
S31508006E8070BD00001014014070B50446002520E0CE
S31508006E9004F0800018B108200F49086003E00820B4
S31508006EA00D49091D0860FFF7B1FF04200A4908606B
S31508006EB0FFF7ACFF04200849091D0860072D02D119
S31508006EC00820091F08606006040EFFF79FFF681C6C
S31508006ED0C5B2082DDCDB70BD1014014010B50820C2
S31508006EE00949086004200860FFF790FF0820064952
S31508006EF0091D0860FFF78AFF04200349091D086079
S31508006F00FFF784FF10BD00001014014010B50820DB
S31508006F10054908600420091F0860FFF777FF082065
S31508006F200149091F086010BD1414014010B5082056
S31508006F300C490860FFF76AFF04200A490860FFF752
S31508006F4065FF08480838006800F0080008B1012401
S31508006F5000E0002404200349091D0860FFF756FFD6
S31508006F60204610BD1014014008B5FAF7F3FC7AA0C4
S31508006F70FCF7A8FBF9F739FF7DA0FCF7A3FB8348CC
S31508006F8078231A46002100900846FBF765FB40F275
S31508006F901F504FF478437EA2782100902020FBF7FB
S31508006FA0F7FB40F21F504FF478437AA278210090FD
S31508006FB03020FBF7EDFB40F21F504FF4784376A2E2
S31508006FC0782100904020FBF7E3FB40F21F504FF476
S31508006FD0784372A2782100905020FBF7D9FB4FF630
S31508006FE0FF704FF61F036EA28C2100900020FBF75E
S31508006FF001FE49F64040FDF725FD4FF6FF70FAF70A
S31508007000B9FE3620FBF74AF8A820FBF733F801F05B
S3150800701023FCFDF7B9FD9EE0FBF7DAF901F0EEFC7B
S315080070206348FFF7CBFB0020FAF788FD05460120E9
S31508007030FAF7C4FD0446022D05D15EA0FCF742FB13
S315080070400220FFF779FD072C06D0082C08D0092C5A
S315080070500AD00A2C10D10BE001205D4908700BE01C
S3150800706001205C49087007E001205B49087003E0CD
S3150800707001205A49087000BF00BF5548007801280A
S3150800708012D15448007878B95348007860B9534803
S31508007090007848B94FF6FF70FAF785FE0120504987
S315080070A0087000204A4908704D480078012801D127
S315080070B0FBF7CAFD46480078A0B94648007801287B
S315080070C010D14548007868B94448007850B94FF659
S315080070D0FF70FAF768FEFBF73BF800204049087096
S315080070E03C4908703A480078A0B93A48007888B907
S315080070F03948007801280DD13848007850B94FF63C
S31508007100FF70FAF750FEFBF721FA002034490870A1
S31508007110314908702E480078A0B92E48007888B9F9
S315080071202D48007870B92D48007801280AD14FF605
S31508007130FF70FAF738FE01F08FFB00202849087027
S315080071402649087027480078012804D1FDF7F2FD82
S315080071500020244908705FE7D3B2BCFEB3F5CABC69
S31508007160BBAF0909095B4F4B5D200D0A0000000003
S31508007170544654CFD4CABEB0F6B2BAD1A7D4BA09C7
S3150800718009095B4F4B5D200D0A00000093B5000806
S31508007190B0F60000B2BA0000D1A70000D4BA0000C9
S315080071A0323032322D42792D575A582042425500F4
S315080071B0D000002057494649BDF8C8EB4169724CD2
S315080071C0696E6BC1ACBDD3C4A3CABD0D0A0000006D
S315080071D0AB000020AC000020AD000020AE0000206F
S315080071E0AF000020B1000020012080F3138800BF03
S315080071F000BF0748006800F4E06006490843001D20
S3150800720003490860BFF34F8F00BF00BFFEE70000C9
S315080072100CED00E00000FA0570B5044604B970BD2F
S3150800722004488068251A2946002000F017F800BF90
S31508007230F5E700005800002070B5044621460020F6
S3150800724000F064F80546681C08B9002070BD0248BD
S3150800725080682844FAE70000580000202DE9F0412C
S3150800726004460E461548005D38B9144818380168B2
S31508007270204688470120BDE8F081114850F82400CF
S31508007280B04219D90F4850F82400B6FBF0F10B4864
S31508007290083850F8240030F81120002508E00023AB
S315080072A00648083850F824004F1920F817306D1C86
S315080072B09542F4DB0020DEE70220DCE770000020C0
S315080072C03C2501083425010810B504460C4951F837
S315080072D024104A000B4951F82400002100F0B0F8A8
S315080072E0094951F824200749083951F82400002192
S315080072F000F0A6F8012103480830015510BD00002A
S315080073002C250108680000203C2501082DE9F047D6
S3150800731004460F460025A9462348005D20B92248A1
S3150800732018380168204688471FB94FF0FF30BDE876
S31508007330F0871E4850F82400B7FBF0F61B4850F8B3
S315080073402400B7FBF0F100FB117000B1761C184859
S3150800735050F82400451E22E01348083850F8240047
S3150800736030F8150010B909F1010901E04FF00009DC
S31508007370B14513D14FF0000809E00B48083850F81A
S31508007380240005EB080220F8126008F10108B04550
S31508007390F3D3064850F824006843C8E76D1E002D4D
S315080073A0DADA4FF0FF30C2E7700000203425010812
S315080073B02C25010810B501460023002207E00B48DA
S315080073C050F8210030F8120000B15B1C521C084826
S315080073D050F821009042F2D864205843044C54F8DF
S315080073E02140B0FBF4F0C0B210BD000068000020D8
S315080073F02C25010870B505460C4604B970BD05482C
S3150800740050F82500261A31462846FFF727FF00BF01
S31508007410F4E700006000002070B504460E463146C9
S315080074202046FFF773FF0546681C08B9002070BDA3
S31508007430024850F824002844F9E7000060000020BC
S3150800744030B5034601E003F8011B141EA2F1010240
S31508007450F9D130BD2DE9F04705460C4620785B2862
S3150800746004D0264804600020BDE8F0870520E860BF
S31508007470601C01F0C2F9044620785D2801D1601C21
S31508007480F2E7FDF7AFF80646A860A86808B9002035
S31508007490EAE7204601F0B1F980464146304600F059
S315080074A007FB074601F0A9F904460CB90020DBE7FB
S315080074B017E0FDF797F8071E00D1D5E737607E601D
S315080074C03E46601C01F099F981464946304600F06F
S315080074D0EFFA804601F091F904460CB90020C3E79B
S315080074E000BF20782C28E4D020785D2801D1601CC4
S315080074F0BAE7024804600020B6E70000380000201A
S31508007500014600220878302806DB0878392803DC8B
S3150800751008783038024415E00878412806DB0878F0
S31508007520462803DC0878373802440BE008786128D7
S3150800753006DB0878662803DC08785738024401E039
S31508007540002070471201491C0878302806DB0878A5
S31508007550392803DC08783038024415E008784128D1
S3150800756006DB0878462803DC0878373802440BE03F
S315080075700878612806DB0878662803DC0878573817
S31508007580024401E00020DCE71201491C0878302893
S3150800759006DB0878392803DC08783038024415E019
S315080075A00878412806DB0878462803DC0878373847
S315080075B002440BE00878612806DB0878662803DCB5
S315080075C008785738024401E00020BAE71201491C3E
S315080075D00878302806DB0878392803DC087830383C
S315080075E0024415E00878412806DB0878462803DCBB
S315080075F00878373802440BE00878612806DB0878F3
S31508007600662803DC08785738024401E0002098E72A
S31508007610104696E72DE9F04F8BB083468A46002040
S31508007620044605460026674F002188468946099084
S31508007630012008909AF800002D2802D1624F0AF11D
S31508007640010A9AF80000302801D10AF1010A9AF8CD
S315080076500000312822DB9AF8000039281EDC00BF1A
S315080076601AF8011BA1F13000F9F758F80022574B18
S31508007670CDE9060120462946F8F76AFFCDE9040157
S31508007680DDE90623F8F7BDFE04460D469AF8000024
S31508007690302803DB9AF800003928E1DD9AF8000063
S315080076A02E2830D19AF8010030282CDB9AF80100F0
S315080076B0392828DC0AF1010A00BF1AF8011BA1F1D2
S315080076C03000F9F72BF80022404BCDE90601204699
S315080076D02946F8F73DFFCDE90401DDE90623F8F769
S315080076E090FE04460D460022364B40464946F8F7BA
S315080076F029FF804689469AF80000302803DB9AF865
S3150800770000003928D9DD9AF80000652803D09AF8D0
S315080077100000452823D10AF1010A9AF800002B280F
S3150800772002D10AF1010A08E09AF800002D2804D1CE
S315080077304FF0FF3008900AF1010A08E01AF8010B29
S315080077403038099901EB810100EB410009909AF85C
S315080077500000302803DB9AF800003928EEDDDDE961
S31508007760082101FB02F0F8F7D9FF42464B46CDE95E
S315080077700001F8F746FE02460B46CDE90201002055
S31508007780124900F0F3F922462B46CDE906013046A8
S315080077903946F8F7DDFECDE90401DDE90623F8F7F9
S315080077A0D7FE04460D46CBE9064520462946F8F796
S315080077B0E7FFCBF814000320CBF80C0050460BB0BB
S315080077C0BDE8F08F0000F03F0000F0BF0000244045
S315080077D02DE9F04706460C4620787B2804D0404819
S315080077E004600020BDE8F0870620F060601C01F008
S315080077F004F8044620787D2801D1601CF2E7FCF7DE
S31508007800F1FE0546B060B06808B90020EAE72046F0
S3150800781000F0F3FF80464146284600F063F8074625
S3150800782000F0EBFF04460CB90020DBE72869286264
S315080078300020286120783A2803D0294804600020CF
S31508007840D0E7601C00F0D9FF80464146284600F084
S315080078502FF9074600F0D1FF04460CB90020C1E70E
S3150800786031E0FCF7BFFE071E00D1BBE72F607D6045
S315080078703D46601C00F0C1FF81464946284600F097
S3150800788031F8804600F0B9FF04460CB90020A9E794
S31508007890286928620020286120783A2803D01048F1
S315080078A0046000209EE7601C00F0A7FF8146494659
S315080078B0284600F0FDF8804600F09FFF04460CB904
S315080078C000208FE700BF20782C28CAD020787D2892
S315080078D001D1601C86E702480460002082E70000A8
S315080078E0380000202DE9F05F8346884608F1010438
S315080078F0002798F80000222805D06A48C0F80080BA
S315080079000020BDE8F09F04E014F8011B5C2900D1B3
S31508007910641C2078222804D0207810B1781C071E11
S31508007920F2D1781C6049096888478146B9F1000F89
S3150800793001D10020E5E708F101044D469EE02078D4
S315080079405C2804D014F8010B05F8010B96E0641CBA
S315080079502078722818D006DC622809D066280BD051
S315080079606E287DD10CE0742812D07528F9D113E061
S31508007970082005F8010B7FE00C2005F8010B7BE0D9
S315080079800A2005F8010B77E00D2005F8010B73E0D6
S31508007990092005F8010B6FE0601CFFF7B1FD0646EC
S315080079A0241DB6F55C4F02D3B6F5604F00D306B971
S315080079B062E0B6F5584F1CD3B6F55C4F19D260781D
S315080079C05C2802D1A078752800D055E0E01CFFF7A6
S315080079D097FD8246A41DBAF55C4F02D3BAF5604FEF
S315080079E000D349E0C6F30901504661F39F2000F52C
S315080079F080360427802E01D2012708E0B6F5006FED
S31508007A0001D2022703E0B6F5803F00D203273D44A2
S31508007A10012F20D0022F15D0032F0AD0042F24D1EE
S31508007A2006F0BF0040F08001681E05460170B609E1
S31508007A3000BF06F0BF0040F08001681E05460170D1
S31508007A40B60900BF06F0BF0040F08001681E054673
S31508007A500170B60900BF1548C05D3043C1B200E0E9
S31508007A6006E0681E0546017000BF00BF3D4403E0FE
S31508007A70207805F8010B00BF00BF641C2078222877
S31508007A8003D0207800287FF45AAF00202870207889
S31508007A90222800D1641CCBF810900420CBF80C00E7
S31508007AA020462EE7380000203C0000205C8A0008AB
S31508007AB070B505460C460CB9002070BD042224A1F9
S31508007AC02046F8F7C7FB18B90220E860201DF4E73E
S31508007AD0052221A12046F8F7BDFB18B90020E86069
S31508007AE0601DEAE704221EA12046F8F7B3FB20B979
S31508007AF00120E8606861201DDFE72078222804D18C
S31508007B0021462846FFF7EEFED7E720782D2805D030
S31508007B102078302807DB2078392804DC21462846D7
S31508007B20FFF778FDC9E720785B2804D12146284667
S31508007B30FFF790FCC1E720787B2804D12146284628
S31508007B40FFF746FEB9E7084804600020B5E70000DD
S31508007B506E756C6C0000000066616C736500000051
S31508007B607472756500000000380000202DE9F04D9C
S31508007B701D460C4698B0174621F0004123F00043F5
S31508007B80002814BF4FF0010C4FF0000C0CEB440C0E
S31508007B90FE4A0CEB02064FEA620C66452BD33E0002
S31508007BA018BF012606EB45061644F94A964222D323
S31508007BB0F84A53EA070C02D0944205D148B918B0DE
S31508007BC000201146BDE8F08D002808BF4FF0000CD4
S31508007BD001D04FF0010C0CEB440212F5001F0AD835
S31508007BE0002F14BF4FF0010C4FF0000C0CEB4502B0
S31508007BF012F5001F07D918B03A462B462146BDE8AC
S31508007C00F04DFBF707BE0022DFF88CA3002CB8BFA7
S31508007C10534526DADFF884C36345A8BF022220DA73
S31508007C20DFF870C39C451CDCDFF874C30CEB235CDF
S31508007C30BCF1140F08DDCCF1340627FA06FC0CFA61
S31508007C4006F6BE420DD108E05FB9CCF1140623FA58
S31508007C5006FC0CFA06F69E4203D10CF00102C2F1AC
S31508007C60020251EA000C19D1002D17DA002C18BFB0
S31508007C70022A01D0012A07D00220FBF7F3FD18B02B
S31508007C80BDE8F04DFBF7BEBD0220FBF7EBFDFBF7A9
S31508007C90B9FD18B081F00041BDE8F08DB7F1000CD0
S31508007CA06CD1534525D104F1804212F5801201BFEB
S31508007CB000280020B74918B008BFBDE8F08DB548C0
S31508007CC0884207DC002DA1BF6046294618B0BDE8EA
S31508007CD0F08D07E0281E05DA80F0004118B06046EE
S31508007CE0BDE8F08DAF497944D1E9000118B0BDE887
S31508007CF0F08DDFF8A0C2634525D1002D1FDA19B132
S31508007D00514512D1D8B909E0002840F0EC82A24AC0
S31508007D10214618B062F31E01BDE8F08D0020214609
S31508007D2018B060F31E01BDE8F08D08DA18B02346D6
S31508007D30BDE8F04D024600206146F8F77BBC18B056
S31508007D402146BDE8F08D514518DAB5F1804F0DD0C2
S31508007D50A5F1005CBCF1FF5C10D1B4F1000C0DDBA1
S31508007D6018B06146BDE8F04D00F050BD234618B086
S31508007D700246BDE8F04D1946F8F7EABB060024F0BE
S31508007D80004C3BD1D9B1514533D1002C06DD002D2D
S31508007D90A1BF0020514618B0BDE8F08D002C01DDCA
S31508007DA0002D1BDB002C13DA002D11DB012A4FF006
S31508007DB0000014BF78497C4918B0BDE8F08D022A46
S31508007DC018BF002C0AD0012A08D1002C06DA0AE0CE
S31508007DD0002CB8BF002D11DA012A04D0002018B0F3
S31508007DE00146BDE8F08D18B000204FF00041BDE80F
S31508007DF0F08DA1F14050B0F17F601AD0012000EB60
S31508007E00E47050EA020421D0624C521E4FF0000B77
S31508007E10104304BF4FF0000B644C654883427CDD79
S31508007E20644A654893421FDD884217DB002D25DB2F
S31508007E3037E0002C00DA4AB1022A0CBF01204FF0C5
S31508007E40FF3018B0BDE8F04DF8F768BC0120FBF725
S31508007E5009FD18B0BDE8F04DFBF7DEBC4D4A8A4275
S31508007E6002DC002D0ADC1CE0814202DA002D18DA59
S31508007E7004E0484B994220DD002D12DD0220FBF775
S31508007E80F1FCFBF7CFFC05460E4600225346584642
S31508007E902146F8F75DFB18B066F31E012846BDE8D3
S31508007EA0F08D0220FBF7DEFCFBF7C4FC0A462146F0
S31508007EB018B062F31E01BDE8F08D00223046614617
S31508007EC0F8F740FB80460E466FF00102F8F710FE01
S31508007ED04FF05532394BF8F738FB42463346F8F738
S31508007EE037FB0022364BF8F730FB824642463346CC
S31508007EF0049110461946F8F72BFB5246049BF8F7EF
S31508007F0027FB8A4600904FF0C0422E4B404631462A
S31508007F10F8F71EFB2C4A2B4B00E027E0CDE90601BB
S31508007F2051460098F8F714FB82460191274A284BD8
S31508007F3040463146F8F70CFB5246019BF8F702FB20
S31508007F4082460B4602460591DDE90601F8F759FA1D
S31508007F50DDE90623002688463046F8F7F3FA524646
S31508007F60059BF8F7F2FA024600F07EB90020B1F553
S31508007F70801F07DA352230466146F8F7B9FD06460E
S31508007F806FF0340000EB215024E00000FFFF1F00D3
S31508007F90FFFF0F000000F03F0000F07F00004043A5
S31508007FA001FCFFFFE6A800000000F0FF0000F0BF9C
S31508007FB00000E0410000F043FFFFEF3F5555D53F75
S31508007FC00000E03F4715F73FFE822B6544DF5DF86A
S31508007FD00BAE543EA0F2FF300190C1F3130040F0FF
S31508007FE07F6141F040510291FE498842D8BF002086
S31508007FF004DDFD498142C8BF012001DD0D9008E07E
S3150800800000200D900198401C01900298A0F5801060
S3150800801002900299F54878440B910D9900EBC1003E
S31508008020D0E900230F9330460A920B99F8F78AFA9B
S31508008030CDE90601DDE90A2130460F9BF8F7E1F99B
S3150800804002460B460020EA49F8F7F4FA059102467B
S315080080500B460090DDE90601F8F77AFA1490E54830
S315080080608A464FF0000878440299006812904FF04B
S31508008070005040EA61010D980F9B01EB804000F526
S31508008080002109910A9A1298F8F75CFA32460B9B76
S31508008090F8F75BFA42465346F8F75AFA064602914B
S315080080A040465146099B129AF8F752FADDE906232B
S315080080B0F8F74BFA3246029BF8F744FA059B009A02
S315080080C0F8F746FA0091149A049053461046194652
S315080080D0F8F73EFA06460246C7480B4602910621BD
S315080080E07844FBF739FBCDE90510029B324610466A
S315080080F01946F8F72DFADDE90532F8F729FA059158
S315080081000646534640461946149AF8F77AF9009BEC
S31508008110049AF8F71DFA3246059BF8F772F9CDE985
S3150800812005104246534610461946F8F711FA00223A
S31508008130B24B02910A90F8F764F9DDE90532F8F7CF
S3150800814060F90E464246AD4B4046F8F7FBF9029BEE
S315080081500A9AF8F7F7F9DDE90532F8F7F6F942462B
S3150800816002910A90334610465146F8F7F1F9CDE9DF
S3150800817006015346149A02990A98F8F7E9F98A46C5
S3150800818002903346424600990498F8F7E1F95346B7
S31508008190029AF8F736F982460B4602460591DDE95A
S315080081A00601F8F72EF9DDE906230020884606467B
S315080081B0F8F7C8F95246059BF8F7C7F982460991B8
S315080081C04FF060428E4B30464146F8F7C1F90490AD
S315080081D006918C4A8A4B50460999F8F7B9F98246AE
S315080081E00291894A894B30464146F8F7B1F9524619
S315080081F0029BF8F706F9864B7B440D9A03EBC203FC
S31508008200D3E90023F8F7FDF80E9007910198F8F7DF
S3150800821085FA0591DDE9061382460E9A0498F8F761
S31508008220F0F87C4A7A440D9B02EBC303D3E900239A
S3150800823000930292F8F7E5F85246059BF8F7E1F83D
S315080082400026884652463046059BF8F77BF9009B80
S31508008250029AF8F777F9069B049AF8F773F9079BD9
S315080082600E9AF8F772F9024600200B460290384635
S315080082702946F8F76DF9824601912B463846194684
S31508008280029AF8F75FF932464346F8F761F952461B
S31508008290019BF8F7B6F807468A463246434629460A
S315080082A00298F8F755F905460E463A465346F8F742
S315080082B0A8F8594A8846914221DBA8EB020353EAFB
S315080082C0000210D12A463346F8F73CF9CDE90401F5
S315080082D0524A534B38465146F8F793F8DDE90423DA
S315080082E0F8F7B2FA21D20220FBF7BCFAFBF79AFAA2
S315080082F00A46214618B062F31E01BDE8F08D494BC7
S3150800830028F000429A4210D3474A08EB020353EA80
S3150800831000027FF4C6AD2A463346F8F713F93A4603
S315080083205346F8F791FA7FF6BCAD0022019228F081
S3150800833000403E493E4A01EB2051824223DA481C5E
S315080083404FF4801121FA00F040443A4AC0F30A512A
S315080083507A44394BA1F2FF31CB4020EA0303C0F33C
S31508008360130040F48010C1F11401C840126801904E
S31508008370B8F1000FBCBF4042019028463146F8F7D5
S31508008380E1F805460E462A46334638465146F8F77A
S3150800839038F84FF000084246284B40460591F8F752
S315080083A0D7F8CDE90601264A264B40460599F8F73F
S315080083B0CFF8009102902A46334640460599F8F7C9
S315080083C0C1F83A465346F8F7C0F81F4A1F4BF8F764
S315080083D0BFF8009B029AF8F714F807468846024643
S315080083E00B4635E08E9803007AB60B002EA50000E2
S315080083F00000F03F66A5000094A4000000000840B5
S3150800840009C7EE3FFD033ADCF5015B14E02F3EBEDB
S315080084106CA3000030A3000000009040FE822B658C
S315080084204715973C00CC904000346F3F01FCFFFF96
S315080084300000E03F7CA20000FFFF0F00432EE63F4E
S31508008440396CA80C615C20BEEF39FAFE422EE63F75
S31508008450DDE90601F7F7D5FFDDE9062305460E46F1
S31508008460F8F770F83A464346F8F76FF80F462A4683
S315080084703346009010461946F8F76AF882460246CF
S315080084802E4888460B4605217844FBF765F952467F
S315080084904346F8F75DF82A463346F8F756F8804615
S315080084A08A463B4628463146009AF8F751F83B4635
S315080084B0009AF7F7A6FF0691009000224FF0804336
S315080084C040465146F8F73EF80F460C90424653464A
S315080084D028463146F8F73CF83B460C9AF8F7AAF8CE
S315080084E0069B009AF8F72EF82A463346F8F72AF834
S315080084F00022134BF8F729F8054601980E4601EBBA
S3150800850000510815002810DC28463146019AF8F76C
S31508008510EFFAFBF70DF9042808BFFBF78BF9284695
S315080085203146019AF8F7E4FA05460B4618B02A468A
S3150800853058462146BDE8F04DF8F70AB81CA10000D8
S315080085400000F03F2DE9F05F0446894600210D46FC
S315080085500E468A463749384A127851F822000021D1
S31508008560F8F7A6F913D13349334A1278206841F847
S3150800857022002068C9F800002F480078401CC0B2C5
S315080085802D490870052853DB0020087050E02A485A
S31508008590007850B1284A1278521E264B53F82210FA
S315080085A02068F7F7B8FE834605E0224A1169206875
S315080085B0F7F7B1FE83465846F8F71AF921F0004155
S315080085C007464FF020421D4BF8F726F90FD21949F6
S315080085D0194A1278206841F8220017480078401C8A
S315080085E0C0B215490870052801DB002008704FF055
S315080085F0000A0FE00F4951F82A00F8F7F9F807467C
S315080086002A463346F7F7FDFE05460E460AF10100EF
S3150800861000F0FF0ABAF1050FECDB0022084B2846EA
S315080086203146F8F707F80746F8F726F9C9F80000BB
S31508008630BDE8F09F8C0200202C0000209999B93FD4
S315080086400000144000B5024612B94FF0FF3000BDD5
S3150800865050689168884201D10020F8E7506891680F
S31508008660884203D290685168401AF0E7104600F035
S3150800867014F851689368C91A401AE8E730B50446F1
S3150800868014B94FF0FF3030BD204600F006F8054615
S315080086902046FFF7D7FF281AF5E7014611B94FF02C
S315080086A0FF3070470868FCE7014611B94FF0FF3004
S315080086B07047C8684860C86888600020F8E72DE9F0
S315080086C0F04104460F461646002514B9681EBDE853
S315080086D0F08117B94FF0FF30F9E76068A168884262
S315080086E014D22046FFF7AEFFB04201D9304602E069
S315080086F02046FFF7A7FF054661682A463846F7F77A
S315080087006CFD6068284460602846E0E72046FFF76D
S31508008710C4FF6168E268891A401AB0420AD9354628
S3150800872061682A463846F7F758FD6068284460604D
S315080087302846CCE72046FFF7B0FF6168E268891A49
S31508008740451A61682A463846F7F747FDE0686060CB
S31508008750721B79192046FFF7B2FF05442846B6E78B
S315080087602DE9F04104460F461546002604B11FB907
S315080087704FF0FF30BDE8F0812046FFF77FFFA842A3
S3150800878002D86FF00100F5E76068A16888422AD828
S315080087902046FFF782FFA168E268891A461AB542A1
S315080087A013D8A0682A463946F7F717FDA068284463
S315080087B0A0602046FFF771FFE1680844A168884277
S315080087C001D1E068A0602846D4E7A0683246394659
S315080087D0F7F703FDE068A060AA1BB9192046FFF762
S315080087E0BFFF3044C6E7A0682A463946F7F7F5FCC6
S315080087F0A0682844A0602846BCE700E0401C20B1D9
S31508008800017811B101782029F8DD70472DE9F0418A
S3150800881006460F46F8F7AEF9041E0D4618BF0120A6
S31508008820284320F00040C0F17F6000F1E040C00F0F
S315080088300ED0301C18BF0120384320F00040C0F18C
S315080088407F6000F1E040C00F04BF0120FBF70AF883
S3150800885020462946BDE8F08108B54FF6FF701F236C
S3150800886016A2002100900820FAF7C4F94FF6FF7007
S315080088704FF4784316A2142100900846FAF7BAF97D
S315080088804FF6FF704FF4784316A228210090142063
S31508008890FAF7B0F94FF6FF704FF4784316A23C2169
S315080088A000901420FAF7A6F918A0FAF70BFF1DA0F6
S315080088B0FAF708FF21A0FAF705FF08BD2D3E537900
S315080088C07374656D5F446973706C61793C2D000043
S315080088D0312E5B53656E736F724D65737361676591
S315080088E05D000000322E5B4E6574776F726B4D65C6
S315080088F073736167655D0000332E5B537973746526
S315080089006D4D6573736167655D0000002D2D2DA1A2
S31508008910B7312EBBB7BEB3BCE0B2E2D0C5CFA220FA
S31508008920200D0A002D2D2DA1B7322ECDF8C2E7D77E
S31508008930B4CCACD0C5CFA220200D0A002D2D2DA178
S31508008940B7332ECFB5CDB3CFE0B9D8D0C5CFA22097
S31508008950200D0A000FB438B505A800900F48009AF4
S315080089600499FAF7D3FE002000900C48F7F76BFC41
S3150800897085B200240DE000BF40210948FAF7CDFD75
S315080089800028F9D00548015D0548FAF794FE601CF1
S3150800899084B2AC42EFDB38BC5DF814FB40B1002072
S315080089A00044004070B505460E4600240DB9601E09
S315080089B070BD00241BE0295D0F48FAF77CFE00BF56
S315080089C040210D48FAF7A9FD0028F9D0022C0DD34D
S315080089D0285DFF280AD155210748FAF76CFE00BF23
S315080089E040210548FAF799FD0028F9D0641CB442DD
S315080089F0E1D33046DCE70000004800400D48006837
S31508008A000D49C1F801000D480068C1F805000C4879
S31508008A100088C1F809000B480068C1F80D000A482B
S31508008A20006810B90120087002E0002002490870A9
S31508008A307047000090000020D0000020940000201D
S31508008A40A8000020A40000209481214210B511211D
S31508008A500148F7F7DBFB10BDD00000200000C0E09E
S31508008A60F0F8FC20000000000000210000002F00A4
S31508008A7000220000070007002300147F147F142437
S31508008A8000242A7F2A12250062640813232600364A
S31508008A9049552250270000050300002800001C2223
S31508008AA0410029000041221C002A0014083E08142F
S31508008AB02B0008083E08082C000000A060002D00C6
S31508008AC008080808082E0000606000002F00201023
S31508008AD008040230003E5149453E310000427F40BD
S31508008AE0003200426151494633002141454B313439
S31508008AF0001814127F103500274545453936003CC5
S31508008B004A49493037000171090503380036494991
S31508008B1049363900064949291E3A0000363600000A
S31508008B203B0000563600003C0008142241003D0078
S31508008B3014141414143E0000412214083F000201C4
S31508008B405109064000324959513E41007C12111222
S31508008B507C42007F4949493643003E41414122440F
S31508008B60007F4141221C45007F4949494146007F13
S31508008B700909090147003E4149497A48007F080822
S31508008B80087F490000417F41004A002040413F01DB
S31508008B904B007F081422414C007F404040404D0066
S31508008BA07F020C027F4E007F0408107F4F003E4173
S31508008BB041413E50007F0909090651003E415121B5
S31508008BC05E52007F091929465300464949493154DE
S31508008BD00001017F010155003F4040403F56001FFC
S31508008BE02040201F57003F4038403F580063140874
S31508008BF01463590007087008075A0061514945432C
S31508008C005B00007F4141005D000041417F005E003E
S31508008C1004020102045F0040404040406000000139
S31508008C200204006100205454547862007F4844448A
S31508008C3038630038444444206400384444487F6517
S31508008C400038545454186600087E09010267001853
S31508008C50A4A4A47C68007F08040478690000447D05
S31508008C6040006A004080847D006B007F1028440025
S31508008C706C0000417F40006D007C041804786E008B
S31508008C807C080404786F0038444444387000FC2497
S31508008C90242418710018242418FC72007C08040483
S31508008CA008730048545454207400043F4440207507
S31508008CB0003C4040207C76001C2040201C77003C6D
S31508008CC04030403C7800442810284479001CA0A075
S31508008CD0A07C7A004464544C447C14141414141470
S31508008CE02000000000000000000000000000000056
S31508008CF000210000183C3C3C181818001818000001
S31508008D0000002200666666240000000000000000DD
S31508008D10000000230000006C6CFE6C6C6CFE6C6C32
S31508008D20000000002418187CC6C2C07C0686C67CD3
S31508008D3018180000002500000000C2C60C18306094
S31508008D40C68600000000260000386C6C3876DCCC3D
S31508008D50CCCC7600000000270030303060000000E0
S31508008D6000000000000000002800000C1830303019
S31508008D70303030180C0000000029000030180C0CA8
S31508008D800C0C0C0C1830000000002A000000000033
S31508008D90663CFF3C660000000000002B0000000057
S31508008DA00018187E18180000000000002C000000AB
S31508008DB0000000000000181818300000002D000000
S31508008DC00000000000FE00000000000000002E0069
S31508008DD00000000000000000001818000000002F26
S31508008DE00000000002060C183060C0800000000079
S31508008DF03000007CC6C6CED6D6E6C6C67C000000C5
S31508008E00003100001838781818181818187E00004D
S31508008E1000003200007CC6060C183060C0C6FE0092
S31508008E200000003300007CC606063C060606C67C23
S31508008E30000000003400000C1C3C6CCCFE0C0C0C32
S31508008E401E00000000350000FEC0C0C0FC0E06066D
S31508008E50C67C000000003600003860C0C0FCC6C6EC
S31508008E60C6C67C00000000370000FEC606060C18C1
S31508008E7030303030000000003800007CC6C6C67CA2
S31508008E80C6C6C6C67C000000003900007CC6C6C639
S31508008E907E0606060C78000000003A00000000185E
S31508008EA018000000181800000000003B0000000031
S31508008EB01818000000181830000000003C000000D8
S31508008EC0060C18306030180C06000000003D000043
S31508008ED000000000FE0000FE0000000000003E004A
S31508008EE000006030180C060C183060000000003FC7
S31508008EF000007CC6C60C18181800181800000000D8
S31508008F00400000007CC6C6DEDEDEDCC07C00000059
S31508008F100041000010386CC6C6FEC6C6C6C60000AC
S31508008F200000420000FC6666667C66666666FC00B3
S31508008F300000004300003C66C2C0C0C0C0C2663C18
S31508008F4000000000440000F86C6666666666666C9B
S31508008F50F800000000450000FE66626878686062F6
S31508008F6066FE00000000460000FE666268786860DB
S31508008F706060F0000000004700003C66C2C0C0DE2A
S31508008F80C6C6663A00000000480000C6C6C6C6FE49
S31508008F90C6C6C6C6C6000000004900003C18181818
S31508008FA018181818183C000000004A00001E0C0C7F
S31508008FB00C0C0CCCCCCC78000000004B0000E6660C
S31508008FC06C6C78786C6666E6000000004C0000F071
S31508008FD06060606060606266FE000000004D000030
S31508008FE0C6EEFEFED6C6C6C6C6C6000000004E00C1
S31508008FF000C6E6F6FEDECEC6C6C6C6000000004FB0
S315080090000000386CC6C6C6C6C6C66C380000000066
S31508009010500000FC6666667C60606060F0000000D8
S31508009020005100007CC6C6C6C6C6C6D6DE7C0C0E77
S315080090300000520000FC6666667C6C666666E600A2
S315080090400000005300007CC6C660380C06C6C67C05
S31508009050000000005400007E7E5A181818181818C8
S315080090603C00000000550000C6C6C6C6C6C6C6C631
S31508009070C67C00000000560000C6C6C6C6C6C6C6E0
S315080090806C381000000000570000C6C6C6C6C6D613
S31508009090D6FE6C6C00000000580000C6C66C6C3822
S315080090A0386C6CC6C6000000005900006666666625
S315080090B03C181818183C000000005A0000FEC68626
S315080090C00C183060C2C6FE000000005B00003C3091
S315080090D0303030303030303C000000005C0000009A
S315080090E080C0E070381C0E0602000000005D00001B
S315080090F03C0C0C0C0C0C0C0C0C3C000000005E101C
S31508009100386CC60000000000000000000000005F88
S3150800911000000000000000000000000000FF000042
S315080091206030301800000000000000000000000059
S3150800913000610000000000780C7CCCCCCC760000E6
S315080091400000620000E06060786C66666666DC00B7
S315080091500000006300000000007CC6C0C0C0C67CDA
S31508009160000000006400001C0C0C3C6CCCCCCCCC81
S3150800917076000000006500000000007CC6FEC0C046
S31508009180C67C00000000660000386C6460F0606011
S315080091906060F00000000067000000000076CCCC9C
S315080091A0CCCCCC7C0CCC7800680000E060606C7697
S315080091B066666666E6000000006900001818003852
S315080091C018181818183C000000006A000006060067
S315080091D00E06060606060666663C006B0000E0609C
S315080091E060666C78786C66E6000000006C000038F3
S315080091F018181818181818183C000000006D0000F8
S31508009200000000ECFED6D6D6D6D6000000006E00CA
S3150800921000000000DC666666666666000000006F91
S3150800922000000000007CC6C6C6C6C67C000000005A
S31508009230700000000000DC66666666667C6060F0AA
S315080092400071000000000076CCCCCCCCCC7C0C0C99
S315080092501E00720000000000DC7662606060F000AC
S315080092600000007300000000007CC660380CC67C55
S3150800927000000000740000103030FC30303030360A
S315080092801C00000000750000000000CCCCCCCCCC43
S31508009290CC76000000007600000000006666666670
S315080092A0663C1800000000770000000000C6C6C62D
S315080092B0D6D6FE6C00000000780000000000C66CE0
S315080092C03838386CC600000000790000000000C677
S315080092D0C6C6C6C6C67E060CF8007A0000000000A0
S315080092E0FECC183060C6FE000000007B00000E1899
S315080092F0181870181818180E000000007C000018BE
S31508009300181818001818181818000000007D000012
S31508009310701818180E1818181870000000007E002B
S315080093200076DC000000000000000000000000A13C
S31508009330F1000007C00FF01FF83FFC7FFE7FFE7F9D
S31508009340FE7FFE7FFE7FFE3FFC3FFC1FF807E00026
S3150800935000A1E6600091F4960C6C04080418001845
S3150800936000180018001800180008000C0406080168
S31508009370F00000B0F61020102010207DFC54205478
S3150800938020542055FC7C205020102017FE1C20E479
S315080093902040200020B2BA1020104011FC11041100
S315080093A0FCFD0011FC110411FC10201C20E3FE40FA
S315080093B020002000200020D1A72208110811100043
S315080093C0207FFE400280041FE000400180FFFE016E
S315080093D0000100010005000200D4BA004078204BC5
S315080093E0FE5202540461F8500048004BFE4890684B
S315080093F090509041124112420E4400B5E702000215
S315080094000002007FF0421042107FF0421042107FA7
S31508009410F042000208020801F800000000D7D37FD6
S31508009420F000200040008001000200FFF802000260
S315080094300002000200020002000E0000000000CC3C
S31508009440EC00003FF80100010001000100FFFE01E9
S31508009450000280028004400440082010102008C042
S3150800946006C6F8100010003FFC20004FF080003FB1
S31508009470F000100010001000100010000A000A008A
S31508009480060002CDEA003000001800001C00100893
S315080094900C1FFFFE10001830001030006027FFF088
S315080094A000000000000000000C7FFFFE00C6000060
S315080094B0C60000C60000C60000C604008604018671
S315080094C0040306060207FE0C03FC30000020000019
S315080094D0000000000000000000000000000000007E
S315080094E0000000000000000000000000000000006E
S315080094F0000000000000000000000000000000005E
S31508009500000000000000000000000000000000004D
S31508009510000000000000000000000000000000003D
S31508009520000000000000000000000000000000002D
S31508009530000000000000000000000000000000001D
S31508009540000000000000000000000000000000000D
S3150800955000000000000000000000000000000000FD
S3150800956000000000000000000000000000000000ED
S3150800957000000000000000000000000000000000DD
S31508009580000000FFFFFFFFFFFFFFFFFFFFFFFFFFDA
S31508009590FFFFFFFFFFFFFFFFFFFFFFFFFFFFDFFFED
S315080095A0DFFFFFFFFFFFFFFFFFFFFFFFFFFFFFFFDD
S315080095B0FEFFFFFFFFFFFFFFFFFFFFFFFFFFFFFFAE
S315080095C0FFFFFFFFFFFFFFFFFFFFFFFFFFFFFFFF9D
S315080095D0FFFFFFFFFFFFFFFFFFFFFFF7FFF7FFF7A5
S315080095E0FFF7FFFFFFFFFFFFFFFFFFFFFFFFFFFF85
S315080095F0FFFFFFFFFFFFFFFFFFFFFFFFFFFFFFFF6D
S31508009600FFFFFFFFFEFFFFFFFFFFFFFFFFFFFFFF5D
S31508009610FFFFFFFFFFFFFFFFFFEFFFE7FFB75FB7A4
S315080096205FD7FFEFFFF7FFFFFFFFFFFFFFFFFFFF1C
S31508009630FFFFFFFFFFFFFFFFFFFFFFFFFFFFFFFF2C
S31508009640FFFFFFFFFEFFFFFFFFFFFFFFFFFFFFFF1D
S31508009650FFFFFFFFFEFFFFF7FFE7FF6D173C553CD7
S31508009660554C55C73FEFFFEFFFF7FFFFFFFFFFFF23
S31508009670FFFFDFFFFFFFFFFFFFFFFFFFFFFFFFFF0C
S31508009680FFFFFFFFFFFFFFFFFFFFFFFFFFFFFFFFDC
S31508009690FFFFFFFFFFFFFFEFFF8DFA44548EFFAF7A
S315080096A09F65175434D7FFE7FFEFFFEFFFF7FFFF7C
S315080096B0FFFFFFFFFFFFFFFFFFFFFFFFFFFFFFFFAC
S315080096C0FFFFFFFFFFFFFFFFFFFFFFFFFFFFFFFF9C
S315080096D0FFFFFFFFFFF7FFE7FF6D375D599F9FAF5E
S315080096E07FAF5F4C55AF7FBF9F85788557DFBFF744
S315080096F0DFFFFFFFFFFFFFFFFFFFFFFFFFFFFFFF8C
S31508009700FFFFFFFFFFFFFFFFFFFFFFFFFFFFFFFF5B
S31508009710FFFFFFFFFFF7DFE7FF6D58555A5D9B65B3
S3150800972058AF7F3C35A75FA73F6D3774F7CF5FF714
S31508009730FFFFDFFFFFFFFFFFFFFFFFFFFFFFFFFF4B
S31508009740FFFFFFFFFFFFFFFFFFFFFFFFFFFFFFFF1B
S31508009750FFFFFFFFFFFFFFE7FF6D58557B557B5D5A
S3150800976059AF7F3C56A79FC7FF8E5C9E7DDFFFF7EC
S31508009770FFFFFFFFFFFFFFFFFFFFFFFFFFFFFFFFEB
S31508009780FFFFFFFFFFFFFFFFFFFFFFFFFFFFFFFFDB
S31508009790FFFFFFFFFFFFFFEFFF6D38557B4D7C5D39
S315080097A05BAF7F3C35AF7F9EDF4C3453F3CF7FF7FB
S315080097B0FFFFFFFFFFFFFFFFFFFFFFFFFFFFFFFFAB
S315080097C0FFFFFFFFFFFFFFFFFFFFFFFFFFFFFFFF9B
S315080097D0FFFFFFFFFFFFFFE7FF6D39557C4D7C5DFF
S315080097E05BAF7F4456AF7FCFFFB75FBF7FE7FFF71B
S315080097F0FFFFFFFFFFFFFFFFFFFFFFFFFFFFFFFF6B
S31508009800FFFFFFFFFFFFFFFFFFFFFFFFFFFFFFFF5A
S31508009810FFFFFFFFFFF7FFE7FF6539557B557C65BF
S315080098205AAF5F4435AF7F9EDF4C145413BF1EF703
S31508009830FFFFFFFFFFFFFFFFFFFFFFFFFFFFFFFF2A
S31508009840FFFFFFFFFFFFFFFFFFFFFFFFFFFFFFFF1A
S31508009850FFFFFFFFFFF7FFDFFF6559557B557C6567
S315080098605AAF7F3C36AF9FCFFFB77FB77FDFFFF793
S31508009870FFFFFFFFFFFFFFFFFFFFFFFFFFFFFFFFEA
S31508009880FFFFFFFFFFFFFFFFFFFFFFFFFFFFFFFFDA
S31508009890FFFFFFFFFFF7FFE7FF6539557B4D7C5D4F
S315080098A05AA77F34369F7F8EBF4C554413C79FF700
S315080098B0FFFFFFFFFFFFFFFFFFFFFFFFFFFFFFFFAA
S315080098C0FFFFFFFFFFFFFFFFFFFFFFFFFFFFFFFF9A
S315080098D0FFFFFFFFFFF7FFE7FF6D39557B4D7B5D08
S315080098E05AA77F3C76A79FBFFF969E969EDFFFF7F7
S315080098F0FFFFFFFFFFFFFFFFFFFFFFFFFFFFFFFF6A
S31508009900FFFFFFFFFFFFFFFFFFFFFFFFFFFFFFFF59
S31508009910FFFFFFFFFFF7FFE7FF6D385D7B557B5DB8
S3150800992059A77F3C35A79F9F1F54765C95CF9FFF0D
S31508009930FFFFDFFFFFFFFFFFFFFFFFFFFFFFFFFF49
S31508009940FFFFFFFFFFFFFFFFFFFFFFFFFFFFFFFF19
S31508009950FFFFFFFFFFF7FFE7FF6D385D5A5D5A65AA
S3150800996059AF7F3C55A77FBF9F9E3B9E3BDFBFFFFE
S31508009970FFFFFFFFFFFFFFFFFFFFFFFFFFFFFFFFE9
S31508009980FFFFFFFFFFFFFFFFFFFFFFFFFFFFFFFFD9
S31508009990FFFFFFFFFFF7FFE7FF6D38653A6D9B7521
S315080099A058B77F3C35AF7FE7FFF7FFF7FFFFFFFFAD
S315080099B0FFFFFFFFDFFFFFFFFFFFFFFFFFFFFFFFC9
S315080099C0FFFFFFFFFFFFFFFFFFFFFFFFFFFFFFFF99
S315080099D0FFFFFFFFFFF7FFDFFF54B775BBC7FFD7D2
S315080099E0FFC75F4414B79FE7FFF7FFF7FFEFFFF7DF
S315080099F0FFF7FFFFFFFFFFFFFFFFFFFFFFFFFFFF71
S31508009A00FFFFFFFFFFFFFFFFFFFFFFFFFFFFFFFF58
S31508009A10FFFFFFFFFFEFFF75DB3C56AF3FDFFFE7BA
S31508009A20FFE7FFBFBFBFDFBF7FDFFFDFFFBF7FCF20
S31508009A30DFE7FFF7FFF7FFFFFFFFFFFFFFFFDFFF90
S31508009A40DFFFFFFFFFFFFFFFFFFFFFFFFFFFFFFF38
S31508009A50FFFFFFEFFF85B93C557E7EC7FF963A9D0F
S31508009A60D8E7FFB77F4C3464B65C545C745C954C9D
S31508009A7014B71FF7FFFFFFFFFFF7FFFFFFFFFFFF0B
S31508009A80FFFFFFFFFFFFFFFFFFFFFFFFFFFFFFFFD8
S31508009A90FFEFFFAF5F3C76867DA77F44B744356C02
S31508009AA0B5DFFF863D6D7ADFFFC71EC71EE7FF7568
S31508009AB07A8DFCF7FFFFFFFFFFFFFFFFFFFFFFFFAA
S31508009AC0FFFFFFFFFFFFFFFFFFFFFFFFFFFFFFFF98
S31508009AD0FFEFFF65BB44F9C7FF4C7554F8C7FFDFB6
S31508009AE0FFCFDF5CD79EDFCFFFB6FEDFDFDFFFA647
S31508009AF0DF5455DFBFF7FFFFDFFFFFFFFFFFFFFF65
S31508009B00DFFFDFFFFFFFFFFFFFFFDFFFFFFFFFFFB7
S31508009B10FFEFFF4497663FA7BF4455AEDEDFFFCF92
S31508009B20FF54758599DFFF5CF854D74C75D7FFDF6E
S31508009B30FF8DB95475C7BFEFFFFFFFFFFFFFFFFF9C
S31508009B40FFFFFFFFFFFFFFFFDFFFDFFFFFFFFFFF57
S31508009B50FFEFFF3C35769F9F7F4434B6FEDFFFAFAD
S31508009B607F4435D7FFBF7F3C55C7FF5D18B75FE712
S31508009B70FFD7FF4C33B77FEFFFFFFFFFFFFFFFFF66
S31508009B80FFFFFFFFFFFFFFFFFFFFFFFFFFFFFFFFD7
S31508009B90FFEFFF54D8555BCFFF54755D18BFFFCF55
S31508009BA0FF5CF964F8C7FF5CF754955454D7FFD7A0
S31508009BB0FF5C748577EFFFF7FFFFFFFFFFFFFFFFEF
S31508009BC0FFFFFFFFFFFFFFFFFFFFFFFFFFFFFFFF97
S31508009BD0FFEFFF8E5D3C76B7BFA71F4CB73C3664D8
S31508009BE0F98E5D655A96BFC7FFAF5FD7FFD7FF8E61
S31508009BF03D6D18EFFFF7FFF7FFFFFFFFFFFFFFFFC2
S31508009C00FFFFFFFFFFFFFFFFFFFFFFFFFFFFFFFF56
S31508009C10FFF7FFD7FF4C555D39B7FFB7DF965D7D78
S31508009C2059AF1F865D54F8A73F8E7F865EA75F5C97
S31508009C30F8965CF7FFFFFFFFFFFFFFFFFFFFFFFF41
S31508009C40FFFFFFFFFFFFFFFFFFFFFFFFFFFFFFFF16
S31508009C50FFF7FFEFFFC79F4C963C56861CB75FB7CA
S31508009C607FB75FBFBF653854557D9B7DDB4C7575E7
S31508009C7058D7FFF7FFFFFFFFFFF7FFFFFFFFFFFFC5
S31508009C80FFFFFFFFFFFFFFFFFFFFFFFFFFFFFFFFD6
S31508009C90FFFFFFFFFFF7FFD7BF85DB44353C353CA9
S31508009CA0554454A67CE7FFEFFFEFFFEFFFEFFFEF0A
S31508009CB0FFF7FFFFFFFFFFF7FFFFFFFFFFFFDFFFD6
S31508009CC0FFFFFFFFFFFFFFFFFFFFFFFFFFFFFFFF96
S31508009CD0FFFFFFFFFFF7DFF7FFE7FFCFFFB77FAF16
S31508009CE07FBF9FEFFFF7FFFFFFFFFFFFFFFFFFFFAE
S31508009CF0FFFFFFFFFFFFFFFFFFFFFFFFDFFFFFFF86
S31508009D00FFFFFFFFFFFFFFFFFFFFFFFFFFFFFFFF55
S31508009D10FFFFFFFFFFFFFFFFFFFFFFF7FFF7FFEF65
S31508009D20FFF7FFFFFFFFFFFFFFFFFFFFFFFFDFFF5D
S31508009D30FFFFFFFFFFFFFFFFFFFFFFFFFFFFFFFF25
S31508009D40FFFFFFFFFFFFFFFFFFFFFFFFFFFFFFFF15
S31508009D50FFFFDFFFDFFFFFFFFFFFFFFFFFFFFFFF45
S31508009D60FFFFFFFFFFFFFFFFFFFFFFFFFFFFFFFFF5
S31508009D70DFFFFFFFFFFFFFFFFFFFFFFFFFFFFEFF06
S31508009D80FFFFFF001020002000011BFFFFFFFFFF61
S31508009D90FFFFFFFFFFFFFFFFFFFFFFFFFFFFFF00C4
S31508009DA000000000000000000000000000FFFFFFA8
S31508009DB0FFFFFFFFFFFFFFFFFFFFFFFFFFFFFFFFA5
S31508009DC0FFFFFFFFFFFFFFFFFFFFFFFFFFFFFFFF95
S31508009DD0FFFFFFFFFFFFFFFFFFFFFFFFFFFFFF0084
S31508009DE000284228422842284228420000FFFFFF56
S31508009DF0FFFFFFFFFFFFFFFFFFFFFFFFFFFFFFFF65
S31508009E00FFFFFFFFFFFFFFFFFFFFFFFFFFFFFFFF54
S31508009E10FFFFFFFFFFFFFFFFFFFFFFFFFFFFFF0043
S31508009E2000FFFFFFFFFFFFFFFFFFFF0000FFFFFF31
S31508009E30FFFFFFFFFFFFFFFFFFFFFFFFFFFFFFFF24
S31508009E40FFFFFFFFFFFFFFFFFFFFFFFFFFFFFFFF14
S31508009E50FFFFFFFFFFFFFFFFFF0000FFFFFFFF0001
S31508009E6000FFFFFFFFFFFFFFFFFFFF0000FFFFFFF1
S31508009E70FFFFFFFFFFFFFFFFFFFFFFFFFFFFFFFFE4
S31508009E80FFFFFFFFFFFFFFFFFFFFFFFFFFFFFFFFD4
S31508009E90FFFFFFFFFFFFFFFFFF0000FFFFFFFF00C1
S31508009EA000FFFF8DFA8DFA6DFAFFFF0000FFFFFF36
S31508009EB0FFFFFFFFFFFFFFFFFFFFFFFFFFFFFFFFA4
S31508009EC0FFFFFFFFFFFFFFFFFFFFFFFFFFFFFFFF94
S31508009ED0FFFFFFFFFFFFFFFFFFFFFFFFFFFFFF0083
S31508009EE000FFFF8DFA8DFA6DFAFFFF0000FFFFFFF6
S31508009EF0FFFFFFFFFFFBDE0000FFFFFFFFFFFFFF87
S31508009F00FFFFFFFFFFFFFFFFFFFFFFFFFFFFFFFF53
S31508009F10FFFFFFFFFFFFFFFFFF0000FFFFFFFF0040
S31508009F2000FFFF8DFA8DFA6DFAFFFF0000FFFFFFB5
S31508009F30FFFFFFFFFF000000000000FFFFFFFFFF1D
S31508009F40FFFFFFFFFFFFFFFFFFFFFFFFFFFFFFFF13
S31508009F50FFFFFFFFFFFFFFAA520000F7BDFFFF004C
S31508009F6000FFFF8DFA8DFA6DFAFFFF0000FFFFFF75
S31508009F70FFFFFF00000000FFFF00000000FFFFFFDB
S31508009F80FFFFFFFFFFFFFFFFFFFFFFFFFFFFFFFFD3
S31508009F90FFFFFFFFFFFFFFFFFFFFFFFFFFFFFF00C2
S31508009FA000FFFF8DFA8DFA6DFAFFFF0000FFFFFF35
S31508009FB0FFFFFF0000FFFFFF1F392E0000FFFFFF16
S31508009FC0FFFFFFFFFFFFFFFFFFFFFFFFFFFFFFFF93
S31508009FD0FFFFFFFFFFFFFFFFFFFFFFFFFFFFFF0082
S31508009FE000FFFF8DFA8DFA6DFAFFFF0000FFFFFFF5
S31508009FF0FF00000000FF2FFF27FF1F00000000FFE3
S3150800A000FFFFFFFFFFFFFFFFFFFFFFFFFFFFFFFF52
S3150800A010FFFFFFFFFFFFFF38C60000FFFFFFFF003F
S3150800A02000FFFF8DFA8DFA6DFAFFFF0000FFFFFFB4
S3150800A030FF00000000FF1FFF27FF2700000000FFAA
S3150800A040FFFFFFFFFFFFFFFFFFFFFFFFFFFFFFFF12
S3150800A050FFFFFFFFFFFFFFFFFF0000FFFFFFFF00FF
S3150800A06000FFFF8DFA8DFA6DFAFFFF0000FFFFFF74
S3150800A070FF00000000FF0FFF27FF1F00000000FF82
S3150800A080FFFFFFFFFFFFFFFFFFFFFFFFFFFFFFFFD2
S3150800A090FFFFFFFFFFFFFFFFFFFFFFFFFFFFFF00C1
S3150800A0A000FFFF8DFA8DFA6DFAFFFF0000FFFFFF34
S3150800A0B0FFFFFF00000000000000000000FF1FFF78
S3150800A0C0FFFFFFFFFFFFFFFFFFFFFFFFFFFFFFFF92
S3150800A0D0FFFFFFFFFFFFFFFFFF0000FFFFFFFF007F
S3150800A0E000FFFF8DFA8DFA6DFAFFFF0000FFFFFFF4
S3150800A0F0FFFFFFFFFF000000007605FF3FFFFFFFA1
S3150800A100FFFFFFFFFFFFFFFFFFFFFFFFFFFFFFFF51
S3150800A110FFFFFFFFFFFFFFFFFF0000FFFFFFFF003E
S3150800A12000FFFF8DFA8DFA6DFAFFFF0000FFFFFFB3
S3150800A130FFFFFFFFFFFFFFFFFFFFFFFFFFFFFFFF21
S3150800A140FFFFFFFFFFFFFFFFFFFFFFFFFFFFFFFF11
S3150800A150FFFFFFFFFFFFFFFFFFFFFFFFFFFFFF0000
S3150800A16000FFFF8DFA8DFA6DFAFFFF0000FFFFFF73
S3150800A170FFFFFFFFFFFFFFFFFFFFFFFFFFFFFFFFE1
S3150800A180FFFFFFFFFFFFFFFFFFFFFFFFFFFFFFFFD1
S3150800A190FFFFFFFFFFFFFFFFFFFFFFFFFFFFFF00C0
S3150800A1A000FFFF8DFA8DFA6DFAFFFF0000FFFFFF33
S3150800A1B0FFFFFFFFFFFFFFFFFFFFFFFFFFFFFFFFA1
S3150800A1C0FFFFFFFFFFFFFFFFFFFFFFFFFFFFFFFF91
S3150800A1D0FFFFFFFFFFFFFFFFFFFFFFFFFFFFFF0080
S3150800A1E000FFFF8DFA8DFA6DFAFFFF0000FFFFFFF3
S3150800A1F0FFFFFFFFFFFFFFFFFFFFFFFFFFFFFFFF61
S3150800A200FFFFFFFFFFFFFFFFFFFFFFFFFFFFFFFF50
S3150800A210FFFFFFFFFFFFFFFFFFFFFF00000000003B
S3150800A22000FFFF8DFA8DFA6DFAFFFF00000000FFB0
S3150800A230FFFFFFFFFFFFFFFFFFFFFFFFFFFFFFFF20
S3150800A240FFFFFFFFFFFFFFFFFFFFFFFFFFFFFFFF10
S3150800A250FFFFFFFFFFFFFFFFFF000000000000FFFA
S3150800A260FFFFFF8DFA8DFA6DFAFFFFFFFF00000072
S3150800A2700079CEFFFFFFFFFFFFFFFFFFFFFFFFFF96
S3150800A280FFFFFFFFFFFFFFFFFFFFFFFFFFFFFFFFD0
S3150800A290FFFFFFFFFFFFFFFFFF00000000FFFFFFBC
S3150800A2A0FFFFFF0CFA8DFA6CFAFFFFFFFFFFFF00B6
S3150800A2B0000000FFFFFFFFFFFFFFFFFFFFFFFFFF9D
S3150800A2C0FFFFFFFFFFFFFFFFFFFFFFFFFFFFFFFF90
S3150800A2D0FFFFFFFFFFFFFF00000000FFFFFFFFFF7C
S3150800A2E0FF6DFA8DFA8DFA8DFA6DFAFFFFFFFFFF03
S3150800A2F0FF00000000FFFFFFFFFFFFFFFFFFFFFF5C
S3150800A300FFFFFFFFFFFFFFFFFFFFFFFFFFFFFFFF4F
S3150800A310FFFFFFFFFFFFFF00000000FFFFFFFF6DCD
S3150800A320FA8DFA8DFA8DFA8DFA8DFA8DFAFFFFFFFE
S3150800A330FF00000000FFFFFFFFFFFFFFFFFFFFFF1B
S3150800A340FFFFFFFFFFFFFFFFFFFFFFFFFFFFFFFF0F
S3150800A350FFFFFFFFFFFFFF00000000FFFFFFFF8D6D
S3150800A360FA8DFA8DFA8DFA8DFA8DFA8DFAAEFAFF14
S3150800A370FF694A0000FFFFFFFFFFFFFFFFFFFFFF28
S3150800A380FFFFFFFFFFFFFFFFFFFFFFFFFFFFFFFFCF
S3150800A390FFFFFFFFFFFFFF00000000FFFF5AFE8DD3
S3150800A3A0FA8DFA8DFA8DFA8DFA8DFA8DFA6DFAFF15
S3150800A3B0FFDBDE0000FFFFFFFFFFFFFFFFFFFFFFE2
S3150800A3C0FFFFFFFFFFFFFFFFFFFFFFFFFFFFFFFF8F
S3150800A3D0FFFFFFFFFFFFFF00000000FFFFFFFF8DED
S3150800A3E0FA8DFA8DFA8DFA8DFA8DFA8DFAEDFAFF55
S3150800A3F0FF00000000FFFFFFFFFFFFFFFFFFFFFF5B
S3150800A400FFFFFFFFFFFFFFFFFFFFFFFFFFFFFFFF4E
S3150800A410FFFFFFFFFFFFFF00000000FFFFFFFF8DAC
S3150800A420FA8DFA8DFA8DFA8DFA8DFA8DFA90FBFF70
S3150800A430FF00000000FFFFFFFFFFFFFFFFFFFFFF1A
S3150800A440FFFFFFFFFFFFFFFFFFFFFFFFFFFFFFFF0E
S3150800A450FFFFFFFFFFFFFFFFFF0000FBDEFFFFD947
S3150800A460FD8DFA8DFA8DFA8DFA8DFA2EFAFFFFFF19
S3150800A470FF0000FFFFFFFFFFFFFFFFFFFFFFFFFFDC
S3150800A480FFFFFFFFFFFFFFFFFFFFFFFFFFFFFFFFCE
S3150800A490FFFFFFFFFFFFFFFFFF00000000FFFFFFBA
S3150800A4A0FFFFFF2BFA6DFA8DFA4DFAFFFFFFFF004B
S3150800A4B0000000FFFFFFFFFFFFFFFFFFFFFFFFFF9B
S3150800A4C0FFFFFFFFFFFFFFFFFFFFFFFFFFFFFFFF8E
S3150800A4D0FFFFFFFFFFFFFFFFFFFFFF00000000FF7A
S3150800A4E0FFFFFFFFFFFFFFFFFFFFFFFFFF0000006B
S3150800A4F000FFFFFFFFFFFFFFFFFFFFFFFFFFFFFF5D
S3150800A500FFFFFFFFFFFFFFFFFFFFFFFFFFFFFFFF4D
S3150800A510FFFFFFFFFFFFFFFFFFFFFFFFFF0000003A
S3150800A520000000000065290000000000000000FF90
S3150800A530FFFFFFFFFFFFFFFFFFFFFFFFFFFFFFFF1D
S3150800A540FFFFFFFFFFFFFFFFFFFFFFFFFFFFFFFF0D
S3150800A550FFFFFFFFFFFFFFFFFFFFFFFFFFFFFFFFFD
S3150800A560FF00000000000000000000FFFFFFFFFFE3
S3150800A570FFFFFFFFFFFFFFFFFFFFFFFFFFFFFFFFDD
S3150800A580FFFFFFFFFFFFFFFFFFFFFFFFFFFFFFFFCD
S3150800A590FFFFFFFFDFFFFFFFFFFFFFFFFFFFFFFFDD
S3150800A5A0FFFFFFFFFFFFFFFFFFFFFFFFFFFFDFFFCD
S3150800A5B0FFFFFFF7DFFFFFFFFFFFFFFFDFFFFFFFE5
S3150800A5C0FFFFFEFFFFFFFFFFFFFFFFFFFFFFFFFF8E
S3150800A5D0FFFFFFFFFFFFFFFFFFFFFFFFFFFFFFFF7D
S3150800A5E0DEFFFFFFDFFFFFFFFF6B8E6B4EFFFFFFF8
S3150800A5F0FFFFFFFFFFFFDFFFFFFFFFFFFFFFFFFF7D
S3150800A600DEFFFEFFFFFFFFFFFFFFFFFFFFFFFFFF6E
S3150800A610FFFFFFFFFFFFFFFFFFFFFFFFFFFFFFFF3C
S3150800A620FFFFFFFFFFFFFFFFFF39E839C8FFFFFF06
S3150800A630DFFFFFFFFFFFFFFFFFFFFFFFDFFFFFFF5C
S3150800A640FFFFFFFFFFFFFFFFFFFFFFFFFFFFFFFF0C
S3150800A650DEFFFFFFFFFFFFFFFFFFFFFFFFFFFFFF1D
S3150800A660FFFFDFFFFFFFFFFFFF31C739C7FFFFFF10
S3150800A670FFFFFFFFDFFFFFFFFFFFFFFFFFFFFFFFFC
S3150800A680FFFFFFFFFFFFFFFFFFFFFFFFFFFFFFFFCC
S3150800A690FFFFDFFFFFFFFFBE19ADB7FFFFFFFFFF9D
S3150800A6A0FFFFFFFFFFFFFFFFFFAD96BDF8FFFFF7B8
S3150800A6B0FFF7FFFFFFFFFFFFFFFFFFA536C65AFFA5
S3150800A6C0DFFFFFFFFFFFDFFFFFFFFFFFFFFFDFFFEC
S3150800A6D0FFFFFFFFFFFFFF39E831C88C92FFFFFF3E
S3150800A6E0DFFFDFFFFFFFFFFFFFFFFFFFFFFFFFFFAC
S3150800A6F0FFFFFFFFFFFFFFFFFF8C5239E931A7FF7E
S3150800A700FFFFFFFFDFFFFFFFFFFFFFFFFFFFFFFF6B
S3150800A710FFFFFFFFFFFFFFB5D8320831E8D6DBFFA2
S3150800A720DFFFDFFFFFFFFFFFFFFFFFFFFFFFFFFF6B
S3150800A730FFFFFFFFDFFFDFE6DC39C831C8B5F8FFEA
S3150800A740FFFFDFFFFFFFFFFFFFFFFFFFFFFFFFFF2B
S3150800A750FFFFFFFFFFFFFFF7FF95148492E75DFFFA
S3150800A760DFFFDFF7BFB5F894F473CF7BF094D3B56A
S3150800A770D7F7DFFFFFFFDFF77F73AF9CF4FFFFFF1D
S3150800A780FFFFFFFFFFFFFFFFFFFFFFFFFFFFFFFFCB
S3150800A790FFFFFFFFFFFFFFFFFFFFFFFFFFFFDFFFDB
S3150800A7A0FFDEDC634E3209320931C831E831E8315F
S3150800A7B0E9636EDEDCFFFFFFFFFFFFFFFFFFFFFF22
S3150800A7C0FFFFFFFFFFFFFFFFDFFFFFFFFFFFFFFFAB
S3150800A7D0FFFFFFFFFFFFFFFFFFFFFFFFFFFFFFA4D6
S3150800A7E0F431C732294B2C7CB3AE18AE1884B35358
S3150800A7F00D320931C89CF4FFFFFFFFFFFFFFFFFF83
S3150800A800FFFFFFFFFFFFDFFFFFFFFFFFFFFFFFFF6A
S3150800A810DFFFFFFFFFFFFFFFFFFFFFFFFFCE9A31BE
S3150800A820A731E86C71CFFEB71B95D6A679CF3DDF69
S3150800A830BF743131E831E8CE7AFFFFFFFFFFFFFF33
S3150800A840FFFFFFFFFFFFFFFFFFFFDFFFFFFFFFFF2A
S3150800A850FFFFFFFFFFFFFFFFDFFFFFFFFF632D394E
S3150800A860E86C30CFFF8E9765120A671A6832EB7468
S3150800A87092E7FF741031E8632DFFFFFFFFFFFFFF2C
S3150800A880FFFFFFFFFFFFFFFFFFFFFFFFFFFFFFFFCA
S3150800A890FFFFFFFFFFFFFFFFFFFFFFD6DB31E831BA
S3150800A8A0E8B6FA8EF77F175DB22BCB0A871A681AB5
S3150800A8B0088D35C6FB2A0831C8D6DBFFFFFFFFFF28
S3150800A8C0FFFFFFFFFFFFFFFFFFFFFFFFFFFFFFFF8A
S3150800A8D0FFAD769CF4B5B6FFFFFFFFA57731E853C9
S3150800A8E06DC7DD76F66F5677157EF66DF4338B22D7
S3150800A8F069430CCF5D4B4D3208AD76FFDFFFFFA5F0
S3150800A900569CF5B5D8F7BFFFFFFFFFFFFFFFFFC651
S3150800A9105A31A83A0931C79CF4FFDF73D1320A7459
S3150800A920B2A739773667756F7577357EF655101A7B
S3150800A930682A89BEFB7CD32A0873D0FFFF9CB331F3
S3150800A940C831C931C8CE7AFFFFFFFFFFFFFFFFF707
S3150800A950DFA53594F4B5B7FFFFFFFF843229C86435
S3150800A96050AF9A773667755F546F7577567ED623DC
S3150800A9706A3B6CBF5C6C712A0994D4FFFFFFFFA584
S3150800A980369CF5B5B7F79EFFFFFFFFFFFFFFFFFFFA
S3150800A990FFFFFFFFFFFFFFFFFFFFFF9CF429C84BE8
S3150800A9A04CC7DC7ED66F3667755F755F566F577F07
S3150800A9B0168EB7CFFE4B2C31C8CE5AFFFFFFFFFFCE
S3150800A9C0FFFFFFFFFFFFFFFFFFFFFFFFFFFFFFFF89
S3150800A9D0FFFFFFFFFFFFFFFFFFFFFFE73D3A092AE3
S3150800A9E007A698A75A87176EF577766F776F367F1B
S3150800A9F016A759BF3B29E83A09F7BFFFFFFFFFFF34
S3150800AA00FFFFFFFFFFFFFFFFFFFFFFFFFFFFFFFF48
S3150800AA10FFFFFFFFFFFFFFFFFFFFFFFFFF8431324E
S3150800AA20083AAABF3BB75AB77A9F1896F796F7AF70
S3150800AA3039C79C4AEB39E87BD0FFDFFFFFFFFFFFF2
S3150800AA40FFFFFFFFFFFFFFFFFFFFFFFFFFFFFFFF08
S3150800AA50FFFFFFFFFFFFFFFFFFFFFFFFFFD6DC3112
S3150800AA60C731E75B6DF7FFEFFFEFFFE7FFE7FFBED5
S3150800AA70FA4B0B31E86B6EFFBFFFDFFFFFFFFFFFEF
S3150800AA80FFFFFFFFFFFFFFFFFFFFFFFFFFFFFFFFC8
S3150800AA90FFFFFFFFFFFFFFFFFFFFFFFFFFFFFFC6F1
S3150800AAA03931C7634DF7FFFFFFF7FFF7FFF7FF429F
S3150800AAB08A31E8632DEF5DFFFFFFFFFFFFFFFFFF12
S3150800AAC0FFFFFFFFFFFFFFFFFFFFFFFFFFFFFFFF88
S3150800AAD0FFFFFFFFFFFFFFFFFFFFFFFFFFFFFFF780
S3150800AAE0DFEF9FCEBBEFBFFFFFFFFFFFFFFFFF318B
S3150800AAF0E831C8CE9BFFFFFFFFFFFFFFFFFFFFFF09
S3150800AB00FFFFFFFFFFFFFFFFFFFFFFFFFFFFFFFF47
S3150800AB10FFFFFFFFFFFFFFFFFFFFFFFFDFFFFFFF57
S3150800AB20FF741031E832085B0D8472AD97D6DC31BC
S3150800AB30C931E9DF3DF7FFFFFFFFFFFFFFFFFFFF1B
S3150800AB40FFFFFFFFFFFFFFFFFFFFFFFFFFFFFFFF07
S3150800AB50FFFFFFFFFFFFFFFFFFFFFFFFFFFFFFFFF7
S3150800AB60FF9D1531E831E831E831E9320931C8315C
S3150800AB70E929A8F7FFFFFFFFFFFFFFFFFFFFFFFF22
S3150800AB80FFFFFFFFFFFFFFFFFFFFFFFFFFFFFFFFC7
S3150800AB90FFFFFFFFFFFFFFFFFFFFFFFFFFFFFFFFB7
S3150800ABA0FFFFFFFFFFCE9B9CF56B903A0929A8395A
S3150800ABB0C939E9FFFFFFFFFFFFFFFFFFFFFFFFFFA9
S3150800ABC0FFFFFFFFFFFFFFFFFFFFFFFFFFFFFFFF87
S3150800ABD0FFFFFFFFFFFFFFFFFFFFFFFFFFFFFFFF77
S3150800ABE0FF6B6E31C85ACD7C129CF5BE19DF1DA5C8
S3150800ABF037AD77FFDFFFFFFFFFFFFFFFFFFFFFFF19
S3150800AC00FFFFFFFFFFFFFFFFFFFFFFFFFFFFFFFF46
S3150800AC10FFFFFFFFFFFFFFFFFFFFFFFFFFFFFFFF36
S3150800AC20FF843139E939C931A931C931E9424A7351
S3150800AC3090FFDFFFFFFFFFFFFFFFFFFFFFFFFFFFA5
S3150800AC40FFFFFFFFFFFFFFFFFFFFFFFFFFFFFFFF06
S3150800AC50FFFFFFFFFFFFFFFFFFFFFFFFFFFFDFFF16
S3150800AC60FFFFFFDEFCA5567C1252CD31C831E93113
S3150800AC70C8D69BFFFFFFFFFFFFFFFFFFFFFFFFFF9A
S3150800AC80FFFFFFFFFFFFFFFFFFFFFFFFFFFFFFFFC6
S3150800AC90FFFFFFFFFFFFFFFFFFFFFFFFFFFFFFFFB6
S3150800ACA0FFDEFC5B2D4AAB7411A577CEDCB5F8AD9B
S3150800ACB096FFFFFFFFF7DFFFFFFFFFFFFFFFFFFF27
S3150800ACC0FFFFFFFFFFFFFFFFFFFFFFFFFFFFFFFF86
S3150800ACD0FFFFFFFFFFFFFFFFFFFFFFFFFFFFFFFF76
S3150800ACE0FFEF9E31C831E831E829C831E8636EFFC5
S3150800ACF0FFFFFFFFFFFFFFFFFFFFFFFFFFFFFFFF56
S3150800AD00FFFFFFFFFFFFFFFFFFFFFFFFFFFFFFFF45
S3150800AD10FFFFFFFFFFFFFFFFFFFFFFFFFFFFFFFF35
S3150800AD20FFFFFFF7BFC639A5156B8F424A31E8FF0B
S3150800AD30FFFFFFFFFFFFFFFFDFFFFFFFFFFFFFFF35
S3150800AD40FFFFFFFFFFFFFFFFFFFFFFFFFFFFFFFF05
S3150800AD50FFFFFFFFFFFFFFFFFFFFFFFFFFFFFFFFF5
S3150800AD60FFFFFFFFFFFFDFFFFFFFFFFFFFFFFFFF05
S3150800AD70FFFFFFFFFFFFFFFFFFFFFFFFFFFFFFFFD5
S3150800AD80FFFFFFFFFFFFFFFFFFFFFF101000200080
S3150800AD9020011BFFFFFFFFFFFFFFFFFFFEFFFEFF78
S3150800ADA0FFFFFFFFDFFFDFFFFFFFFFFFFFFFFFFFE5
S3150800ADB0FFFFFFFFFFFFFFFFFFFFFFFFFEFFFEFF97
S3150800ADC0FFFFFFFFFFFFFFF7FFFFFFFFDFFFFFFFAD
S3150800ADD0FFFFFEFFFFFFFFFFDFFFFFFFFFFFFEFF97
S3150800ADE0FFFFFFFFFFFFDFF7FFF7FFEFFFEFFFEFC5
S3150800ADF0FFE7FFE7FFEFFFE7FFE7FFF7FFFFFFFFCD
S3150800AE00FFFFFFFFDFFFFFF7FFFFFFFFFFFFDFFF8C
S3150800AE10FFFFFEFFFFFFDFFFFFFFFFFFFFFFFFFF55
S3150800AE20FFFFFFFFFFF7FFE7FFD7FFA75F6E1B4D8B
S3150800AE30593CF944F84D596E1C9F5FD7FFE7FFF759
S3150800AE40FFFFFFFFFFFFFFFFFFFFFFFFFFFFFFFF04
S3150800AE50DFFFFFFFFFFFFFFFFFFFFFFFFFFFFFF71C
S3150800AE60FFEFFFEFFFD7FF6D772C11241324141C77
S3150800AE70151C361C361C15241523F42BF36578D7B8
S3150800AE80FFEFFFEFFFF7FFFFFFFFFFFFFFFFFFFFEC
S3150800AE90FFFFFFFFFFFFFFFFFFFFDFFFFFF7FFEFEC
S3150800AEA0FFE7FF75DA241424132C333C3475B99E56
S3150800AEB0BDAEFEAF1E9EBD75BA3C342C141C141CC8
S3150800AEC03565FBDFFFEFFFF7FFFFFFFFDFFFFFFF44
S3150800AED0FFFFFFFFFFFFFFFFFFFFFFF7FFEFFFD7B4
S3150800AEE0FF44542C1423F45558AFDFCFFFD7FFDFA8
S3150800AEF0FFD7FFD7FFDFFFCFFFCFFFAFDF4D5914D7
S3150800AF00351C354454DFFFF7FFFFFFFFFFFFFFFF48
S3150800AF10FFFFFFFFFFFFFFFFFFF7FFEFFFDFFF2C3E
S3150800AF2054245433F3B71FE7FFDFFFCFFFC7FF975C
S3150800AF305F5D795D799F5FCFFFD7FFE7FFE7FFAFDB
S3150800AF403F33F324542C34DFFFF7FFF7FFFFFFFFEF
S3150800AF50FFFFFFFFFFFFFFFFFFF7FFE7FF44542454
S3150800AF60342455D7FFE7FFE7FFBF3D54732BB133B2
S3150800AF70F34CB64CB633F233905473BF3EE7FFE753
S3150800AF80FFD7FF245424344474E7FFF7FFFFFFFF7D
S3150800AF90FFFFFFFFDFFFFFFFFFEFFF75BB2C163339
S3150800AFA0D3D7FFBF9FD7FF5D37339085B8DFFFEF55
S3150800AFB0FFEFFFEFFFEFFFDFFF7D982B916538DF8F
S3150800AFC0FFBF9FCFFF2BF3245565DBEFFFFFFFFF86
S3150800AFD0FFFFFFFFBFFFFFF7FFD7FF23D423F5BF10
S3150800AFE05FE7FFAF3F33D23C13D7FFE7FFF7FFFF1B
S3150800AFF0FFFFFFFFFFFFFFEFFFE7FFCFFF3C343305
S3150800B00091AF3EDFFFB77F14151C35D7FFF7FFFF5B
S3150800B010FFFFDEFFFFF7FFDFFF6D9724145559DFAB
S3150800B020FFE7FF65583C13E7FFEFFFF7FFFFFFFF5A
S3150800B030FFFFFFFFFFFFFFFFFFF7FFEFFFE7FF3C05
S3150800B040346D58E7FFE7FF4D1824146D98DFFFF7B6
S3150800B050FFFFFFFFFFEFFFD7FF2C122C33AFDFDF19
S3150800B060FFBF1D3390D7FFEFFFFFFFFFFFFFFFFF77
S3150800B070DEFFFFFFFEFFFFF7FFF7FFEF7EEFFFCFD5
S3150800B080FF3391C73EE7FFB7DF2C3423F2CFFFEF3C
S3150800B090FFFFFFFFDEEFFF9F3F23F33C54CFFFCFB9
S3150800B0A0FF54748DD9EFFFF7FFFFFFFFDFFFFFFFA8
S3150800B0B0FFFFFFFFFEFFFFEFFFAE3BF7DFF7FFE700
S3150800B0C0FF85D85C73D7FFCFFF3C3423F49F5FEF2F
S3150800B0D0FFFFFFFFFFE7FF6DFC243575D9D7FFC7D4
S3150800B0E0FF2B91E7FFF7FFFFFFFFFFFFFFFFFFF7CC
S3150800B0F0FFF7FFF7FFEFFF74B4E7FFF7FFF7FFF778
S3150800B100FFD7FF3390C7FFD7FF75B92C356DFCE71E
S3150800B110FFFFFFFFFFEFFF557A1C159E9CDFFF9789
S3150800B1203F33F2EFFFFFFFFFFFFFDFFFFFF7FFE70A
S3150800B130FFBF5FAF5F4C33EFFFFFFFFFFFFFFFF778
S3150800B140FFEFFF33D1A77FDFFF967C24355559EFF4
S3150800B150FFFFFFFFFFE7FF3CD81C15B73EDFFF8662
S3150800B160DE44B6EFFFFFFFFFFFFFFFF7FFEFFFB776
S3150800B1705F33B22BD3A71FEFFFFFFFFFFFFFFFFFD2
S3150800B180FFEFFF4CB58EDEDFFFAF1E1C354518E717
S3150800B190FFFFFFFFFFE7FF3CF81C35AF3FBF7F34DB
S3150800B1A07544D6EFFFFFFFFFFFFFFFF7FFE7FF86B8
S3150800B1B03C2BF333B2B73FEFFFFFFFFFFFFFDFFF85
S3150800B1C0FFEFFF44D53475BF5FAF1E1C353D18E74A
S3150800B1D0FFFFFFFFFFE7FF45381C359EBDD7FF97EA
S3150800B1E05F2BF3EFFFF7DFFFFFFFFFF7FF9DF83356
S3150800B1F0918E9DBF5FE7FFF7FFFFFFFFFFFFFFFF92
S3150800B200FFEFFF33F29F7FDFFF9EBD1C154518E752
S3150800B210FFFFFFFFFFEFFF763C241475B9D7FFCF7A
S3150800B220FF3371DFFFF7FFF7FFFFFFEFFFE7DEBE34
S3150800B230BCE7FFF7FFFFFFFFFFFFFFFFFFF7FFF783
S3150800B240FFDFFF3390CFFFD7FF75992414763CEFC5
S3150800B250FFFFFFFFFFEFFF9F1F24133C74CFFFD7AD
S3150800B260FF5C548DB9E7FFEFFFF7FFFFFFFFFFF71E
S3150800B270FFFFFFFFFFFFFFFFFFFFFFFFFFF7FFDFF8
S3150800B280FF85D85C53D7FFCFFF3C542BF49F1FEFA5
S3150800B290FFFFFFFFFFF7FFD7FF34122433AFFFDFAF
S3150800B2A0FFC71E3370D7FFF7FFFFFFFFFFFFFFFF44
S3150800B2B0FFFFFFFFFFFFFFFFFFFFDFFFFFEFFFCFF0
S3150800B2C0FF2BB1C73EDFFFAFFF241333F3DFFFF7D2
S3150800B2D0FFFFFFFFFFF7FFDFFF6D771C344D58E7D1
S3150800B2E0FFE7FF65174412EFFFFFFFFFFFFFFFFFB2
S3150800B2F0FFFFFFFFFFFFFFFFFFFFFFFFFFEFFF3C23
S3150800B300125D57E7FFDFFF4D581C346D78E7FFF7EE
S3150800B310FFFFFFFFFFF7FFF7FFCFDF24352435AF29
S3150800B3203FDFFFD7FF43B0CEFCFFFFFFFFFFFFFF66
S3150800B330FFFFFFFFFFF7FFFFFFFFFFF7FFCF1C3BF6
S3150800B3408FD7FFDFFFAF3F1C152415CFFFF7FFFF91
S3150800B350FFFFFFFFFFFFFFFFFFEFFF6DDB24153445
S3150800B36013CFFFAF3FC77FF7FFFFFFFFFFFFFFFFCB
S3150800B370FFFFFFFFFFFFFFFFFFFFFFFFFFF7FFC70F
S3150800B3807FAF3FCFFF341424356DFBEFFFFFFFFF80
S3150800B390FFFFFFFFFFFFFFFFFFF7FFE7FF44541C18
S3150800B3A0562456CFFFE7FFF7FFFFFFFFFFFFFFFF1C
S3150800B3B0FFFFFFFFFFFFFFFFFFFFFFFFFFF7FFE7AF
S3150800B3C0FFD7FF24561C554474DFFFF7FFFFFFFF26
S3150800B3D0FFFFFFFFFFFFFFFFFFFFDFEFFFDFFF249A
S3150800B3E0341C562BF3B75FE7FFEFFFF7FFFFFFFFAE
S3150800B3F0FFFFFFFFFFFFFFFFFFF7FFEFFFE7FFB7C7
S3150800B4003F33F31C562455D7FFEFFFFFFFFFFFFF1F
S3150800B410FFFFFFFFFFFFFFFFDFFFFFFFFFEFFFDF7E
S3150800B420FF3C5424341C355539B7BFDFFFE7FFEF1F
S3150800B430FFF7FFF7FFEFFFE7FFDFFFB7BF55592419
S3150800B4403524344474D7FFF7FFFFFFFFFFFFFFFFE4
S3150800B450FFFFFFFFFFFFFFFFFFFFDFFFFFFFFFF716
S3150800B460FFDFFF6DDA241424352C153C3475B99E9C
S3150800B470BCB71EAEFE9EBD7DDA3C542BF424141CCC
S3150800B480146DFADFFFEFFFFFFFFFFEFFDEFFFFFF92
S3150800B490FFFFFFFFFFFFFFFFFFFFFFFFFFFFFFF7B6
S3150800B4A0FFEFFFEFFFD7FF6D572BF22C341C141C50
S3150800B4B0141C351C351C141BF32C342BF26D77D752
S3150800B4C0FFEFFFEFFFF7FFFFFFFFFFFFFFFFFFFFA6
S3150800B4D0FFFFFFFFFFFFFFFFFFFFFFFFFFFFFFFF6E
S3150800B4E0FFFFFFFFFFFFFFE7FFD7FF9F3F65FB4D0E
S3150800B4F0793CF83CF84D796DFB9F3FD7FFE7FFF79E
S3150800B500FFFFFFFFFFFFFFFFFFFFDFFFFFFFFFFF5D
S3150800B510FFFFFFFFFFFFFFFFFFFFFFFFFFFFFFFF2D
S3150800B520FFFFFFFFFFFFFFF7FFF7FFEFFFEFFFE765
S3150800B530FFE7FFEFFFEFFFEFFFE7FFEFFFF7FFF78D
S3150800B540FFFFFFFFDFFFFFFFFFFFFFFFFFFFDFFF3D
S3150800B550FFFFFFFFFFFFFFFFFFFFFFFFFFF7FFFFF5
S3150800B560FFFFFFFFFFFFFFFFFFFFFFFFFFFFFFFFDD
S3150800B570FFFFFFFFFFFFFFFFFFFFFFFFFFFFFFFFCD
S3150800B580FFFFFFFFFFFFFFFFFFFFFFFFFFFFFFFFBD
S3150800B590FFFFFF001078007700011BFFFFFFFFFF8A
S3150800B5A0FFFFFFFFFFFFFFFFFFFFFFFFFFFFFFFF9D
S3150800B5B0FFFFFFFFFFFFFFFFFFFFFFFFFFFFFFFF8D
S3150800B5C0FFFFFFFFFFFFFFFFFFFFFFFFFFFFFFFF7D
S3150800B5D0FFFFFFFFFFFFFFFFFFFFFFFFFFFFFFFF6D
S3150800B5E0FFFFFFFFFFFFFFFFFFFFFFFFFFFFFFFF5D
S3150800B5F0FFFFFFFFFFDFFFFFFFFFFFFFFFFFFFDF8D
S3150800B600FFFFFFFFFFDFFFDFFFFFFFFFFFFFFFFF7C
S3150800B610FFDFFFDFFFDFFFDFFFFFFFFFFFFFFFDFCC
S3150800B620FFDFFFDFFFFFFFFFFFFFFFDFFFFFFFFF7C
S3150800B630FFFFFFFFFFFFFFFFFFFFFFFFFFFFFFFF0C
S3150800B640FFFFFFFFFFFFFFFFFFFFFFFFFFFFFFFFFC
S3150800B650FFFFFFFFFFFFFFFFFFFFFFFFFFFFFFFFEC
S3150800B660FFFFFFFFFFFFFFFFFFFFFFFFFFFFFFFFDC
S3150800B670FFFFFFFFFFFFFFFFFFFFFFFFFFFFFFFFCC
S3150800B680FFFFFFFFFFFFFFFFFFFFFFFFFFFFFFFFBC
S3150800B690FFFFFFFFFFFFFFFFFFFFFFFFFFFFFFFFAC
S3150800B6A0FFFFFFFFFFFFFFFFFFFFFFFFFFFFFFFF9C
S3150800B6B0FFFFFFFFFFFFFFFFFFFFFFFFFFFFFFFF8C
S3150800B6C0FFFFFFFFFFFFFFFFFFFFFFFFFFFFFFFF7C
S3150800B6D0FFFFFFFFFFFFFFFFFFFFFFFFFFFFFFFF6C
S3150800B6E0FFBEF7FFFFFFFFFFFFFFFFFFFFDFFF794B
S3150800B6F0CE718C694A0421A210821082104108205A
S3150800B70000200020002000410861086108C31824B1
S3150800B7102128423084BAD6DFFFFFFFDFFFBEF7FFDE
S3150800B720FFFFFFFFFFFFFFFFFFFFFFFFFFFFFFFF1B
S3150800B730FFFFFFFFFFFFFFFFFFFFFFFFFFFFFFFF0B
S3150800B740FFFFFFFFFFFFFFFFFFFFFFFFFFFFFFFFFB
S3150800B750FFFFFFFFFFFFFFFFFFFFFFFFFFFFFFFFEB
S3150800B760FFFFFFFFFFFFFFFFFFFFFFFFFFFFFFFFDB
S3150800B770FFFFFFFFFFFFFFFFFFFFFFFFFFFFFFFFCB
S3150800B780FFFFFFFFFFFFFFFFFFFFFFFFFFFFFFFFBB
S3150800B790FFFFFFFFFFFFFFFFFFFFFFFFFFFFFFFFAB
S3150800B7A0FFFFFFFFFFFFFFFFFFFFFFFFFFFFFFFF9B
S3150800B7B0FFFFFFFFFFFFFFFFFFFFFFFFFFFFFFFF8B
S3150800B7C0FFFFFFFFFFFFFFFFFFFFFFFFFFFFFFFF7B
S3150800B7D0FFDFFFBEF7DBDE92948631000000000033
S3150800B7E000200020004108200000004108410861AF
S3150800B7F0086108610861084108200000000000008F
S3150800B8000000004108200000000000242130841CAC
S3150800B810E7BEF7DFFFDFFFFFFFFFFFFFFFFFFFFFCB
S3150800B820FFFFFFFFFFFFFFFFFFFFFFFFFFFFFFFF1A
S3150800B830FFFFFFFFFFFFFFFFFFFFFFFFFFFFFFFF0A
S3150800B840FFFFFFFFFFFFFFFFFFFFFFFFFFFFFFFFFA
S3150800B850FFFFFFFFFFFFFFFFFFFFFFFFFFFFFFFFEA
S3150800B860FFFFFFFFFFFFFFFFFFFFFFFFFFFFFFFFDA
S3150800B870FFFFFFFFFFFFFFFFFFFFFFFFFFFFFFFFCA
S3150800B880FFFFFFFFFFFFFFFFFFFFFFFFFFFFFFFFBA
S3150800B890FFFFFFFFFFFFFFFFFFFFFFFFFFFFFFFFAA
S3150800B8A0FFFFFFFFFFFFFFFFFFFFFFFFFFFFFFFF9A
S3150800B8B0FFFFFFFFFFFFFFFFFFFFFFFFFF5DEF3407
S3150800B8C0A5284200002000200020002000E318E7F9
S3150800B8D0390C639294D7BDDBDEBEF7FFFFFFFFFF8F
S3150800B8E0FFFFFFFFFFFFFFFFFFFFFFDFFFDBDEB608
S3150800B8F0B592942C63C739A21000002000000020DE
S3150800B900002000494A34A55DEFFFFFFFFFDFFFFF78
S3150800B910FFFFFFFFFFFFFFFFFFFFFFFFFFFFFFFF29
S3150800B920FFFFFFFFFFFFFFFFFFFFFFFFFFFFFFFF19
S3150800B930FFFFFFFFFFFFFFFFFFFFFFFFFFFFFFFF09
S3150800B940FFFFFFFFFFFFFFFFFFFFFFFFFFFFFFFFF9
S3150800B950FFFFFFFFFFFFFFFFFFFFFFFFFFFFFFFFE9
S3150800B960FFFFFFFFFFFFFFFFFFFFFFFFFFFFFFFFD9
S3150800B970FFFFFFFFFFFFFFFFFFFFFFFFFFFFFFFFC9
S3150800B980FFFFFFFFFFFFFFFFFFFFFFFFFFFFFFFFB9
S3150800B990FFFFFFFFFFFFFFFFFFFFFFDFFFDFFFDF09
S3150800B9A0FFDFFFFFFFDFFFBEF7D39CC73941084122
S3150800B9B008200000004529AE73D7BD3CE7DFFFFF2E
S3150800B9C0FFFFFFFFFFFFFFFFFFFFFFFFFFFFFFFF79
S3150800B9D0FFFFFFFFFFFFFFFFFFFFFFFFFFFFFFFF69
S3150800B9E0FFFFFFDFFFFFFFDFFF3CE7D7BD8E7324B6
S3150800B9F0210000200020000000C73914A5BEF7FF6B
S3150800BA00FFDFFFDFFFDFFFBEF7FFFFDFFFFFFFFF01
S3150800BA10FFFFFFFFFFFFFFFFFFFFFFFFFFFFFFFF28
S3150800BA20FFFFFFFFFFFFFFFFFFFFFFFFFFFFFFFF18
S3150800BA30FFFFFFFFFFFFFFFFFFFFFFFFFFFFFFFF08
S3150800BA40FFFFFFFFFFFFFFFFFFFFFFFFFFFFFFFFF8
S3150800BA50FFFFFFFFFFFFFFFFFFFFFFFFFFFFFFFFE8
S3150800BA60FFFFFFFFFFFFFFFFFFFFFFFFFFFFFFFFD8
S3150800BA70FFFFFFFFFFFFFFFFFFFFFFFFFFFFFFFFC8
S3150800BA80FFFFFFFFFFFFFFFFFFFFFFFFFFFFFFDFD8
S3150800BA90FFFFFF9EF7AA524108200000000000247D
S3150800BAA021B6B59EF7DFFF5DEF7DEFDFFFFFFFFFF6
S3150800BAB0FFFFFFDFFFFFFFFFFFFFFFFFFFFFFFFFA8
S3150800BAC0FFFFFFFFFFFFFFFFFFFFFFFFFFFFFFFF78
S3150800BAD0FFDFFFBEF7FFFFFFFF9EF7FFFFFFFFFF3A
S3150800BAE0FF7DEFD7BDC7390000000020004108CB15
S3150800BAF05A7DEFFFFF9EF7FFFFDFFFFFFFFFFFFF08
S3150800BB00FFFFFFFFFFFFFFFFFFFFFFFFFFFFFFFF37
S3150800BB10FFFFFFFFFFFFFFFFFFFFFFFFFFFFFFFF27
S3150800BB20FFFFFFFFFFFFFFFFFFFFFFFFFFFFFFFF17
S3150800BB30FFFFFFFFFFFFFFFFFFFFFFFFFFFFFFFF07
S3150800BB40FFFFFFFFFFFFFFFFFFFFFFFFFFFFFFFFF7
S3150800BB50FFFFFFFFFFFFFFFFFFFFFFFFFFFFFFFFE7
S3150800BB60FFFFFFFFFFFFFFFFFFFFFFFFFFFFFFFFD7
S3150800BB70FFFFFFFFFFFFFFFFFFFFFFFFFF9EF7BA75
S3150800BB80D6C739000000002000242134A5FFFFFF96
S3150800BB90FFFFFFFFFFFFFFDBDE2000C3183CE7DFE8
S3150800BBA0FF5DEFFFFFFFFFFFFFFFFFFFFFFFFFFF49
S3150800BBB0FFFFFFFFFFFFFFFFFFFFFFFFFFFFFFFF87
S3150800BBC0FFFFFFFFFFFFFFFFFFDFFFFFFFFFFFFF97
S3150800BBD0FFFFFFDFFFFFFFFFFF55AD0421410841CF
S3150800BBE00800000842BAD6FFFFDFFF9EF7FFFFFFF7
S3150800BBF0FFFFFFFFFFFFFFFFFFFFFFFFFFFFFFFF47
S3150800BC00FFFFFFFFFFFFFFFFFFFFFFFFFFFFFFFF36
S3150800BC10FFFFFFFFFFFFFFFFFFFFFFFFFFFFFFFF26
S3150800BC20FFFFFFFFFFFFFFFFFFFFFFFFFFFFFFFF16
S3150800BC30FFFFFFFFFFFFFFFFFFFFFFFFFFFFFFFF06
S3150800BC40FFFFFFFFFFFFFFFFFFFFFFFFFFFFFFFFF6
S3150800BC50FFFFFFFFFFFFFFFFFFFFFFFFFFFFFFFFE6
S3150800BC60FFFFFFDFFF9EF7FFFFDFFF79CEC7390033
S3150800BC700000006108EB5A1CE7FFFFDFFFFFFFFF2C
S3150800BC80FFFFFFFFFFFFFF24212000A2103CE7452E
S3150800BC902920001CE7FFFFFFFFFFFFFFFFFFFFFF55
S3150800BCA0FFFFFFFFFFFFFFFFFFFFFFFFFFFFFFFF96
S3150800BCB0FFFFFFFFFFFFFFFFFFDFFFDFFFDFFFDF06
S3150800BCC0FFDFFFFFFFFFFFDFFFDFFFDFFF1CE7CB25
S3150800BCD05A610820000000E73979CEFFFFFFFFDF31
S3150800BCE0FFFFFFFFFFFFFFFFFFFFFFFFFFFFFFFF56
S3150800BCF0FFFFFFFFFFFFFFFFFFFFFFFFFFFFFFFF46
S3150800BD00FFFFFFFFFFFFFFFFFFFFFFFFFFFFFFFF35
S3150800BD10FFFFFFFFFFFFFFFFFFFFFFFFFFFFFFFF25
S3150800BD20FFFFFFFFFFFFFFFFFFFFFFFFFFFFFFFF15
S3150800BD30FFFFFFFFFFFFFFFFFFFFFFFFFFFFFFFF05
S3150800BD40FFFFFFFFFFFFFFFFFFFFFFFFFFFFFFDF15
S3150800BD50FFFFFF9EF7FFFF1CE7494A00002000414E
S3150800BD600810847DEFDFFFDFFFFFFFFFFFDFFFFF28
S3150800BD70FFDFFFFFFFFFFF0000821079CEE7396182
S3150800BD80088210BEF7FFFFFFFFFFFFFFFFFFFFFF61
S3150800BD90FFFFFFFFFFFFFFFFFFFFFFFFFFFFFFFFA5
S3150800BDA0FFFFFFFFFFFFFFFFFFDFFFDFFFDFFF2CC8
S3150800BDB063FFFF5DEFFFFFDFFFBEF7DFFF0421FF35
S3150800BDC0FF5DEF718C61080000000028421CE7DF68
S3150800BDD0FFFFFFFFFFFFFFFFFFFFFFFFFFFFFFFF65
S3150800BDE0FFFFFFFFFFFFFFFFFFFFFFFFFFFFFFFF55
S3150800BDF0FFFFFFFFFFFFFFFFFFFFFFFFFFFFFFFF45
S3150800BE00FFFFFFFFFFFFFFFFFFFFFFFFFFFFFFFF34
S3150800BE10FFFFFFFFFFFFFFFFFFFFFFFFFFFFFFFF24
S3150800BE20FFFFFFFFFFFFFFFFFFFFFFFFFFFFFFFF14
S3150800BE30FFFFFFFFFFFFFFFFFFFFFFFFFFFFFFFF04
S3150800BE40FFBEF7FFFFEF7B200020000000518CBEED
S3150800BE50F7FFFFFFFFBEF7FFFFDFFFDFFFBEF7516C
S3150800BE608CFFFFFFFFDFFF00008E73D39CD7BD005A
S3150800BE70003084FFFFFFFFFFFFFFFFFFFFFFFFFF0D
S3150800BE80FFFFFFFFFFFFFFFFFFFFFFFFFFFFFFFFB4
S3150800BE90FFFFFFFFFFFFFFFFFFFFFFDFFFDFFF20C3
S3150800BEA0009AD64108FFFFFFFF3CE7694AAE73FFD9
S3150800BEB0FFDFFF7DEFBEF7AE73200041082000AE1E
S3150800BEC073DFFFFFFFFFFFFFFFFFFFFFFFFFFFFF20
S3150800BED0FFFFFFFFFFFFFFFFFFFFFFFFFFFFFFFF64
S3150800BEE0FFFFFFFFFFFFFFFFFFFFFFFFFFFFFFFF54
S3150800BEF0FFFFFFFFFFFFFFFFFFFFFFFFFFFFFFFF44
S3150800BF00FFFFFFFFFFFFFFFFFFFFFFFFFFFFFFFF33
S3150800BF10FFFFFFFFFFFFFFFFFFFFFFFFFFFFFFFF23
S3150800BF20FFFFFFFFFFFFFFFFFFFFFFFFFFFFFFBE54
S3150800BF30F759CEC318821020008A529EF7FFFFDFFA
S3150800BF40FFDFFFFFFFDFFFFFFFDFFFBEF7DFFFC3F8
S3150800BF5018DFFFDFFFFFFFDFFFCB5ABEF7CB5A82A2
S3150800BF6010FFFFDFFFFFFFFFFFFFFFFFFFFFFFFFE2
S3150800BF70FFFFFFFFFFFFFFFFFFFFFFFFFFFFFFFFC3
S3150800BF80FFFFFFFFFFFFFFFFFFFFFFFFFFDFFF20B2
S3150800BF90006D6B41080842A6314108718CDFFF929B
S3150800BFA094610820007DEFBEF7DFFF694A00004173
S3150800BFB008C3189AD6FFFFFFFFFFFFFFFFFFFFFF2B
S3150800BFC0FFFFFFFFFFFFFFFFFFFFFFFFFFFFFFFF73
S3150800BFD0FFFFFFFFFFFFFFFFFFFFFFFFFFFFFFFF63
S3150800BFE0FFFFFFFFFFFFFFFFFFFFFFFFFFFFFFFF53
S3150800BFF0FFFFFFFFFFFFFFFFFFFFFFFFFFFFFFFF43
S3150800C000FFFFFFFFFFFFFFFFFFFFFFFFFFFFFFFF32
S3150800C010FFFFFFFFFFFFFFDFFFBEF7FFFFFFFF4D3D
S3150800C0206B20002000242118C6BEF7FFFFFFFFFF84
S3150800C030FFFFFFFFFFFFFFFFFFDFFFDFFF7DEF00D3
S3150800C040004D6BDFFFFFFFDFFF38C6DFFF8210B250
S3150800C05094308475ADFFFFFFFFFFFFFFFFFFFFFF73
S3150800C060FFFFFFFFFFFFFFFFFFFFFFFFFFFFFFFFD2
S3150800C070FFFFFFDFFFDFFFFFFFDFFF9EF7DBDEA629
S3150800C08031CB5A8210718C8A522000F39C5DEFFBEB
S3150800C090DE41082C63FFFFDFFFFFFFBEF759CE2402
S3150800C0A021200000008E73DFFFDFFFDFFFFFFFBEEA
S3150800C0B0F7FFFFFFFFFFFFFFFFFFFFFFFFFFFFFF8A
S3150800C0C0FFFFFFFFFFFFFFFFFFFFFFFFFFFFFFFF72
S3150800C0D0FFFFFFFFFFFFFFFFFFFFFFFFFFFFFFFF62
S3150800C0E0FFFFFFFFFFFFFFFFFFFFFFFFFFFFFFFF52
S3150800C0F0FFFFFFFFFFFFFFFFFFFFFFFFFFFFFFFF42
S3150800C100FFFFFFFFFFFFFFBEF7FFFFBAD68631200E
S3150800C1100020001084BEF7BEF7DFFFFFFFFFFFFF1A
S3150800C120FFFFFFFFFFFFFFFFFFDFFFDFFF6529417F
S3150800C130080421FFFFDFFF9EF779CE3CE77DEF0479
S3150800C1402100004108FFFFFFFFFFFFFFFFFFFFFF82
S3150800C150FFFFFFFFFFFFFFFFFFFFFFFFFFFFFFFFE1
S3150800C160FFFFFF9EF7FFFFDFFFDFFFBEF7494AFB32
S3150800C170DE6529F39C494AEF7BE31814A53084C38E
S3150800C18018EF7BDFFFFFFFFFFFFFFFFFFFDFFFDF8C
S3150800C190FF3084200020000421FBDEDFFFDFFFDF05
S3150800C1A0FFFFFFFFFFFFFFFFFFFFFFFFFFFFFFFF91
S3150800C1B0FFFFFFFFFFFFFFFFFFFFFFFFFFFFFFFF81
S3150800C1C0FFFFFFFFFFFFFFFFFFFFFFFFFFFFFFFF71
S3150800C1D0FFFFFFFFFFFFFFFFFFFFFFFFFFFFFFFF61
S3150800C1E0FFFFFFFFFFFFFFFFFFFFFFFFFFFFFFFF51
S3150800C1F0FFFFFFFFFFFFFFBEF775AD41084108616E
S3150800C20008BAD6BEF7FFFFFFFFBEF7FFFFFFFFFF27
S3150800C210FFFFFFFFFFFFFFFFFF7DEF8A5220002091
S3150800C2200028429EF7BEF7DFFF38C618C64529A282
S3150800C2301041086529DFFFFFFFFFFFFFFFFFFFFF34
S3150800C240FFFFFFFFFFFFFFFFFFFFFFFFFFFFFFFFF0
S3150800C250FFDFFFFFFFBEF7B6B5B294BEF7E3185D82
S3150800C260EF4529F39C0000694A9EF7B6B54108CF09
S3150800C2707BFFFF3CE7FFFFFFFFFFFFFFFF9EF7FF88
S3150800C280FFDFFFDBDE61086108410896B5DFFFFFC7
S3150800C290FFBEF7FFFFFFFFFFFFFFFFFFFFFFFFFFE9
S3150800C2A0FFFFFFFFFFFFFFFFFFFFFFFFFFFFFFFF90
S3150800C2B0FFFFFFFFFFFFFFFFFFFFFFFFFFFFFFFF80
S3150800C2C0FFFFFFFFFFFFFFFFFFFFFFFFFFFFFFFF70
S3150800C2D0FFFFFFFFFFFFFFFFFFFFFFFFFFFFFFFF60
S3150800C2E0FFDFFFFFFFBEF7108420000000AA52FF01
S3150800C2F0FFDFFFFFFFFFFFFFFFFFFFFFFFFFFFFF60
S3150800C300FFFFFFFFFFFFFFFFFF9AD64108200061EE
S3150800C31008CB5ABEF77DEFDFFF38C6718CBEF782B1
S3150800C320102000D39CDFFFFFFFBEF7FFFFFFFFFFD4
S3150800C330FFFFFFFFFFFFFFFFFFFFFFFFFFFFFFFFFF
S3150800C340FFFFFFFFFF9AD6000045296108610886AE
S3150800C3503186319AD6F7BD718CA6316108AA52FF8B
S3150800C360FFDFFFFFFFFFFFFFFFFFFFFFFFFFFFFFEF
S3150800C370FFFFFFDFFFFFFF8A52200020001084BE68
S3150800C380F7FFFFDFFFFFFFFFFFFFFFFFFFFFFFFFD7
S3150800C390FFFFFFFFFFFFFFFFFFFFFFFFFFFFFFFF9F
S3150800C3A0FFFFFFFFFFFFFFFFFFFFFFFFFFFFFFFF8F
S3150800C3B0FFFFFFFFFFFFFFFFFFFFFFFFFFFFFFFF7F
S3150800C3C0FFFFFFFFFFFFFFFFFFFFFFFFFFFFFFFF6F
S3150800C3D0FFFFFF5DEF694A20004108B294DFFFDFE7
S3150800C3E0FFDFFFFFFFFFFFFFFFFFFFFFFFFFFFFF6F
S3150800C3F0FFFFFFFFFFFFFFFFFFBEF73CE7AA522440
S3150800C40021F39CDFFFDFFFFFFF59CE0421A2108234
S3150800C41010200038C6518C6529D7BDDFFFFFFFFF06
S3150800C420FFFFFFFFFFFFFFFFFFFFFFFFFFFFFFFF0E
S3150800C430FFFFFFBEF7C3186108C7392C6334A5FB95
S3150800C440DEBEF77DEF7DEFB6B56D6B86318210F3F4
S3150800C4509CBEF7DFFFFFFFFFFFFFFFFFFFFFFFFFAA
S3150800C460FFFFFFDFFFFFFFDFFF929461080000EB8D
S3150800C4705ADFFFFFFFFFFFBEF7FFFFFFFFFFFFFFCC
S3150800C480FFFFFFFFFFFFFFFFFFFFFFFFFFFFFFFFAE
S3150800C490FFFFFFFFFFFFFFFFFFFFFFFFFFFFFFFF9E
S3150800C4A0FFFFFFFFFFFFFFFFFFFFFFFFFFFFFFFF8E
S3150800C4B0FFFFFFFFFFFFFFFFFFFFFFFFFFFFFFFF7E
S3150800C4C0FFDFFFC7394108200018C6BEF7FFFFFF88
S3150800C4D0FFFFFFFFFFFFFFFFFFFFFFFFFFFFFFFF5E
S3150800C4E0FFFFFFFFFFFFFFFFFFDFFFDFFFDFFF5D50
S3150800C4F0EF4D6BFFFFDFFF9EF79EF7EB5AD7BD04A4
S3150800C50021000061086108D39CFFFF9EF7FFFFFF2B
S3150800C510FFFFFFFFFFFFFFFFFFFFFFFFFFFFFFFF1D
S3150800C520FFFFFFDFFF79CE7DEFBEF7FFFFF39C2C01
S3150800C530634529AA529AD6FFFFFFFFBEF759CEA632
S3150800C54031042179CEFFFFFFFFFFFFFFFFFFFFFF4B
S3150800C550FFFFFFDFFFFFFFBEF7DFFFD7BD41080084
S3150800C56000E7399EF79EF7FFFFFFFFFFFFFFFFFF7C
S3150800C570FFFFFFFFFFFFFFFFFFFFFFFFFFFFFFFFBD
S3150800C580FFFFFFFFFFFFFFFFFFFFFFFFFFFFFFFFAD
S3150800C590FFFFFFFFFFFFFFFFFFFFFFFFFFFFFFFF9D
S3150800C5A0FFFFFFFFFFFFFFFFFFFFFFFFFFFFFFBECE
S3150800C5B0F78631000000003CE7BEF7FFFFFFFFFFEC
S3150800C5C0FFFFFFFFFFFFFFFFFFFFFFFFFFFFFFFF6D
S3150800C5D0FFFFFFFFFFFFFFFFFFFFFFDFFFFFFFBEBE
S3150800C5E0F7200079CEDFFFDFFFFFFFDFFFFFFF4DFC
S3150800C5F06B410855ADDFFFFFFFBEF7DFFFFFFFFF0B
S3150800C600FFFFFFFFFFFFFFFFFFFFFFFFFFFFFFFF2C
S3150800C610FFFFFFBEF79EF7FFFFFFFFFFFFDFFF41AC
S3150800C62008000024212000D39CDFFFDFFFB294A27C
S3150800C630106108EF7BFFFFFFFFFFFFFFFFFFFFFF14
S3150800C640FFFFFFFFFFFFFFDFFFFFFFDFFF5DEF00DD
S3150800C6500020004529DFFFBEF7FFFFFFFFFFFFFFB2
S3150800C660FFFFFFFFFFFFFFFFFFFFFFFFFFFFFFFFCC
S3150800C670FFFFFFFFFFFFFFFFFFFFFFFFFFFFFFFFBC
S3150800C680FFFFFFFFFFFFFFFFFFFFFFFFFFFFFFFFAC
S3150800C690FFFFFFFFFFFFFFFFFFDFFFFFFFBEF7659F
S3150800C6A029410882101CE7FFFFDFFFFFFFFFFFFF9E
S3150800C6B0FFFFFFFFFFFFFFFFFFFFFFFFFFFFFFFF7C
S3150800C6C0FFFFFFFFFFFFFFFFFFFFFFFFFFDFFF9EED
S3150800C6D0F74108A631FFFFDFFFBEF7FBDEA210AA6F
S3150800C6E05220009AD6FFFFFFFFFFFFFFFFFFFFFF65
S3150800C6F0FFFFFFFFFFFFFFFFFFFFFFFFFFFFFFFF3C
S3150800C700FFFFFFFFFFBEF7FFFF7DEFFFFFBEF7BE90
S3150800C710F7B6B5CB5A34A59AD6DFFFFFFFBEF7DFCB
S3150800C720FF9EF7FFFFFFFFFFFFFFFFFFFFFFFFFF74
S3150800C730FFFFFFFFFFFFFFFFFFFFFFDFFF9EF75D26
S3150800C740EFE31882106108BEF7FFFFBEF7FFFFDFB1
S3150800C750FFFFFFFFFFFFFFFFFFFFFFFFFFFFFFFFDB
S3150800C760FFFFFFFFFFFFFFFFFFFFFFFFFFFFFFFFCB
S3150800C770FFFFFFFFFFFFFFFFFFFFFFFFFFFFFFFFBB
S3150800C780FFFFFFFFFFFFFFDFFFDFFFBEF7452920A3
S3150800C79000E3183CE7DFFFBEF7FFFFDFFFFFFFFF01
S3150800C7A0FFFFFFFFFFFFFFFFFFFFFFFFFFFFFFFF8B
S3150800C7B0FFFFFFFFFFFFFFFFFFDFFFDFFFDFFF14C6
S3150800C7C0A52000F7BDDFFF5DEF8E73718CDFFF9E3E
S3150800C7D0F741088E73FFFFFFFFFFFFFFFFFFFFFF15
S3150800C7E0FFFFFFFFFFFFFFFFFFFFFFFFFFFFFFFF4B
S3150800C7F0FFFFFFDFFFDFFF2C63AA5210840C63A242
S3150800C80010042138C638C69EF7FFFFDFFFFFFFFF7B
S3150800C810FFDFFFFFFFFFFFFFFFFFFFFFFFFFFFFF3A
S3150800C820FFFFFFFFFFFFFFFFFFFFFFBEF7FFFFDF73
S3150800C830FF1CE7E31841080421BEF7DFFFDFFFFF0F
S3150800C840FFFFFFFFFFFFFFFFFFFFFFFFFFFFFFFFEA
S3150800C850FFFFFFFFFFFFFFFFFFFFFFFFFFFFFFFFDA
S3150800C860FFFFFFFFFFFFFFFFFFFFFFFFFFFFFFFFCA
S3150800C870FFFFFFFFFFFFFFFFFF9EF72842410882E9
S3150800C880103CE7DFFFBEF7DFFFFFFFFFFFFFFFFFFD
S3150800C890FFFFFFFFFFFFFFFFFFFFFFFFFFFFFFFF9A
S3150800C8A0FFFFFFFFFFFFFFFFFFDFFFFFFF9EF70012
S3150800C8B00024219EF7DFFF59CEFBDEDFFFBEF7DF40
S3150800C8C0FFE3188631FFFFFFFFFFFFFFFFFFFFFFB4
S3150800C8D0FFFFFFFFFFFFFFFFFFFFFFFFFFFFFFFF5A
S3150800C8E0FFFFFFFFFFFFFF7DEFF7BD14A5A6312071
S3150800C8F000200020004108EF7BFFFFDFFFFFFFFF5E
S3150800C900FFDFFFFFFFFFFFFFFFFFFFFFFFFFFFFF49
S3150800C910FFFFFFFFFFFFFFFFFFFFFFFFFFFFFF9E7A
S3150800C920F7DFFF1CE78210410828429EF7DFFFFF6A
S3150800C930FFFFFFFFFFFFFFFFFFFFFFFFFFFFFFFFF9
S3150800C940FFFFFFFFFFFFFFFFFFFFFFFFFFFFFFFFE9
S3150800C950FFFFFFFFFFFFFFFFFFFFFFFFFFFFFFFFD9
S3150800C960FFFFFFDFFFFFFFFFFFCB5A000000009E1F
S3150800C970F7FFFFFFFFBEF75DEFFFFFDFFFFFFFFFDC
S3150800C980FFFFFFFFFFFFFFFFFFFFFFFFFFFFFFFFA9
S3150800C990FFFFFFFFFFFFFFFFFFBEF7FFFF8A520003
S3150800C9A000F7BDFFFFBFF7FFFFFFFFFFFFFFFF9F7A
S3150800C9B0EFED524200DFF7FFFFFFFFFFFFFFFFFF2C
S3150800C9C0FFDFFFFFFFFFFFFFFFFFFFFEFFFFFFFF8A
S3150800C9D0FFFFFFDFFFDFFFDFFFFFFFFFFF76AD2073
S3150800C9E00079CEDEFF9DF7DEFFFFFFFFFFFFFFFFAB
S3150800C9F0FFFFFFFFFFFFFFFFFFFFFFFFFFFFFFFF39
S3150800CA00FFFFFFFFFFFFFFFFFFFFFFFFFFFFFFFF28
S3150800CA10FFDFFFDFFF7DEF41082000EB5ADFFFDF76
S3150800CA20FFDFFFFFFF7DEFFFFFFFFFFFFFFFFFFFBA
S3150800CA30FFFFFFFFFFFFFFFFFFFFFFFFFFFFFFFFF8
S3150800CA40FFFFFFFFFFFFFFFFFFFFFFFFFFFFFFFFE8
S3150800CA50FFBEF7BEF7BEF7518C00004108FBDE9E0D
S3150800CA60F70C634108000020007DEFBEF7FFFFFFCB
S3150800CA70FFFFFFFFFFFFFFFFFFFFFFFFFFFFFFFFB8
S3150800CA80FFFFFFFFFFFFFFFFFFDFFFBEF741082C99
S3150800CA9063FFFFBFFFDFFFFFFFFFFFFFFFFFFFFF94
S3150800CAA0FFB29420009DF7FFFFDEFFDEFFDFFFFFEA
S3150800CAB0FFFFFFFFFFDFFFFFFFFFFFFEFFFEFFFE9B
S3150800CAC0FFFFFFBEF7FFFF3CEFFFFF7DEFA310E779
S3150800CAD039FFFFFFFFFFFFFFFFFFFFFFFFFFFFFF1E
S3150800CAE0FFFFFFFFFFFFFFFFFFFFFFFFFFFFFFFF48
S3150800CAF0FFFFFFFFFFFFFFFFFFFFFFFFFFDFFFDF78
S3150800CB00FFFFFFFFFF9EF7DBDE61080000F39CFFD7
S3150800CB10FFDFFFDFFFFFFFFFFFFFFFFFFFFFFFFF57
S3150800CB20FFFFFFFFFFFFFFFFFFFFFFFFFFFFFFFF07
S3150800CB30FFFFFFFFFFFFFFFFFFFFFFFFFFFFFFFFF7
S3150800CB40FFDFFFDFFF18C62000610896B5DFFFFF8D
S3150800CB50FF10844108000020005DEFFFFFFFFFFF84
S3150800CB60FFFFFFFFFFFFFFFFFFFFFFFFFFFFFFFFC7
S3150800CB70FFFFFFFFFFFFFFFFFFDFFF9EF714A5FF85
S3150800CB80FFFFFFFFFFFFFFFFFFFFFFFFFFFEFFDDCA
S3150800CB90FFF9DE40087CEFFFFFFFFFDFF7FFFFFF2F
S3150800CBA0FFFFFFFFFFFFFFFFFFDFF7FFF7FFF7FFBF
S3150800CBB0FFFFFFFEFFFEFFA531C318200021001C62
S3150800CBC0E7BFF7FFFFFFFFFFFFFFFFFFFFFFFFFFC7
S3150800CBD0FFFFFFFFFFFFFFFFFFFFFFFFFFFFFFFF57
S3150800CBE0FFFFFFFFFFFFFFFFFFFFFFDFFFDFFFFF87
S3150800CBF0FFBEF79EF7FFFFBEF7B6B52000410879DE
S3150800CC00CEDFFFFFFFFFFFFFFFFFFFFFFFFFFFFF77
S3150800CC10FFFFFFFFFFFFFFFFFFFFFFFFFFFFFFFF16
S3150800CC20FFFFFFFFFFFFFFFFFFFFFFFFFFFFFFFF06
S3150800CC30FFDFFF5DEF410841083084DFFFFFFFBEDD
S3150800CC40F7DFFFE739000020001CE7FFFFFFFFFFC3
S3150800CC50FFFFFFFFFFFFFFFFFFFFFFFFFFFFFFFFD6
S3150800CC60FFFFFFFFFFFFFFFFFFDFFFBEF7DFFFDF6F
S3150800CC70FFFFFFDFFFFFFFFEFFFFFFFFFFFFFFBE18
S3150800CC80F7DFF7B7B5BFEF5FE73CBE3895767CD4DC
S3150800CC906B93639363F573567C39953DB65FDFFFF7
S3150800CCA0EFDFEFDFF7DFFF108421006108CE7BDEC0
S3150800CCB0FFFFFFDFFFDFFFFFFFFFFFFFFFFFFFFFB6
S3150800CCC0FFFFFFFFFFFFFFFFFFFFFFFFFFFFFFFF66
S3150800CCD0FFFFFFFFFFFFFFFFFFFFFFDFFFC739DF94
S3150800CCE0FFDFFFDFFFFFFFFFFFDFFF10842000618C
S3150800CCF0085DEFFFFFFFFFFFFFFFFFFFFFFFFFFFDF
S3150800CD00FFFFFFFFFFFFFFFFFFFFFFFFFFFFFFFF25
S3150800CD10FFFFFFFFFFFFFFFFFFDFFFDFFFDFFFDF95
S3150800CD20FFFFFFC7392000E739FFFFDFFFDFFF5DA1
S3150800CD30EFDFFFE73900004108A210E3183CE7FFE0
S3150800CD40FFDFFFFFFFDFFFFFFFFFFFFFFFFFFFFF25
S3150800CD50FFFFFFFFFFFFFFFFFFFFFFFFFFFFFFFFD5
S3150800CD60FFFFFFFFFFFEFFBEF7FFFFDFF7FFF71F1F
S3150800CD70D7F56BCE21CF216F116F09B111700991CB
S3150800CD80099111911191119111711190192E114D4D
S3150800CD9011CE29F5733FDFBFEF9BCE1DDFBEF7BD72
S3150800CDA0F7FEFFFEFFFFFFFFFFFFFFFFFFFFFFFF8F
S3150800CDB0FFFFFFFFFFFFFFFFFFFFFFFFFFFFFFFF75
S3150800CDC0FFFFFF7DEFFFFFDFFFFFFF8A528210C3E1
S3150800CDD018C31838C6FFFFFFFFBEF7BEF708422084
S3150800CDE0002842BEF7FFFFFFFFFFFFFFFFFFFFFF21
S3150800CDF0FFFFFFFFFFFFFFFFFFFFFFFFFFFFFFFF35
S3150800CE00FFFFFFFFFFFFFFFFFFDFFFFFFFFFFFFF44
S3150800CE10FFB29441086108DFFFFFFFFFFFFFFF7DB8
S3150800CE20EFFBDE610800000000410820009294BE76
S3150800CE30F71084494AFFFFFFFFFFFFFFFFFFFFFFD1
S3150800CE40FFFFFFFFFFFFFFFFFFFFFFFFFFFFFFFFE4
S3150800CE50FFFFFFFFFFFEFF9EF7BDCE745B0C097058
S3150800CE6009B11191119209B31193095201B40993A9
S3150800CE70099309930993099309730992119211B2B7
S3150800CE8019701170114E116F11745B9DC6BFE7FFC3
S3150800CE90F7FEF7FEFFDEFFFFFFFFFFFFFFFFFFFFC7
S3150800CEA0FFFFFFFFFFFFFFFFFFFFFFFFFFFFFFFF84
S3150800CEB0FFFFFFDFFF7DEF3CE7694ABAD6C31800DC
S3150800CEC00061088631BEF79EF7DFFFFFFFBEF761F8
S3150800CED0080000718CBEF7FFFFFFFFFFFFFFFFFF93
S3150800CEE0FFFFFFFFFFFFFFFFFFFFFFFFFFFFFFFF44
S3150800CEF0FFFFFFFFFFFFFFFFFFFFFFDFFFFFFFFB58
S3150800CF00DE2000200059CE9EF7FFFFDFFFFFFFBEA1
S3150800CF10F75DEFCF7B5DEF4529200000002C63927B
S3150800CF20940000F7BDDFFFFFFFFFFFFFFFFFFFFFD6
S3150800CF30FFFFFFFFFFFFFFFFFFFFFFFFFFFFFFFFF3
S3150800CF40FFFFFFFFFFFFFFBFF7ED29B0197209B218
S3150800CF5011920992099209931192099311921172E9
S3150800CF601172097209921192119211931172099212
S3150800CF7009920992099209920992116F11AD213805
S3150800CF80955EE7FFFFDFFFFFFFFFFFFFFFFFFFFFE6
S3150800CF90FFFFFFFFFFFFFFFFFFFFFFFFFFFFFFFF93
S3150800CFA0FFFFFFDFFFF7BDE3185DEF6D6BA631EFFF
S3150800CFB07B30841CE7FFFFFFFFDFFFFFFFFFFF1843
S3150800CFC0C6200041083CE7FFFFFFFFFFFFFFFFFF0A
S3150800CFD0FFFFFFFFFFFFFFFFFFFFFFFFFFFFFFFF53
S3150800CFE0FFFFFFFFFFFFFFFFFFBEF7FFFFFFFF6526
S3150800CFF02941082C63FFFFDFFFFFFFFFFFFFFFDF6D
S3150800D000FFBEF7FFFFFFFF20006108000020002099
S3150800D010004D6BDEF7FFFFFFFFDFFFFFFFFFFFFFA0
S3150800D020FFFFFFDFFFFFFFFEFFFEFFDFFFDFF7DF8C
S3150800D030F7BFF7FDFFFEFFFFFF703A531173099222
S3150800D0401192099209B2119209920952091109B36A
S3150800D05019710972097311731172119209B2119239
S3150800D060099209920992099209B0197A9D5CBE0D36
S3150800D07032AD2978849FEFDFF7FFFFFEFFDEFFFF63
S3150800D080FFFFFFFFFFFFFFBEF7FFFFFFFFFFFFDF0B
S3150800D090FFDFFFAE73E7395DEFAA5234A5DFFFFF66
S3150800D0A0FFBAD6EB5A7DEFFFFFCB5A7DEFDFFFDFE6
S3150800D0B0FF2C6320004529FFFFDFFFFFFFDFFFFF8F
S3150800D0C0FFFFFFFFFFFFFFFFFFFFFFFFFFFFFFFF62
S3150800D0D0FFFFFFFFFFFFFFFFFFFFFFDFFF34A52076
S3150800D0E0008210DFFFFFFFDFFFDFFFDFFFBEF7CBAA
S3150800D0F05AF39CBEF7B6B5410800000000000000D0
S3150800D10000BAD6DEF7FFFFFFFFDFFFFFFFFFFFFFD7
S3150800D110FFDFFFFFFFFFFFDEFFDFFFDFF7DBAD8C83
S3150800D12021BED6FDFFBEFFFFFF7032531171099273
S3150800D130119211B2099109B109911192119121CD5A
S3150800D140002F01D311740973097211921192119269
S3150800D1501192099211921192115674DFF7DFF77F37
S3150800D160E74E114F090F221BB6FFF7DEF7BEFFFF8A
S3150800D170FFDFFFFFFFFFFFBEF7FFFFBEF7FFFFEF73
S3150800D1807BE318F7BD652965299AD6BEF718C6C385
S3150800D190180000B6B58210AE734108EF7BFFFFFF9B
S3150800D1A0FFBEF7C318000034A5FFFFBEF7DFFFFF79
S3150800D1B0FFFFFFFFFFFFFFFFFFFFFFFFFFFFFFFF71
S3150800D1C0FFFFFFFFFFFFFFFFFFFFFF9EF76108005E
S3150800D1D00055ADDFFFFFFFA210EF7BFBDE410841E4
S3150800D1E0084529FFFFBEF7DFFFCB5A00004108209C
S3150800D1F000E318DEF7DEF7DEFFFFFFFFFFFFFFFFA6
S3150800D200FFFEFFFEFFFFFFBFF77FEF335B6E196E72
S3150800D21019DFD6FFFFBFFFFFF77032711170099152
S3150800D22011B109B10991097009B1196F199ECE7F1B
S3150800D230E7B77C8F11921192099109921192119276
S3150800D240119209921192117109F78CFFFFFFFF9F46
S3150800D250EF6F117109F0192D1112539FE7BFEFFFF8
S3150800D260FFFFFFFFFF9DF7FFFFFBDE34A5E3184D29
S3150800D2706BFFFFFFFF410814A5DFFFDFFF9294BA9B
S3150800D280D6BEF7DFFFF39C00000000A631BEF7DF2D
S3150800D290FFDFFF34A5610861085DEFBEF7FFFFFFFA
S3150800D2A0FFFFFFFFFFFFFFFFFFFFFFFFFFFFFFFF80
S3150800D2B0FFFFFFFFFFFFFFFFFFFFFF6D6B410865E5
S3150800D2C029FFFFDFFF7DEFE318E318A210610800CE
S3150800D2D000E318BEF7FFFFDFFFA6310000200000BD
S3150800D2E0002000CF7BFFFFFEFFFEFFFEFFFEFFFFD5
S3150800D2F0FFFDFFFDFFBFF7FCBD8F2170117109D13E
S3150800D30019BEC6DEF7FFFFFFF77132720970099280
S3150800D31009B209B209710971117011765BFFFFBE76
S3150800D320F7DFEF913A7011B209B209921192119290
S3150800D330119211921172097109379DDEF7FEFF9F4E
S3150800D340E77011B31150099211D021AC215ABEFFD2
S3150800D350F7FFFFFFFFFFFFAA524108E31838C6FF91
S3150800D360FFDFFF7DEF79CE9EF7FFFFFFFFDFFFBEF2
S3150800D370F7F7BDDFFFBEF7AE73200034A5DFFFDF8A
S3150800D380FFBEF7FFFF863120008E73DFFFDFFFFF4A
S3150800D390FFFFFFFFFFFFFFFFFFFFFFFFFFFFFFFF8F
S3150800D3A0FFFFFFFFFFFFFFBEF73CE7610820001CF9
S3150800D3B0E7DFFFFFFFDFFFBEF7EB5A000020002084
S3150800D3C000C318DFFFFFFF3CE7A21020000C63E351
S3150800D3D0184108200055ADDEFFBDF7FEFFFFFFBE72
S3150800D3E0F7DEF7FFF7B78CAF21721173119309B007
S3150800D3F011FDCEFDFFFFFFFFF7923A531171097237
S3150800D40009B3119311B41152095111743ABFF7BEF9
S3150800D410F7DFF71CBE4E11B211B3099211921192A1
S3150800D420119211920992117109179DFFFFFDFFBF15
S3150800D430EF4F09730992097211B11977749063F560
S3150800D44094FFF7FFF7D6B52000EB5A9EF7BEF7FF15
S3150800D450FFFFFFBEF7FFFFDFFFFFFFDFFFFFFFF75F
S3150800D460BD41086D6BDFFF8E73EB5A82101084FF87
S3150800D470FFDFFFDFFF9AD6200082103CE7FFFFFFA1
S3150800D480FFFFFFFFFFFFFFFFFFFFFFFFFFFFFFFF9E
S3150800D490FFFFFFFFFFDFFFFFFF4D6B00002842FF86
S3150800D4A0FFFFFFFFFFFFFFFFFFDBDE2000E3184162
S3150800D4B00820005DEFBEF73CE741084108BEF77D4E
S3150800D4C0EF821000002108DEFFDEFFDEFFDFFFFF30
S3150800D4D0FFBFEFF463CF21B111730993099311903C
S3150800D4E011FDCEFDFFFFFFFFF7513A5211B119505A
S3150800D4F011110993115309931193192F09FED6FF98
S3150800D500F7FFFFDFF7EF317111720992119211924D
S3150800D5101192119209921171091895FFFFFEFFBF2A
S3150800D520EF4E097309910950117FBEBFE7FFF77ED9
S3150800D530EF8F6BDFF7FFFFDFFFFFFFDFFFFFFFFF69
S3150800D540FFBEF7BEF7FFFFFFFF92948631DBDE7D55
S3150800D550EFAA5204219AD6BEF779CE200061089E1A
S3150800D560F7FFFFDFFFFFFF084220008E73FFFFFF74
S3150800D570FFFFFFFFFFFFFFFFFFFFFFFFFFFFFFFFAD
S3150800D580FFFFFFFFFFDFFF5DEF000020005DEFDF1D
S3150800D590FFFFFFBEF7FFFFDFFFEB5A20002000006A
S3150800D5A0002000B6B55DEF7DEF6529F39C7DEFBEE3
S3150800D5B0F77DEFE4200000484ABDF7DFFFBFF7DF3D
S3150800D5C0FF735B4E09121A920992099209911190FA
S3150800D5D019FFCEFFFFDFFFFFF76E3A4E116C196E8B
S3150800D5E0194F117111921192099109B111302A7FBF
S3150800D5F0DFFEF7FEFFDFF72D1171099211921192E6
S3150800D6001192119209921171091895FFFFFEFFBF39
S3150800D610EF4E1172117111CF299FEFDFF7FEF7DF79
S3150800D620F79EF77ACEBFF7BEF7DFFFDFFF5DEF6144
S3150800D630082000694A6D6BAA52452982100000C36A
S3150800D6401838C6DFFF5DEF7DEFFFFFDBDE452914E7
S3150800D650A5FFFFFFFFBEF77DEF000000007DEFFF8F
S3150800D660FFFFFFFFFFFFFFFFFFFFFFFFFFFFFFFFBC
S3150800D670FFFFFFBEF7FFFF8E732000CB5ABEF7FFF2
S3150800D680FFFFFFFFFFBAD6E7392000A210B29400C9
S3150800D690002000108479CEFBDEDFFFFFFF7DEFFF61
S3150800D6A0FFFFFF5DE725212008D6BDDFFFFFF75303
S3150800D6B05BAF1991099201D3099209B11190114DE5
S3150800D6C019BECEDFFFBFFFBFF77FE7DFF7BFEF5F0C
S3150800D6D0E7FBB5B56BAF21901191119209B0115CBA
S3150800D6E0B6DEF7FEFFBFF7D88CB01972099311930F
S3150800D6F01192099209921191091895FFFFFFFFBF30
S3150800D700EF4E11911171119019B5637FE7FFF7DF9D
S3150800D710F7DFFFFFFFFFFF9EF7DFFFDEFFFEFFBD20
S3150800D720F759CEB6B555AD38C6F39CC7399EF7DF5F
S3150800D730FFFFFFFFFFFFFFFFFFFFFFDFFFBEF7DF74
S3150800D740FFFFFFFFFFFFFFBEF7694A2000CF7BBE42
S3150800D750F7FFFFFFFFFFFFFFFFFFFFFFFFFFFFFFD3
S3150800D760FFFFFFFFFFDFFF200020009AD6FFFFDF45
S3150800D770FFFFFFFFFF3CE72000200020004529A20D
S3150800D780102000BAD60421A21018C6DFFFFFFFFF3B
S3150800D790FFFFFFDFF79EEF2421294ADFFFB463B0BE
S3150800D7A0197109B3115201B209B1118E1153533BC4
S3150800D7B0B6DFF7FFFFBEFFFFFFBFFFDFFFBCF7FEC9
S3150800D7C0FFBFFFBFFF9FF7D56B701172094F01CFDF
S3150800D7D0219FEFDFFFFFFFDFEFB142B21951099337
S3150800D7E00993099209B11190091795FFFFFFFFBF29
S3150800D7F0EF4E0992097211941150090F2A1BB6DFD0
S3150800D800F7DFF7FEFFDEFFFFFFFFFFFFFFFEFFFE6E
S3150800D810FFFFFFDFFF3CE7494A45297DEFDFFFFFB2
S3150800D820FFDFFFFFFFFFFFFFFFFFFFFFFFFFFFFF1A
S3150800D830FFFFFFFFFFFFFFFFFFBAD620000000FF34
S3150800D840FFDFFFDFFFFFFFFFFFFFFFFFFFFFFFFF1A
S3150800D850FFFFFFFFFF34A54108A631DFFFFFFFFFEB
S3150800D860FFFFFFDFFFFFFF9AD60000200000000041
S3150800D8700000004D6B452900000842FFFFFFFFFF2F
S3150800D880FFFFFFFFFFBDF7BFF716A5F894D021B23B
S3150800D8901174093309B3190E09124B9FE7DFEFFF1D
S3150800D8A0FFFFFFFDFFFEFFDFFFDFFFBFEFFFF7BE56
S3150800D8B0EFDFF7FFFF7EEFDFEFDBAD8F19F2114FDA
S3150800D8C009335BFFFF9DF7DFF75FE7AE19D11192CA
S3150800D8D01152019309920990091795FFFFFFFFBF9F
S3150800D8E0EF4E099209721173099211B0196D19B4A4
S3150800D8F063FFF7DFF7FFFFFFFFFFFFFFFFFFFFFFF6
S3150800D900FFFFFFFFFF8A526108FBDEDFFFFFFFBE56
S3150800D910F7FFFFFFFFFFFFFFFFFFFFFFFFFFFFFF11
S3150800D920FFFFFFFFFFFFFFFFFFBEF786312000D393
S3150800D9309CDFFFFFFFFFFFFFFFFFFFFFFFFFFFFF6C
S3150800D940FFFFFFFFFFA210000075ADFFFFFFFFFFFF
S3150800D950FF9EF7FFFFFFFFBEF7D7BD82102000002E
S3150800D96000652920000000821004217DEFFFFFFFDB
S3150800D970FFFFFFBDF7BDF7FFFF7EC6AF1950019346
S3150800D980099311711951327DBEDFEFFFFFFEFF9E2D
S3150800D990F7FFFFDDFFFDFFFFFF3CBEBBA5BB9D7D7F
S3150800D9A0BE7FE7FFF7DEF7FEF7DFF715749101F2A2
S3150800D9B0196E19FBB5FFF7FFFFBEF75CB68D119020
S3150800D9C01193119409930991091795FFFFFFFFBF5A
S3150800D9D0EF4E09920972119311921171095009902B
S3150800D9E019134B9FDFDFF7FFFFFEFF9EEFFFFFFFD9
S3150800D9F0FFFFFFBEF7242182101CE7FFFFDFFFFFB2
S3150800DA00FFFFFFFFFFFFFFFFFFFFFFFFFFFFFFFF18
S3150800DA10FFFFFFFFFFFFFFBEF7DFFF34A50000C3D0
S3150800DA2018FFFFFFFFFFFFFFFFFFFFFFFFFFFFFFDF
S3150800DA30FFFFFFFBDE20006108FFFFFFFFFFFFFF80
S3150800DA40FFFFFFFFFFFFFFFFFFFFFF3CE755AD1C92
S3150800DA50E79294000041080C63DFFFDFFFFFFFFF3A
S3150800DA60FFFFFFFEFFFFFFDFEF0F2A9111B211B292
S3150800DA70116E11967CBFE7FFF7FEFFDEFFFFFFBFC3
S3150800DA80FFDFFFDEFFFEFFDFFF70426F1190116EB2
S3150800DA90118E19B784DFF7BEF7DFFFBFF74F1150B6
S3150800DAA001B111AE199FE7BEF7DEFFDFEFB99D6D35
S3150800DAB011911172095209B2111895FFFFFFFFBFA4
S3150800DAC0EF4E0992097211931192099209930993DB
S3150800DAD0116F11B45BFFF7FEFFDEF776A55FE79FD0
S3150800DAE0F7FFFFFEFF38C620004529FBDEDFFFFFF4
S3150800DAF0FFFFFFDFFF7DEF9EF7FFFFFFFFFFFFFF43
S3150800DB00FFFFFFFFFFFFFFFFFFDFFFDFFF610800EB
S3150800DB1000DBDEDFFFFFFFFFFFFFFFFFFFFFFFFF6B
S3150800DB20FFFFFF4D6B0000EB5AFFFFFFFFFFFFFFF4
S3150800DB30FFFFFFFFFFFFFFDFFFFFFFFFFFBEF7DF70
S3150800DB40FF108400004108DBDEDFFFFFFFFFFFFF59
S3150800DB50FFFFFFFFFFFFF7F56B90117109B0116D1D
S3150800DB60117CBEDEEFFFF7DEEFDFF7FFF7399DEE3C
S3150800DB70317DCEDFFFDFFFDFFF713A71119209D3E6
S3150800DB80113009B0211574FFFFDFFFDFFF987CD144
S3150800DB9019520991110E2ADFEFDFFFDFF7FFF7BAF7
S3150800DBA0A56D11B119510972111895FFFFFFFFBF35
S3150800DBB0EF4E099209721193119211B209B30972C3
S3150800DBC00191112D097EEFFFFFFEF7FDD6F5739F34
S3150800DBD0F7DFFFDEFF9EF714A52000A210DBDEBEEE
S3150800DBE0F7DFFF8E730C63BEF7FFFFFFFFFFFFFF34
S3150800DBF0FFFFFFFFFFFFFFFFFFDFFFDFFFCB5A003F
S3150800DC00004D6BFFFFFFFFFFFFFFFFFFFFFFFFFF5B
S3150800DC10FFFFFFC31820001CE7FFFFFFFFFFFFFF02
S3150800DC20FFFFFFFFFFFFFFFFFFFFFFBEF7BEF7FF88
S3150800DC30FF308400000000FFFFDFFFDFFFFFFFFF6C
S3150800DC40FFFFFFFFFFDFCE4E11B209B211CE217FD3
S3150800DC50E7DFF7FFFFFFF7DFF79EC6AE218F116FED
S3150800DC6011BECE9FEFFFFFFFF7703A700992097158
S3150800DC7001D41911090C099FEFFFFFDFFF3FDF6E83
S3150800DC801993097309D111D142DFF7DFFFFFFFFFAF
S3150800DC90F75CB64D11911952111895FFFFFFFFBF9A
S3150800DCA0EF4E099209721173119211B109B20992D4
S3150800DCB001B311B119BDD6BEF7FFF77FE70B19FF00
S3150800DCC0DEDFFFBDF7FFFFFFFFCB5A00004108412B
S3150800DCD0084108C739FFFFFFFFFFFFFFFFFFFFFFF0
S3150800DCE0FFFFFFFFFFFFFFFFFFDFFFFFFF5DEF20E7
S3150800DCF000E318BEF7FFFFFFFFFFFFFFFFFFFFFF71
S3150800DD00FF9AD620002000FFFFFFFFFFFFFFFFFF5F
S3150800DD10FFFFFFFFFFFFFFFFFFDFFFFFFFFFFFFF25
S3150800DD20FF92940000718CDFFFDFFFFFFFFFFFFF0C
S3150800DD30FFFFFFBFEF0F2AB1119209522ABFE7DF93
S3150800DD40FFFFFFFFFFBFEF377C2D0991119209B145
S3150800DD5011DECEFFFFFEFFFFF7703A9009910970BA
S3150800DD600193097309B1193DB6FFFFDEFFBFEF0C3A
S3150800DD701173119409D311D019B563BFF7FFFFFFCB
S3150800DD80FFDFEF1FD7113270191795FFFFFFF7BF97
S3150800DD90EF4D119109730993119211B209B209B2A3
S3150800DDA00991112E093FE7BEF7FFF79DBE6E21AF19
S3150800DDB031DFF7DFFFBEF7DEFFDFFFE839000000DF
S3150800DDC00082103CE7DFFFDFFFFFFFFFFFFFFFFFDB
S3150800DDD0FFFFFFFFFFFFFFFFFFFFFFDFFFBEF700AD
S3150800DDE000000079CEFFFFFFFFFFFFDFFFFFFFDF29
S3150800DDF0FF308400002C63FFFFFFFFFFFFFFFFFFDC
S3150800DE00FFFFFFFFFFFFFFFFFFFFFFFFFFFFFFDF34
S3150800DE10FF9AD665293CE7FFFFDFFFFFFFFEFFFEFF
S3150800DE20F7FFF7DBA59011700972329FDFDEEFFF6F
S3150800DE30FFBFFF1EDF703AB011910992099209914E
S3150800DE4011FFCEFEFFDFFFFFFF523291099109B1A4
S3150800DE500993099409B1113995FFFFDEFFBFF72C25
S3150800DE601192119309D3119111711974639FE7FEE9
S3150800DE70FFFEFFDFF7DFF7399D97ADDFF7DFF7BF67
S3150800DE80E74B11B1197409920971099309B311B2D3
S3150800DE90118E19535BBFFFFFFFFFEF967491192F81
S3150800DEA011DBADFFFFDFFFFFFFFFFF1DE70D63AAD5
S3150800DEB05258CEDFFFFFFFBEF7FFFFFFFFFFFFFF52
S3150800DEC0FFFFFFFFFFFFFFFFFFFFFFFFFFFFFF2C27
S3150800DED0630000518CFFFFFFFFFFFFFFFFDFFFFF1F
S3150800DEE0FF65292000BAD6BEF7FFFFFFFFFFFFFF39
S3150800DEF0FFFFFFFFFFFFFFFFFFFFFFFFFFFFFFFF24
S3150800DF00FFDFFFDFFFFFFFFFFFFFFFFFFFDEFFDF94
S3150800DF10F7DFF70F2A6F094D113EDFDFEFFFFF9F8F
S3150800DF20EFFDD6CE298F19B1119209920992119057
S3150800DF3011FFCEFEFFDFFFFFFF52329109910992D2
S3150800DF4009930993119019BBA5FFFFFFFFFFF74D32
S3150800DF5011921173019209B21172117119713ADF96
S3150800DF60EFDFEFFFFFFFFFFEF7DEF7FFFFDFF79FAD
S3150800DF70EF6C212E1930116F11901170094F094E4F
S3150800DF8011F14ABFE7FFFFFFFFDFEF302A72119258
S3150800DF90192F32DFF7FFFFFEFFFFFFDFFF5EEFDF20
S3150800DFA0FFFEFFDFFFDFFFFFFFFFFFFFFFFFFFFFB4
S3150800DFB0FFFFFFFFFFFFFFFFFFFFFFFFFFFFFFDB87
S3150800DFC0DE00004529FFFFFFFFFFFFFFFFFFFF9E63
S3150800DFD0F7000000009EF7FFFFFFFFFFFFFFFFFFB0
S3150800DFE0FFFFFFFFFFFFFFFFFFFFFFFFFFFFFFBE74
S3150800DFF0F7FFFFDFFFFEFFFFFFFFFFFFFF9EEFFFBD
S3150800E000F71BBE4E11F0219FE7BFF7BDF77EE77EEF
S3150800E010DF6D11F219D211510193099209921190EB
S3150800E02011FFCEFEFFDFFFFFFF5232910972099200
S3150800E03009930993116E115FDFDFF7FFFF9FE74D25
S3150800E040117109B30992097211521172092F096DDA
S3150800E05011FFCE7FE7DFF7BBF7DDF7FEFFFFFFFF18
S3150800E060FFBFF79FEF9FEFBFCE3DB65EBE1FD75FE0
S3150800E070E7FFF7DFF7FEFFFFFFDBA56F11941152ED
S3150800E080096E113BB6FFFFFEFFFEFFFFFFDFFFDF56
S3150800E090FFFFFFBEF7DFFFFFFFFFFFFFFFFFFFFFEB
S3150800E0A0FFFFFFFFFFFFFFFFFFFFFFFFFFFFFF9ED3
S3150800E0B0F7200020009EF7FFFFFFFFFFFFDFFFDBD3
S3150800E0C0DE20008631BEF7FFFFFFFFFFFFFFFFFFE1
S3150800E0D0FFFFFFFFFFFFFFFFFFFFFFFFFFFFFFFF42
S3150800E0E0FFFFFFFFFFFEFFFFFFFFFFFFFFFFFFFF33
S3150800E0F0F7F3526E197B9DBFF7DDFFBDF77FE72C5F
S3150800E10009D11192099309930993099209911190DA
S3150800E11011FFCEFEFFDFFFFFFF523291097209722F
S3150800E12009931191114C11DFEFFFFFBFF7BBA58FC4
S3150800E1301972099309930993117311B209B10990D8
S3150800E140116F1134535FE77DEFFFFFFFFFDFFFFF1E
S3150800E150FFFFFFFEFFDDF7FFFFFFFFFFFFFFFFFEED
S3150800E160FFFDFFFDFFDEF73EDFCE21921154099336
S3150800E17009B009114BFFF7DEF7FEFFFFFFFFFFFFB0
S3150800E180FFFFFFFFFFFFFFFFFFFFFFFFFFFFFFFF91
S3150800E190FFFFFFFFFFFFFFFFFFFFFFFFFFFFFFDFA1
S3150800E1A0FF86316108FBDE7DEFFFFFFFFFBEF7103C
S3150800E1B08400006D6BDFFFFFFFFFFFFFFFFFFFFF20
S3150800E1C0FFFFFFFFFFFFFFFFFFFFFFFFFFFFFFFF51
S3150800E1D0FFFFFFFFFFFFFFFFFFFFFFFFFFDFF77FE9
S3150800E1E0E72C11B24ADFEFDFF7FEFF7FEFEF299149
S3150800E1F0117101B209930993097309921192119049
S3150800E20011FFCEFEFFDFFFFFFF523291097209931D
S3150800E2100992118F11735BDFEFFFFFFFFF334B90FE
S3150800E2201172097309920992119211B109B109B1D2
S3150800E23009921130116E195FDFDFFFDFFFFFFFDE86
S3150800E240FFDDF7FDF7FDF7FEFFFFFFDEFFFFFFBE71
S3150800E250F7DEFFDFF77CBEEE299019931173099359
S3150800E2600991092D091FD7FFFFFEFFFFFFFFFFFFDB
S3150800E270FFFFFFFFFFFFFFFFFFFFFFFFFFFFFFFFA0
S3150800E280FFFFFFFFFFFFFFFFFFFFFFFFFFFFFFFF90
S3150800E290FFCF7B0000718CDFFFFFFFFFFFBEF7A6F5
S3150800E2A031200096B5FFFFFFFFFFFFFFFFFFFFFFCF
S3150800E2B0FFFFFFFFFFFFFFFFFFFFFFFFFFFFFFFF60
S3150800E2C0FFFFFFFFFFFFFFFFFFFFFFFFFFFFF7DB7C
S3150800E2D0AD6E19BECEFFFFFFFF9EEF746372197213
S3150800E2E0099209B109921192117211721192119142
S3150800E2F011FFCEFEFFDFFFFFFF523291097209B30D
S3150800E3000991118E191ED7FFF7DFF7DFF78E11B2C5
S3150800E310115309931192119211921192119211B2FD
S3150800E3200993097209D119302ADFF7FFFFFFFFDECB
S3150800E330F7DFF79FE77FDFBFE7FFF7FFF7BFEF3F9F
S3150800E340DF3995B1426F119111B311B31192099248
S3150800E350097209B1199CA5BFF7DEFFFFFFFFFFFF92
S3150800E360FFFFFFFFFFFFFFFFFFFFFFFFFFFFFFFFAF
S3150800E370FFFFFFFFFFFFFFFFFFFFFFFFFFFFFFFF9F
S3150800E380FFD7BD0000A631FFFFFFFFFFFFFFFF001D
S3150800E390002000DBDEFFFFFFFFFFFFFFFFFFFFFFA1
S3150800E3A0FFFFFFFFFFFFFFFFFFFFFFFFFFFFFFFF6F
S3150800E3B0FFFFFFFFFFFFFFDFFFDFFFFFFFFFF74A5C
S3150800E3C0191353DFF7DDF7FFF75BBE90195309738F
S3150800E3D00191099111911191117211721192119174
S3150800E3E011FFCEFEFFDFFFFFFF723271099209B3FC
S3150800E3F009B011D142FFF7DEF7FFF778A5F219D376
S3150800E40019B4117309921191119211741193119201
S3150800E4100993097201D211F019DED6FFFFFFFFFF3B
S3150800E420FF1BB64C1170194E094D094D112D116F70
S3150800E430117111B3115209D411930992099109B2B4
S3150800E44011720951118E19FFF7DFFFFFFFFFFFFF5A
S3150800E450FFFFFFFFFFFFFFFFFFFFFFFFFFFFFFFFBE
S3150800E460FFFFFFFFFFFFFFFFFFFFFFFFFFFFFFFFAE
S3150800E470FFDBDE000000009EF7FFFFFFFFFFFF2027
S3150800E480006108BEF7FFFFFFFFFFFFFFFFFFFFFF6B
S3150800E490FFFFFFFFFFFFFFFFFFFFFFFFFFFFFFFF7E
S3150800E4A0FFFFFFFFFFFFFFDFFFDFFFFFFFBFE74DB8
S3150800E4B019DED6FEFFDDF7BFEF102A9211941192EE
S3150800E4C01192119211921192119209920992119137
S3150800E4D011FFCEFEFFDEFFFFFF703A7211910911A0
S3150800E4E0014D091EDFFFFFDFF7DFEF503292119271
S3150800E4F01192119211921192119211741193119213
S3150800E50009920993117211501178A5DFFFFFFFDFF9
S3150800E510F7903A8F09D21192119211921192119293
S3150800E52011921192119211921192119211921192C5
S3150800E53011921191092D01FFEFFFFFDFFFDFFFFFAA
S3150800E540FFFEFFFFFFFFFFFFFFFFFFFFFFFFFFFFCE
S3150800E550FFFFFFFFFFFFFFFFFFFFFFFFFFFFFFFFBD
S3150800E560FFBEF761080000DFFFFFFFFFFFBEF700F1
S3150800E570004529FFFFFFFFFFFFFFFFFFFFFFFFFF2C
S3150800E580FFFFFFFFFFFFFFFFFFFFFFFFFFFFFFFF8D
S3150800E590FFFFFFFFFFFFFFFFFFFFFFFFFF5CBEADB3
S3150800E5A029BFF7FEFFFFFFFBB58F19921193119252
S3150800E5B01192119211921192119209920992119146
S3150800E5C011FFCEFEFFDFFFFFFF713273099109D1FC
S3150800E5D019198DFFF7FEFFFFFF9AA56F1192119289
S3150800E5E0119211921192119211921193119109B1EE
S3150800E5F009B109921191117011D684FFFFFFFFBF6F
S3150800E600F72B09900972099211921192119211929F
S3150800E61011921192119211921192119211921192D4
S3150800E62011921192096F099EBEFFFFFFFFDFFFFFE0
S3150800E630FFFFFFFFFFFFFFFFFFFFFFFFFFFFFFFFDC
S3150800E640FFFFFFFFFFFFFFFFFFFFFFFFFFFFFFFFCC
S3150800E650FFFFFF45290000BEF7DFFFFFFF38C62092
S3150800E660002842DFFFDFFFDFFFFFFFFFFFFFFFFF9F
S3150800E670FFFFFFFFFFFFFFFFFFFFFFFFFFFFFFFF9C
S3150800E680FFFFFFFFFFFFFFFFFFFFFFFFFFD26B7AD2
S3150800E6909DFFF7BEF7DFF7EE2991119211920992C5
S3150800E6A0099211921192119211920992099211905E
S3150800E6B011FECEFEFFDFFFFFF7713273098F09D017
S3150800E6C04AFFF7DEF7FEFFFED6D02193119211928C
S3150800E6D011921192119211921192119209B109B1E6
S3150800E6E009B109930992119011B584FFFFFFFF9FA5
S3150800E6F0EF6D11B209730993119211921192119249
S3150800E70011921192119211921192119211921192E3
S3150800E71011921173099111B45BDFF7FFFFFFFFFF39
S3150800E720FFFFFFFFFFFFFFFFFFFFFFFFFFFFFFFFEB
S3150800E730FFFFFFFFFFFFFFFFFFFFFFFFFFFFFFFFDB
S3150800E740FFDFFF2842200018C6DFFFFFFF518C209D
S3150800E750004D6BDFFFFFFFFFFFFFFFFFFFFFFFFF20
S3150800E760FFFFFFFFFFFFFFFFFFFFFFFFFFFFFFFFAB
S3150800E770FFFFFFFFFFDFF7FEFFFEFFDFF7AB299F77
S3150800E780E7FFFFFFFF7FE7B02131099209B209923F
S3150800E790099211921192119211920992099211906D
S3150800E7A011FFD6FEFFDFFFBFEF5032D2198D11FFE2
S3150800E7B0FFDFF7BDF7FFF7735B91195309921192C3
S3150800E7C009720972099209920992099209910991A5
S3150800E7D009B30973095209B119F68CFFFFBFF75F30
S3150800E7E0E74D11B2115309730992099209920992D8
S3150800E7F00992099209920992099209920992099233
S3150800E800099209730951093032DFF7FFFFFEFFFF4E
S3150800E810FFFFFFFFFFFFFFFFFFFFFFFFFFFFFFFFFA
S3150800E820FFFFFFFFFFFFFFFFFFFFFFFFFFFFFFBE2B
S3150800E830F7DFFF4D6B2000518CDFFFFFFF4D6B208C
S3150800E840003084FFFFFFFFFFFFFFFFFFFFFFFFFF13
S3150800E850FFFFFFFFFFFFFFFFFFFFFFFFFFFFFFFFBA
S3150800E860FFFFFFFFFFFFFFFEFFFDFFDFF7AB21FF07
S3150800E870F7FFFFFFFF7A9D70119311B209B1099254
S3150800E880099311921192119211920992099211907B
S3150800E89011FFD6FFFFFFFFFFFF8E3AEF295FDFFF6D
S3150800E8A0FFBFF7FFF759952D097209940972097286
S3150800E8B00992119211921192097209931192119269
S3150800E8C0119309941192116F11BCC6DFFFBFFFBFE8
S3150800E8D0F7AD217009D311921192119211921192EA
S3150800E8E01192119211921192119211921192119202
S3150800E8F01192117209B2116E19DFEFFFFFFEFFFFC9
S3150800E900FFFFFFFFFFFFFFFFFFFFFFFFFFFFFFFF09
S3150800E910FFFFFFFFFFFFFFFFFFFFFFFFFFFFFFDF19
S3150800E920FFFFFF308441082C63DFFFFFFF284220EA
S3150800E93000F39CFFFFFFFFFFFFFFFFFFFFFFFFFF47
S3150800E940FFFFFFFFFFFFFFFFFFFFFFFFFFFFFFFFC9
S3150800E950FFFFFFFFFFFFF7FDF7FEFFBFF76C21FF85
S3150800E960F7FFFFFFFF725B91197309B209B009B28D
S3150800E9700993099211921192119209920992119191
S3150800E98011FFD6FFFFDFFFBDF74F635EE7FFFF9D71
S3150800E990F7FFF75DBE6E1191119209B209920992BD
S3150800E9A0099209921192119209921172117111919B
S3150800E9B011921192196F11B13AFFF7DFFFDEFFFFCF
S3150800E9C0FFB7844D094F0991099109910991099158
S3150800E9D00991099109910991099109910991099159
S3150800E9E0099109710950094E11BFE7FFF7FDFFFFAD
S3150800E9F0FFFFFFFFFFFFFFFFFFFFFFFFFFFFFFFF19
S3150800EA00FFFFFFFFFFFFFFFFFFFFFFFFFFFFFFFF08
S3150800EA10FFDFFFD39C20000842FFFFFFFF242120D1
S3150800EA2000B6B5FFFFFFFFFFFFFFFFFFFFFFFFFF7A
S3150800EA30FFFFFFFFFFFFFFFFFFFFFFFFFFFFFFFFD8
S3150800EA40FFFFFFFFFFFFF7FEFFFEFF5FE74C21DF3B
S3150800EA50EFBEFFFFF76D3271119309B209D0099223
S3150800EA6009931192119211921172099211921191B0
S3150800EA7011FFD6FFFFFFFFDDFFBEF7BFF7FDFFDE85
S3150800EA80FFFED64D197111B3119209B209B311914E
S3150800EA90097009701190119119B11990198F198F70
S3150800EAA019AF19AF1933537EDFDFF7FFFFFEFFDF1C
S3150800EAB0FFDFEF977CCE21AF19AF11AF11AF11AFC2
S3150800EAC011AF11AF11AF11AF11AF11AF11AF11AF38
S3150800EAD011AF118F118F194D197FDFFFF7FEFFFF59
S3150800EAE0FFFFFFFFFFFFFFFFFFFFFFFFFFFFFFFF28
S3150800EAF0FFFFFFFFFFFFFFFFFFFFFFFFFFFFFFDF38
S3150800EB00FFDFFF96B520002421DFFFFFFF04212049
S3150800EB100038C6FFFFFFFFFFFFFFFFFFFFFFFFFFF6
S3150800EB20FFFFFFFFFFFFFFFFFFFFFFFFFFFFFFFFE7
S3150800EB30FFFFFFFFFFDFFFBFFFFFFFFCCE8C19DFE4
S3150800EB40EFDEFFDFFFF36B7011B411B309B1099162
S3150800EB501191119111921173119411731132097057
S3150800EB6019FFCEDFF7FEFFFEFFFFFFDFFFFFFF1EE9
S3150800EB70DF4B21AC0870199211720974099409CFF8
S3150800EB8019FDC6DFF7BFF7BFFFBFFFDFF7DFF7DF08
S3150800EB90F7DFF7DFFFDFFFDFFFFFFFFFFFFFFFFF07
S3150800EBA0FFFFFFFFFFDEFFFFFFFFFFFFFFFFFFFF88
S3150800EBB0FFFFFFFFFFFFFFFFFFFFFFFFFFFFFFFF57
S3150800EBC0FFFFFFDFFFBFFFBFFFDFFFFFFFFFFFFE08
S3150800EBD0FFFFFFFFFFFFFFFFFFFFFFFFFFFFFFFF37
S3150800EBE0FFFFFFFFFFFFFFFFFFFFFFFFFFFFFFFF27
S3150800EBF0FFFFFF38C600002421FFFFFFFFE31820B0
S3150800EC00009AD6FFFFFFFFFFFFFFFFFFFFFFFFFF93
S3150800EC10FFFFFFFFFFFFFFFFFFFFFFFFFFFFFFFFF6
S3150800EC20FFFFFFFFFFFEFFDFFFDFFF9CC62C11DFA4
S3150800EC30EFFEFFDFFF5CBE6F1952099309B2099315
S3150800EC40099309B30993099309B3117109B1116DB0
S3150800EC5011FDD6FFF7FEFFFFFFFFFFFFFFFFFFFFD8
S3150800EC60FFDFF79FE79EC652538E197011B4213005
S3150800EC7032DFEFDFF7FFFFFEFFDDFFFEFFFEFFFEE1
S3150800EC80FFFFFFFFFFFFFFDFFFFFFFFFFFFFFFFFA6
S3150800EC90FFFFFFFFFFFFFFFFFFFFFFFFFFFFFFFF76
S3150800ECA0FFFFFFFFFFFFFFFFFFFFFFFFFFFFFFFF66
S3150800ECB0FFFFFFFEFFFEFFFEFFFEFFFFFFFFFFFF5A
S3150800ECC0FFFFFFFFFFFFFFFFFFFFFFFFFFFFFFFF46
S3150800ECD0FFFFFFFFFFFFFFFFFFFFFFFFFFFFFFFF36
S3150800ECE0FFFFFF59CE2000E318FFFFFFFFC3180000
S3150800ECF000BAD6FFFFFFFFFFFFFFFFFFFFFFFFFF83
S3150800ED00FFFFFFFFFFFFFFFFFFFFFFFFFFFFFFFF05
S3150800ED10FFFFFFFFFFFDFFDFFFDFFF7CBE8F219DAB
S3150800ED20BEFEF7FFFFDFFFB24A4F11921192099319
S3150800ED30099409930993099111B0116D119032DA6A
S3150800ED40A5FFF7FEF7DEFFFFFFFFFFFFFFFEFFFE53
S3150800ED50FFDEFFFFF7FFF7DFEF1ED70F325119AFC0
S3150800ED6021BFE7FFF7FFFFFFFFFEFFFEFFFFFFFFE5
S3150800ED70FFFFFFFFFFFFFFDFFFFFFFFFFFFFFFFFB5
S3150800ED80FFFFFFFFFFFFF7FFFFFFFFFFFFFFFFFF8D
S3150800ED90FFFFFFFFFFFFFFFFFFFFFFFFFFFFFFFF75
S3150800EDA0FFFFFFFFFFFFF7FEF7FEFFFFFFFFFFFF77
S3150800EDB0FFFFFFFFFFFFFFFFFFFFFFFFFFFFFFFF55
S3150800EDC0FFFFFFFFFFFFFFFFFFFFFFFFFFFFFFFF45
S3150800EDD0FFFFFF59CE4108C318FFFFFFFFC31820E6
S3150800EDE000BAD6FFFFFFFFFFFFFFFFFFFFFFFFFF92
S3150800EDF0FFFFFFFFFFFFFFFFFFFFFFFFFFFFFFFF15
S3150800EE00FFFFFFFFFFFDFFFFFFDFFF5DC69119F262
S3150800EE1042FFF7DFFFDFFF9FEF535B6D116F11D1E5
S3150800EE2019901190192D116D199363BCCEDFEFFF60
S3150800EE30F7DEF7FEFFBEF79FF7FFFFFFF7FFF7FFC7
S3150800EE40FFDFF7DFF7FEF7FEFFDFFF3FE72E096F6D
S3150800EE5011302A5774198DF88CD88CF994F994F9CD
S3150800EE6094F894389DBCC6FFF7FFFFFFFFFEFFFF2F
S3150800EE70FF7EEF9FE7789DF88CF88CF88CF88CF875
S3150800EE808CF88CF88CF88CF88CF88CF88CF88CF854
S3150800EE908CF88CD88C188D379D7EE7FFFFFFFFFF17
S3150800EEA0FFFFFFFFFFFFFFFFFFFFFFDFFFFFFFFF84
S3150800EEB0FFFFFFFFFFFFFFFFFFFFFFFFFFFFFFFF54
S3150800EEC0FFFFFF79CE2000C318FFFFFFFFE31841BD
S3150800EED00859CEFFFFFFFFFFFFFFFFFFFFFFFFFF02
S3150800EEE0FFFFFFFFFFFFFFFFFFFFFFDFFFDFFFFF64
S3150800EEF0FFFFFFFFFFFDFFDFFFFFFF9DCE71192D0F
S3150800EF00091AAEFFFFDFFFFFF7FFF7DFEF3DB67A1F
S3150800EF109D3A9D3EC69FEFFFFFFFFFDFF7FFFFBE4F
S3150800EF20F7FFFFDDFFFFFFBFF7D3738F42904270F5
S3150800EF3042D66B9EC6FFF7FFFFDFFFFFFF1664B0E2
S3150800EF40117109D311D2117211B319931193119238
S3150800EF5011B1116E112B01B774DFF7FFFFDEFFFF4A
S3150800EF60FFBFEF0D2A2C09B011B111B111B111B1C2
S3150800EF7011B111B111B111B111B111B111B111B173
S3150800EF8011B111921171118E21BDCEFFFFFFFFFF46
S3150800EF90FFFFFFFFFFFFFFFFFF9EF7FFFFFFFFFFDC
S3150800EFA0FFFFFFFFFFFFFFFFFFFFFFFFFFFFFFFF63
S3150800EFB0FFFFFF59CE2000E318FFFFFFFF45294159
S3150800EFC008F7BDFFFFFFFFFFFFFFFFFFFFFFFFFF84
S3150800EFD0FFFFFFFFFFFFFFDFFFBEF7FFFFFFFFFF9C
S3150800EFE0FFFFFFFFFFFEFFDFFFFFFF3FDF5111B20D
S3150800EFF0196E119EC6BFEFFFFFFEFFFFFFBFF7FFAB
S3150800F000FFFFFFDFFFDFFFFFFFFFFFDFF7BFF7DFD2
S3150800F010F7DFFFFFFFFEFFBFEF503AB1197111701E
S3150800F0201191196F19CC29DFEFFFFFBFEF7EB68F5D
S3150800F0301193115309B31193117309B311B40994B8
S3150800F0401194115109D119D011BFEFDEF7DFFFDF97
S3150800F050F7589D4E115109B311B311B311B309B342
S3150800F06009B311B311B311B311B311B311B309B382
S3150800F07009B311940973094E113FDFFFFFFFFFFF24
S3150800F080FFFFFFFFFFFFFFDFFFDFFFFFFFFFFFDFE2
S3150800F090FFFFFFFFFFFFFFFFFFFFFFFFFFFFFFFF72
S3150800F0A0FFDFFFD7BD20002421DFFFFFFFC739415F
S3150800F0B00855ADFFFFFFFFFFFFFFFFFFFFFFFFFF45
S3150800F0C0FFFFFFFFFFFFFFFFFFFFFFBBD61CE7FFAA
S3150800F0D0FFFFFFFFFFDEFFBFFFFFFFBFEF911993A3
S3150800F0E01191116F193895BEEFFEF7FFFFFFFFFF6D
S3150800F0F0FFFEFFFFFFFEFFFFF7FFF7BFEFFAADCFFB
S3150800F1004ADDD6DEF7DEF7FFEF513232097409B26F
S3150800F11009720971114C11DFEFDEEFFEF75DBE8F44
S3150800F12019731193119109B1119111B109910992AC
S3150800F13011730973115109B119FAB5FFFFBEF7DF4B
S3150800F140F7B14291115301930992119209920992CA
S3150800F15009920992119211921192119209920992A9
S3150800F1600992099309B209AE199FE7FFFFFFFFFF4E
S3150800F170FFFFFFFFFFFFFFBFF7AF73FFFFDFFFDFF5
S3150800F180FFFFFFFFFFFFFFFFFFFFFFFFFFFFFFFF81
S3150800F190FFDFFF34A52000A631FFFFDFFF8A5200FC
S3150800F1A000718CDFFFFFFFFFFFBFFF9FF7117CFF9A
S3150800F1B0EFFFF7FFF7BFEFDFE7DFE717951795DFF5
S3150800F1C0F7FFFFFFFFDFFFDFFFFEFFFFEF4E1173C5
S3150800F1D011920992119111312A7674FECEBFEFDF92
S3150800F1E0F7DFF7FFF73FDF3995F2428E116F09B067
S3150800F1F019FFD6DEFFBFFFFFFF713273099101B217
S3150800F200097109B0193774DFF79EF7DEF7D56390F1
S3150800F210197211921192119211721174119211B1FF
S3150800F220099209921192117011D894FFFFFDFFDF20
S3150800F230F7AF1992099001921193119311931193B3
S3150800F2401193119311931193119311931193119390
S3150800F250119311930991096B11FFEFFFFFFFFFFF50
S3150800F260FFFEFFDEFFBFEFBFE769199BC6BFFFBF03
S3150800F270FFDFFFDFFFBEFFFFFFFFFFFFFFFFFFFF11
S3150800F280FFFFFF92944108694ADFFFDFFFCF7B202B
S3150800F29000AE73FFFFFFFFFFFFDFF7FFF70F5339DE
S3150800F2A095777CD1428C21AB00D129D1292F3AFF01
S3150800F2B0FFFFFFFEFFDFFFDFFFFEFFFFF76E11B365
S3150800F2C019B31193097209D219AF194C094C110BCC
S3150800F2D0092C112C114D11B02190199111B2115010
S3150800F2E011FFD6DEFFBFFFFFFF713A72099109D3FE
S3150800F2F0196F11F24ABFF7DFF7FFFFFFF7312AD27E
S3150800F30019520992099211921193119311B209B1E6
S3150800F31009B109920992117011D78CFFFFFDFFBF41
S3150800F320EF4E119309910992099211921192119235
S3150800F33011921192119211921192119211921192A7
S3150800F34011921173097111AD21DFF7FFFFFFFFFF5E
S3150800F350FFFFFFFFFFBFF7FDCE527C6B42D8ADFF24
S3150800F360FFFFFFFFFFFFFFFFFFFFFFFFFFDFFFDFDF
S3150800F370FFFFFF8E732000EF7BDFFFFFFF96B520B0
S3150800F380008A52FFFFFFFFDFFFFFF7BFEF967C6C97
S3150800F390196E198E19B142ED29166CFEB5B04AFFE1
S3150800F3A0FFFFFFFFFFDFFFFFFFFEFFFFF73353D22D
S3150800F3B0199209B31152099209910950019109B29A
S3150800F3C011B319921951117211931993119211913E
S3150800F3D011FFCEDEFFBFFFDFF7703A71118F11D133
S3150800F3E021D88C7EEFFFFFDEF7FFEFB57C6E11921A
S3150800F3F011B31193099209921193119311B109B19D
S3150800F40009B209930992117011F78CFFFFFEFFBF2D
S3150800F410EF4E0993099309B2099209920992099242
S3150800F42009920992099209920992099209920992F6
S3150800F4300992099311B2191253FFF7FFFFFFFFFF55
S3150800F440FFFFFFDFF7FFFFFFFF9EEFFFEFF063D140
S3150800F45063BFE7DFE7FFF7B48CFFF7FFFFBFF7FFF0
S3150800F460FFFFFF694A0000B6B5FFFFFFFFFBDE207E
S3150800F47000C739DFFFFFFFDEFFDEF7FFFF7DC6D5DA
S3150800F4806B1FD7DFE7DFE72D4BFFE7DFEF2E53FFD5
S3150800F490F7DEF7FFFFFFFFFFFFFEFFFFF77A9DB0DE
S3150800F4A01972099209B31191099209B2099309B41B
S3150800F4B009B409930993099309921192117211706B
S3150800F4C011FFCEFFFFDFFFFFFF8F424E1932533F7A
S3150800F4D0DFDFFFBDFFFEFFFFFFBCA58F119009927E
S3150800F4E00993099309B20992117209731192099243
S3150800F4F00993097409731171115895FFF7FFFFBF36
S3150800F500EF6E117209931193099209920992099261
S3150800F5100992099209920992099209920992099205
S3150800F520099209B311B119F98CFFF7FFFFFFFFFF25
S3150800F530FFFEF7FFFFDFFF3EEFBFF7DFEF5CB6EF3B
S3150800F54021EF21335336744D42FFF7FFFFFEFFFFCD
S3150800F550FFFFFFC7390000FBDEFFFFFFFFFFFF418C
S3150800F56008C318DFFFFFFFDFFFBEFF9EFF7FEF55D3
S3150800F57084DFEFDFEF5DDF6A199FBEDCADE910DFE0
S3150800F580F7FFFFFFFFFFFFFFFFFEFFFFFF7FE76DB0
S3150800F59011B3199209B109B109B209B209B309B38C
S3150800F5A009930992099209920992119109B1117068
S3150800F5B011DECEFFFFDFFFDFFF13747DC6FFF7FF07
S3150800F5C0FFDEFFFFFFDFF73A9D501193119111926D
S3150800F5D011930992099109B211B319731172119213
S3150800F5E0119311731172196F111ED7BEF7FFFFDF42
S3150800F5F0F7ED21F1195109721172119211921192B6
S3150800F6001192117211721172117211921192119254
S3150800F61011921171116E117FDFDFF7FFFFFFFFFFF8
S3150800F620FFFEFFDDF7DFF7EF5ADCB5CF296F194E7E
S3150800F63011D0216E190B11F473FFF7FFFFFEFFFFC0
S3150800F640FFFFFFC3180000BEF7DFFFFFFFDFFF0065
S3150800F6500000007DEFDFFFFFFFDEFFDFFFFFFFE7B4
S3150800F66010BBA59FC60D32F0294F1912320F3AFF6B
S3150800F670FFDFF7FFFFFFFFFFFFFFFFFFFFFFF70AB1
S3150800F6800992119209B1099209921192099211925D
S3150800F690119211911191119111B2119109B2119012
S3150800F6A011FFCEDFF7DFFFDEFFFFFFBFF7FEFFFF2D
S3150800F6B0FFBFF79FE754536F1171097209911192B1
S3150800F6C01192119109B111D221D32191199019B032
S3150800F6D011B119D2218F19D142FFF7DFFFDEFFFFE3
S3150800F6E0FFD78C4C113332911191119111911191CF
S3150800F6F011911191119111911191119111911191EC
S3150800F700119111B0196C11FFEFFEF7FFFFFFFFFF14
S3150800F710FFFFFFFFFFDFEF29118D21EB1094639F99
S3150800F720E7DFEF9FE7FBB5FBBDDFFFFFFFFEFFDF70
S3150800F730FF7DEF00000000FFFFDFFFFFFFDFFF8216
S3150800F74010000038C6FFFFFFFFFFFFFFFFFFF73877
S3150800F750954C116F190F091FCFFAAD9584DFEFDFAE
S3150800F760F7FFFFDFFFFFFFFFFFFFFFFEFFFFF7B417
S3150800F770639211931193119311731193119211724C
S3150800F7801191119111911192117209B3117209B166
S3150800F790197DBEFFF7BFFFFEFFDEF7DFFFFDFF7F28
S3150800F7A0F7BAAD8E11B2119209B111901191119259
S3150800F7B01192117011D019733A9442B342D242D2BF
S3150800F7C042D342D242F46B7FDFFFF7FFFFDEFFDF53
S3150800F7D0FFDFEFF88C9242D342D342D33AD33AD3DF
S3150800F7E03AD33AD342D342D342D342D33AD33AD383
S3150800F7F03AD33AF2425574FFF7FEFFFEFFFFFFFFCA
S3150800F800FFFFFFDFFFFFF7E9087674BFE7DFF79D25
S3150800F810EFFDF7DDEF7EEF9FF7DFFFFFFFFFFFFF4F
S3150800F820FF18C60000C318FFFFFFFFFFFFFFFF0C0E
S3150800F8306320009294DFFFDFFFDFFFFFFFFFFFFF7C
S3150800F840FFFABD54849CCEBFFFFDFFFFF7BFEFEE66
S3150800F85052DDF7FEFFFEFFFFFFDFFFFFFFDEF71EAD
S3150800F860CF2F099211B20992117311731193119244
S3150800F87011921192119209B1098F09EE21D78C9F25
S3150800F880F7DFFFFFFFFEFFFDF7DFF7BFF73CBE74AC
S3150800F890326F11B119921173097209921172118F8F
S3150800F8A019D04AFBBDDFF7DFF7FFFFFFF7FFF7FFCA
S3150800F8B0F7FFFFFFFFFFFFDFFFFFFFFFFFFFFFFF72
S3150800F8C0FFFFFFDEF7FFFFFFFFFFFFFFFFFFFFFF63
S3150800F8D0FFFFFFFFFFFFFFFFFFFFFFFFFFDFF7DF72
S3150800F8E0F7FFF7FFFFFFFFFFFFFFFFFFFFFFFFFF2A
S3150800F8F0FFDFFFDFFFFEDEBAADFEEFFCF7DEFF9FA0
S3150800F900FFFFFFFFFFFFFFFFFFFFFFFFFFFFFFBE3A
S3150800F910F7D39C41080C63DFFFFFFFDFFFDFFF180B
S3150800F920C62000494AFFFFFFFFFFFFFFFFFEFFFF5C
S3150800F930F79FEFDFF7FFF7BFF7DFEF9FDF587C6B27
S3150800F94019FFEFFFF7FFFFFFFFDFFFFFFFFEFFDFF8
S3150800F950E7CF219211920993119311931192119263
S3150800F96011921192117009AF111985DFEFBFEFFFE0
S3150800F970FFFFFFDFF7FFF7DFEFBBADEF296F19B228
S3150800F980119009700992117311931191098F1956E3
S3150800F99074BFEFDEF7FFFFFFFFFEFFFEFFFFFFFF6F
S3150800F9A0FFFFFFFFFFBEFFDEFFFFFFFFFFFFFFFFBB
S3150800F9B0FFFFFFFFFFFFFFFFFFFFFFFFFFFFFFFF49
S3150800F9C0FFFFFFFFFFFFFFFFFFFEFFFFFFBFF7FF82
S3150800F9D0FFDEFFDEFFFFFFFFFFFFFFFFFFFFFFFF6B
S3150800F9E0FFFEFFBEF7B052924A926BDFF7DFFFDFEA
S3150800F9F0FFFFFFFFFFFFFFFFFFFFFFFFFFFFFFFF09
S3150800FA00FF494A000038C6DFFFDFFFFFFFBEF77D6C
S3150800FA10EF00004108BEF7FFFFFEFFFEFFFEFF7D79
S3150800FA20E7B8ADFFF7DFEF5B958C196D11D021EFC5
S3150800FA30213BB6DFF7FFFFFFFFDFFFFFFFFDF7FF05
S3150800FA40F7D88C7111731192119211921192119328
S3150800FA50117209B1112C117DC67FE7FFFFFFFFFF69
S3150800FA60F7DEE7FFEF5A95EC00B1197211510970EC
S3150800FA7009B109B2099311941192099011367CFFC4
S3150800FA80F7FEF7FEF7FFF7FFF7FFF7FFF7FFFFDFD2
S3150800FA90FFDFFFDFFFDFFFBEFFFFFFFFFFFFFFFF09
S3150800FAA0FFFFFFFFFFFFF7FFF7FFFFFFFFFFFFFF68
S3150800FAB0FFFFFFFFFFFFFFFFFFFFF7FFFFFFFFFF50
S3150800FAC0FFFFFFDEFFFFFFFFFFFFFFFFFFFFFFFF59
S3150800FAD0FFDDF7DEEF0B32FFF7FFF7FFFFFFFF5EF5
S3150800FAE0EFFFFFFFFFFFFFFFFFFFFFFFFFFFFFDF48
S3150800FAF0FF610820007DEFFFFFFFFFDFFFDFFFBE8E
S3150800FB00F7821020005DEFDFFFFFFFFFFFFFFFDF3B
S3150800FB10F7EC314F3A6B118D19AE21945BDFC67E37
S3150800FB20DF2F5BBFF7FFFFFFFFFFFFFEFFFEFFDED6
S3150800FB30F75EDF8F1973117109B211B1099211922B
S3150800FB4011B2112D095DBEDFFFDEFFDFFFFFF73DB6
S3150800FB50D776746C11B019921173099301B3099190
S3150800FB6009B109B209730952099111913A9FF7DF50
S3150800FB70F7DDF7FFF77BBE94635032703A703A7040
S3150800FB803A503A4F3A9263DDCEFFFFFFFFFEFFFF82
S3150800FB90FFDFF7D78C8E3A6F3A703A703A703A7040
S3150800FBA03A703A703A703A703A903A703A713A90B6
S3150800FBB042AD4A7EEFFFFFFFFFFFFFFFFFFFFFFF9C
S3150800FBC0FFFFF75BB65795BEDFFEF7FDF7FFFFDFD2
S3150800FBD0FFFFFFFFFFFFFFFFFFFFFFFFFFFFFF5DC9
S3150800FBE0EF00008210DFFFFFFFFFFFFFFFDFFFDFF1
S3150800FBF0FFEB5A2000D39CFFFFFFFFFFFFFFFFFF2D
S3150800FC00F7157CCE29B5633CBE73639DC69FE79FF7
S3150800FC10EF6B4ABEF7FFFFFFFFFFFFFEFFDEF7FFB2
S3150800FC20FFFFFF16749019B219B211920992097161
S3150800FC30116F111895DFF75DF7BEFF7FEFB3632BE2
S3150800FC40116F119111B31193099309B209B109B250
S3150800FC5009B209B309930991118E19FECEDFFFFF88
S3150800FC60FFFFF735746E197019911192119211925E
S3150800FC701192119119B1191122BFF7FFFFFEFFFF6B
S3150800FC80FF77846E19CF19911191119109910991F4
S3150800FC900991099111911191119109920971096FAF
S3150800FCA019146CFFFFFFFFFFFFFFFFFFFFFFFFFFBA
S3150800FCB0FFFFF713538D21703A9AA5BFE7FFF7DFC9
S3150800FCC0F7BFEFBFEFFFF7FFFFFFFFFFFFDFFFD332
S3150800FCD09C20000C63FFFFFFFFFFFFFFFFFFFFDF16
S3150800FCE0FFB6B520000421DFFFFFFFFFFFFFFFFF80
S3150800FCF0F79CCE157CBFEFFFF7F9B5968CBEEF7E65
S3150800FD00E7548439C6FFFFFFFFFEFFFFFFFFFFDF53
S3150800FD10FFDFFF7FE74C11B01992097309B3119100
S3150800FD20112F32BFF7DFF7FFFF9FEF70424F119297
S3150800FD301192119211930992119209B109B109927E
S3150800FD4011B209930952017011B463DFF7FFFFBFBF
S3150800FD50F7FBAD4E11721172119211920992099325
S3150800FD60097309931172099111FBB5FFFFFDFFFF96
S3150800FD70F7AF2971117109920993099309930993A8
S3150800FD8009930993097309730993099309B3112D03
S3150800FD9011BFE7FFFFFFFFFFFFFFFFFFFFFFFFFFAB
S3150800FDA0FFBFEF135314532E192F19AF21124B3FD0
S3150800FDB0D77FE7B58CFFF7FFFFFEFFFFFFDFFFA248
S3150800FDC0100000B6B5FFFFFFFFFFFFFFFFFFFFFFB5
S3150800FDD0FF9EF741080000FFFFFFFFFFFFFEFFFF42
S3150800FDE0FFFFFF0A427FEFFFF7BDCEA7106A42BCAE
S3150800FDF0CE525BBFE7FFF7FFFFFEFFFFFFFFFFBF28
S3150800FE00F7FFFFFFF7F78C6E119309B50952014EFC
S3150800FE1009599DDEFFDFF7FFF7725B6F11F2009558
S3150800FE201192099109710991119211921173119305
S3150800FE301193099309B311AF191FD7FEF7BDF7BF81
S3150800FE40EFAD21B2199411B3119109B109B111910C
S3150800FE5011721172115109B219D794FFFFFDFF9F54
S3150800FE60EF2E199419520192119211921192119230
S3150800FE70119211921172119211921192110E09D8C2
S3150800FE808CFFFFFEFFFFFFFFFFFFFFFFFFDFFFFF08
S3150800FE90FF369D9BC65ED7FFEF3CB6AE19AF196D10
S3150800FEA0112A19BCCEFFF7FFFFFFFFFFFFBEFF00B9
S3150800FEB00061087DEFFFFFFFFFFFFFFFFFFFFFFF6A
S3150800FEC0FFFFFF28422000D39CDFFFFEFFFEFFFF57
S3150800FED0FFFFF7D273DDD6BFF75ACEDFFFDFFFFF8E
S3150800FEE0F7DEEF925B5FE7DFF7DEFFDEFFDFFFDFC0
S3150800FEF0FFFFFFFFFFFFFFAC21B111940172016CF8
S3150800FF00119FEFFFFFBFEF1DCF8E11911193119235
S3150800FF1009921192119211921192119211921190C5
S3150800FF2009920993097011F14AFFF7DEFFFFF738C6
S3150800FF308D8F119209930992099211921192119239
S3150800FF401192119211921171091895FFFFFFFFBFC7
S3150800FF50EF4E11921172099211921192119111910B
S3150800FF6011911191119111520973117111CD21DF5E
S3150800FF70F7DFFFFFFFFFF7FFFFFFFFBFFFDFFFBF53
S3150800FF80EFEA29BDC6BFEFDFFFBFF7FFF79FDF53D5
S3150800FF90742D3ABFEFFFFFDEF7FFFFBFFFF4A46142
S3150800FFA0080842DFFFFFFFFFFFFFFFFFFFFFFFFF1E
S3150800FFB0FFFFFF75AD2000C318BFFFFFFFFEFFFF61
S3150800FFC0FFBEEFDCCE8A29706BDFFFDFF7BFF7BE17
S3150800FFD0EF5AB6F0295463FFFFDEFFDEFFDFFFDFCF
S3150800FFE0FFFFFFFFFFFFFFDECE6E117201D3110E7A
S3150800FFF02ADFF7DFFFDFF77353B011720972099131
S31508010000099211921192119211921192119211B1B2
S3150801001009930993118F113ED7DFF7FFFFDFEFAC85
S3150801002019911193099309920992119211921192B8
S315080100301192119209921171091895FFFFFFFFBFDD
S31508010040EF4E09920972119211921192119211921F
S3150801005011921192117109520952094E111ED7BFF7
S31508010060EFBFF7DFF7FFFFFFFFFFFFDFFFDFF73B1D
S31508010070BEDDCED06B9EEF9EFFBEFFDFFFFFFF5EAC
S31508010080E7127CFFF7FFFFFFFFFFFFFFFFC42020FA
S315080100900096B5DFFFFFFFFFFFFFFFFFFFFFFFFF33
S315080100A0FFFFFFBEF761082000FCE6FFFFFEFFDE4B
S315080100B0F7FFF7FFF77FE7BFEFFFFFFFF75FE7AE52
S315080100C04AD46BB221AC29FFFFFFFFFFFFFFFFFFF9
S315080100D0FFFFFFFEFFBEF7DFF7B87C7009D111D429
S315080100E063FFFFFFFFDFEF8E199211730972099102
S315080100F009921192119211921192119211920993E8
S315080101000993115011913AFFEFFEFFDEFF1CB64E1F
S3150801011011720993099309920992119211921192F6
S315080101201192119209921171091895FFFFFFFFBFEC
S31508010130EF4E09920972119211921192119211922E
S315080101401193119311930973099011B8849EE7FFCE
S31508010150FFFFFFFFFFFFFFFEFFFEFF9EF77FE70A98
S31508010160111FD7DFEFFFFFBDFFFDFFBDFFFFFFDF5C
S31508010170FFDFF7FFF7FFFFFFFFDEFF1CE72108821E
S3150801018010DFFFFFFFFFFFFFFFFFFFFFFFFFFFFF7F
S31508010190FFFFFFFFFF494A82100C63DFFFBEF7BD71
S315080101A0F7DEF7FFF7FFF7BFEFDFF7127CA9295F45
S315080101B0DF1CAE701179A57EEFFFFFFFFFFFFFFF82
S315080101C0FFFEFFFEFFFEFFFFFFBFE791324D09D796
S315080101D08CBFF7DEFFFFF76E195309741192119060
S315080101E009921192119211921192119211920993F7
S315080101F0097209D0215DDFFFFFFFFFDFF7AE21504E
S3150801020011941193099209920992119211921192DC
S315080102101192119209921171091895FFFFFFFFBFFB
S31508010220EF4E09920972119211920992099311934B
S31508010230119311931194111422B13AFFEFFFFFDDC7
S31508010240FFDFFFFFFFFFFFFEFFFEFFBFF77584AE6F
S31508010250294C19F56BDFEF9FEFFFFFFFFFBFFFFF8C
S31508010260FFDFF7FFFFFEFFFFFFFFFFEC622100C77D
S3150801027039DFFFFFFFFFFFFFFFFFFFFFFFFFFFFF65
S31508010280FFDFFFDFFF3CE7000062107EEFDFFFFEC6
S31508010290FFFEFFFEFFFEFFAB29CD313BBEDFEFBF01
S315080102A0E7745B8D119EE7BFF7DFF7DFF7FFFFFF07
S315080102B0FFFFFFFFFFFEFFFDFFFFFF9FE70D2A3749
S315080102C09DDFFFFFFFDFF70C09731174119211B15E
S315080102D0119211921192119211921192119209147D
S315080102E01AB019735BDFF7FFFFFFFFBAAD901972FA
S315080102F01174119309920992099209921192119214
S315080103001192119209921171091895FFFFFFFFBF0A
S31508010310EF4E0992097211B109B209920993119323
S3150801032011921171117111F0219FE7FFF7FFFFFF7C
S31508010330FFFFFFFFFFDFFFDFFFDFFF9FEFD26BFF4F
S31508010340D63032B0212C113A959FE7DFEF5EE7DF11
S31508010350FFFFFFFFFFFFFFFFFF9DF782102100DB75
S31508010360DEFFFFFFFFFFFFFFFFFFFFFFFFFFFFFFAF
S31508010370FFFFFFDFFF9EF7452921009294DFFFBEAD
S31508010380F7FFFFFFFFFFFFFAB59AADFFF7FEF7BFCD
S31508010390E76D19B03AFFF7FFFF758C7EE7FFF7FEA9
S315080103A0FFFFFFFFFFFFFFFDFFFEFFBFEF5FDF90D0
S315080103B06BFFFFFFFFFFF7CD219111931192119169
S315080103C01192119211921192119211921192116F29
S315080103D011CE29BFEFFFFFFFFFBFEF0F3271119358
S315080103E01193119211B109B10992099211921192BF
S315080103F01192119209921171091895FFFFFFFFBF1A
S31508010400EF4E0992097211B109B20992099309725B
S315080104100991119011CE215FDFFFF7BEF7FFFFFFAC
S31508010420FFFFFFFEFFDFFFBFF7DFF71ABEBFEFBF14
S31508010430EFDFEF1CB630326E11CF21D78C5063DF58
S31508010440FFFFFFFFFFFFFFBEFF718C41080421FF7D
S31508010450FFDFFFFFFFFFFFFFFFFFFFFFFFFFFFFFBD
S31508010460FFFFFFFFFFFFFF9AD62000A210BEF7FF8E
S31508010470FFFFFFDFFFDFFFBEEF1DDFBEEFFCF73B30
S31508010480BE2E19BBA5DFEFDFF7D794547CFFF7FE25
S31508010490FFDFFFDFFFFFFFDDFFFDFFDFF79FEF7EDA
S315080104A0E7FFFFFFFFFFF7188DAF11921192119227
S315080104B0119211921192119211921192119111ADFB
S315080104C0191ED7BFF7FEFFFFFF97847019911172A6
S315080104D00973119211B111B10993099211921192ED
S315080104E01192119209921171091895FFFFFFFFBF29
S315080104F0EF4E0992097211B209B20992099209518C
S3150801050009B0113022DDC6DFEFDDF7BDFFDFFFFFE2
S31508010510FFFFFFFEF7FFFFFFFF59AD49210A3ABE6C
S31508010520EFBDF7DEF7DFEFBCA52D11AD29FEDE9F86
S31508010530F7DFFFDFFFDFFFBEF7A3180000BAD6FF1C
S31508010540FFDFFFFFFFFFFFFFFFFFFFFFFFFFFFFFCC
S31508010550FFFFFFFFFFFFFFFFFF2421410896B5FFBD
S31508010560FFBFF7FFFFBEF7DEFFFEFFDDEFFFEF3050
S3150801057032B0299FDF5FE78C31D99C7163FDD69E26
S31508010580F7DFFFBFFFFFFFFFFFFFFFFFFFFFFFFFD4
S31508010590FFFFFFDFFFFFFF7FE7CE296F1192119360
S315080105A011920953097411931171114E112F325E6B
S315080105B0EFDFFFFFFFBFEF1ECF4E09B2099211927F
S315080105C0119211921192119211920992119211920C
S315080105D01192119209921171091895FFFFFFFFBF38
S315080105E0EF4E11721172119109B209B3099209B14B
S315080105F0198D213EDFDFF7FFFFFFFFFFFFFFFFFF3B
S31508010600FFFFFFFEFFBEF73CE7B48CFFF7FFF7FFDE
S31508010610FFDFF7BFE7FFEFFFF7DDD61584BFFFFF63
S31508010620FFBFFFBEF7FFFFF49C20004529BEF7FF79
S31508010630FFFFFFFFFFFFFFFFFFFFFFFFFFFFFFFFBB
S31508010640FFFFFFFFFFFFFFFFFFF7BD00000000FFF1
S31508010650FFFFFFDFFFFFFFFFFFFEFFFEF7DFE72ECE
S3150801066011B34AD36B2E5BBFEFFFF7FFEFBFEFDF87
S31508010670F7BDFFFEFFFFFFFFFFFFFFFFFFFFFFFFC6
S31508010680FFFFFFDFFFFFFFFFFF7FDF53536E119071
S31508010690196F116F116F19D02191427DBEDFF7FFD6
S315080106A0FF9EF7FFFF5EDFCE21B1119201921192F3
S315080106B01192119211921192119211921192119213
S315080106C01192119209921171091795FFFFFEFFBF49
S315080106D0EF4D1172117211931172099209B1112F0D
S315080106E02A5FDFBFF7FFFFFFFFFFFFFFFFFFFFFFE8
S315080106F0FFFFFFBFF7DFF771635DBE9FE73DB634C6
S315080107005B4D192C19F36BFFF75EE75DE7FEFFDD1D
S31508010710FFFFFFDFFF9EF700002000F7BDFFFFFF89
S31508010720FFFFFFFFFFFFFFFFFFFFFFFFFFFFFFFFCA
S31508010730FFFFFFFFFFFFFFFFFFDFFFA6312000CF0F
S315080107407BFFFFFFFFFFFFFFFFDFFFDFF7589D4C32
S3150801075019D24ABDCEFEEFFEF7FFEF3AB6779DDD19
S31508010760CEBFEFFFFFFFFFFFFFFFFFFFFFFFFFFF0B
S31508010770FFFFFFFEFFFEFFFEFFFFF7BFEF5FDF5B39
S31508010780BEB9AD1BB6FDD6BFEFFFF7FFF7FFF7FF03
S31508010790FFDFF7DECE0F2A4F09B209B2099211928D
S315080107A01192119211921192119211921192119222
S315080107B01192119209921171091795FFFFFEFFBF58
S315080107C0EF4D0992097209941972192F113353DFE2
S315080107D0EFBEEFDDFFFEFFFFFFFFFFFFFFFFFFFF9E
S315080107E0FFFFFFDFF79FE7D88C6E19912150192F6C
S315080107F011D0290F320B19DBB5DFF7FDFFFDFFDE3F
S31508010800FFFFFFDFFFCF7B20008631FFFFFFFFFFE2
S31508010810FFFFFFFFFFFFFFFFFFFFFFFFFFFFFFFFD9
S31508010820FFFFFFFFFFFFFFFFFFDFFF38C64108207D
S31508010830005DEFFFFFFFFF9EFFFFFFDFF7327C9DA5
S31508010840C6DFEFDFEFFFF71ECFAC216D192C118C38
S31508010850216E3ABFEFFFFFFFFFFFFFFFFFFFFFFF1D
S31508010860FFFFFFFFFFFEFFFEFFFEFFFFFFBFF7DFF4
S31508010870FFFFFFFFFFFEFFFEFFFEFFFFFFFFFFFF7C
S31508010880EFFBAD6D117011710992099201921192E6
S315080108901192119211921192119211921192119231
S315080108A01192119209921171091795FFFFFFFF9F86
S315080108B0EF4E099209720971194E195A9D9FE7FF60
S315080108C0F7DEF7BDF7FEFFFFFFFFFFFFFFFFFFFFA5
S315080108D0FFFFFFFEF7FEF7FFF7B36B8C2112533DBF
S315080108E0B6DFE7DFEF1574B794FFFFDEFFDFFF9F83
S315080108F0FFDFFF5DEF2000410859CEBEF7DFFFFF9E
S31508010900FFFFFFFFFFFFFFFFFFFFFFFFFFFFFFFFE8
S31508010910FFFFFFFFFFFFFFFFFFDFFFFFFF494A0062
S3150801092000494ABEF7FFFFFFFFFEFFFFFFFFFFFF7C
S31508010930F7FFF7FFF79FE72D190C11BA8C5FDFFF59
S31508010940F75EDF0D53FCD6BEF7FFFFFFFFFFFFFF84
S31508010950FFFFFFFFFFFFFFFFFFFFFFFFFFFFFFFF98
S31508010960FFBFFFBEFFDFFFFFFFDFF7DFF71ED7F190
S315080109703A6D09B11992099309930992099211924B
S315080109801192119211921192119211921192119240
S315080109901192119209921171091895FFFFDFFFBF94
S315080109A0EFED08B119B1192E3A5FE7BFF7FFFFFF5F
S315080109B0FFFFFFDFFFFFFFFFFFFFFFFFFFDFF7FF80
S315080109C0F7BFEF5EE75FEFBFF7DFFFDFFFDFF7FF99
S315080109D0F7BFE7DFEF315B1FDFFFFFFEFFFFFFDF3B
S315080109E0FFDFFF494A82102842FFFFDFFFFFFFFFB3
