:020000040800F2
:10000000F00600204901000825100008DF0A00085A
:100010002110000889080008031A000800000000E9
:100020000000000000000000000000002113000894
:10003000B109000800000000AD10000835140008E8
:10004000151A000863010008630100086301000835
:1000500063010008630100086301000863010008F0
:1000600063010008630100086301000863010008E0
:1000700063010008630100086301000863010008D0
:1000800063010008630100086301000863010008C0
:1000900063010008630100086301000863010008B0
:1000A0006301000899140008630100086301000857
:1000B000B1140008F11400080D15000863010008D0
:1000C0006301000863010008630100086301000880
:1000D00063010008D5160008BD170008F9170008CD
:1000E0006301000863010008630100086301000860
:1000F0006301000863010008630100086301000850
:100100006301000863010008291500086301000865
:1001100091150008CD150008451500086301000879
:10012000630100086301000863010008630100081F
:10013000DFF810D000F0BAFA00480047F5270008B1
:10014000AFF30080F00600200648804706480047CD
:10015000FEE7FEE7FEE7FEE7FEE7FEE7FEE7FEE777
:10016000FEE7FEE73914000831010008D2B201E0D1
:1001700000F8012B491EFBD270470022F6E710B5AC
:1001800013460A4604461946FFF7F0FF204610BD05
:100190002DE9FE4F804681EA0300C00F0C46009017
:1001A00021F0004123F00045B8EB0200A94105D23F
:1001B0004046214690461C460B46024623F000402E
:1001C000104347D0270DC7F30A00C3F30A5102902A
:1001D000401A019040286BDAC3F3130040F4801BEF
:1001E0000098924620B10023D2EB030A63EB0B0B7D
:1001F00001985946C0F14002504600F098F9064671
:100200000D4650465946019A00F0B0F910EB08002F
:100210006141002487EA115284EAE7731A4340D00F
:10022000009A62B3019A012A4FEA075215DC001BBB
:1002300061EB02014FF0004202EA0752CDE90042B1
:10024000001C41F5801132462B4600F0B0F903B096
:10025000BDE8F08F40462146F9E7001B61EB020143
:10026000001C41F5801300185B412018A2F500170F
:1002700047EB030140EAD570B6196D4111E06D08F6
:100280004FEA360645EAC0754FEA0752001B61EB9C
:100290000201001C41F5801149084FEA30000019A5
:1002A000514132462B4603B0BDE8F04F00F070B923
:1002B0000098012240000023D0EB020263EBE073C0
:1002C000009821464FEAE074B8EB000061EB0401AE
:1002D000E9E783F000435BE781F0004158E72DE94F
:1002E000FE4F81EA030404F0004421F00041009431
:1002F0004FF0000B23F0004350EA01045ED052EAB5
:1003000003045BD0C3F30A54C1F30A552C44A4F28E
:10031000F3340194A0FB0254C1F3130141F48011A2
:10032000C3F3130343F4801301FB024400FB034EA9
:10033000840A970A44EA815447EA8357A4FB076872
:1003400002958D0A05FB07854FEA932C04FB0C549C
:100350002705029D4FEA065847EA1637B5EB080510
:100360006EEB070C870E920E47EA811742EA831262
:10037000A7FB0201B6EB0B0164EB00042B0D43EA73
:100380000C335E1844EB1C50DA465146E7FB020181
:10039000C5F313044FEA0B3343EA14534FEA043214
:1003A000019C43EA0603A4F10C040294009CCDE9ED
:1003B00000B400F0FCF803B0BDE8F08F0020014667
:1003C000F9E72DE9F04D81EA030404F0004B21F038
:1003D000004514464FF0000A23F0004150EA0502A0
:1003E00020D054EA01021DD0C5F30A570246C5F3D6
:1003F0001303C1F31300C1F30A5640F4801543F40C
:100400008013A7EB0608101BD64608F2FD3873EBE5
:10041000050002D308F1010801E092185B41B8F130
:10042000000F03DA00200146BDE8F08D00204FF4F4
:100430008011064684460EE0171B73EB050705D3B3
:10044000121B63EB050306434CEA010C49084FEA13
:10045000300092185B4150EA0107EDD152EA0300E7
:1004600012D082EA040083EA0501084305D0101B7C
:10047000AB4106D20122002306E000224FF00043E8
:1004800002E06FF0010253101AEB06004CEB08512A
:1004900010EB0A0041EB0B01BDE8F04D00F078B81D
:1004A00030B50B46014600202022012409E021FA44
:1004B00002F59D4205D303FA02F5491B04FA02F541
:1004C0002844151EA2F10102F1DC30BD2DE9F05FD8
:1004D0000546002092469B468846064681464024B3
:1004E0001BE0284641464746224600F02FF8534677
:1004F0005A46C01A914110D311461846224600F0C0
:1005000016F82D1A67EB01084F46224601200021FC
:1005100000F00DF817EB00094E41201EA4F1010474
:10052000DFDC484631462A464346BDE8F09F202A94
:1005300004DB203A00FA02F1002070479140C2F13A
:10054000200320FA03F3194390407047202A04DB6C
:10055000203A21FA02F00021704721FA02F3D0403C
:10056000C2F120029140084319467047202A06DB59
:10057000CB17203A41FA02F043EAE07306E041FA71
:1005800002F3D040C2F1200291400843194670475F
:1005900010B5141E73F1000408DA401C41F100018B
:1005A00092185B411A4301D120F0010010BD2DE9E2
:1005B000F04D92469B4611B1B1FA81F202E0B0FAD9
:1005C00080F220329046FFF7B2FF04460F4640EA21
:1005D0000A0041EA0B0153465A46084313D011461C
:1005E00053EA010019D0C8F140025046FFF7AEFFB0
:1005F00005460E46504659464246FFF798FF0843C7
:1006000005D0012004E020463946BDE8F08D0020E9
:10061000054346EAE0762C4337430A986305E40A2B
:10062000A0EB08000022FD0A44EA47540A3002D534
:1006300000200146E9E7010510196941DDE9084597
:1006400000196941BDE8F04DA2E7C1F30A52C1F3B8
:10065000130140F2FF3341F480119A4202DA002084
:100660000146704740F233439A42A2F2334202DC21
:100670005242FFF76BBFFFF75ABF000030B5041EB0
:1006800071F1000404DB4FF00044404264EB0101CF
:10069000141E73F1000405DB1C464FF00043524268
:1006A00063EB0403994208BF904230BD064C074DEE
:1006B00006E0E06840F0010394E807009847103432
:1006C000AC42F6D3FFF738FDCC280008EC28000830
:1006D00008B50121102000F08FFD40200749486136
:1006E00003208DF8020010208DF803004020ADF8A3
:1006F00000006946014800F05CF908BD00100140A7
:1007000010B5044602F030F8462002F003F802F07B
:1007100053F8012800D110BD204601F0FBFF02F084
:100720004BF8012801D10220F5E702F035F800204E
:10073000F1E710B500F06AFA00F004F81020FFF7B6
:10074000DFFF10BD10B50120FFF7DAFF10BD00007C
:1007500010B5044601A001F087F910BD2D2D2D3EE6
:10076000206B657931444F55424C455F436C69635A
:100770006B21203C2D2D2D0D0A00000010B50446E4
:1007800001A001F071F910BD2D2D2D3E206B657972
:1007900031204C4F4E475F50524553535F484F4CAA
:1007A0004421203C2D2D2D0D0A00000010B50446DB
:1007B00001A001F059F910BD2D2D2D3E206B65795A
:1007C00031204C4F4E475F52524553535F53544173
:1007D000525421203C2D2D2D0D0A000010B5044649
:1007E00001A001F041F910BD2D2D2D3E206B657942
:1007F0003120707265737320646F776E21203C2DF9
:100800002D2D0D0A0000000010B5044601A001F0D6
:100810002BF910BD2D2D2D3E206B65793120707286
:100820006573732072657065617421203C2D2D2DD8
:100830000D0A000010B5044601A001F015F910BD25
:100840002D2D2D3E206B65793120707265737320DC
:10085000757021203C2D2D2D0D0A000010B5044689
:1008600001A001F001F910BD2D2D2D3E206B657901
:10087000312053494E474C455F436C69636B2120DF
:100880003C2D2D2D0D0A000000BFFEE710B5002401
:100890001548006820F07060134908600846006839
:1008A00040F00060086004E0601CC4B2012001F068
:1008B000F1FE0E48006808B1642CF5DB642C01DB06
:1008C000012010BD002404E0601CC4B2012001F02E
:1008D000E1FE0648006808B9642CF5DB642C01DBF6
:1008E0000120EEE70020ECE7040C014038812142B2
:1008F00010B500F007F80421014800F0EEF810BD33
:10090000000C014008B50121082000F075FC04200E
:10091000ADF8000010208DF8030003208DF80200D0
:100920006946024800F045F808BD0000000C01408F
:1009300008B50121082000F05FFC4FF48040ADF8BD
:10094000000010208DF8030003208DF80200694696
:10095000064800F02EF84FF48041044800F0BDF83E
:1009600000F006F8FFF792FF08BD0000000C014000
:1009700010B50C48006820F070600A49086008460D
:10098000006840F0407008600020074908601420AB
:1009900001F05AFE01200549C1F8B8011E2001F0FE
:1009A00079FE10BD040C0140B88121420080214233
:1009B00070472DE9F0410246002500260020002363
:1009C0000024002791F803C00CF00F0591F803C034
:1009D0000CF0100CBCF1000F03D091F802C04CEAEF
:1009E000050591F800C0BCF1000F31D0146800205B
:1009F0002BE04FF0010C0CFA00F3B1F800C00CEA48
:100A000003069E4220D183004FF00F0C0CFA03F72F
:100A1000BC4305FA03FC4CEA040491F803C0BCF1A2
:100A2000280F06D14FF0010C0CFA00FCC2F814C0DC
:100A30000AE091F803C0BCF1480F05D14FF0010C5A
:100A40000CFA00FCC2F810C0401C0828D1D3146076
:100A5000B1F800C0BCF1FF0F34DD546800202EE077
:100A600000F1080C4FF0010808FA0CF3B1F800C0CF
:100A70000CEA03069E4221D183004FF00F0C0CFAC2
:100A800003F7BC4305FA03FC4CEA040491F803C0E5
:100A9000BCF1280F05D100F1080C08FA0CF8C2F8D7
:100AA000148091F803C0BCF1480F07D100F1080C85
:100AB0004FF0010808FA0CF8C2F81080401C082812
:100AC000CED35460BDE8F0810246002093680B400D
:100AD0000BB1012000E0002070470161704700BFAA
:100AE000FEE7000010B501F08DFD4FF4A06000F0AE
:100AF000D3FA4FF4E13000F09DFD4FF4165000F0B2
:100B000007FE16A000F0B0FF00F0E0F818A000F01B
:100B1000ABFF00F093F81DA000F0A6FFFFF708FF61
:100B2000FFF7E6FE00F011F91EA000F09DFF202067
:100B3000234908614FF6FF7000F0EEF8FFF7C8FD9B
:100B400020A000F091FFFFF7F4FD24A000F08CFF3F
:100B500000F0D6FA28A000F087FF10BDB4AEBFDACF
:100B600031C5E4D6C30909095B4F4B5D200D0A006E
:100B70004C4544C5E4D6C309090920202020202083
:100B800020205B4F4B5D200D0A000000B6C0C1A2C3
:100B9000B0B4BCFCC5E4D6C30909095B4F4B5D206A
:100BA0000D0A0000535437373335204C4344C5E415
:100BB000D6C30909095B4F4B5D200D0A00000000F8
:100BC00000200140B7E4C3F9C6F7C5E4D6C309095C
:100BD000095B4F4B5D200D0A00000000B9E2D5D53E
:100BE000B4ABB8D0C6F7C5E4D6C30909095B4F4B0F
:100BF0005D200D0A000000005243353232C5E4D6B4
:100C0000C30909095B4F4B5D200D0A0008B501219E
:100C1000202000F0F1FA0C20ADF8000003208DF840
:100C2000020014208DF8030069460348FFF7C1FE57
:100C300001F0B2FD08BD00000014014008B501211B
:100C4000402000F0D9FA8020ADF8000004208DF893
:100C5000030069460748FFF7ACFE4FF48070ADF81B
:100C6000000004208DF8030069460248FFF7A1FE4A
:100C700008BD00000018014008B50121080200F07D
:100C8000BBFAFC20ADF8000003208DF80200102014
:100C90008DF8030069460248FFF78BFE08BD00008F
:100CA0000020014010B5044610200749486140204B
:100CB0000861201200F01AFBE0B200F017FB1020D0
:100CC0000149086110BD00000020014008B5012164
:100CD000482000F091FA3020ADF8000010208DF887
:100CE000030003208DF8020069460948FFF761FE02
:100CF00030210748FFF7F1FE2020ADF800006946DB
:100D00000448FFF756FE20210248FFF7E6FE08BD23
:100D1000000C01400018014070B506469F237F2259
:100D20000021084600F032F92C2000F069F9002477
:100D300008E0002503E03046FFF7B4FF6D1CA02D4E
:100D4000F9D3641C802CF4D370BD10B5FFF794FF69
:100D500000F00CF9112000F053F9782001F074FC38
:100D6000B12000F04DF9012000F03AF92C2000F0FC
:100D700037F92D2000F034F9B22000F041F90120BC
:100D800000F02EF92C2000F02BF92D2000F028F98E
:100D9000B32000F035F9012000F022F92C2000F0FA
:100DA0001FF92D2000F01CF9012000F019F92C206A
:100DB00000F016F92D2000F013F9B42000F020F90E
:100DC000072000F00DF9C02000F01AF9A22000F071
:100DD00007F9022000F004F9842000F001F9C12095
:100DE00000F00EF9C52000F0FBF8C22000F008F971
:100DF0000A2000F0F5F8002000F0F2F8C32000F01F
:100E0000FFF88A2000F0ECF82A2000F0E9F8C4206E
:100E100000F0F6F88A2000F0E3F8EE2000F0E0F8A9
:100E2000C52000F0EDF80E2000F0DAF8362000F0D2
:100E3000E7F8C02000F0D4F8E02000F0E1F80F203F
:100E400000F0CEF81A2000F0CBF80F2000F0C8F820
:100E5000182000F0C5F82F2000F0C2F8282000F07C
:100E6000BFF8202000F0BCF8222000F0B9F81F20C5
:100E700000F0B6F81B2000F0B3F8232000F0B0F823
:100E8000372000F0ADF8002000F0AAF8072000F0AD
:100E9000A7F8022000F0A4F8102000F0A1F8E1204B
:100EA00000F0AEF80F2000F09BF81B2000F098F83F
:100EB0000F2000F095F8172000F092F8332000F092
:100EC0008FF82C2000F08CF8292000F089F82E20D3
:100ED00000F086F8302000F083F8302000F080F831
:100EE000392000F07DF83F2000F07AF8002000F073
:100EF00077F8072000F074F8032000F071F8102054
:100F000000F06EF82A2000F07BF8002000F068F86E
:100F1000002000F065F8002000F062F87F2000F06B
:100F20005FF82B2000F06CF8002000F059F800204A
:100F300000F056F8002000F053F89F2000F050F821
:100F4000F02000F05DF8012000F04AF8F62000F0F3
:100F500057F8002000F044F83A2000F051F805203E
:100F600000F03EF8292000F04BF810BD10B58020AD
:100F700005494861642001F067FB8020024908614F
:100F8000322001F061FB10BD00200140F0B50546A4
:100F90000C4616461F462A2000F032F8002000F0CA
:100FA0001FF8E8B200F01CF8002000F019F8B11C9E
:100FB000C8B200F015F82B2000F022F8002000F055
:100FC0000FF8E0B200F00CF8002000F009F8791CEE
:100FD000C8B200F005F82C2000F012F8F0BD0000B7
:100FE00010B504461020054948614020086120469C
:100FF00000F07CF910200149086110BD002001407B
:1010000010B504461020054948614020486120463B
:1010100000F06CF910200149086110BD002001406A
:1010200000BFFEE77047000070B5002100230F22CB
:10103000C47804B3154C246804F4E064C4F5E06497
:10104000210AC1F10403CA40447804FA03F1847808
:101050001440214309010E4C0678A155047804F090
:101060001F050124AC4005786D11AD0005F1E025A8
:10107000C5F8004109E0047804F01F050124AC40E4
:10108000044D0678761145F8264070BD0CED00E061
:1010900000E400E080E100E002490143024A1160FF
:1010A000704700000000FA050CED00E070470000FA
:1010B0000FB438B5044600254FF480710F48FFF790
:1010C0005CF806A800900D48009A059900F0DCFC39
:1010D000002000900BE000BF208800F040000028B6
:1010E000FAD02846691C8DB20449085CA0800348E8
:1010F000405D0028EFD138BC5DF814FBF001002002
:1011000010B500F00DF84FF400510448FFF7E5FC6E
:101110004FF400710148FFF7E0FC10BD00200140D2
:1011200008B50121080200F067F84FF40070ADF82F
:10113000000003208DF8020010208DF8030069469E
:101140002448FFF736FC0121080200F055F84FF45F
:101150008060ADF8000003208DF8020010208DF8AB
:10116000030069461B48FFF724FC0121080200F038
:1011700043F84FF40060ADF8000003208DF8020042
:1011800010208DF8030069461248FFF712FC012178
:10119000080200F031F84FF48050ADF80000042050
:1011A0008DF8030069460B48FFF703FC0121080294
:1011B00000F022F84FF40050ADF8000003208DF845
:1011C000020010208DF8030069460248FFF7F1FB8A
:1011D00008BD00000020014029B1064AD26902433F
:1011E000044BDA6104E0034AD2698243014BDA61BD
:1011F000704700000010024029B1064A926902437C
:10120000044B9A6104E0034A92698243014B9A615C
:10121000704700000010024030B500210022002479
:1012200000232D4D6D6805F00C0121B1042905D076
:10123000082923D105E0294D056022E0274D0560EE
:101240001FE0254D6D6805F47012234D6D6805F49F
:101250008034022505EB92421CB9214D55430560AF
:101260000BE01D4D6D6805F400351DB11C4D554357
:10127000056002E0194D5543056002E0174D056019
:1012800000BF00BF144D6D6805F0F0010909154D50
:101290006B5C0568DD4045600F4D6D6805F4E061ED
:1012A000090A104D6B5C4568DD4085600A4D6D682C
:1012B00005F46051C90A0B4D6B5C4568DD40C560A3
:1012C000054D6D6805F44041890B074D6B5CC568A1
:1012D000B5FBF3F5056130BD0010024000127A0045
:1012E00000093D001A0000202A00002000210821EA
:1012F00011E000F080021AB10822084B1A6102E0E6
:101300000822064B5A610422044B5A611A614206B4
:10131000100E4A1ED1B20029EBDC704700200140BC
:10132000704710B500F002F810BD00000CB50020A9
:10133000019000903348006840F4803031490860E3
:1013400000BF3048006800F4003000900198401C55
:101350000190009818B90198B0F5A06FF1D1294813
:10136000006800F4003010B10120009001E000207E
:1013700000900098012843D12348006840F01000F5
:10138000214908600846006820F00300086008460C
:10139000006840F0020008601A4840681949486037
:1013A0000846406848600846406840F480604860ED
:1013B0000846406820F47C1048600846406840F4C5
:1013C000E81048600846006840F08070086000BF80
:1013D0000C48006800F000700028F9D00948406807
:1013E00020F00300074948600846406840F00200CA
:1013F000486000BF0348406800F00C000828F9D19D
:101400000CBD00000010024000200240042808D15A
:101410004FF0E021096941F004014FF0E022116131
:1014200007E04FF0E021096921F004014FF0E022CC
:10143000116170477047000010B51348006840F014
:1014400001001149086008464068104908400E49EB
:101450004860084600680E4908400B490860084685
:10146000006820F4802008600846406820F4FE00F0
:1014700048604FF41F008860FFF753FF4FF0006093
:101480000449086010BD0000001002400000FFF891
:10149000FFFFF6FE08ED00E010B50121034800F063
:1014A00065F80121014800F05BF810BD002C0140F7
:1014B00010B50121880700F059F858B106480378A3
:1014C0000648027806A10948FFF7F2FD01218807C6
:1014D00000F049F810BD00001500002014000020A5
:1014E0005425645048256449000000000044004031
:1014F00010B50121044800F039F818B10121024863
:1015000000F031F810BD00000004004010B50121CA
:10151000044800F02BF818B10121024800F023F82C
:1015200010BD00000008004010B50121044800F083
:101530001DF818B10121024800F015F810BD000097
:10154000000C004010B50121044800F00FF818B15C
:101550000121024800F007F810BD00000010004013
:10156000CA4302827047CA430282704730B50246BE
:10157000002000230024158A05EA0103958905EA65
:10158000010413B10CB1012000E0002030BD0000C7
:1015900010B540F225510C4800F06EF970B10A48C0
:1015A00000F026FAC4B22146074800F026FA00BF30
:1015B0004021054800F053F90128F9D140210248A3
:1015C00000F038F910BD0000004C004010B540F2AA
:1015D00025510C4800F050F970B10A4800F008FAA3
:1015E000C4B22146074800F008FA00BF4021054870
:1015F00000F035F90128F9D14021024800F01AF92C
:1016000010BD00000050004000BF028802F0400200
:10161000002AFAD08180704710B504460B4604E0DA
:1016200019782046FFF7F0FF5B1C18780028F7D1E7
:1016300010BD000010B586B00446012144F204003C
:10164000FFF7DAFD4FF40070ADF8140003208DF8B9
:10165000160018208DF8170005A91C48FFF7A9F9F6
:101660004FF48060ADF8140004208DF8170005A930
:101670001648FFF79EF925208DF8000003208DF80D
:1016800001008DF8020001208DF803006846FFF785
:10169000CBFC01940020ADF80800ADF80A00ADF8CD
:1016A0000C00ADF810000C20ADF80E0001A90848A0
:1016B00000F032F9012240F22551054800F006F908
:1016C0000121034800F0BFF806B010BD000801403A
:1016D0000038014010B540F225510C4800F0CCF81C
:1016E00070B10A4800F084F9C4B22146074800F0FE
:1016F00084F900BF4021054800F0B1F80128F9D174
:101700004021024800F096F810BD0000003801406A
:1017100010B586B0044601210420FFF76DFD0121BC
:101720004804FFF759FD0420ADF8140018208DF887
:10173000170003208DF8160005A91E48FFF739F998
:101740000820ADF8140004208DF8170005A91948E9
:10175000FFF72FF901940020ADF80800ADF80A005A
:10176000ADF80C00ADF810000C20ADF80E0001A98A
:10177000114800F0D1F84FF4A060FFF78DFC26204F
:101780008DF8000002208DF8010003208DF8020082
:1017900001208DF803006846FFF746FC012240F265
:1017A0002551054800F092F80121034800F04BF85C
:1017B00006B010BD000801400044004010B540F2E2
:1017C00025510C4800F058F870B10A4800F010F9A3
:1017D000C4B22146074800F010F900BF4021054877
:1017E00000F03DF80128F9D14021024800F022F82C
:1017F00010BD00000044004010B540F225510C48D7
:1018000000F03AF870B10A4800F0F2F8C4B221468C
:10181000074800F0F2F800BF4021054800F01FF82B
:101820000128F9D14021024800F004F810BD000061
:101830000048004001F40072B2F5007F00D100BF03
:10184000CA430280704721B1828942F400528281EA
:1018500004E082894DF6FF731A4082817047024688
:101860000020B1F5007F00D100BF13880B400BB101
:10187000012000E00020704770B5024600240023DC
:101880000025002040F66A16B14200D100BFC1F326
:10189000421501F01F03012606FA03F3012D02D1C0
:1018A0009689334006E0022D02D1168A334001E0CA
:1018B000968A33400C12012606FA04F41688344046
:1018C00013B10CB1012000E0002070BDF0B503465B
:1018D000002400260025002040F66A17B94200D1F6
:1018E00000BF1846C1F3421401F01F06012707FA92
:1018F00006F5012C01D10C3004E0022C01D110308E
:1019000000E014301AB107682F43076002E007684F
:10191000AF430760F0BD00002DE9F04786B00546F3
:101920000E460024A24600BFA1460027B08900B1A0
:1019300000BF2F462C8A4CF6FF700440F088044309
:101940002C82AC894EF6F3100440B08831890843EC
:10195000718908430443AC81AC8A4FF6FF400440D0
:10196000B0890443AC8201A8FFF756FC1F488742A8
:1019700002D1DDF810A001E0DDF80CA0A88900F488
:10198000004040B10AEBCA0000EB0A103168490080
:10199000B0FBF1F807E00AEBCA0000EB0A1031686F
:1019A0008900B0FBF1F86420B8FBF0F004012009D5
:1019B000642101FB1089A88900F4004040B1322065
:1019C00000EBC900B0FBF1F000F00700044308E0B1
:1019D000322000EB09106421B0FBF1F000F00F00A1
:1019E00004432C8106B0BDE8F087000000380140B8
:1019F00001468888C0F308007047C1F3080282805E
:101A0000704700BFFEE700000020014908607047F2
:101A1000082C004010B50948007800F01DF8FFF7C9
:101A2000F3FF0748006808B9012000E000200449DE
:101A3000086004A10748FFF7EFFD10BD2E0000204D
:101A400094012342575744472074657374200D0A4C
:101A5000000000000038014000F07F01014A1160E1
:101A600070470000002C00400FB4054B10B503A9CF
:101A7000044A029800F0ECF810BC5DF814FB00007A
:101A8000E12600083400002037B514460846064B0E
:101A90006A46214600F0DCF804466946002000F062
:101AA0005AFC20463EBD00005723000802E008C84B
:101AB000121F08C1002AFAD170477047002001E0C8
:101AC00001C1121F002AFBD1704700002DE9FF5F02
:101AD00082B00021DDE90430020DDDF840B003439F
:101AE00018D044F61050A2F2FF3242431514119858
:101AF00001281FD0A5EB0B00401C5FEA000A4FF045
:101B000000064E4FDFF83891B046504615D5CAF161
:101B1000000413E0119801244AA3012801D16FEABF
:101B20000B010298119AC0E90031C0E9024206B0E7
:101B3000BDE8F09FCBF10000DFE704460021404AFA
:101B4000491842EB0450CDE9001012E0E00707D03D
:101B500032463B4640464946FEF7C1FB8046894631
:101B600032463B4610461946FEF7B9FB06460F467D
:101B70006410002CEAD1DDE90401DDE90023BAF1AB
:101B8000000F06DAFEF7ABFB42464B46FEF7A7FB1B
:101B900005E0FEF716FC42464B46FEF712FC0446F3
:101BA0000E460022284BFEF769FD03D84FF0FF30A8
:101BB000014607E00022254B20463146FEF7E8FAB1
:101BC000FEF743FD102409E0002C0ADB0A22002363
:101BD000FEF77CFC039B30321A55641E50EA01026A
:101BE000F2D1641C039AC4F111031444119A012A1E
:101BF00003D0012208430DD10AE0084304D000209D
:101C00004FF0110B119072E7A3EB0B056D1E0DE069
:101C10005B4504DD4FF0000205F1010504E003DA45
:101C20004FF00002A5F10105002AECD002981199AD
:101C3000C0E90231C0E9004579E700000000144026
:101C40000000F03F300000000000F0430000E03FE3
:101C50002DE9FF4F95B09A46884606460025EEE1ED
:101C6000252877D100242746F94A0121039400E072
:101C7000044316F8013F203B01FA03F01042F7D16C
:101C800030782A2811D06FF02F033078A0F130027D
:101C9000092A16D8039A44F0020402EB820203EBED
:101CA00042021044761C0390EFE758F8042B03928D
:101CB000002A03DA504244F40054039044F0020432
:101CC000761C30782E2816D116F8010F44F0040443
:101CD0002A280DD06FF02F023078A0F13003092BA5
:101CE00009D807EB870302EB4303C718761CF3E719
:101CF00058F8047B761C30786C280FD006DC4C2812
:101D000017D068280DD06A2814D104E0742810D0A8
:101D10007A280FD10DE044F400140AE044F4801452
:101D200001E044F440147278824202D104F5801438
:101D3000761C761C307866280BD013DC582877D0B8
:101D400009DC002875D04528F6D04628F4D047286D
:101D50001AD193E118E0632835D0642879D065283A
:101D600012D18BE1702873D008DC6728F1D0692884
:101D70006FD06E280DD06F2806D1ACE073282CD020
:101D8000752874D0782853D05246179990476D1C07
:101D900054E1C4F30250022809D003280DD0D8F82A
:101DA000001004280DD00D6008F1040846E1D8F8B1
:101DB0000010EA17C1E90052F6E7D8F800100D80CC
:101DC000F2E70D70F0E718F8041B8DF80010002002
:101DD0008DF80100EB46012003E058F804BB4FF0FA
:101DE000FF3061074FF0000102D40DE009F101015D
:101DF0008946B9420FDA8145F8DB1BF80910002942
:101E0000F4D108E009F1010189468142FADB1BF8AF
:101E100009100029F6D103985346A0EB0907214683
:101E20003846179A00F080FA284400EB090507E0CD
:101E300044E008E10DE01BF8010B5246179990476A
:101E4000B9F10109F7D2534621463846179AF2E014
:101E500039E00A21C4F302524FF0000B0091022A2C
:101E600006D058F8040BC117032A09D00AE023E072
:101E700008F1070020F00702F2E80201904605E0B1
:101E800000B2C117042A01D140B2C117002906DAF5
:101E90000A460021404261EB02012D2202E02205A8
:101EA00004D52B228DF80420012203E0E20701D0A3
:101EB0002022F7E7914657E00A2100E010214FF079
:101EC000000B00910BE010214FF0000B44F00404D4
:101ED0000827009103E008204FF0000B0090C4F3A6
:101EE0000252022A05D058F8040B0021032A08D018
:101EF00008E008F1070020F00702F2E8020190462E
:101F000003E080B2042A00D1C0B24FF000092207DA
:101F10002AD53278702A07D0DDF800C08CF0100C7A
:101F20005CEA0B0C05D00EE040228DF80420012263
:101F300008E050EA010306D030238DF804308DF814
:101F4000052002229146009B83F0080353EA0B030D
:101F50000AD150EA010201D1620705D530228DF87D
:101F600004204FF001097F1E3278582A04D039A28C
:101F70000C920CAA02920BE03BA2F9E75B46009A96
:101F8000FEF7A4FA0C9B9B5C029A521E02921370FD
:101F900050EA0102F2D1029804A9081A00F1200BBC
:101FA000600702D524F4803400E001275F4502DD9C
:101FB000A7EB0B0000E0002000EB0B010090039862
:101FC0004944401A0390E00306D453462146179A29
:101FD000039800F0A9F90544002706E001A852463D
:101FE000C05D179990476D1C7F1C4F45F6DBE003E1
:101FF0000CD553462146179A039800F095F90544ED
:1020000004E030205246179990476D1C0099481EF5
:1020100000900029F5DC08E0029802995246007809
:10202000491C0291179990476D1CBBF10001ABF15F
:10203000010BF1DC5BE100F065F90544761C3078BA
:1020400000287FF40DAE19B02846BDE8F08F0000DF
:10205000092801003031323334353637383961627E
:102060006364656600000000303132333435363742
:10207000383941424344454600000000600700D41F
:10208000062708F1070020F00700F0E80223804649
:1020900003F0004C5FEA0C0001D097A009E0200596
:1020A00001D596A005E0E00701D095A001E0AFF2D0
:1020B0004C001390307823F0004365280CD006DCE8
:1020C000452809D046281DD047287FD13BE0662807
:1020D00018D067287AD136E00021112F01DB1120BA
:1020E00000E0781CCDE9000104A90CA8FFF7EEFC84
:1020F000DDE90D010C9A4FF0000B07F10109109278
:1021000000914EE04FF000400097CDE9011004A986
:102110000CA8FFF7DBFCDDE90D020C9B0F994FF0DB
:10212000000B91461093009211B9791C00EB010944
:10213000B7EB090003D4C0F1FF3B07F10109A9EB9C
:102140000700019042E0012F00DA01270021112F42
:1021500001DD112000E03846CDE9000104A90CA8FA
:10216000FFF7B4FCDDE90D010C9A00914FF0000B74
:10217000B946109221070FD4009A4A4503DA9146D6
:1021800001E0A9F10109B9F1010F05DD109AA9F1EA
:102190000101515C3029F4D0B84202DA10F1040F89
:1021A00003DA0121CDE9011010E0002803DC8344AB
:1021B000A9EB000102E0411C494500DD8946A0EB86
:1021C0000B00401C01904FF000400290200705D406
:1021D0000198484502DB4FF0FF30019000208DF858
:1021E0004B0002980DF14B07B0F1004F25D00220B3
:1021F0000C902B200D90029800280CDA404202909F
:102200002D200D9007E00A210298FEF749F93031A0
:10221000029007F8011D0C99481E0C900029F2DC71
:1022200002980028EFD1791E0D980870307800F0E0
:10223000200040F0450007F8020D11A8C01BC01D8A
:1022400002901398007800B1012000EB0901019879
:1022500001EBE071029801440398401A401E03907C
:10226000E00306D453462146179A039800F05CF821
:1022700005441398007818B15246179990476D1C81
:10228000E00323D553462146179A039800F04CF8F3
:1022900005441BE0BBF1000F07DB0098584504DD47
:1022A0001098179910F80B0001E01799302052464A
:1022B000904701980BF1010B401E05F101050190BB
:1022C00004D12E205246179990476D1CB9F1000198
:1022D000A9F10109DEDC05E017F8010B5246179958
:1022E00090476D1C0299481E02900029F4DC534669
:1022F0002146179A03989EE62D0000002B0000004F
:10230000200000002DE9F041044600251E46174636
:10231000880404D405E039462020B0476D1C641EB3
:10232000F9D52846BDE8F0812DE9F04104460025A5
:102330001E469046C80301D5302700E020278804B8
:1023400004D505E041463846B0476D1C641EF9D5FA
:102350002846BDE8F0810A68531C0B601070704776
:1023600000F1080343F82120704770B50446606807
:1023700080470546E07800F00700002802DD20884D
:10238000401C2080E078B5EBD01F13D0E078C00867
:10239000401CE17860F3C501E170C1F3C20003287D
:1023A0000CDBE07865F3C710E070E07820F03800CF
:1023B000E07003E0E07820F03800E070E07800F0B2
:1023C0000700062826D2DFE800F00326529CDEBD77
:1023D000E078C0F38010E178B0EBD11F15D1A07880
:1023E00020F0F000A070A06810B12046A1688847D6
:1023F00000202080A07820F00F00401CA070E07822
:1024000020F00700401CE07004E0A07820F0F0000D
:102410008030A070B7E0E078C0F38010E178B0EBD6
:10242000D11F11D0A07820F0F0001030A070E0682B
:1024300010B12046E168884700202080E07820F035
:102440000700801CE07011E02088C8280EDDA0780D
:1024500020F0F0005030A070E06910B12046E16932
:102460008847E07820F00700401DE0708BE0E078BE
:10247000C0F38010E178B0EBD11F1BD1A07820F021
:10248000F000A070A06810B12046A1688847A0782D
:10249000401CA17860F30301A170206910B12046AF
:1024A0002169884700202080E07820F00700C01CC8
:1024B000E07025E020883C2822DDA07800F00F00A5
:1024C00001280AD1A07820F0F0003030A0706069B7
:1024D00090B12046616988470EE0A07800F00F00B7
:1024E000022809D1A07820F0F0004030A070A06947
:1024F00010B12046A1698847E07820F00700E0701D
:1025000041E0E078C0F38010E178B0EBD11F18D043
:10251000A07820F0F0001030A070E06810B12046E4
:10252000E168884720883C2807DA00202080E0788E
:1025300020F00700801CE07003E0E07820F0070046
:10254000E07020E0E078C0F38010E178B0EBD11FBC
:102550000AD1A07820F0F0006030A070206A88B125
:102560002046216A88470DE0A07820F0F000103066
:10257000A070E06810B12046E1688847E07820F05C
:102580000700E07000BF00BF70BD70B504460D4687
:10259000164628212046FDF7F0FDA07820F0F00037
:1025A0008030A070656060688047E17860F3C71193
:1025B000E170E07866F38610E07070BD014609486E
:1025C000026805E08A4202D14FF0FF307047526A3C
:1025D000002AF7D1034800684862024801600020E1
:1025E000F4E700003000002010B50548046803E05F
:1025F0002046FFF7BAFE646A002CF9D110BD000036
:102600003000002010B56FF00400FEF7FFFE0A480E
:1026100000680A49B0FBF1F00949087008460078E3
:1026200000EB4001C1EBC0104FF6FF7101EAC000A2
:102630000449088010BD00000000002000127A004C
:1026400016000020180000200146114A12884A4353
:102650004FF0E0235A6100229A611A46126942F053
:1026600001021A6100BF4FF0E022106900F0010280
:102670001AB100F48032002AF5D04FF0E02212693E
:1026800022F001024FF0E0231A6100229A617047A4
:10269000180000200146114A12784A434FF0E02307
:1026A0005A6100229A611A46126942F001021A61C7
:1026B00000BF4FF0E022106900F001021AB100F4EF
:1026C0008032002AF5D04FF0E022126922F0010298
:1026D0004FF0E0231A6100229A6170471600002033
:1026E00070B504460D46E1B20548FFF786F900BF14
:1026F00080210348FFF7B3F80028F9D0204670BDC9
:1027000000380140002001E0411CC8B20A28FBDB70
:102710007047000070B50446002520E004F08000FA
:1027200018B108200F49086003E008200D49091D71
:102730000860FFF7E7FF04200A490860FFF7E2FF9F
:1027400004200849091D0860072D02D10820091F2F
:1027500008606006040EFFF7D5FF681CC5B2082D9F
:10276000DCDB70BD1014014010B508200949086079
:1027700004200860FFF7C6FF08200649091D08600D
:10278000FFF7C0FF04200349091D0860FFF7BAFFE7
:1027900010BD00001014014010B508200549086064
:1027A0000420091F0860FFF7ADFF08200149091F39
:1027B000086010BD1414014010B508200C490860D1
:1027C000FFF7A0FF04200A490860FFF79BFF0848B5
:1027D0000838006800F0080008B1012400E0002477
:1027E00004200349091D0860FFF78CFF204610BD37
:1027F00010140140FEF776F91BA0FFF735F920A071
:10280000FFF732F9002224492448FFF7BEFE244A8C
:1028100000212248FFF7A4FD224A01211F48FFF7AB
:102820009FFD214A02211D48FFF79AFD1F4A0321FF
:102830001A48FFF795FD1E4A04211848FFF790FD3E
:102840001C4A05211548FFF78BFD1B4A062113483A
:10285000FFF786FD1148FFF7B1FE04E0FFF7C4FE65
:102860000520FFF7F1FEF9E7D3B2BCFEB3F5CABC11
:10287000BBAF0909095B4F4B5D200D0A000000004A
:102880004D756C7469427574746F6E205465737401
:102890002E2E2E0D0A000000BD2800083800002052
:1028A000DD07000835080008090800085D08000871
:1028B00051070008AD0700087D07000810B580210A
:1028C0000148FEF701F910BD00180140EC2800088E
:1028D0000000002038000000AC1A0008242900087D
:1028E00038000020B8060000BC1A000800A24A0404
:1028F00000000000000000000102030406070809B0
:1029000000000000000000000000010203040102BA
:10291000030406070809020406087F0000000000FF
:0429200000000000B3
:0400000508000149A5
:00000001FF
