S31508000000F0170020490100088F2E0008471C000839
S315080000108D2E000849110008994D000800000000BF
S315080000200000000000000000000000005F36000825
S31508000030E711000800000000ED330008313700081A
S3150800004063010008630100086301000863010008F2
S3150800005063010008630100086301000863010008E2
S3150800006063010008630100086301000863010008D2
S3150800007063010008630100086301000863010008C2
S3150800008063010008630100086301000863010008B2
S3150800009063010008630100086301000863010008A2
S315080000A063010008693B0008630100086301000852
S315080000B0CD3B0008ED3B0008113C00086301000831
S315080000C06301000863010008630100086301000872
S315080000D063010008D14A0008E14B000863010008E3
S315080000E06301000863010008630100086301000852
S315080000F06301000863010008630100086301000842
S315080001006301000863010008353C00086301000824
S315080001106301000863010008593C000863010008F0
S315080001206301000863010008630100086301000811
S31508000130DFF810D000F078FD00480047215B000882
S31508000140AFF30080F01700200648804706480047AE
S31508000150FEE7FEE7FEE7FEE7FEE7FEE7FEE7FEE769
S31508000160FEE7FEE7353700083101000840EA0103DB
S315080001709B0703D009E008C9121F08C0042AFAD24F
S3150800018003E011F8013B00F8013B521EF9D2704713
S31508000190D2B201E000F8012B491EFBD270470022BB
S315080001A0F6E710B513460A4604461946FFF7F0FF68
S315080001B0204610BD421E12F8013F002BFBD111F854
S315080001C0013B02F8013B002BF9D1704730B50546D3
S315080001D02A460B4612F8010B13F8014B08B1A04248
S315080001E0F8D01CB1002802D06D1CF1E7284630BDB6
S315080001F0CAB2401E10F8011F8A4202D00029F9D15E
S3150800020000207047421C10F8011B0029FBD1801AF8
S31508000210704710B5044600E0401C0378002BFBD15C
S3150800022000E0401C521E04D311F8013B0370002B5A
S31508000230F7D100210170204610BD034611F8012BA5
S3150800024000F8012B002AF9D11846704770B5064602
S3150800025004F070FF046805460A220021304600F0C3
S31508000260ADFB2C6070BDF0B480EA0102D40F4200E9
S31508000270B2EB410F02D20246084611464A0042D066
S31508000280C30DDDB2C1F3C752AD1A202D35DAC1F35D
S31508000290160141F4000204B15242C5F1200602FAE1
S315080002A006F12A411044B3EBD05F23D0C4B1012D27
S315080002B0A0EBC35009DCF0BC4FF0004202EAC3527F
S315080002C0DBB200F5000000F0BABB400000F1807018
S315080002D000EBC350A0F1807040EAD170490009E0F4
S315080002E0490841EAC071A0EBC35000F50000400878
S315080002F000EBC350F0BC00F099BB6142012202EB4F
S315080003004101001BF6E7F0BC704781F00041AAE7FF
S3150800031080F00040A7E780EA010210B502F000432A
S31508000320400022D04A001FD0010E01EB1261C0F333
S315080003305600C2F3560240F4000042F40002A0FB45
S31508000340022000047F39140400D0401C50EA1240F1
S3150800035001D44000491EC2B20C0604EBD010401C62
S315080003604008802A02D003E0002010BD20F00100DA
S31508000370002900DA0020184310BD30B480EA0102D3
S3150800038002F0004530F0004221F0004013D090B151
S31508000390C30DD40DC2F31601C0F31600E41A41F4D6
S315080003A0000140F400027D34914201D3641C00E050
S315080003B04900002C02DA30BC002070474FF40000D8
S315080003C00023914201D3891A034340084FEA4101A9
S315080003D0F7D151B1914202D14FF0004105E002D266
S315080003E04FF0010101E06FF0010103EBC45028440E
S315080003F030BC00F01BBB420005D0C0F3C7525242C6
S31508000400914201DC0020704700EBC15070472DE98E
S31508000410FE4F804681EA0300C00F0C46009021F08B
S31508000420004123F00045B8EB0200A94105D2404639
S31508000430214690461C460B46024623F000401043D0
S3150800044047D0270DC7F30A00C3F30A510290401A92
S31508000450019040286BDAC3F3130040F4801B009820
S31508000460924620B10023D2EB030A63EB0B0B0198EB
S315080004705946C0F14002504600F06FFA06460D464E
S3150800048050465946019A00F087FA10EB0800614178
S31508000490002487EA115284EAE7731A4340D0009A87
S315080004A062B3019A012A4FEA075215DC001B61EB79
S315080004B002014FF0004202EA0752CDE90042001C51
S315080004C041F5801132462B4600F0F6FA03B0BDE836
S315080004D0F08F40462146F9E7001B61EB0201001C3C
S315080004E041F5801300185B412018A2F5001747EB69
S315080004F0030140EAD570B6196D4111E06D084FEA5F
S31508000500360645EAC0754FEA0752001B61EB020141
S31508000510001C41F5801149084FEA30000019514185
S3150800052032462B4603B0BDE8F04F00F0B6BA009845
S31508000530012240000023D0EB020263EBE07300982F
S3150800054021464FEAE074B8EB000061EB0401E9E7E5
S3150800055083F000435BE781F0004158E72DE9FE4F41
S3150800056081EA030404F0004421F0004100944FF0AE
S31508000570000B23F0004350EA01045ED052EA03045C
S315080005805BD0C3F30A54C1F30A552C44A4F2F334DE
S315080005900194A0FB0254C1F3130141F48011C3F383
S315080005A0130343F4801301FB024400FB034E840A41
S315080005B0970A44EA815447EA8357A4FB07680295D9
S315080005C08D0A05FB07854FEA932C04FB0C54270577
S315080005D0029D4FEA065847EA1637B5EB08056EEB53
S315080005E0070C870E920E47EA811742EA8312A7FB89
S315080005F00201B6EB0B0164EB00042B0D43EA0C3346
S315080006005E1844EB1C50DA465146E7FB0201C5F377
S3150800061013044FEA0B3343EA14534FEA0432019C9E
S3150800062043EA0603A4F10C040294009CCDE900B445
S3150800063000F042FA03B0BDE8F08F00200146F9E762
S315080006402DE9F04D81EA030404F0004B21F0004542
S3150800065014464FF0000A23F0004150EA050220D064
S3150800066054EA01021DD0C5F30A570246C5F313031F
S31508000670C1F31300C1F30A5640F4801543F48013FE
S31508000680A7EB0608101BD64608F2FD3873EB0500E3
S3150800069002D308F1010801E092185B41B8F1000F96
S315080006A003DA00200146BDE8F08D00204FF48011E2
S315080006B0064684460EE0171B73EB050705D3121B87
S315080006C063EB050306434CEA010C49084FEA300080
S315080006D092185B4150EA0107EDD152EA030012D0A5
S315080006E082EA040083EA0501084305D0101BAB41E2
S315080006F006D20122002306E000224FF0004302E062
S315080007006FF0010253101AEB06004CEB085110EB80
S315080007100A0041EB0B01BDE8F04D00F0BEB970B51B
S3150800072021F0004303430CD0C1F30A550024D5EB4E
S31508000730040564EB0403D617AD1AB34102DB0020A7
S31508000740014670BD201841EB025170BDC10F80EA09
S31508000750E0700844CA079623002100F070B9962372
S315080007600022114600F06BB90EB540F233410291F2
S315080007700021CDE900110A460B4600F09DF903B0A9
S3150800078000BD00F0004220F00040C10DC0F3160085
S3150800079040F400007F2901DA00207047962903DC1F
S315080007A0C1F19601C84001E096398840002AF4D084
S315080007B04042704720F00040C10DC0F3160040F4D7
S315080007C000007F2901DA00207047962903DCC1F171
S315080007D09601C8407047963988407047C1F30A5257
S315080007E010B5C1F3130140F2FF3341F480119A4268
S315080007F001DA002010BD40F233439A42A2F2334296
S3150800080003DC524200F0B8F810BD904010BD00F06D
S31508000810004230F000400AD0C10D01F56071C0F306
S31508000820160042EA0151C2084007114370470020EA
S315080008300146704730B5041E71F1000404DB4FF021
S315080008400044404264EB0101141E73F1000405DB09
S315080008501C464FF00043524263EB04038B4208BF29
S31508000860824230BD30B5041E71F1000404DB4FF03E
S315080008700044404264EB0101141E73F1000405DBD9
S315080008801C464FF00043524263EB0403994208BFEB
S31508000890904230BD01F0004330B421F0004150EAE7
S315080008A0010206D00A0DA2F56072C1F31301002AEF
S315080008B002DC30BC00207047440F44EAC104C10082
S315080008C0E01830BC00EBC25000F0B0B830B50B46AB
S315080008D0014600202022012409E021FA02F59D4262
S315080008E005D303FA02F5491B04FA02F52844151E36
S315080008F0A2F10102F1DC30BD2DE9F05F05460020CA
S3150800090092469B4688460646814640241BE0284672
S3150800091041464746224600F02FF853465A46C01A23
S31508000920914110D311461846224600F016F82D1AA2
S3150800093067EB01084F4622460120002100F00DF81A
S3150800094017EB00094E41201EA4F10104DFDC4846DE
S3150800095031462A464346BDE8F09F202A04DB203A62
S3150800096000FA02F1002070479140C2F1200320FAF4
S3150800097003F3194390407047202A04DB203A21FAF2
S3150800098002F00021704721FA02F3D040C2F120029A
S315080009909140084319467047202A06DBCB17203AB0
S315080009A041FA02F043EAE07306E041FA02F3D04066
S315080009B0C2F1200291400843194670472DE9F047D5
S315080009C091460F4680460446002614F8015B2DB171
S315080009D000F03CF90068405DC007F6D12B2D02D027
S315080009E02D2D18D0641E4A463946204600F032F9A5
S315080009F027B13968A14201D1C7F8008071054FF0C7
S31508000A0002040BD54042002803DD04F093FB046082
S31508000A10A007BDE8F08746F48066E4E70028F8DA20
S31508000A2004F088FB04606FF00040F2E70029A8BFD5
S31508000A307047401C490008BF20F00100704710B4F9
S31508000A40B0FA80FC00FA0CF050EA010404BF10BCAE
S31508000A50704749B1CCF1200421FA04F411FA0CF1DB
S31508000A6018BF012121430843A3EB0C01CB1D4FEA14
S31508000A7000614FEA102042BF002010BC704700EB0F
S31508000A80C35010440029A4BF10BC7047401C49003D
S31508000A9008BF20F0010010BC704710B5141E73F192
S31508000AA0000408DA401C41F1000192185B411A4320
S31508000AB001D120F0010010BD2DE9F04D92469B466C
S31508000AC011B1B1FA81F202E0B0FA80F22032904612
S31508000AD0FFF743FF04460F4640EA0A0041EA0B01C6
S31508000AE053465A46084313D0114653EA010019D013
S31508000AF0C8F140025046FFF73FFF05460E465046EE
S31508000B0059464246FFF729FF084305D0012004E06D
S31508000B1020463946BDE8F08D0020054346EAE076D2
S31508000B202C4337430A986305E40AA0EB0800002221
S31508000B30FD0A44EA47540A3002D500200146E9E78F
S31508000B40010510196941DDE9084500196941BDE843
S31508000B50F04DA2E72DE9F04D00231A461B1A8A41EB
S31508000B6003DB00200146BDE8F08DC1F30A52C1F34C
S31508000B70130141F480154FF0000BD10702D100187C
S31508000B806D41521E0027044640F2FF11384601EB1C
S31508000B90620A3E468046024600204FF48011FFF75F
S31508000BA0EBFEC2197141BB1846EB0100B4EB030C0E
S31508000BB075EB000C04D3E41A65EB000517460E46E0
S31508000BC0241908F101006D4180463428E3DDF9193E
S31508000BD046EB0600091BA84103D24FF0FF32134625
S31508000BE001E0002213461BEB070046EB0A51BDE85D
S31508000BF0F04DFFF752BFC1F30A52C1F3130140F299
S31508000C00FF3341F480119A4202DA00200146704708
S31508000C1040F233439A42A2F2334202DC5242FFF7D1
S31508000C20ABBEFFF79ABE0000064C074D06E0E0682B
S31508000C3040F0010394E8070098471034AC42F6D315
S31508000C40FFF77AFA60820008808200080048704739
S31508000C50E08100082DE9F05F8246007800271546F6
S31508000C608B460AF10104B946302801D09DB113E03C
S31508000C7014F8010B0127782803D0582801D045B16C
S31508000C800AE00DB1102D07D10027102514F8010B25
S31508000C9002E0082500E00A250026B0460EE005FB1E
S31508000CA0080005FB06F1012701EB10461FFA80F83C
S31508000CB0B6F5803F00D3B94614F8010B294600F073
S31508000CC018F80028EBDABBF1000F05D00FB1641E47
S31508000CD000E05446CBF80040B9F1000F06D004F006
S31508000CE029FA02210160C81EBDE8F09F48EA0640BD
S31508000CF0FAE73A2800D2303820F02002412A01D3F8
S31508000D00A2F13700884201D34FF0FF307047000048
S31508000D102DE9F0410746884600F02AF9702000F0D0
S31508000D20ABF900F07DF9AC2000F0A6F900F078F9EF
S31508000D30332000F0A1F900F073F9002000F09CF9C7
S31508000D4000F06EF900F036F9502004F081FE00F04C
S31508000D500FF9712000F090F900F062F900F096F8AA
S31508000D60354C2070002000F0DFF82078000701D409
S31508000D7000F06EF8207800065AD400242E4D6D1C1B
S31508000D8000F084F82855042C4ED0002000F0CCF84A
S31508000D90641CE4B2052CF3D300F00CF928786978C2
S31508000DA0000340EA0111A87841EA10110007EA7821
S31508000DB0000B40EA0224287904430846FFF7D4FCCE
S31508000DC000221E4BFFF7CAFB6FF009052A46FFF7FC
S31508000DD0A6FC2A46FFF7A3FC194E00223346FFF766
S31508000DE016FBFFF757FD38602046FFF7BDFC0022CB
S31508000DF0144BFFF7B3FB2A46FFF791FC2A46FFF789
S31508000E008EFC00223346FFF702FB00220E4BFFF74B
S31508000E1017FC00220D4BFFF79BFBFFF73BFDC8F8BD
S31508000E2000000020BDE8F081012000F07DF8AFE762
S31508000E3000F0C0F80120F5E7000000200000594046
S31508000E400000E03F00409F40000024400000494069
S31508000E5010B500F08DF8702000F00EF900F0E0F8FB
S31508000E60E12000F009F900F0DBF8082000F004F9A9
S31508000E7000F0D6F8002000F0FFF800F0D1F800F0F6
S31508000E8099F8BDE81040282004F0E2BD2DE9F041AC
S31508000E9000240025134E4FF480684FF40077002095
S31508000EA000F022F83946304600F0C5FE022004F06C
S31508000EB0E9FD6006040E4146304600F0B3FE0128FF
S31508000EC001D144F001043946304600F0B2FE022052
S31508000ED004F0D8FD6D1CEDB2082DE0D32046BDE820
S31508000EE0F08100000020014008B50E4A4FF48061E9
S31508000EF000280CD0ADF8001003208DF80200102051
S31508000F008DF803006946104600F00AFE08BDADF8E4
S31508000F10001048208DF803006946104600F000FED0
S31508000F2008BD00000020014070B504460120FFF707
S31508000F30DBFF0E4D4FF480611CB1284600F07BFEA6
S31508000F4002E0284600F075FE4FF400742146284654
S31508000F5000F071FE022004F095FD2146284600F0B7
S31508000F6068FEBDE87040022004F08CBD00200140F8
S31508000F7070B50120FFF7B8FF0D4D4FF400742146F8
S31508000F80284600F058FE66003146284600F053FE13
S31508000F90052004F077FD3146284600F04AFE052074
S31508000FA004F070FD21462846BDE8704000F041BEB9
S31508000FB00020014070B50120FFF796FF0C4D4FF455
S31508000FC080642146284600F034FE052004F05AFDC8
S31508000FD06110284600F02FFE052004F053FD214637
S31508000FE0284600F028FEBDE87040052004F04ABDFA
S31508000FF00020014008B50121202002F015FA4FF41F
S31508001000C060ADF8000003208DF8020010208DF8AE
S3150800101003006946014800F083FD08BD0020014031
S315080010202DE9F04100240020FFF75EFF114D4FF433
S3150800103000763146284600F0FEFD022004F022FD27
S315080010402F1508E0641CE4B2FA2C04D9FFF7B2FFA6
S315080010500120BDE8F0813946284600F0E3FD002866
S31508001060F0D13146284600F0E4FD022004F00AFDDE
S315080010700020EEE7002001402DE9F0418046184E99
S315080010804FF400752946304600F0D3FD022004F0DF
S31508001090F9FC00246F000120FFF726FF08FA04F088
S315080010A0000604D53946304600F0C5FD03E039464A
S315080010B0304600F0BEFD2946304600F0BCFD022051
S315080010C004F0E0FC2946304600F0B3FD022004F0A7
S315080010D0D9FC641CE4B2082CDDD3BDE8F08100001D
S315080010E00020014008B50121082002F09DF90121E0
S315080010F0084602F099F90121094800F065FD10201B
S315080011008DF803000001ADF8000003208DF80200F9
S315080011106946044800F004FD012000F005F808BD02
S3150800112000023000000C014010B5044684F00102AC
S315080011304FF48071024800F080FD0248047010BD2B
S31508001140000C014007000020FEE700002DE9F043EF
S315080011508146884615461E4600240B4F04EB0411AB
S3150800116017F81100A84209D107EB41014878B042A7
S3150800117004D1891C4246484600F02AF8641CA4B2E9
S31508001180382CEBD3BDE8F0838C7500082DE9F043C5
S315080011908146884615461E4600240C4F04EB8400FB
S315080011A000EB441017F81010A94209D107EB4001CB
S315080011B04878B04204D1891C4246484600F008F8EF
S315080011C0641CA4B2092CE9D3BDE8F083727E00083A
S315080011D010B5002304E011F8014B00F8014B5B1C25
S315080011E09342F8D310BD7047F0B585B014461D4636
S315080011F00A4B1A88121A92B25B885B1A9BB2084F7E
S315080012004FF0100C00263F88CDE9005CCDE9037647
S31508001210029400F01AFC05B0F0BD0000980000200A
S315080012200A00002010B580210348FEF7B8FF0349DD
S315080012300020088010BD0000A610002062000020D3
S3150800124010B5044600F076F960B90BA10C48FEF714
S31508001250BDFF38B13A21FEF7CBFF08B1401C10BDDF
S31508001260002010BD052004F0F3FB641EA4B2002C78
S31508001270E8D1002010BD00004950442C00000000B1
S31508001280A610002038B50121042002F0CDF8102060
S315080012908DF803008402ADF8004003208DF80200A3
S315080012A03B4D6946284600F03BFC0022214628466D
S315080012B000F0C3FCFA2004F0CBFB012221462846A5
S315080012C000F0BBFC4FF4FA74204604F0C1FBFFF7AC
S315080012D0A9FF324D2FA1284603F05FFD02E0204604
S315080012E004F0B6FB2EA12FA000F0DAF80028F6D1FC
S315080012F02EA1284603F051FD2BA12FA000F0D0F80F
S31508001300204604F0A5FB28A12EA000F0C9F8204627
S3150800131004F09EFB2FA1284603F03FFD02E020467D
S3150800132004F096FB1EA12EA000F0BAF80028F6D10C
S315080013302FA1284603F031FD02E0204604F088FB81
S3150800134017A12FA000F0ACF80028F6D130A1284646
S3150800135003F023FD02E0204604F07AFB2FA131A01A
S3150800136000F09EF80028F6D136A1284603F015FDB0
S3150800137002E0204604F06CFB36A138A000F090F895
S315080013800028F6D140A1284603F007FD38BD000025
S3150800139000100140302E2041540D0A00003801404B
S315080013A04F4B000041540D0A00000000312E205218
S315080013B053540D0A0000000041542B5253540D0A91
S315080013C00000000041542B434950434C4F53450DF0
S315080013D00A000000322E2043574D4F44450D0A009F
S315080013E041542B43574D4F44453D310D0A000000EB
S315080013F0332E2041542B4357444843500D0A0000CE
S3150800140041542B4357444843503D312C310D0A0073
S31508001410342E2043574A41500D0A0000474F5420A6
S315080014204950000041542B43574A41503D226465B8
S315080014306C65222C2264656C6568756232303232BE
S31508001440220D0A00352E2043495053544152540D5B
S315080014500A000000434F4E4E4543540041542B4367
S31508001460495053544152543D22544350222C223160
S3150800147038332E3233302E34302E3339222C363050
S3150800148030320D0A00000000362E204553503832FF
S31508001490363620496E6974204F4B0D0A000000004D
S315080014A070B506460D46C8243046FEF7ABFE82B236
S315080014B031460C4803F091FC0EE000F03BF840B9C9
S315080014C029460948FEF782FE18B1FFF7ABFE002051
S315080014D070BD0A2004F0BCFA641EE4B2EDD2012005
S315080014E070BD000000440040A610002030B589B049
S315080014F004460D46FFF796FE2A4608A101A803F002
S31508001500EBFD0AA101A8FFF7CBFF002804D12A4664
S315080015102146074803F061FC09B030BD41542B430E
S31508001520495053454E443D25640D0A003E000000CF
S315080015300044004007490888002805D04A88904298
S3150800154004D1002008807047012070474880012098
S3150800155070470000620000208000A0F1C04000290A
S3150800156004D0016841F00101016070470168024A30
S315080015701140016070470000FEFF0F0010B5D0E96A
S3150800158001121143D0E903231A4311434269114357
S3150800159082691143C2691143026A1143426A1143BF
S315080015A0826A1143C26A1143026B114302689200B0
S315080015B0A2F1C04211608168082907D10168890033
S315080015C0A1F1C0410A6842F040020A60416BD1E9C4
S315080015D0002342EA03128B688C891B0243EA044300
S315080015E01A430B8A42EA03520B7D896942EA03626F
S315080015F00A430168491C8900A1F1C0410A60C16A11
S31508001600B1F5804F08D000686FF070418000A0F1F6
S31508001610C040C0F8041110BD816BD1E9002342EA2D
S3150800162003128B680C8A1B0243EA04531A430B7D88
S31508001630896942EA036200680A438000A0F1C04053
S31508001640C0F8042110BD00002DE9F04105460C46FE
S315080016501646DFF858804FF400673946404600F0D2
S31508001660EAFA052000F050FA032000F021F8C4F346
S31508001670074000F01DF8C4F3072000F019F8E0B29F
S3150800168000F016F8002405E0FF2000F011F82855B0
S31508001690641CA4B2B442F7D33946404600F0C9FAEE
S315080016A0BDE8F041052000F02FBA0000001C0140FB
S315080016B02DE9F04705460024DFF85490154F4FF4FE
S315080016C00078280604D54146484600F0B4FA03E0F7
S315080016D04146484600F0ADFA0221384600F0A9FA1C
S315080016E06806060E0421384600F09CFA40EA06050C
S315080016F00221384600F09FFA641CE4B2082CE0D3B5
S315080017000221384600F097FA2846BDE8F08700001F
S31508001710001C0140000C014030B4044610460D463A
S315080017201A46217820281DD009DC0C2812D010284A
S3150800173014D018281ED1104801FB020106E03028F3
S3150800174014D0402816D10D4801FB0201284630BCAA
S31508001750FFF77ABF514301F50021F7E7084801FB77
S315080017600201F3E7074801FB0201EFE7064801FB20
S315080017700201EBE730BC704700120800009208002F
S3150800178000080800002608000048080030B405468E
S3150800179008462C786978812C0AD3402908D3FF2972
S315080017A006D0FF2C04D07F290DD24039CDB20CE0EB
S315080017B00021002203E000F8012B491C89B2994256
S315080017C0F9D330BC70474139CDB2813CE1B2C1EBA7
S315080017D0411404EB811105EB410159430C2A0BD046
S315080017E0102A0CD0182A0DD0202AEAD101F560114A
S315080017F030BC1A46FFF728BF044A1144F8E7044AE2
S315080018001144F5E701F5ED11F2E7000000140900AF
S3150800181000DD1100F8B50121882001F005FE02203F
S31508001820ADF8000010258DF8035003248DF802400A
S31508001830104E6946304600F073F90421ADF80010E1
S3150800184048218DF803106946304600F069F94FF4CF
S315080018502061ADF800108DF803508DF802406946F6
S31508001860054800F05DF90221304600F0E4F900F081
S3150800187005F8F8BD000C0140001C014070B586B0A3
S315080018804FF6FF7000F0CEFA002000246D462C5467
S31508001890401CC0B21828FAD3112200216846FFF767
S315080018A0D3FE4FF4784610216B4632460846FFF7BA
S315080018B09BFC00202C54401CC0B21828FAD30822DE
S315080018C014216846FFF7C0FE6B46324620211020D9
S315080018D0FFF78AFC00202C54401CC0B21828FAD303
S315080018E008221E216846FFF7AFFE6B4632463021B6
S315080018F01020FFF779FCC82004F0AAF806B070BDDE
S315080019002DE9F04FC1B082460D4616461C46A9463B
S31508001910600701D0012000E0002000EBD40B60082E
S315080019200BFB00FB0C2C09D0102C07D0182C05D06B
S31508001930202C03D0302C01D0402C33D15B462246D4
S3150800194001A93046FFF7E8FE4FF0000828E001A895
S3150800195010F808700026380605D5294650464A9AD2
S3150800196000F080FB06E04C9820B9294650464B9A71
S3150800197000F078FB7806070E6D1CADB2A5EB0900E2
S31508001980A04205D14D460AF1010A1FFA8AFA03E078
S31508001990761CB6B2082EDED308F101081FFA88F8BD
S315080019A0D845D4D341B0BDE8F08F2DE9F04FA1B0AA
S315080019B082460C4615461F46A146780701D00120E7
S315080019C000E0002000EBD70B0BFB07FB0C2F05D024
S315080019D0102F03D0182F01D0202F33D15B463A465B
S315080019E001A92846FFF7D2FE4FF0000828E001A813
S315080019F010F808600025300605D5214650462A9A73
S31508001A0000F030FB06E02C9820B9214650462B9A68
S31508001A1000F028FB7006060E641CA4B2A4EB0900AD
S31508001A20B84205D14C460AF1010A1FFA8AFA03E0C0
S31508001A306D1CEDB2082DDED308F1010808F0FF0889
S31508001A40D845D4D321B0BDE8F08F2DE9FF4F83B038
S31508001A500446DDE910750E469346A046B2464FF099
S31508001A60000920E0B9F1000F23D04FF0000908EB78
S31508001A700B00401BA04202DA701986B2444606984B
S31508001A805044401BB04211DBDDE912121498CDE92F
S31508001A90001202902B463A4631462046FFF785FF4C
S31508001AA0BF1C601984B238780028DBD107B0BDE8BE
S31508001AB0F08F802802D94FF00109F4E708EB0B01F3
S31508001AC0A1EB5501A14202DA71198EB24446069974
S31508001AD05144491BB142E9DB0D2810D0DDE9121249
S31508001AE01498CDE9001202902B463A463146204614
S31508001AF0FFF706FF7F1C04EB550084B2D3E7701985
S31508001B0086B244467F1CF5E7002206E00021491C00
S31508001B10C9B26429FBD3521CD2B28242F6D37047AB
S31508001B202DE9F0410022CC7804F00F03E40601D534
S31508001B308C7823430C784FF00F0714F0FF0F4FF003
S31508001B40010C1CD005680CFA02F40E882640A64241
S31508001B5011D1960007FA06F825EA080503FA06F8E9
S31508001B6048EA0505CE78282E02D0482E02D002E093
S31508001B70446100E00461521C082AE4D305600A881F
S31508001B80FF2A1ED94568002202F108060CFA06F457
S31508001B900E882640A64210D1960007FA06F825EACE
S31508001BA0080503FA06F848EA0505CE78282E00D176
S31508001BB04461CE78482E00D10461521C082AE3D32A
S31508001BC04560BDE8F0810000F0B5154C002801DA43
S31508001BD0E36900E06368C0F30346420D120185B26B
S31508001BE0C0F301579540032F07D0C2020CD5032234
S31508001BF0B240934343F0706209E023F07062636871
S31508001C0023F07063636002E0AB4343F0706201B196
S31508001C102A43002801DAE261F0BD6260F0BD0000E7
S31508001C20000001400246002092680A4200D00120C6
S31508001C3070474161704701617047002A01D0016110
S31508001C40704741617047FEE710B503F0E3FE4FF4B5
S31508001C50A06001F04FF94FF4E134204602F0E8FEA7
S31508001C60204602F069FF1FA003F026FA22A003F01F
S31508001C7023FA00F08FFD25A003F01EFAFFF732FACB
S31508001C8027A003F019FA00F0AFF82AA003F014FA17
S31508001C9000F00EFA2CA003F00FFAFFF7ABF92FA00D
S31508001CA003F00AFA48F69F4140F2CF7001F02AFF86
S31508001CB032A003F001FA03F0CDF836A003F0FCF9E0
S31508001CC03A494FF478400880FFF7A4FD38A003F09E
S31508001CD0F3F93E4800688047BDE810403CA003F091
S31508001CE0EBB90000B4AEBFDA31C5E4D6C3090909B9
S31508001CF05B4F4B5D200D0A00B4AEBFDA32C5E4D6A1
S31508001D00C30909095B4F4B5D200D0A004C45445F2A
S31508001D10496E69740909095B4F4B5D200D0A00007D
S31508001D20426565705F496E69740909095B4F4B5DC9
S31508001D30200D0A004B45595F496E69740909095B0C
S31508001D404F4B5D200D0A00004C43445F496E697491
S31508001D500909095B4F4B5D200D0A00004148545F95
S31508001D604932435F55736572436F6E666967090941
S31508001D70095B4F4B5D200D0A0000000054494D31A8
S31508001D805F496E745F496E69740909095B4F4B5D5B
S31508001D90200D0A00573235515858B3F5CABCBBAFA7
S31508001DA00909095B4F4B5D200D0A00000800002059
S31508001DB0D3B2BCFE47424BD7D6BFE2B3F5CABCBBCB
S31508001DC0AF0909095B4F4B5D200D0A00140000207E
S31508001DD0B4A5C3FEC6C1B3F5CABCBBAF0909095B46
S31508001DE04F4B5D200D0A000008B50121442001F083
S31508001DF01BFB1820ADF8000048208DF80300694643
S31508001E000648FFF78DFE0120ADF8000028208DF862
S31508001E10030069460248FFF783FE08BD0018014023
S31508001E2000080140F0B5054600240B4F002108467E
S31508001E307B883A8800F088FB3E88788846430021EC
S31508001E40084600F061FB00F093FC044901E00D80B0
S31508001E50641CB442FBD3F0BD980000200008006C57
S31508001E60F0B400271E49F0222C242A252B264FF4ED
S31508001E70A073002811D0012817D04FF0010C0228B2
S31508001E801BD0032822D08F710A804B800C814D818C
S31508001E908E810020F0BC00F0E7BA8F710A804B8073
S31508001EA00C814D818E810020F4E78F710A804B806A
S31508001EB00C814D818E810320ECE781F806C00B80EA
S31508001EC04A800C814D818E810520E3E781F806C0A2
S31508001ED00B804A800C814D818E810620DAE700004E
S31508001EE0980000202DE9FE4F00250026171AA3EBBF
S31508001EF0010881468A46681E002F03DD4FF001015E
S31508001F00019107E003D14FF00001019102E0019031
S31508001F10C7F10007B8F1000F03DD4FF0010000908C
S31508001F2007E003D14FF00000009002E00090C8F1EE
S31508001F300008474501DD3C4600E044464FF0000BEB
S31508001F40601C029016E01FFA8AF11FFA89F00C9AB3
S31508001F5000F088F83D444644A54202DD2D1B019851
S31508001F608144A64202DD361B009882440BF1010B20
S31508001F701FFA8BFB02988345E5DDBDE8FE8F00005E
S31508001F8000B500F0C1FA00F0F3FB024802490088E8
S31508001F90088000BD080000200008006C2DE9FF4FEE
S31508001FA082B007468846002415460320A0EB420661
S31508001FB053E0A8EB050081B207EB040A01901FFA6B
S31508001FC08AF0059A00F04EF8A8EB0400009081B25A
S31508001FD007EB05091FFA89F0059A00F043F808EBA4
S31508001FE0040B1FFA8BF11FFA89F0059A00F03AF8EC
S31508001FF008EB05091FFA89F11FFA8AF0059A00F01D
S3150800200031F81FFA89F1A7EB04091FFA89F0059A36
S3150800201000F028F8A7EB050A1FFA8BF11FFA8AF0D9
S31508002020059A00F01FF80198059A81B21FFA89F0FF
S3150800203000F018F80098059A81B21FFA8AF000F0A5
S3150800204011F8641C002E03DA06EB8406B61D04E0BC
S31508002050601B06EB80060A366D1EAC42A9DD06B08B
S31508002060BDE8F08F30B504460D460F4B9888A0F5AD
S315080020701341413916D1588900F074FB200A00F043
S315080020806BFBE0B200F068FB988900F06BFB280A4E
S3150800209000F062FBE8B200F05FFB0449188908808B
S315080020A0881C028030BD000098000020FE07006CE6
S315080020B0F0B59FB00121080201F09AF901214FF409
S315080020C0B47001F0B1F90125ADF8785010278DF8F4
S315080020D07B7003248DF87A401EA9CF48FFF720FDB0
S315080020E04CF23370ADF8780018268DF87B608DF8C1
S315080020F07A401EA9C948FFF713FD4FF68070ADF860
S3150800210078008DF87B608DF87A401EA9C448FFF7E1
S3150800211007FD41F20100ADF878008DF87B608DF877
S315080021207A401EA9BF48FFF7FBFC089500200990D6
S315080021300F210A910B900C900D900E900190029031
S315080021400394049005900690079006210F9110902D
S3150800215011901297139015901490169017902903C2
S315080021601891199089001A911B9008A81C9001A82B
S315080021701D900FA8FFF702FA01210620FFF7ECF9D8
S31508002180322003F065FC002000F064F9A64A90802E
S315080021904FF6FF7449F24136FF2804D3A04202D015
S315080021A0B0F5134F14D1D32000F0DCFA00F048F94B
S315080021B0908000F045F9908000F042F904EA00208A
S315080021C0908000F03DF9918808439080B0427CD118
S315080021D09088B0427AD1CF2000F0C4FA002000F0EF
S315080021E0BBFAC12000F0B8FA302000F0B5FAED20AD
S315080021F000F0B8FA642000F0AFFA032000F0ACFA59
S31508002200122000F0A9FA812000F0A6FAE82000F0D2
S31508002210A9FA852000F0A0FA102000F09DFA7A208D
S3150800222000F09AFACB2000F09DFA392000F094FAD3
S315080022302C2000F091FA002000F08EFA342000F0ED
S315080022408BFA022000F088FAF72000F08BFA20209B
S3150800225000F082FAEA2000F085FA002000F07CFA05
S31508002260002000F079FAC02000F07CFA1B2000F06C
S3150800227073FAC12000F076FA012000F06DFAC52045
S3150800228000F070FA302000F067FA302000F064FAA7
S31508002290C72000F067FAB72000F05EFA362000F093
S315080022A061FA482000F058FA3A2000F05BFA552007
S315080022B000F052FAB12000F055FA002000F04CFA6E
S315080022C01A2000F049FAB62001E0A3E09AE000F0EF
S315080022D049FA0A2000F040FAA22000F03DFAF2205E
S315080022E000F040FA002000F037FA262000F03AFA0B
S315080022F0012000F031FAE02000F034FA0F2000F057
S315080023002BFA2A2000F028FA282000F025FA0820BF
S3150800231000F022FA0E2000F01FFA082000F01CFA3E
S31508002320542000F019FAA92000F016FA432000F00C
S3150800233013FA0A2000F010FA0F2000F00DFA002018
S3150800234000F00AFA002000F007FA002000F004FA6C
S31508002350002000F001FAE12000F004FA002000F065
S31508002360FBF9152000F0F8F9172000F0F5F9072019
S3150800237000F0F2F9112000F0EFF9062000F0ECF970
S315080023802B2000F0E9F9562000F0E6F93C2000F091
S31508002390E3F9052000F0E0F9102000F0DDF90F2040
S315080023A000F0DAF93F2000F0D7F93F2000F0D4F921
S315080023B00F2000F0D1F92B2000F0D4F9002000F00E
S315080023C0CBF9002000F0C8F9012000F0C5F93F203C
S315080023D000F0C2F92A2000F0C5F9002000F0BCF987
S315080023E0002000F0B9F9002000F0B6F9EF2000F05F
S315080023F0B3F9112000F0B6F9782003F029FB29205B
S3150800240000F0B0F90020FFF72BFD084805602046CC
S31508002410FFF708FD1FB0F0BD000C01400014014095
S3150800242000180140002001409800002080812142C8
S315080024300346012000E05843491EC9B2FBD2704743
S3150800244008B5034800880090BDF8000008BD0000E4
S315080024500008006C10B500F085F9052003F012FBA2
S31508002460BDE81040FFF7ECBF10B50021254B9A8850
S31508002470A2F51344413C43D1082812D2DFE800F004
S31508002480110406080A0C0E1080210AE0402108E013
S31508002490C02106E0202104E0602102E0A02100E03E
S315080024A0E02141F00801362000F06CF9588900F067
S315080024B059F9002000F050F9002000F04DF918886D
S315080024C0401EC0F30F2000F047F91878401EC0B22E
S315080024D000F042F9988900F045F9002000F03CF92F
S315080024E0002000F039F95888401EC0F30F2000F08C
S315080024F033F99878BDE81040401EC0B200F02CB9F8
S3150800250010BD00009800002010B502460B460D4C81
S31508002510A088A0F51341413913D1608900F022F94A
S31508002520100A00F019F9D0B200F016F9A08900F0E7
S3150800253019F9180A00F010F9BDE81040D8B200F0F1
S315080025400BB910BD9800002070B504460D46A018BA
S31508002550401E82B2E818401E83B2134EB088A0F51A
S31508002560134141391FD1708900F0FCF8200A00F0A8
S31508002570F3F8E0B200F0F0F8100A00F0EDF8D0B287
S3150800258000F0EAF8B08900F0EDF8280A00F0E4F85F
S31508002590E8B200F0E1F8180A00F0DEF8BDE870408D
S315080025A0D8B200F0D9B870BD980000202DE9F84FD0
S315080025B082460C461F46A346780701D0012000E054
S315080025C0002000EBD70079084843C0B20090203AB3
S315080025D002F0FF09002648E00C2F13D0102F18D060
S315080025E0182F45D1234909EBC90001EB8000855D09
S315080025F04FF00008280611D5214650460A9AFFF7DB
S3150800260031FD13E01C4909EB490001EB8000855DAB
S31508002610EEE71A4800EB0910855DE9E70B9828B93B
S315080026201748214642885046FFF71CFD6806050EE6
S31508002630641CA4B213484088A04219D9A4EB0B0025
S31508002640B84209D15C460AF1010A1FFA8AFA0D480E
S31508002650008850450CD906E008F1010808F0FF0883
S31508002660B8F1080FC6D3761CF6B200988642B3D3E3
S31508002670BDE8F88F30680008CC5D000840620008A5
S3150800268008000020980000202DE9FF4F82B0804600
S31508002690DDF8409093461D46002600240F98A24672
S315080026A047081FE0281B401EC1B20A20FFF7C0FEDC
S315080026B0BBFBF0F00A21B0FBF1F201FB120026B9D0
S315080026C0691E8C4201DA90B101263030C2B2CDE9DA
S315080026D0009A07FB048080B20F9B0399FFF766FFF9
S315080026E0641CE4B2AC42DDD306B0BDE8F08FCDE998
S315080026F0009A07FB048080B220220F9B0399FFF7FC
S3150800270055FFEDE72DE9FC4F0446DDE90B7B0D9EF1
S315080027100D4604F0FF0810191FFA80F958191FFA18
S3150800272080FA12E04C4502D34446E81985B255456D
S3150800273010D20020CDE900B03B4629462046FFF7D7
S3150800274035FF04EB570084B2761C3278A2F12000DC
S315080027505E28E7D9BDE8FC8F01490880704700006C
S315080027600008006C0149088070470000FE07006CED
S315080027700248034900890880704700009800002035
S31508002780FE07006C024A1080901C0180704700000A
S31508002790FE07006C38B50121482000F045FE2024CC
S315080027A0ADF8004010208DF8030003208DF80200D4
S315080027B00A4D69462846FFF7B3F920212846FFF750
S315080027C03AFAADF80040064C69462046FFF7A8F9E4
S315080027D020212046FFF72FFA38BD0000000C0140E3
S315080027E00018014010B50446207B012802D1206854
S315080027F003F06EF9002020606060A060207310BDB1
S31508002800012200F07F030B70C00948B143F0800332
S3150800281001F8013B521C042AF3DD4FF0FF307047E4
S31508002820104670472DE9F04104460F4600252068FA
S315080028300026002802D00220207315E0012020730C
S31508002840384603F067FA2060002808D06660A7605B
S3150800285002E0206846556D1CA068A842F9D8BDE874
S31508002860F081206846556D1CA068A842F9D86660B4
S31508002870A068B842F3D22660F1E700002DE9FF47C9
S315080028808146884617464846FDF7BCFC84B2404652
S31508002890FDF7B8FC0026E01D03F03CFA054625B313
S315080028A0E11D2846FDF77BFC11A001682960808898
S315080028B0A880224649462846FDF7ABFC4046FDF768
S315080028C0A1FC0346002001AC0121009083C44246C6
S315080028D029460A2000F042F900B10126284603F0ED
S315080028E0F7F8304604B0BDE8F0870120FAE70000A3
S315080028F024637273702F00002DE9FF5F9246DDF89E
S3150800290038B0DDF84480139C994600255046FDF7FB
S3150800291079FC06B2BAF1000F20D006F1110087B291
S31508002920BBF1000F00D00225109868B145F00405E8
S315080029301098FDF767FC00F0FF0B4046FDF762FCB8
S3150800294058443844001D87B20F9870B1012807D043
S31508002950022808D0022004B0BDE8F09F0120FAE75B
S3150800296045F00C0501E045F01405129808B145F04C
S315080029702405009858B3019848B345F0C005009857
S31508002980FDF740FC83460198FDF73CFC5844384463
S31508002990001D87B239462046FFF744FF2068C0B1BC
S315080029A03946FDF7FCFB60681022411C616021680E
S315080029B00A54D4E900010144781FFFF721FF00B249
S315080029C0002808DA2046FFF70DFF0520C3E7032095
S315080029D0C1E70420BFE7616808440022411C616022
S315080029E021680A5460680421421C626022681154F6
S315080029F060684D23421C6260226813546068512344
S31508002A00421C62602268135460685422431C636047
S31508002A1023681A546068431C636023681A54606804
S31508002A20421C6260226811546068411C616021681A
S31508002A300D5460684FEA1922411C616021680A54E6
S31508002A406068411C6160216801F800906068320A7C
S31508002A50411C616021680A546068411C61602168F4
S31508002A600E54D4E90001084432465146FDF7D1FB1D
S31508002A70606830446060680736D5B8F1000F01D148
S31508002A800FF2D4081098FDF7BDFB86B26068320ACB
S31508002A90411C616021680A546068411C61602168B4
S31508002AA00E54D4E90001084432461099FDF7B1FBEB
S31508002AB06068304460604046FDF7A4FB86B26068F3
S31508002AC0320A411C616021680A546068411C6160D1
S31508002AD021680E54D4E90001084432464146FDF700
S31508002AE098FB606830446060280618D50098FDF7A2
S31508002AF089FB86B26068320A411C616021680A5403
S31508002B006068411C616021680E54D4E900010844DC
S31508002B1032460099FDF77DFB6068304460606806C0
S31508002B2018D50198FDF76EFB85B260682A0A411C24
S31508002B30616021680A546068411C616021680D540F
S31508002B40D4E9000108442A460199FDF762FB60684A
S31508002B50284460600020FEE6000000002DE9FF4FD3
S31508002B6081B08246119C0F9991469B460025002705
S31508002B700022BAF1000F08D1012005B0BDE8F08F98
S31508002B80232816D02B2814D06D1C0298405D0028E7
S31508002B90F6D142F0300809B148F0010805EB0B06FA
S31508002BA0B61C0E9870B1012805D0022807D003205C
S31508002BB0E3E70220E1E748F00208B61C02E048F025
S31508002BC00408B61CB9F1000F28D099F800000228AD
S31508002BD009D0711D2046FFF725FE2068E0B1711D5A
S31508002BE0FDF7DDFA23E0002738467F1C19F80000B8
S31508002BF07D28F9D13F1DABEB0700311A0091C91C9E
S31508002C002046FFF70FFE206820B10099C91CFDF782
S31508002C10C6FA0CE00420B0E70420AEE7711D204692
S31508002C20FFF700FE2068A8B1711DFDF7B8FA6068C5
S31508002C30411C6160216801F80080D4E90001014463
S31508002C403046FFF7DDFD002806DA2046FFF7CAFD05
S31508002C50052092E7042090E7616808442A0A411C87
S31508002C60616021680A546068411C616021680D54DE
S31508002C70D4E9000108442A460299FDF7CAFA6068B1
S31508002C80284460600E9959B1411C616021684FEA79
S31508002C901A220A546068411C6160216801F800A084
S31508002CA0B9F1000F0DD099F8000002280BD0D4E92D
S31508002CB0000108445A464946FDF758FA60685844E0
S31508002CC06060002059E7D4E9000108443A464946BD
S31508002CD0FDF74CFA606838446060F2E77FB50D4648
S31508002CE0089C1E4601200021CDE90204CDE9000119
S31508002CF00A46EB1C0CA10A20FFF730FF10B1012091
S31508002D0004B070BD6068411C616021680E5460683B
S31508002D102A0A411C616021680A546068411C616086
S31508002D2021680D540020EBE724647000F0B50446D2
S31508002D300123002010605D0512E0275C166807F085
S31508002D407F0707FB03661660265C360601D4401C1F
S31508002D50F0BDDB01AB4202D36FF00100F0BD401CB1
S31508002D608842EADB4FF0FF30F0BD2DE9F843804694
S31508002D700C4617461D462F2108F10600FDF738FABE
S31508002D800021009148B3461C6A46042108F1010057
S31508002D90FFF7CCFF252002F0BDFF2060F8B1252102
S31508002DA0FDF7FDF9242231462068FDF7DFF92436C0
S31508002DB000982C3880B22880401C02F0ABFF38609F
S31508002DC078B12988491CFDF7EAF92A883146386816
S31508002DD0FDF7CCF90020BDE8F8830120FBE70220C7
S31508002DE0F9E7206802F074FE0320F4E74178022927
S31508002DF001D001207047817819B1012901D0FF203F
S31508002E007047C07870474178022901D00120704781
S31508002E10817811B9C0780A2801D0012070470020AE
S31508002E207047000038B50446FF2120780009421E85
S31508002E300E2A01D3084638BD0328FCD1002000908D
S31508002E406A460421601CFFF771FF2044401C009964
S31508002E50022902D32278D20701D0FF2038BD427852
S31508002E60037842EA0322921C8A4201D9FF2038BD20
S31508002E7004A1801CFDF7AAF908B10F2038BD03206C
S31508002E8038BD00002463726571000000FEE77047D4
S31508002E9070B50F23C27801260178002A1ED0144A7D
S31508002EA0126802F4E062C2F5E062120AC2F1040492
S31508002EB0D3404578A54082781A402A43120101F189
S31508002EC0E02181F80024007800F01F018E404009B7
S31508002ED0800000F1E020C0F8006170BD01F01F001D
S31508002EE086404809800000F1E020C0F8806170BD86
S31508002EF00CED00E0024908430249086070470000EB
S31508002F000000FA050CED00E070B58AB000240694BE
S31508002F1007940894099401252FA0434E009031A3E5
S31508002F2033A235A1304601F038FF06A8CDE90440A2
S31508002F300294039400942B0227A22AA12CA00194A0
S31508002F40FFF7DAFC30B139A1304601F026FF0AB0A6
S31508002F50284670BD079881B20698FEF7C7FAFA2088
S31508002F60FEF76EF90446002C31D02046FFF75AFFCB
S31508002F7002282CD12046FFF739FF062823D2DFE89E
S31508002F8000F003090E13181D31A1304601F005FFA4
S31508002F9000251CE033A1304601F0FFFE17E038A1FA
S31508002FA0304601F0FAFE12E03EA1304601F0F5FE89
S31508002FB00DE044A1304601F0F0FE08E04AA1304693
S31508002FC001F0EBFE03E053A1304601F0E6FE06A849
S31508002FD0FFF708FCBBE7000038383533353835329B
S31508002FE038000000626F61726473746D33320000DA
S31508002FF034383735323600004F6E654E65745F4497
S3150800300065764C696E6B0D0A50524F49443A202535
S31508003010732C09415549463A2025732C09444556CF
S3150800302049443A25730D0A00003801405741524E6B
S315080030303A094D5154545F5061636B6574436F6E22
S315080030406E656374204661696C65640D0A0000004C
S31508003050546970733A09C1ACBDD3B3C9B9A60D0A90
S31508003060000000005741524E3A09C1ACBDD3CAA769
S31508003070B0DCA3BAD0ADD2E9B4EDCEF30D0A0000A8
S315080030805741524E3A09C1ACBDD3CAA7B0DCA3BA60
S31508003090B7C7B7A8B5C4636C69656E7469640D0A69
S315080030A0000000005741524E3A09C1ACBDD3CAA729
S315080030B0B0DCA3BAB7FECEF1C6F7CAA7B0DC0D0AD4
S315080030C0000000005741524E3A09C1ACBDD3CAA709
S315080030D0B0DCA3BAD3C3BBA7C3FBBBF2C3DCC2EB4A
S315080030E0B4EDCEF30D0A00005741524E3A09C1AC71
S315080030F0BDD3CAA7B0DCA3BAB7C7B7A8C1B4BDD3F6
S3150800310028B1C8C8E7746F6B656EB7C7B7A8290D2D
S315080031100A0000004552523A09C1ACBDD3CAA7B04D
S31508003120DCA3BACEB4D6AAB4EDCEF30D0A000000DD
S3150800313010B588B0044620216846FDF730F817A177
S315080031402046FDF77AF820216846FDF728F8144846
S315080031500068FDF75CFB02460B4612A1684601F0C3
S31508003160BBFF69462046FDF725F820216846FDF78E
S3150800317016F811480068FDF74AFB02460B460FA1F0
S31508003180684601F0A9FF69462046FDF713F8204670
S31508003190FDF738F808B0C0B210BD00002C3B00009F
S315080031A07000002054656D707265747572652C2503
S315080031B02E31663B000000007400002048756D69DA
S315080031C0646974792C252E31663B00002DE9F0439D
S315080031D08BB0804600250795089509950A950695AA
S315080031E005950495002600244046FFF71BFE074672
S315080031F0DFF8B890042F35D00F2F0DD0661EFEF7D6
S3150800320011F8761C4FD07D210698FCF7F1FF0028AF
S315080032103FD0401C01AB33E004AB06AA05A94046E3
S31508003220FFF7A3FD06463000E9D1BDF8100000906F
S31508003230DDE905231EA1484601F0AFFDDDE90501DC
S3150800324007AAFFF71BFB0028D9D122A1484601F09F
S31508003250A4FD089881B20798FEF748F907A8FFF772
S31508003260C1FACCE74046FFF7CEFD0028C7D11FA11B
S31508003270484601F092FDC2E72246641C9954401C58
S315080032800178A1F13002092AF6D91D5501A8FCF7E3
S31508003290DDFF0F2F01D0032F05D1059802F018FC8A
S315080032A0069802F015FC0BB0BDE8F0830038014023
S315080032B0636D6469643A2025732C207265713A201F
S315080032C025732C207265715F6C656E3A2025640D36
S315080032D00A000000546970733A0953656E64204306
S315080032E06D64526573700D0A0000000054697073AE
S315080032F03A094D515454205075626C6973682053CD
S31508003300656E64204F4B0D0A0000000070B5A6B02C
S31508003310002022902390249025900024234E1BA160
S31508003320304601F03AFD802102A8FCF738FF02A8D2
S31508003330FFF7FEFE054628000CD022A800900523BC
S31508003340002229461AA0FFF7C9FC28B11BA130465E
S3150800335001F023FD26B070BD02A807E0239B025D9D
S31508003360591C23912299CA54641C24B2AC42F5DB39
S31508003370239881B22298FEF7B9F818A13046239A05
S3150800338001F00BFD22A8FFF72DFAE3E754697073E5
S315080033903A094F6E654E65745F53656E6444617491
S315080033A0612D4D5154540D0A0000000000380140AB
S315080033B03838353335383532380000005741524EE3
S315080033C03A094544505F4E657742756666657220D0
S315080033D04661696C65640D0A0000000053656E64F9
S315080033E02025642042797465730D0A007047000031
S315080033F0054A002903D05169014351617047516953
S31508003400814351617047000000100240054A0029B7
S3150800341003D0D1690143D1617047D1698143D16134
S315080034207047000000100240054A002903D0916940
S31508003430014391617047916981439161704700002A
S315080034400010024010B5264A516801F00C01254BC0
S31508003450002927D0042927D0082927D003605168D6
S3150800346001F0F0010909204B5C5C0168E14041600C
S31508003470546804F4E064240A1C5D21FA04F48460A8
S31508003480546804F46054E40A1B5DD940C16052686C
S3150800349002F44042920B144B1B1F9A5CB1FBF2F1EB
S315080034A0016110BD0360DAE70360D8E7516801F4EB
S315080034B07011536803F48033022404EB914133B14D
S315080034C053689B0307D5094B59430160C7E7074B68
S315080034D059430160C3E7034B59430160BFE7000046
S315080034E00010024000127A005200002000093D0038
S315080034F030B587B001210820FFF796FF0121880320
S31508003500FFF784FF4FF46044ADF8184018208DF893
S315080035101B0003208DF81A00184D06A92846FEF749
S31508003520FFFA21462846FEF786FB0020ADF8040080
S315080035304FF48271ADF80610ADF808000221ADF817
S315080035400A100121ADF80C104902ADF80E10382109
S31508003550ADF81010ADF812000720ADF81400084CAD
S3150800356001A9204600F05FF80121204600F044F842
S31508003570FF2000F007F807B030BD0000000C01403E
S315080035800038004070B505460024134E05E0641C5B
S31508003590E4B2C82C01D9002070BD0221304600F0E3
S315080035A037F80028F3D029463546284600F039F87A
S315080035B0002405E0641CE4B2C82C01D9002070BDC3
S315080035C00121284600F024F80028F3D0284600F008
S315080035D026F8C0B270BD0000003800400146054814
S315080035E0028822F03802028002880A4302800121FA
S315080035F000F002B800380040002904D0018841F0E4
S31508003600400101807047018821F040010180704720
S315080036100246002012890A4200D00120704780899C
S3150800362070478181704730B5028802F441530A8891
S315080036304C88CD8822438C882C4322430C8922430C
S315080036404C8922438C892243CC8922431A4302801F
S31508003650828B22F400628283098A018230BD704718
S31508003660AFF300800CB5002201920092274801684A
S3150800367041F4803101604FF4A063016801F4003120
S3150800368000910199491C0191009911B90199994232
S31508003690F3D10168890302D50121009100E0009267
S315080036A00099012930D11A490A6842F010020A60C5
S315080036B00A6822F003020A600A6842F002020A60F7
S315080036C04168416041684160416841F480614160F8
S315080036D0416821F47C114160416841F4E811416078
S315080036E0016841F08071016001688901FCD5416873
S315080036F021F003014160416841F0020141604168DF
S31508003700C1F381010229FAD10CBD00000010024064
S31508003710002002404FF0E021042804D0086920F078
S31508003720040008617047086940F0040008617047A2
S315080037307047000010B50F48016841F001010160AB
S3150800374041680D4A1140416001680C4A1140016008
S31508003750016821F480210160416821F4FE0141607D
S315080037604FF41F018160FFF77BFF05494FF00060AA
S31508003770086010BD001002400000FFF8FFFFF6FECB
S3150800378008ED00E0FFB514461D46084B1A88121AC4
S3150800379092B25B885B1A9BB200261027CDE90057C8
S315080037A0CDE9024600F000F9FFBD000098000020B0
S315080037B030B405460846144619462A786B78812A95
S315080037C00FD3402B0DD3FF2B0BD0FF2A09D00C2982
S315080037D010D0102910D018290CD1214630BCFDF77D
S315080037E0D5BC0021002203E000F8012B491CC9B210
S315080037F0A142F9D330BC7047214630BCFDF7A6BCC0
S315080038002DE9FF4F87B016ACDDE914ABB0CC804686
S315080038104FF000091BF1FF4F0AD38BF0004BCDE99F
S31508003820007953462D2240460899FEF7BFFE0FE061
S31508003830CDE9007953462B2240460899FEF7B6FE95
S3150800384006E0052C02D9641EE4B201E06D1EEDB255
S3150800385060190728F5D85846FCF7ACFF06463046E7
S31508003860FCF77DFF5946FCF753FDFCF7D0FF4B4AA2
S315080038704B4BFCF7CCFD00224A4BFCF76FFEFCF7DE
S31508003880ADFF014642F21072B6FBF2F30A20B3FB13
S31508003890F0FC00FB1C3330338DF814304FF47A7388
S315080038A0B6FBF3FCBCFBF0FB00FB1BCC0CF1300CAD
S315080038B08DF815C04FF0640CB6FBFCFBBBFBF0FEA5
S315080038C000FB1EBB0BF1300B8DF816B0B6FBF0FBF8
S315080038D0BBFBF0FE00FB1EBB0BF1300B8DF817B0DF
S315080038E0B6FBF0FB00FB1B6630368DF818608DF8CA
S315080038F01990B1FBF2F2B2FBF0F600FB1622303259
S315080039008DF80C20B1FBF3F2B2FBF0F300FB1322A7
S3150800391030328DF80D20B1FBFCF2B2FBF0F300FB60
S31508003920132230328DF80E20B1FBF0F2B2FBF0F321
S3150800393000FB132230328DF80F20B1FBF0F200FBAA
S31508003940121030308DF8100003AE06F80590C4F159
S31508003950050005A90844CDE900A7029008A908F1C1
S3150800396008000EC980B2FEF7CDFE601CCDE90079CD
S3150800397008EBC00080B253462E220899FEF716FEC1
S31508003980CDE900A708A90296A41C0EC908EBC40035
S3150800399080B2FEF7B7FE0BB0BDE8F08FF168E3889A
S315080039A0B5F8D43E006AF8402DE9FF4F82B00446C8
S315080039B0DDE90F750E469346A046B2464FF000095C
S315080039C01EE0B9F1000F21D04FF0000908EB0B00FB
S315080039D0401BA04202DA701986B244460598504444
S315080039E0401BB0420FDBDDE91101CDE900012B4692
S315080039F03A463146204600F031F8BF1C601984B2B9
S31508003A003A78002ADDD106B0BDE8F08F802A02D9BF
S31508003A104FF00109F4E708EB0B00A0EB5500A042B4
S31508003A2002DA701986B2444605985044401BB042E3
S31508003A30E9DB0D2A0DD0DDE91101CDE900012B46A0
S31508003A4031462046FEF7B2FD7F1C04EB550084B2D2
S31508003A50D6E7701986B244467F1CF5E72DE9F04F84
S31508003A6093B004468A4615461F46A146780701D0F4
S31508003A70012000E0002000EBD7007843C0B2009098
S31508003A800C2F03D0102F01D0182F36D13B4601A991
S31508003A902846009AFFF78CFE4FF000082AE001A896
S31508003AA010F808600025DFF858B0300605D55146ED
S31508003AB020461C9AFEF7D6FA07E01D9828B9BBF8E7
S31508003AC0022051462046FEF7CDFA7006060E641C03
S31508003AD0A4B2A4EB0900B84204D14C460AF1010A83
S31508003AE01FFA8AFA6D1CEDB2082DDED308F101081B
S31508003AF008F0FF0800988045D1D313B0BDE8F08FD1
S31508003B00080000207FB504460D460121C802FFF7CC
S31508003B108BFCADF80840ADF804500024ADF80A4017
S31508003B20ADF806408DF80C400E4D01A9284600F068
S31508003B30CDF801221146284600F0BEF819218DF865
S31508003B4000108DF8014003218DF8021001218DF82F
S31508003B5003106846FFF79CF90121284600F094F8FF
S31508003B607FBD0000002C01407CB50E4E0121304679
S31508003B7000F096F880B10C480068FCF748FE044649
S31508003B800A480D460068FCF742FE02460B4608A0A6
S31508003B90CDE9004501F090FA3046BDE87C400121A8
S31508003BA000F06CB8002C0140740000207000002062
S31508003BB074656D703D252E3166202C2068756D69FB
S31508003BC03D252E31662020270D0A200010B501213B
S31508003BD08C07204600F064F8002805D02046BDE88A
S31508003BE01040012100F04DB810BD000010B5074C7B
S31508003BF00121204600F054F8002805D02046BDE8EB
S31508003C001040012100F03DB810BD0000000400403E
S31508003C1010B5074C0121204600F042F8002805D0CF
S31508003C202046BDE81040012100F02BB810BD000069
S31508003C300008004010B5074C0121204600F030F876
S31508003C40002805D02046BDE81040012100F019B82B
S31508003C5010BD0000000C004010B5074C012120469D
S31508003C6000F01EF8002805D02046BDE810400121C6
S31508003C7000F007B810BD000000100040C9430182DB
S31508003C807047C94301827047002904D0018841F072
S31508003C90010101807047018821F001010180704708
S31508003CA002460020138A0B4092890A40002B02D054
S31508003CB0002A00D001207047002A03D082890A43CF
S31508003CC08281704782898A438281704730B502882B
S31508003CD01B4C1C4DA0420DD0A8420BD0B0F1804F12
S31508003CE008D0194B984205D0184B984202D0184B69
S31508003CF0984203D122F070034A881A43154B98421A
S31508003D0006D0154B984203D022F44073CA881A434A
S31508003D1002808A8882850A880285A0420AD0A8423B
S31508003D2008D00E4A904205D00D4A904202D00D4A5C
S31508003D30904201D1097A01860121818230BD0000B5
S31508003D40002C0140003401400004004000080040F7
S31508003D50000C0040001000400014004000400140E4
S31508003D6000440140004801402DE9FF4F83B09046CA
S31508003D70DDE911ABDDF840901F4655484FF478440D
S31508003D800480102553A0544ECDE900540290738840
S31508003D903288A0212820FEF7B5FC50A0CDE90054B2
S31508003DA0029073883288A0217820FEF7ABFC4CA0DD
S31508003DB0CDE90054029073883288B4212820FEF792
S31508003DC0A1FC48A0CDE90054029073883288B4213A
S31508003DD07820FEF797FC44A0CDE90054029073883A
S31508003DE03288C8212820FEF78DFC40A0CDE9005472
S31508003DF0029073883288C8217820FEF783FC3CA09D
S31508003E00CDE90054029073883288DC212820FEF719
S31508003E1079FC38A0CDE90054029073883288DC21F9
S31508003E207820FEF76FFC34A0CDE900540290738821
S31508003E303288F0212820FEF765FCCDE900540423DA
S31508003E40A0214020039AFEF71FFCCDE90054042365
S31508003E50A0219020049AFEF717FCCDE9005404230C
S31508003E604246B4214020FEF70FFCCDE90054042356
S31508003E703A46B4219020FEF707FCCDE90054042306
S31508003E804A46C8214020FEF7FFFBCDE9005404232B
S31508003E905246C8219020FEF7F7FBCDE900540423CB
S31508003EA05A46DC214020FEF7EFFBCDE900540423F7
S31508003EB0DC219020139AFEF7E7FBCDE90054032393
S31508003EC0F0216020149AFEF7DFFB07B0BDE8F08FFB
S31508003ED00800002078313A009800002079313A002D
S31508003EE078323A0079323A0078333A0079333A0030
S31508003EF078343A0079343A006661632069733A0087
S31508003F002DE9F04F8BB000260027DFF804841F2028
S31508003F10A8F80000FF484FF6FF7505802846FDF70C
S31508003F2081FF0024A8F80040FB484FF0100828211C
S31508003F300068CDE9008402906423A0220846FEF7B3
S31508003F40E1FB4FF47849F5A08DE80103CDE9035468
S31508003F501023F022C8210820FDF777FDF5A08DE88B
S31508003F600103CDE903541023F022DC210820FDF7D4
S31508003F706CFD14214A46084600F016FBDFF8CC9380
S31508003F8089F82040C9F82440DFF8C483D9F804101A
S31508003F900120884799F820000121B1EB901F51D1E3
S31508003FA0002720F0400089F8200005A8B9F80C1071
S31508003FB020F8261000EB8600B9F816104180761C0A
S31508003FC0F6B2012E06D0022E14D0032E25D0042ECA
S31508003FD038D144E014214FF6FF72084600F0E4FA9F
S31508003FE0B8F800004FF47842143880B2142100F073
S31508003FF0DBFA27E0B8F800004FF6FF72143880B2F3
S31508004000142100F0D1FAB8F802004FF478421438B7
S3150800401081B2142000F0C8FA14E0B8F802004FF68E
S31508004020FF72143881B2142000F0BEFAB8F8020004
S315080040304FF47842143881B2B8F80000143880B2C8
S3150800404000F0B2FA0A2001F003FD7F1CBFB2B7F5F3
S315080040507A7F9BD900F0EAFA0BB0BDE8F08FBDF87D
S315080040601400BDF81810411A00D54942BDF81600CB
S31508004070BDF81A20801A00D54042494340430844F7
S31508004080FCF772FB01F07CFEFCF7A8FB86B2BDF8D4
S315080040901C00BDF82010401A00D54042BDF81E107D
S315080040A0BDF82220891A00D54942404349430844AD
S315080040B0FCF75AFB01F064FEFCF790FB1FFA80FB45
S315080040C05846FCF74CFB04463046FCF748FB2146AD
S315080040D0FCF753F9FCF79BFB04460D46DFF874A280
S315080040E04FF06632534620462946FCF7A3FB7DD39C
S315080040F0994A9A4B20462946FCF7B4FB76D3002EFC
S3150800410074D0BBF1000F71D0BDF81400BDF81C10B7
S31508004110401A00D54042BDF81610BDF81E20891A6F
S3150800412000D54942404349430844FCF71DFB01F0CA
S3150800413027FEFCF753FB84B2BDF81800BDF8201023
S31508004140401A00D54042BDF81A10BDF82220891A37
S3150800415000D54942404349430844FCF705FB01F0B2
S315080041600FFEFCF73BFB80B2FCF7F9FA0546204642
S31508004170FCF7F5FA2946FCF700F9FCF748FB044674
S315080041800D464FF06632534620462946FCF752FB49
S3150800419009D3714EDFF8C4B132465B46204629463C
S315080041A0FCF760FB69D20026B8F802004FF6FF72EA
S315080041B0143881B2B8F80000143880B200F0F4F967
S315080041C014214FF47842084600F0EEF90022644BB9
S315080041D020462946FCF7C2F9FCF700FB80B2BDF879
S315080041E02220BDF82010BDF81E3000E011E0CDE910
S315080041F00131CDE90320BDF81C000090BDF81A3046
S31508004200BDF81820BDF81610BDF81400FFF7ACFD70
S31508004210BCE60026B8F802004FF6FF72143881B2E1
S31508004220B8F80000143880B200F0BEF914214FF433
S315080042307842084600F0B8F90022494B204629463C
S31508004240FCF78CF9FCF7CAFABDF82010BDF8222055
S31508004250BDF81E30CDE9013180B2CDE90320BDF8A5
S315080042601C000090BDF81A30BDF81820BDF81610CD
S31508004270BDF81400FFF778FD88E6BDF81800BDF80C
S315080042801C10401A00D54042BDF81A10BDF81E2071
S31508004290891A00D54942404349430844FCF764FA61
S315080042A001F06EFDFCF79AFA84B2BDF81400BDF869
S315080042B02010401A00D54042BDF81610BDF822203D
S315080042C0891A00D54942404349430844FCF74CFA49
S315080042D001F056FDFCF782FA80B2FCF740FA054673
S315080042E02046FCF73CFA2946FCF747F8FCF78FFA14
S315080042F004460D464FF06632534620462946FCF7DB
S3150800430099FA32D332465B46204629462AE000000F
S31508004310080000200A00002058810008D0A3D7BC56
S31508004320A3BAD2C0B4CEB5E3CBC4BDC7B5C4B5E352
S3150800433000000000202020202020BDF8D0D0B4A501
S31508004340C3FEC6C1D0A3D7BC0000000014000020DD
S31508004350980000206666EE3FCDCCCCCCCCCCF03FA6
S3150800436000005940FCF77EFA33D20026B8F802005E
S315080043704FF6FF72143881B2B8F80000143880B2CC
S3150800438000F012F914214FF47842084600F00CF9AF
S315080043900022714B20462946FCF7E0F8FCF71EFA86
S315080043A0BDF82030BDF82210BDF81E2080B2CDE938
S315080043B00123CDE90310BDF81C000090BDF81A30A2
S315080043C0BDF81820BDF81610BDF81400FFF7CCFC90
S315080043D0DCE5BDF81850BDF81460A81BFCF7B6F963
S315080043E0B8F800408246A4F12800FCF7AFF9514618
S315080043F0FBF7C3FF8246C9F82400A819FCF7AFF9F2
S315080044005146FBF788FF05462046FCF7A8F92946DA
S31508004410FBF77BFF4FF0FF31FBF7EDFFC9F82C00E8
S31508004420BDF81EB0BDF816000A90ABEB0000FCF70D
S315080044308DF9B8F802500646A5F12800FCF786F96A
S315080044403146FBF79AFFC9F82800064609900A98EC
S315080044505844FCF784F93146FBF75DFF06462846C3
S31508004460FCF77DF93146FBF750FF4FF0FF31FBF7BC
S31508004470C2FFC9F830005046FCF783F9002800DA75
S315080044804042022807DC0998FCF77BF9002800DA85
S315080044904042022831DD0026143D143CA9B2A0B2E0
S315080044A04FF6FF7200F080F84FF478441421224644
S315080044B0084600F079F829A1CDE9014110200090BD
S315080044C0B8F80230B8F800201A212820FEF71AF9A1
S315080044D099F8340048B1002089F8340038B12449E5
S315080044E090200870D020487050E50120F4E7204855
S315080044F0D02101709021417048E51E491F2008808F
S315080045004FF6FF742046FDF78DFC4FF478451026CC
S3150800451019A0CDE900650290B8F80230B8F8002075
S315080045206E212020FEF7EEF8CDE901650021CDE9E0
S31508004530034117A000901023F02282212020FDF7C6
S3150800454084FA4FF47A7001F083FA00F0CDF9204628
S31508004550FDF768FC80E50000000059405450204EE5
S3150800456065656420726561646A757374210000006C
S315080045700C00002008000020546F75636820536300
S315080045807265656E2041646A757374204F4B21000D
S31508004590B4A5C3FEC6C1D0A3D7BCCDEAB3C9A3ACE4
S315080045A04F4BA3A1A3A100002DE9F84304460D46ED
S315080045B016461D48068004F10D0082B2193880B2ED
S315080045C02B4629460096FDF78DFC05F10D0083B2B2
S315080045D0193881B2224620460096FDF783FC681CEE
S315080045E0804681B2601C074680B2FDF7C9FC1FFAF7
S315080045F088F1601E804680B2FDF7C2FC681E8146BF
S3150800460081B2B8B2FDF7BCFC1FFA89F11FFA88F02F
S31508004610FDF7B6FC01B0334629462046BDE8F0430F
S315080046200622FDF7BBBC00000800002070B586B066
S3150800463018220021684600F039FC9DF811009DF803
S3150800464012100A2900D110B1002006B070BD124D13
S3150800465000986860FCF77AF8104E3146FBF78DFE35
S3150800466005F1080460620198FCF770F83146FBF71B
S3150800467084FEA0620298FCF769F8E0620398686015
S31508004680FCF764F82063002084F83400D0202870F2
S31508004690902068700120D8E70C00002020BCBE4C92
S315080046A0F8B501218820FEF7BFFE0220ADF800000C
S315080046B010278DF8037003248DF80240234E6946AF
S315080046C03046FDF72DFA02213046FDF7B4FA0421EB
S315080046D0ADF8001048258DF8035069463046FDF7B9
S315080046E01FFA4FF42066ADF800608DF803708DF858
S315080046F00240174C69462046FDF712FA3146204615
S31508004700FDF799FA2115ADF800108DF803506946A2
S315080047102046FDF705FA0F49A1F10A000C460546A1
S3150800472000F08AF82146284600F086F8FFF77EFF53
S3150800473008B10020F8BD4FF6FF70FDF773FBFFF7D1
S31508004740DFFBFFF773FF0120F8BD0000000C0140F6
S31508004750001C01402A0000202DE9F047002500240E
S315080047601A4EA046C6F88481DFF86490C9F8A48179
S31508004770C9F8AC8100F038F9062001F083F9C6F8CB
S315080047808481012001F07EF90127C6F88471012091
S3150800479001F078F9C6F884814FF6FF7A0AEA4404EC
S315080047A0C6F88481012001F06DF9C6F88471D6F83F
S315080047B0080108B1641CA4B26D1CEDB2102DEDD32E
S315080047C02009C9F8AC71BDE8F087000000802142D5
S315080047D000802342FEB5064600246D463046FFF7A4
S315080047E0BBFF25F81400641CA4B2052CF6D30021DF
S315080047F0481C044680B20BE035F8113035F8102015
S31508004800934203D925F8112025F81030401C80B2B0
S315080048100528F1D3A1B20429EAD30021012035F8ED
S315080048201020114489B2401C80B20428F7D3032013
S31508004830B1FBF0F0FEBD00002DE9F04104460F463D
S31508004840064D2878FFF7C6FF06466878FFF7C2FFC9
S31508004850268038800120BDE8F08100000C00002089
S315080048602DE9FF4106460F4602A903A8FFF7E4FF14
S3150800487088B3694601A8FFF7DFFF68B3BDF80420CF
S31508004880BDF80C309A4203D802F13200834205D3B0
S31508004890934226D803F13200824222D2BDF8005054
S315080048A0BDF80840A54203D805F13200844204D376
S315080048B0AC4216D83234A54213D298184008308034
S315080048C0BDF80800BDF800100844400838800120EB
S315080048D004B0BDE8F08100E001E00020F8E7002020
S315080048E0F6E70020F4E7000070B586B0144C154EC4
S315080048F03146606AFBF70FFDFBF743FF251F28606B
S3150800490000903146A06AFBF706FDFBF73AFF0190D7
S31508004910E06AFBF736FF0290206BFBF732FF286050
S315080049200390002084F834008DF811000A208DF8D1
S31508004930120018220021684600F014FB06B070BD6C
S315080049401400002020BCBE4C10B525490968254C2A
S31508004950002908D094F82000010635D520F08000FB
S3150800496084F8200037E002001E4800F1160100F125
S315080049700C0002D0FFF774FF1AE0FFF771FFB8B119
S31508004980A089FBF7ECFE616AFBF7C5FCE16AFBF759
S315080049906AFCFBF70FFFA081E08AFBF7E0FEA16A3D
S315080049A0FBF7B9FC216BFBF75EFCFBF703FFE08224
S315080049B094F8200000060ED4C02084F82000A089B0
S315080049C0A082E08AE08306E00020A082E0834FF61A
S315080049D0FF70A081E08294F8200000F0800010BDEE
S315080049E028812342140000202DE9F04705460024BB
S315080049F0DFF834800D4E00274FF00109280602D54E
S31508004A00C8F8A49101E0C8F8A4716806050EC6F8AE
S31508004A108471012001F036F8C6F88491641CE4B26A
S31508004A20082CEBD3BDE8F0870080234200802142A2
S31508004A3070B586B00546012144F20400FEF7F4FC81
S31508004A404FF40070ADF8140003248DF816401821B1
S31508004A508DF817101C4E05A93046FDF761F831157B
S31508004A60ADF8141004218DF8171005A93046FDF786
S31508004A7057F825208DF800008DF801408DF8024082
S31508004A8001208DF803006846FEF702FA019500201A
S31508004A90ADF80800ADF80A00ADF80C00ADF8100046
S31508004AA00C20ADF80E00094C01A9204600F00EF9BD
S31508004AB0012240F22551204600F0EDF8012120465A
S31508004AC000F0B6F806B070BD000801400038014095
S31508004AD070B5164C40F22551204600F0BCF8002867
S31508004AE00ED0204600F050F9C1B2114A10880304CE
S31508004AF006D444044FF0000307D50A2901D01380D1
S31508004B0070BD40F40040108070BD0D290AD0094DD3
S31508004B10C0F30D042955401C80B21080C728F3D96C
S31508004B20138070BD40F48040108070BD003801408D
S31508004B306A00002026110020F0B587B0054601213D
S31508004B400420FEF771FC01214804FEF75FFC1821DA
S31508004B508DF81B100426ADF8186003248DF81A404A
S31508004B601D4F06A93846FCF7DBFF8DF81B600821A8
S31508004B70ADF818108DF81A4006A93846FCF7D0FF8C
S31508004B8002950024ADF814400C20ADF81200ADF8DB
S31508004B901040ADF80E40ADF80C40104D02A928465D
S31508004BA000F094F80121284600F042F8012240F26C
S31508004BB02551284600F06FF826208DF804000120BC
S31508004BC08DF807008DF805408DF8064001A8FEF718
S31508004BD05FF907B0F0BD000000080140004400403E
S31508004BE010B50E4C40F22551204600F034F8002846
S31508004BF013D00B4A1088802801D30020108007485C
S31508004C00001D008811884B1C1380064A5054204604
S31508004C10BDE81040202100F007B810BD0044004050
S31508004C2062000020A61000208A05C943018070474B
S31508004C30002904D0818941F4005181817047818916
S31508004C4021F40051818170470246002012880A42E9
S31508004C5000D00120704770B5002440F66A12C1F3EF
S31508004C60421301F01F05012606FA05F2012B0CD0A6
S31508004C70022B0DD0838A1340090A8E4000883040E3
S31508004C800BB100B10124204670BD83891340F3E7B8
S31508004C90038A1340F0E710B540F66A13C1F34213CE
S31508004CA001F01F040121A140012B07D0022B07D0D8
S31508004CB014303AB102680A43026010BD0C30F8E7B6
S31508004CC01030F6E702688A43026010BD30B585B039
S31508004CD004460D46208A4CF6FF710840E9880143D0
S31508004CE02182A0894EF6F3110840A9882A89114322
S31508004CF06A8902431143A181A08A4FF6FF41084001
S31508004D00A9890143A1826846FEF79CFB1D48844297
S31508004D1001D1039800E00298A189090408D500EB9F
S31508004D20C00101EB001029684900B0FBF1F007E06B
S31508004D3000EBC00101EB001029688900B0FBF1F017
S31508004D406422B0FBF2F109010B096FF018056B43F9
S31508004D5000EB8300A3891D044FF0320307D503EB4C
S31508004D60C000B0FBF2F000F00700084306E003EBD2
S31508004D700010B0FBF2F000F00F000843208105B0E8
S31508004D8030BD0000003801408088C0F30800704735
S31508004D90C1F3080181807047FEE70FB430B5CBB088
S31508004DA0054601AC50AB4FF4947101A84F9A00F038
S31508004DB0A7F90020009009E0641C2846FFF7E8FFE1
S31508004DC040212846FFF740FF0028F9D0217800291E
S31508004DD0F2D14BB030BC5DF814FB2DE9F041074623
S31508004DE00D46164600240CE015F8011B3846FFF759
S31508004DF0CFFF40213846FFF727FF0028F9D0641C6B
S31508004E00A4B2B442F0D3BDE8F081000070B5040343
S31508004E1000F0FAF800F0A0F80D4D002028602020D8
S31508004E20FEF7B0FBC4F30740FEF7ACFBC4F307205C
S31508004E30FEF7A8FBE0B2FEF7A5FB012028604FF4B9
S31508004E40C87000F005FEBDE8704000F085B80000A7
S31508004E50B081214238B501210820FEF7E5FA4FF462
S31508004E608054ADF8004010208DF8030003208DF81B
S31508004E7002000B4D69462846FCF752FE2146284695
S31508004E80FCF7D9FE074901200860FEF731FB002030
S31508004E90FEF7A4FB00F032F80349088038BD00008D
S31508004EA0000C0140B08121424C0000202DE9F04160
S31508004EB005460C461646104F0020C7F8B0010320D9
S31508004EC0FEF760FBC4F30740FEF75CFBC4F307205C
S31508004ED0FEF758FBE0B2FEF755FB002405E0FF207D
S31508004EE0FEF750FB2855641CA4B2B442F7D3012040
S31508004EF0C7F8B001BDE8F0810080214270B50D4DBC
S31508004F0000242C609020FEF73DFB0020FEF73AFBBC
S31508004F100020FEF737FB0020FEF734FBFF20FEF7E4
S31508004F2031FB44EA0024FF20FEF72CFB2043012135
S31508004F30296070BDB081214210B5064C0020206062
S31508004F400520FEF71FFBFF20FEF71CFB0121216051
S31508004F5010BD0000B081214210B5FFF7EDFFC00774
S31508004F60FBD110BD2DE9F05F80468A461546DFF86D
S31508004F7094904FEA1A37CAF30B06C6F58054A54231
S31508004F8033D82C4631E0311819F80110FF2903D11E
S31508004F90401C80B2A042F6D3A04214D23846FFF78E
S31508004FA035FF002006E0821918F8001009F80210EB
S31508004FB0401C80B2A042F6D359464FF48052484668
S31508004FC000F02EF804E022465146404600F028F844
S31508004FD0A54214D07F1C0026A044A244281B85B2F3
S31508004FE04FF48054A54200D82C464FEA073B4FF4AD
S31508004FF0805259464846FFF759FF0020CAE7BDE8E0
S31508005000F09F0000A600002010B5044C0020206088
S315080050100620FEF7B7FA0120206010BDB0812142B4
S315080050202DE9F04107460E461546F0B2C0F58074E4
S31508005030A54200D82C464FF4807807E0274426443A
S31508005040281B85B24446A54200D82C46224631463E
S31508005050384600F005F8A542F0D1BDE8F081000019
S315080050602DE9F04105460C461646FFF7CDFF114FD0
S315080050700020C7F8B0010220FEF784FAC4F30740FF
S31508005080FEF780FAC4F30720FEF77CFAE0B2FEF7D3
S3150800509079FA002404E0285DFEF774FA641CA4B2C9
S315080050A0B442F8D30120C7F8B001BDE8F041FFF7D4
S315080050B053BF0000008021420FB4054B10B503A969
S315080050C0044A029800F012F910BC5DF814FB0000BF
S315080050D0B95A00086C0000200FB4084B10B504A993
S315080050E002AA039800F002F9044602A9002000F07B
S315080050F08BFC204610BC5DF814FB0000095A00081A
S315080051007CB50C001D461646014601D0601E00E01F
S315080051100020CDE90010064B6A462946304600F0C5
S31508005120E5F8002C02D0009A002111707CBD000021
S31508005130F3590008004870479400002002E008C8A8
S31508005140121F08C1002AFAD170477047002001E0F3
S3150800515001C1121F002AFBD17047000001490860EF
S3150800516070470000940000202DE9FF5F82B00021FF
S31508005170DDE90430020DDDF840B0034318D044F6EB
S315080051801050A2F2FF3242431514119801281FD07D
S31508005190A5EB0B00401C5FEA000A4FF000064E4FD5
S315080051A0DFF83891B046504615D5CAF1000413E029
S315080051B0119801244AA3012801D16FEA0B0102982C
S315080051C0119AC0E90031C0E9024206B0BDE8F09F75
S315080051D0CBF10000DFE704460021404A491842EBBC
S315080051E00450CDE9001012E0E00707D032463B46EE
S315080051F040464946FBF7B2F98046894632463B4661
S3150800520010461946FBF7AAF906460F466410002C05
S31508005210EAD1DDE90401DDE90023BAF1000F06DA77
S31508005220FBF79CF942464B46FBF798F905E0FBF776
S3150800523007FA42464B46FBF703FA04460E46002297
S31508005240284BFBF70FFB03D84FF0FF30014607E06A
S315080052500022254B20463146FBF7D9F8FBF7CBFC55
S31508005260102409E0002C0ADB0A220023FBF744FB82
S31508005270039B30321A55641E50EA0102F2D1641CAF
S31508005280039AC4F111031444119A012A03D0012286
S3150800529008430DD10AE0084304D000204FF0110B53
S315080052A0119072E7A3EB0B056D1E0DE05B4504DD5F
S315080052B04FF0000205F1010504E003DA4FF00002A1
S315080052C0A5F10105002AECD002981199C0E902312E
S315080052D0C0E9004579E70000000014400000F03FEF
S315080052E0300000000000F0430000E03F2DE9FF4FCA
S315080052F095B09A46884606460025EEE1252877D1D8
S3150800530000242746F94A0121039400E0044316F8CD
S31508005310013F203B01FA03F01042F7D130782A28E2
S3150800532011D06FF02F033078A0F13002092A16D871
S31508005330039A44F0020402EB820203EB4202104491
S31508005340761C0390EFE758F8042B0392002A03DA39
S31508005350504244F40054039044F00204761C30781A
S315080053602E2816D116F8010F44F004042A280DD069
S315080053706FF02F023078A0F13003092B09D807EB1C
S31508005380870302EB4303C718761CF3E758F8047B38
S31508005390761C30786C280FD006DC4C2817D0682885
S315080053A00DD06A2814D104E0742810D07A280FD1B9
S315080053B00DE044F400140AE044F4801401E044F4D7
S315080053C040147278824202D104F58014761C761C49
S315080053D0307866280BD013DC582877D009DC0028EB
S315080053E075D04528F6D04628F4D047281AD193E137
S315080053F018E0632835D0642879D0652812D18BE166
S31508005400702873D008DC6728F1D069286FD06E2819
S315080054100DD06F2806D1ACE073282CD0752874D02F
S31508005420782853D05246179990476D1C54E1C4F317
S315080054300250022809D003280DD0D8F800100428F5
S315080054400DD00D6008F1040846E1D8F80010EA17F7
S31508005450C1E90052F6E7D8F800100D80F2E70D70A2
S31508005460F0E718F8041B8DF8001000208DF80100ED
S31508005470EB46012003E058F804BB4FF0FF30610704
S315080054804FF0000102D40DE009F101018946B94245
S315080054900FDA8145F8DB1BF809100029F4D108E07A
S315080054A009F1010189468142FADB1BF80910002936
S315080054B0F6D103985346A0EB090721463846179AB2
S315080054C000F080FA284400EB090507E044E008E10B
S315080054D00DE01BF8010B524617999047B9F10109DF
S315080054E0F7D2534621463846179AF2E039E00A21A0
S315080054F0C4F302524FF0000B0091022A06D058F866
S31508005500040BC117032A09D00AE023E008F10700B3
S3150800551020F00702F2E80201904605E000B2C11742
S31508005520042A01D140B2C117002906DA0A46002129
S31508005530404261EB02012D2202E0220504D52B220E
S315080055408DF80420012203E0E20701D02022F7E7C4
S31508005550914657E00A2100E010214FF0000B009118
S315080055600BE010214FF0000B44F0040408270091CB
S3150800557003E008204FF0000B0090C4F30252022A01
S3150800558005D058F8040B0021032A08D008E008F1D2
S31508005590070020F00702F2E80201904603E080B215
S315080055A0042A00D1C0B24FF0000922072AD5327862
S315080055B0702A07D0DDF800C08CF0100C5CEA0B0CE2
S315080055C005D00EE040228DF80420012208E050EABA
S315080055D0010306D030238DF804308DF80520022209
S315080055E09146009B83F0080353EA0B030AD150EA5D
S315080055F0010201D1620705D530228DF804204FF04B
S3150800560001097F1E3278582A04D039A20C920CAAB6
S3150800561002920BE03BA2F9E75B46009AFBF76CF9AE
S315080056200C9B9B5C029A521E0292137050EA01026E
S31508005630F2D1029804A9081A00F1200B600702D5D6
S3150800564024F4803400E001275F4502DDA7EB0B0058
S3150800565000E0002000EB0B01009003984944401A33
S315080056600390E00306D453462146179A039800F0A0
S31508005670A9F90544002706E001A85246C05D179916
S3150800568090476D1C7F1C4F45F6DBE0030CD553464F
S315080056902146179A039800F095F9054404E030204E
S315080056A05246179990476D1C0099481E009000298C
S315080056B0F5DC08E00298029952460078491C0291E6
S315080056C0179990476D1CBBF10001ABF1010BF1DC9A
S315080056D05BE100F065F90544761C307800287FF414
S315080056E00DAE19B02846BDE8F08F00000928010064
S315080056F0303132333435363738396162636465663A
S3150800570000000000303132333435363738394142FB
S315080057104344454600000000600700D4062708F108
S31508005720070020F00700F0E80223804603F0004C4B
S315080057305FEA0C0001D097A009E0200501D596A0E4
S3150800574005E0E00701D095A001E0AFF24C00139008
S31508005750307823F0004365280CD006DC452809D0AC
S3150800576046281DD047287FD13BE0662818D06728F1
S315080057707AD136E00021112F01DB112000E0781CD8
S31508005780CDE9000104A90CA8FFF7EEFCDDE90D013F
S315080057900C9A4FF0000B07F10109109200914EE0A8
S315080057A04FF000400097CDE9011004A90CA8FFF7B7
S315080057B0DBFCDDE90D020C9B0F994FF0000B9146BF
S315080057C01093009211B9791C00EB0109B7EB090097
S315080057D003D4C0F1FF3B07F10109A9EB07000190CB
S315080057E042E0012F00DA01270021112F01DD1120E7
S315080057F000E03846CDE9000104A90CA8FFF7B4FC7F
S31508005800DDE90D010C9A00914FF0000BB946109294
S3150800581021070FD4009A4A4503DA914601E0A9F117
S315080058200109B9F1010F05DD109AA9F10101515CD1
S315080058303029F4D0B84202DA10F1040F03DA012154
S31508005840CDE9011010E0002803DC8344A9EB000130
S3150800585002E0411C494500DD8946A0EB0B00401CCF
S3150800586001904FF000400290200705D40198484562
S3150800587002DB4FF0FF30019000208DF84B000298B4
S315080058800DF14B07B0F1004F25D002200C902B20CC
S315080058900D90029800280CDA404202902D200D90B7
S315080058A007E00A210298FBF711F83031029007F851
S315080058B0011D0C99481E0C900029F2DC029800285C
S315080058C0EFD1791E0D980870307800F0200040F06E
S315080058D0450007F8020D11A8C01BC01D02901398B9
S315080058E0007800B1012000EB0901019801EBE07195
S315080058F0029801440398401A401E0390E00306D418
S3150800590053462146179A039800F05CF80544139805
S31508005910007818B15246179990476D1CE00323D5B5
S3150800592053462146179A039800F04CF805441BE0A5
S31508005930BBF1000F07DB0098584504DD109817994E
S3150800594010F80B0001E0179930205246904701984D
S315080059500BF1010B401E05F10105019004D12E2023
S315080059605246179990476D1CB9F10001A9F1010932
S31508005970DEDC05E017F8010B5246179990476D1CB7
S315080059800299481E02900029F4DC53462146179ACC
S3150800599003989EE62D0000002B0000002000000062
S315080059A02DE9F041044600251E461746880404D40E
S315080059B005E039462020B0476D1C641EF9D52846F7
S315080059C0BDE8F0812DE9F041044600251E469046C3
S315080059D0C80301D5302700E02027880404D505E050
S315080059E041463846B0476D1C641EF9D52846BDE8C1
S315080059F0F0814A68002A06D00A68531C0B601070AA
S31508005A004868401E486070470A68531C0B6010704F
S31508005A107047000010B56FF00400FDF77BFE0948DB
S31508005A2009490068B0FBF1F00849C0B2087000EBFC
S31508005A304002C2EBC0104FF6FF7202EAC00048806F
S31508005A4010BD00007800002000127A0066000020D1
S31508005A500B49498848434FF0E021486100238B6190
S31508005A60086940F0010008610869C20701D0C0034F
S31508005A70FAD5086920F0010008618B6170470000BB
S31508005A80660000200B49097848434FF0E021486139
S31508005A9000238B61086940F0010008610869C207A4
S31508005AA001D0C003FAD5086920F0010008618B61AE
S31508005AB0704700006600002004490A885206FCD593
S31508005AC0024AC1B2121D1180704700000038014019
S31508005AD010B5002821D0114B0022001F196803E0D9
S31508005AE0814203D80A4649680029F9D152B1136898
S31508005AF0841A9C4204D1006818441060104602E0DB
S31508005B00506000E0186039B102680B1A934203D15D
S31508005B100B681A4402604968416010BD8C00002079
S31508005B2086B00024FCF790F84AA0FFF7C5FA4FF6AE
S31508005B30FF70FCF777F94DA0FFF7BEFA18251F2668
S31508005B4054A0CDE9005602902B46C82214210A20FB
S31508005B50FCF7D8FD52A0CDE9005602901823C822BA
S31508005B6032210A20FCF7CEFD50A0CDE90056C82206
S31508005B700290182314211046FCF7C4FD4CA0CDE969
S31508005B800056C8220290182332211046FCF7BAFDA7
S31508005B9048A34FF61F0250210A20FDF7F3FDDFF850
S31508005BA040A14BA15046FFF7F8F84EA15046FFF723
S31508005BB0F4F8FBF767FB4FF4FA7502E02846FFF79F
S31508005BC047FFFDF7A1F90028F8D1FBF7ADFAFA204F
S31508005BD0FFF73EFF0120FBF7A7FA0126DFF81C8135
S31508005BE04FF4784502274FF010094449081DFBF782
S31508005BF08FF8D8F80000CDE90276CDE90090C823E1
S31508005C001A46142104958C20FDF7FAFDD8F80400ED
S31508005C10CDE90276CDE90090C8231A4632210495CB
S31508005C208C20FDF7EDFD641CA4B2282C08D334A102
S31508005C305046FFF7B2F8FDF769FB0024FBF7F2FAC6
S31508005C400320FBF7FDFA08B1FDF7C0FA0A20FFF7B3
S31508005C50FFFECAE7D3B2BCFEB3F5CABCBBAF09099F
S31508005C60095B4F4B5D200D0A0000000053544D336D
S31508005C7032204553503832363620D6D0D2C64F6EEB
S31508005C80654E4554D4C6C6BDCCA8B2E2CAD42020B7
S31508005C900D0A00004148545F54656D703A000000D3
S31508005CA04148545F48756D3A000000004300000003
S31508005CB02500000053544D333220455350383236B0
S31508005CC036204F6E654E455420B2E2CAD400000015
S31508005CD0486172645761726520696E69740D0A00BD
S31508005CE000380140CEC2CAAAB6C8B4ABB8D0C6F707
S31508005CF0B3F5CABCBBAF210A000000007000002043
S31508005D004F6E654E65745F53656E64446174610DCC
S31508005D100A000000F0B50B30154D20F007010024ED
S31508005D20144A0FE003688B420BD38B4205D95E1ADF
S31508005D3043184768C3E9006700E04368136002C078
S31508005D4004E0021D10680028ECD12046002802D184
S31508005D50286808B10020F0BD064A07481060074ABF
S31508005D60121A22F00702C0E9002401202860D7E7AA
S31508005D70900000208C000020F4110020F013002071
S31508005D802DE9F04106460F46FAF7E4FE041E0D46D5
S31508005D9018BF0120284320F00040C0F17F6000F1C1
S31508005DA0E040C00F0ED0301C18BF0120384320F049
S31508005DB00040C0F17F6000F1E040C00F04BF012041
S31508005DC0FFF7CCF920462946BDE8F081000000001F
S31508005DD00000000000000000000000003F40000036
S31508005DE000000000000030004000300040000000C5
S31508005DF009000BC03D000BC03D00090018C0244037
S31508005E007FE0224031800000180024C01B000D806E
S31508005E103240018003801C4027401C800740004018
S31508005E2010006000000000000000000000000000F4
S31508005E3000001F80204040200000402020401F8096
S31508005E4000000000090006001F8006000900000087
S31508005E50040004003F8004000400000000100060F5
S31508005E600000000000000000040004000400040014
S31508005E7004000000000000400000000000000000D0
S31508005E80002001C006003800400000001F802040A6
S31508005E90204020401F800000000010403FC0004006
S31508005EA00000000018C0214022402440184000008D
S31508005EB010802040244024401B80000002000D0072
S31508005EC011003FC0014000003C802440244024408B
S31508005ED0238000001F8024402440344003800000B3
S31508005EE03000200027C03800200000001B80244016
S31508005EF0244024401B8000001C0022C0224022406F
S31508005F001F8000000000000008400000000000009C
S31508005F10000000000460000000000000000004000B
S31508005F200A00110020804040090009000900090004
S31508005F300900000000004040208011000A0004000B
S31508005F401800200023402400180000001F8020406D
S31508005F50274029401F400000004007C039000F00B5
S31508005F6001C0004020403FC0244024401B80000060
S31508005F701F802040204020403080000020403FC045
S31508005F80204020401F80000020403FC024402E4073
S31508005F9030C0000020403FC024402E0030000000E2
S31508005FA00F001080204022403380020020403FC06E
S31508005FB0040004003FC02040204020403FC020404D
S31508005FC0204000000060202020203FC02000200044
S31508005FD020403FC024400B0030C0204020403FC036
S31508005FE020400040004000C03FC03C0003C03C00C9
S31508005FF03FC0000020403FC00C4023003FC02000A7
S315080060001F802040204020401F80000020403FC0C5
S3150800601024402400180000001F802140214020E071
S315080060201FA0000020403FC02440260019C00040A1
S3150800603018C024402440224031800000300020400F
S315080060403FC020403000000020003F800040004054
S315080060503F80200020003E0001C0070038002000D5
S31508006060380007C03C0007C038000000204039C08F
S31508006070060039C0204000002000384007C03840DC
S3150800608020000000304021C02640384020C00000D3
S31508006090000000007FE04020402000000000700063
S315080060A00C000380004000000000402040207FE0F4
S315080060B00000000000002000400020000000000052
S315080060C00010001000100010001000100000000062
S315080060D04000000000000000000002800540054066
S315080060E003C0004020003FC0044004400380000075
S315080060F000000380044004400640000000000380BE
S31508006100044024403FC0004000000380054005408D
S3150800611003400000000004401FC024402440200023
S31508006120000002E0055005500650042020403FC0FC
S315080061300440040003C000400000044027C000409B
S315080061400000000000100010041027E00000000006
S3150800615020403FC00140070004C0044020402040C2
S315080061603FC000400040000007C0040007C004000C
S3150800617003C00000044007C00440040003C00040F8
S31508006180000003800440044003800000041007F068
S3150800619004500440038000000000038004400450BB
S315080061A007F00010044007C0024004000400000085
S315080061B0000006400540054004C000000000040039
S315080061C01F8004400040000004000780004004408F
S315080061D007C000400400070004C001800600040050
S315080061E0060001C0070001C006000000044006C002
S315080061F0010006C0044000000410071004E00180F6
S31508006200060004000000044005C0064004400000E3
S315080062100000000004007BE04020000000000000B1
S315080062200000FFF000000000000040207BE00400B2
S3150800623000000000400080004000200020004000D0
S315080062400000000000000000000000000000000040
S315080062500000000000001FCC000C00000000000039
S3150800626000000800300060000800300060000000F0
S31508006270022003FC1E20022003FC1E200220000030
S3150800628000000E1811043FFF10840C78000000006F
S315080062900F0010840F3800C00778188400780000B3
S315080062A000780F8410C411240E9800E400840008B6
S315080062B008006800700000000000000000000000F0
S315080062C000000000000007E0181820044002000043
S315080062D0000040022004181807E000000000000033
S315080062E00240024001800FF0018002400240000097
S315080062F00080008000800FF8008000800080000089
S315080063000001000D000E0000000000000000000063
S3150800631000000080008000800080008000800080EF
S315080063200000000C000C0000000000000000000047
S315080063300000000600180060018006001800200012
S31508006340000007F0080810041004080807F0000009
S315080063500000080408041FFC0004000400000000F4
S3150800636000000E0C10141024104411840E0C0000AA
S3150800637000000C1810041104110412880C70000097
S31508006380000000E00320042408241FFC0024000069
S3150800639000001F9810841104110410881070000062
S315080063A0000007F00888110411041888007000001E
S315080063B000001C00100010FC13001C001000000058
S315080063C000000E3811441084108411440E38000061
S315080063D000000700088C10441044088807F00000E5
S315080063E0000000000000030C030C00000000000081
S315080063F00000000000010106000000000000000087
S315080064000000008001400220041008081004000063
S315080064100220022002200220022002200220000080
S315080064200000100408080410022001400080000043
S3150800643000000E001200100C106C10800F000000F7
S3150800644003E00C1813E4142417C4082807D0000026
S315080064500004003C03C41C40074000E4001C000480
S3150800646010041FFC1104110411040E8800700000AA
S3150800647003E00C1810041004100410081C10000087
S3150800648010041FFC100410041004080807F000008C
S3150800649010041FFC1104110417C410040818000086
S315080064A010041FFC1104110017C01000080000009A
S315080064B003E00C181004100410441C780040000077
S315080064C010041FFC10840080008010841FFC100438
S315080064D00000100410041FFC100410040000000043
S315080064E000030001100110011FFE1000100000003B
S315080064F010041FFC110403801464181C1004000007
S3150800650010041FFC1004000400040004000C000022
S3150800651010041FFC1F0000FC1F001FFC10040000D5
S3150800652010041FFC0C04030000E010181FFC1000E8
S3150800653007F00808100410041004080807F0000003
S3150800654010041FFC10841080108010800F000000BB
S3150800655007F0081810241024101C080A07F2000077
S3150800656010041FFC1104110011C011300E0C000498
S3150800657000000E1C11041084108410441C380000FE
S315080065801800100010041FFC10041000180000006A
S3150800659010001FF810040004000410041FF810006F
S315080065A010001E0011E0001C007013801C00100073
S315080065B01FC0103C00E01F0000E0103C1FC0000098
S315080065C01004180C163401C001C01634180C100437
S315080065D010001C00130400FC13041C00100000002B
S315080065E00804101C1064108413041C0410180000FE
S315080065F00000000000007FFE40024002400200004A
S31508006600000030000C0003800060001C000300003E
S3150800661000004002400240027FFE00000000000029
S31508006620000000002000400040004000200000005C
S315080066300001000100010001000100010001000144
S31508006640000040004000200000000000000000009C
S3150800665000000098012401440144014400FC0004A0
S3150800666010001FFC00880104010400880070000067
S31508006670000000700088010401040104008800007D
S315080066800000007000880104010411081FFC0004C2
S31508006690000000F8014401440144014400C8000018
S315080066A00000010401040FFC110411041100180074
S315080066B0000000D601290129012901C901060000A7
S315080066C010041FFC008401000100010400FC000402
S315080066D000000104190419FC00040004000000006D
S315080066E00000000300010101190119FE0000000065
S315080066F010041FFC0024004001B4010C0104000032
S315080067000000100410041FFC000400040000000030
S31508006710010401FC0104010001FC0104010000FC64
S31508006720010401FC008401000100010400FC0004CE
S31508006730000000F8010401040104010400F8000047
S31508006740010101FF008501040104008800700000B2
S3150800675000000070008801040104010501FF000122
S315080067600104010401FC0084010401000180000009
S31508006770000000CC01240124012401240198000012
S3150800678000000100010007F80104010400000000F0
S31508006790010001F8000400040004010801FC0004DB
S315080067A0010001800170000C0010016001800100E9
S315080067B001F0010C003001C00030010C01F00100AD
S315080067C000000104018C00740170018C01040000B2
S315080067D0010101810171000E0018016001800100AC
S315080067E000000184010C013401440184010C0000FD
S315080067F0000000000000000001003EFC40024002CC
S315080068000000000000000000FFFF0000000000007C
S315080068100000400240023EFC0100000000000000AB
S31508006820000060008000800040004000200020003A
S31508006830000000000000000000000000000000004A
S31508006840000000000000000000000000000000003A
S31508006850000000000000000000000000000000002A
S315080068600000000F80380FFE380F80380000000047
S315080068700000000000000000000000000000010009
S31508006880000600000C000038000031000006000079
S315080068900C00003800003000000000000000000076
S315080068A061800067F807F9800061800061800061F7
S315080068B0800061800067F807F980006180000000A9
S315080068C000000000000001C0E003E0F00630080404
S315080068D018081FFFFE040E080787F00381E0000072
S315080068E00000000001F000060C00040408060C7005
S315080068F001F9C0000E00003BE000EC180708080488
S315080069000C180003E00000000001E00007F003F89F
S3150800691018041C0804170807E1D003C0E00023B0D8
S31508006920003C0800200800001000000000000001DC
S3150800693000003100003200001C00000000000000CA
S315080069400000000000000000000000000000000039
S315080069500000000000000000000000000000000029
S315080069607F0001FFC00780F00C001810000420000B
S31508006970020000000000002000021000040C0018AD
S315080069800780F001FFC0007F000000000000000043
S315080069900000000000000000000000004200006641
S315080069A000006600003C0000180003FFC000180045
S315080069B0003C00006600006600004200000000007F
S315080069C0080000080000080000080000080001FF91
S315080069D0C0000800000800000800000800000800C1
S315080069E000000000000100003100003200001C0019
S315080069F00000000000000000000000000000000089
S31508006A000000000000000000080000080000080060
S31508006A100008000008000008000008000008000040
S31508006A200800000800000000000000000000000048
S31508006A3038000038000038000000000000000000A0
S31508006A400000000000000000000000000000000038
S31508006A50000600001C000070000180000E000038CF
S31508006A600000C0000700001C000030000000000005
S31508006A70000000007F8001FFE00380700600180414
S31508006A80000804000806001803807001FFE0007F74
S31508006A908000000000000000000001000801000856
S31508006AA001000803FFF807FFF800000800000800C7
S31508006AB0000800000000000000000001C03802C005
S31508006AC058040098040118040218040418061C182F
S31508006AD003F81801E0F800000000000000000001BB
S31508006AE0C0E003C0F00400080408080408080618F3
S31508006AF00803F41801E7F00001E0000000000000B8
S31508006B00000000000300000D0000110000610000F5
S31508006B10810803010807FFF80FFFF80001080001C4
S31508006B20080000000000000000E007FCD006080886
S31508006B30061008061008061008061838060FF0068C
S31508006B4007C0000000000000000000003F8001FFB1
S31508006B50E00384300208180410080410080410081A
S31508006B60071810030FF00007C0000000000000001F
S31508006B70000003C0000700000600000600F806072C
S31508006B80F806180006E000070000060000000000EE
S31508006B9000000001E1E003F7F006341004180804C9
S31508006BA01808040C08040C0806161803F3F001C1AB
S31508006BB0E000000000000000F80003FC300306387F
S31508006BC00402080402080402080404100308F00179
S31508006BD0FFC0007F00000000000000000000000069
S31508006BE0000000000000000070380070380070389F
S31508006BF00000000000000000000000000000000087
S31508006C00000000000000000000000000301A0030FC
S31508006C101C0000000000000000000000000000004A
S31508006C200000000000000008000014000022000018
S31508006C304100008080010040020020040010080086
S31508006C4008000000000000002100002100002100CB
S31508006C500021000021000021000021000021000081
S31508006C6021000021000000000000000000000800CC
S31508006C700804001002002001004000808000410046
S31508006C8000220000140000080000000000000003B5
S31508006C90C00004C000040000080038080F380808BF
S31508006CA0380810000C300007E00003C000000000A0
S31508006CB0000000003F8000FFE0038070020F10060E
S31508006CC0708804C088048308047F8802C090030182
S31508006CD02000FE400000080000180001F8003E08E9
S31508006CE001C20007020007E20000FE00001FC800FC
S31508006CF001F800003800000804000807FFF807FF3D
S31508006D00F804080804080804080804080806180807
S31508006D1003F41801E7F00001E0000000000000009D
S31508006D203F8001FFE0038070020018040008040099
S31508006D30080400080400100600200780C0000000B0
S31508006D4004000807FFF807FFF80400080400080411
S31508006D50000804001802001003807001FFE0007F9D
S31508006D608000000004000807FFF807FFF804080879
S31508006D70040808040808040808043E08040008066D
S31508006D80001801006000000004000807FFF807FF6C
S31508006D90F8040808040800040800040800043E0073
S31508006DA00600000600000180000000000000000048
S31508006DB03F8001FFE0038070060018040008040203
S31508006DC0080402080203F00783F00002000002002C
S31508006DD004000807FFF807FFF80408080008000081
S31508006DE0080000080000080004080807FFF807FF65
S31508006DF0F804000800000000000004000804000869
S31508006E0004000807FFF807FFF80400080400080450
S31508006E100008000000000000000000000006000056
S31508006E200700000104000104000104000307FFFE37
S31508006E3007FFFC0400000400000400000400080723
S31508006E40FFF807FFF8040C08001800003E0004C706
S31508006E50800503C80600F804003804001800000876
S31508006E6004000807FFF807FFF804000800000800F8
S31508006E7000080000080000080000080000180000CC
S31508006E806000000004000807FFF807800807FC00F8
S31508006E90007FC00003F80007C000780007800807D5
S31508006EA0FFF807FFF804000804000807FFF80700C2
S31508006EB00803C00000E000003800001E00000700BC
S31508006EC00001C00400F007FFF804000000000000FD
S31508006ED07F8001FFE00380700600180400080400A4
S31508006EE00806001803003001FFE0007F800000005C
S31508006EF004000807FFF807FFF80404080404000460
S31508006F000400040400040400060C0003F80001F061
S31508006F1000000000000000007F8001FFE003807091
S31508006F200600880400880400C806003C03003E01E9
S31508006F30FFE6007F8400000004000807FFF807FF4B
S31508006F40F8040808040800040C00040F00040BC029
S31508006F500610F003F03801E0080000080000000100
S31508006F60E0F803F030063010041808041808040C7A
S31508006F7008040C080206180207F00781E000000062
S31508006F800180000600000400000400000400080751
S31508006F90FFF807FFF80400080400000400000600D4
S31508006FA00001800004000007FFE007FFF004001856
S31508006FB00000080000080000080000080000080497
S31508006FC0001007FFE004000004000006000007E0C8
S31508006FD00007FE00041FE00001F80000380001E089
S31508006FE0043E0007C0000600000400000400000775
S31508006FF0E00007FFC0041FF80007C007F80007FFF6
S3150800700080043FF80007C004F800070000040000E9
S3150800701000000004000806001807C07805F1C8003B
S315080070203E00001F800463E80780F8060018040085
S315080070300800000004000006000007800007E008BA
S31508007040047C08001FF80007F800180804E0080781
S315080070500000060000040000000000010008060009
S31508007060380400F80403E8040F08047C0805F0084F
S3150800707007C00807001804006000000000000000B0
S3150800708000000000000000000000003FFFFE200096
S315080070900220000220000220000220000200000058
S315080070A000000000000008000007000000C0000003
S315080070B038000006000001C000003000000E000085
S315080070C0010000000000000000002000022000026D
S315080070D02000022000022000023FFFFE0000000000
S315080070E00000000000000000000000000000000092
S315080070F000080000100000300000200000300000EA
S315080071001000000800000000000000000000010058
S31508007110000100000100000100000100000100005C
S31508007120010000010000010000010000010000014B
S3150800713000000000000000000020000020000010F1
S315080071400000100000000000000000000000000021
S31508007150000000000000000000F00019F8001B18ED
S31508007160002208002608002408002410003FF80022
S315080071701FF800000800001800000004000007FFC0
S31508007180F80FFFF000181800100800200800200863
S31508007190003018001FF0000FC000000000000000BB
S315080071A007C0001FF0001830002008002008002043
S315080071B008003C08001C10000060000000000000E9
S315080071C00000000007C0001FF00038180020080063
S315080071D0200800200804101007FFF80FFFF0000031
S315080071E0100000000000000000000007C0001FF0AB
S315080071F00012300022180022080022080032080077
S315080072001E10000E200000000000000020000020D4
S315080072100800200801FFF803FFF8062008042008E4
S3150800722004200807200003000000000000000000FA
S31508007230000E000E6E001FF30031B10020B10020D1
S31508007240B1003191001F13002E1E00200E003000E1
S3150800725000000004000807FFF80FFFF800100800F8
S315080072602000002000002008003FF8001FF800005A
S3150800727008000000000000000000002008002008A8
S31508007280002008063FF8063FF8000008000008003E
S3150800729000080000000000000000000000000000D8
S315080072A003000003002001002001002003063FFE22
S315080072B0063FFC000000000000000000000000047B
S315080072C0000807FFF80FFFF8000188000300002FE9
S315080072D0C00038F800203800200800000800000028
S315080072E00000000000000400080400080400080765
S315080072F0FFF80FFFF800000800000800000800006B
S3150800730000000000002008003FF8003FF8001008C1
S31508007310002000003FF8003FF80010080020000099
S315080073203FF8003FF8000008000000002008003F72
S31508007330F8003FF8001008001000002000002008A0
S31508007340003FF8001FF800000800000000000000D9
S3150800735007C0000FF0001830003008002008002091
S3150800736008003008001830000FF00007C0000000C1
S31508007370000000002001003FFF003FFF0010110041
S315080073802009002008002008003038001FF0000FF0
S31508007390C00000000000000007C0001FF0003818F9
S315080073A0002008002008002009001011001FFF0017
S315080073B03FFF000001000000002008002008002010
S315080073C008003FF8003FF8000808001008002008E9
S315080073D0002000003000003000000000000000001F
S315080073E00000000C78001E1800330800230800214E
S315080073F0080021880021980030F00038600000005D
S3150800740000000000200000200000200000FFF0031C
S31508007410FFF80020080020080020080000300000BF
S3150800742000000000000000002000003FF0007FF888
S31508007430000018000008000008002010003FF800AF
S315080074407FF000001000000000000000200000305F
S3150800745000003C00003F800023F000007800007028
S31508007460002380003C0000300000200000200000BF
S315080074703C00003FE00023F80000E0002700003E43
S3150800748000003FE00021F80001E0003E0000200077
S31508007490000000002008002008003838003E680078
S315080074A027800003C8002CF8003838002018002070
S315080074B008000000000000002000003003003C0126
S315080074C0003F830023EC000070002380003C00008E
S315080074D02000002000000000000000000000003826
S315080074E0080020380020F80023E8002F88003E080E
S315080074F00038080020180000700000000000000096
S315080075000000000000000000000000000800001451
S31508007510001FF7FC300006200002000000000000F3
S31508007520000000000000000000000000000000004D
S315080075300000FFFFFF000000000000000000000040
S3150800754000000000000000000000200002300006D5
S315080075501FF7FC00140000080000000000000000EF
S315080075600000000000000000000000180000600095
S315080075700040000040000020000010000008000045
S315080075800400000400000C0000100000B5E702002B
S31508007590020002007FF0421042107FF042104210B3
S315080075A07FF042000208020801F800000000D7D365
S315080075B07FF000200040008001000200FFF8020072
S315080075C0020002000200020002000E000000000095
S315080075D0BCBC10201020102013FEFC201020102008
S315080075E015FC18843088D048105010201050518847
S315080075F02606CAF501000120011001107FFC038050
S315080076000540054009201110210841040102010026
S3150800761001000100D2BA0080404027F8114001401D
S315080076208278424816A81AD0235022204220425077
S31508007630028800000000BEA73FE020203FE020208F
S315080076403FE00000FDF885088508FDF885088508EF
S31508007650FDF8850800000000B2E200084F88288877
S315080076600AA88AA84AA80AA82AA82AA84228450829
S3150800767084888888103800000000CAD44050204802
S3150800768020400FF80040E0402740224022402220B8
S315080076902A2833A82E18000800000000B3CC0000E2
S315080076A01BF0E210221023F0F800200033F0688067
S315080076B06080A3F02080208027F800000000D0F228
S315080076C0020001003FF820002FF0202022402180F0
S315080076D03FF820882090408040808380000000008A
S315080076E0D1D5200010F87E20444028F87E8848A886
S315080076F050A864A848A872A8845018886108000091
S315080077000000C9AB100010003FE0404080807FF0C9
S315080077104210421042107FF04000400840083FF8EF
S3150800772000000000CCEE20802FF8208027F0F4100F
S3150800773027F0241027F0241027F03410CFF8022061
S31508007740041000000000B3E404000200FFF808007B
S31508007750104020207FF00890088008800880108854
S315080077602088C07800000000CEC404000200020091
S31508007770FFF8104010400880088005000200050048
S3150800778008803060C01800000000D7D60400020048
S31508007790FFF8800880083FC0008001000200FFF85B
S315080077A00200020002000E0000000000CFD43FE0F5
S315080077B0202020203FE0202020203FE0088048901D
S315080077C0289028A008800880FFF800000000CABE9C
S315080077D000003FE0000000000000FFF80200124031
S315080077E0122022104208820802000E000000000043
S315080077F0CDBC7FF84008440847C848485488430821
S315080078004CC8733840884C08430840887FF8000005
S315080078100000C6AC00802080208020803FF0200039
S31508007820200020003FC020402040204040408040AB
S3150800783000000000B4A520403840484091F07D5033
S31508007840555055507D5055F054407C40545057F88B
S315080078508C0800000000C3FE2220222027F8FA2008
S3150800786027F0241027F03410E7F020802FF8214065
S315080078702220EC1800000000CAE440804140F220B3
S3150800788044108BE8A000F78824A827A834A8E7A8FE
S3150800789024A8248825B800000000C8EB08000400C6
S315080078A00400020002000500050008800880104058
S315080078B0104020204010800800000000C8AB0200DD
S315080078C002000500088010402020DFD802000200D0
S315080078D01FC0020002000200FFF800000000B3CC3F
S315080078E000001BF0E210221023F0F800200033F00D
S315080078F068806080A3F02080208027F800000000C0
S31508007900BCBC208020802080F7F02080208027E0E3
S315080079103220E2202140208021402220EC1800005D
S315080079200000CAF50200024002200200FFF8070024
S315080079300A800A80124022204210820802000200B1
S3150800794000000000D6A702000200FFF802000200AD
S315080079507FE010201040088005000200050018C0CE
S31508007960E03800000000B3D62080208023F0F8809D
S31508007970208027F828203020E7F820202220212000
S315080079802020E0E000000000D7A8020002007FF0F7
S3150800799004000400FFF8080010003FE00020004043
S315080079A01C800300008000000000D7A20100408070
S315080079B0200017F0008080804080008017F010803B
S315080079C02080208040804FF800000000C5FA204043
S315080079D024402440F4482450276024403440E4409E
S315080079E02440244025482648E43800000000B7A271
S315080079F002002220221044007FF8040008000FE04D
S31508007A00142024404280810006C038380000000057
S31508007A10B3C900A0009000807FF8408040907C9019
S31508007A20449044A044A0444858A84118820800003D
S31508007A300000B9A601000100F90023F02110211069
S31508007A402110211021103910C210021004100860EC
S31508007A5000000000D2C60000002000780CE479047B
S31508007A60516810307E6019981A3C2FE448E40838AB
S31508007A70003000600000D1A100000120012003FCB5
S31508007A8062203420042003FC240021B02120222077
S31508007A90323E18000FE00000D4F10000000010FC90
S31508007AA01304110C3DF8703E10D015907CF0503E32
S31508007AB018101BFE023000200000CFEE0000000068
S31508007AC003FE00607C4012FC1104110611361124D5
S31508007AD01F44794400C0009C01860000C4BF000012
S31508007AE000000FE03C18200820043E0460046004EF
S31508007AF07E046004200C20081FF001800000B6CC2C
S31508007B000000080011FC103E3EF82D8C290449049B
S31508007B1009043E8C50FC10881EC811FC100E00008B
S31508007B20B0B400000040006012FE13023A427F44DF
S31508007B3010C41BFE3C987190113011A00078004CBF
S31508007B400000C8B70000004000F878C41F8C313820
S31508007B5021EC2126413A7DE2272225FA3D260124F9
S31508007B6001040000B6A80000010001705FFC700463
S31508007B7020042FF801001100113821C431003F00FC
S31508007B8063E040380000B3A400000000081808604D
S31508007B9008C00B001E00181C7FF01000118010E0B2
S31508007BA01838098E0F000000B0B4000000400060CD
S31508007BB012FE13023A427F4410C41BFE3C98719091
S31508007BC0113011A00078004C0000B7B50000000085
S31508007BD007F80600240014F8078C0404240826185D
S31508007BE025F0647C64C220801FC00000BBD800005A
S31508007BF000001FF030182008278C2C4428442844FD
S31508007C002CC427842004300C1FF803800000C7B654
S31508007C100100210821083FF800202220223EFF42C9
S31508007C20229422103E10221022283E282244008246
S31508007C30CABD0048004400440040FFFE0040004022
S31508007C403E4008400840082008220F12780A2006FD
S31508007C500002BFAA00007FFC082008200820082090
S31508007C600820FFFE082008200820082010201020E1
S31508007C7020204020B7A201001110110822003FFC65
S31508007C800200040007F80A080908111010A020408D
S31508007C9040A003181C06CDF800007FFC40044004F1
S31508007CA0421452944A54442444244A544A545294FA
S31508007CB06104400440144008D6D0010001000100C8
S31508007CC001003FF8210821082108210821083FF86A
S31508007CD021080100010001000100CEC402000100D4
S31508007CE00100FFFE10101010082008200440028032
S31508007CF001000280044008203018C006B2E20004E1
S31508007D0027C41444145485544554455415541554DD
S31508007D102554E55421042284224424140808CAD48C
S31508007D20002820241024102007FE0020F02017E049
S31508007D30112011101110151019CA170A020600028F
S31508007D40D6D001000100010001003FF821082108F2
S31508007D502108210821083FF8210801000100010037
S31508007D600100D2C608201C20F07C10841148FC3083
S31508007D70102030483990543E544291A410181010DF
S31508007D8010601180D4C600003FF800000000000013
S31508007D900000FFFE02000400040008401020201026
S31508007DA07FF820080008C6BD00007FFC010001001E
S31508007DB01110091009200100FFFE01000100010051
S31508007DC00100010001000100CCA802000200040025
S31508007DD00820101020087FFC200400001FF0101057
S31508007DE01010101010101FF01010CEEF1080108019
S31508007DF0508050FC7D545254905410941C94F12495
S31508007E00522410441044108411281010C1AA008866
S31508007E10FC484850480079FC4820482078204BFE0A
S31508007E2048204C507850C888088809040A02CDF8BA
S31508007E3000007FFC40044004421452944A544424EF
S31508007E4044244A544A545294610440044014400855
S31508007E500000000000000000000000000000000014
S31508007E600000000000000000000000000000000004
S31508007E700000B4F300000000000000180000100025
S31508007E8000100000100000100000100C3FFFFE005C
S31508007E90100000180000180000340000340000220A
S31508007EA00000620000410000C1800080C00100603F
S31508007EB006003808001C300000000000D4BD000091
S31508007EC0000000000300C00200B0020098026088AB
S31508007ED01F888C020FF0020C80022C887FDC880336
S31508007EE00C901B0CD01B0C6013EE60131E64130C55
S31508007EF0F413019C1B020C27040421D800407FFCC4
S31508007F004007F8000000B4B4000000000000038039
S31508007F100803000C02E00C06300C04198C08088CC7
S31508007F2008008C18208C2FF08C48208C08208C0890
S31508007F30208C08208C08608C09C10C08080C0808DD
S31508007F400C08080C0C0C0C07FC780000100000004C
S31508007F50D0C200000000000002000801003C013306
S31508007F60C03EC200086200044200048200049A0C63
S31508007F703FFFFE0102300102300112301FE23001DC
S31508007F8002300D42301936301114302114302108D0
S31508007F9030471030022030000000D2BA000000003E
S31508007FA000000006001803000C020C04FDF001197D
S31508007FB0800111004233083222F812421812651065
S31508007FC004E490056AB0056A200A71200861403801
S31508007FD060C01860C018616018623018641E08789E
S31508007FE000000000BEA700000000000001004001DC
S31508007FF0FFC001004001004001FFC0010040010030
S315080080004001FFC00100400000001064081FE7F8A7
S315080080101046081046081046081FC7F810460810EC
S3150800802046081046081FC7F8104608000000C6C1D3
S315080080300000000000000800000FFFF80C00180CF4
S3150800804000180FFFF80C40900C30C00C10800C1173
S31508008050100DFFF808308008308008308808309CFA
S315080080601FFFE01020801020802060802040804084
S315080080708080030080000000B2E2000000000000DB
S3150800808011000C09FE080D860805864801A6484118
S31508008090B64833B64813B64815B64805B64805B6C1
S315080080A04805B64809A64809A64839A448182048E4
S315080080B018580818440818860819023806001800BF
S315080080C00000CAD40000000000000001A01001D87A
S315080080D00800880C008804008400FFFE0000800069
S315080080E000800400803C0280047DC00408C00408A7
S315080080F040040840044860048822050F34073814F1
S3150800810006E01C04000E0000060000000000000047
S315080081100000000000000000000000000000000051
S315080081200000000000000000000000000000000041
S315080081300000000000000000000000000000000031
S315080081400000000000000000000000000000000021
S315080081500000000000000000E481000800404040E4
S3150800816040404040404041414141414040404040FC
S3150800817040404040404040404040404040050202A8
S315080081800202020202020202020202020220202067
S3150800819020202020202020020202020202029090C3
S315080081A090909090101010101010101010101010C1
S315080081B01010101010101010020202020202888815
S315080081C08888888808080808080808080808080821
S315080081D00808080808080808020202024000000009
S315080081E05D810008506C6561736520757365207440
S315080081F06865207374796C757320636C69636B208A
S315080082007468652063726F7373206F6E2074686577
S315080082102073637265656E2E5468652063726F738A
S31508008220732077696C6C20616C77617973206D6F48
S31508008230766520756E74696C207468652073637240
S3150800824065656E2061646A7573746D656E74206900
S315080082507320636F6D706C657465642E0000000092
S315080082608082000800000020980000003C510008A9
S315080082701883000898000020581700004C51000881
S3150800828000000000000000000000FFFFD090000082
S3150800829000000000A146000849490008013F0008FF
S315080082A000000000000000000000000000000000C0
S315080082B000000000000000000000000000000000B0
S315080082C000000000000000000000000014EF020497
S315080082D00608000000000102030401020304060761
S315080082E0080900000000000000000000000000006F
S315080082F0000000000000000000A24A040000000080
S315080083000000000001020304060708090000000037
S30D08008310000000000000000057
S70508000131C0
